{
	"vote_contract.sol": {
		"VoteContract": {
			"abi": [
				{
					"inputs": [
						{
							"internalType": "contract IERC20",
							"name": "_stakingToken",
							"type": "address"
						}
					],
					"stateMutability": "nonpayable",
					"type": "constructor"
				},
				{
					"inputs": [
						{
							"internalType": "address",
							"name": "owner",
							"type": "address"
						}
					],
					"name": "OwnableInvalidOwner",
					"type": "error"
				},
				{
					"inputs": [
						{
							"internalType": "address",
							"name": "account",
							"type": "address"
						}
					],
					"name": "OwnableUnauthorizedAccount",
					"type": "error"
				},
				{
					"anonymous": false,
					"inputs": [
						{
							"indexed": true,
							"internalType": "address",
							"name": "previousOwner",
							"type": "address"
						},
						{
							"indexed": true,
							"internalType": "address",
							"name": "newOwner",
							"type": "address"
						}
					],
					"name": "OwnershipTransferred",
					"type": "event"
				},
				{
					"anonymous": false,
					"inputs": [
						{
							"indexed": true,
							"internalType": "address",
							"name": "user",
							"type": "address"
						},
						{
							"indexed": false,
							"internalType": "uint256",
							"name": "amount",
							"type": "uint256"
						}
					],
					"name": "Staked",
					"type": "event"
				},
				{
					"anonymous": false,
					"inputs": [
						{
							"indexed": false,
							"internalType": "string",
							"name": "question",
							"type": "string"
						},
						{
							"indexed": false,
							"internalType": "uint256",
							"name": "voteID",
							"type": "uint256"
						}
					],
					"name": "VoteCreated",
					"type": "event"
				},
				{
					"anonymous": false,
					"inputs": [
						{
							"indexed": false,
							"internalType": "string",
							"name": "question",
							"type": "string"
						},
						{
							"indexed": false,
							"internalType": "uint256",
							"name": "voteID",
							"type": "uint256"
						},
						{
							"indexed": false,
							"internalType": "enum VoteContract.Decision",
							"name": "desition",
							"type": "uint8"
						}
					],
					"name": "VoteFinished",
					"type": "event"
				},
				{
					"anonymous": false,
					"inputs": [
						{
							"indexed": true,
							"internalType": "address",
							"name": "user",
							"type": "address"
						},
						{
							"indexed": false,
							"internalType": "uint256",
							"name": "amount",
							"type": "uint256"
						}
					],
					"name": "Withdrawn",
					"type": "event"
				},
				{
					"inputs": [
						{
							"internalType": "uint256",
							"name": "voteID",
							"type": "uint256"
						}
					],
					"name": "finishVote",
					"outputs": [],
					"stateMutability": "nonpayable",
					"type": "function"
				},
				{
					"inputs": [],
					"name": "getStake",
					"outputs": [
						{
							"components": [
								{
									"internalType": "uint256",
									"name": "stakedAmount",
									"type": "uint256"
								},
								{
									"internalType": "uint256",
									"name": "withdrawDate",
									"type": "uint256"
								}
							],
							"internalType": "struct StakingContract.Stake",
							"name": "",
							"type": "tuple"
						}
					],
					"stateMutability": "view",
					"type": "function"
				},
				{
					"inputs": [],
					"name": "getTotalStake",
					"outputs": [
						{
							"internalType": "uint256",
							"name": "",
							"type": "uint256"
						}
					],
					"stateMutability": "view",
					"type": "function"
				},
				{
					"inputs": [
						{
							"internalType": "uint256",
							"name": "voteID",
							"type": "uint256"
						}
					],
					"name": "getVote",
					"outputs": [
						{
							"components": [
								{
									"internalType": "uint256",
									"name": "deadline",
									"type": "uint256"
								},
								{
									"internalType": "uint256",
									"name": "threshold",
									"type": "uint256"
								},
								{
									"internalType": "string",
									"name": "question",
									"type": "string"
								},
								{
									"internalType": "uint256",
									"name": "peopleVoted",
									"type": "uint256"
								},
								{
									"internalType": "uint256",
									"name": "yesVote",
									"type": "uint256"
								},
								{
									"internalType": "uint256",
									"name": "noVote",
									"type": "uint256"
								},
								{
									"internalType": "enum VoteContract.Decision",
									"name": "finalDecision",
									"type": "uint8"
								}
							],
							"internalType": "struct VoteContract.Vote",
							"name": "",
							"type": "tuple"
						}
					],
					"stateMutability": "view",
					"type": "function"
				},
				{
					"inputs": [
						{
							"internalType": "string",
							"name": "question",
							"type": "string"
						},
						{
							"internalType": "uint256",
							"name": "threshold",
							"type": "uint256"
						},
						{
							"internalType": "uint256",
							"name": "deadline",
							"type": "uint256"
						}
					],
					"name": "initiateVote",
					"outputs": [
						{
							"internalType": "uint256",
							"name": "",
							"type": "uint256"
						}
					],
					"stateMutability": "nonpayable",
					"type": "function"
				},
				{
					"inputs": [],
					"name": "owner",
					"outputs": [
						{
							"internalType": "address",
							"name": "",
							"type": "address"
						}
					],
					"stateMutability": "view",
					"type": "function"
				},
				{
					"inputs": [],
					"name": "renounceOwnership",
					"outputs": [],
					"stateMutability": "nonpayable",
					"type": "function"
				},
				{
					"inputs": [
						{
							"internalType": "uint256",
							"name": "amount",
							"type": "uint256"
						},
						{
							"internalType": "uint256",
							"name": "period",
							"type": "uint256"
						}
					],
					"name": "stake",
					"outputs": [],
					"stateMutability": "nonpayable",
					"type": "function"
				},
				{
					"inputs": [],
					"name": "stakingToken",
					"outputs": [
						{
							"internalType": "contract IERC20",
							"name": "",
							"type": "address"
						}
					],
					"stateMutability": "view",
					"type": "function"
				},
				{
					"inputs": [],
					"name": "totalStaked",
					"outputs": [
						{
							"internalType": "uint256",
							"name": "",
							"type": "uint256"
						}
					],
					"stateMutability": "view",
					"type": "function"
				},
				{
					"inputs": [
						{
							"internalType": "address",
							"name": "newOwner",
							"type": "address"
						}
					],
					"name": "transferOwnership",
					"outputs": [],
					"stateMutability": "nonpayable",
					"type": "function"
				},
				{
					"inputs": [
						{
							"internalType": "address",
							"name": "",
							"type": "address"
						}
					],
					"name": "userStaking",
					"outputs": [
						{
							"internalType": "uint256",
							"name": "stakedAmount",
							"type": "uint256"
						},
						{
							"internalType": "uint256",
							"name": "withdrawDate",
							"type": "uint256"
						}
					],
					"stateMutability": "view",
					"type": "function"
				},
				{
					"inputs": [
						{
							"internalType": "uint256",
							"name": "voteID",
							"type": "uint256"
						},
						{
							"internalType": "bool",
							"name": "yes",
							"type": "bool"
						}
					],
					"name": "vote",
					"outputs": [],
					"stateMutability": "nonpayable",
					"type": "function"
				},
				{
					"inputs": [
						{
							"internalType": "uint256",
							"name": "",
							"type": "uint256"
						}
					],
					"name": "voteHistory",
					"outputs": [
						{
							"internalType": "uint256",
							"name": "deadline",
							"type": "uint256"
						},
						{
							"internalType": "uint256",
							"name": "threshold",
							"type": "uint256"
						},
						{
							"internalType": "string",
							"name": "question",
							"type": "string"
						},
						{
							"internalType": "uint256",
							"name": "peopleVoted",
							"type": "uint256"
						},
						{
							"internalType": "uint256",
							"name": "yesVote",
							"type": "uint256"
						},
						{
							"internalType": "uint256",
							"name": "noVote",
							"type": "uint256"
						},
						{
							"internalType": "enum VoteContract.Decision",
							"name": "finalDecision",
							"type": "uint8"
						}
					],
					"stateMutability": "view",
					"type": "function"
				},
				{
					"inputs": [],
					"name": "withdraw",
					"outputs": [],
					"stateMutability": "nonpayable",
					"type": "function"
				}
			],
			"devdoc": {
				"errors": {
					"OwnableInvalidOwner(address)": [
						{
							"details": "The owner is not a valid owner account. (eg. `address(0)`)"
						}
					],
					"OwnableUnauthorizedAccount(address)": [
						{
							"details": "The caller account is not authorized to perform an operation."
						}
					]
				},
				"kind": "dev",
				"methods": {
					"owner()": {
						"details": "Returns the address of the current owner."
					},
					"renounceOwnership()": {
						"details": "Leaves the contract without owner. It will not be possible to call `onlyOwner` functions. Can only be called by the current owner. NOTE: Renouncing ownership will leave the contract without an owner, thereby disabling any functionality that is only available to the owner."
					},
					"transferOwnership(address)": {
						"details": "Transfers ownership of the contract to a new account (`newOwner`). Can only be called by the current owner."
					}
				},
				"version": 1
			},
			"evm": {
				"assembly": "    /* \"vote_contract.sol\":264:3119  contract VoteContract is StakingContract {... */\n  mstore(0x40, 0x80)\n    /* \"vote_contract.sol\":773:840  constructor(IERC20 _stakingToken) StakingContract(_stakingToken) {} */\n  callvalue\n  dup1\n  iszero\n  tag_1\n  jumpi\n  0x00\n  dup1\n  revert\ntag_1:\n  pop\n  mload(0x40)\n  sub(codesize, bytecodeSize)\n  dup1\n  bytecodeSize\n  dup4\n  codecopy\n  dup2\n  dup2\n  add\n  0x40\n  mstore\n  dup2\n  add\n  swap1\n  tag_2\n  swap2\n  swap1\n  tag_3\n  jump\t// in\ntag_2:\n    /* \"vote_contract.sol\":823:836  _stakingToken */\n  dup1\n    /* \"stack_contract.sol\":678:688  msg.sender */\n  caller\n    /* \"@openzeppelin/contracts/security/ReentrancyGuard.sol\":1716:1717  1 */\n  0x01\n    /* \"@openzeppelin/contracts/security/ReentrancyGuard.sol\":1821:1828  _status */\n  0x00\n    /* \"@openzeppelin/contracts/security/ReentrancyGuard.sol\":1821:1843  _status = _NOT_ENTERED */\n  dup2\n  swap1\n  sstore\n  pop\n    /* \"@openzeppelin/contracts/access/Ownable.sol\":1297:1298  0 */\n  0x00\n    /* \"@openzeppelin/contracts/access/Ownable.sol\":1273:1299  initialOwner == address(0) */\n  0xffffffffffffffffffffffffffffffffffffffff\n  and\n    /* \"@openzeppelin/contracts/access/Ownable.sol\":1273:1285  initialOwner */\n  dup2\n    /* \"@openzeppelin/contracts/access/Ownable.sol\":1273:1299  initialOwner == address(0) */\n  0xffffffffffffffffffffffffffffffffffffffff\n  and\n  sub\n    /* \"@openzeppelin/contracts/access/Ownable.sol\":1269:1364  if (initialOwner == address(0)) {... */\n  tag_10\n  jumpi\n    /* \"@openzeppelin/contracts/access/Ownable.sol\":1350:1351  0 */\n  0x00\n    /* \"@openzeppelin/contracts/access/Ownable.sol\":1322:1353  OwnableInvalidOwner(address(0)) */\n  mload(0x40)\n  0x1e4fbdf700000000000000000000000000000000000000000000000000000000\n  dup2\n  mstore\n  0x04\n  add\n  tag_11\n  swap2\n  swap1\n  tag_12\n  jump\t// in\ntag_11:\n  mload(0x40)\n  dup1\n  swap2\n  sub\n  swap1\n  revert\n    /* \"@openzeppelin/contracts/access/Ownable.sol\":1269:1364  if (initialOwner == address(0)) {... */\ntag_10:\n    /* \"@openzeppelin/contracts/access/Ownable.sol\":1373:1405  _transferOwnership(initialOwner) */\n  tag_13\n    /* \"@openzeppelin/contracts/access/Ownable.sol\":1392:1404  initialOwner */\n  dup2\n    /* \"@openzeppelin/contracts/access/Ownable.sol\":1373:1391  _transferOwnership */\n  shl(0x20, tag_14)\n    /* \"@openzeppelin/contracts/access/Ownable.sol\":1373:1405  _transferOwnership(initialOwner) */\n  0x20\n  shr\n  jump\t// in\ntag_13:\n    /* \"@openzeppelin/contracts/access/Ownable.sol\":1225:1412  constructor(address initialOwner) {... */\n  pop\n    /* \"stack_contract.sol\":715:728  _stakingToken */\n  dup1\n    /* \"stack_contract.sol\":700:712  stakingToken */\n  0x02\n  0x00\n    /* \"stack_contract.sol\":700:728  stakingToken = _stakingToken */\n  0x0100\n  exp\n  dup2\n  sload\n  dup2\n  0xffffffffffffffffffffffffffffffffffffffff\n  mul\n  not\n  and\n  swap1\n  dup4\n  0xffffffffffffffffffffffffffffffffffffffff\n  and\n  mul\n  or\n  swap1\n  sstore\n  pop\n    /* \"stack_contract.sol\":636:735  constructor(IERC20 _stakingToken) Ownable(msg.sender) {... */\n  pop\n    /* \"vote_contract.sol\":773:840  constructor(IERC20 _stakingToken) StakingContract(_stakingToken) {} */\n  pop\n    /* \"vote_contract.sol\":264:3119  contract VoteContract is StakingContract {... */\n  jump(tag_17)\n    /* \"@openzeppelin/contracts/access/Ownable.sol\":2912:3099  function _transferOwnership(address newOwner) internal virtual {... */\ntag_14:\n    /* \"@openzeppelin/contracts/access/Ownable.sol\":2985:3001  address oldOwner */\n  0x00\n    /* \"@openzeppelin/contracts/access/Ownable.sol\":3004:3010  _owner */\n  0x01\n  0x00\n  swap1\n  sload\n  swap1\n  0x0100\n  exp\n  swap1\n  div\n  0xffffffffffffffffffffffffffffffffffffffff\n  and\n    /* \"@openzeppelin/contracts/access/Ownable.sol\":2985:3010  address oldOwner = _owner */\n  swap1\n  pop\n    /* \"@openzeppelin/contracts/access/Ownable.sol\":3029:3037  newOwner */\n  dup2\n    /* \"@openzeppelin/contracts/access/Ownable.sol\":3020:3026  _owner */\n  0x01\n  0x00\n    /* \"@openzeppelin/contracts/access/Ownable.sol\":3020:3037  _owner = newOwner */\n  0x0100\n  exp\n  dup2\n  sload\n  dup2\n  0xffffffffffffffffffffffffffffffffffffffff\n  mul\n  not\n  and\n  swap1\n  dup4\n  0xffffffffffffffffffffffffffffffffffffffff\n  and\n  mul\n  or\n  swap1\n  sstore\n  pop\n    /* \"@openzeppelin/contracts/access/Ownable.sol\":3083:3091  newOwner */\n  dup2\n    /* \"@openzeppelin/contracts/access/Ownable.sol\":3052:3092  OwnershipTransferred(oldOwner, newOwner) */\n  0xffffffffffffffffffffffffffffffffffffffff\n  and\n    /* \"@openzeppelin/contracts/access/Ownable.sol\":3073:3081  oldOwner */\n  dup2\n    /* \"@openzeppelin/contracts/access/Ownable.sol\":3052:3092  OwnershipTransferred(oldOwner, newOwner) */\n  0xffffffffffffffffffffffffffffffffffffffff\n  and\n  0x8be0079c531659141344cd1fd0a4f28419497f9722a3daafe3b4186f6b6457e0\n  mload(0x40)\n  mload(0x40)\n  dup1\n  swap2\n  sub\n  swap1\n  log3\n    /* \"@openzeppelin/contracts/access/Ownable.sol\":2975:3099  {... */\n  pop\n    /* \"@openzeppelin/contracts/access/Ownable.sol\":2912:3099  function _transferOwnership(address newOwner) internal virtual {... */\n  pop\n  jump\t// out\n    /* \"#utility.yul\":88:205   */\ntag_20:\n    /* \"#utility.yul\":197:198   */\n  0x00\n    /* \"#utility.yul\":194:195   */\n  dup1\n    /* \"#utility.yul\":187:199   */\n  revert\n    /* \"#utility.yul\":334:460   */\ntag_22:\n    /* \"#utility.yul\":371:378   */\n  0x00\n    /* \"#utility.yul\":411:453   */\n  0xffffffffffffffffffffffffffffffffffffffff\n    /* \"#utility.yul\":404:409   */\n  dup3\n    /* \"#utility.yul\":400:454   */\n  and\n    /* \"#utility.yul\":389:454   */\n  swap1\n  pop\n    /* \"#utility.yul\":334:460   */\n  swap2\n  swap1\n  pop\n  jump\t// out\n    /* \"#utility.yul\":466:562   */\ntag_23:\n    /* \"#utility.yul\":503:510   */\n  0x00\n    /* \"#utility.yul\":532:556   */\n  tag_34\n    /* \"#utility.yul\":550:555   */\n  dup3\n    /* \"#utility.yul\":532:556   */\n  tag_22\n  jump\t// in\ntag_34:\n    /* \"#utility.yul\":521:556   */\n  swap1\n  pop\n    /* \"#utility.yul\":466:562   */\n  swap2\n  swap1\n  pop\n  jump\t// out\n    /* \"#utility.yul\":568:678   */\ntag_24:\n    /* \"#utility.yul\":619:626   */\n  0x00\n    /* \"#utility.yul\":648:672   */\n  tag_36\n    /* \"#utility.yul\":666:671   */\n  dup3\n    /* \"#utility.yul\":648:672   */\n  tag_23\n  jump\t// in\ntag_36:\n    /* \"#utility.yul\":637:672   */\n  swap1\n  pop\n    /* \"#utility.yul\":568:678   */\n  swap2\n  swap1\n  pop\n  jump\t// out\n    /* \"#utility.yul\":684:834   */\ntag_25:\n    /* \"#utility.yul\":771:809   */\n  tag_38\n    /* \"#utility.yul\":803:808   */\n  dup2\n    /* \"#utility.yul\":771:809   */\n  tag_24\n  jump\t// in\ntag_38:\n    /* \"#utility.yul\":764:769   */\n  dup2\n    /* \"#utility.yul\":761:810   */\n  eq\n    /* \"#utility.yul\":751:828   */\n  tag_39\n  jumpi\n    /* \"#utility.yul\":824:825   */\n  0x00\n    /* \"#utility.yul\":821:822   */\n  dup1\n    /* \"#utility.yul\":814:826   */\n  revert\n    /* \"#utility.yul\":751:828   */\ntag_39:\n    /* \"#utility.yul\":684:834   */\n  pop\n  jump\t// out\n    /* \"#utility.yul\":840:1011   */\ntag_26:\n    /* \"#utility.yul\":911:916   */\n  0x00\n    /* \"#utility.yul\":942:948   */\n  dup2\n    /* \"#utility.yul\":936:949   */\n  mload\n    /* \"#utility.yul\":927:949   */\n  swap1\n  pop\n    /* \"#utility.yul\":958:1005   */\n  tag_41\n    /* \"#utility.yul\":999:1004   */\n  dup2\n    /* \"#utility.yul\":958:1005   */\n  tag_25\n  jump\t// in\ntag_41:\n    /* \"#utility.yul\":840:1011   */\n  swap3\n  swap2\n  pop\n  pop\n  jump\t// out\n    /* \"#utility.yul\":1017:1396   */\ntag_3:\n    /* \"#utility.yul\":1101:1107   */\n  0x00\n    /* \"#utility.yul\":1150:1152   */\n  0x20\n    /* \"#utility.yul\":1138:1147   */\n  dup3\n    /* \"#utility.yul\":1129:1136   */\n  dup5\n    /* \"#utility.yul\":1125:1148   */\n  sub\n    /* \"#utility.yul\":1121:1153   */\n  slt\n    /* \"#utility.yul\":1118:1237   */\n  iszero\n  tag_43\n  jumpi\n    /* \"#utility.yul\":1156:1235   */\n  tag_44\n  tag_20\n  jump\t// in\ntag_44:\n    /* \"#utility.yul\":1118:1237   */\ntag_43:\n    /* \"#utility.yul\":1276:1277   */\n  0x00\n    /* \"#utility.yul\":1301:1379   */\n  tag_45\n    /* \"#utility.yul\":1371:1378   */\n  dup5\n    /* \"#utility.yul\":1362:1368   */\n  dup3\n    /* \"#utility.yul\":1351:1360   */\n  dup6\n    /* \"#utility.yul\":1347:1369   */\n  add\n    /* \"#utility.yul\":1301:1379   */\n  tag_26\n  jump\t// in\ntag_45:\n    /* \"#utility.yul\":1291:1379   */\n  swap2\n  pop\n    /* \"#utility.yul\":1247:1389   */\n  pop\n    /* \"#utility.yul\":1017:1396   */\n  swap3\n  swap2\n  pop\n  pop\n  jump\t// out\n    /* \"#utility.yul\":1402:1520   */\ntag_27:\n    /* \"#utility.yul\":1489:1513   */\n  tag_47\n    /* \"#utility.yul\":1507:1512   */\n  dup2\n    /* \"#utility.yul\":1489:1513   */\n  tag_23\n  jump\t// in\ntag_47:\n    /* \"#utility.yul\":1484:1487   */\n  dup3\n    /* \"#utility.yul\":1477:1514   */\n  mstore\n    /* \"#utility.yul\":1402:1520   */\n  pop\n  pop\n  jump\t// out\n    /* \"#utility.yul\":1526:1748   */\ntag_12:\n    /* \"#utility.yul\":1619:1623   */\n  0x00\n    /* \"#utility.yul\":1657:1659   */\n  0x20\n    /* \"#utility.yul\":1646:1655   */\n  dup3\n    /* \"#utility.yul\":1642:1660   */\n  add\n    /* \"#utility.yul\":1634:1660   */\n  swap1\n  pop\n    /* \"#utility.yul\":1670:1741   */\n  tag_49\n    /* \"#utility.yul\":1738:1739   */\n  0x00\n    /* \"#utility.yul\":1727:1736   */\n  dup4\n    /* \"#utility.yul\":1723:1740   */\n  add\n    /* \"#utility.yul\":1714:1720   */\n  dup5\n    /* \"#utility.yul\":1670:1741   */\n  tag_27\n  jump\t// in\ntag_49:\n    /* \"#utility.yul\":1526:1748   */\n  swap3\n  swap2\n  pop\n  pop\n  jump\t// out\n    /* \"vote_contract.sol\":264:3119  contract VoteContract is StakingContract {... */\ntag_17:\n  dataSize(sub_0)\n  dup1\n  dataOffset(sub_0)\n  0x00\n  codecopy\n  0x00\n  return\nstop\n\nsub_0: assembly {\n        /* \"vote_contract.sol\":264:3119  contract VoteContract is StakingContract {... */\n      mstore(0x40, 0x80)\n      callvalue\n      dup1\n      iszero\n      tag_1\n      jumpi\n      0x00\n      dup1\n      revert\n    tag_1:\n      pop\n      jumpi(tag_2, lt(calldatasize, 0x04))\n      shr(0xe0, calldataload(0x00))\n      dup1\n      0x7bc74225\n      gt\n      tag_18\n      jumpi\n      dup1\n      0xc9d27afe\n      gt\n      tag_19\n      jumpi\n      dup1\n      0xc9d27afe\n      eq\n      tag_14\n      jumpi\n      dup1\n      0xe13646f0\n      eq\n      tag_15\n      jumpi\n      dup1\n      0xf2fde38b\n      eq\n      tag_16\n      jumpi\n      dup1\n      0xfc0e3d90\n      eq\n      tag_17\n      jumpi\n      jump(tag_2)\n    tag_19:\n      dup1\n      0x7bc74225\n      eq\n      tag_10\n      jumpi\n      dup1\n      0x817b1cd2\n      eq\n      tag_11\n      jumpi\n      dup1\n      0x821460f5\n      eq\n      tag_12\n      jumpi\n      dup1\n      0x8da5cb5b\n      eq\n      tag_13\n      jumpi\n      jump(tag_2)\n    tag_18:\n      dup1\n      0x5a55c1f0\n      gt\n      tag_20\n      jumpi\n      dup1\n      0x5a55c1f0\n      eq\n      tag_6\n      jumpi\n      dup1\n      0x715018a6\n      eq\n      tag_7\n      jumpi\n      dup1\n      0x72f702f3\n      eq\n      tag_8\n      jumpi\n      dup1\n      0x7b0472f0\n      eq\n      tag_9\n      jumpi\n      jump(tag_2)\n    tag_20:\n      dup1\n      0x12b1d5ac\n      eq\n      tag_3\n      jumpi\n      dup1\n      0x3ccfd60b\n      eq\n      tag_4\n      jumpi\n      dup1\n      0x521de117\n      eq\n      tag_5\n      jumpi\n    tag_2:\n      0x00\n      dup1\n      revert\n        /* \"vote_contract.sol\":312:337  Vote[] public voteHistory */\n    tag_3:\n      tag_21\n      0x04\n      dup1\n      calldatasize\n      sub\n      dup2\n      add\n      swap1\n      tag_22\n      swap2\n      swap1\n      tag_23\n      jump\t// in\n    tag_22:\n      tag_24\n      jump\t// in\n    tag_21:\n      mload(0x40)\n      tag_25\n      swap8\n      swap7\n      swap6\n      swap5\n      swap4\n      swap3\n      swap2\n      swap1\n      tag_26\n      jump\t// in\n    tag_25:\n      mload(0x40)\n      dup1\n      swap2\n      sub\n      swap1\n      return\n        /* \"stack_contract.sol\":1559:2116  function withdraw() external nonReentrant {... */\n    tag_4:\n      tag_27\n      tag_28\n      jump\t// in\n    tag_27:\n      stop\n        /* \"vote_contract.sol\":990:1549  function initiateVote(string memory question, uint256 threshold, uint256 deadline) external onlyOwner returns(uint256){... */\n    tag_5:\n      tag_29\n      0x04\n      dup1\n      calldatasize\n      sub\n      dup2\n      add\n      swap1\n      tag_30\n      swap2\n      swap1\n      tag_31\n      jump\t// in\n    tag_30:\n      tag_32\n      jump\t// in\n    tag_29:\n      mload(0x40)\n      tag_33\n      swap2\n      swap1\n      tag_34\n      jump\t// in\n    tag_33:\n      mload(0x40)\n      dup1\n      swap2\n      sub\n      swap1\n      return\n        /* \"vote_contract.sol\":2250:2403  function getVote(uint256 voteID) external view indexInBounds(voteID, voteHistory.length) returns (Vote memory){... */\n    tag_6:\n      tag_35\n      0x04\n      dup1\n      calldatasize\n      sub\n      dup2\n      add\n      swap1\n      tag_36\n      swap2\n      swap1\n      tag_23\n      jump\t// in\n    tag_36:\n      tag_37\n      jump\t// in\n    tag_35:\n      mload(0x40)\n      tag_38\n      swap2\n      swap1\n      tag_39\n      jump\t// in\n    tag_38:\n      mload(0x40)\n      dup1\n      swap2\n      sub\n      swap1\n      return\n        /* \"@openzeppelin/contracts/access/Ownable.sol\":2293:2394  function renounceOwnership() public virtual onlyOwner {... */\n    tag_7:\n      tag_40\n      tag_41\n      jump\t// in\n    tag_40:\n      stop\n        /* \"stack_contract.sol\":292:318  IERC20 public stakingToken */\n    tag_8:\n      tag_42\n      tag_43\n      jump\t// in\n    tag_42:\n      mload(0x40)\n      tag_44\n      swap2\n      swap1\n      tag_45\n      jump\t// in\n    tag_44:\n      mload(0x40)\n      dup1\n      swap2\n      sub\n      swap1\n      return\n        /* \"stack_contract.sol\":745:1347  function stake(uint256 amount, uint256 period) external nonReentrant {... */\n    tag_9:\n      tag_46\n      0x04\n      dup1\n      calldatasize\n      sub\n      dup2\n      add\n      swap1\n      tag_47\n      swap2\n      swap1\n      tag_48\n      jump\t// in\n    tag_47:\n      tag_49\n      jump\t// in\n    tag_46:\n      stop\n        /* \"stack_contract.sol\":1460:1549  function getTotalStake() public view returns(uint256) {... */\n    tag_10:\n      tag_50\n      tag_51\n      jump\t// in\n    tag_50:\n      mload(0x40)\n      tag_52\n      swap2\n      swap1\n      tag_34\n      jump\t// in\n    tag_52:\n      mload(0x40)\n      dup1\n      swap2\n      sub\n      swap1\n      return\n        /* \"stack_contract.sol\":325:351  uint256 public totalStaked */\n    tag_11:\n      tag_53\n      tag_54\n      jump\t// in\n    tag_53:\n      mload(0x40)\n      tag_55\n      swap2\n      swap1\n      tag_34\n      jump\t// in\n    tag_55:\n      mload(0x40)\n      dup1\n      swap2\n      sub\n      swap1\n      return\n        /* \"stack_contract.sol\":362:406  mapping(address => Stake) public userStaking */\n    tag_12:\n      tag_56\n      0x04\n      dup1\n      calldatasize\n      sub\n      dup2\n      add\n      swap1\n      tag_57\n      swap2\n      swap1\n      tag_58\n      jump\t// in\n    tag_57:\n      tag_59\n      jump\t// in\n    tag_56:\n      mload(0x40)\n      tag_60\n      swap3\n      swap2\n      swap1\n      tag_61\n      jump\t// in\n    tag_60:\n      mload(0x40)\n      dup1\n      swap2\n      sub\n      swap1\n      return\n        /* \"@openzeppelin/contracts/access/Ownable.sol\":1638:1723  function owner() public view virtual returns (address) {... */\n    tag_13:\n      tag_62\n      tag_63\n      jump\t// in\n    tag_62:\n      mload(0x40)\n      tag_64\n      swap2\n      swap1\n      tag_65\n      jump\t// in\n    tag_64:\n      mload(0x40)\n      dup1\n      swap2\n      sub\n      swap1\n      return\n        /* \"vote_contract.sol\":2502:2958  function vote(uint256 voteID, bool yes) external indexInBounds(voteID, voteHistory.length){... */\n    tag_14:\n      tag_66\n      0x04\n      dup1\n      calldatasize\n      sub\n      dup2\n      add\n      swap1\n      tag_67\n      swap2\n      swap1\n      tag_68\n      jump\t// in\n    tag_67:\n      tag_69\n      jump\t// in\n    tag_66:\n      stop\n        /* \"vote_contract.sol\":1555:2244  function finishVote(uint256 voteID) external indexInBounds(voteID, voteHistory.length){... */\n    tag_15:\n      tag_70\n      0x04\n      dup1\n      calldatasize\n      sub\n      dup2\n      add\n      swap1\n      tag_71\n      swap2\n      swap1\n      tag_23\n      jump\t// in\n    tag_71:\n      tag_72\n      jump\t// in\n    tag_70:\n      stop\n        /* \"@openzeppelin/contracts/access/Ownable.sol\":2543:2758  function transferOwnership(address newOwner) public virtual onlyOwner {... */\n    tag_16:\n      tag_73\n      0x04\n      dup1\n      calldatasize\n      sub\n      dup2\n      add\n      swap1\n      tag_74\n      swap2\n      swap1\n      tag_58\n      jump\t// in\n    tag_74:\n      tag_75\n      jump\t// in\n    tag_73:\n      stop\n        /* \"stack_contract.sol\":1353:1454  function getStake() public view returns(Stake memory) {... */\n    tag_17:\n      tag_76\n      tag_77\n      jump\t// in\n    tag_76:\n      mload(0x40)\n      tag_78\n      swap2\n      swap1\n      tag_79\n      jump\t// in\n    tag_78:\n      mload(0x40)\n      dup1\n      swap2\n      sub\n      swap1\n      return\n        /* \"vote_contract.sol\":312:337  Vote[] public voteHistory */\n    tag_24:\n      0x05\n      dup2\n      dup2\n      sload\n      dup2\n      lt\n      tag_80\n      jumpi\n      0x00\n      dup1\n      revert\n    tag_80:\n      swap1\n      0x00\n      mstore\n      keccak256(0x00, 0x20)\n      swap1\n      0x07\n      mul\n      add\n      0x00\n      swap2\n      pop\n      swap1\n      pop\n      dup1\n      0x00\n      add\n      sload\n      swap1\n      dup1\n      0x01\n      add\n      sload\n      swap1\n      dup1\n      0x02\n      add\n      dup1\n      sload\n      tag_82\n      swap1\n      tag_83\n      jump\t// in\n    tag_82:\n      dup1\n      0x1f\n      add\n      0x20\n      dup1\n      swap2\n      div\n      mul\n      0x20\n      add\n      mload(0x40)\n      swap1\n      dup2\n      add\n      0x40\n      mstore\n      dup1\n      swap3\n      swap2\n      swap1\n      dup2\n      dup2\n      mstore\n      0x20\n      add\n      dup3\n      dup1\n      sload\n      tag_84\n      swap1\n      tag_83\n      jump\t// in\n    tag_84:\n      dup1\n      iszero\n      tag_85\n      jumpi\n      dup1\n      0x1f\n      lt\n      tag_86\n      jumpi\n      0x0100\n      dup1\n      dup4\n      sload\n      div\n      mul\n      dup4\n      mstore\n      swap2\n      0x20\n      add\n      swap2\n      jump(tag_85)\n    tag_86:\n      dup3\n      add\n      swap2\n      swap1\n      0x00\n      mstore\n      keccak256(0x00, 0x20)\n      swap1\n    tag_87:\n      dup2\n      sload\n      dup2\n      mstore\n      swap1\n      0x01\n      add\n      swap1\n      0x20\n      add\n      dup1\n      dup4\n      gt\n      tag_87\n      jumpi\n      dup3\n      swap1\n      sub\n      0x1f\n      and\n      dup3\n      add\n      swap2\n    tag_85:\n      pop\n      pop\n      pop\n      pop\n      pop\n      swap1\n      dup1\n      0x03\n      add\n      sload\n      swap1\n      dup1\n      0x04\n      add\n      sload\n      swap1\n      dup1\n      0x05\n      add\n      sload\n      swap1\n      dup1\n      0x06\n      add\n      0x00\n      swap1\n      sload\n      swap1\n      0x0100\n      exp\n      swap1\n      div\n      0xff\n      and\n      swap1\n      pop\n      dup8\n      jump\t// out\n        /* \"stack_contract.sol\":1559:2116  function withdraw() external nonReentrant {... */\n    tag_28:\n        /* \"@openzeppelin/contracts/security/ReentrancyGuard.sol\":2261:2282  _nonReentrantBefore() */\n      tag_89\n        /* \"@openzeppelin/contracts/security/ReentrancyGuard.sol\":2261:2280  _nonReentrantBefore */\n      tag_90\n        /* \"@openzeppelin/contracts/security/ReentrancyGuard.sol\":2261:2282  _nonReentrantBefore() */\n      jump\t// in\n    tag_89:\n        /* \"stack_contract.sol\":1611:1633  Stake memory userStack */\n      0x00\n        /* \"stack_contract.sol\":1636:1647  userStaking */\n      0x04\n        /* \"stack_contract.sol\":1636:1659  userStaking[msg.sender] */\n      0x00\n        /* \"stack_contract.sol\":1648:1658  msg.sender */\n      caller\n        /* \"stack_contract.sol\":1636:1659  userStaking[msg.sender] */\n      0xffffffffffffffffffffffffffffffffffffffff\n      and\n      0xffffffffffffffffffffffffffffffffffffffff\n      and\n      dup2\n      mstore\n      0x20\n      add\n      swap1\n      dup2\n      mstore\n      0x20\n      add\n      0x00\n      keccak256\n        /* \"stack_contract.sol\":1611:1659  Stake memory userStack = userStaking[msg.sender] */\n      mload(0x40)\n      dup1\n      0x40\n      add\n      0x40\n      mstore\n      swap1\n      dup2\n      0x00\n      dup3\n      add\n      sload\n      dup2\n      mstore\n      0x20\n      add\n      0x01\n      dup3\n      add\n      sload\n      dup2\n      mstore\n      pop\n      pop\n      swap1\n      pop\n        /* \"stack_contract.sol\":1702:1703  0 */\n      0x00\n        /* \"stack_contract.sol\":1677:1686  userStack */\n      dup2\n        /* \"stack_contract.sol\":1677:1699  userStack.stakedAmount */\n      0x00\n      add\n      mload\n        /* \"stack_contract.sol\":1677:1703  userStack.stakedAmount > 0 */\n      gt\n        /* \"stack_contract.sol\":1669:1725  require(userStack.stakedAmount > 0, \"Cannot withdraw 0\") */\n      tag_92\n      jumpi\n      mload(0x40)\n      0x08c379a000000000000000000000000000000000000000000000000000000000\n      dup2\n      mstore\n      0x04\n      add\n      tag_93\n      swap1\n      tag_94\n      jump\t// in\n    tag_93:\n      mload(0x40)\n      dup1\n      swap2\n      sub\n      swap1\n      revert\n    tag_92:\n        /* \"stack_contract.sol\":1769:1784  block.timestamp */\n      timestamp\n        /* \"stack_contract.sol\":1743:1752  userStack */\n      dup2\n        /* \"stack_contract.sol\":1743:1765  userStack.withdrawDate */\n      0x20\n      add\n      mload\n        /* \"stack_contract.sol\":1743:1784  userStack.withdrawDate <= block.timestamp */\n      gt\n      iszero\n        /* \"stack_contract.sol\":1735:1808  require(userStack.withdrawDate <= block.timestamp, \"Too early withdraw!\") */\n      tag_95\n      jumpi\n      mload(0x40)\n      0x08c379a000000000000000000000000000000000000000000000000000000000\n      dup2\n      mstore\n      0x04\n      add\n      tag_96\n      swap1\n      tag_97\n      jump\t// in\n    tag_96:\n      mload(0x40)\n      dup1\n      swap2\n      sub\n      swap1\n      revert\n    tag_95:\n        /* \"stack_contract.sol\":1827:1839  bool success */\n      0x00\n        /* \"stack_contract.sol\":1842:1854  stakingToken */\n      0x02\n      0x00\n      swap1\n      sload\n      swap1\n      0x0100\n      exp\n      swap1\n      div\n      0xffffffffffffffffffffffffffffffffffffffff\n      and\n        /* \"stack_contract.sol\":1842:1863  stakingToken.transfer */\n      0xffffffffffffffffffffffffffffffffffffffff\n      and\n      0xa9059cbb\n        /* \"stack_contract.sol\":1864:1874  msg.sender */\n      caller\n        /* \"stack_contract.sol\":1876:1885  userStack */\n      dup5\n        /* \"stack_contract.sol\":1876:1898  userStack.stakedAmount */\n      0x00\n      add\n      mload\n        /* \"stack_contract.sol\":1842:1899  stakingToken.transfer(msg.sender, userStack.stakedAmount) */\n      mload(0x40)\n      dup4\n      0xffffffff\n      and\n      0xe0\n      shl\n      dup2\n      mstore\n      0x04\n      add\n      tag_98\n      swap3\n      swap2\n      swap1\n      tag_99\n      jump\t// in\n    tag_98:\n      0x20\n      mload(0x40)\n      dup1\n      dup4\n      sub\n      dup2\n      0x00\n      dup8\n      gas\n      call\n      iszero\n      dup1\n      iszero\n      tag_101\n      jumpi\n      returndatasize\n      0x00\n      dup1\n      returndatacopy\n      revert(0x00, returndatasize)\n    tag_101:\n      pop\n      pop\n      pop\n      pop\n      mload(0x40)\n      returndatasize\n      not(0x1f)\n      0x1f\n      dup3\n      add\n      and\n      dup3\n      add\n      dup1\n      0x40\n      mstore\n      pop\n      dup2\n      add\n      swap1\n      tag_102\n      swap2\n      swap1\n      tag_103\n      jump\t// in\n    tag_102:\n        /* \"stack_contract.sol\":1827:1899  bool success = stakingToken.transfer(msg.sender, userStack.stakedAmount) */\n      swap1\n      pop\n        /* \"stack_contract.sol\":1917:1924  success */\n      dup1\n        /* \"stack_contract.sol\":1909:1944  require(success, \"Transfer failed\") */\n      tag_104\n      jumpi\n      mload(0x40)\n      0x08c379a000000000000000000000000000000000000000000000000000000000\n      dup2\n      mstore\n      0x04\n      add\n      tag_105\n      swap1\n      tag_106\n      jump\t// in\n    tag_105:\n      mload(0x40)\n      dup1\n      swap2\n      sub\n      swap1\n      revert\n    tag_104:\n        /* \"stack_contract.sol\":1970:1979  userStack */\n      dup2\n        /* \"stack_contract.sol\":1970:1992  userStack.stakedAmount */\n      0x00\n      add\n      mload\n        /* \"stack_contract.sol\":1955:1966  totalStaked */\n      0x03\n      0x00\n        /* \"stack_contract.sol\":1955:1992  totalStaked -= userStack.stakedAmount */\n      dup3\n      dup3\n      sload\n      tag_107\n      swap2\n      swap1\n      tag_108\n      jump\t// in\n    tag_107:\n      swap3\n      pop\n      pop\n      dup2\n      swap1\n      sstore\n      pop\n        /* \"stack_contract.sol\":2029:2040  Stake(0, 0) */\n      mload(0x40)\n      dup1\n      0x40\n      add\n      0x40\n      mstore\n      dup1\n        /* \"stack_contract.sol\":2035:2036  0 */\n      0x00\n        /* \"stack_contract.sol\":2029:2040  Stake(0, 0) */\n      dup2\n      mstore\n      0x20\n      add\n        /* \"stack_contract.sol\":2038:2039  0 */\n      0x00\n        /* \"stack_contract.sol\":2029:2040  Stake(0, 0) */\n      dup2\n      mstore\n      pop\n        /* \"stack_contract.sol\":2003:2014  userStaking */\n      0x04\n        /* \"stack_contract.sol\":2003:2026  userStaking[msg.sender] */\n      0x00\n        /* \"stack_contract.sol\":2015:2025  msg.sender */\n      caller\n        /* \"stack_contract.sol\":2003:2026  userStaking[msg.sender] */\n      0xffffffffffffffffffffffffffffffffffffffff\n      and\n      0xffffffffffffffffffffffffffffffffffffffff\n      and\n      dup2\n      mstore\n      0x20\n      add\n      swap1\n      dup2\n      mstore\n      0x20\n      add\n      0x00\n      keccak256\n        /* \"stack_contract.sol\":2003:2040  userStaking[msg.sender] = Stake(0, 0) */\n      0x00\n      dup3\n      add\n      mload\n      dup2\n      0x00\n      add\n      sstore\n      0x20\n      dup3\n      add\n      mload\n      dup2\n      0x01\n      add\n      sstore\n      swap1\n      pop\n      pop\n        /* \"stack_contract.sol\":2074:2084  msg.sender */\n      caller\n        /* \"stack_contract.sol\":2064:2109  Withdrawn(msg.sender, userStack.stakedAmount) */\n      0xffffffffffffffffffffffffffffffffffffffff\n      and\n      0x7084f5476618d8e60b11ef0d7d3f06914655adb8793e28ff7f018d4c76d505d5\n        /* \"stack_contract.sol\":2086:2095  userStack */\n      dup4\n        /* \"stack_contract.sol\":2086:2108  userStack.stakedAmount */\n      0x00\n      add\n      mload\n        /* \"stack_contract.sol\":2064:2109  Withdrawn(msg.sender, userStack.stakedAmount) */\n      mload(0x40)\n      tag_109\n      swap2\n      swap1\n      tag_34\n      jump\t// in\n    tag_109:\n      mload(0x40)\n      dup1\n      swap2\n      sub\n      swap1\n      log2\n        /* \"stack_contract.sol\":1601:2116  {... */\n      pop\n      pop\n        /* \"@openzeppelin/contracts/security/ReentrancyGuard.sol\":2303:2323  _nonReentrantAfter() */\n      tag_110\n        /* \"@openzeppelin/contracts/security/ReentrancyGuard.sol\":2303:2321  _nonReentrantAfter */\n      tag_111\n        /* \"@openzeppelin/contracts/security/ReentrancyGuard.sol\":2303:2323  _nonReentrantAfter() */\n      jump\t// in\n    tag_110:\n        /* \"stack_contract.sol\":1559:2116  function withdraw() external nonReentrant {... */\n      jump\t// out\n        /* \"vote_contract.sol\":990:1549  function initiateVote(string memory question, uint256 threshold, uint256 deadline) external onlyOwner returns(uint256){... */\n    tag_32:\n        /* \"vote_contract.sol\":1100:1107  uint256 */\n      0x00\n        /* \"@openzeppelin/contracts/access/Ownable.sol\":1531:1544  _checkOwner() */\n      tag_113\n        /* \"@openzeppelin/contracts/access/Ownable.sol\":1531:1542  _checkOwner */\n      tag_114\n        /* \"@openzeppelin/contracts/access/Ownable.sol\":1531:1544  _checkOwner() */\n      jump\t// in\n    tag_113:\n        /* \"vote_contract.sol\":1118:1129  voteHistory */\n      0x05\n        /* \"vote_contract.sol\":1148:1425  Vote({... */\n      mload(0x40)\n      dup1\n      0xe0\n      add\n      0x40\n      mstore\n      dup1\n        /* \"vote_contract.sol\":1181:1189  deadline */\n      dup5\n        /* \"vote_contract.sol\":1148:1425  Vote({... */\n      dup2\n      mstore\n      0x20\n      add\n        /* \"vote_contract.sol\":1219:1228  threshold */\n      dup6\n        /* \"vote_contract.sol\":1148:1425  Vote({... */\n      dup2\n      mstore\n      0x20\n      add\n        /* \"vote_contract.sol\":1257:1265  question */\n      dup7\n        /* \"vote_contract.sol\":1148:1425  Vote({... */\n      dup2\n      mstore\n      0x20\n      add\n        /* \"vote_contract.sol\":1296:1297  0 */\n      0x00\n        /* \"vote_contract.sol\":1148:1425  Vote({... */\n      dup2\n      mstore\n      0x20\n      add\n        /* \"vote_contract.sol\":1324:1325  0 */\n      0x00\n        /* \"vote_contract.sol\":1148:1425  Vote({... */\n      dup2\n      mstore\n      0x20\n      add\n        /* \"vote_contract.sol\":1353:1354  0 */\n      0x00\n        /* \"vote_contract.sol\":1148:1425  Vote({... */\n      dup2\n      mstore\n      0x20\n      add\n        /* \"vote_contract.sol\":1392:1410  Decision.InProcess */\n      0x02\n        /* \"vote_contract.sol\":1148:1425  Vote({... */\n      dup1\n      dup2\n      gt\n      iszero\n      tag_116\n      jumpi\n      tag_117\n      tag_118\n      jump\t// in\n    tag_117:\n    tag_116:\n      dup2\n      mstore\n      pop\n        /* \"vote_contract.sol\":1118:1426  voteHistory.push(... */\n      swap1\n      dup1\n      0x01\n      dup2\n      sload\n      add\n      dup1\n      dup3\n      sstore\n      dup1\n      swap2\n      pop\n      pop\n      0x01\n      swap1\n      sub\n      swap1\n      0x00\n      mstore\n      keccak256(0x00, 0x20)\n      swap1\n      0x07\n      mul\n      add\n      0x00\n      swap1\n      swap2\n      swap1\n      swap2\n      swap1\n      swap2\n      pop\n      0x00\n      dup3\n      add\n      mload\n      dup2\n      0x00\n      add\n      sstore\n      0x20\n      dup3\n      add\n      mload\n      dup2\n      0x01\n      add\n      sstore\n      0x40\n      dup3\n      add\n      mload\n      dup2\n      0x02\n      add\n      swap1\n      dup2\n      tag_120\n      swap2\n      swap1\n      tag_121\n      jump\t// in\n    tag_120:\n      pop\n      0x60\n      dup3\n      add\n      mload\n      dup2\n      0x03\n      add\n      sstore\n      0x80\n      dup3\n      add\n      mload\n      dup2\n      0x04\n      add\n      sstore\n      0xa0\n      dup3\n      add\n      mload\n      dup2\n      0x05\n      add\n      sstore\n      0xc0\n      dup3\n      add\n      mload\n      dup2\n      0x06\n      add\n      exp(0x0100, 0x00)\n      dup2\n      sload\n      dup2\n      0xff\n      mul\n      not\n      and\n      swap1\n      dup4\n      0x02\n      dup2\n      gt\n      iszero\n      tag_122\n      jumpi\n      tag_123\n      tag_118\n      jump\t// in\n    tag_123:\n    tag_122:\n      mul\n      or\n      swap1\n      sstore\n      pop\n      pop\n      pop\n        /* \"vote_contract.sol\":1436:1450  uint256 voteID */\n      0x00\n        /* \"vote_contract.sol\":1474:1475  1 */\n      0x01\n        /* \"vote_contract.sol\":1453:1464  voteHistory */\n      0x05\n        /* \"vote_contract.sol\":1453:1471  voteHistory.length */\n      dup1\n      sload\n      swap1\n      pop\n        /* \"vote_contract.sol\":1453:1475  voteHistory.length - 1 */\n      tag_124\n      swap2\n      swap1\n      tag_108\n      jump\t// in\n    tag_124:\n        /* \"vote_contract.sol\":1436:1475  uint256 voteID = voteHistory.length - 1 */\n      swap1\n      pop\n        /* \"vote_contract.sol\":1490:1519  VoteCreated(question, voteID) */\n      0x943cfc0d7b4164938034ad7c61b07bdf41a31b881a7ac54cb1e71b56ee9ebcb3\n        /* \"vote_contract.sol\":1502:1510  question */\n      dup6\n        /* \"vote_contract.sol\":1512:1518  voteID */\n      dup3\n        /* \"vote_contract.sol\":1490:1519  VoteCreated(question, voteID) */\n      mload(0x40)\n      tag_125\n      swap3\n      swap2\n      swap1\n      tag_126\n      jump\t// in\n    tag_125:\n      mload(0x40)\n      dup1\n      swap2\n      sub\n      swap1\n      log1\n        /* \"vote_contract.sol\":1536:1542  voteID */\n      dup1\n        /* \"vote_contract.sol\":1529:1542  return voteID */\n      swap2\n      pop\n      pop\n        /* \"vote_contract.sol\":990:1549  function initiateVote(string memory question, uint256 threshold, uint256 deadline) external onlyOwner returns(uint256){... */\n      swap4\n      swap3\n      pop\n      pop\n      pop\n      jump\t// out\n        /* \"vote_contract.sol\":2250:2403  function getVote(uint256 voteID) external view indexInBounds(voteID, voteHistory.length) returns (Vote memory){... */\n    tag_37:\n        /* \"vote_contract.sol\":2348:2359  Vote memory */\n      tag_127\n      tag_128\n      jump\t// in\n    tag_127:\n        /* \"vote_contract.sol\":2311:2317  voteID */\n      dup2\n        /* \"vote_contract.sol\":2319:2330  voteHistory */\n      0x05\n        /* \"vote_contract.sol\":2319:2337  voteHistory.length */\n      dup1\n      sload\n      swap1\n      pop\n        /* \"vote_contract.sol\":931:942  arrayLength */\n      dup1\n        /* \"vote_contract.sol\":923:928  index */\n      dup3\n        /* \"vote_contract.sol\":923:942  index < arrayLength */\n      lt\n        /* \"vote_contract.sol\":915:966  require(index < arrayLength, \"Index out of bounds\") */\n      tag_130\n      jumpi\n      mload(0x40)\n      0x08c379a000000000000000000000000000000000000000000000000000000000\n      dup2\n      mstore\n      0x04\n      add\n      tag_131\n      swap1\n      tag_132\n      jump\t// in\n    tag_131:\n      mload(0x40)\n      dup1\n      swap2\n      sub\n      swap1\n      revert\n    tag_130:\n        /* \"vote_contract.sol\":2377:2388  voteHistory */\n      0x05\n        /* \"vote_contract.sol\":2389:2395  voteID */\n      dup5\n        /* \"vote_contract.sol\":2377:2396  voteHistory[voteID] */\n      dup2\n      sload\n      dup2\n      lt\n      tag_134\n      jumpi\n      tag_135\n      tag_136\n      jump\t// in\n    tag_135:\n    tag_134:\n      swap1\n      0x00\n      mstore\n      keccak256(0x00, 0x20)\n      swap1\n      0x07\n      mul\n      add\n        /* \"vote_contract.sol\":2370:2396  return voteHistory[voteID] */\n      mload(0x40)\n      dup1\n      0xe0\n      add\n      0x40\n      mstore\n      swap1\n      dup2\n      0x00\n      dup3\n      add\n      sload\n      dup2\n      mstore\n      0x20\n      add\n      0x01\n      dup3\n      add\n      sload\n      dup2\n      mstore\n      0x20\n      add\n      0x02\n      dup3\n      add\n      dup1\n      sload\n      tag_138\n      swap1\n      tag_83\n      jump\t// in\n    tag_138:\n      dup1\n      0x1f\n      add\n      0x20\n      dup1\n      swap2\n      div\n      mul\n      0x20\n      add\n      mload(0x40)\n      swap1\n      dup2\n      add\n      0x40\n      mstore\n      dup1\n      swap3\n      swap2\n      swap1\n      dup2\n      dup2\n      mstore\n      0x20\n      add\n      dup3\n      dup1\n      sload\n      tag_139\n      swap1\n      tag_83\n      jump\t// in\n    tag_139:\n      dup1\n      iszero\n      tag_140\n      jumpi\n      dup1\n      0x1f\n      lt\n      tag_141\n      jumpi\n      0x0100\n      dup1\n      dup4\n      sload\n      div\n      mul\n      dup4\n      mstore\n      swap2\n      0x20\n      add\n      swap2\n      jump(tag_140)\n    tag_141:\n      dup3\n      add\n      swap2\n      swap1\n      0x00\n      mstore\n      keccak256(0x00, 0x20)\n      swap1\n    tag_142:\n      dup2\n      sload\n      dup2\n      mstore\n      swap1\n      0x01\n      add\n      swap1\n      0x20\n      add\n      dup1\n      dup4\n      gt\n      tag_142\n      jumpi\n      dup3\n      swap1\n      sub\n      0x1f\n      and\n      dup3\n      add\n      swap2\n    tag_140:\n      pop\n      pop\n      pop\n      pop\n      pop\n      dup2\n      mstore\n      0x20\n      add\n      0x03\n      dup3\n      add\n      sload\n      dup2\n      mstore\n      0x20\n      add\n      0x04\n      dup3\n      add\n      sload\n      dup2\n      mstore\n      0x20\n      add\n      0x05\n      dup3\n      add\n      sload\n      dup2\n      mstore\n      0x20\n      add\n      0x06\n      dup3\n      add\n      0x00\n      swap1\n      sload\n      swap1\n      0x0100\n      exp\n      swap1\n      div\n      0xff\n      and\n      0x02\n      dup2\n      gt\n      iszero\n      tag_143\n      jumpi\n      tag_144\n      tag_118\n      jump\t// in\n    tag_144:\n    tag_143:\n      0x02\n      dup2\n      gt\n      iszero\n      tag_145\n      jumpi\n      tag_146\n      tag_118\n      jump\t// in\n    tag_146:\n    tag_145:\n      dup2\n      mstore\n      pop\n      pop\n      swap3\n      pop\n        /* \"vote_contract.sol\":2250:2403  function getVote(uint256 voteID) external view indexInBounds(voteID, voteHistory.length) returns (Vote memory){... */\n      pop\n      pop\n      swap2\n      swap1\n      pop\n      jump\t// out\n        /* \"@openzeppelin/contracts/access/Ownable.sol\":2293:2394  function renounceOwnership() public virtual onlyOwner {... */\n    tag_41:\n        /* \"@openzeppelin/contracts/access/Ownable.sol\":1531:1544  _checkOwner() */\n      tag_148\n        /* \"@openzeppelin/contracts/access/Ownable.sol\":1531:1542  _checkOwner */\n      tag_114\n        /* \"@openzeppelin/contracts/access/Ownable.sol\":1531:1544  _checkOwner() */\n      jump\t// in\n    tag_148:\n        /* \"@openzeppelin/contracts/access/Ownable.sol\":2357:2387  _transferOwnership(address(0)) */\n      tag_150\n        /* \"@openzeppelin/contracts/access/Ownable.sol\":2384:2385  0 */\n      0x00\n        /* \"@openzeppelin/contracts/access/Ownable.sol\":2357:2375  _transferOwnership */\n      tag_151\n        /* \"@openzeppelin/contracts/access/Ownable.sol\":2357:2387  _transferOwnership(address(0)) */\n      jump\t// in\n    tag_150:\n        /* \"@openzeppelin/contracts/access/Ownable.sol\":2293:2394  function renounceOwnership() public virtual onlyOwner {... */\n      jump\t// out\n        /* \"stack_contract.sol\":292:318  IERC20 public stakingToken */\n    tag_43:\n      0x02\n      0x00\n      swap1\n      sload\n      swap1\n      0x0100\n      exp\n      swap1\n      div\n      0xffffffffffffffffffffffffffffffffffffffff\n      and\n      dup2\n      jump\t// out\n        /* \"stack_contract.sol\":745:1347  function stake(uint256 amount, uint256 period) external nonReentrant {... */\n    tag_49:\n        /* \"@openzeppelin/contracts/security/ReentrancyGuard.sol\":2261:2282  _nonReentrantBefore() */\n      tag_153\n        /* \"@openzeppelin/contracts/security/ReentrancyGuard.sol\":2261:2280  _nonReentrantBefore */\n      tag_90\n        /* \"@openzeppelin/contracts/security/ReentrancyGuard.sol\":2261:2282  _nonReentrantBefore() */\n      jump\t// in\n    tag_153:\n        /* \"stack_contract.sol\":885:886  0 */\n      0x00\n        /* \"stack_contract.sol\":845:856  userStaking */\n      0x04\n        /* \"stack_contract.sol\":845:868  userStaking[msg.sender] */\n      0x00\n        /* \"stack_contract.sol\":857:867  msg.sender */\n      caller\n        /* \"stack_contract.sol\":845:868  userStaking[msg.sender] */\n      0xffffffffffffffffffffffffffffffffffffffff\n      and\n      0xffffffffffffffffffffffffffffffffffffffff\n      and\n      dup2\n      mstore\n      0x20\n      add\n      swap1\n      dup2\n      mstore\n      0x20\n      add\n      0x00\n      keccak256\n        /* \"stack_contract.sol\":845:881  userStaking[msg.sender].stakedAmount */\n      0x00\n      add\n      sload\n        /* \"stack_contract.sol\":845:886  userStaking[msg.sender].stakedAmount == 0 */\n      eq\n        /* \"stack_contract.sol\":845:931  userStaking[msg.sender].stakedAmount == 0 && userStaking[msg.sender].withdrawDate == 0 */\n      dup1\n      iszero\n      tag_155\n      jumpi\n      pop\n        /* \"stack_contract.sol\":930:931  0 */\n      0x00\n        /* \"stack_contract.sol\":890:901  userStaking */\n      0x04\n        /* \"stack_contract.sol\":890:913  userStaking[msg.sender] */\n      0x00\n        /* \"stack_contract.sol\":902:912  msg.sender */\n      caller\n        /* \"stack_contract.sol\":890:913  userStaking[msg.sender] */\n      0xffffffffffffffffffffffffffffffffffffffff\n      and\n      0xffffffffffffffffffffffffffffffffffffffff\n      and\n      dup2\n      mstore\n      0x20\n      add\n      swap1\n      dup2\n      mstore\n      0x20\n      add\n      0x00\n      keccak256\n        /* \"stack_contract.sol\":890:926  userStaking[msg.sender].withdrawDate */\n      0x01\n      add\n      sload\n        /* \"stack_contract.sol\":890:931  userStaking[msg.sender].withdrawDate == 0 */\n      eq\n        /* \"stack_contract.sol\":845:931  userStaking[msg.sender].stakedAmount == 0 && userStaking[msg.sender].withdrawDate == 0 */\n    tag_155:\n        /* \"stack_contract.sol\":824:982  require(... */\n      tag_156\n      jumpi\n      mload(0x40)\n      0x08c379a000000000000000000000000000000000000000000000000000000000\n      dup2\n      mstore\n      0x04\n      add\n      tag_157\n      swap1\n      tag_158\n      jump\t// in\n    tag_157:\n      mload(0x40)\n      dup1\n      swap2\n      sub\n      swap1\n      revert\n    tag_156:\n        /* \"stack_contract.sol\":1040:1046  amount */\n      dup2\n        /* \"stack_contract.sol\":1001:1012  userStaking */\n      0x04\n        /* \"stack_contract.sol\":1001:1024  userStaking[msg.sender] */\n      0x00\n        /* \"stack_contract.sol\":1013:1023  msg.sender */\n      caller\n        /* \"stack_contract.sol\":1001:1024  userStaking[msg.sender] */\n      0xffffffffffffffffffffffffffffffffffffffff\n      and\n      0xffffffffffffffffffffffffffffffffffffffff\n      and\n      dup2\n      mstore\n      0x20\n      add\n      swap1\n      dup2\n      mstore\n      0x20\n      add\n      0x00\n      keccak256\n        /* \"stack_contract.sol\":1001:1037  userStaking[msg.sender].stakedAmount */\n      0x00\n      add\n        /* \"stack_contract.sol\":1001:1046  userStaking[msg.sender].stakedAmount = amount */\n      dup2\n      swap1\n      sstore\n      pop\n        /* \"stack_contract.sol\":1113:1119  period */\n      dup1\n        /* \"stack_contract.sol\":1095:1110  block.timestamp */\n      timestamp\n        /* \"stack_contract.sol\":1095:1119  block.timestamp + period */\n      tag_159\n      swap2\n      swap1\n      tag_160\n      jump\t// in\n    tag_159:\n        /* \"stack_contract.sol\":1056:1067  userStaking */\n      0x04\n        /* \"stack_contract.sol\":1056:1079  userStaking[msg.sender] */\n      0x00\n        /* \"stack_contract.sol\":1068:1078  msg.sender */\n      caller\n        /* \"stack_contract.sol\":1056:1079  userStaking[msg.sender] */\n      0xffffffffffffffffffffffffffffffffffffffff\n      and\n      0xffffffffffffffffffffffffffffffffffffffff\n      and\n      dup2\n      mstore\n      0x20\n      add\n      swap1\n      dup2\n      mstore\n      0x20\n      add\n      0x00\n      keccak256\n        /* \"stack_contract.sol\":1056:1092  userStaking[msg.sender].withdrawDate */\n      0x01\n      add\n        /* \"stack_contract.sol\":1056:1119  userStaking[msg.sender].withdrawDate = block.timestamp + period */\n      dup2\n      swap1\n      sstore\n      pop\n        /* \"stack_contract.sol\":1138:1150  bool success */\n      0x00\n        /* \"stack_contract.sol\":1153:1165  stakingToken */\n      0x02\n      0x00\n      swap1\n      sload\n      swap1\n      0x0100\n      exp\n      swap1\n      div\n      0xffffffffffffffffffffffffffffffffffffffff\n      and\n        /* \"stack_contract.sol\":1153:1178  stakingToken.transferFrom */\n      0xffffffffffffffffffffffffffffffffffffffff\n      and\n      0x23b872dd\n        /* \"stack_contract.sol\":1179:1189  msg.sender */\n      caller\n        /* \"stack_contract.sol\":1199:1203  this */\n      address\n        /* \"stack_contract.sol\":1206:1212  amount */\n      dup7\n        /* \"stack_contract.sol\":1153:1213  stakingToken.transferFrom(msg.sender, address(this), amount) */\n      mload(0x40)\n      dup5\n      0xffffffff\n      and\n      0xe0\n      shl\n      dup2\n      mstore\n      0x04\n      add\n      tag_161\n      swap4\n      swap3\n      swap2\n      swap1\n      tag_162\n      jump\t// in\n    tag_161:\n      0x20\n      mload(0x40)\n      dup1\n      dup4\n      sub\n      dup2\n      0x00\n      dup8\n      gas\n      call\n      iszero\n      dup1\n      iszero\n      tag_164\n      jumpi\n      returndatasize\n      0x00\n      dup1\n      returndatacopy\n      revert(0x00, returndatasize)\n    tag_164:\n      pop\n      pop\n      pop\n      pop\n      mload(0x40)\n      returndatasize\n      not(0x1f)\n      0x1f\n      dup3\n      add\n      and\n      dup3\n      add\n      dup1\n      0x40\n      mstore\n      pop\n      dup2\n      add\n      swap1\n      tag_165\n      swap2\n      swap1\n      tag_103\n      jump\t// in\n    tag_165:\n        /* \"stack_contract.sol\":1138:1213  bool success = stakingToken.transferFrom(msg.sender, address(this), amount) */\n      swap1\n      pop\n        /* \"stack_contract.sol\":1231:1238  success */\n      dup1\n        /* \"stack_contract.sol\":1223:1258  require(success, \"Transfer failed\") */\n      tag_166\n      jumpi\n      mload(0x40)\n      0x08c379a000000000000000000000000000000000000000000000000000000000\n      dup2\n      mstore\n      0x04\n      add\n      tag_167\n      swap1\n      tag_106\n      jump\t// in\n    tag_167:\n      mload(0x40)\n      dup1\n      swap2\n      sub\n      swap1\n      revert\n    tag_166:\n        /* \"stack_contract.sol\":1284:1290  amount */\n      dup3\n        /* \"stack_contract.sol\":1269:1280  totalStaked */\n      0x03\n      0x00\n        /* \"stack_contract.sol\":1269:1290  totalStaked += amount */\n      dup3\n      dup3\n      sload\n      tag_168\n      swap2\n      swap1\n      tag_160\n      jump\t// in\n    tag_168:\n      swap3\n      pop\n      pop\n      dup2\n      swap1\n      sstore\n      pop\n        /* \"stack_contract.sol\":1321:1331  msg.sender */\n      caller\n        /* \"stack_contract.sol\":1314:1340  Staked(msg.sender, amount) */\n      0xffffffffffffffffffffffffffffffffffffffff\n      and\n      0x9e71bc8eea02a63969f509818f2dafb9254532904319f9dbda79b67bd34a5f3d\n        /* \"stack_contract.sol\":1333:1339  amount */\n      dup5\n        /* \"stack_contract.sol\":1314:1340  Staked(msg.sender, amount) */\n      mload(0x40)\n      tag_169\n      swap2\n      swap1\n      tag_34\n      jump\t// in\n    tag_169:\n      mload(0x40)\n      dup1\n      swap2\n      sub\n      swap1\n      log2\n        /* \"stack_contract.sol\":814:1347  {... */\n      pop\n        /* \"@openzeppelin/contracts/security/ReentrancyGuard.sol\":2303:2323  _nonReentrantAfter() */\n      tag_170\n        /* \"@openzeppelin/contracts/security/ReentrancyGuard.sol\":2303:2321  _nonReentrantAfter */\n      tag_111\n        /* \"@openzeppelin/contracts/security/ReentrancyGuard.sol\":2303:2323  _nonReentrantAfter() */\n      jump\t// in\n    tag_170:\n        /* \"stack_contract.sol\":745:1347  function stake(uint256 amount, uint256 period) external nonReentrant {... */\n      pop\n      pop\n      jump\t// out\n        /* \"stack_contract.sol\":1460:1549  function getTotalStake() public view returns(uint256) {... */\n    tag_51:\n        /* \"stack_contract.sol\":1505:1512  uint256 */\n      0x00\n        /* \"stack_contract.sol\":1531:1542  totalStaked */\n      sload(0x03)\n        /* \"stack_contract.sol\":1524:1542  return totalStaked */\n      swap1\n      pop\n        /* \"stack_contract.sol\":1460:1549  function getTotalStake() public view returns(uint256) {... */\n      swap1\n      jump\t// out\n        /* \"stack_contract.sol\":325:351  uint256 public totalStaked */\n    tag_54:\n      sload(0x03)\n      dup2\n      jump\t// out\n        /* \"stack_contract.sol\":362:406  mapping(address => Stake) public userStaking */\n    tag_59:\n      mstore(0x20, 0x04)\n      dup1\n      0x00\n      mstore\n      keccak256(0x00, 0x40)\n      0x00\n      swap2\n      pop\n      swap1\n      pop\n      dup1\n      0x00\n      add\n      sload\n      swap1\n      dup1\n      0x01\n      add\n      sload\n      swap1\n      pop\n      dup3\n      jump\t// out\n        /* \"@openzeppelin/contracts/access/Ownable.sol\":1638:1723  function owner() public view virtual returns (address) {... */\n    tag_63:\n        /* \"@openzeppelin/contracts/access/Ownable.sol\":1684:1691  address */\n      0x00\n        /* \"@openzeppelin/contracts/access/Ownable.sol\":1710:1716  _owner */\n      0x01\n      0x00\n      swap1\n      sload\n      swap1\n      0x0100\n      exp\n      swap1\n      div\n      0xffffffffffffffffffffffffffffffffffffffff\n      and\n        /* \"@openzeppelin/contracts/access/Ownable.sol\":1703:1716  return _owner */\n      swap1\n      pop\n        /* \"@openzeppelin/contracts/access/Ownable.sol\":1638:1723  function owner() public view virtual returns (address) {... */\n      swap1\n      jump\t// out\n        /* \"vote_contract.sol\":2502:2958  function vote(uint256 voteID, bool yes) external indexInBounds(voteID, voteHistory.length){... */\n    tag_69:\n        /* \"vote_contract.sol\":2565:2571  voteID */\n      dup2\n        /* \"vote_contract.sol\":2573:2584  voteHistory */\n      0x05\n        /* \"vote_contract.sol\":2573:2591  voteHistory.length */\n      dup1\n      sload\n      swap1\n      pop\n        /* \"vote_contract.sol\":931:942  arrayLength */\n      dup1\n        /* \"vote_contract.sol\":923:928  index */\n      dup3\n        /* \"vote_contract.sol\":923:942  index < arrayLength */\n      lt\n        /* \"vote_contract.sol\":915:966  require(index < arrayLength, \"Index out of bounds\") */\n      tag_174\n      jumpi\n      mload(0x40)\n      0x08c379a000000000000000000000000000000000000000000000000000000000\n      dup2\n      mstore\n      0x04\n      add\n      tag_175\n      swap1\n      tag_132\n      jump\t// in\n    tag_175:\n      mload(0x40)\n      dup1\n      swap2\n      sub\n      swap1\n      revert\n    tag_174:\n        /* \"vote_contract.sol\":2602:2620  Stake memory stake */\n      0x00\n        /* \"vote_contract.sol\":2623:2633  getStake() */\n      tag_177\n        /* \"vote_contract.sol\":2623:2631  getStake */\n      tag_77\n        /* \"vote_contract.sol\":2623:2633  getStake() */\n      jump\t// in\n    tag_177:\n        /* \"vote_contract.sol\":2602:2633  Stake memory stake = getStake() */\n      swap1\n      pop\n        /* \"vote_contract.sol\":2643:2662  uint256 votingPower */\n      0x00\n        /* \"vote_contract.sol\":2665:2693  _calculateVotingPower(stake) */\n      tag_178\n        /* \"vote_contract.sol\":2687:2692  stake */\n      dup3\n        /* \"vote_contract.sol\":2665:2686  _calculateVotingPower */\n      tag_179\n        /* \"vote_contract.sol\":2665:2693  _calculateVotingPower(stake) */\n      jump\t// in\n    tag_178:\n        /* \"vote_contract.sol\":2643:2693  uint256 votingPower = _calculateVotingPower(stake) */\n      swap1\n      pop\n        /* \"vote_contract.sol\":2726:2727  0 */\n      0x00\n        /* \"vote_contract.sol\":2711:2722  votingPower */\n      dup2\n        /* \"vote_contract.sol\":2711:2727  votingPower != 0 */\n      sub\n        /* \"vote_contract.sol\":2703:2749  require(votingPower != 0, \"Zero voting power\") */\n      tag_180\n      jumpi\n      mload(0x40)\n      0x08c379a000000000000000000000000000000000000000000000000000000000\n      dup2\n      mstore\n      0x04\n      add\n      tag_181\n      swap1\n      tag_182\n      jump\t// in\n    tag_181:\n      mload(0x40)\n      dup1\n      swap2\n      sub\n      swap1\n      revert\n    tag_180:\n        /* \"vote_contract.sol\":2764:2767  yes */\n      dup5\n        /* \"vote_contract.sol\":2760:2907  if (yes){... */\n      iszero\n      tag_183\n      jumpi\n        /* \"vote_contract.sol\":2813:2824  votingPower */\n      dup1\n        /* \"vote_contract.sol\":2782:2793  voteHistory */\n      0x05\n        /* \"vote_contract.sol\":2794:2800  voteID */\n      dup8\n        /* \"vote_contract.sol\":2782:2801  voteHistory[voteID] */\n      dup2\n      sload\n      dup2\n      lt\n      tag_184\n      jumpi\n      tag_185\n      tag_136\n      jump\t// in\n    tag_185:\n    tag_184:\n      swap1\n      0x00\n      mstore\n      keccak256(0x00, 0x20)\n      swap1\n      0x07\n      mul\n      add\n        /* \"vote_contract.sol\":2782:2809  voteHistory[voteID].yesVote */\n      0x04\n      add\n      0x00\n        /* \"vote_contract.sol\":2782:2824  voteHistory[voteID].yesVote += votingPower */\n      dup3\n      dup3\n      sload\n      tag_187\n      swap2\n      swap1\n      tag_160\n      jump\t// in\n    tag_187:\n      swap3\n      pop\n      pop\n      dup2\n      swap1\n      sstore\n      pop\n        /* \"vote_contract.sol\":2760:2907  if (yes){... */\n      jump(tag_188)\n    tag_183:\n        /* \"vote_contract.sol\":2884:2895  votingPower */\n      dup1\n        /* \"vote_contract.sol\":2854:2865  voteHistory */\n      0x05\n        /* \"vote_contract.sol\":2866:2872  voteID */\n      dup8\n        /* \"vote_contract.sol\":2854:2873  voteHistory[voteID] */\n      dup2\n      sload\n      dup2\n      lt\n      tag_189\n      jumpi\n      tag_190\n      tag_136\n      jump\t// in\n    tag_190:\n    tag_189:\n      swap1\n      0x00\n      mstore\n      keccak256(0x00, 0x20)\n      swap1\n      0x07\n      mul\n      add\n        /* \"vote_contract.sol\":2854:2880  voteHistory[voteID].noVote */\n      0x05\n      add\n      0x00\n        /* \"vote_contract.sol\":2854:2895  voteHistory[voteID].noVote += votingPower */\n      dup3\n      dup3\n      sload\n      tag_192\n      swap2\n      swap1\n      tag_160\n      jump\t// in\n    tag_192:\n      swap3\n      pop\n      pop\n      dup2\n      swap1\n      sstore\n      pop\n        /* \"vote_contract.sol\":2760:2907  if (yes){... */\n    tag_188:\n        /* \"vote_contract.sol\":2918:2929  voteHistory */\n      0x05\n        /* \"vote_contract.sol\":2930:2936  voteID */\n      dup7\n        /* \"vote_contract.sol\":2918:2937  voteHistory[voteID] */\n      dup2\n      sload\n      dup2\n      lt\n      tag_193\n      jumpi\n      tag_194\n      tag_136\n      jump\t// in\n    tag_194:\n    tag_193:\n      swap1\n      0x00\n      mstore\n      keccak256(0x00, 0x20)\n      swap1\n      0x07\n      mul\n      add\n        /* \"vote_contract.sol\":2918:2949  voteHistory[voteID].peopleVoted */\n      0x03\n      add\n      0x00\n        /* \"vote_contract.sol\":2918:2951  voteHistory[voteID].peopleVoted++ */\n      dup2\n      sload\n      dup1\n      swap3\n      swap2\n      swap1\n      tag_196\n      swap1\n      tag_197\n      jump\t// in\n    tag_196:\n      swap2\n      swap1\n      pop\n      sstore\n      pop\n        /* \"vote_contract.sol\":2592:2958  {... */\n      pop\n      pop\n        /* \"vote_contract.sol\":2502:2958  function vote(uint256 voteID, bool yes) external indexInBounds(voteID, voteHistory.length){... */\n      pop\n      pop\n      pop\n      pop\n      jump\t// out\n        /* \"vote_contract.sol\":1555:2244  function finishVote(uint256 voteID) external indexInBounds(voteID, voteHistory.length){... */\n    tag_72:\n        /* \"vote_contract.sol\":1614:1620  voteID */\n      dup1\n        /* \"vote_contract.sol\":1622:1633  voteHistory */\n      0x05\n        /* \"vote_contract.sol\":1622:1640  voteHistory.length */\n      dup1\n      sload\n      swap1\n      pop\n        /* \"vote_contract.sol\":931:942  arrayLength */\n      dup1\n        /* \"vote_contract.sol\":923:928  index */\n      dup3\n        /* \"vote_contract.sol\":923:942  index < arrayLength */\n      lt\n        /* \"vote_contract.sol\":915:966  require(index < arrayLength, \"Index out of bounds\") */\n      tag_199\n      jumpi\n      mload(0x40)\n      0x08c379a000000000000000000000000000000000000000000000000000000000\n      dup2\n      mstore\n      0x04\n      add\n      tag_200\n      swap1\n      tag_132\n      jump\t// in\n    tag_200:\n      mload(0x40)\n      dup1\n      swap2\n      sub\n      swap1\n      revert\n    tag_199:\n        /* \"vote_contract.sol\":1651:1671  Vote memory voteData */\n      0x00\n        /* \"vote_contract.sol\":1674:1685  voteHistory */\n      0x05\n        /* \"vote_contract.sol\":1686:1692  voteID */\n      dup5\n        /* \"vote_contract.sol\":1674:1693  voteHistory[voteID] */\n      dup2\n      sload\n      dup2\n      lt\n      tag_202\n      jumpi\n      tag_203\n      tag_136\n      jump\t// in\n    tag_203:\n    tag_202:\n      swap1\n      0x00\n      mstore\n      keccak256(0x00, 0x20)\n      swap1\n      0x07\n      mul\n      add\n        /* \"vote_contract.sol\":1651:1693  Vote memory voteData = voteHistory[voteID] */\n      mload(0x40)\n      dup1\n      0xe0\n      add\n      0x40\n      mstore\n      swap1\n      dup2\n      0x00\n      dup3\n      add\n      sload\n      dup2\n      mstore\n      0x20\n      add\n      0x01\n      dup3\n      add\n      sload\n      dup2\n      mstore\n      0x20\n      add\n      0x02\n      dup3\n      add\n      dup1\n      sload\n      tag_205\n      swap1\n      tag_83\n      jump\t// in\n    tag_205:\n      dup1\n      0x1f\n      add\n      0x20\n      dup1\n      swap2\n      div\n      mul\n      0x20\n      add\n      mload(0x40)\n      swap1\n      dup2\n      add\n      0x40\n      mstore\n      dup1\n      swap3\n      swap2\n      swap1\n      dup2\n      dup2\n      mstore\n      0x20\n      add\n      dup3\n      dup1\n      sload\n      tag_206\n      swap1\n      tag_83\n      jump\t// in\n    tag_206:\n      dup1\n      iszero\n      tag_207\n      jumpi\n      dup1\n      0x1f\n      lt\n      tag_208\n      jumpi\n      0x0100\n      dup1\n      dup4\n      sload\n      div\n      mul\n      dup4\n      mstore\n      swap2\n      0x20\n      add\n      swap2\n      jump(tag_207)\n    tag_208:\n      dup3\n      add\n      swap2\n      swap1\n      0x00\n      mstore\n      keccak256(0x00, 0x20)\n      swap1\n    tag_209:\n      dup2\n      sload\n      dup2\n      mstore\n      swap1\n      0x01\n      add\n      swap1\n      0x20\n      add\n      dup1\n      dup4\n      gt\n      tag_209\n      jumpi\n      dup3\n      swap1\n      sub\n      0x1f\n      and\n      dup3\n      add\n      swap2\n    tag_207:\n      pop\n      pop\n      pop\n      pop\n      pop\n      dup2\n      mstore\n      0x20\n      add\n      0x03\n      dup3\n      add\n      sload\n      dup2\n      mstore\n      0x20\n      add\n      0x04\n      dup3\n      add\n      sload\n      dup2\n      mstore\n      0x20\n      add\n      0x05\n      dup3\n      add\n      sload\n      dup2\n      mstore\n      0x20\n      add\n      0x06\n      dup3\n      add\n      0x00\n      swap1\n      sload\n      swap1\n      0x0100\n      exp\n      swap1\n      div\n      0xff\n      and\n      0x02\n      dup2\n      gt\n      iszero\n      tag_210\n      jumpi\n      tag_211\n      tag_118\n      jump\t// in\n    tag_211:\n    tag_210:\n      0x02\n      dup2\n      gt\n      iszero\n      tag_212\n      jumpi\n      tag_213\n      tag_118\n      jump\t// in\n    tag_213:\n    tag_212:\n      dup2\n      mstore\n      pop\n      pop\n      swap1\n      pop\n        /* \"vote_contract.sol\":1737:1755  Decision.InProcess */\n      0x02\n        /* \"vote_contract.sol\":1711:1755  voteData.finalDecision == Decision.InProcess */\n      dup1\n      dup2\n      gt\n      iszero\n      tag_214\n      jumpi\n      tag_215\n      tag_118\n      jump\t// in\n    tag_215:\n    tag_214:\n        /* \"vote_contract.sol\":1711:1719  voteData */\n      dup2\n        /* \"vote_contract.sol\":1711:1733  voteData.finalDecision */\n      0xc0\n      add\n      mload\n        /* \"vote_contract.sol\":1711:1755  voteData.finalDecision == Decision.InProcess */\n      0x02\n      dup2\n      gt\n      iszero\n      tag_216\n      jumpi\n      tag_217\n      tag_118\n      jump\t// in\n    tag_217:\n    tag_216:\n      eq\n        /* \"vote_contract.sol\":1703:1777  require(voteData.finalDecision == Decision.InProcess, \"Already finished!\") */\n      tag_218\n      jumpi\n      mload(0x40)\n      0x08c379a000000000000000000000000000000000000000000000000000000000\n      dup2\n      mstore\n      0x04\n      add\n      tag_219\n      swap1\n      tag_220\n      jump\t// in\n    tag_219:\n      mload(0x40)\n      dup1\n      swap2\n      sub\n      swap1\n      revert\n    tag_218:\n        /* \"vote_contract.sol\":1829:1844  block.timestamp */\n      timestamp\n        /* \"vote_contract.sol\":1809:1817  voteData */\n      dup2\n        /* \"vote_contract.sol\":1809:1826  voteData.deadline */\n      0x00\n      add\n      mload\n        /* \"vote_contract.sol\":1809:1844  voteData.deadline > block.timestamp */\n      gt\n        /* \"vote_contract.sol\":1809:1873  voteData.deadline > block.timestamp || voteData.peopleVoted > 50 */\n      dup1\n      tag_221\n      jumpi\n      pop\n        /* \"vote_contract.sol\":1871:1873  50 */\n      0x32\n        /* \"vote_contract.sol\":1848:1856  voteData */\n      dup2\n        /* \"vote_contract.sol\":1848:1868  voteData.peopleVoted */\n      0x60\n      add\n      mload\n        /* \"vote_contract.sol\":1848:1873  voteData.peopleVoted > 50 */\n      gt\n        /* \"vote_contract.sol\":1809:1873  voteData.deadline > block.timestamp || voteData.peopleVoted > 50 */\n    tag_221:\n        /* \"vote_contract.sol\":1788:1944  require(... */\n      tag_222\n      jumpi\n      mload(0x40)\n      0x08c379a000000000000000000000000000000000000000000000000000000000\n      dup2\n      mstore\n      0x04\n      add\n      tag_223\n      swap1\n      tag_224\n      jump\t// in\n    tag_223:\n      mload(0x40)\n      dup1\n      swap2\n      sub\n      swap1\n      revert\n    tag_222:\n        /* \"vote_contract.sol\":1978:1986  voteData */\n      dup1\n        /* \"vote_contract.sol\":1978:1993  voteData.noVote */\n      0xa0\n      add\n      mload\n        /* \"vote_contract.sol\":1959:1967  voteData */\n      dup2\n        /* \"vote_contract.sol\":1959:1975  voteData.yesVote */\n      0x80\n      add\n      mload\n        /* \"vote_contract.sol\":1959:1993  voteData.yesVote > voteData.noVote */\n      gt\n        /* \"vote_contract.sol\":1955:2144  if (voteData.yesVote > voteData.noVote){... */\n      iszero\n      tag_225\n      jumpi\n        /* \"vote_contract.sol\":2044:2056  Decision.Yes */\n      0x00\n        /* \"vote_contract.sol\":2008:2019  voteHistory */\n      0x05\n        /* \"vote_contract.sol\":2020:2026  voteID */\n      dup6\n        /* \"vote_contract.sol\":2008:2027  voteHistory[voteID] */\n      dup2\n      sload\n      dup2\n      lt\n      tag_226\n      jumpi\n      tag_227\n      tag_136\n      jump\t// in\n    tag_227:\n    tag_226:\n      swap1\n      0x00\n      mstore\n      keccak256(0x00, 0x20)\n      swap1\n      0x07\n      mul\n      add\n        /* \"vote_contract.sol\":2008:2041  voteHistory[voteID].finalDecision */\n      0x06\n      add\n      0x00\n        /* \"vote_contract.sol\":2008:2056  voteHistory[voteID].finalDecision = Decision.Yes */\n      0x0100\n      exp\n      dup2\n      sload\n      dup2\n      0xff\n      mul\n      not\n      and\n      swap1\n      dup4\n      0x02\n      dup2\n      gt\n      iszero\n      tag_229\n      jumpi\n      tag_230\n      tag_118\n      jump\t// in\n    tag_230:\n    tag_229:\n      mul\n      or\n      swap1\n      sstore\n      pop\n        /* \"vote_contract.sol\":1955:2144  if (voteData.yesVote > voteData.noVote){... */\n      jump(tag_231)\n    tag_225:\n        /* \"vote_contract.sol\":2122:2133  Decision.No */\n      0x01\n        /* \"vote_contract.sol\":2086:2097  voteHistory */\n      0x05\n        /* \"vote_contract.sol\":2098:2104  voteID */\n      dup6\n        /* \"vote_contract.sol\":2086:2105  voteHistory[voteID] */\n      dup2\n      sload\n      dup2\n      lt\n      tag_232\n      jumpi\n      tag_233\n      tag_136\n      jump\t// in\n    tag_233:\n    tag_232:\n      swap1\n      0x00\n      mstore\n      keccak256(0x00, 0x20)\n      swap1\n      0x07\n      mul\n      add\n        /* \"vote_contract.sol\":2086:2119  voteHistory[voteID].finalDecision */\n      0x06\n      add\n      0x00\n        /* \"vote_contract.sol\":2086:2133  voteHistory[voteID].finalDecision = Decision.No */\n      0x0100\n      exp\n      dup2\n      sload\n      dup2\n      0xff\n      mul\n      not\n      and\n      swap1\n      dup4\n      0x02\n      dup2\n      gt\n      iszero\n      tag_235\n      jumpi\n      tag_236\n      tag_118\n      jump\t// in\n    tag_236:\n    tag_235:\n      mul\n      or\n      swap1\n      sstore\n      pop\n        /* \"vote_contract.sol\":1955:2144  if (voteData.yesVote > voteData.noVote){... */\n    tag_231:\n        /* \"vote_contract.sol\":2158:2221  VoteFinished(voteData.question, voteID, voteData.finalDecision) */\n      0xb1f9e67f140aa3936e3d32fd3cdb2c5621a1f03b46d535623c90af0a49880781\n        /* \"vote_contract.sol\":2171:2179  voteData */\n      dup2\n        /* \"vote_contract.sol\":2171:2188  voteData.question */\n      0x40\n      add\n      mload\n        /* \"vote_contract.sol\":2190:2196  voteID */\n      dup6\n        /* \"vote_contract.sol\":2198:2206  voteData */\n      dup4\n        /* \"vote_contract.sol\":2198:2220  voteData.finalDecision */\n      0xc0\n      add\n      mload\n        /* \"vote_contract.sol\":2158:2221  VoteFinished(voteData.question, voteID, voteData.finalDecision) */\n      mload(0x40)\n      tag_237\n      swap4\n      swap3\n      swap2\n      swap1\n      tag_238\n      jump\t// in\n    tag_237:\n      mload(0x40)\n      dup1\n      swap2\n      sub\n      swap1\n      log1\n        /* \"vote_contract.sol\":2231:2238  return; */\n      pop\n        /* \"vote_contract.sol\":1555:2244  function finishVote(uint256 voteID) external indexInBounds(voteID, voteHistory.length){... */\n      pop\n      pop\n      pop\n      jump\t// out\n        /* \"@openzeppelin/contracts/access/Ownable.sol\":2543:2758  function transferOwnership(address newOwner) public virtual onlyOwner {... */\n    tag_75:\n        /* \"@openzeppelin/contracts/access/Ownable.sol\":1531:1544  _checkOwner() */\n      tag_240\n        /* \"@openzeppelin/contracts/access/Ownable.sol\":1531:1542  _checkOwner */\n      tag_114\n        /* \"@openzeppelin/contracts/access/Ownable.sol\":1531:1544  _checkOwner() */\n      jump\t// in\n    tag_240:\n        /* \"@openzeppelin/contracts/access/Ownable.sol\":2647:2648  0 */\n      0x00\n        /* \"@openzeppelin/contracts/access/Ownable.sol\":2627:2649  newOwner == address(0) */\n      0xffffffffffffffffffffffffffffffffffffffff\n      and\n        /* \"@openzeppelin/contracts/access/Ownable.sol\":2627:2635  newOwner */\n      dup2\n        /* \"@openzeppelin/contracts/access/Ownable.sol\":2627:2649  newOwner == address(0) */\n      0xffffffffffffffffffffffffffffffffffffffff\n      and\n      sub\n        /* \"@openzeppelin/contracts/access/Ownable.sol\":2623:2714  if (newOwner == address(0)) {... */\n      tag_242\n      jumpi\n        /* \"@openzeppelin/contracts/access/Ownable.sol\":2700:2701  0 */\n      0x00\n        /* \"@openzeppelin/contracts/access/Ownable.sol\":2672:2703  OwnableInvalidOwner(address(0)) */\n      mload(0x40)\n      0x1e4fbdf700000000000000000000000000000000000000000000000000000000\n      dup2\n      mstore\n      0x04\n      add\n      tag_243\n      swap2\n      swap1\n      tag_65\n      jump\t// in\n    tag_243:\n      mload(0x40)\n      dup1\n      swap2\n      sub\n      swap1\n      revert\n        /* \"@openzeppelin/contracts/access/Ownable.sol\":2623:2714  if (newOwner == address(0)) {... */\n    tag_242:\n        /* \"@openzeppelin/contracts/access/Ownable.sol\":2723:2751  _transferOwnership(newOwner) */\n      tag_244\n        /* \"@openzeppelin/contracts/access/Ownable.sol\":2742:2750  newOwner */\n      dup2\n        /* \"@openzeppelin/contracts/access/Ownable.sol\":2723:2741  _transferOwnership */\n      tag_151\n        /* \"@openzeppelin/contracts/access/Ownable.sol\":2723:2751  _transferOwnership(newOwner) */\n      jump\t// in\n    tag_244:\n        /* \"@openzeppelin/contracts/access/Ownable.sol\":2543:2758  function transferOwnership(address newOwner) public virtual onlyOwner {... */\n      pop\n      jump\t// out\n        /* \"stack_contract.sol\":1353:1454  function getStake() public view returns(Stake memory) {... */\n    tag_77:\n        /* \"stack_contract.sol\":1393:1405  Stake memory */\n      tag_245\n      tag_246\n      jump\t// in\n    tag_245:\n        /* \"stack_contract.sol\":1424:1435  userStaking */\n      0x04\n        /* \"stack_contract.sol\":1424:1447  userStaking[msg.sender] */\n      0x00\n        /* \"stack_contract.sol\":1436:1446  msg.sender */\n      caller\n        /* \"stack_contract.sol\":1424:1447  userStaking[msg.sender] */\n      0xffffffffffffffffffffffffffffffffffffffff\n      and\n      0xffffffffffffffffffffffffffffffffffffffff\n      and\n      dup2\n      mstore\n      0x20\n      add\n      swap1\n      dup2\n      mstore\n      0x20\n      add\n      0x00\n      keccak256\n        /* \"stack_contract.sol\":1417:1447  return userStaking[msg.sender] */\n      mload(0x40)\n      dup1\n      0x40\n      add\n      0x40\n      mstore\n      swap1\n      dup2\n      0x00\n      dup3\n      add\n      sload\n      dup2\n      mstore\n      0x20\n      add\n      0x01\n      dup3\n      add\n      sload\n      dup2\n      mstore\n      pop\n      pop\n      swap1\n      pop\n        /* \"stack_contract.sol\":1353:1454  function getStake() public view returns(Stake memory) {... */\n      swap1\n      jump\t// out\n        /* \"@openzeppelin/contracts/security/ReentrancyGuard.sol\":2336:2623  function _nonReentrantBefore() private {... */\n    tag_90:\n        /* \"@openzeppelin/contracts/security/ReentrancyGuard.sol\":1759:1760  2 */\n      0x02\n        /* \"@openzeppelin/contracts/security/ReentrancyGuard.sol\":2468:2475  _status */\n      sload(0x00)\n        /* \"@openzeppelin/contracts/security/ReentrancyGuard.sol\":2468:2487  _status != _ENTERED */\n      sub\n        /* \"@openzeppelin/contracts/security/ReentrancyGuard.sol\":2460:2523  require(_status != _ENTERED, \"ReentrancyGuard: reentrant call\") */\n      tag_249\n      jumpi\n      mload(0x40)\n      0x08c379a000000000000000000000000000000000000000000000000000000000\n      dup2\n      mstore\n      0x04\n      add\n      tag_250\n      swap1\n      tag_251\n      jump\t// in\n    tag_250:\n      mload(0x40)\n      dup1\n      swap2\n      sub\n      swap1\n      revert\n    tag_249:\n        /* \"@openzeppelin/contracts/security/ReentrancyGuard.sol\":1759:1760  2 */\n      0x02\n        /* \"@openzeppelin/contracts/security/ReentrancyGuard.sol\":2598:2605  _status */\n      0x00\n        /* \"@openzeppelin/contracts/security/ReentrancyGuard.sol\":2598:2616  _status = _ENTERED */\n      dup2\n      swap1\n      sstore\n      pop\n        /* \"@openzeppelin/contracts/security/ReentrancyGuard.sol\":2336:2623  function _nonReentrantBefore() private {... */\n      jump\t// out\n        /* \"@openzeppelin/contracts/security/ReentrancyGuard.sol\":2629:2838  function _nonReentrantAfter() private {... */\n    tag_111:\n        /* \"@openzeppelin/contracts/security/ReentrancyGuard.sol\":1716:1717  1 */\n      0x01\n        /* \"@openzeppelin/contracts/security/ReentrancyGuard.sol\":2809:2816  _status */\n      0x00\n        /* \"@openzeppelin/contracts/security/ReentrancyGuard.sol\":2809:2831  _status = _NOT_ENTERED */\n      dup2\n      swap1\n      sstore\n      pop\n        /* \"@openzeppelin/contracts/security/ReentrancyGuard.sol\":2629:2838  function _nonReentrantAfter() private {... */\n      jump\t// out\n        /* \"@openzeppelin/contracts/access/Ownable.sol\":1796:1958  function _checkOwner() internal view virtual {... */\n    tag_114:\n        /* \"@openzeppelin/contracts/access/Ownable.sol\":1866:1878  _msgSender() */\n      tag_254\n        /* \"@openzeppelin/contracts/access/Ownable.sol\":1866:1876  _msgSender */\n      tag_255\n        /* \"@openzeppelin/contracts/access/Ownable.sol\":1866:1878  _msgSender() */\n      jump\t// in\n    tag_254:\n        /* \"@openzeppelin/contracts/access/Ownable.sol\":1855:1878  owner() != _msgSender() */\n      0xffffffffffffffffffffffffffffffffffffffff\n      and\n        /* \"@openzeppelin/contracts/access/Ownable.sol\":1855:1862  owner() */\n      tag_256\n        /* \"@openzeppelin/contracts/access/Ownable.sol\":1855:1860  owner */\n      tag_63\n        /* \"@openzeppelin/contracts/access/Ownable.sol\":1855:1862  owner() */\n      jump\t// in\n    tag_256:\n        /* \"@openzeppelin/contracts/access/Ownable.sol\":1855:1878  owner() != _msgSender() */\n      0xffffffffffffffffffffffffffffffffffffffff\n      and\n      eq\n        /* \"@openzeppelin/contracts/access/Ownable.sol\":1851:1952  if (owner() != _msgSender()) {... */\n      tag_257\n      jumpi\n        /* \"@openzeppelin/contracts/access/Ownable.sol\":1928:1940  _msgSender() */\n      tag_258\n        /* \"@openzeppelin/contracts/access/Ownable.sol\":1928:1938  _msgSender */\n      tag_255\n        /* \"@openzeppelin/contracts/access/Ownable.sol\":1928:1940  _msgSender() */\n      jump\t// in\n    tag_258:\n        /* \"@openzeppelin/contracts/access/Ownable.sol\":1901:1941  OwnableUnauthorizedAccount(_msgSender()) */\n      mload(0x40)\n      0x118cdaa700000000000000000000000000000000000000000000000000000000\n      dup2\n      mstore\n      0x04\n      add\n      tag_259\n      swap2\n      swap1\n      tag_65\n      jump\t// in\n    tag_259:\n      mload(0x40)\n      dup1\n      swap2\n      sub\n      swap1\n      revert\n        /* \"@openzeppelin/contracts/access/Ownable.sol\":1851:1952  if (owner() != _msgSender()) {... */\n    tag_257:\n        /* \"@openzeppelin/contracts/access/Ownable.sol\":1796:1958  function _checkOwner() internal view virtual {... */\n      jump\t// out\n        /* \"@openzeppelin/contracts/access/Ownable.sol\":2912:3099  function _transferOwnership(address newOwner) internal virtual {... */\n    tag_151:\n        /* \"@openzeppelin/contracts/access/Ownable.sol\":2985:3001  address oldOwner */\n      0x00\n        /* \"@openzeppelin/contracts/access/Ownable.sol\":3004:3010  _owner */\n      0x01\n      0x00\n      swap1\n      sload\n      swap1\n      0x0100\n      exp\n      swap1\n      div\n      0xffffffffffffffffffffffffffffffffffffffff\n      and\n        /* \"@openzeppelin/contracts/access/Ownable.sol\":2985:3010  address oldOwner = _owner */\n      swap1\n      pop\n        /* \"@openzeppelin/contracts/access/Ownable.sol\":3029:3037  newOwner */\n      dup2\n        /* \"@openzeppelin/contracts/access/Ownable.sol\":3020:3026  _owner */\n      0x01\n      0x00\n        /* \"@openzeppelin/contracts/access/Ownable.sol\":3020:3037  _owner = newOwner */\n      0x0100\n      exp\n      dup2\n      sload\n      dup2\n      0xffffffffffffffffffffffffffffffffffffffff\n      mul\n      not\n      and\n      swap1\n      dup4\n      0xffffffffffffffffffffffffffffffffffffffff\n      and\n      mul\n      or\n      swap1\n      sstore\n      pop\n        /* \"@openzeppelin/contracts/access/Ownable.sol\":3083:3091  newOwner */\n      dup2\n        /* \"@openzeppelin/contracts/access/Ownable.sol\":3052:3092  OwnershipTransferred(oldOwner, newOwner) */\n      0xffffffffffffffffffffffffffffffffffffffff\n      and\n        /* \"@openzeppelin/contracts/access/Ownable.sol\":3073:3081  oldOwner */\n      dup2\n        /* \"@openzeppelin/contracts/access/Ownable.sol\":3052:3092  OwnershipTransferred(oldOwner, newOwner) */\n      0xffffffffffffffffffffffffffffffffffffffff\n      and\n      0x8be0079c531659141344cd1fd0a4f28419497f9722a3daafe3b4186f6b6457e0\n      mload(0x40)\n      mload(0x40)\n      dup1\n      swap2\n      sub\n      swap1\n      log3\n        /* \"@openzeppelin/contracts/access/Ownable.sol\":2975:3099  {... */\n      pop\n        /* \"@openzeppelin/contracts/access/Ownable.sol\":2912:3099  function _transferOwnership(address newOwner) internal virtual {... */\n      pop\n      jump\t// out\n        /* \"vote_contract.sol\":2964:3116  function _calculateVotingPower(Stake memory stake) private pure returns (uint256){ ... */\n    tag_179:\n        /* \"vote_contract.sol\":3037:3044  uint256 */\n      0x00\n        /* \"vote_contract.sol\":3107:3108  2 */\n      0x02\n        /* \"vote_contract.sol\":3085:3090  stake */\n      dup3\n        /* \"vote_contract.sol\":3085:3103  stake.withdrawDate */\n      0x20\n      add\n      mload\n        /* \"vote_contract.sol\":3085:3108  stake.withdrawDate ** 2 */\n      tag_262\n      swap2\n      swap1\n      tag_263\n      jump\t// in\n    tag_262:\n        /* \"vote_contract.sol\":3063:3068  stake */\n      dup3\n        /* \"vote_contract.sol\":3063:3081  stake.stakedAmount */\n      0x00\n      add\n      mload\n        /* \"vote_contract.sol\":3063:3109  stake.stakedAmount * (stake.withdrawDate ** 2) */\n      tag_264\n      swap2\n      swap1\n      tag_265\n      jump\t// in\n    tag_264:\n        /* \"vote_contract.sol\":3056:3109  return stake.stakedAmount * (stake.withdrawDate ** 2) */\n      swap1\n      pop\n        /* \"vote_contract.sol\":2964:3116  function _calculateVotingPower(Stake memory stake) private pure returns (uint256){ ... */\n      swap2\n      swap1\n      pop\n      jump\t// out\n        /* \"@openzeppelin/contracts/utils/Context.sol\":656:752  function _msgSender() internal view virtual returns (address) {... */\n    tag_255:\n        /* \"@openzeppelin/contracts/utils/Context.sol\":709:716  address */\n      0x00\n        /* \"@openzeppelin/contracts/utils/Context.sol\":735:745  msg.sender */\n      caller\n        /* \"@openzeppelin/contracts/utils/Context.sol\":728:745  return msg.sender */\n      swap1\n      pop\n        /* \"@openzeppelin/contracts/utils/Context.sol\":656:752  function _msgSender() internal view virtual returns (address) {... */\n      swap1\n      jump\t// out\n    tag_128:\n      mload(0x40)\n      dup1\n      0xe0\n      add\n      0x40\n      mstore\n      dup1\n      0x00\n      dup2\n      mstore\n      0x20\n      add\n      0x00\n      dup2\n      mstore\n      0x20\n      add\n      0x60\n      dup2\n      mstore\n      0x20\n      add\n      0x00\n      dup2\n      mstore\n      0x20\n      add\n      0x00\n      dup2\n      mstore\n      0x20\n      add\n      0x00\n      dup2\n      mstore\n      0x20\n      add\n      0x00\n      0x02\n      dup2\n      gt\n      iszero\n      tag_267\n      jumpi\n      tag_268\n      tag_118\n      jump\t// in\n    tag_268:\n    tag_267:\n      dup2\n      mstore\n      pop\n      swap1\n      jump\t// out\n    tag_246:\n      mload(0x40)\n      dup1\n      0x40\n      add\n      0x40\n      mstore\n      dup1\n      0x00\n      dup2\n      mstore\n      0x20\n      add\n      0x00\n      dup2\n      mstore\n      pop\n      swap1\n      jump\t// out\n        /* \"#utility.yul\":7:82   */\n    tag_269:\n        /* \"#utility.yul\":40:46   */\n      0x00\n        /* \"#utility.yul\":73:75   */\n      0x40\n        /* \"#utility.yul\":67:76   */\n      mload\n        /* \"#utility.yul\":57:76   */\n      swap1\n      pop\n        /* \"#utility.yul\":7:82   */\n      swap1\n      jump\t// out\n        /* \"#utility.yul\":88:205   */\n    tag_270:\n        /* \"#utility.yul\":197:198   */\n      0x00\n        /* \"#utility.yul\":194:195   */\n      dup1\n        /* \"#utility.yul\":187:199   */\n      revert\n        /* \"#utility.yul\":211:328   */\n    tag_271:\n        /* \"#utility.yul\":320:321   */\n      0x00\n        /* \"#utility.yul\":317:318   */\n      dup1\n        /* \"#utility.yul\":310:322   */\n      revert\n        /* \"#utility.yul\":334:411   */\n    tag_272:\n        /* \"#utility.yul\":371:378   */\n      0x00\n        /* \"#utility.yul\":400:405   */\n      dup2\n        /* \"#utility.yul\":389:405   */\n      swap1\n      pop\n        /* \"#utility.yul\":334:411   */\n      swap2\n      swap1\n      pop\n      jump\t// out\n        /* \"#utility.yul\":417:539   */\n    tag_273:\n        /* \"#utility.yul\":490:514   */\n      tag_358\n        /* \"#utility.yul\":508:513   */\n      dup2\n        /* \"#utility.yul\":490:514   */\n      tag_272\n      jump\t// in\n    tag_358:\n        /* \"#utility.yul\":483:488   */\n      dup2\n        /* \"#utility.yul\":480:515   */\n      eq\n        /* \"#utility.yul\":470:533   */\n      tag_359\n      jumpi\n        /* \"#utility.yul\":529:530   */\n      0x00\n        /* \"#utility.yul\":526:527   */\n      dup1\n        /* \"#utility.yul\":519:531   */\n      revert\n        /* \"#utility.yul\":470:533   */\n    tag_359:\n        /* \"#utility.yul\":417:539   */\n      pop\n      jump\t// out\n        /* \"#utility.yul\":545:684   */\n    tag_274:\n        /* \"#utility.yul\":591:596   */\n      0x00\n        /* \"#utility.yul\":629:635   */\n      dup2\n        /* \"#utility.yul\":616:636   */\n      calldataload\n        /* \"#utility.yul\":607:636   */\n      swap1\n      pop\n        /* \"#utility.yul\":645:678   */\n      tag_361\n        /* \"#utility.yul\":672:677   */\n      dup2\n        /* \"#utility.yul\":645:678   */\n      tag_273\n      jump\t// in\n    tag_361:\n        /* \"#utility.yul\":545:684   */\n      swap3\n      swap2\n      pop\n      pop\n      jump\t// out\n        /* \"#utility.yul\":690:1019   */\n    tag_23:\n        /* \"#utility.yul\":749:755   */\n      0x00\n        /* \"#utility.yul\":798:800   */\n      0x20\n        /* \"#utility.yul\":786:795   */\n      dup3\n        /* \"#utility.yul\":777:784   */\n      dup5\n        /* \"#utility.yul\":773:796   */\n      sub\n        /* \"#utility.yul\":769:801   */\n      slt\n        /* \"#utility.yul\":766:885   */\n      iszero\n      tag_363\n      jumpi\n        /* \"#utility.yul\":804:883   */\n      tag_364\n      tag_270\n      jump\t// in\n    tag_364:\n        /* \"#utility.yul\":766:885   */\n    tag_363:\n        /* \"#utility.yul\":924:925   */\n      0x00\n        /* \"#utility.yul\":949:1002   */\n      tag_365\n        /* \"#utility.yul\":994:1001   */\n      dup5\n        /* \"#utility.yul\":985:991   */\n      dup3\n        /* \"#utility.yul\":974:983   */\n      dup6\n        /* \"#utility.yul\":970:992   */\n      add\n        /* \"#utility.yul\":949:1002   */\n      tag_274\n      jump\t// in\n    tag_365:\n        /* \"#utility.yul\":939:1002   */\n      swap2\n      pop\n        /* \"#utility.yul\":895:1012   */\n      pop\n        /* \"#utility.yul\":690:1019   */\n      swap3\n      swap2\n      pop\n      pop\n      jump\t// out\n        /* \"#utility.yul\":1025:1143   */\n    tag_275:\n        /* \"#utility.yul\":1112:1136   */\n      tag_367\n        /* \"#utility.yul\":1130:1135   */\n      dup2\n        /* \"#utility.yul\":1112:1136   */\n      tag_272\n      jump\t// in\n    tag_367:\n        /* \"#utility.yul\":1107:1110   */\n      dup3\n        /* \"#utility.yul\":1100:1137   */\n      mstore\n        /* \"#utility.yul\":1025:1143   */\n      pop\n      pop\n      jump\t// out\n        /* \"#utility.yul\":1149:1248   */\n    tag_276:\n        /* \"#utility.yul\":1201:1207   */\n      0x00\n        /* \"#utility.yul\":1235:1240   */\n      dup2\n        /* \"#utility.yul\":1229:1241   */\n      mload\n        /* \"#utility.yul\":1219:1241   */\n      swap1\n      pop\n        /* \"#utility.yul\":1149:1248   */\n      swap2\n      swap1\n      pop\n      jump\t// out\n        /* \"#utility.yul\":1254:1423   */\n    tag_277:\n        /* \"#utility.yul\":1338:1349   */\n      0x00\n        /* \"#utility.yul\":1372:1378   */\n      dup3\n        /* \"#utility.yul\":1367:1370   */\n      dup3\n        /* \"#utility.yul\":1360:1379   */\n      mstore\n        /* \"#utility.yul\":1412:1416   */\n      0x20\n        /* \"#utility.yul\":1407:1410   */\n      dup3\n        /* \"#utility.yul\":1403:1417   */\n      add\n        /* \"#utility.yul\":1388:1417   */\n      swap1\n      pop\n        /* \"#utility.yul\":1254:1423   */\n      swap3\n      swap2\n      pop\n      pop\n      jump\t// out\n        /* \"#utility.yul\":1429:1568   */\n    tag_278:\n        /* \"#utility.yul\":1518:1524   */\n      dup3\n        /* \"#utility.yul\":1513:1516   */\n      dup2\n        /* \"#utility.yul\":1508:1511   */\n      dup4\n        /* \"#utility.yul\":1502:1525   */\n      mcopy\n        /* \"#utility.yul\":1559:1560   */\n      0x00\n        /* \"#utility.yul\":1550:1556   */\n      dup4\n        /* \"#utility.yul\":1545:1548   */\n      dup4\n        /* \"#utility.yul\":1541:1557   */\n      add\n        /* \"#utility.yul\":1534:1561   */\n      mstore\n        /* \"#utility.yul\":1429:1568   */\n      pop\n      pop\n      pop\n      jump\t// out\n        /* \"#utility.yul\":1574:1676   */\n    tag_279:\n        /* \"#utility.yul\":1615:1621   */\n      0x00\n        /* \"#utility.yul\":1666:1668   */\n      0x1f\n        /* \"#utility.yul\":1662:1669   */\n      not\n        /* \"#utility.yul\":1657:1659   */\n      0x1f\n        /* \"#utility.yul\":1650:1655   */\n      dup4\n        /* \"#utility.yul\":1646:1660   */\n      add\n        /* \"#utility.yul\":1642:1670   */\n      and\n        /* \"#utility.yul\":1632:1670   */\n      swap1\n      pop\n        /* \"#utility.yul\":1574:1676   */\n      swap2\n      swap1\n      pop\n      jump\t// out\n        /* \"#utility.yul\":1682:2059   */\n    tag_280:\n        /* \"#utility.yul\":1770:1773   */\n      0x00\n        /* \"#utility.yul\":1798:1837   */\n      tag_373\n        /* \"#utility.yul\":1831:1836   */\n      dup3\n        /* \"#utility.yul\":1798:1837   */\n      tag_276\n      jump\t// in\n    tag_373:\n        /* \"#utility.yul\":1853:1924   */\n      tag_374\n        /* \"#utility.yul\":1917:1923   */\n      dup2\n        /* \"#utility.yul\":1912:1915   */\n      dup6\n        /* \"#utility.yul\":1853:1924   */\n      tag_277\n      jump\t// in\n    tag_374:\n        /* \"#utility.yul\":1846:1924   */\n      swap4\n      pop\n        /* \"#utility.yul\":1933:1998   */\n      tag_375\n        /* \"#utility.yul\":1991:1997   */\n      dup2\n        /* \"#utility.yul\":1986:1989   */\n      dup6\n        /* \"#utility.yul\":1979:1983   */\n      0x20\n        /* \"#utility.yul\":1972:1977   */\n      dup7\n        /* \"#utility.yul\":1968:1984   */\n      add\n        /* \"#utility.yul\":1933:1998   */\n      tag_278\n      jump\t// in\n    tag_375:\n        /* \"#utility.yul\":2023:2052   */\n      tag_376\n        /* \"#utility.yul\":2045:2051   */\n      dup2\n        /* \"#utility.yul\":2023:2052   */\n      tag_279\n      jump\t// in\n    tag_376:\n        /* \"#utility.yul\":2018:2021   */\n      dup5\n        /* \"#utility.yul\":2014:2053   */\n      add\n        /* \"#utility.yul\":2007:2053   */\n      swap2\n      pop\n        /* \"#utility.yul\":1774:2059   */\n      pop\n        /* \"#utility.yul\":1682:2059   */\n      swap3\n      swap2\n      pop\n      pop\n      jump\t// out\n        /* \"#utility.yul\":2065:2245   */\n    tag_118:\n        /* \"#utility.yul\":2113:2190   */\n      0x4e487b7100000000000000000000000000000000000000000000000000000000\n        /* \"#utility.yul\":2110:2111   */\n      0x00\n        /* \"#utility.yul\":2103:2191   */\n      mstore\n        /* \"#utility.yul\":2210:2214   */\n      0x21\n        /* \"#utility.yul\":2207:2208   */\n      0x04\n        /* \"#utility.yul\":2200:2215   */\n      mstore\n        /* \"#utility.yul\":2234:2238   */\n      0x24\n        /* \"#utility.yul\":2231:2232   */\n      0x00\n        /* \"#utility.yul\":2224:2239   */\n      revert\n        /* \"#utility.yul\":2251:2368   */\n    tag_281:\n        /* \"#utility.yul\":2336:2337   */\n      0x03\n        /* \"#utility.yul\":2329:2334   */\n      dup2\n        /* \"#utility.yul\":2326:2338   */\n      lt\n        /* \"#utility.yul\":2316:2362   */\n      tag_379\n      jumpi\n        /* \"#utility.yul\":2342:2360   */\n      tag_380\n      tag_118\n      jump\t// in\n    tag_380:\n        /* \"#utility.yul\":2316:2362   */\n    tag_379:\n        /* \"#utility.yul\":2251:2368   */\n      pop\n      jump\t// out\n        /* \"#utility.yul\":2374:2509   */\n    tag_282:\n        /* \"#utility.yul\":2423:2430   */\n      0x00\n        /* \"#utility.yul\":2452:2457   */\n      dup2\n        /* \"#utility.yul\":2441:2457   */\n      swap1\n      pop\n        /* \"#utility.yul\":2458:2503   */\n      tag_382\n        /* \"#utility.yul\":2497:2502   */\n      dup3\n        /* \"#utility.yul\":2458:2503   */\n      tag_281\n      jump\t// in\n    tag_382:\n        /* \"#utility.yul\":2374:2509   */\n      swap2\n      swap1\n      pop\n      jump\t// out\n        /* \"#utility.yul\":2515:2650   */\n    tag_283:\n        /* \"#utility.yul\":2575:2584   */\n      0x00\n        /* \"#utility.yul\":2608:2644   */\n      tag_384\n        /* \"#utility.yul\":2638:2643   */\n      dup3\n        /* \"#utility.yul\":2608:2644   */\n      tag_282\n      jump\t// in\n    tag_384:\n        /* \"#utility.yul\":2595:2644   */\n      swap1\n      pop\n        /* \"#utility.yul\":2515:2650   */\n      swap2\n      swap1\n      pop\n      jump\t// out\n        /* \"#utility.yul\":2656:2807   */\n    tag_284:\n        /* \"#utility.yul\":2753:2800   */\n      tag_386\n        /* \"#utility.yul\":2794:2799   */\n      dup2\n        /* \"#utility.yul\":2753:2800   */\n      tag_283\n      jump\t// in\n    tag_386:\n        /* \"#utility.yul\":2748:2751   */\n      dup3\n        /* \"#utility.yul\":2741:2801   */\n      mstore\n        /* \"#utility.yul\":2656:2807   */\n      pop\n      pop\n      jump\t// out\n        /* \"#utility.yul\":2813:3810   */\n    tag_26:\n        /* \"#utility.yul\":3104:3108   */\n      0x00\n        /* \"#utility.yul\":3142:3145   */\n      0xe0\n        /* \"#utility.yul\":3131:3140   */\n      dup3\n        /* \"#utility.yul\":3127:3146   */\n      add\n        /* \"#utility.yul\":3119:3146   */\n      swap1\n      pop\n        /* \"#utility.yul\":3156:3227   */\n      tag_388\n        /* \"#utility.yul\":3224:3225   */\n      0x00\n        /* \"#utility.yul\":3213:3222   */\n      dup4\n        /* \"#utility.yul\":3209:3226   */\n      add\n        /* \"#utility.yul\":3200:3206   */\n      dup11\n        /* \"#utility.yul\":3156:3227   */\n      tag_275\n      jump\t// in\n    tag_388:\n        /* \"#utility.yul\":3237:3309   */\n      tag_389\n        /* \"#utility.yul\":3305:3307   */\n      0x20\n        /* \"#utility.yul\":3294:3303   */\n      dup4\n        /* \"#utility.yul\":3290:3308   */\n      add\n        /* \"#utility.yul\":3281:3287   */\n      dup10\n        /* \"#utility.yul\":3237:3309   */\n      tag_275\n      jump\t// in\n    tag_389:\n        /* \"#utility.yul\":3356:3365   */\n      dup2\n        /* \"#utility.yul\":3350:3354   */\n      dup2\n        /* \"#utility.yul\":3346:3366   */\n      sub\n        /* \"#utility.yul\":3341:3343   */\n      0x40\n        /* \"#utility.yul\":3330:3339   */\n      dup4\n        /* \"#utility.yul\":3326:3344   */\n      add\n        /* \"#utility.yul\":3319:3367   */\n      mstore\n        /* \"#utility.yul\":3384:3462   */\n      tag_390\n        /* \"#utility.yul\":3457:3461   */\n      dup2\n        /* \"#utility.yul\":3448:3454   */\n      dup9\n        /* \"#utility.yul\":3384:3462   */\n      tag_280\n      jump\t// in\n    tag_390:\n        /* \"#utility.yul\":3376:3462   */\n      swap1\n      pop\n        /* \"#utility.yul\":3472:3544   */\n      tag_391\n        /* \"#utility.yul\":3540:3542   */\n      0x60\n        /* \"#utility.yul\":3529:3538   */\n      dup4\n        /* \"#utility.yul\":3525:3543   */\n      add\n        /* \"#utility.yul\":3516:3522   */\n      dup8\n        /* \"#utility.yul\":3472:3544   */\n      tag_275\n      jump\t// in\n    tag_391:\n        /* \"#utility.yul\":3554:3627   */\n      tag_392\n        /* \"#utility.yul\":3622:3625   */\n      0x80\n        /* \"#utility.yul\":3611:3620   */\n      dup4\n        /* \"#utility.yul\":3607:3626   */\n      add\n        /* \"#utility.yul\":3598:3604   */\n      dup7\n        /* \"#utility.yul\":3554:3627   */\n      tag_275\n      jump\t// in\n    tag_392:\n        /* \"#utility.yul\":3637:3710   */\n      tag_393\n        /* \"#utility.yul\":3705:3708   */\n      0xa0\n        /* \"#utility.yul\":3694:3703   */\n      dup4\n        /* \"#utility.yul\":3690:3709   */\n      add\n        /* \"#utility.yul\":3681:3687   */\n      dup6\n        /* \"#utility.yul\":3637:3710   */\n      tag_275\n      jump\t// in\n    tag_393:\n        /* \"#utility.yul\":3720:3803   */\n      tag_394\n        /* \"#utility.yul\":3798:3801   */\n      0xc0\n        /* \"#utility.yul\":3787:3796   */\n      dup4\n        /* \"#utility.yul\":3783:3802   */\n      add\n        /* \"#utility.yul\":3774:3780   */\n      dup5\n        /* \"#utility.yul\":3720:3803   */\n      tag_284\n      jump\t// in\n    tag_394:\n        /* \"#utility.yul\":2813:3810   */\n      swap9\n      swap8\n      pop\n      pop\n      pop\n      pop\n      pop\n      pop\n      pop\n      pop\n      jump\t// out\n        /* \"#utility.yul\":3816:3933   */\n    tag_285:\n        /* \"#utility.yul\":3925:3926   */\n      0x00\n        /* \"#utility.yul\":3922:3923   */\n      dup1\n        /* \"#utility.yul\":3915:3927   */\n      revert\n        /* \"#utility.yul\":3939:4056   */\n    tag_286:\n        /* \"#utility.yul\":4048:4049   */\n      0x00\n        /* \"#utility.yul\":4045:4046   */\n      dup1\n        /* \"#utility.yul\":4038:4050   */\n      revert\n        /* \"#utility.yul\":4062:4242   */\n    tag_287:\n        /* \"#utility.yul\":4110:4187   */\n      0x4e487b7100000000000000000000000000000000000000000000000000000000\n        /* \"#utility.yul\":4107:4108   */\n      0x00\n        /* \"#utility.yul\":4100:4188   */\n      mstore\n        /* \"#utility.yul\":4207:4211   */\n      0x41\n        /* \"#utility.yul\":4204:4205   */\n      0x04\n        /* \"#utility.yul\":4197:4212   */\n      mstore\n        /* \"#utility.yul\":4231:4235   */\n      0x24\n        /* \"#utility.yul\":4228:4229   */\n      0x00\n        /* \"#utility.yul\":4221:4236   */\n      revert\n        /* \"#utility.yul\":4248:4529   */\n    tag_288:\n        /* \"#utility.yul\":4331:4358   */\n      tag_399\n        /* \"#utility.yul\":4353:4357   */\n      dup3\n        /* \"#utility.yul\":4331:4358   */\n      tag_279\n      jump\t// in\n    tag_399:\n        /* \"#utility.yul\":4323:4329   */\n      dup2\n        /* \"#utility.yul\":4319:4359   */\n      add\n        /* \"#utility.yul\":4461:4467   */\n      dup2\n        /* \"#utility.yul\":4449:4459   */\n      dup2\n        /* \"#utility.yul\":4446:4468   */\n      lt\n        /* \"#utility.yul\":4425:4443   */\n      0xffffffffffffffff\n        /* \"#utility.yul\":4413:4423   */\n      dup3\n        /* \"#utility.yul\":4410:4444   */\n      gt\n        /* \"#utility.yul\":4407:4469   */\n      or\n        /* \"#utility.yul\":4404:4492   */\n      iszero\n      tag_400\n      jumpi\n        /* \"#utility.yul\":4472:4490   */\n      tag_401\n      tag_287\n      jump\t// in\n    tag_401:\n        /* \"#utility.yul\":4404:4492   */\n    tag_400:\n        /* \"#utility.yul\":4512:4522   */\n      dup1\n        /* \"#utility.yul\":4508:4510   */\n      0x40\n        /* \"#utility.yul\":4501:4523   */\n      mstore\n        /* \"#utility.yul\":4291:4529   */\n      pop\n        /* \"#utility.yul\":4248:4529   */\n      pop\n      pop\n      jump\t// out\n        /* \"#utility.yul\":4535:4664   */\n    tag_289:\n        /* \"#utility.yul\":4569:4575   */\n      0x00\n        /* \"#utility.yul\":4596:4616   */\n      tag_403\n      tag_269\n      jump\t// in\n    tag_403:\n        /* \"#utility.yul\":4586:4616   */\n      swap1\n      pop\n        /* \"#utility.yul\":4625:4658   */\n      tag_404\n        /* \"#utility.yul\":4653:4657   */\n      dup3\n        /* \"#utility.yul\":4645:4651   */\n      dup3\n        /* \"#utility.yul\":4625:4658   */\n      tag_288\n      jump\t// in\n    tag_404:\n        /* \"#utility.yul\":4535:4664   */\n      swap2\n      swap1\n      pop\n      jump\t// out\n        /* \"#utility.yul\":4670:4978   */\n    tag_290:\n        /* \"#utility.yul\":4732:4736   */\n      0x00\n        /* \"#utility.yul\":4822:4840   */\n      0xffffffffffffffff\n        /* \"#utility.yul\":4814:4820   */\n      dup3\n        /* \"#utility.yul\":4811:4841   */\n      gt\n        /* \"#utility.yul\":4808:4864   */\n      iszero\n      tag_406\n      jumpi\n        /* \"#utility.yul\":4844:4862   */\n      tag_407\n      tag_287\n      jump\t// in\n    tag_407:\n        /* \"#utility.yul\":4808:4864   */\n    tag_406:\n        /* \"#utility.yul\":4882:4911   */\n      tag_408\n        /* \"#utility.yul\":4904:4910   */\n      dup3\n        /* \"#utility.yul\":4882:4911   */\n      tag_279\n      jump\t// in\n    tag_408:\n        /* \"#utility.yul\":4874:4911   */\n      swap1\n      pop\n        /* \"#utility.yul\":4966:4970   */\n      0x20\n        /* \"#utility.yul\":4960:4964   */\n      dup2\n        /* \"#utility.yul\":4956:4971   */\n      add\n        /* \"#utility.yul\":4948:4971   */\n      swap1\n      pop\n        /* \"#utility.yul\":4670:4978   */\n      swap2\n      swap1\n      pop\n      jump\t// out\n        /* \"#utility.yul\":4984:5132   */\n    tag_291:\n        /* \"#utility.yul\":5082:5088   */\n      dup3\n        /* \"#utility.yul\":5077:5080   */\n      dup2\n        /* \"#utility.yul\":5072:5075   */\n      dup4\n        /* \"#utility.yul\":5059:5089   */\n      calldatacopy\n        /* \"#utility.yul\":5123:5124   */\n      0x00\n        /* \"#utility.yul\":5114:5120   */\n      dup4\n        /* \"#utility.yul\":5109:5112   */\n      dup4\n        /* \"#utility.yul\":5105:5121   */\n      add\n        /* \"#utility.yul\":5098:5125   */\n      mstore\n        /* \"#utility.yul\":4984:5132   */\n      pop\n      pop\n      pop\n      jump\t// out\n        /* \"#utility.yul\":5138:5563   */\n    tag_292:\n        /* \"#utility.yul\":5216:5221   */\n      0x00\n        /* \"#utility.yul\":5241:5307   */\n      tag_411\n        /* \"#utility.yul\":5257:5306   */\n      tag_412\n        /* \"#utility.yul\":5299:5305   */\n      dup5\n        /* \"#utility.yul\":5257:5306   */\n      tag_290\n      jump\t// in\n    tag_412:\n        /* \"#utility.yul\":5241:5307   */\n      tag_289\n      jump\t// in\n    tag_411:\n        /* \"#utility.yul\":5232:5307   */\n      swap1\n      pop\n        /* \"#utility.yul\":5330:5336   */\n      dup3\n        /* \"#utility.yul\":5323:5328   */\n      dup2\n        /* \"#utility.yul\":5316:5337   */\n      mstore\n        /* \"#utility.yul\":5368:5372   */\n      0x20\n        /* \"#utility.yul\":5361:5366   */\n      dup2\n        /* \"#utility.yul\":5357:5373   */\n      add\n        /* \"#utility.yul\":5406:5409   */\n      dup5\n        /* \"#utility.yul\":5397:5403   */\n      dup5\n        /* \"#utility.yul\":5392:5395   */\n      dup5\n        /* \"#utility.yul\":5388:5404   */\n      add\n        /* \"#utility.yul\":5385:5410   */\n      gt\n        /* \"#utility.yul\":5382:5494   */\n      iszero\n      tag_413\n      jumpi\n        /* \"#utility.yul\":5413:5492   */\n      tag_414\n      tag_286\n      jump\t// in\n    tag_414:\n        /* \"#utility.yul\":5382:5494   */\n    tag_413:\n        /* \"#utility.yul\":5503:5557   */\n      tag_415\n        /* \"#utility.yul\":5550:5556   */\n      dup5\n        /* \"#utility.yul\":5545:5548   */\n      dup3\n        /* \"#utility.yul\":5540:5543   */\n      dup6\n        /* \"#utility.yul\":5503:5557   */\n      tag_291\n      jump\t// in\n    tag_415:\n        /* \"#utility.yul\":5222:5563   */\n      pop\n        /* \"#utility.yul\":5138:5563   */\n      swap4\n      swap3\n      pop\n      pop\n      pop\n      jump\t// out\n        /* \"#utility.yul\":5583:5923   */\n    tag_293:\n        /* \"#utility.yul\":5639:5644   */\n      0x00\n        /* \"#utility.yul\":5688:5691   */\n      dup3\n        /* \"#utility.yul\":5681:5685   */\n      0x1f\n        /* \"#utility.yul\":5673:5679   */\n      dup4\n        /* \"#utility.yul\":5669:5686   */\n      add\n        /* \"#utility.yul\":5665:5692   */\n      slt\n        /* \"#utility.yul\":5655:5777   */\n      tag_417\n      jumpi\n        /* \"#utility.yul\":5696:5775   */\n      tag_418\n      tag_285\n      jump\t// in\n    tag_418:\n        /* \"#utility.yul\":5655:5777   */\n    tag_417:\n        /* \"#utility.yul\":5813:5819   */\n      dup2\n        /* \"#utility.yul\":5800:5820   */\n      calldataload\n        /* \"#utility.yul\":5838:5917   */\n      tag_419\n        /* \"#utility.yul\":5913:5916   */\n      dup5\n        /* \"#utility.yul\":5905:5911   */\n      dup3\n        /* \"#utility.yul\":5898:5902   */\n      0x20\n        /* \"#utility.yul\":5890:5896   */\n      dup7\n        /* \"#utility.yul\":5886:5903   */\n      add\n        /* \"#utility.yul\":5838:5917   */\n      tag_292\n      jump\t// in\n    tag_419:\n        /* \"#utility.yul\":5829:5917   */\n      swap2\n      pop\n        /* \"#utility.yul\":5645:5923   */\n      pop\n        /* \"#utility.yul\":5583:5923   */\n      swap3\n      swap2\n      pop\n      pop\n      jump\t// out\n        /* \"#utility.yul\":5929:6728   */\n    tag_31:\n        /* \"#utility.yul\":6016:6022   */\n      0x00\n        /* \"#utility.yul\":6024:6030   */\n      dup1\n        /* \"#utility.yul\":6032:6038   */\n      0x00\n        /* \"#utility.yul\":6081:6083   */\n      0x60\n        /* \"#utility.yul\":6069:6078   */\n      dup5\n        /* \"#utility.yul\":6060:6067   */\n      dup7\n        /* \"#utility.yul\":6056:6079   */\n      sub\n        /* \"#utility.yul\":6052:6084   */\n      slt\n        /* \"#utility.yul\":6049:6168   */\n      iszero\n      tag_421\n      jumpi\n        /* \"#utility.yul\":6087:6166   */\n      tag_422\n      tag_270\n      jump\t// in\n    tag_422:\n        /* \"#utility.yul\":6049:6168   */\n    tag_421:\n        /* \"#utility.yul\":6235:6236   */\n      0x00\n        /* \"#utility.yul\":6224:6233   */\n      dup5\n        /* \"#utility.yul\":6220:6237   */\n      add\n        /* \"#utility.yul\":6207:6238   */\n      calldataload\n        /* \"#utility.yul\":6265:6283   */\n      0xffffffffffffffff\n        /* \"#utility.yul\":6257:6263   */\n      dup2\n        /* \"#utility.yul\":6254:6284   */\n      gt\n        /* \"#utility.yul\":6251:6368   */\n      iszero\n      tag_423\n      jumpi\n        /* \"#utility.yul\":6287:6366   */\n      tag_424\n      tag_271\n      jump\t// in\n    tag_424:\n        /* \"#utility.yul\":6251:6368   */\n    tag_423:\n        /* \"#utility.yul\":6392:6455   */\n      tag_425\n        /* \"#utility.yul\":6447:6454   */\n      dup7\n        /* \"#utility.yul\":6438:6444   */\n      dup3\n        /* \"#utility.yul\":6427:6436   */\n      dup8\n        /* \"#utility.yul\":6423:6445   */\n      add\n        /* \"#utility.yul\":6392:6455   */\n      tag_293\n      jump\t// in\n    tag_425:\n        /* \"#utility.yul\":6382:6455   */\n      swap4\n      pop\n        /* \"#utility.yul\":6178:6465   */\n      pop\n        /* \"#utility.yul\":6504:6506   */\n      0x20\n        /* \"#utility.yul\":6530:6583   */\n      tag_426\n        /* \"#utility.yul\":6575:6582   */\n      dup7\n        /* \"#utility.yul\":6566:6572   */\n      dup3\n        /* \"#utility.yul\":6555:6564   */\n      dup8\n        /* \"#utility.yul\":6551:6573   */\n      add\n        /* \"#utility.yul\":6530:6583   */\n      tag_274\n      jump\t// in\n    tag_426:\n        /* \"#utility.yul\":6520:6583   */\n      swap3\n      pop\n        /* \"#utility.yul\":6475:6593   */\n      pop\n        /* \"#utility.yul\":6632:6634   */\n      0x40\n        /* \"#utility.yul\":6658:6711   */\n      tag_427\n        /* \"#utility.yul\":6703:6710   */\n      dup7\n        /* \"#utility.yul\":6694:6700   */\n      dup3\n        /* \"#utility.yul\":6683:6692   */\n      dup8\n        /* \"#utility.yul\":6679:6701   */\n      add\n        /* \"#utility.yul\":6658:6711   */\n      tag_274\n      jump\t// in\n    tag_427:\n        /* \"#utility.yul\":6648:6711   */\n      swap2\n      pop\n        /* \"#utility.yul\":6603:6721   */\n      pop\n        /* \"#utility.yul\":5929:6728   */\n      swap3\n      pop\n      swap3\n      pop\n      swap3\n      jump\t// out\n        /* \"#utility.yul\":6734:6956   */\n    tag_34:\n        /* \"#utility.yul\":6827:6831   */\n      0x00\n        /* \"#utility.yul\":6865:6867   */\n      0x20\n        /* \"#utility.yul\":6854:6863   */\n      dup3\n        /* \"#utility.yul\":6850:6868   */\n      add\n        /* \"#utility.yul\":6842:6868   */\n      swap1\n      pop\n        /* \"#utility.yul\":6878:6949   */\n      tag_429\n        /* \"#utility.yul\":6946:6947   */\n      0x00\n        /* \"#utility.yul\":6935:6944   */\n      dup4\n        /* \"#utility.yul\":6931:6948   */\n      add\n        /* \"#utility.yul\":6922:6928   */\n      dup5\n        /* \"#utility.yul\":6878:6949   */\n      tag_275\n      jump\t// in\n    tag_429:\n        /* \"#utility.yul\":6734:6956   */\n      swap3\n      swap2\n      pop\n      pop\n      jump\t// out\n        /* \"#utility.yul\":6962:7070   */\n    tag_294:\n        /* \"#utility.yul\":7039:7063   */\n      tag_431\n        /* \"#utility.yul\":7057:7062   */\n      dup2\n        /* \"#utility.yul\":7039:7063   */\n      tag_272\n      jump\t// in\n    tag_431:\n        /* \"#utility.yul\":7034:7037   */\n      dup3\n        /* \"#utility.yul\":7027:7064   */\n      mstore\n        /* \"#utility.yul\":6962:7070   */\n      pop\n      pop\n      jump\t// out\n        /* \"#utility.yul\":7076:7235   */\n    tag_295:\n        /* \"#utility.yul\":7150:7161   */\n      0x00\n        /* \"#utility.yul\":7184:7190   */\n      dup3\n        /* \"#utility.yul\":7179:7182   */\n      dup3\n        /* \"#utility.yul\":7172:7191   */\n      mstore\n        /* \"#utility.yul\":7224:7228   */\n      0x20\n        /* \"#utility.yul\":7219:7222   */\n      dup3\n        /* \"#utility.yul\":7215:7229   */\n      add\n        /* \"#utility.yul\":7200:7229   */\n      swap1\n      pop\n        /* \"#utility.yul\":7076:7235   */\n      swap3\n      swap2\n      pop\n      pop\n      jump\t// out\n        /* \"#utility.yul\":7241:7598   */\n    tag_296:\n        /* \"#utility.yul\":7319:7322   */\n      0x00\n        /* \"#utility.yul\":7347:7386   */\n      tag_434\n        /* \"#utility.yul\":7380:7385   */\n      dup3\n        /* \"#utility.yul\":7347:7386   */\n      tag_276\n      jump\t// in\n    tag_434:\n        /* \"#utility.yul\":7402:7463   */\n      tag_435\n        /* \"#utility.yul\":7456:7462   */\n      dup2\n        /* \"#utility.yul\":7451:7454   */\n      dup6\n        /* \"#utility.yul\":7402:7463   */\n      tag_295\n      jump\t// in\n    tag_435:\n        /* \"#utility.yul\":7395:7463   */\n      swap4\n      pop\n        /* \"#utility.yul\":7472:7537   */\n      tag_436\n        /* \"#utility.yul\":7530:7536   */\n      dup2\n        /* \"#utility.yul\":7525:7528   */\n      dup6\n        /* \"#utility.yul\":7518:7522   */\n      0x20\n        /* \"#utility.yul\":7511:7516   */\n      dup7\n        /* \"#utility.yul\":7507:7523   */\n      add\n        /* \"#utility.yul\":7472:7537   */\n      tag_278\n      jump\t// in\n    tag_436:\n        /* \"#utility.yul\":7562:7591   */\n      tag_437\n        /* \"#utility.yul\":7584:7590   */\n      dup2\n        /* \"#utility.yul\":7562:7591   */\n      tag_279\n      jump\t// in\n    tag_437:\n        /* \"#utility.yul\":7557:7560   */\n      dup5\n        /* \"#utility.yul\":7553:7592   */\n      add\n        /* \"#utility.yul\":7546:7592   */\n      swap2\n      pop\n        /* \"#utility.yul\":7323:7598   */\n      pop\n        /* \"#utility.yul\":7241:7598   */\n      swap3\n      swap2\n      pop\n      pop\n      jump\t// out\n        /* \"#utility.yul\":7604:7745   */\n    tag_297:\n        /* \"#utility.yul\":7691:7738   */\n      tag_439\n        /* \"#utility.yul\":7732:7737   */\n      dup2\n        /* \"#utility.yul\":7691:7738   */\n      tag_283\n      jump\t// in\n    tag_439:\n        /* \"#utility.yul\":7686:7689   */\n      dup3\n        /* \"#utility.yul\":7679:7739   */\n      mstore\n        /* \"#utility.yul\":7604:7745   */\n      pop\n      pop\n      jump\t// out\n        /* \"#utility.yul\":7811:9323   */\n    tag_298:\n        /* \"#utility.yul\":7922:7925   */\n      0x00\n        /* \"#utility.yul\":7958:7962   */\n      0xe0\n        /* \"#utility.yul\":7953:7956   */\n      dup4\n        /* \"#utility.yul\":7949:7963   */\n      add\n        /* \"#utility.yul\":8049:8053   */\n      0x00\n        /* \"#utility.yul\":8042:8047   */\n      dup4\n        /* \"#utility.yul\":8038:8054   */\n      add\n        /* \"#utility.yul\":8032:8055   */\n      mload\n        /* \"#utility.yul\":8068:8131   */\n      tag_441\n        /* \"#utility.yul\":8125:8129   */\n      0x00\n        /* \"#utility.yul\":8120:8123   */\n      dup7\n        /* \"#utility.yul\":8116:8130   */\n      add\n        /* \"#utility.yul\":8102:8114   */\n      dup3\n        /* \"#utility.yul\":8068:8131   */\n      tag_294\n      jump\t// in\n    tag_441:\n        /* \"#utility.yul\":7973:8141   */\n      pop\n        /* \"#utility.yul\":8228:8232   */\n      0x20\n        /* \"#utility.yul\":8221:8226   */\n      dup4\n        /* \"#utility.yul\":8217:8233   */\n      add\n        /* \"#utility.yul\":8211:8234   */\n      mload\n        /* \"#utility.yul\":8247:8310   */\n      tag_442\n        /* \"#utility.yul\":8304:8308   */\n      0x20\n        /* \"#utility.yul\":8299:8302   */\n      dup7\n        /* \"#utility.yul\":8295:8309   */\n      add\n        /* \"#utility.yul\":8281:8293   */\n      dup3\n        /* \"#utility.yul\":8247:8310   */\n      tag_294\n      jump\t// in\n    tag_442:\n        /* \"#utility.yul\":8151:8320   */\n      pop\n        /* \"#utility.yul\":8406:8410   */\n      0x40\n        /* \"#utility.yul\":8399:8404   */\n      dup4\n        /* \"#utility.yul\":8395:8411   */\n      add\n        /* \"#utility.yul\":8389:8412   */\n      mload\n        /* \"#utility.yul\":8459:8462   */\n      dup5\n        /* \"#utility.yul\":8453:8457   */\n      dup3\n        /* \"#utility.yul\":8449:8463   */\n      sub\n        /* \"#utility.yul\":8442:8446   */\n      0x40\n        /* \"#utility.yul\":8437:8440   */\n      dup7\n        /* \"#utility.yul\":8433:8447   */\n      add\n        /* \"#utility.yul\":8426:8464   */\n      mstore\n        /* \"#utility.yul\":8485:8558   */\n      tag_443\n        /* \"#utility.yul\":8553:8557   */\n      dup3\n        /* \"#utility.yul\":8539:8551   */\n      dup3\n        /* \"#utility.yul\":8485:8558   */\n      tag_296\n      jump\t// in\n    tag_443:\n        /* \"#utility.yul\":8477:8558   */\n      swap2\n      pop\n        /* \"#utility.yul\":8330:8569   */\n      pop\n        /* \"#utility.yul\":8658:8662   */\n      0x60\n        /* \"#utility.yul\":8651:8656   */\n      dup4\n        /* \"#utility.yul\":8647:8663   */\n      add\n        /* \"#utility.yul\":8641:8664   */\n      mload\n        /* \"#utility.yul\":8677:8740   */\n      tag_444\n        /* \"#utility.yul\":8734:8738   */\n      0x60\n        /* \"#utility.yul\":8729:8732   */\n      dup7\n        /* \"#utility.yul\":8725:8739   */\n      add\n        /* \"#utility.yul\":8711:8723   */\n      dup3\n        /* \"#utility.yul\":8677:8740   */\n      tag_294\n      jump\t// in\n    tag_444:\n        /* \"#utility.yul\":8579:8750   */\n      pop\n        /* \"#utility.yul\":8835:8839   */\n      0x80\n        /* \"#utility.yul\":8828:8833   */\n      dup4\n        /* \"#utility.yul\":8824:8840   */\n      add\n        /* \"#utility.yul\":8818:8841   */\n      mload\n        /* \"#utility.yul\":8854:8917   */\n      tag_445\n        /* \"#utility.yul\":8911:8915   */\n      0x80\n        /* \"#utility.yul\":8906:8909   */\n      dup7\n        /* \"#utility.yul\":8902:8916   */\n      add\n        /* \"#utility.yul\":8888:8900   */\n      dup3\n        /* \"#utility.yul\":8854:8917   */\n      tag_294\n      jump\t// in\n    tag_445:\n        /* \"#utility.yul\":8760:8927   */\n      pop\n        /* \"#utility.yul\":9011:9015   */\n      0xa0\n        /* \"#utility.yul\":9004:9009   */\n      dup4\n        /* \"#utility.yul\":9000:9016   */\n      add\n        /* \"#utility.yul\":8994:9017   */\n      mload\n        /* \"#utility.yul\":9030:9093   */\n      tag_446\n        /* \"#utility.yul\":9087:9091   */\n      0xa0\n        /* \"#utility.yul\":9082:9085   */\n      dup7\n        /* \"#utility.yul\":9078:9092   */\n      add\n        /* \"#utility.yul\":9064:9076   */\n      dup3\n        /* \"#utility.yul\":9030:9093   */\n      tag_294\n      jump\t// in\n    tag_446:\n        /* \"#utility.yul\":8937:9103   */\n      pop\n        /* \"#utility.yul\":9194:9198   */\n      0xc0\n        /* \"#utility.yul\":9187:9192   */\n      dup4\n        /* \"#utility.yul\":9183:9199   */\n      add\n        /* \"#utility.yul\":9177:9200   */\n      mload\n        /* \"#utility.yul\":9213:9286   */\n      tag_447\n        /* \"#utility.yul\":9280:9284   */\n      0xc0\n        /* \"#utility.yul\":9275:9278   */\n      dup7\n        /* \"#utility.yul\":9271:9285   */\n      add\n        /* \"#utility.yul\":9257:9269   */\n      dup3\n        /* \"#utility.yul\":9213:9286   */\n      tag_297\n      jump\t// in\n    tag_447:\n        /* \"#utility.yul\":9113:9296   */\n      pop\n        /* \"#utility.yul\":9313:9317   */\n      dup1\n        /* \"#utility.yul\":9306:9317   */\n      swap2\n      pop\n        /* \"#utility.yul\":7927:9323   */\n      pop\n        /* \"#utility.yul\":7811:9323   */\n      swap3\n      swap2\n      pop\n      pop\n      jump\t// out\n        /* \"#utility.yul\":9329:9686   */\n    tag_39:\n        /* \"#utility.yul\":9464:9468   */\n      0x00\n        /* \"#utility.yul\":9502:9504   */\n      0x20\n        /* \"#utility.yul\":9491:9500   */\n      dup3\n        /* \"#utility.yul\":9487:9505   */\n      add\n        /* \"#utility.yul\":9479:9505   */\n      swap1\n      pop\n        /* \"#utility.yul\":9551:9560   */\n      dup2\n        /* \"#utility.yul\":9545:9549   */\n      dup2\n        /* \"#utility.yul\":9541:9561   */\n      sub\n        /* \"#utility.yul\":9537:9538   */\n      0x00\n        /* \"#utility.yul\":9526:9535   */\n      dup4\n        /* \"#utility.yul\":9522:9539   */\n      add\n        /* \"#utility.yul\":9515:9562   */\n      mstore\n        /* \"#utility.yul\":9579:9679   */\n      tag_449\n        /* \"#utility.yul\":9674:9678   */\n      dup2\n        /* \"#utility.yul\":9665:9671   */\n      dup5\n        /* \"#utility.yul\":9579:9679   */\n      tag_298\n      jump\t// in\n    tag_449:\n        /* \"#utility.yul\":9571:9679   */\n      swap1\n      pop\n        /* \"#utility.yul\":9329:9686   */\n      swap3\n      swap2\n      pop\n      pop\n      jump\t// out\n        /* \"#utility.yul\":9692:9818   */\n    tag_299:\n        /* \"#utility.yul\":9729:9736   */\n      0x00\n        /* \"#utility.yul\":9769:9811   */\n      0xffffffffffffffffffffffffffffffffffffffff\n        /* \"#utility.yul\":9762:9767   */\n      dup3\n        /* \"#utility.yul\":9758:9812   */\n      and\n        /* \"#utility.yul\":9747:9812   */\n      swap1\n      pop\n        /* \"#utility.yul\":9692:9818   */\n      swap2\n      swap1\n      pop\n      jump\t// out\n        /* \"#utility.yul\":9824:9884   */\n    tag_300:\n        /* \"#utility.yul\":9852:9855   */\n      0x00\n        /* \"#utility.yul\":9873:9878   */\n      dup2\n        /* \"#utility.yul\":9866:9878   */\n      swap1\n      pop\n        /* \"#utility.yul\":9824:9884   */\n      swap2\n      swap1\n      pop\n      jump\t// out\n        /* \"#utility.yul\":9890:10032   */\n    tag_301:\n        /* \"#utility.yul\":9940:9949   */\n      0x00\n        /* \"#utility.yul\":9973:10026   */\n      tag_453\n        /* \"#utility.yul\":9991:10025   */\n      tag_454\n        /* \"#utility.yul\":10000:10024   */\n      tag_455\n        /* \"#utility.yul\":10018:10023   */\n      dup5\n        /* \"#utility.yul\":10000:10024   */\n      tag_299\n      jump\t// in\n    tag_455:\n        /* \"#utility.yul\":9991:10025   */\n      tag_300\n      jump\t// in\n    tag_454:\n        /* \"#utility.yul\":9973:10026   */\n      tag_299\n      jump\t// in\n    tag_453:\n        /* \"#utility.yul\":9960:10026   */\n      swap1\n      pop\n        /* \"#utility.yul\":9890:10032   */\n      swap2\n      swap1\n      pop\n      jump\t// out\n        /* \"#utility.yul\":10038:10164   */\n    tag_302:\n        /* \"#utility.yul\":10088:10097   */\n      0x00\n        /* \"#utility.yul\":10121:10158   */\n      tag_457\n        /* \"#utility.yul\":10152:10157   */\n      dup3\n        /* \"#utility.yul\":10121:10158   */\n      tag_301\n      jump\t// in\n    tag_457:\n        /* \"#utility.yul\":10108:10158   */\n      swap1\n      pop\n        /* \"#utility.yul\":10038:10164   */\n      swap2\n      swap1\n      pop\n      jump\t// out\n        /* \"#utility.yul\":10170:10310   */\n    tag_303:\n        /* \"#utility.yul\":10234:10243   */\n      0x00\n        /* \"#utility.yul\":10267:10304   */\n      tag_459\n        /* \"#utility.yul\":10298:10303   */\n      dup3\n        /* \"#utility.yul\":10267:10304   */\n      tag_302\n      jump\t// in\n    tag_459:\n        /* \"#utility.yul\":10254:10304   */\n      swap1\n      pop\n        /* \"#utility.yul\":10170:10310   */\n      swap2\n      swap1\n      pop\n      jump\t// out\n        /* \"#utility.yul\":10316:10475   */\n    tag_304:\n        /* \"#utility.yul\":10417:10468   */\n      tag_461\n        /* \"#utility.yul\":10462:10467   */\n      dup2\n        /* \"#utility.yul\":10417:10468   */\n      tag_303\n      jump\t// in\n    tag_461:\n        /* \"#utility.yul\":10412:10415   */\n      dup3\n        /* \"#utility.yul\":10405:10469   */\n      mstore\n        /* \"#utility.yul\":10316:10475   */\n      pop\n      pop\n      jump\t// out\n        /* \"#utility.yul\":10481:10731   */\n    tag_45:\n        /* \"#utility.yul\":10588:10592   */\n      0x00\n        /* \"#utility.yul\":10626:10628   */\n      0x20\n        /* \"#utility.yul\":10615:10624   */\n      dup3\n        /* \"#utility.yul\":10611:10629   */\n      add\n        /* \"#utility.yul\":10603:10629   */\n      swap1\n      pop\n        /* \"#utility.yul\":10639:10724   */\n      tag_463\n        /* \"#utility.yul\":10721:10722   */\n      0x00\n        /* \"#utility.yul\":10710:10719   */\n      dup4\n        /* \"#utility.yul\":10706:10723   */\n      add\n        /* \"#utility.yul\":10697:10703   */\n      dup5\n        /* \"#utility.yul\":10639:10724   */\n      tag_304\n      jump\t// in\n    tag_463:\n        /* \"#utility.yul\":10481:10731   */\n      swap3\n      swap2\n      pop\n      pop\n      jump\t// out\n        /* \"#utility.yul\":10737:11211   */\n    tag_48:\n        /* \"#utility.yul\":10805:10811   */\n      0x00\n        /* \"#utility.yul\":10813:10819   */\n      dup1\n        /* \"#utility.yul\":10862:10864   */\n      0x40\n        /* \"#utility.yul\":10850:10859   */\n      dup4\n        /* \"#utility.yul\":10841:10848   */\n      dup6\n        /* \"#utility.yul\":10837:10860   */\n      sub\n        /* \"#utility.yul\":10833:10865   */\n      slt\n        /* \"#utility.yul\":10830:10949   */\n      iszero\n      tag_465\n      jumpi\n        /* \"#utility.yul\":10868:10947   */\n      tag_466\n      tag_270\n      jump\t// in\n    tag_466:\n        /* \"#utility.yul\":10830:10949   */\n    tag_465:\n        /* \"#utility.yul\":10988:10989   */\n      0x00\n        /* \"#utility.yul\":11013:11066   */\n      tag_467\n        /* \"#utility.yul\":11058:11065   */\n      dup6\n        /* \"#utility.yul\":11049:11055   */\n      dup3\n        /* \"#utility.yul\":11038:11047   */\n      dup7\n        /* \"#utility.yul\":11034:11056   */\n      add\n        /* \"#utility.yul\":11013:11066   */\n      tag_274\n      jump\t// in\n    tag_467:\n        /* \"#utility.yul\":11003:11066   */\n      swap3\n      pop\n        /* \"#utility.yul\":10959:11076   */\n      pop\n        /* \"#utility.yul\":11115:11117   */\n      0x20\n        /* \"#utility.yul\":11141:11194   */\n      tag_468\n        /* \"#utility.yul\":11186:11193   */\n      dup6\n        /* \"#utility.yul\":11177:11183   */\n      dup3\n        /* \"#utility.yul\":11166:11175   */\n      dup7\n        /* \"#utility.yul\":11162:11184   */\n      add\n        /* \"#utility.yul\":11141:11194   */\n      tag_274\n      jump\t// in\n    tag_468:\n        /* \"#utility.yul\":11131:11194   */\n      swap2\n      pop\n        /* \"#utility.yul\":11086:11204   */\n      pop\n        /* \"#utility.yul\":10737:11211   */\n      swap3\n      pop\n      swap3\n      swap1\n      pop\n      jump\t// out\n        /* \"#utility.yul\":11217:11313   */\n    tag_305:\n        /* \"#utility.yul\":11254:11261   */\n      0x00\n        /* \"#utility.yul\":11283:11307   */\n      tag_470\n        /* \"#utility.yul\":11301:11306   */\n      dup3\n        /* \"#utility.yul\":11283:11307   */\n      tag_299\n      jump\t// in\n    tag_470:\n        /* \"#utility.yul\":11272:11307   */\n      swap1\n      pop\n        /* \"#utility.yul\":11217:11313   */\n      swap2\n      swap1\n      pop\n      jump\t// out\n        /* \"#utility.yul\":11319:11441   */\n    tag_306:\n        /* \"#utility.yul\":11392:11416   */\n      tag_472\n        /* \"#utility.yul\":11410:11415   */\n      dup2\n        /* \"#utility.yul\":11392:11416   */\n      tag_305\n      jump\t// in\n    tag_472:\n        /* \"#utility.yul\":11385:11390   */\n      dup2\n        /* \"#utility.yul\":11382:11417   */\n      eq\n        /* \"#utility.yul\":11372:11435   */\n      tag_473\n      jumpi\n        /* \"#utility.yul\":11431:11432   */\n      0x00\n        /* \"#utility.yul\":11428:11429   */\n      dup1\n        /* \"#utility.yul\":11421:11433   */\n      revert\n        /* \"#utility.yul\":11372:11435   */\n    tag_473:\n        /* \"#utility.yul\":11319:11441   */\n      pop\n      jump\t// out\n        /* \"#utility.yul\":11447:11586   */\n    tag_307:\n        /* \"#utility.yul\":11493:11498   */\n      0x00\n        /* \"#utility.yul\":11531:11537   */\n      dup2\n        /* \"#utility.yul\":11518:11538   */\n      calldataload\n        /* \"#utility.yul\":11509:11538   */\n      swap1\n      pop\n        /* \"#utility.yul\":11547:11580   */\n      tag_475\n        /* \"#utility.yul\":11574:11579   */\n      dup2\n        /* \"#utility.yul\":11547:11580   */\n      tag_306\n      jump\t// in\n    tag_475:\n        /* \"#utility.yul\":11447:11586   */\n      swap3\n      swap2\n      pop\n      pop\n      jump\t// out\n        /* \"#utility.yul\":11592:11921   */\n    tag_58:\n        /* \"#utility.yul\":11651:11657   */\n      0x00\n        /* \"#utility.yul\":11700:11702   */\n      0x20\n        /* \"#utility.yul\":11688:11697   */\n      dup3\n        /* \"#utility.yul\":11679:11686   */\n      dup5\n        /* \"#utility.yul\":11675:11698   */\n      sub\n        /* \"#utility.yul\":11671:11703   */\n      slt\n        /* \"#utility.yul\":11668:11787   */\n      iszero\n      tag_477\n      jumpi\n        /* \"#utility.yul\":11706:11785   */\n      tag_478\n      tag_270\n      jump\t// in\n    tag_478:\n        /* \"#utility.yul\":11668:11787   */\n    tag_477:\n        /* \"#utility.yul\":11826:11827   */\n      0x00\n        /* \"#utility.yul\":11851:11904   */\n      tag_479\n        /* \"#utility.yul\":11896:11903   */\n      dup5\n        /* \"#utility.yul\":11887:11893   */\n      dup3\n        /* \"#utility.yul\":11876:11885   */\n      dup6\n        /* \"#utility.yul\":11872:11894   */\n      add\n        /* \"#utility.yul\":11851:11904   */\n      tag_307\n      jump\t// in\n    tag_479:\n        /* \"#utility.yul\":11841:11904   */\n      swap2\n      pop\n        /* \"#utility.yul\":11797:11914   */\n      pop\n        /* \"#utility.yul\":11592:11921   */\n      swap3\n      swap2\n      pop\n      pop\n      jump\t// out\n        /* \"#utility.yul\":11927:12259   */\n    tag_61:\n        /* \"#utility.yul\":12048:12052   */\n      0x00\n        /* \"#utility.yul\":12086:12088   */\n      0x40\n        /* \"#utility.yul\":12075:12084   */\n      dup3\n        /* \"#utility.yul\":12071:12089   */\n      add\n        /* \"#utility.yul\":12063:12089   */\n      swap1\n      pop\n        /* \"#utility.yul\":12099:12170   */\n      tag_481\n        /* \"#utility.yul\":12167:12168   */\n      0x00\n        /* \"#utility.yul\":12156:12165   */\n      dup4\n        /* \"#utility.yul\":12152:12169   */\n      add\n        /* \"#utility.yul\":12143:12149   */\n      dup6\n        /* \"#utility.yul\":12099:12170   */\n      tag_275\n      jump\t// in\n    tag_481:\n        /* \"#utility.yul\":12180:12252   */\n      tag_482\n        /* \"#utility.yul\":12248:12250   */\n      0x20\n        /* \"#utility.yul\":12237:12246   */\n      dup4\n        /* \"#utility.yul\":12233:12251   */\n      add\n        /* \"#utility.yul\":12224:12230   */\n      dup5\n        /* \"#utility.yul\":12180:12252   */\n      tag_275\n      jump\t// in\n    tag_482:\n        /* \"#utility.yul\":11927:12259   */\n      swap4\n      swap3\n      pop\n      pop\n      pop\n      jump\t// out\n        /* \"#utility.yul\":12265:12383   */\n    tag_308:\n        /* \"#utility.yul\":12352:12376   */\n      tag_484\n        /* \"#utility.yul\":12370:12375   */\n      dup2\n        /* \"#utility.yul\":12352:12376   */\n      tag_305\n      jump\t// in\n    tag_484:\n        /* \"#utility.yul\":12347:12350   */\n      dup3\n        /* \"#utility.yul\":12340:12377   */\n      mstore\n        /* \"#utility.yul\":12265:12383   */\n      pop\n      pop\n      jump\t// out\n        /* \"#utility.yul\":12389:12611   */\n    tag_65:\n        /* \"#utility.yul\":12482:12486   */\n      0x00\n        /* \"#utility.yul\":12520:12522   */\n      0x20\n        /* \"#utility.yul\":12509:12518   */\n      dup3\n        /* \"#utility.yul\":12505:12523   */\n      add\n        /* \"#utility.yul\":12497:12523   */\n      swap1\n      pop\n        /* \"#utility.yul\":12533:12604   */\n      tag_486\n        /* \"#utility.yul\":12601:12602   */\n      0x00\n        /* \"#utility.yul\":12590:12599   */\n      dup4\n        /* \"#utility.yul\":12586:12603   */\n      add\n        /* \"#utility.yul\":12577:12583   */\n      dup5\n        /* \"#utility.yul\":12533:12604   */\n      tag_308\n      jump\t// in\n    tag_486:\n        /* \"#utility.yul\":12389:12611   */\n      swap3\n      swap2\n      pop\n      pop\n      jump\t// out\n        /* \"#utility.yul\":12617:12707   */\n    tag_309:\n        /* \"#utility.yul\":12651:12658   */\n      0x00\n        /* \"#utility.yul\":12694:12699   */\n      dup2\n        /* \"#utility.yul\":12687:12700   */\n      iszero\n        /* \"#utility.yul\":12680:12701   */\n      iszero\n        /* \"#utility.yul\":12669:12701   */\n      swap1\n      pop\n        /* \"#utility.yul\":12617:12707   */\n      swap2\n      swap1\n      pop\n      jump\t// out\n        /* \"#utility.yul\":12713:12829   */\n    tag_310:\n        /* \"#utility.yul\":12783:12804   */\n      tag_489\n        /* \"#utility.yul\":12798:12803   */\n      dup2\n        /* \"#utility.yul\":12783:12804   */\n      tag_309\n      jump\t// in\n    tag_489:\n        /* \"#utility.yul\":12776:12781   */\n      dup2\n        /* \"#utility.yul\":12773:12805   */\n      eq\n        /* \"#utility.yul\":12763:12823   */\n      tag_490\n      jumpi\n        /* \"#utility.yul\":12819:12820   */\n      0x00\n        /* \"#utility.yul\":12816:12817   */\n      dup1\n        /* \"#utility.yul\":12809:12821   */\n      revert\n        /* \"#utility.yul\":12763:12823   */\n    tag_490:\n        /* \"#utility.yul\":12713:12829   */\n      pop\n      jump\t// out\n        /* \"#utility.yul\":12835:12968   */\n    tag_311:\n        /* \"#utility.yul\":12878:12883   */\n      0x00\n        /* \"#utility.yul\":12916:12922   */\n      dup2\n        /* \"#utility.yul\":12903:12923   */\n      calldataload\n        /* \"#utility.yul\":12894:12923   */\n      swap1\n      pop\n        /* \"#utility.yul\":12932:12962   */\n      tag_492\n        /* \"#utility.yul\":12956:12961   */\n      dup2\n        /* \"#utility.yul\":12932:12962   */\n      tag_310\n      jump\t// in\n    tag_492:\n        /* \"#utility.yul\":12835:12968   */\n      swap3\n      swap2\n      pop\n      pop\n      jump\t// out\n        /* \"#utility.yul\":12974:13442   */\n    tag_68:\n        /* \"#utility.yul\":13039:13045   */\n      0x00\n        /* \"#utility.yul\":13047:13053   */\n      dup1\n        /* \"#utility.yul\":13096:13098   */\n      0x40\n        /* \"#utility.yul\":13084:13093   */\n      dup4\n        /* \"#utility.yul\":13075:13082   */\n      dup6\n        /* \"#utility.yul\":13071:13094   */\n      sub\n        /* \"#utility.yul\":13067:13099   */\n      slt\n        /* \"#utility.yul\":13064:13183   */\n      iszero\n      tag_494\n      jumpi\n        /* \"#utility.yul\":13102:13181   */\n      tag_495\n      tag_270\n      jump\t// in\n    tag_495:\n        /* \"#utility.yul\":13064:13183   */\n    tag_494:\n        /* \"#utility.yul\":13222:13223   */\n      0x00\n        /* \"#utility.yul\":13247:13300   */\n      tag_496\n        /* \"#utility.yul\":13292:13299   */\n      dup6\n        /* \"#utility.yul\":13283:13289   */\n      dup3\n        /* \"#utility.yul\":13272:13281   */\n      dup7\n        /* \"#utility.yul\":13268:13290   */\n      add\n        /* \"#utility.yul\":13247:13300   */\n      tag_274\n      jump\t// in\n    tag_496:\n        /* \"#utility.yul\":13237:13300   */\n      swap3\n      pop\n        /* \"#utility.yul\":13193:13310   */\n      pop\n        /* \"#utility.yul\":13349:13351   */\n      0x20\n        /* \"#utility.yul\":13375:13425   */\n      tag_497\n        /* \"#utility.yul\":13417:13424   */\n      dup6\n        /* \"#utility.yul\":13408:13414   */\n      dup3\n        /* \"#utility.yul\":13397:13406   */\n      dup7\n        /* \"#utility.yul\":13393:13415   */\n      add\n        /* \"#utility.yul\":13375:13425   */\n      tag_311\n      jump\t// in\n    tag_497:\n        /* \"#utility.yul\":13365:13425   */\n      swap2\n      pop\n        /* \"#utility.yul\":13320:13435   */\n      pop\n        /* \"#utility.yul\":12974:13442   */\n      swap3\n      pop\n      swap3\n      swap1\n      pop\n      jump\t// out\n        /* \"#utility.yul\":13516:14033   */\n    tag_312:\n        /* \"#utility.yul\":13657:13661   */\n      0x40\n        /* \"#utility.yul\":13652:13655   */\n      dup3\n        /* \"#utility.yul\":13648:13662   */\n      add\n        /* \"#utility.yul\":13752:13756   */\n      0x00\n        /* \"#utility.yul\":13745:13750   */\n      dup3\n        /* \"#utility.yul\":13741:13757   */\n      add\n        /* \"#utility.yul\":13735:13758   */\n      mload\n        /* \"#utility.yul\":13771:13834   */\n      tag_499\n        /* \"#utility.yul\":13828:13832   */\n      0x00\n        /* \"#utility.yul\":13823:13826   */\n      dup6\n        /* \"#utility.yul\":13819:13833   */\n      add\n        /* \"#utility.yul\":13805:13817   */\n      dup3\n        /* \"#utility.yul\":13771:13834   */\n      tag_294\n      jump\t// in\n    tag_499:\n        /* \"#utility.yul\":13672:13844   */\n      pop\n        /* \"#utility.yul\":13934:13938   */\n      0x20\n        /* \"#utility.yul\":13927:13932   */\n      dup3\n        /* \"#utility.yul\":13923:13939   */\n      add\n        /* \"#utility.yul\":13917:13940   */\n      mload\n        /* \"#utility.yul\":13953:14016   */\n      tag_500\n        /* \"#utility.yul\":14010:14014   */\n      0x20\n        /* \"#utility.yul\":14005:14008   */\n      dup6\n        /* \"#utility.yul\":14001:14015   */\n      add\n        /* \"#utility.yul\":13987:13999   */\n      dup3\n        /* \"#utility.yul\":13953:14016   */\n      tag_294\n      jump\t// in\n    tag_500:\n        /* \"#utility.yul\":13854:14026   */\n      pop\n        /* \"#utility.yul\":13626:14033   */\n      pop\n        /* \"#utility.yul\":13516:14033   */\n      pop\n      pop\n      jump\t// out\n        /* \"#utility.yul\":14039:14349   */\n    tag_79:\n        /* \"#utility.yul\":14176:14180   */\n      0x00\n        /* \"#utility.yul\":14214:14216   */\n      0x40\n        /* \"#utility.yul\":14203:14212   */\n      dup3\n        /* \"#utility.yul\":14199:14217   */\n      add\n        /* \"#utility.yul\":14191:14217   */\n      swap1\n      pop\n        /* \"#utility.yul\":14227:14342   */\n      tag_502\n        /* \"#utility.yul\":14339:14340   */\n      0x00\n        /* \"#utility.yul\":14328:14337   */\n      dup4\n        /* \"#utility.yul\":14324:14341   */\n      add\n        /* \"#utility.yul\":14315:14321   */\n      dup5\n        /* \"#utility.yul\":14227:14342   */\n      tag_312\n      jump\t// in\n    tag_502:\n        /* \"#utility.yul\":14039:14349   */\n      swap3\n      swap2\n      pop\n      pop\n      jump\t// out\n        /* \"#utility.yul\":14355:14535   */\n    tag_313:\n        /* \"#utility.yul\":14403:14480   */\n      0x4e487b7100000000000000000000000000000000000000000000000000000000\n        /* \"#utility.yul\":14400:14401   */\n      0x00\n        /* \"#utility.yul\":14393:14481   */\n      mstore\n        /* \"#utility.yul\":14500:14504   */\n      0x22\n        /* \"#utility.yul\":14497:14498   */\n      0x04\n        /* \"#utility.yul\":14490:14505   */\n      mstore\n        /* \"#utility.yul\":14524:14528   */\n      0x24\n        /* \"#utility.yul\":14521:14522   */\n      0x00\n        /* \"#utility.yul\":14514:14529   */\n      revert\n        /* \"#utility.yul\":14541:14861   */\n    tag_83:\n        /* \"#utility.yul\":14585:14591   */\n      0x00\n        /* \"#utility.yul\":14622:14623   */\n      0x02\n        /* \"#utility.yul\":14616:14620   */\n      dup3\n        /* \"#utility.yul\":14612:14624   */\n      div\n        /* \"#utility.yul\":14602:14624   */\n      swap1\n      pop\n        /* \"#utility.yul\":14669:14670   */\n      0x01\n        /* \"#utility.yul\":14663:14667   */\n      dup3\n        /* \"#utility.yul\":14659:14671   */\n      and\n        /* \"#utility.yul\":14690:14708   */\n      dup1\n        /* \"#utility.yul\":14680:14761   */\n      tag_505\n      jumpi\n        /* \"#utility.yul\":14746:14750   */\n      0x7f\n        /* \"#utility.yul\":14738:14744   */\n      dup3\n        /* \"#utility.yul\":14734:14751   */\n      and\n        /* \"#utility.yul\":14724:14751   */\n      swap2\n      pop\n        /* \"#utility.yul\":14680:14761   */\n    tag_505:\n        /* \"#utility.yul\":14808:14810   */\n      0x20\n        /* \"#utility.yul\":14800:14806   */\n      dup3\n        /* \"#utility.yul\":14797:14811   */\n      lt\n        /* \"#utility.yul\":14777:14795   */\n      dup2\n        /* \"#utility.yul\":14774:14812   */\n      sub\n        /* \"#utility.yul\":14771:14855   */\n      tag_506\n      jumpi\n        /* \"#utility.yul\":14827:14845   */\n      tag_507\n      tag_313\n      jump\t// in\n    tag_507:\n        /* \"#utility.yul\":14771:14855   */\n    tag_506:\n        /* \"#utility.yul\":14592:14861   */\n      pop\n        /* \"#utility.yul\":14541:14861   */\n      swap2\n      swap1\n      pop\n      jump\t// out\n        /* \"#utility.yul\":14867:15034   */\n    tag_314:\n        /* \"#utility.yul\":15007:15026   */\n      0x43616e6e6f742077697468647261772030000000000000000000000000000000\n        /* \"#utility.yul\":15003:15004   */\n      0x00\n        /* \"#utility.yul\":14995:15001   */\n      dup3\n        /* \"#utility.yul\":14991:15005   */\n      add\n        /* \"#utility.yul\":14984:15027   */\n      mstore\n        /* \"#utility.yul\":14867:15034   */\n      pop\n      jump\t// out\n        /* \"#utility.yul\":15040:15406   */\n    tag_315:\n        /* \"#utility.yul\":15182:15185   */\n      0x00\n        /* \"#utility.yul\":15203:15270   */\n      tag_510\n        /* \"#utility.yul\":15267:15269   */\n      0x11\n        /* \"#utility.yul\":15262:15265   */\n      dup4\n        /* \"#utility.yul\":15203:15270   */\n      tag_277\n      jump\t// in\n    tag_510:\n        /* \"#utility.yul\":15196:15270   */\n      swap2\n      pop\n        /* \"#utility.yul\":15279:15372   */\n      tag_511\n        /* \"#utility.yul\":15368:15371   */\n      dup3\n        /* \"#utility.yul\":15279:15372   */\n      tag_314\n      jump\t// in\n    tag_511:\n        /* \"#utility.yul\":15397:15399   */\n      0x20\n        /* \"#utility.yul\":15392:15395   */\n      dup3\n        /* \"#utility.yul\":15388:15400   */\n      add\n        /* \"#utility.yul\":15381:15400   */\n      swap1\n      pop\n        /* \"#utility.yul\":15040:15406   */\n      swap2\n      swap1\n      pop\n      jump\t// out\n        /* \"#utility.yul\":15412:15831   */\n    tag_94:\n        /* \"#utility.yul\":15578:15582   */\n      0x00\n        /* \"#utility.yul\":15616:15618   */\n      0x20\n        /* \"#utility.yul\":15605:15614   */\n      dup3\n        /* \"#utility.yul\":15601:15619   */\n      add\n        /* \"#utility.yul\":15593:15619   */\n      swap1\n      pop\n        /* \"#utility.yul\":15665:15674   */\n      dup2\n        /* \"#utility.yul\":15659:15663   */\n      dup2\n        /* \"#utility.yul\":15655:15675   */\n      sub\n        /* \"#utility.yul\":15651:15652   */\n      0x00\n        /* \"#utility.yul\":15640:15649   */\n      dup4\n        /* \"#utility.yul\":15636:15653   */\n      add\n        /* \"#utility.yul\":15629:15676   */\n      mstore\n        /* \"#utility.yul\":15693:15824   */\n      tag_513\n        /* \"#utility.yul\":15819:15823   */\n      dup2\n        /* \"#utility.yul\":15693:15824   */\n      tag_315\n      jump\t// in\n    tag_513:\n        /* \"#utility.yul\":15685:15824   */\n      swap1\n      pop\n        /* \"#utility.yul\":15412:15831   */\n      swap2\n      swap1\n      pop\n      jump\t// out\n        /* \"#utility.yul\":15837:16006   */\n    tag_316:\n        /* \"#utility.yul\":15977:15998   */\n      0x546f6f206561726c792077697468647261772100000000000000000000000000\n        /* \"#utility.yul\":15973:15974   */\n      0x00\n        /* \"#utility.yul\":15965:15971   */\n      dup3\n        /* \"#utility.yul\":15961:15975   */\n      add\n        /* \"#utility.yul\":15954:15999   */\n      mstore\n        /* \"#utility.yul\":15837:16006   */\n      pop\n      jump\t// out\n        /* \"#utility.yul\":16012:16378   */\n    tag_317:\n        /* \"#utility.yul\":16154:16157   */\n      0x00\n        /* \"#utility.yul\":16175:16242   */\n      tag_516\n        /* \"#utility.yul\":16239:16241   */\n      0x13\n        /* \"#utility.yul\":16234:16237   */\n      dup4\n        /* \"#utility.yul\":16175:16242   */\n      tag_277\n      jump\t// in\n    tag_516:\n        /* \"#utility.yul\":16168:16242   */\n      swap2\n      pop\n        /* \"#utility.yul\":16251:16344   */\n      tag_517\n        /* \"#utility.yul\":16340:16343   */\n      dup3\n        /* \"#utility.yul\":16251:16344   */\n      tag_316\n      jump\t// in\n    tag_517:\n        /* \"#utility.yul\":16369:16371   */\n      0x20\n        /* \"#utility.yul\":16364:16367   */\n      dup3\n        /* \"#utility.yul\":16360:16372   */\n      add\n        /* \"#utility.yul\":16353:16372   */\n      swap1\n      pop\n        /* \"#utility.yul\":16012:16378   */\n      swap2\n      swap1\n      pop\n      jump\t// out\n        /* \"#utility.yul\":16384:16803   */\n    tag_97:\n        /* \"#utility.yul\":16550:16554   */\n      0x00\n        /* \"#utility.yul\":16588:16590   */\n      0x20\n        /* \"#utility.yul\":16577:16586   */\n      dup3\n        /* \"#utility.yul\":16573:16591   */\n      add\n        /* \"#utility.yul\":16565:16591   */\n      swap1\n      pop\n        /* \"#utility.yul\":16637:16646   */\n      dup2\n        /* \"#utility.yul\":16631:16635   */\n      dup2\n        /* \"#utility.yul\":16627:16647   */\n      sub\n        /* \"#utility.yul\":16623:16624   */\n      0x00\n        /* \"#utility.yul\":16612:16621   */\n      dup4\n        /* \"#utility.yul\":16608:16625   */\n      add\n        /* \"#utility.yul\":16601:16648   */\n      mstore\n        /* \"#utility.yul\":16665:16796   */\n      tag_519\n        /* \"#utility.yul\":16791:16795   */\n      dup2\n        /* \"#utility.yul\":16665:16796   */\n      tag_317\n      jump\t// in\n    tag_519:\n        /* \"#utility.yul\":16657:16796   */\n      swap1\n      pop\n        /* \"#utility.yul\":16384:16803   */\n      swap2\n      swap1\n      pop\n      jump\t// out\n        /* \"#utility.yul\":16809:17141   */\n    tag_99:\n        /* \"#utility.yul\":16930:16934   */\n      0x00\n        /* \"#utility.yul\":16968:16970   */\n      0x40\n        /* \"#utility.yul\":16957:16966   */\n      dup3\n        /* \"#utility.yul\":16953:16971   */\n      add\n        /* \"#utility.yul\":16945:16971   */\n      swap1\n      pop\n        /* \"#utility.yul\":16981:17052   */\n      tag_521\n        /* \"#utility.yul\":17049:17050   */\n      0x00\n        /* \"#utility.yul\":17038:17047   */\n      dup4\n        /* \"#utility.yul\":17034:17051   */\n      add\n        /* \"#utility.yul\":17025:17031   */\n      dup6\n        /* \"#utility.yul\":16981:17052   */\n      tag_308\n      jump\t// in\n    tag_521:\n        /* \"#utility.yul\":17062:17134   */\n      tag_522\n        /* \"#utility.yul\":17130:17132   */\n      0x20\n        /* \"#utility.yul\":17119:17128   */\n      dup4\n        /* \"#utility.yul\":17115:17133   */\n      add\n        /* \"#utility.yul\":17106:17112   */\n      dup5\n        /* \"#utility.yul\":17062:17134   */\n      tag_275\n      jump\t// in\n    tag_522:\n        /* \"#utility.yul\":16809:17141   */\n      swap4\n      swap3\n      pop\n      pop\n      pop\n      jump\t// out\n        /* \"#utility.yul\":17147:17284   */\n    tag_318:\n        /* \"#utility.yul\":17201:17206   */\n      0x00\n        /* \"#utility.yul\":17232:17238   */\n      dup2\n        /* \"#utility.yul\":17226:17239   */\n      mload\n        /* \"#utility.yul\":17217:17239   */\n      swap1\n      pop\n        /* \"#utility.yul\":17248:17278   */\n      tag_524\n        /* \"#utility.yul\":17272:17277   */\n      dup2\n        /* \"#utility.yul\":17248:17278   */\n      tag_310\n      jump\t// in\n    tag_524:\n        /* \"#utility.yul\":17147:17284   */\n      swap3\n      swap2\n      pop\n      pop\n      jump\t// out\n        /* \"#utility.yul\":17290:17635   */\n    tag_103:\n        /* \"#utility.yul\":17357:17363   */\n      0x00\n        /* \"#utility.yul\":17406:17408   */\n      0x20\n        /* \"#utility.yul\":17394:17403   */\n      dup3\n        /* \"#utility.yul\":17385:17392   */\n      dup5\n        /* \"#utility.yul\":17381:17404   */\n      sub\n        /* \"#utility.yul\":17377:17409   */\n      slt\n        /* \"#utility.yul\":17374:17493   */\n      iszero\n      tag_526\n      jumpi\n        /* \"#utility.yul\":17412:17491   */\n      tag_527\n      tag_270\n      jump\t// in\n    tag_527:\n        /* \"#utility.yul\":17374:17493   */\n    tag_526:\n        /* \"#utility.yul\":17532:17533   */\n      0x00\n        /* \"#utility.yul\":17557:17618   */\n      tag_528\n        /* \"#utility.yul\":17610:17617   */\n      dup5\n        /* \"#utility.yul\":17601:17607   */\n      dup3\n        /* \"#utility.yul\":17590:17599   */\n      dup6\n        /* \"#utility.yul\":17586:17608   */\n      add\n        /* \"#utility.yul\":17557:17618   */\n      tag_318\n      jump\t// in\n    tag_528:\n        /* \"#utility.yul\":17547:17618   */\n      swap2\n      pop\n        /* \"#utility.yul\":17503:17628   */\n      pop\n        /* \"#utility.yul\":17290:17635   */\n      swap3\n      swap2\n      pop\n      pop\n      jump\t// out\n        /* \"#utility.yul\":17641:17806   */\n    tag_319:\n        /* \"#utility.yul\":17781:17798   */\n      0x5472616e73666572206661696c65640000000000000000000000000000000000\n        /* \"#utility.yul\":17777:17778   */\n      0x00\n        /* \"#utility.yul\":17769:17775   */\n      dup3\n        /* \"#utility.yul\":17765:17779   */\n      add\n        /* \"#utility.yul\":17758:17799   */\n      mstore\n        /* \"#utility.yul\":17641:17806   */\n      pop\n      jump\t// out\n        /* \"#utility.yul\":17812:18178   */\n    tag_320:\n        /* \"#utility.yul\":17954:17957   */\n      0x00\n        /* \"#utility.yul\":17975:18042   */\n      tag_531\n        /* \"#utility.yul\":18039:18041   */\n      0x0f\n        /* \"#utility.yul\":18034:18037   */\n      dup4\n        /* \"#utility.yul\":17975:18042   */\n      tag_277\n      jump\t// in\n    tag_531:\n        /* \"#utility.yul\":17968:18042   */\n      swap2\n      pop\n        /* \"#utility.yul\":18051:18144   */\n      tag_532\n        /* \"#utility.yul\":18140:18143   */\n      dup3\n        /* \"#utility.yul\":18051:18144   */\n      tag_319\n      jump\t// in\n    tag_532:\n        /* \"#utility.yul\":18169:18171   */\n      0x20\n        /* \"#utility.yul\":18164:18167   */\n      dup3\n        /* \"#utility.yul\":18160:18172   */\n      add\n        /* \"#utility.yul\":18153:18172   */\n      swap1\n      pop\n        /* \"#utility.yul\":17812:18178   */\n      swap2\n      swap1\n      pop\n      jump\t// out\n        /* \"#utility.yul\":18184:18603   */\n    tag_106:\n        /* \"#utility.yul\":18350:18354   */\n      0x00\n        /* \"#utility.yul\":18388:18390   */\n      0x20\n        /* \"#utility.yul\":18377:18386   */\n      dup3\n        /* \"#utility.yul\":18373:18391   */\n      add\n        /* \"#utility.yul\":18365:18391   */\n      swap1\n      pop\n        /* \"#utility.yul\":18437:18446   */\n      dup2\n        /* \"#utility.yul\":18431:18435   */\n      dup2\n        /* \"#utility.yul\":18427:18447   */\n      sub\n        /* \"#utility.yul\":18423:18424   */\n      0x00\n        /* \"#utility.yul\":18412:18421   */\n      dup4\n        /* \"#utility.yul\":18408:18425   */\n      add\n        /* \"#utility.yul\":18401:18448   */\n      mstore\n        /* \"#utility.yul\":18465:18596   */\n      tag_534\n        /* \"#utility.yul\":18591:18595   */\n      dup2\n        /* \"#utility.yul\":18465:18596   */\n      tag_320\n      jump\t// in\n    tag_534:\n        /* \"#utility.yul\":18457:18596   */\n      swap1\n      pop\n        /* \"#utility.yul\":18184:18603   */\n      swap2\n      swap1\n      pop\n      jump\t// out\n        /* \"#utility.yul\":18609:18789   */\n    tag_321:\n        /* \"#utility.yul\":18657:18734   */\n      0x4e487b7100000000000000000000000000000000000000000000000000000000\n        /* \"#utility.yul\":18654:18655   */\n      0x00\n        /* \"#utility.yul\":18647:18735   */\n      mstore\n        /* \"#utility.yul\":18754:18758   */\n      0x11\n        /* \"#utility.yul\":18751:18752   */\n      0x04\n        /* \"#utility.yul\":18744:18759   */\n      mstore\n        /* \"#utility.yul\":18778:18782   */\n      0x24\n        /* \"#utility.yul\":18775:18776   */\n      0x00\n        /* \"#utility.yul\":18768:18783   */\n      revert\n        /* \"#utility.yul\":18795:18989   */\n    tag_108:\n        /* \"#utility.yul\":18835:18839   */\n      0x00\n        /* \"#utility.yul\":18855:18875   */\n      tag_537\n        /* \"#utility.yul\":18873:18874   */\n      dup3\n        /* \"#utility.yul\":18855:18875   */\n      tag_272\n      jump\t// in\n    tag_537:\n        /* \"#utility.yul\":18850:18875   */\n      swap2\n      pop\n        /* \"#utility.yul\":18889:18909   */\n      tag_538\n        /* \"#utility.yul\":18907:18908   */\n      dup4\n        /* \"#utility.yul\":18889:18909   */\n      tag_272\n      jump\t// in\n    tag_538:\n        /* \"#utility.yul\":18884:18909   */\n      swap3\n      pop\n        /* \"#utility.yul\":18933:18934   */\n      dup3\n        /* \"#utility.yul\":18930:18931   */\n      dup3\n        /* \"#utility.yul\":18926:18935   */\n      sub\n        /* \"#utility.yul\":18918:18935   */\n      swap1\n      pop\n        /* \"#utility.yul\":18957:18958   */\n      dup2\n        /* \"#utility.yul\":18951:18955   */\n      dup2\n        /* \"#utility.yul\":18948:18959   */\n      gt\n        /* \"#utility.yul\":18945:18982   */\n      iszero\n      tag_539\n      jumpi\n        /* \"#utility.yul\":18962:18980   */\n      tag_540\n      tag_321\n      jump\t// in\n    tag_540:\n        /* \"#utility.yul\":18945:18982   */\n    tag_539:\n        /* \"#utility.yul\":18795:18989   */\n      swap3\n      swap2\n      pop\n      pop\n      jump\t// out\n        /* \"#utility.yul\":18995:19136   */\n    tag_322:\n        /* \"#utility.yul\":19044:19048   */\n      0x00\n        /* \"#utility.yul\":19067:19070   */\n      dup2\n        /* \"#utility.yul\":19059:19070   */\n      swap1\n      pop\n        /* \"#utility.yul\":19090:19093   */\n      dup2\n        /* \"#utility.yul\":19087:19088   */\n      0x00\n        /* \"#utility.yul\":19080:19094   */\n      mstore\n        /* \"#utility.yul\":19124:19128   */\n      0x20\n        /* \"#utility.yul\":19121:19122   */\n      0x00\n        /* \"#utility.yul\":19111:19129   */\n      keccak256\n        /* \"#utility.yul\":19103:19129   */\n      swap1\n      pop\n        /* \"#utility.yul\":18995:19136   */\n      swap2\n      swap1\n      pop\n      jump\t// out\n        /* \"#utility.yul\":19142:19235   */\n    tag_323:\n        /* \"#utility.yul\":19179:19185   */\n      0x00\n        /* \"#utility.yul\":19226:19228   */\n      0x20\n        /* \"#utility.yul\":19221:19223   */\n      0x1f\n        /* \"#utility.yul\":19214:19219   */\n      dup4\n        /* \"#utility.yul\":19210:19224   */\n      add\n        /* \"#utility.yul\":19206:19229   */\n      div\n        /* \"#utility.yul\":19196:19229   */\n      swap1\n      pop\n        /* \"#utility.yul\":19142:19235   */\n      swap2\n      swap1\n      pop\n      jump\t// out\n        /* \"#utility.yul\":19241:19348   */\n    tag_324:\n        /* \"#utility.yul\":19285:19293   */\n      0x00\n        /* \"#utility.yul\":19335:19340   */\n      dup3\n        /* \"#utility.yul\":19329:19333   */\n      dup3\n        /* \"#utility.yul\":19325:19341   */\n      shl\n        /* \"#utility.yul\":19304:19341   */\n      swap1\n      pop\n        /* \"#utility.yul\":19241:19348   */\n      swap3\n      swap2\n      pop\n      pop\n      jump\t// out\n        /* \"#utility.yul\":19354:19747   */\n    tag_325:\n        /* \"#utility.yul\":19423:19429   */\n      0x00\n        /* \"#utility.yul\":19473:19474   */\n      0x08\n        /* \"#utility.yul\":19461:19471   */\n      dup4\n        /* \"#utility.yul\":19457:19475   */\n      mul\n        /* \"#utility.yul\":19496:19593   */\n      tag_545\n        /* \"#utility.yul\":19526:19592   */\n      0xffffffffffffffffffffffffffffffffffffffffffffffffffffffffffffffff\n        /* \"#utility.yul\":19515:19524   */\n      dup3\n        /* \"#utility.yul\":19496:19593   */\n      tag_324\n      jump\t// in\n    tag_545:\n        /* \"#utility.yul\":19614:19653   */\n      tag_546\n        /* \"#utility.yul\":19644:19652   */\n      dup7\n        /* \"#utility.yul\":19633:19642   */\n      dup4\n        /* \"#utility.yul\":19614:19653   */\n      tag_324\n      jump\t// in\n    tag_546:\n        /* \"#utility.yul\":19602:19653   */\n      swap6\n      pop\n        /* \"#utility.yul\":19686:19690   */\n      dup1\n        /* \"#utility.yul\":19682:19691   */\n      not\n        /* \"#utility.yul\":19675:19680   */\n      dup5\n        /* \"#utility.yul\":19671:19692   */\n      and\n        /* \"#utility.yul\":19662:19692   */\n      swap4\n      pop\n        /* \"#utility.yul\":19735:19739   */\n      dup1\n        /* \"#utility.yul\":19725:19733   */\n      dup7\n        /* \"#utility.yul\":19721:19740   */\n      and\n        /* \"#utility.yul\":19714:19719   */\n      dup5\n        /* \"#utility.yul\":19711:19741   */\n      or\n        /* \"#utility.yul\":19701:19741   */\n      swap3\n      pop\n        /* \"#utility.yul\":19430:19747   */\n      pop\n      pop\n        /* \"#utility.yul\":19354:19747   */\n      swap4\n      swap3\n      pop\n      pop\n      pop\n      jump\t// out\n        /* \"#utility.yul\":19753:19895   */\n    tag_326:\n        /* \"#utility.yul\":19803:19812   */\n      0x00\n        /* \"#utility.yul\":19836:19889   */\n      tag_548\n        /* \"#utility.yul\":19854:19888   */\n      tag_549\n        /* \"#utility.yul\":19863:19887   */\n      tag_550\n        /* \"#utility.yul\":19881:19886   */\n      dup5\n        /* \"#utility.yul\":19863:19887   */\n      tag_272\n      jump\t// in\n    tag_550:\n        /* \"#utility.yul\":19854:19888   */\n      tag_300\n      jump\t// in\n    tag_549:\n        /* \"#utility.yul\":19836:19889   */\n      tag_272\n      jump\t// in\n    tag_548:\n        /* \"#utility.yul\":19823:19889   */\n      swap1\n      pop\n        /* \"#utility.yul\":19753:19895   */\n      swap2\n      swap1\n      pop\n      jump\t// out\n        /* \"#utility.yul\":19901:19976   */\n    tag_327:\n        /* \"#utility.yul\":19944:19947   */\n      0x00\n        /* \"#utility.yul\":19965:19970   */\n      dup2\n        /* \"#utility.yul\":19958:19970   */\n      swap1\n      pop\n        /* \"#utility.yul\":19901:19976   */\n      swap2\n      swap1\n      pop\n      jump\t// out\n        /* \"#utility.yul\":19982:20251   */\n    tag_328:\n        /* \"#utility.yul\":20092:20131   */\n      tag_553\n        /* \"#utility.yul\":20123:20130   */\n      dup4\n        /* \"#utility.yul\":20092:20131   */\n      tag_326\n      jump\t// in\n    tag_553:\n        /* \"#utility.yul\":20153:20244   */\n      tag_554\n        /* \"#utility.yul\":20202:20243   */\n      tag_555\n        /* \"#utility.yul\":20226:20242   */\n      dup3\n        /* \"#utility.yul\":20202:20243   */\n      tag_327\n      jump\t// in\n    tag_555:\n        /* \"#utility.yul\":20194:20200   */\n      dup5\n        /* \"#utility.yul\":20187:20191   */\n      dup5\n        /* \"#utility.yul\":20181:20192   */\n      sload\n        /* \"#utility.yul\":20153:20244   */\n      tag_325\n      jump\t// in\n    tag_554:\n        /* \"#utility.yul\":20147:20151   */\n      dup3\n        /* \"#utility.yul\":20140:20245   */\n      sstore\n        /* \"#utility.yul\":20058:20251   */\n      pop\n        /* \"#utility.yul\":19982:20251   */\n      pop\n      pop\n      pop\n      jump\t// out\n        /* \"#utility.yul\":20257:20330   */\n    tag_329:\n        /* \"#utility.yul\":20302:20305   */\n      0x00\n        /* \"#utility.yul\":20257:20330   */\n      swap1\n      jump\t// out\n        /* \"#utility.yul\":20336:20525   */\n    tag_330:\n        /* \"#utility.yul\":20413:20445   */\n      tag_558\n      tag_329\n      jump\t// in\n    tag_558:\n        /* \"#utility.yul\":20454:20519   */\n      tag_559\n        /* \"#utility.yul\":20512:20518   */\n      dup2\n        /* \"#utility.yul\":20504:20510   */\n      dup5\n        /* \"#utility.yul\":20498:20502   */\n      dup5\n        /* \"#utility.yul\":20454:20519   */\n      tag_328\n      jump\t// in\n    tag_559:\n        /* \"#utility.yul\":20389:20525   */\n      pop\n        /* \"#utility.yul\":20336:20525   */\n      pop\n      pop\n      jump\t// out\n        /* \"#utility.yul\":20531:20717   */\n    tag_331:\n        /* \"#utility.yul\":20591:20711   */\n    tag_561:\n        /* \"#utility.yul\":20608:20611   */\n      dup2\n        /* \"#utility.yul\":20601:20606   */\n      dup2\n        /* \"#utility.yul\":20598:20612   */\n      lt\n        /* \"#utility.yul\":20591:20711   */\n      iszero\n      tag_563\n      jumpi\n        /* \"#utility.yul\":20662:20701   */\n      tag_564\n        /* \"#utility.yul\":20699:20700   */\n      0x00\n        /* \"#utility.yul\":20692:20697   */\n      dup3\n        /* \"#utility.yul\":20662:20701   */\n      tag_330\n      jump\t// in\n    tag_564:\n        /* \"#utility.yul\":20635:20636   */\n      0x01\n        /* \"#utility.yul\":20628:20633   */\n      dup2\n        /* \"#utility.yul\":20624:20637   */\n      add\n        /* \"#utility.yul\":20615:20637   */\n      swap1\n      pop\n        /* \"#utility.yul\":20591:20711   */\n      jump(tag_561)\n    tag_563:\n        /* \"#utility.yul\":20531:20717   */\n      pop\n      pop\n      jump\t// out\n        /* \"#utility.yul\":20723:21266   */\n    tag_332:\n        /* \"#utility.yul\":20824:20826   */\n      0x1f\n        /* \"#utility.yul\":20819:20822   */\n      dup3\n        /* \"#utility.yul\":20816:20827   */\n      gt\n        /* \"#utility.yul\":20813:21259   */\n      iszero\n      tag_566\n      jumpi\n        /* \"#utility.yul\":20858:20896   */\n      tag_567\n        /* \"#utility.yul\":20890:20895   */\n      dup2\n        /* \"#utility.yul\":20858:20896   */\n      tag_322\n      jump\t// in\n    tag_567:\n        /* \"#utility.yul\":20942:20971   */\n      tag_568\n        /* \"#utility.yul\":20960:20970   */\n      dup5\n        /* \"#utility.yul\":20942:20971   */\n      tag_323\n      jump\t// in\n    tag_568:\n        /* \"#utility.yul\":20932:20940   */\n      dup2\n        /* \"#utility.yul\":20928:20972   */\n      add\n        /* \"#utility.yul\":21125:21127   */\n      0x20\n        /* \"#utility.yul\":21113:21123   */\n      dup6\n        /* \"#utility.yul\":21110:21128   */\n      lt\n        /* \"#utility.yul\":21107:21156   */\n      iszero\n      tag_569\n      jumpi\n        /* \"#utility.yul\":21146:21154   */\n      dup2\n        /* \"#utility.yul\":21131:21154   */\n      swap1\n      pop\n        /* \"#utility.yul\":21107:21156   */\n    tag_569:\n        /* \"#utility.yul\":21169:21249   */\n      tag_570\n        /* \"#utility.yul\":21225:21247   */\n      tag_571\n        /* \"#utility.yul\":21243:21246   */\n      dup6\n        /* \"#utility.yul\":21225:21247   */\n      tag_323\n      jump\t// in\n    tag_571:\n        /* \"#utility.yul\":21215:21223   */\n      dup4\n        /* \"#utility.yul\":21211:21248   */\n      add\n        /* \"#utility.yul\":21198:21209   */\n      dup3\n        /* \"#utility.yul\":21169:21249   */\n      tag_331\n      jump\t// in\n    tag_570:\n        /* \"#utility.yul\":20828:21259   */\n      pop\n      pop\n        /* \"#utility.yul\":20813:21259   */\n    tag_566:\n        /* \"#utility.yul\":20723:21266   */\n      pop\n      pop\n      pop\n      jump\t// out\n        /* \"#utility.yul\":21272:21389   */\n    tag_333:\n        /* \"#utility.yul\":21326:21334   */\n      0x00\n        /* \"#utility.yul\":21376:21381   */\n      dup3\n        /* \"#utility.yul\":21370:21374   */\n      dup3\n        /* \"#utility.yul\":21366:21382   */\n      shr\n        /* \"#utility.yul\":21345:21382   */\n      swap1\n      pop\n        /* \"#utility.yul\":21272:21389   */\n      swap3\n      swap2\n      pop\n      pop\n      jump\t// out\n        /* \"#utility.yul\":21395:21564   */\n    tag_334:\n        /* \"#utility.yul\":21439:21445   */\n      0x00\n        /* \"#utility.yul\":21472:21523   */\n      tag_574\n        /* \"#utility.yul\":21520:21521   */\n      0x00\n        /* \"#utility.yul\":21516:21522   */\n      not\n        /* \"#utility.yul\":21508:21513   */\n      dup5\n        /* \"#utility.yul\":21505:21506   */\n      0x08\n        /* \"#utility.yul\":21501:21514   */\n      mul\n        /* \"#utility.yul\":21472:21523   */\n      tag_333\n      jump\t// in\n    tag_574:\n        /* \"#utility.yul\":21468:21524   */\n      not\n        /* \"#utility.yul\":21553:21557   */\n      dup1\n        /* \"#utility.yul\":21547:21551   */\n      dup4\n        /* \"#utility.yul\":21543:21558   */\n      and\n        /* \"#utility.yul\":21533:21558   */\n      swap2\n      pop\n        /* \"#utility.yul\":21446:21564   */\n      pop\n        /* \"#utility.yul\":21395:21564   */\n      swap3\n      swap2\n      pop\n      pop\n      jump\t// out\n        /* \"#utility.yul\":21569:21864   */\n    tag_335:\n        /* \"#utility.yul\":21645:21649   */\n      0x00\n        /* \"#utility.yul\":21791:21820   */\n      tag_576\n        /* \"#utility.yul\":21816:21819   */\n      dup4\n        /* \"#utility.yul\":21810:21814   */\n      dup4\n        /* \"#utility.yul\":21791:21820   */\n      tag_334\n      jump\t// in\n    tag_576:\n        /* \"#utility.yul\":21783:21820   */\n      swap2\n      pop\n        /* \"#utility.yul\":21853:21856   */\n      dup3\n        /* \"#utility.yul\":21850:21851   */\n      0x02\n        /* \"#utility.yul\":21846:21857   */\n      mul\n        /* \"#utility.yul\":21840:21844   */\n      dup3\n        /* \"#utility.yul\":21837:21858   */\n      or\n        /* \"#utility.yul\":21829:21858   */\n      swap1\n      pop\n        /* \"#utility.yul\":21569:21864   */\n      swap3\n      swap2\n      pop\n      pop\n      jump\t// out\n        /* \"#utility.yul\":21869:23264   */\n    tag_121:\n        /* \"#utility.yul\":21986:22023   */\n      tag_578\n        /* \"#utility.yul\":22019:22022   */\n      dup3\n        /* \"#utility.yul\":21986:22023   */\n      tag_276\n      jump\t// in\n    tag_578:\n        /* \"#utility.yul\":22088:22106   */\n      0xffffffffffffffff\n        /* \"#utility.yul\":22080:22086   */\n      dup2\n        /* \"#utility.yul\":22077:22107   */\n      gt\n        /* \"#utility.yul\":22074:22130   */\n      iszero\n      tag_579\n      jumpi\n        /* \"#utility.yul\":22110:22128   */\n      tag_580\n      tag_287\n      jump\t// in\n    tag_580:\n        /* \"#utility.yul\":22074:22130   */\n    tag_579:\n        /* \"#utility.yul\":22154:22192   */\n      tag_581\n        /* \"#utility.yul\":22186:22190   */\n      dup3\n        /* \"#utility.yul\":22180:22191   */\n      sload\n        /* \"#utility.yul\":22154:22192   */\n      tag_83\n      jump\t// in\n    tag_581:\n        /* \"#utility.yul\":22239:22306   */\n      tag_582\n        /* \"#utility.yul\":22299:22305   */\n      dup3\n        /* \"#utility.yul\":22291:22297   */\n      dup3\n        /* \"#utility.yul\":22285:22289   */\n      dup6\n        /* \"#utility.yul\":22239:22306   */\n      tag_332\n      jump\t// in\n    tag_582:\n        /* \"#utility.yul\":22333:22334   */\n      0x00\n        /* \"#utility.yul\":22357:22361   */\n      0x20\n        /* \"#utility.yul\":22344:22361   */\n      swap1\n      pop\n        /* \"#utility.yul\":22389:22391   */\n      0x1f\n        /* \"#utility.yul\":22381:22387   */\n      dup4\n        /* \"#utility.yul\":22378:22392   */\n      gt\n        /* \"#utility.yul\":22406:22407   */\n      0x01\n        /* \"#utility.yul\":22401:23019   */\n      dup2\n      eq\n      tag_584\n      jumpi\n        /* \"#utility.yul\":23063:23064   */\n      0x00\n        /* \"#utility.yul\":23080:23086   */\n      dup5\n        /* \"#utility.yul\":23077:23154   */\n      iszero\n      tag_585\n      jumpi\n        /* \"#utility.yul\":23129:23138   */\n      dup3\n        /* \"#utility.yul\":23124:23127   */\n      dup8\n        /* \"#utility.yul\":23120:23139   */\n      add\n        /* \"#utility.yul\":23114:23140   */\n      mload\n        /* \"#utility.yul\":23105:23140   */\n      swap1\n      pop\n        /* \"#utility.yul\":23077:23154   */\n    tag_585:\n        /* \"#utility.yul\":23180:23247   */\n      tag_586\n        /* \"#utility.yul\":23240:23246   */\n      dup6\n        /* \"#utility.yul\":23233:23238   */\n      dup3\n        /* \"#utility.yul\":23180:23247   */\n      tag_335\n      jump\t// in\n    tag_586:\n        /* \"#utility.yul\":23174:23178   */\n      dup7\n        /* \"#utility.yul\":23167:23248   */\n      sstore\n        /* \"#utility.yul\":23036:23258   */\n      pop\n        /* \"#utility.yul\":22371:23258   */\n      jump(tag_583)\n        /* \"#utility.yul\":22401:23019   */\n    tag_584:\n        /* \"#utility.yul\":22453:22457   */\n      0x1f\n        /* \"#utility.yul\":22449:22458   */\n      not\n        /* \"#utility.yul\":22441:22447   */\n      dup5\n        /* \"#utility.yul\":22437:22459   */\n      and\n        /* \"#utility.yul\":22487:22524   */\n      tag_587\n        /* \"#utility.yul\":22519:22523   */\n      dup7\n        /* \"#utility.yul\":22487:22524   */\n      tag_322\n      jump\t// in\n    tag_587:\n        /* \"#utility.yul\":22546:22547   */\n      0x00\n        /* \"#utility.yul\":22560:22768   */\n    tag_588:\n        /* \"#utility.yul\":22574:22581   */\n      dup3\n        /* \"#utility.yul\":22571:22572   */\n      dup2\n        /* \"#utility.yul\":22568:22582   */\n      lt\n        /* \"#utility.yul\":22560:22768   */\n      iszero\n      tag_590\n      jumpi\n        /* \"#utility.yul\":22653:22662   */\n      dup5\n        /* \"#utility.yul\":22648:22651   */\n      dup10\n        /* \"#utility.yul\":22644:22663   */\n      add\n        /* \"#utility.yul\":22638:22664   */\n      mload\n        /* \"#utility.yul\":22630:22636   */\n      dup3\n        /* \"#utility.yul\":22623:22665   */\n      sstore\n        /* \"#utility.yul\":22704:22705   */\n      0x01\n        /* \"#utility.yul\":22696:22702   */\n      dup3\n        /* \"#utility.yul\":22692:22706   */\n      add\n        /* \"#utility.yul\":22682:22706   */\n      swap2\n      pop\n        /* \"#utility.yul\":22751:22753   */\n      0x20\n        /* \"#utility.yul\":22740:22749   */\n      dup6\n        /* \"#utility.yul\":22736:22754   */\n      add\n        /* \"#utility.yul\":22723:22754   */\n      swap5\n      pop\n        /* \"#utility.yul\":22597:22601   */\n      0x20\n        /* \"#utility.yul\":22594:22595   */\n      dup2\n        /* \"#utility.yul\":22590:22602   */\n      add\n        /* \"#utility.yul\":22585:22602   */\n      swap1\n      pop\n        /* \"#utility.yul\":22560:22768   */\n      jump(tag_588)\n    tag_590:\n        /* \"#utility.yul\":22796:22802   */\n      dup7\n        /* \"#utility.yul\":22787:22794   */\n      dup4\n        /* \"#utility.yul\":22784:22803   */\n      lt\n        /* \"#utility.yul\":22781:22960   */\n      iszero\n      tag_591\n      jumpi\n        /* \"#utility.yul\":22854:22863   */\n      dup5\n        /* \"#utility.yul\":22849:22852   */\n      dup10\n        /* \"#utility.yul\":22845:22864   */\n      add\n        /* \"#utility.yul\":22839:22865   */\n      mload\n        /* \"#utility.yul\":22897:22945   */\n      tag_592\n        /* \"#utility.yul\":22939:22943   */\n      0x1f\n        /* \"#utility.yul\":22931:22937   */\n      dup10\n        /* \"#utility.yul\":22927:22944   */\n      and\n        /* \"#utility.yul\":22916:22925   */\n      dup3\n        /* \"#utility.yul\":22897:22945   */\n      tag_334\n      jump\t// in\n    tag_592:\n        /* \"#utility.yul\":22889:22895   */\n      dup4\n        /* \"#utility.yul\":22882:22946   */\n      sstore\n        /* \"#utility.yul\":22804:22960   */\n      pop\n        /* \"#utility.yul\":22781:22960   */\n    tag_591:\n        /* \"#utility.yul\":23006:23007   */\n      0x01\n        /* \"#utility.yul\":23002:23003   */\n      0x02\n        /* \"#utility.yul\":22994:23000   */\n      dup9\n        /* \"#utility.yul\":22990:23004   */\n      mul\n        /* \"#utility.yul\":22986:23008   */\n      add\n        /* \"#utility.yul\":22980:22984   */\n      dup9\n        /* \"#utility.yul\":22973:23009   */\n      sstore\n        /* \"#utility.yul\":22408:23019   */\n      pop\n      pop\n      pop\n        /* \"#utility.yul\":22371:23258   */\n    tag_583:\n      pop\n        /* \"#utility.yul\":21961:23264   */\n      pop\n      pop\n      pop\n        /* \"#utility.yul\":21869:23264   */\n      pop\n      pop\n      jump\t// out\n        /* \"#utility.yul\":23270:23693   */\n    tag_126:\n        /* \"#utility.yul\":23411:23415   */\n      0x00\n        /* \"#utility.yul\":23449:23451   */\n      0x40\n        /* \"#utility.yul\":23438:23447   */\n      dup3\n        /* \"#utility.yul\":23434:23452   */\n      add\n        /* \"#utility.yul\":23426:23452   */\n      swap1\n      pop\n        /* \"#utility.yul\":23498:23507   */\n      dup2\n        /* \"#utility.yul\":23492:23496   */\n      dup2\n        /* \"#utility.yul\":23488:23508   */\n      sub\n        /* \"#utility.yul\":23484:23485   */\n      0x00\n        /* \"#utility.yul\":23473:23482   */\n      dup4\n        /* \"#utility.yul\":23469:23486   */\n      add\n        /* \"#utility.yul\":23462:23509   */\n      mstore\n        /* \"#utility.yul\":23526:23604   */\n      tag_594\n        /* \"#utility.yul\":23599:23603   */\n      dup2\n        /* \"#utility.yul\":23590:23596   */\n      dup6\n        /* \"#utility.yul\":23526:23604   */\n      tag_280\n      jump\t// in\n    tag_594:\n        /* \"#utility.yul\":23518:23604   */\n      swap1\n      pop\n        /* \"#utility.yul\":23614:23686   */\n      tag_595\n        /* \"#utility.yul\":23682:23684   */\n      0x20\n        /* \"#utility.yul\":23671:23680   */\n      dup4\n        /* \"#utility.yul\":23667:23685   */\n      add\n        /* \"#utility.yul\":23658:23664   */\n      dup5\n        /* \"#utility.yul\":23614:23686   */\n      tag_275\n      jump\t// in\n    tag_595:\n        /* \"#utility.yul\":23270:23693   */\n      swap4\n      swap3\n      pop\n      pop\n      pop\n      jump\t// out\n        /* \"#utility.yul\":23699:23868   */\n    tag_336:\n        /* \"#utility.yul\":23839:23860   */\n      0x496e646578206f7574206f6620626f756e647300000000000000000000000000\n        /* \"#utility.yul\":23835:23836   */\n      0x00\n        /* \"#utility.yul\":23827:23833   */\n      dup3\n        /* \"#utility.yul\":23823:23837   */\n      add\n        /* \"#utility.yul\":23816:23861   */\n      mstore\n        /* \"#utility.yul\":23699:23868   */\n      pop\n      jump\t// out\n        /* \"#utility.yul\":23874:24240   */\n    tag_337:\n        /* \"#utility.yul\":24016:24019   */\n      0x00\n        /* \"#utility.yul\":24037:24104   */\n      tag_598\n        /* \"#utility.yul\":24101:24103   */\n      0x13\n        /* \"#utility.yul\":24096:24099   */\n      dup4\n        /* \"#utility.yul\":24037:24104   */\n      tag_277\n      jump\t// in\n    tag_598:\n        /* \"#utility.yul\":24030:24104   */\n      swap2\n      pop\n        /* \"#utility.yul\":24113:24206   */\n      tag_599\n        /* \"#utility.yul\":24202:24205   */\n      dup3\n        /* \"#utility.yul\":24113:24206   */\n      tag_336\n      jump\t// in\n    tag_599:\n        /* \"#utility.yul\":24231:24233   */\n      0x20\n        /* \"#utility.yul\":24226:24229   */\n      dup3\n        /* \"#utility.yul\":24222:24234   */\n      add\n        /* \"#utility.yul\":24215:24234   */\n      swap1\n      pop\n        /* \"#utility.yul\":23874:24240   */\n      swap2\n      swap1\n      pop\n      jump\t// out\n        /* \"#utility.yul\":24246:24665   */\n    tag_132:\n        /* \"#utility.yul\":24412:24416   */\n      0x00\n        /* \"#utility.yul\":24450:24452   */\n      0x20\n        /* \"#utility.yul\":24439:24448   */\n      dup3\n        /* \"#utility.yul\":24435:24453   */\n      add\n        /* \"#utility.yul\":24427:24453   */\n      swap1\n      pop\n        /* \"#utility.yul\":24499:24508   */\n      dup2\n        /* \"#utility.yul\":24493:24497   */\n      dup2\n        /* \"#utility.yul\":24489:24509   */\n      sub\n        /* \"#utility.yul\":24485:24486   */\n      0x00\n        /* \"#utility.yul\":24474:24483   */\n      dup4\n        /* \"#utility.yul\":24470:24487   */\n      add\n        /* \"#utility.yul\":24463:24510   */\n      mstore\n        /* \"#utility.yul\":24527:24658   */\n      tag_601\n        /* \"#utility.yul\":24653:24657   */\n      dup2\n        /* \"#utility.yul\":24527:24658   */\n      tag_337\n      jump\t// in\n    tag_601:\n        /* \"#utility.yul\":24519:24658   */\n      swap1\n      pop\n        /* \"#utility.yul\":24246:24665   */\n      swap2\n      swap1\n      pop\n      jump\t// out\n        /* \"#utility.yul\":24671:24851   */\n    tag_136:\n        /* \"#utility.yul\":24719:24796   */\n      0x4e487b7100000000000000000000000000000000000000000000000000000000\n        /* \"#utility.yul\":24716:24717   */\n      0x00\n        /* \"#utility.yul\":24709:24797   */\n      mstore\n        /* \"#utility.yul\":24816:24820   */\n      0x32\n        /* \"#utility.yul\":24813:24814   */\n      0x04\n        /* \"#utility.yul\":24806:24821   */\n      mstore\n        /* \"#utility.yul\":24840:24844   */\n      0x24\n        /* \"#utility.yul\":24837:24838   */\n      0x00\n        /* \"#utility.yul\":24830:24845   */\n      revert\n        /* \"#utility.yul\":24857:25032   */\n    tag_338:\n        /* \"#utility.yul\":24997:25024   */\n      0x7573657220616c72656164792068617320737461636b696e6700000000000000\n        /* \"#utility.yul\":24993:24994   */\n      0x00\n        /* \"#utility.yul\":24985:24991   */\n      dup3\n        /* \"#utility.yul\":24981:24995   */\n      add\n        /* \"#utility.yul\":24974:25025   */\n      mstore\n        /* \"#utility.yul\":24857:25032   */\n      pop\n      jump\t// out\n        /* \"#utility.yul\":25038:25404   */\n    tag_339:\n        /* \"#utility.yul\":25180:25183   */\n      0x00\n        /* \"#utility.yul\":25201:25268   */\n      tag_605\n        /* \"#utility.yul\":25265:25267   */\n      0x19\n        /* \"#utility.yul\":25260:25263   */\n      dup4\n        /* \"#utility.yul\":25201:25268   */\n      tag_277\n      jump\t// in\n    tag_605:\n        /* \"#utility.yul\":25194:25268   */\n      swap2\n      pop\n        /* \"#utility.yul\":25277:25370   */\n      tag_606\n        /* \"#utility.yul\":25366:25369   */\n      dup3\n        /* \"#utility.yul\":25277:25370   */\n      tag_338\n      jump\t// in\n    tag_606:\n        /* \"#utility.yul\":25395:25397   */\n      0x20\n        /* \"#utility.yul\":25390:25393   */\n      dup3\n        /* \"#utility.yul\":25386:25398   */\n      add\n        /* \"#utility.yul\":25379:25398   */\n      swap1\n      pop\n        /* \"#utility.yul\":25038:25404   */\n      swap2\n      swap1\n      pop\n      jump\t// out\n        /* \"#utility.yul\":25410:25829   */\n    tag_158:\n        /* \"#utility.yul\":25576:25580   */\n      0x00\n        /* \"#utility.yul\":25614:25616   */\n      0x20\n        /* \"#utility.yul\":25603:25612   */\n      dup3\n        /* \"#utility.yul\":25599:25617   */\n      add\n        /* \"#utility.yul\":25591:25617   */\n      swap1\n      pop\n        /* \"#utility.yul\":25663:25672   */\n      dup2\n        /* \"#utility.yul\":25657:25661   */\n      dup2\n        /* \"#utility.yul\":25653:25673   */\n      sub\n        /* \"#utility.yul\":25649:25650   */\n      0x00\n        /* \"#utility.yul\":25638:25647   */\n      dup4\n        /* \"#utility.yul\":25634:25651   */\n      add\n        /* \"#utility.yul\":25627:25674   */\n      mstore\n        /* \"#utility.yul\":25691:25822   */\n      tag_608\n        /* \"#utility.yul\":25817:25821   */\n      dup2\n        /* \"#utility.yul\":25691:25822   */\n      tag_339\n      jump\t// in\n    tag_608:\n        /* \"#utility.yul\":25683:25822   */\n      swap1\n      pop\n        /* \"#utility.yul\":25410:25829   */\n      swap2\n      swap1\n      pop\n      jump\t// out\n        /* \"#utility.yul\":25835:26026   */\n    tag_160:\n        /* \"#utility.yul\":25875:25878   */\n      0x00\n        /* \"#utility.yul\":25894:25914   */\n      tag_610\n        /* \"#utility.yul\":25912:25913   */\n      dup3\n        /* \"#utility.yul\":25894:25914   */\n      tag_272\n      jump\t// in\n    tag_610:\n        /* \"#utility.yul\":25889:25914   */\n      swap2\n      pop\n        /* \"#utility.yul\":25928:25948   */\n      tag_611\n        /* \"#utility.yul\":25946:25947   */\n      dup4\n        /* \"#utility.yul\":25928:25948   */\n      tag_272\n      jump\t// in\n    tag_611:\n        /* \"#utility.yul\":25923:25948   */\n      swap3\n      pop\n        /* \"#utility.yul\":25971:25972   */\n      dup3\n        /* \"#utility.yul\":25968:25969   */\n      dup3\n        /* \"#utility.yul\":25964:25973   */\n      add\n        /* \"#utility.yul\":25957:25973   */\n      swap1\n      pop\n        /* \"#utility.yul\":25992:25995   */\n      dup1\n        /* \"#utility.yul\":25989:25990   */\n      dup3\n        /* \"#utility.yul\":25986:25996   */\n      gt\n        /* \"#utility.yul\":25983:26019   */\n      iszero\n      tag_612\n      jumpi\n        /* \"#utility.yul\":25999:26017   */\n      tag_613\n      tag_321\n      jump\t// in\n    tag_613:\n        /* \"#utility.yul\":25983:26019   */\n    tag_612:\n        /* \"#utility.yul\":25835:26026   */\n      swap3\n      swap2\n      pop\n      pop\n      jump\t// out\n        /* \"#utility.yul\":26032:26474   */\n    tag_162:\n        /* \"#utility.yul\":26181:26185   */\n      0x00\n        /* \"#utility.yul\":26219:26221   */\n      0x60\n        /* \"#utility.yul\":26208:26217   */\n      dup3\n        /* \"#utility.yul\":26204:26222   */\n      add\n        /* \"#utility.yul\":26196:26222   */\n      swap1\n      pop\n        /* \"#utility.yul\":26232:26303   */\n      tag_615\n        /* \"#utility.yul\":26300:26301   */\n      0x00\n        /* \"#utility.yul\":26289:26298   */\n      dup4\n        /* \"#utility.yul\":26285:26302   */\n      add\n        /* \"#utility.yul\":26276:26282   */\n      dup7\n        /* \"#utility.yul\":26232:26303   */\n      tag_308\n      jump\t// in\n    tag_615:\n        /* \"#utility.yul\":26313:26385   */\n      tag_616\n        /* \"#utility.yul\":26381:26383   */\n      0x20\n        /* \"#utility.yul\":26370:26379   */\n      dup4\n        /* \"#utility.yul\":26366:26384   */\n      add\n        /* \"#utility.yul\":26357:26363   */\n      dup6\n        /* \"#utility.yul\":26313:26385   */\n      tag_308\n      jump\t// in\n    tag_616:\n        /* \"#utility.yul\":26395:26467   */\n      tag_617\n        /* \"#utility.yul\":26463:26465   */\n      0x40\n        /* \"#utility.yul\":26452:26461   */\n      dup4\n        /* \"#utility.yul\":26448:26466   */\n      add\n        /* \"#utility.yul\":26439:26445   */\n      dup5\n        /* \"#utility.yul\":26395:26467   */\n      tag_275\n      jump\t// in\n    tag_617:\n        /* \"#utility.yul\":26032:26474   */\n      swap5\n      swap4\n      pop\n      pop\n      pop\n      pop\n      jump\t// out\n        /* \"#utility.yul\":26480:26647   */\n    tag_340:\n        /* \"#utility.yul\":26620:26639   */\n      0x5a65726f20766f74696e6720706f776572000000000000000000000000000000\n        /* \"#utility.yul\":26616:26617   */\n      0x00\n        /* \"#utility.yul\":26608:26614   */\n      dup3\n        /* \"#utility.yul\":26604:26618   */\n      add\n        /* \"#utility.yul\":26597:26640   */\n      mstore\n        /* \"#utility.yul\":26480:26647   */\n      pop\n      jump\t// out\n        /* \"#utility.yul\":26653:27019   */\n    tag_341:\n        /* \"#utility.yul\":26795:26798   */\n      0x00\n        /* \"#utility.yul\":26816:26883   */\n      tag_620\n        /* \"#utility.yul\":26880:26882   */\n      0x11\n        /* \"#utility.yul\":26875:26878   */\n      dup4\n        /* \"#utility.yul\":26816:26883   */\n      tag_277\n      jump\t// in\n    tag_620:\n        /* \"#utility.yul\":26809:26883   */\n      swap2\n      pop\n        /* \"#utility.yul\":26892:26985   */\n      tag_621\n        /* \"#utility.yul\":26981:26984   */\n      dup3\n        /* \"#utility.yul\":26892:26985   */\n      tag_340\n      jump\t// in\n    tag_621:\n        /* \"#utility.yul\":27010:27012   */\n      0x20\n        /* \"#utility.yul\":27005:27008   */\n      dup3\n        /* \"#utility.yul\":27001:27013   */\n      add\n        /* \"#utility.yul\":26994:27013   */\n      swap1\n      pop\n        /* \"#utility.yul\":26653:27019   */\n      swap2\n      swap1\n      pop\n      jump\t// out\n        /* \"#utility.yul\":27025:27444   */\n    tag_182:\n        /* \"#utility.yul\":27191:27195   */\n      0x00\n        /* \"#utility.yul\":27229:27231   */\n      0x20\n        /* \"#utility.yul\":27218:27227   */\n      dup3\n        /* \"#utility.yul\":27214:27232   */\n      add\n        /* \"#utility.yul\":27206:27232   */\n      swap1\n      pop\n        /* \"#utility.yul\":27278:27287   */\n      dup2\n        /* \"#utility.yul\":27272:27276   */\n      dup2\n        /* \"#utility.yul\":27268:27288   */\n      sub\n        /* \"#utility.yul\":27264:27265   */\n      0x00\n        /* \"#utility.yul\":27253:27262   */\n      dup4\n        /* \"#utility.yul\":27249:27266   */\n      add\n        /* \"#utility.yul\":27242:27289   */\n      mstore\n        /* \"#utility.yul\":27306:27437   */\n      tag_623\n        /* \"#utility.yul\":27432:27436   */\n      dup2\n        /* \"#utility.yul\":27306:27437   */\n      tag_341\n      jump\t// in\n    tag_623:\n        /* \"#utility.yul\":27298:27437   */\n      swap1\n      pop\n        /* \"#utility.yul\":27025:27444   */\n      swap2\n      swap1\n      pop\n      jump\t// out\n        /* \"#utility.yul\":27450:27683   */\n    tag_197:\n        /* \"#utility.yul\":27489:27492   */\n      0x00\n        /* \"#utility.yul\":27512:27536   */\n      tag_625\n        /* \"#utility.yul\":27530:27535   */\n      dup3\n        /* \"#utility.yul\":27512:27536   */\n      tag_272\n      jump\t// in\n    tag_625:\n        /* \"#utility.yul\":27503:27536   */\n      swap2\n      pop\n        /* \"#utility.yul\":27558:27624   */\n      0xffffffffffffffffffffffffffffffffffffffffffffffffffffffffffffffff\n        /* \"#utility.yul\":27551:27556   */\n      dup3\n        /* \"#utility.yul\":27548:27625   */\n      sub\n        /* \"#utility.yul\":27545:27648   */\n      tag_626\n      jumpi\n        /* \"#utility.yul\":27628:27646   */\n      tag_627\n      tag_321\n      jump\t// in\n    tag_627:\n        /* \"#utility.yul\":27545:27648   */\n    tag_626:\n        /* \"#utility.yul\":27675:27676   */\n      0x01\n        /* \"#utility.yul\":27668:27673   */\n      dup3\n        /* \"#utility.yul\":27664:27677   */\n      add\n        /* \"#utility.yul\":27657:27677   */\n      swap1\n      pop\n        /* \"#utility.yul\":27450:27683   */\n      swap2\n      swap1\n      pop\n      jump\t// out\n        /* \"#utility.yul\":27689:27856   */\n    tag_342:\n        /* \"#utility.yul\":27829:27848   */\n      0x416c72656164792066696e697368656421000000000000000000000000000000\n        /* \"#utility.yul\":27825:27826   */\n      0x00\n        /* \"#utility.yul\":27817:27823   */\n      dup3\n        /* \"#utility.yul\":27813:27827   */\n      add\n        /* \"#utility.yul\":27806:27849   */\n      mstore\n        /* \"#utility.yul\":27689:27856   */\n      pop\n      jump\t// out\n        /* \"#utility.yul\":27862:28228   */\n    tag_343:\n        /* \"#utility.yul\":28004:28007   */\n      0x00\n        /* \"#utility.yul\":28025:28092   */\n      tag_630\n        /* \"#utility.yul\":28089:28091   */\n      0x11\n        /* \"#utility.yul\":28084:28087   */\n      dup4\n        /* \"#utility.yul\":28025:28092   */\n      tag_277\n      jump\t// in\n    tag_630:\n        /* \"#utility.yul\":28018:28092   */\n      swap2\n      pop\n        /* \"#utility.yul\":28101:28194   */\n      tag_631\n        /* \"#utility.yul\":28190:28193   */\n      dup3\n        /* \"#utility.yul\":28101:28194   */\n      tag_342\n      jump\t// in\n    tag_631:\n        /* \"#utility.yul\":28219:28221   */\n      0x20\n        /* \"#utility.yul\":28214:28217   */\n      dup3\n        /* \"#utility.yul\":28210:28222   */\n      add\n        /* \"#utility.yul\":28203:28222   */\n      swap1\n      pop\n        /* \"#utility.yul\":27862:28228   */\n      swap2\n      swap1\n      pop\n      jump\t// out\n        /* \"#utility.yul\":28234:28653   */\n    tag_220:\n        /* \"#utility.yul\":28400:28404   */\n      0x00\n        /* \"#utility.yul\":28438:28440   */\n      0x20\n        /* \"#utility.yul\":28427:28436   */\n      dup3\n        /* \"#utility.yul\":28423:28441   */\n      add\n        /* \"#utility.yul\":28415:28441   */\n      swap1\n      pop\n        /* \"#utility.yul\":28487:28496   */\n      dup2\n        /* \"#utility.yul\":28481:28485   */\n      dup2\n        /* \"#utility.yul\":28477:28497   */\n      sub\n        /* \"#utility.yul\":28473:28474   */\n      0x00\n        /* \"#utility.yul\":28462:28471   */\n      dup4\n        /* \"#utility.yul\":28458:28475   */\n      add\n        /* \"#utility.yul\":28451:28498   */\n      mstore\n        /* \"#utility.yul\":28515:28646   */\n      tag_633\n        /* \"#utility.yul\":28641:28645   */\n      dup2\n        /* \"#utility.yul\":28515:28646   */\n      tag_343\n      jump\t// in\n    tag_633:\n        /* \"#utility.yul\":28507:28646   */\n      swap1\n      pop\n        /* \"#utility.yul\":28234:28653   */\n      swap2\n      swap1\n      pop\n      jump\t// out\n        /* \"#utility.yul\":28659:28836   */\n    tag_344:\n        /* \"#utility.yul\":28799:28828   */\n      0x4e6f7220746872657368686f6c64206f7220646561646c696e65210000000000\n        /* \"#utility.yul\":28795:28796   */\n      0x00\n        /* \"#utility.yul\":28787:28793   */\n      dup3\n        /* \"#utility.yul\":28783:28797   */\n      add\n        /* \"#utility.yul\":28776:28829   */\n      mstore\n        /* \"#utility.yul\":28659:28836   */\n      pop\n      jump\t// out\n        /* \"#utility.yul\":28842:29208   */\n    tag_345:\n        /* \"#utility.yul\":28984:28987   */\n      0x00\n        /* \"#utility.yul\":29005:29072   */\n      tag_636\n        /* \"#utility.yul\":29069:29071   */\n      0x1b\n        /* \"#utility.yul\":29064:29067   */\n      dup4\n        /* \"#utility.yul\":29005:29072   */\n      tag_277\n      jump\t// in\n    tag_636:\n        /* \"#utility.yul\":28998:29072   */\n      swap2\n      pop\n        /* \"#utility.yul\":29081:29174   */\n      tag_637\n        /* \"#utility.yul\":29170:29173   */\n      dup3\n        /* \"#utility.yul\":29081:29174   */\n      tag_344\n      jump\t// in\n    tag_637:\n        /* \"#utility.yul\":29199:29201   */\n      0x20\n        /* \"#utility.yul\":29194:29197   */\n      dup3\n        /* \"#utility.yul\":29190:29202   */\n      add\n        /* \"#utility.yul\":29183:29202   */\n      swap1\n      pop\n        /* \"#utility.yul\":28842:29208   */\n      swap2\n      swap1\n      pop\n      jump\t// out\n        /* \"#utility.yul\":29214:29633   */\n    tag_224:\n        /* \"#utility.yul\":29380:29384   */\n      0x00\n        /* \"#utility.yul\":29418:29420   */\n      0x20\n        /* \"#utility.yul\":29407:29416   */\n      dup3\n        /* \"#utility.yul\":29403:29421   */\n      add\n        /* \"#utility.yul\":29395:29421   */\n      swap1\n      pop\n        /* \"#utility.yul\":29467:29476   */\n      dup2\n        /* \"#utility.yul\":29461:29465   */\n      dup2\n        /* \"#utility.yul\":29457:29477   */\n      sub\n        /* \"#utility.yul\":29453:29454   */\n      0x00\n        /* \"#utility.yul\":29442:29451   */\n      dup4\n        /* \"#utility.yul\":29438:29455   */\n      add\n        /* \"#utility.yul\":29431:29478   */\n      mstore\n        /* \"#utility.yul\":29495:29626   */\n      tag_639\n        /* \"#utility.yul\":29621:29625   */\n      dup2\n        /* \"#utility.yul\":29495:29626   */\n      tag_345\n      jump\t// in\n    tag_639:\n        /* \"#utility.yul\":29487:29626   */\n      swap1\n      pop\n        /* \"#utility.yul\":29214:29633   */\n      swap2\n      swap1\n      pop\n      jump\t// out\n        /* \"#utility.yul\":29639:30192   */\n    tag_238:\n        /* \"#utility.yul\":29818:29822   */\n      0x00\n        /* \"#utility.yul\":29856:29858   */\n      0x60\n        /* \"#utility.yul\":29845:29854   */\n      dup3\n        /* \"#utility.yul\":29841:29859   */\n      add\n        /* \"#utility.yul\":29833:29859   */\n      swap1\n      pop\n        /* \"#utility.yul\":29905:29914   */\n      dup2\n        /* \"#utility.yul\":29899:29903   */\n      dup2\n        /* \"#utility.yul\":29895:29915   */\n      sub\n        /* \"#utility.yul\":29891:29892   */\n      0x00\n        /* \"#utility.yul\":29880:29889   */\n      dup4\n        /* \"#utility.yul\":29876:29893   */\n      add\n        /* \"#utility.yul\":29869:29916   */\n      mstore\n        /* \"#utility.yul\":29933:30011   */\n      tag_641\n        /* \"#utility.yul\":30006:30010   */\n      dup2\n        /* \"#utility.yul\":29997:30003   */\n      dup7\n        /* \"#utility.yul\":29933:30011   */\n      tag_280\n      jump\t// in\n    tag_641:\n        /* \"#utility.yul\":29925:30011   */\n      swap1\n      pop\n        /* \"#utility.yul\":30021:30093   */\n      tag_642\n        /* \"#utility.yul\":30089:30091   */\n      0x20\n        /* \"#utility.yul\":30078:30087   */\n      dup4\n        /* \"#utility.yul\":30074:30092   */\n      add\n        /* \"#utility.yul\":30065:30071   */\n      dup6\n        /* \"#utility.yul\":30021:30093   */\n      tag_275\n      jump\t// in\n    tag_642:\n        /* \"#utility.yul\":30103:30185   */\n      tag_643\n        /* \"#utility.yul\":30181:30183   */\n      0x40\n        /* \"#utility.yul\":30170:30179   */\n      dup4\n        /* \"#utility.yul\":30166:30184   */\n      add\n        /* \"#utility.yul\":30157:30163   */\n      dup5\n        /* \"#utility.yul\":30103:30185   */\n      tag_284\n      jump\t// in\n    tag_643:\n        /* \"#utility.yul\":29639:30192   */\n      swap5\n      swap4\n      pop\n      pop\n      pop\n      pop\n      jump\t// out\n        /* \"#utility.yul\":30198:30379   */\n    tag_346:\n        /* \"#utility.yul\":30338:30371   */\n      0x5265656e7472616e637947756172643a207265656e7472616e742063616c6c00\n        /* \"#utility.yul\":30334:30335   */\n      0x00\n        /* \"#utility.yul\":30326:30332   */\n      dup3\n        /* \"#utility.yul\":30322:30336   */\n      add\n        /* \"#utility.yul\":30315:30372   */\n      mstore\n        /* \"#utility.yul\":30198:30379   */\n      pop\n      jump\t// out\n        /* \"#utility.yul\":30385:30751   */\n    tag_347:\n        /* \"#utility.yul\":30527:30530   */\n      0x00\n        /* \"#utility.yul\":30548:30615   */\n      tag_646\n        /* \"#utility.yul\":30612:30614   */\n      0x1f\n        /* \"#utility.yul\":30607:30610   */\n      dup4\n        /* \"#utility.yul\":30548:30615   */\n      tag_277\n      jump\t// in\n    tag_646:\n        /* \"#utility.yul\":30541:30615   */\n      swap2\n      pop\n        /* \"#utility.yul\":30624:30717   */\n      tag_647\n        /* \"#utility.yul\":30713:30716   */\n      dup3\n        /* \"#utility.yul\":30624:30717   */\n      tag_346\n      jump\t// in\n    tag_647:\n        /* \"#utility.yul\":30742:30744   */\n      0x20\n        /* \"#utility.yul\":30737:30740   */\n      dup3\n        /* \"#utility.yul\":30733:30745   */\n      add\n        /* \"#utility.yul\":30726:30745   */\n      swap1\n      pop\n        /* \"#utility.yul\":30385:30751   */\n      swap2\n      swap1\n      pop\n      jump\t// out\n        /* \"#utility.yul\":30757:31176   */\n    tag_251:\n        /* \"#utility.yul\":30923:30927   */\n      0x00\n        /* \"#utility.yul\":30961:30963   */\n      0x20\n        /* \"#utility.yul\":30950:30959   */\n      dup3\n        /* \"#utility.yul\":30946:30964   */\n      add\n        /* \"#utility.yul\":30938:30964   */\n      swap1\n      pop\n        /* \"#utility.yul\":31010:31019   */\n      dup2\n        /* \"#utility.yul\":31004:31008   */\n      dup2\n        /* \"#utility.yul\":31000:31020   */\n      sub\n        /* \"#utility.yul\":30996:30997   */\n      0x00\n        /* \"#utility.yul\":30985:30994   */\n      dup4\n        /* \"#utility.yul\":30981:30998   */\n      add\n        /* \"#utility.yul\":30974:31021   */\n      mstore\n        /* \"#utility.yul\":31038:31169   */\n      tag_649\n        /* \"#utility.yul\":31164:31168   */\n      dup2\n        /* \"#utility.yul\":31038:31169   */\n      tag_347\n      jump\t// in\n    tag_649:\n        /* \"#utility.yul\":31030:31169   */\n      swap1\n      pop\n        /* \"#utility.yul\":30757:31176   */\n      swap2\n      swap1\n      pop\n      jump\t// out\n        /* \"#utility.yul\":31182:31284   */\n    tag_348:\n        /* \"#utility.yul\":31224:31232   */\n      0x00\n        /* \"#utility.yul\":31271:31276   */\n      dup2\n        /* \"#utility.yul\":31268:31269   */\n      0x01\n        /* \"#utility.yul\":31264:31277   */\n      shr\n        /* \"#utility.yul\":31243:31277   */\n      swap1\n      pop\n        /* \"#utility.yul\":31182:31284   */\n      swap2\n      swap1\n      pop\n      jump\t// out\n        /* \"#utility.yul\":31290:32138   */\n    tag_349:\n        /* \"#utility.yul\":31351:31356   */\n      0x00\n        /* \"#utility.yul\":31358:31362   */\n      dup1\n        /* \"#utility.yul\":31382:31388   */\n      dup3\n        /* \"#utility.yul\":31373:31388   */\n      swap2\n      pop\n        /* \"#utility.yul\":31406:31411   */\n      dup4\n        /* \"#utility.yul\":31397:31411   */\n      swap1\n      pop\n        /* \"#utility.yul\":31420:32132   */\n    tag_652:\n        /* \"#utility.yul\":31441:31442   */\n      0x01\n        /* \"#utility.yul\":31431:31439   */\n      dup6\n        /* \"#utility.yul\":31428:31443   */\n      gt\n        /* \"#utility.yul\":31420:32132   */\n      iszero\n      tag_654\n      jumpi\n        /* \"#utility.yul\":31536:31540   */\n      dup1\n        /* \"#utility.yul\":31531:31534   */\n      dup7\n        /* \"#utility.yul\":31527:31541   */\n      div\n        /* \"#utility.yul\":31521:31525   */\n      dup2\n        /* \"#utility.yul\":31518:31542   */\n      gt\n        /* \"#utility.yul\":31515:31565   */\n      iszero\n      tag_655\n      jumpi\n        /* \"#utility.yul\":31545:31563   */\n      tag_656\n      tag_321\n      jump\t// in\n    tag_656:\n        /* \"#utility.yul\":31515:31565   */\n    tag_655:\n        /* \"#utility.yul\":31595:31596   */\n      0x01\n        /* \"#utility.yul\":31585:31593   */\n      dup6\n        /* \"#utility.yul\":31581:31597   */\n      and\n        /* \"#utility.yul\":31578:32029   */\n      iszero\n      tag_657\n      jumpi\n        /* \"#utility.yul\":32010:32014   */\n      dup1\n        /* \"#utility.yul\":32003:32008   */\n      dup3\n        /* \"#utility.yul\":31999:32015   */\n      mul\n        /* \"#utility.yul\":31990:32015   */\n      swap2\n      pop\n        /* \"#utility.yul\":31578:32029   */\n    tag_657:\n        /* \"#utility.yul\":32060:32064   */\n      dup1\n        /* \"#utility.yul\":32054:32058   */\n      dup2\n        /* \"#utility.yul\":32050:32065   */\n      mul\n        /* \"#utility.yul\":32042:32065   */\n      swap1\n      pop\n        /* \"#utility.yul\":32090:32122   */\n      tag_658\n        /* \"#utility.yul\":32113:32121   */\n      dup6\n        /* \"#utility.yul\":32090:32122   */\n      tag_348\n      jump\t// in\n    tag_658:\n        /* \"#utility.yul\":32078:32122   */\n      swap5\n      pop\n        /* \"#utility.yul\":31420:32132   */\n      jump(tag_652)\n    tag_654:\n        /* \"#utility.yul\":31290:32138   */\n      swap5\n      pop\n      swap5\n      swap3\n      pop\n      pop\n      pop\n      jump\t// out\n        /* \"#utility.yul\":32144:33217   */\n    tag_350:\n        /* \"#utility.yul\":32198:32203   */\n      0x00\n        /* \"#utility.yul\":32389:32397   */\n      dup3\n        /* \"#utility.yul\":32379:32419   */\n      tag_660\n      jumpi\n        /* \"#utility.yul\":32410:32411   */\n      0x01\n        /* \"#utility.yul\":32401:32411   */\n      swap1\n      pop\n        /* \"#utility.yul\":32412:32417   */\n      jump(tag_659)\n        /* \"#utility.yul\":32379:32419   */\n    tag_660:\n        /* \"#utility.yul\":32438:32442   */\n      dup2\n        /* \"#utility.yul\":32428:32464   */\n      tag_661\n      jumpi\n        /* \"#utility.yul\":32455:32456   */\n      0x00\n        /* \"#utility.yul\":32446:32456   */\n      swap1\n      pop\n        /* \"#utility.yul\":32457:32462   */\n      jump(tag_659)\n        /* \"#utility.yul\":32428:32464   */\n    tag_661:\n        /* \"#utility.yul\":32524:32528   */\n      dup2\n        /* \"#utility.yul\":32572:32573   */\n      0x01\n        /* \"#utility.yul\":32567:32594   */\n      dup2\n      eq\n      tag_663\n      jumpi\n        /* \"#utility.yul\":32608:32609   */\n      0x02\n        /* \"#utility.yul\":32603:32794   */\n      dup2\n      eq\n      tag_664\n      jumpi\n        /* \"#utility.yul\":32517:32794   */\n      jump(tag_662)\n        /* \"#utility.yul\":32567:32594   */\n    tag_663:\n        /* \"#utility.yul\":32585:32586   */\n      0x01\n        /* \"#utility.yul\":32576:32586   */\n      swap2\n      pop\n        /* \"#utility.yul\":32587:32592   */\n      pop\n      jump(tag_659)\n        /* \"#utility.yul\":32603:32794   */\n    tag_664:\n        /* \"#utility.yul\":32648:32651   */\n      0xff\n        /* \"#utility.yul\":32638:32646   */\n      dup5\n        /* \"#utility.yul\":32635:32652   */\n      gt\n        /* \"#utility.yul\":32632:32675   */\n      iszero\n      tag_665\n      jumpi\n        /* \"#utility.yul\":32655:32673   */\n      tag_666\n      tag_321\n      jump\t// in\n    tag_666:\n        /* \"#utility.yul\":32632:32675   */\n    tag_665:\n        /* \"#utility.yul\":32704:32712   */\n      dup4\n        /* \"#utility.yul\":32701:32702   */\n      0x02\n        /* \"#utility.yul\":32697:32713   */\n      exp\n        /* \"#utility.yul\":32688:32713   */\n      swap2\n      pop\n        /* \"#utility.yul\":32739:32742   */\n      dup5\n        /* \"#utility.yul\":32732:32737   */\n      dup3\n        /* \"#utility.yul\":32729:32743   */\n      gt\n        /* \"#utility.yul\":32726:32766   */\n      iszero\n      tag_667\n      jumpi\n        /* \"#utility.yul\":32746:32764   */\n      tag_668\n      tag_321\n      jump\t// in\n    tag_668:\n        /* \"#utility.yul\":32726:32766   */\n    tag_667:\n        /* \"#utility.yul\":32779:32784   */\n      pop\n      jump(tag_659)\n        /* \"#utility.yul\":32517:32794   */\n    tag_662:\n      pop\n        /* \"#utility.yul\":32903:32905   */\n      0x20\n        /* \"#utility.yul\":32893:32901   */\n      dup4\n        /* \"#utility.yul\":32890:32906   */\n      lt\n        /* \"#utility.yul\":32884:32887   */\n      0x0133\n        /* \"#utility.yul\":32878:32882   */\n      dup4\n        /* \"#utility.yul\":32875:32888   */\n      lt\n        /* \"#utility.yul\":32871:32907   */\n      and\n        /* \"#utility.yul\":32853:32855   */\n      0x4e\n        /* \"#utility.yul\":32843:32851   */\n      dup5\n        /* \"#utility.yul\":32840:32856   */\n      lt\n        /* \"#utility.yul\":32835:32837   */\n      0x0b\n        /* \"#utility.yul\":32829:32833   */\n      dup5\n        /* \"#utility.yul\":32826:32838   */\n      lt\n        /* \"#utility.yul\":32822:32857   */\n      and\n        /* \"#utility.yul\":32806:32917   */\n      or\n        /* \"#utility.yul\":32803:33049   */\n      iszero\n      tag_669\n      jumpi\n        /* \"#utility.yul\":32959:32967   */\n      dup3\n        /* \"#utility.yul\":32953:32957   */\n      dup3\n        /* \"#utility.yul\":32949:32968   */\n      exp\n        /* \"#utility.yul\":32940:32968   */\n      swap1\n      pop\n        /* \"#utility.yul\":32994:32997   */\n      dup4\n        /* \"#utility.yul\":32987:32992   */\n      dup2\n        /* \"#utility.yul\":32984:32998   */\n      gt\n        /* \"#utility.yul\":32981:33021   */\n      iszero\n      tag_670\n      jumpi\n        /* \"#utility.yul\":33001:33019   */\n      tag_671\n      tag_321\n      jump\t// in\n    tag_671:\n        /* \"#utility.yul\":32981:33021   */\n    tag_670:\n        /* \"#utility.yul\":33034:33039   */\n      jump(tag_659)\n        /* \"#utility.yul\":32803:33049   */\n    tag_669:\n        /* \"#utility.yul\":33074:33116   */\n      tag_672\n        /* \"#utility.yul\":33112:33115   */\n      dup5\n        /* \"#utility.yul\":33102:33110   */\n      dup5\n        /* \"#utility.yul\":33096:33100   */\n      dup5\n        /* \"#utility.yul\":33093:33094   */\n      0x01\n        /* \"#utility.yul\":33074:33116   */\n      tag_349\n      jump\t// in\n    tag_672:\n        /* \"#utility.yul\":33059:33116   */\n      swap3\n      pop\n      swap1\n      pop\n        /* \"#utility.yul\":33148:33152   */\n      dup2\n        /* \"#utility.yul\":33143:33146   */\n      dup5\n        /* \"#utility.yul\":33139:33153   */\n      div\n        /* \"#utility.yul\":33132:33137   */\n      dup2\n        /* \"#utility.yul\":33129:33154   */\n      gt\n        /* \"#utility.yul\":33126:33177   */\n      iszero\n      tag_673\n      jumpi\n        /* \"#utility.yul\":33157:33175   */\n      tag_674\n      tag_321\n      jump\t// in\n    tag_674:\n        /* \"#utility.yul\":33126:33177   */\n    tag_673:\n        /* \"#utility.yul\":33206:33210   */\n      dup2\n        /* \"#utility.yul\":33199:33204   */\n      dup2\n        /* \"#utility.yul\":33195:33211   */\n      mul\n        /* \"#utility.yul\":33186:33211   */\n      swap1\n      pop\n        /* \"#utility.yul\":32144:33217   */\n    tag_659:\n      swap4\n      swap3\n      pop\n      pop\n      pop\n      jump\t// out\n        /* \"#utility.yul\":33223:33309   */\n    tag_351:\n        /* \"#utility.yul\":33258:33265   */\n      0x00\n        /* \"#utility.yul\":33298:33302   */\n      0xff\n        /* \"#utility.yul\":33291:33296   */\n      dup3\n        /* \"#utility.yul\":33287:33303   */\n      and\n        /* \"#utility.yul\":33276:33303   */\n      swap1\n      pop\n        /* \"#utility.yul\":33223:33309   */\n      swap2\n      swap1\n      pop\n      jump\t// out\n        /* \"#utility.yul\":33315:33596   */\n    tag_263:\n        /* \"#utility.yul\":33373:33378   */\n      0x00\n        /* \"#utility.yul\":33397:33420   */\n      tag_677\n        /* \"#utility.yul\":33415:33419   */\n      dup3\n        /* \"#utility.yul\":33397:33420   */\n      tag_272\n      jump\t// in\n    tag_677:\n        /* \"#utility.yul\":33389:33420   */\n      swap2\n      pop\n        /* \"#utility.yul\":33441:33466   */\n      tag_678\n        /* \"#utility.yul\":33457:33465   */\n      dup4\n        /* \"#utility.yul\":33441:33466   */\n      tag_351\n      jump\t// in\n    tag_678:\n        /* \"#utility.yul\":33429:33466   */\n      swap3\n      pop\n        /* \"#utility.yul\":33485:33589   */\n      tag_679\n        /* \"#utility.yul\":33522:33588   */\n      0xffffffffffffffffffffffffffffffffffffffffffffffffffffffffffffffff\n        /* \"#utility.yul\":33512:33520   */\n      dup5\n        /* \"#utility.yul\":33506:33510   */\n      dup5\n        /* \"#utility.yul\":33485:33589   */\n      tag_350\n      jump\t// in\n    tag_679:\n        /* \"#utility.yul\":33476:33589   */\n      swap1\n      pop\n        /* \"#utility.yul\":33315:33596   */\n      swap3\n      swap2\n      pop\n      pop\n      jump\t// out\n        /* \"#utility.yul\":33602:34012   */\n    tag_265:\n        /* \"#utility.yul\":33642:33649   */\n      0x00\n        /* \"#utility.yul\":33665:33685   */\n      tag_681\n        /* \"#utility.yul\":33683:33684   */\n      dup3\n        /* \"#utility.yul\":33665:33685   */\n      tag_272\n      jump\t// in\n    tag_681:\n        /* \"#utility.yul\":33660:33685   */\n      swap2\n      pop\n        /* \"#utility.yul\":33699:33719   */\n      tag_682\n        /* \"#utility.yul\":33717:33718   */\n      dup4\n        /* \"#utility.yul\":33699:33719   */\n      tag_272\n      jump\t// in\n    tag_682:\n        /* \"#utility.yul\":33694:33719   */\n      swap3\n      pop\n        /* \"#utility.yul\":33754:33755   */\n      dup3\n        /* \"#utility.yul\":33751:33752   */\n      dup3\n        /* \"#utility.yul\":33747:33756   */\n      mul\n        /* \"#utility.yul\":33776:33806   */\n      tag_683\n        /* \"#utility.yul\":33794:33805   */\n      dup2\n        /* \"#utility.yul\":33776:33806   */\n      tag_272\n      jump\t// in\n    tag_683:\n        /* \"#utility.yul\":33765:33806   */\n      swap2\n      pop\n        /* \"#utility.yul\":33955:33956   */\n      dup3\n        /* \"#utility.yul\":33946:33953   */\n      dup3\n        /* \"#utility.yul\":33942:33957   */\n      div\n        /* \"#utility.yul\":33939:33940   */\n      dup5\n        /* \"#utility.yul\":33936:33958   */\n      eq\n        /* \"#utility.yul\":33916:33917   */\n      dup4\n        /* \"#utility.yul\":33909:33918   */\n      iszero\n        /* \"#utility.yul\":33889:33972   */\n      or\n        /* \"#utility.yul\":33866:34005   */\n      tag_684\n      jumpi\n        /* \"#utility.yul\":33985:34003   */\n      tag_685\n      tag_321\n      jump\t// in\n    tag_685:\n        /* \"#utility.yul\":33866:34005   */\n    tag_684:\n        /* \"#utility.yul\":33650:34012   */\n      pop\n        /* \"#utility.yul\":33602:34012   */\n      swap3\n      swap2\n      pop\n      pop\n      jump\t// out\n\n    auxdata: 0xa26469706673582212205cbe5fbbcb3a745c7cd7574958a627d49730fbdda1efceb1af494db6970f94b764736f6c634300081a0033\n}\n",
				"bytecode": {
					"linkReferences": {},
					"object": "608060405234801561000f575f80fd5b5060405161280138038061280183398181016040528101906100319190610233565b803360015f819055505f73ffffffffffffffffffffffffffffffffffffffff168173ffffffffffffffffffffffffffffffffffffffff16036100aa575f6040517f1e4fbdf70000000000000000000000000000000000000000000000000000000081526004016100a1919061026d565b60405180910390fd5b6100b98161010160201b60201c565b508060025f6101000a81548173ffffffffffffffffffffffffffffffffffffffff021916908373ffffffffffffffffffffffffffffffffffffffff1602179055505050610286565b5f60015f9054906101000a900473ffffffffffffffffffffffffffffffffffffffff1690508160015f6101000a81548173ffffffffffffffffffffffffffffffffffffffff021916908373ffffffffffffffffffffffffffffffffffffffff1602179055508173ffffffffffffffffffffffffffffffffffffffff168173ffffffffffffffffffffffffffffffffffffffff167f8be0079c531659141344cd1fd0a4f28419497f9722a3daafe3b4186f6b6457e060405160405180910390a35050565b5f80fd5b5f73ffffffffffffffffffffffffffffffffffffffff82169050919050565b5f6101f1826101c8565b9050919050565b5f610202826101e7565b9050919050565b610212816101f8565b811461021c575f80fd5b50565b5f8151905061022d81610209565b92915050565b5f60208284031215610248576102476101c4565b5b5f6102558482850161021f565b91505092915050565b610267816101e7565b82525050565b5f6020820190506102805f83018461025e565b92915050565b61256e806102935f395ff3fe608060405234801561000f575f80fd5b50600436106100f3575f3560e01c80637bc7422511610095578063c9d27afe11610064578063c9d27afe14610266578063e13646f014610282578063f2fde38b1461029e578063fc0e3d90146102ba576100f3565b80637bc74225146101db578063817b1cd2146101f9578063821460f5146102175780638da5cb5b14610248576100f3565b80635a55c1f0116100d15780635a55c1f014610167578063715018a61461019757806372f702f3146101a15780637b0472f0146101bf576100f3565b806312b1d5ac146100f75780633ccfd60b1461012d578063521de11714610137575b5f80fd5b610111600480360381019061010c919061145e565b6102d8565b604051610124979695949392919061157b565b60405180910390f35b6101356103b7565b005b610151600480360381019061014c919061171b565b61066a565b60405161015e9190611787565b60405180910390f35b610181600480360381019061017c919061145e565b6107b0565b60405161018e919061189f565b60405180910390f35b61019f610930565b005b6101a9610943565b6040516101b69190611939565b60405180910390f35b6101d960048036038101906101d49190611952565b610968565b005b6101e3610c24565b6040516101f09190611787565b60405180910390f35b610201610c2d565b60405161020e9190611787565b60405180910390f35b610231600480360381019061022c91906119cb565b610c33565b60405161023f9291906119f6565b60405180910390f35b610250610c53565b60405161025d9190611a2c565b60405180910390f35b610280600480360381019061027b9190611a7a565b610c7b565b005b61029c6004803603810190610297919061145e565b610ddb565b005b6102b860048036038101906102b391906119cb565b6110ff565b005b6102c2611183565b6040516102cf9190611ae5565b60405180910390f35b600581815481106102e7575f80fd5b905f5260205f2090600702015f91509050805f01549080600101549080600201805461031290611b2b565b80601f016020809104026020016040519081016040528092919081815260200182805461033e90611b2b565b80156103895780601f1061036057610100808354040283529160200191610389565b820191905f5260205f20905b81548152906001019060200180831161036c57829003601f168201915b505050505090806003015490806004015490806005015490806006015f9054906101000a900460ff16905087565b6103bf6111eb565b5f60045f3373ffffffffffffffffffffffffffffffffffffffff1673ffffffffffffffffffffffffffffffffffffffff1681526020019081526020015f206040518060400160405290815f820154815260200160018201548152505090505f815f015111610462576040517f08c379a000000000000000000000000000000000000000000000000000000000815260040161045990611ba5565b60405180910390fd5b42816020015111156104a9576040517f08c379a00000000000000000000000000000000000000000000000000000000081526004016104a090611c0d565b60405180910390fd5b5f60025f9054906101000a900473ffffffffffffffffffffffffffffffffffffffff1673ffffffffffffffffffffffffffffffffffffffff1663a9059cbb33845f01516040518363ffffffff1660e01b8152600401610509929190611c2b565b6020604051808303815f875af1158015610525573d5f803e3d5ffd5b505050506040513d601f19601f820116820180604052508101906105499190611c66565b90508061058b576040517f08c379a000000000000000000000000000000000000000000000000000000000815260040161058290611cdb565b60405180910390fd5b815f015160035f82825461059f9190611d26565b9250508190555060405180604001604052805f81526020015f81525060045f3373ffffffffffffffffffffffffffffffffffffffff1673ffffffffffffffffffffffffffffffffffffffff1681526020019081526020015f205f820151815f0155602082015181600101559050503373ffffffffffffffffffffffffffffffffffffffff167f7084f5476618d8e60b11ef0d7d3f06914655adb8793e28ff7f018d4c76d505d5835f01516040516106569190611787565b60405180910390a25050610668611238565b565b5f610673611241565b60056040518060e001604052808481526020018581526020018681526020015f81526020015f81526020015f81526020016002808111156106b7576106b6611508565b5b815250908060018154018082558091505060019003905f5260205f2090600702015f909190919091505f820151815f01556020820151816001015560408201518160020190816107079190611eed565b50606082015181600301556080820151816004015560a0820151816005015560c0820151816006015f6101000a81548160ff021916908360028111156107505761074f611508565b5b021790555050505f600160058054905061076a9190611d26565b90507f943cfc0d7b4164938034ad7c61b07bdf41a31b881a7ac54cb1e71b56ee9ebcb3858260405161079d929190611fbc565b60405180910390a1809150509392505050565b6107b86113b9565b81600580549050808210610801576040517f08c379a00000000000000000000000000000000000000000000000000000000081526004016107f890612034565b60405180910390fd5b6005848154811061081557610814612052565b5b905f5260205f2090600702016040518060e00160405290815f82015481526020016001820154815260200160028201805461084f90611b2b565b80601f016020809104026020016040519081016040528092919081815260200182805461087b90611b2b565b80156108c65780601f1061089d576101008083540402835291602001916108c6565b820191905f5260205f20905b8154815290600101906020018083116108a957829003601f168201915b50505050508152602001600382015481526020016004820154815260200160058201548152602001600682015f9054906101000a900460ff16600281111561091157610910611508565b5b600281111561092357610922611508565b5b8152505092505050919050565b610938611241565b6109415f6112c8565b565b60025f9054906101000a900473ffffffffffffffffffffffffffffffffffffffff1681565b6109706111eb565b5f60045f3373ffffffffffffffffffffffffffffffffffffffff1673ffffffffffffffffffffffffffffffffffffffff1681526020019081526020015f205f01541480156109fd57505f60045f3373ffffffffffffffffffffffffffffffffffffffff1673ffffffffffffffffffffffffffffffffffffffff1681526020019081526020015f2060010154145b610a3c576040517f08c379a0000000000000000000000000000000000000000000000000000000008152600401610a33906120c9565b60405180910390fd5b8160045f3373ffffffffffffffffffffffffffffffffffffffff1673ffffffffffffffffffffffffffffffffffffffff1681526020019081526020015f205f01819055508042610a8c91906120e7565b60045f3373ffffffffffffffffffffffffffffffffffffffff1673ffffffffffffffffffffffffffffffffffffffff1681526020019081526020015f20600101819055505f60025f9054906101000a900473ffffffffffffffffffffffffffffffffffffffff1673ffffffffffffffffffffffffffffffffffffffff166323b872dd3330866040518463ffffffff1660e01b8152600401610b2f9392919061211a565b6020604051808303815f875af1158015610b4b573d5f803e3d5ffd5b505050506040513d601f19601f82011682018060405250810190610b6f9190611c66565b905080610bb1576040517f08c379a0000000000000000000000000000000000000000000000000000000008152600401610ba890611cdb565b60405180910390fd5b8260035f828254610bc291906120e7565b925050819055503373ffffffffffffffffffffffffffffffffffffffff167f9e71bc8eea02a63969f509818f2dafb9254532904319f9dbda79b67bd34a5f3d84604051610c0f9190611787565b60405180910390a250610c20611238565b5050565b5f600354905090565b60035481565b6004602052805f5260405f205f91509050805f0154908060010154905082565b5f60015f9054906101000a900473ffffffffffffffffffffffffffffffffffffffff16905090565b81600580549050808210610cc4576040517f08c379a0000000000000000000000000000000000000000000000000000000008152600401610cbb90612034565b60405180910390fd5b5f610ccd611183565b90505f610cd98261138b565b90505f8103610d1d576040517f08c379a0000000000000000000000000000000000000000000000000000000008152600401610d1490612199565b60405180910390fd5b8415610d61578060058781548110610d3857610d37612052565b5b905f5260205f2090600702016004015f828254610d5591906120e7565b92505081905550610d9b565b8060058781548110610d7657610d75612052565b5b905f5260205f2090600702016005015f828254610d9391906120e7565b925050819055505b60058681548110610daf57610dae612052565b5b905f5260205f2090600702016003015f815480929190610dce906121b7565b9190505550505050505050565b80600580549050808210610e24576040517f08c379a0000000000000000000000000000000000000000000000000000000008152600401610e1b90612034565b60405180910390fd5b5f60058481548110610e3957610e38612052565b5b905f5260205f2090600702016040518060e00160405290815f820154815260200160018201548152602001600282018054610e7390611b2b565b80601f0160208091040260200160405190810160405280929190818152602001828054610e9f90611b2b565b8015610eea5780601f10610ec157610100808354040283529160200191610eea565b820191905f5260205f20905b815481529060010190602001808311610ecd57829003601f168201915b50505050508152602001600382015481526020016004820154815260200160058201548152602001600682015f9054906101000a900460ff166002811115610f3557610f34611508565b5b6002811115610f4757610f46611508565b5b815250509050600280811115610f6057610f5f611508565b5b8160c001516002811115610f7757610f76611508565b5b14610fb7576040517f08c379a0000000000000000000000000000000000000000000000000000000008152600401610fae90612248565b60405180910390fd5b42815f01511180610fcc575060328160600151115b61100b576040517f08c379a0000000000000000000000000000000000000000000000000000000008152600401611002906122b0565b60405180910390fd5b8060a001518160800151111561106a575f600585815481106110305761102f612052565b5b905f5260205f2090600702016006015f6101000a81548160ff021916908360028111156110605761105f611508565b5b02179055506110b6565b6001600585815481106110805761107f612052565b5b905f5260205f2090600702016006015f6101000a81548160ff021916908360028111156110b0576110af611508565b5b02179055505b7fb1f9e67f140aa3936e3d32fd3cdb2c5621a1f03b46d535623c90af0a498807818160400151858360c001516040516110f1939291906122ce565b60405180910390a150505050565b611107611241565b5f73ffffffffffffffffffffffffffffffffffffffff168173ffffffffffffffffffffffffffffffffffffffff1603611177575f6040517f1e4fbdf700000000000000000000000000000000000000000000000000000000815260040161116e9190611a2c565b60405180910390fd5b611180816112c8565b50565b61118b611402565b60045f3373ffffffffffffffffffffffffffffffffffffffff1673ffffffffffffffffffffffffffffffffffffffff1681526020019081526020015f206040518060400160405290815f8201548152602001600182015481525050905090565b60025f540361122f576040517f08c379a000000000000000000000000000000000000000000000000000000000815260040161122690612354565b60405180910390fd5b60025f81905550565b60015f81905550565b6112496113b2565b73ffffffffffffffffffffffffffffffffffffffff16611267610c53565b73ffffffffffffffffffffffffffffffffffffffff16146112c65761128a6113b2565b6040517f118cdaa70000000000000000000000000000000000000000000000000000000081526004016112bd9190611a2c565b60405180910390fd5b565b5f60015f9054906101000a900473ffffffffffffffffffffffffffffffffffffffff1690508160015f6101000a81548173ffffffffffffffffffffffffffffffffffffffff021916908373ffffffffffffffffffffffffffffffffffffffff1602179055508173ffffffffffffffffffffffffffffffffffffffff168173ffffffffffffffffffffffffffffffffffffffff167f8be0079c531659141344cd1fd0a4f28419497f9722a3daafe3b4186f6b6457e060405160405180910390a35050565b5f6002826020015161139d91906124ad565b825f01516113ab91906124f7565b9050919050565b5f33905090565b6040518060e001604052805f81526020015f8152602001606081526020015f81526020015f81526020015f81526020015f60028111156113fc576113fb611508565b5b81525090565b60405180604001604052805f81526020015f81525090565b5f604051905090565b5f80fd5b5f80fd5b5f819050919050565b61143d8161142b565b8114611447575f80fd5b50565b5f8135905061145881611434565b92915050565b5f6020828403121561147357611472611423565b5b5f6114808482850161144a565b91505092915050565b6114928161142b565b82525050565b5f81519050919050565b5f82825260208201905092915050565b8281835e5f83830152505050565b5f601f19601f8301169050919050565b5f6114da82611498565b6114e481856114a2565b93506114f48185602086016114b2565b6114fd816114c0565b840191505092915050565b7f4e487b71000000000000000000000000000000000000000000000000000000005f52602160045260245ffd5b6003811061154657611545611508565b5b50565b5f81905061155682611535565b919050565b5f61156582611549565b9050919050565b6115758161155b565b82525050565b5f60e08201905061158e5f83018a611489565b61159b6020830189611489565b81810360408301526115ad81886114d0565b90506115bc6060830187611489565b6115c96080830186611489565b6115d660a0830185611489565b6115e360c083018461156c565b98975050505050505050565b5f80fd5b5f80fd5b7f4e487b71000000000000000000000000000000000000000000000000000000005f52604160045260245ffd5b61162d826114c0565b810181811067ffffffffffffffff8211171561164c5761164b6115f7565b5b80604052505050565b5f61165e61141a565b905061166a8282611624565b919050565b5f67ffffffffffffffff821115611689576116886115f7565b5b611692826114c0565b9050602081019050919050565b828183375f83830152505050565b5f6116bf6116ba8461166f565b611655565b9050828152602081018484840111156116db576116da6115f3565b5b6116e684828561169f565b509392505050565b5f82601f830112611702576117016115ef565b5b81356117128482602086016116ad565b91505092915050565b5f805f6060848603121561173257611731611423565b5b5f84013567ffffffffffffffff81111561174f5761174e611427565b5b61175b868287016116ee565b935050602061176c8682870161144a565b925050604061177d8682870161144a565b9150509250925092565b5f60208201905061179a5f830184611489565b92915050565b6117a98161142b565b82525050565b5f82825260208201905092915050565b5f6117c982611498565b6117d381856117af565b93506117e38185602086016114b2565b6117ec816114c0565b840191505092915050565b6118008161155b565b82525050565b5f60e083015f83015161181b5f8601826117a0565b50602083015161182e60208601826117a0565b506040830151848203604086015261184682826117bf565b915050606083015161185b60608601826117a0565b50608083015161186e60808601826117a0565b5060a083015161188160a08601826117a0565b5060c083015161189460c08601826117f7565b508091505092915050565b5f6020820190508181035f8301526118b78184611806565b905092915050565b5f73ffffffffffffffffffffffffffffffffffffffff82169050919050565b5f819050919050565b5f6119016118fc6118f7846118bf565b6118de565b6118bf565b9050919050565b5f611912826118e7565b9050919050565b5f61192382611908565b9050919050565b61193381611919565b82525050565b5f60208201905061194c5f83018461192a565b92915050565b5f806040838503121561196857611967611423565b5b5f6119758582860161144a565b92505060206119868582860161144a565b9150509250929050565b5f61199a826118bf565b9050919050565b6119aa81611990565b81146119b4575f80fd5b50565b5f813590506119c5816119a1565b92915050565b5f602082840312156119e0576119df611423565b5b5f6119ed848285016119b7565b91505092915050565b5f604082019050611a095f830185611489565b611a166020830184611489565b9392505050565b611a2681611990565b82525050565b5f602082019050611a3f5f830184611a1d565b92915050565b5f8115159050919050565b611a5981611a45565b8114611a63575f80fd5b50565b5f81359050611a7481611a50565b92915050565b5f8060408385031215611a9057611a8f611423565b5b5f611a9d8582860161144a565b9250506020611aae85828601611a66565b9150509250929050565b604082015f820151611acc5f8501826117a0565b506020820151611adf60208501826117a0565b50505050565b5f604082019050611af85f830184611ab8565b92915050565b7f4e487b71000000000000000000000000000000000000000000000000000000005f52602260045260245ffd5b5f6002820490506001821680611b4257607f821691505b602082108103611b5557611b54611afe565b5b50919050565b7f43616e6e6f7420776974686472617720300000000000000000000000000000005f82015250565b5f611b8f6011836114a2565b9150611b9a82611b5b565b602082019050919050565b5f6020820190508181035f830152611bbc81611b83565b9050919050565b7f546f6f206561726c7920776974686472617721000000000000000000000000005f82015250565b5f611bf76013836114a2565b9150611c0282611bc3565b602082019050919050565b5f6020820190508181035f830152611c2481611beb565b9050919050565b5f604082019050611c3e5f830185611a1d565b611c4b6020830184611489565b9392505050565b5f81519050611c6081611a50565b92915050565b5f60208284031215611c7b57611c7a611423565b5b5f611c8884828501611c52565b91505092915050565b7f5472616e73666572206661696c656400000000000000000000000000000000005f82015250565b5f611cc5600f836114a2565b9150611cd082611c91565b602082019050919050565b5f6020820190508181035f830152611cf281611cb9565b9050919050565b7f4e487b71000000000000000000000000000000000000000000000000000000005f52601160045260245ffd5b5f611d308261142b565b9150611d3b8361142b565b9250828203905081811115611d5357611d52611cf9565b5b92915050565b5f819050815f5260205f209050919050565b5f6020601f8301049050919050565b5f82821b905092915050565b5f60088302611db57fffffffffffffffffffffffffffffffffffffffffffffffffffffffffffffffff82611d7a565b611dbf8683611d7a565b95508019841693508086168417925050509392505050565b5f611df1611dec611de78461142b565b6118de565b61142b565b9050919050565b5f819050919050565b611e0a83611dd7565b611e1e611e1682611df8565b848454611d86565b825550505050565b5f90565b611e32611e26565b611e3d818484611e01565b505050565b5b81811015611e6057611e555f82611e2a565b600181019050611e43565b5050565b601f821115611ea557611e7681611d59565b611e7f84611d6b565b81016020851015611e8e578190505b611ea2611e9a85611d6b565b830182611e42565b50505b505050565b5f82821c905092915050565b5f611ec55f1984600802611eaa565b1980831691505092915050565b5f611edd8383611eb6565b9150826002028217905092915050565b611ef682611498565b67ffffffffffffffff811115611f0f57611f0e6115f7565b5b611f198254611b2b565b611f24828285611e64565b5f60209050601f831160018114611f55575f8415611f43578287015190505b611f4d8582611ed2565b865550611fb4565b601f198416611f6386611d59565b5f5b82811015611f8a57848901518255600182019150602085019450602081019050611f65565b86831015611fa75784890151611fa3601f891682611eb6565b8355505b6001600288020188555050505b505050505050565b5f6040820190508181035f830152611fd481856114d0565b9050611fe36020830184611489565b9392505050565b7f496e646578206f7574206f6620626f756e6473000000000000000000000000005f82015250565b5f61201e6013836114a2565b915061202982611fea565b602082019050919050565b5f6020820190508181035f83015261204b81612012565b9050919050565b7f4e487b71000000000000000000000000000000000000000000000000000000005f52603260045260245ffd5b7f7573657220616c72656164792068617320737461636b696e67000000000000005f82015250565b5f6120b36019836114a2565b91506120be8261207f565b602082019050919050565b5f6020820190508181035f8301526120e0816120a7565b9050919050565b5f6120f18261142b565b91506120fc8361142b565b925082820190508082111561211457612113611cf9565b5b92915050565b5f60608201905061212d5f830186611a1d565b61213a6020830185611a1d565b6121476040830184611489565b949350505050565b7f5a65726f20766f74696e6720706f7765720000000000000000000000000000005f82015250565b5f6121836011836114a2565b915061218e8261214f565b602082019050919050565b5f6020820190508181035f8301526121b081612177565b9050919050565b5f6121c18261142b565b91507fffffffffffffffffffffffffffffffffffffffffffffffffffffffffffffffff82036121f3576121f2611cf9565b5b600182019050919050565b7f416c72656164792066696e6973686564210000000000000000000000000000005f82015250565b5f6122326011836114a2565b915061223d826121fe565b602082019050919050565b5f6020820190508181035f83015261225f81612226565b9050919050565b7f4e6f7220746872657368686f6c64206f7220646561646c696e652100000000005f82015250565b5f61229a601b836114a2565b91506122a582612266565b602082019050919050565b5f6020820190508181035f8301526122c78161228e565b9050919050565b5f6060820190508181035f8301526122e681866114d0565b90506122f56020830185611489565b612302604083018461156c565b949350505050565b7f5265656e7472616e637947756172643a207265656e7472616e742063616c6c005f82015250565b5f61233e601f836114a2565b91506123498261230a565b602082019050919050565b5f6020820190508181035f83015261236b81612332565b9050919050565b5f8160011c9050919050565b5f808291508390505b60018511156123c7578086048111156123a3576123a2611cf9565b5b60018516156123b25780820291505b80810290506123c085612372565b9450612387565b94509492505050565b5f826123df576001905061249a565b816123ec575f905061249a565b8160018114612402576002811461240c5761243b565b600191505061249a565b60ff84111561241e5761241d611cf9565b5b8360020a91508482111561243557612434611cf9565b5b5061249a565b5060208310610133831016604e8410600b84101617156124705782820a90508381111561246b5761246a611cf9565b5b61249a565b61247d848484600161237e565b9250905081840481111561249457612493611cf9565b5b81810290505b9392505050565b5f60ff82169050919050565b5f6124b78261142b565b91506124c2836124a1565b92506124ef7fffffffffffffffffffffffffffffffffffffffffffffffffffffffffffffffff84846123d0565b905092915050565b5f6125018261142b565b915061250c8361142b565b925082820261251a8161142b565b9150828204841483151761253157612530611cf9565b5b509291505056fea26469706673582212205cbe5fbbcb3a745c7cd7574958a627d49730fbdda1efceb1af494db6970f94b764736f6c634300081a0033",
					"opcodes": "PUSH1 0x80 PUSH1 0x40 MSTORE CALLVALUE DUP1 ISZERO PUSH2 0xF JUMPI PUSH0 DUP1 REVERT JUMPDEST POP PUSH1 0x40 MLOAD PUSH2 0x2801 CODESIZE SUB DUP1 PUSH2 0x2801 DUP4 CODECOPY DUP2 DUP2 ADD PUSH1 0x40 MSTORE DUP2 ADD SWAP1 PUSH2 0x31 SWAP2 SWAP1 PUSH2 0x233 JUMP JUMPDEST DUP1 CALLER PUSH1 0x1 PUSH0 DUP2 SWAP1 SSTORE POP PUSH0 PUSH20 0xFFFFFFFFFFFFFFFFFFFFFFFFFFFFFFFFFFFFFFFF AND DUP2 PUSH20 0xFFFFFFFFFFFFFFFFFFFFFFFFFFFFFFFFFFFFFFFF AND SUB PUSH2 0xAA JUMPI PUSH0 PUSH1 0x40 MLOAD PUSH32 0x1E4FBDF700000000000000000000000000000000000000000000000000000000 DUP2 MSTORE PUSH1 0x4 ADD PUSH2 0xA1 SWAP2 SWAP1 PUSH2 0x26D JUMP JUMPDEST PUSH1 0x40 MLOAD DUP1 SWAP2 SUB SWAP1 REVERT JUMPDEST PUSH2 0xB9 DUP2 PUSH2 0x101 PUSH1 0x20 SHL PUSH1 0x20 SHR JUMP JUMPDEST POP DUP1 PUSH1 0x2 PUSH0 PUSH2 0x100 EXP DUP2 SLOAD DUP2 PUSH20 0xFFFFFFFFFFFFFFFFFFFFFFFFFFFFFFFFFFFFFFFF MUL NOT AND SWAP1 DUP4 PUSH20 0xFFFFFFFFFFFFFFFFFFFFFFFFFFFFFFFFFFFFFFFF AND MUL OR SWAP1 SSTORE POP POP POP PUSH2 0x286 JUMP JUMPDEST PUSH0 PUSH1 0x1 PUSH0 SWAP1 SLOAD SWAP1 PUSH2 0x100 EXP SWAP1 DIV PUSH20 0xFFFFFFFFFFFFFFFFFFFFFFFFFFFFFFFFFFFFFFFF AND SWAP1 POP DUP2 PUSH1 0x1 PUSH0 PUSH2 0x100 EXP DUP2 SLOAD DUP2 PUSH20 0xFFFFFFFFFFFFFFFFFFFFFFFFFFFFFFFFFFFFFFFF MUL NOT AND SWAP1 DUP4 PUSH20 0xFFFFFFFFFFFFFFFFFFFFFFFFFFFFFFFFFFFFFFFF AND MUL OR SWAP1 SSTORE POP DUP2 PUSH20 0xFFFFFFFFFFFFFFFFFFFFFFFFFFFFFFFFFFFFFFFF AND DUP2 PUSH20 0xFFFFFFFFFFFFFFFFFFFFFFFFFFFFFFFFFFFFFFFF AND PUSH32 0x8BE0079C531659141344CD1FD0A4F28419497F9722A3DAAFE3B4186F6B6457E0 PUSH1 0x40 MLOAD PUSH1 0x40 MLOAD DUP1 SWAP2 SUB SWAP1 LOG3 POP POP JUMP JUMPDEST PUSH0 DUP1 REVERT JUMPDEST PUSH0 PUSH20 0xFFFFFFFFFFFFFFFFFFFFFFFFFFFFFFFFFFFFFFFF DUP3 AND SWAP1 POP SWAP2 SWAP1 POP JUMP JUMPDEST PUSH0 PUSH2 0x1F1 DUP3 PUSH2 0x1C8 JUMP JUMPDEST SWAP1 POP SWAP2 SWAP1 POP JUMP JUMPDEST PUSH0 PUSH2 0x202 DUP3 PUSH2 0x1E7 JUMP JUMPDEST SWAP1 POP SWAP2 SWAP1 POP JUMP JUMPDEST PUSH2 0x212 DUP2 PUSH2 0x1F8 JUMP JUMPDEST DUP2 EQ PUSH2 0x21C JUMPI PUSH0 DUP1 REVERT JUMPDEST POP JUMP JUMPDEST PUSH0 DUP2 MLOAD SWAP1 POP PUSH2 0x22D DUP2 PUSH2 0x209 JUMP JUMPDEST SWAP3 SWAP2 POP POP JUMP JUMPDEST PUSH0 PUSH1 0x20 DUP3 DUP5 SUB SLT ISZERO PUSH2 0x248 JUMPI PUSH2 0x247 PUSH2 0x1C4 JUMP JUMPDEST JUMPDEST PUSH0 PUSH2 0x255 DUP5 DUP3 DUP6 ADD PUSH2 0x21F JUMP JUMPDEST SWAP2 POP POP SWAP3 SWAP2 POP POP JUMP JUMPDEST PUSH2 0x267 DUP2 PUSH2 0x1E7 JUMP JUMPDEST DUP3 MSTORE POP POP JUMP JUMPDEST PUSH0 PUSH1 0x20 DUP3 ADD SWAP1 POP PUSH2 0x280 PUSH0 DUP4 ADD DUP5 PUSH2 0x25E JUMP JUMPDEST SWAP3 SWAP2 POP POP JUMP JUMPDEST PUSH2 0x256E DUP1 PUSH2 0x293 PUSH0 CODECOPY PUSH0 RETURN INVALID PUSH1 0x80 PUSH1 0x40 MSTORE CALLVALUE DUP1 ISZERO PUSH2 0xF JUMPI PUSH0 DUP1 REVERT JUMPDEST POP PUSH1 0x4 CALLDATASIZE LT PUSH2 0xF3 JUMPI PUSH0 CALLDATALOAD PUSH1 0xE0 SHR DUP1 PUSH4 0x7BC74225 GT PUSH2 0x95 JUMPI DUP1 PUSH4 0xC9D27AFE GT PUSH2 0x64 JUMPI DUP1 PUSH4 0xC9D27AFE EQ PUSH2 0x266 JUMPI DUP1 PUSH4 0xE13646F0 EQ PUSH2 0x282 JUMPI DUP1 PUSH4 0xF2FDE38B EQ PUSH2 0x29E JUMPI DUP1 PUSH4 0xFC0E3D90 EQ PUSH2 0x2BA JUMPI PUSH2 0xF3 JUMP JUMPDEST DUP1 PUSH4 0x7BC74225 EQ PUSH2 0x1DB JUMPI DUP1 PUSH4 0x817B1CD2 EQ PUSH2 0x1F9 JUMPI DUP1 PUSH4 0x821460F5 EQ PUSH2 0x217 JUMPI DUP1 PUSH4 0x8DA5CB5B EQ PUSH2 0x248 JUMPI PUSH2 0xF3 JUMP JUMPDEST DUP1 PUSH4 0x5A55C1F0 GT PUSH2 0xD1 JUMPI DUP1 PUSH4 0x5A55C1F0 EQ PUSH2 0x167 JUMPI DUP1 PUSH4 0x715018A6 EQ PUSH2 0x197 JUMPI DUP1 PUSH4 0x72F702F3 EQ PUSH2 0x1A1 JUMPI DUP1 PUSH4 0x7B0472F0 EQ PUSH2 0x1BF JUMPI PUSH2 0xF3 JUMP JUMPDEST DUP1 PUSH4 0x12B1D5AC EQ PUSH2 0xF7 JUMPI DUP1 PUSH4 0x3CCFD60B EQ PUSH2 0x12D JUMPI DUP1 PUSH4 0x521DE117 EQ PUSH2 0x137 JUMPI JUMPDEST PUSH0 DUP1 REVERT JUMPDEST PUSH2 0x111 PUSH1 0x4 DUP1 CALLDATASIZE SUB DUP2 ADD SWAP1 PUSH2 0x10C SWAP2 SWAP1 PUSH2 0x145E JUMP JUMPDEST PUSH2 0x2D8 JUMP JUMPDEST PUSH1 0x40 MLOAD PUSH2 0x124 SWAP8 SWAP7 SWAP6 SWAP5 SWAP4 SWAP3 SWAP2 SWAP1 PUSH2 0x157B JUMP JUMPDEST PUSH1 0x40 MLOAD DUP1 SWAP2 SUB SWAP1 RETURN JUMPDEST PUSH2 0x135 PUSH2 0x3B7 JUMP JUMPDEST STOP JUMPDEST PUSH2 0x151 PUSH1 0x4 DUP1 CALLDATASIZE SUB DUP2 ADD SWAP1 PUSH2 0x14C SWAP2 SWAP1 PUSH2 0x171B JUMP JUMPDEST PUSH2 0x66A JUMP JUMPDEST PUSH1 0x40 MLOAD PUSH2 0x15E SWAP2 SWAP1 PUSH2 0x1787 JUMP JUMPDEST PUSH1 0x40 MLOAD DUP1 SWAP2 SUB SWAP1 RETURN JUMPDEST PUSH2 0x181 PUSH1 0x4 DUP1 CALLDATASIZE SUB DUP2 ADD SWAP1 PUSH2 0x17C SWAP2 SWAP1 PUSH2 0x145E JUMP JUMPDEST PUSH2 0x7B0 JUMP JUMPDEST PUSH1 0x40 MLOAD PUSH2 0x18E SWAP2 SWAP1 PUSH2 0x189F JUMP JUMPDEST PUSH1 0x40 MLOAD DUP1 SWAP2 SUB SWAP1 RETURN JUMPDEST PUSH2 0x19F PUSH2 0x930 JUMP JUMPDEST STOP JUMPDEST PUSH2 0x1A9 PUSH2 0x943 JUMP JUMPDEST PUSH1 0x40 MLOAD PUSH2 0x1B6 SWAP2 SWAP1 PUSH2 0x1939 JUMP JUMPDEST PUSH1 0x40 MLOAD DUP1 SWAP2 SUB SWAP1 RETURN JUMPDEST PUSH2 0x1D9 PUSH1 0x4 DUP1 CALLDATASIZE SUB DUP2 ADD SWAP1 PUSH2 0x1D4 SWAP2 SWAP1 PUSH2 0x1952 JUMP JUMPDEST PUSH2 0x968 JUMP JUMPDEST STOP JUMPDEST PUSH2 0x1E3 PUSH2 0xC24 JUMP JUMPDEST PUSH1 0x40 MLOAD PUSH2 0x1F0 SWAP2 SWAP1 PUSH2 0x1787 JUMP JUMPDEST PUSH1 0x40 MLOAD DUP1 SWAP2 SUB SWAP1 RETURN JUMPDEST PUSH2 0x201 PUSH2 0xC2D JUMP JUMPDEST PUSH1 0x40 MLOAD PUSH2 0x20E SWAP2 SWAP1 PUSH2 0x1787 JUMP JUMPDEST PUSH1 0x40 MLOAD DUP1 SWAP2 SUB SWAP1 RETURN JUMPDEST PUSH2 0x231 PUSH1 0x4 DUP1 CALLDATASIZE SUB DUP2 ADD SWAP1 PUSH2 0x22C SWAP2 SWAP1 PUSH2 0x19CB JUMP JUMPDEST PUSH2 0xC33 JUMP JUMPDEST PUSH1 0x40 MLOAD PUSH2 0x23F SWAP3 SWAP2 SWAP1 PUSH2 0x19F6 JUMP JUMPDEST PUSH1 0x40 MLOAD DUP1 SWAP2 SUB SWAP1 RETURN JUMPDEST PUSH2 0x250 PUSH2 0xC53 JUMP JUMPDEST PUSH1 0x40 MLOAD PUSH2 0x25D SWAP2 SWAP1 PUSH2 0x1A2C JUMP JUMPDEST PUSH1 0x40 MLOAD DUP1 SWAP2 SUB SWAP1 RETURN JUMPDEST PUSH2 0x280 PUSH1 0x4 DUP1 CALLDATASIZE SUB DUP2 ADD SWAP1 PUSH2 0x27B SWAP2 SWAP1 PUSH2 0x1A7A JUMP JUMPDEST PUSH2 0xC7B JUMP JUMPDEST STOP JUMPDEST PUSH2 0x29C PUSH1 0x4 DUP1 CALLDATASIZE SUB DUP2 ADD SWAP1 PUSH2 0x297 SWAP2 SWAP1 PUSH2 0x145E JUMP JUMPDEST PUSH2 0xDDB JUMP JUMPDEST STOP JUMPDEST PUSH2 0x2B8 PUSH1 0x4 DUP1 CALLDATASIZE SUB DUP2 ADD SWAP1 PUSH2 0x2B3 SWAP2 SWAP1 PUSH2 0x19CB JUMP JUMPDEST PUSH2 0x10FF JUMP JUMPDEST STOP JUMPDEST PUSH2 0x2C2 PUSH2 0x1183 JUMP JUMPDEST PUSH1 0x40 MLOAD PUSH2 0x2CF SWAP2 SWAP1 PUSH2 0x1AE5 JUMP JUMPDEST PUSH1 0x40 MLOAD DUP1 SWAP2 SUB SWAP1 RETURN JUMPDEST PUSH1 0x5 DUP2 DUP2 SLOAD DUP2 LT PUSH2 0x2E7 JUMPI PUSH0 DUP1 REVERT JUMPDEST SWAP1 PUSH0 MSTORE PUSH1 0x20 PUSH0 KECCAK256 SWAP1 PUSH1 0x7 MUL ADD PUSH0 SWAP2 POP SWAP1 POP DUP1 PUSH0 ADD SLOAD SWAP1 DUP1 PUSH1 0x1 ADD SLOAD SWAP1 DUP1 PUSH1 0x2 ADD DUP1 SLOAD PUSH2 0x312 SWAP1 PUSH2 0x1B2B JUMP JUMPDEST DUP1 PUSH1 0x1F ADD PUSH1 0x20 DUP1 SWAP2 DIV MUL PUSH1 0x20 ADD PUSH1 0x40 MLOAD SWAP1 DUP2 ADD PUSH1 0x40 MSTORE DUP1 SWAP3 SWAP2 SWAP1 DUP2 DUP2 MSTORE PUSH1 0x20 ADD DUP3 DUP1 SLOAD PUSH2 0x33E SWAP1 PUSH2 0x1B2B JUMP JUMPDEST DUP1 ISZERO PUSH2 0x389 JUMPI DUP1 PUSH1 0x1F LT PUSH2 0x360 JUMPI PUSH2 0x100 DUP1 DUP4 SLOAD DIV MUL DUP4 MSTORE SWAP2 PUSH1 0x20 ADD SWAP2 PUSH2 0x389 JUMP JUMPDEST DUP3 ADD SWAP2 SWAP1 PUSH0 MSTORE PUSH1 0x20 PUSH0 KECCAK256 SWAP1 JUMPDEST DUP2 SLOAD DUP2 MSTORE SWAP1 PUSH1 0x1 ADD SWAP1 PUSH1 0x20 ADD DUP1 DUP4 GT PUSH2 0x36C JUMPI DUP3 SWAP1 SUB PUSH1 0x1F AND DUP3 ADD SWAP2 JUMPDEST POP POP POP POP POP SWAP1 DUP1 PUSH1 0x3 ADD SLOAD SWAP1 DUP1 PUSH1 0x4 ADD SLOAD SWAP1 DUP1 PUSH1 0x5 ADD SLOAD SWAP1 DUP1 PUSH1 0x6 ADD PUSH0 SWAP1 SLOAD SWAP1 PUSH2 0x100 EXP SWAP1 DIV PUSH1 0xFF AND SWAP1 POP DUP8 JUMP JUMPDEST PUSH2 0x3BF PUSH2 0x11EB JUMP JUMPDEST PUSH0 PUSH1 0x4 PUSH0 CALLER PUSH20 0xFFFFFFFFFFFFFFFFFFFFFFFFFFFFFFFFFFFFFFFF AND PUSH20 0xFFFFFFFFFFFFFFFFFFFFFFFFFFFFFFFFFFFFFFFF AND DUP2 MSTORE PUSH1 0x20 ADD SWAP1 DUP2 MSTORE PUSH1 0x20 ADD PUSH0 KECCAK256 PUSH1 0x40 MLOAD DUP1 PUSH1 0x40 ADD PUSH1 0x40 MSTORE SWAP1 DUP2 PUSH0 DUP3 ADD SLOAD DUP2 MSTORE PUSH1 0x20 ADD PUSH1 0x1 DUP3 ADD SLOAD DUP2 MSTORE POP POP SWAP1 POP PUSH0 DUP2 PUSH0 ADD MLOAD GT PUSH2 0x462 JUMPI PUSH1 0x40 MLOAD PUSH32 0x8C379A000000000000000000000000000000000000000000000000000000000 DUP2 MSTORE PUSH1 0x4 ADD PUSH2 0x459 SWAP1 PUSH2 0x1BA5 JUMP JUMPDEST PUSH1 0x40 MLOAD DUP1 SWAP2 SUB SWAP1 REVERT JUMPDEST TIMESTAMP DUP2 PUSH1 0x20 ADD MLOAD GT ISZERO PUSH2 0x4A9 JUMPI PUSH1 0x40 MLOAD PUSH32 0x8C379A000000000000000000000000000000000000000000000000000000000 DUP2 MSTORE PUSH1 0x4 ADD PUSH2 0x4A0 SWAP1 PUSH2 0x1C0D JUMP JUMPDEST PUSH1 0x40 MLOAD DUP1 SWAP2 SUB SWAP1 REVERT JUMPDEST PUSH0 PUSH1 0x2 PUSH0 SWAP1 SLOAD SWAP1 PUSH2 0x100 EXP SWAP1 DIV PUSH20 0xFFFFFFFFFFFFFFFFFFFFFFFFFFFFFFFFFFFFFFFF AND PUSH20 0xFFFFFFFFFFFFFFFFFFFFFFFFFFFFFFFFFFFFFFFF AND PUSH4 0xA9059CBB CALLER DUP5 PUSH0 ADD MLOAD PUSH1 0x40 MLOAD DUP4 PUSH4 0xFFFFFFFF AND PUSH1 0xE0 SHL DUP2 MSTORE PUSH1 0x4 ADD PUSH2 0x509 SWAP3 SWAP2 SWAP1 PUSH2 0x1C2B JUMP JUMPDEST PUSH1 0x20 PUSH1 0x40 MLOAD DUP1 DUP4 SUB DUP2 PUSH0 DUP8 GAS CALL ISZERO DUP1 ISZERO PUSH2 0x525 JUMPI RETURNDATASIZE PUSH0 DUP1 RETURNDATACOPY RETURNDATASIZE PUSH0 REVERT JUMPDEST POP POP POP POP PUSH1 0x40 MLOAD RETURNDATASIZE PUSH1 0x1F NOT PUSH1 0x1F DUP3 ADD AND DUP3 ADD DUP1 PUSH1 0x40 MSTORE POP DUP2 ADD SWAP1 PUSH2 0x549 SWAP2 SWAP1 PUSH2 0x1C66 JUMP JUMPDEST SWAP1 POP DUP1 PUSH2 0x58B JUMPI PUSH1 0x40 MLOAD PUSH32 0x8C379A000000000000000000000000000000000000000000000000000000000 DUP2 MSTORE PUSH1 0x4 ADD PUSH2 0x582 SWAP1 PUSH2 0x1CDB JUMP JUMPDEST PUSH1 0x40 MLOAD DUP1 SWAP2 SUB SWAP1 REVERT JUMPDEST DUP2 PUSH0 ADD MLOAD PUSH1 0x3 PUSH0 DUP3 DUP3 SLOAD PUSH2 0x59F SWAP2 SWAP1 PUSH2 0x1D26 JUMP JUMPDEST SWAP3 POP POP DUP2 SWAP1 SSTORE POP PUSH1 0x40 MLOAD DUP1 PUSH1 0x40 ADD PUSH1 0x40 MSTORE DUP1 PUSH0 DUP2 MSTORE PUSH1 0x20 ADD PUSH0 DUP2 MSTORE POP PUSH1 0x4 PUSH0 CALLER PUSH20 0xFFFFFFFFFFFFFFFFFFFFFFFFFFFFFFFFFFFFFFFF AND PUSH20 0xFFFFFFFFFFFFFFFFFFFFFFFFFFFFFFFFFFFFFFFF AND DUP2 MSTORE PUSH1 0x20 ADD SWAP1 DUP2 MSTORE PUSH1 0x20 ADD PUSH0 KECCAK256 PUSH0 DUP3 ADD MLOAD DUP2 PUSH0 ADD SSTORE PUSH1 0x20 DUP3 ADD MLOAD DUP2 PUSH1 0x1 ADD SSTORE SWAP1 POP POP CALLER PUSH20 0xFFFFFFFFFFFFFFFFFFFFFFFFFFFFFFFFFFFFFFFF AND PUSH32 0x7084F5476618D8E60B11EF0D7D3F06914655ADB8793E28FF7F018D4C76D505D5 DUP4 PUSH0 ADD MLOAD PUSH1 0x40 MLOAD PUSH2 0x656 SWAP2 SWAP1 PUSH2 0x1787 JUMP JUMPDEST PUSH1 0x40 MLOAD DUP1 SWAP2 SUB SWAP1 LOG2 POP POP PUSH2 0x668 PUSH2 0x1238 JUMP JUMPDEST JUMP JUMPDEST PUSH0 PUSH2 0x673 PUSH2 0x1241 JUMP JUMPDEST PUSH1 0x5 PUSH1 0x40 MLOAD DUP1 PUSH1 0xE0 ADD PUSH1 0x40 MSTORE DUP1 DUP5 DUP2 MSTORE PUSH1 0x20 ADD DUP6 DUP2 MSTORE PUSH1 0x20 ADD DUP7 DUP2 MSTORE PUSH1 0x20 ADD PUSH0 DUP2 MSTORE PUSH1 0x20 ADD PUSH0 DUP2 MSTORE PUSH1 0x20 ADD PUSH0 DUP2 MSTORE PUSH1 0x20 ADD PUSH1 0x2 DUP1 DUP2 GT ISZERO PUSH2 0x6B7 JUMPI PUSH2 0x6B6 PUSH2 0x1508 JUMP JUMPDEST JUMPDEST DUP2 MSTORE POP SWAP1 DUP1 PUSH1 0x1 DUP2 SLOAD ADD DUP1 DUP3 SSTORE DUP1 SWAP2 POP POP PUSH1 0x1 SWAP1 SUB SWAP1 PUSH0 MSTORE PUSH1 0x20 PUSH0 KECCAK256 SWAP1 PUSH1 0x7 MUL ADD PUSH0 SWAP1 SWAP2 SWAP1 SWAP2 SWAP1 SWAP2 POP PUSH0 DUP3 ADD MLOAD DUP2 PUSH0 ADD SSTORE PUSH1 0x20 DUP3 ADD MLOAD DUP2 PUSH1 0x1 ADD SSTORE PUSH1 0x40 DUP3 ADD MLOAD DUP2 PUSH1 0x2 ADD SWAP1 DUP2 PUSH2 0x707 SWAP2 SWAP1 PUSH2 0x1EED JUMP JUMPDEST POP PUSH1 0x60 DUP3 ADD MLOAD DUP2 PUSH1 0x3 ADD SSTORE PUSH1 0x80 DUP3 ADD MLOAD DUP2 PUSH1 0x4 ADD SSTORE PUSH1 0xA0 DUP3 ADD MLOAD DUP2 PUSH1 0x5 ADD SSTORE PUSH1 0xC0 DUP3 ADD MLOAD DUP2 PUSH1 0x6 ADD PUSH0 PUSH2 0x100 EXP DUP2 SLOAD DUP2 PUSH1 0xFF MUL NOT AND SWAP1 DUP4 PUSH1 0x2 DUP2 GT ISZERO PUSH2 0x750 JUMPI PUSH2 0x74F PUSH2 0x1508 JUMP JUMPDEST JUMPDEST MUL OR SWAP1 SSTORE POP POP POP PUSH0 PUSH1 0x1 PUSH1 0x5 DUP1 SLOAD SWAP1 POP PUSH2 0x76A SWAP2 SWAP1 PUSH2 0x1D26 JUMP JUMPDEST SWAP1 POP PUSH32 0x943CFC0D7B4164938034AD7C61B07BDF41A31B881A7AC54CB1E71B56EE9EBCB3 DUP6 DUP3 PUSH1 0x40 MLOAD PUSH2 0x79D SWAP3 SWAP2 SWAP1 PUSH2 0x1FBC JUMP JUMPDEST PUSH1 0x40 MLOAD DUP1 SWAP2 SUB SWAP1 LOG1 DUP1 SWAP2 POP POP SWAP4 SWAP3 POP POP POP JUMP JUMPDEST PUSH2 0x7B8 PUSH2 0x13B9 JUMP JUMPDEST DUP2 PUSH1 0x5 DUP1 SLOAD SWAP1 POP DUP1 DUP3 LT PUSH2 0x801 JUMPI PUSH1 0x40 MLOAD PUSH32 0x8C379A000000000000000000000000000000000000000000000000000000000 DUP2 MSTORE PUSH1 0x4 ADD PUSH2 0x7F8 SWAP1 PUSH2 0x2034 JUMP JUMPDEST PUSH1 0x40 MLOAD DUP1 SWAP2 SUB SWAP1 REVERT JUMPDEST PUSH1 0x5 DUP5 DUP2 SLOAD DUP2 LT PUSH2 0x815 JUMPI PUSH2 0x814 PUSH2 0x2052 JUMP JUMPDEST JUMPDEST SWAP1 PUSH0 MSTORE PUSH1 0x20 PUSH0 KECCAK256 SWAP1 PUSH1 0x7 MUL ADD PUSH1 0x40 MLOAD DUP1 PUSH1 0xE0 ADD PUSH1 0x40 MSTORE SWAP1 DUP2 PUSH0 DUP3 ADD SLOAD DUP2 MSTORE PUSH1 0x20 ADD PUSH1 0x1 DUP3 ADD SLOAD DUP2 MSTORE PUSH1 0x20 ADD PUSH1 0x2 DUP3 ADD DUP1 SLOAD PUSH2 0x84F SWAP1 PUSH2 0x1B2B JUMP JUMPDEST DUP1 PUSH1 0x1F ADD PUSH1 0x20 DUP1 SWAP2 DIV MUL PUSH1 0x20 ADD PUSH1 0x40 MLOAD SWAP1 DUP2 ADD PUSH1 0x40 MSTORE DUP1 SWAP3 SWAP2 SWAP1 DUP2 DUP2 MSTORE PUSH1 0x20 ADD DUP3 DUP1 SLOAD PUSH2 0x87B SWAP1 PUSH2 0x1B2B JUMP JUMPDEST DUP1 ISZERO PUSH2 0x8C6 JUMPI DUP1 PUSH1 0x1F LT PUSH2 0x89D JUMPI PUSH2 0x100 DUP1 DUP4 SLOAD DIV MUL DUP4 MSTORE SWAP2 PUSH1 0x20 ADD SWAP2 PUSH2 0x8C6 JUMP JUMPDEST DUP3 ADD SWAP2 SWAP1 PUSH0 MSTORE PUSH1 0x20 PUSH0 KECCAK256 SWAP1 JUMPDEST DUP2 SLOAD DUP2 MSTORE SWAP1 PUSH1 0x1 ADD SWAP1 PUSH1 0x20 ADD DUP1 DUP4 GT PUSH2 0x8A9 JUMPI DUP3 SWAP1 SUB PUSH1 0x1F AND DUP3 ADD SWAP2 JUMPDEST POP POP POP POP POP DUP2 MSTORE PUSH1 0x20 ADD PUSH1 0x3 DUP3 ADD SLOAD DUP2 MSTORE PUSH1 0x20 ADD PUSH1 0x4 DUP3 ADD SLOAD DUP2 MSTORE PUSH1 0x20 ADD PUSH1 0x5 DUP3 ADD SLOAD DUP2 MSTORE PUSH1 0x20 ADD PUSH1 0x6 DUP3 ADD PUSH0 SWAP1 SLOAD SWAP1 PUSH2 0x100 EXP SWAP1 DIV PUSH1 0xFF AND PUSH1 0x2 DUP2 GT ISZERO PUSH2 0x911 JUMPI PUSH2 0x910 PUSH2 0x1508 JUMP JUMPDEST JUMPDEST PUSH1 0x2 DUP2 GT ISZERO PUSH2 0x923 JUMPI PUSH2 0x922 PUSH2 0x1508 JUMP JUMPDEST JUMPDEST DUP2 MSTORE POP POP SWAP3 POP POP POP SWAP2 SWAP1 POP JUMP JUMPDEST PUSH2 0x938 PUSH2 0x1241 JUMP JUMPDEST PUSH2 0x941 PUSH0 PUSH2 0x12C8 JUMP JUMPDEST JUMP JUMPDEST PUSH1 0x2 PUSH0 SWAP1 SLOAD SWAP1 PUSH2 0x100 EXP SWAP1 DIV PUSH20 0xFFFFFFFFFFFFFFFFFFFFFFFFFFFFFFFFFFFFFFFF AND DUP2 JUMP JUMPDEST PUSH2 0x970 PUSH2 0x11EB JUMP JUMPDEST PUSH0 PUSH1 0x4 PUSH0 CALLER PUSH20 0xFFFFFFFFFFFFFFFFFFFFFFFFFFFFFFFFFFFFFFFF AND PUSH20 0xFFFFFFFFFFFFFFFFFFFFFFFFFFFFFFFFFFFFFFFF AND DUP2 MSTORE PUSH1 0x20 ADD SWAP1 DUP2 MSTORE PUSH1 0x20 ADD PUSH0 KECCAK256 PUSH0 ADD SLOAD EQ DUP1 ISZERO PUSH2 0x9FD JUMPI POP PUSH0 PUSH1 0x4 PUSH0 CALLER PUSH20 0xFFFFFFFFFFFFFFFFFFFFFFFFFFFFFFFFFFFFFFFF AND PUSH20 0xFFFFFFFFFFFFFFFFFFFFFFFFFFFFFFFFFFFFFFFF AND DUP2 MSTORE PUSH1 0x20 ADD SWAP1 DUP2 MSTORE PUSH1 0x20 ADD PUSH0 KECCAK256 PUSH1 0x1 ADD SLOAD EQ JUMPDEST PUSH2 0xA3C JUMPI PUSH1 0x40 MLOAD PUSH32 0x8C379A000000000000000000000000000000000000000000000000000000000 DUP2 MSTORE PUSH1 0x4 ADD PUSH2 0xA33 SWAP1 PUSH2 0x20C9 JUMP JUMPDEST PUSH1 0x40 MLOAD DUP1 SWAP2 SUB SWAP1 REVERT JUMPDEST DUP2 PUSH1 0x4 PUSH0 CALLER PUSH20 0xFFFFFFFFFFFFFFFFFFFFFFFFFFFFFFFFFFFFFFFF AND PUSH20 0xFFFFFFFFFFFFFFFFFFFFFFFFFFFFFFFFFFFFFFFF AND DUP2 MSTORE PUSH1 0x20 ADD SWAP1 DUP2 MSTORE PUSH1 0x20 ADD PUSH0 KECCAK256 PUSH0 ADD DUP2 SWAP1 SSTORE POP DUP1 TIMESTAMP PUSH2 0xA8C SWAP2 SWAP1 PUSH2 0x20E7 JUMP JUMPDEST PUSH1 0x4 PUSH0 CALLER PUSH20 0xFFFFFFFFFFFFFFFFFFFFFFFFFFFFFFFFFFFFFFFF AND PUSH20 0xFFFFFFFFFFFFFFFFFFFFFFFFFFFFFFFFFFFFFFFF AND DUP2 MSTORE PUSH1 0x20 ADD SWAP1 DUP2 MSTORE PUSH1 0x20 ADD PUSH0 KECCAK256 PUSH1 0x1 ADD DUP2 SWAP1 SSTORE POP PUSH0 PUSH1 0x2 PUSH0 SWAP1 SLOAD SWAP1 PUSH2 0x100 EXP SWAP1 DIV PUSH20 0xFFFFFFFFFFFFFFFFFFFFFFFFFFFFFFFFFFFFFFFF AND PUSH20 0xFFFFFFFFFFFFFFFFFFFFFFFFFFFFFFFFFFFFFFFF AND PUSH4 0x23B872DD CALLER ADDRESS DUP7 PUSH1 0x40 MLOAD DUP5 PUSH4 0xFFFFFFFF AND PUSH1 0xE0 SHL DUP2 MSTORE PUSH1 0x4 ADD PUSH2 0xB2F SWAP4 SWAP3 SWAP2 SWAP1 PUSH2 0x211A JUMP JUMPDEST PUSH1 0x20 PUSH1 0x40 MLOAD DUP1 DUP4 SUB DUP2 PUSH0 DUP8 GAS CALL ISZERO DUP1 ISZERO PUSH2 0xB4B JUMPI RETURNDATASIZE PUSH0 DUP1 RETURNDATACOPY RETURNDATASIZE PUSH0 REVERT JUMPDEST POP POP POP POP PUSH1 0x40 MLOAD RETURNDATASIZE PUSH1 0x1F NOT PUSH1 0x1F DUP3 ADD AND DUP3 ADD DUP1 PUSH1 0x40 MSTORE POP DUP2 ADD SWAP1 PUSH2 0xB6F SWAP2 SWAP1 PUSH2 0x1C66 JUMP JUMPDEST SWAP1 POP DUP1 PUSH2 0xBB1 JUMPI PUSH1 0x40 MLOAD PUSH32 0x8C379A000000000000000000000000000000000000000000000000000000000 DUP2 MSTORE PUSH1 0x4 ADD PUSH2 0xBA8 SWAP1 PUSH2 0x1CDB JUMP JUMPDEST PUSH1 0x40 MLOAD DUP1 SWAP2 SUB SWAP1 REVERT JUMPDEST DUP3 PUSH1 0x3 PUSH0 DUP3 DUP3 SLOAD PUSH2 0xBC2 SWAP2 SWAP1 PUSH2 0x20E7 JUMP JUMPDEST SWAP3 POP POP DUP2 SWAP1 SSTORE POP CALLER PUSH20 0xFFFFFFFFFFFFFFFFFFFFFFFFFFFFFFFFFFFFFFFF AND PUSH32 0x9E71BC8EEA02A63969F509818F2DAFB9254532904319F9DBDA79B67BD34A5F3D DUP5 PUSH1 0x40 MLOAD PUSH2 0xC0F SWAP2 SWAP1 PUSH2 0x1787 JUMP JUMPDEST PUSH1 0x40 MLOAD DUP1 SWAP2 SUB SWAP1 LOG2 POP PUSH2 0xC20 PUSH2 0x1238 JUMP JUMPDEST POP POP JUMP JUMPDEST PUSH0 PUSH1 0x3 SLOAD SWAP1 POP SWAP1 JUMP JUMPDEST PUSH1 0x3 SLOAD DUP2 JUMP JUMPDEST PUSH1 0x4 PUSH1 0x20 MSTORE DUP1 PUSH0 MSTORE PUSH1 0x40 PUSH0 KECCAK256 PUSH0 SWAP2 POP SWAP1 POP DUP1 PUSH0 ADD SLOAD SWAP1 DUP1 PUSH1 0x1 ADD SLOAD SWAP1 POP DUP3 JUMP JUMPDEST PUSH0 PUSH1 0x1 PUSH0 SWAP1 SLOAD SWAP1 PUSH2 0x100 EXP SWAP1 DIV PUSH20 0xFFFFFFFFFFFFFFFFFFFFFFFFFFFFFFFFFFFFFFFF AND SWAP1 POP SWAP1 JUMP JUMPDEST DUP2 PUSH1 0x5 DUP1 SLOAD SWAP1 POP DUP1 DUP3 LT PUSH2 0xCC4 JUMPI PUSH1 0x40 MLOAD PUSH32 0x8C379A000000000000000000000000000000000000000000000000000000000 DUP2 MSTORE PUSH1 0x4 ADD PUSH2 0xCBB SWAP1 PUSH2 0x2034 JUMP JUMPDEST PUSH1 0x40 MLOAD DUP1 SWAP2 SUB SWAP1 REVERT JUMPDEST PUSH0 PUSH2 0xCCD PUSH2 0x1183 JUMP JUMPDEST SWAP1 POP PUSH0 PUSH2 0xCD9 DUP3 PUSH2 0x138B JUMP JUMPDEST SWAP1 POP PUSH0 DUP2 SUB PUSH2 0xD1D JUMPI PUSH1 0x40 MLOAD PUSH32 0x8C379A000000000000000000000000000000000000000000000000000000000 DUP2 MSTORE PUSH1 0x4 ADD PUSH2 0xD14 SWAP1 PUSH2 0x2199 JUMP JUMPDEST PUSH1 0x40 MLOAD DUP1 SWAP2 SUB SWAP1 REVERT JUMPDEST DUP5 ISZERO PUSH2 0xD61 JUMPI DUP1 PUSH1 0x5 DUP8 DUP2 SLOAD DUP2 LT PUSH2 0xD38 JUMPI PUSH2 0xD37 PUSH2 0x2052 JUMP JUMPDEST JUMPDEST SWAP1 PUSH0 MSTORE PUSH1 0x20 PUSH0 KECCAK256 SWAP1 PUSH1 0x7 MUL ADD PUSH1 0x4 ADD PUSH0 DUP3 DUP3 SLOAD PUSH2 0xD55 SWAP2 SWAP1 PUSH2 0x20E7 JUMP JUMPDEST SWAP3 POP POP DUP2 SWAP1 SSTORE POP PUSH2 0xD9B JUMP JUMPDEST DUP1 PUSH1 0x5 DUP8 DUP2 SLOAD DUP2 LT PUSH2 0xD76 JUMPI PUSH2 0xD75 PUSH2 0x2052 JUMP JUMPDEST JUMPDEST SWAP1 PUSH0 MSTORE PUSH1 0x20 PUSH0 KECCAK256 SWAP1 PUSH1 0x7 MUL ADD PUSH1 0x5 ADD PUSH0 DUP3 DUP3 SLOAD PUSH2 0xD93 SWAP2 SWAP1 PUSH2 0x20E7 JUMP JUMPDEST SWAP3 POP POP DUP2 SWAP1 SSTORE POP JUMPDEST PUSH1 0x5 DUP7 DUP2 SLOAD DUP2 LT PUSH2 0xDAF JUMPI PUSH2 0xDAE PUSH2 0x2052 JUMP JUMPDEST JUMPDEST SWAP1 PUSH0 MSTORE PUSH1 0x20 PUSH0 KECCAK256 SWAP1 PUSH1 0x7 MUL ADD PUSH1 0x3 ADD PUSH0 DUP2 SLOAD DUP1 SWAP3 SWAP2 SWAP1 PUSH2 0xDCE SWAP1 PUSH2 0x21B7 JUMP JUMPDEST SWAP2 SWAP1 POP SSTORE POP POP POP POP POP POP POP JUMP JUMPDEST DUP1 PUSH1 0x5 DUP1 SLOAD SWAP1 POP DUP1 DUP3 LT PUSH2 0xE24 JUMPI PUSH1 0x40 MLOAD PUSH32 0x8C379A000000000000000000000000000000000000000000000000000000000 DUP2 MSTORE PUSH1 0x4 ADD PUSH2 0xE1B SWAP1 PUSH2 0x2034 JUMP JUMPDEST PUSH1 0x40 MLOAD DUP1 SWAP2 SUB SWAP1 REVERT JUMPDEST PUSH0 PUSH1 0x5 DUP5 DUP2 SLOAD DUP2 LT PUSH2 0xE39 JUMPI PUSH2 0xE38 PUSH2 0x2052 JUMP JUMPDEST JUMPDEST SWAP1 PUSH0 MSTORE PUSH1 0x20 PUSH0 KECCAK256 SWAP1 PUSH1 0x7 MUL ADD PUSH1 0x40 MLOAD DUP1 PUSH1 0xE0 ADD PUSH1 0x40 MSTORE SWAP1 DUP2 PUSH0 DUP3 ADD SLOAD DUP2 MSTORE PUSH1 0x20 ADD PUSH1 0x1 DUP3 ADD SLOAD DUP2 MSTORE PUSH1 0x20 ADD PUSH1 0x2 DUP3 ADD DUP1 SLOAD PUSH2 0xE73 SWAP1 PUSH2 0x1B2B JUMP JUMPDEST DUP1 PUSH1 0x1F ADD PUSH1 0x20 DUP1 SWAP2 DIV MUL PUSH1 0x20 ADD PUSH1 0x40 MLOAD SWAP1 DUP2 ADD PUSH1 0x40 MSTORE DUP1 SWAP3 SWAP2 SWAP1 DUP2 DUP2 MSTORE PUSH1 0x20 ADD DUP3 DUP1 SLOAD PUSH2 0xE9F SWAP1 PUSH2 0x1B2B JUMP JUMPDEST DUP1 ISZERO PUSH2 0xEEA JUMPI DUP1 PUSH1 0x1F LT PUSH2 0xEC1 JUMPI PUSH2 0x100 DUP1 DUP4 SLOAD DIV MUL DUP4 MSTORE SWAP2 PUSH1 0x20 ADD SWAP2 PUSH2 0xEEA JUMP JUMPDEST DUP3 ADD SWAP2 SWAP1 PUSH0 MSTORE PUSH1 0x20 PUSH0 KECCAK256 SWAP1 JUMPDEST DUP2 SLOAD DUP2 MSTORE SWAP1 PUSH1 0x1 ADD SWAP1 PUSH1 0x20 ADD DUP1 DUP4 GT PUSH2 0xECD JUMPI DUP3 SWAP1 SUB PUSH1 0x1F AND DUP3 ADD SWAP2 JUMPDEST POP POP POP POP POP DUP2 MSTORE PUSH1 0x20 ADD PUSH1 0x3 DUP3 ADD SLOAD DUP2 MSTORE PUSH1 0x20 ADD PUSH1 0x4 DUP3 ADD SLOAD DUP2 MSTORE PUSH1 0x20 ADD PUSH1 0x5 DUP3 ADD SLOAD DUP2 MSTORE PUSH1 0x20 ADD PUSH1 0x6 DUP3 ADD PUSH0 SWAP1 SLOAD SWAP1 PUSH2 0x100 EXP SWAP1 DIV PUSH1 0xFF AND PUSH1 0x2 DUP2 GT ISZERO PUSH2 0xF35 JUMPI PUSH2 0xF34 PUSH2 0x1508 JUMP JUMPDEST JUMPDEST PUSH1 0x2 DUP2 GT ISZERO PUSH2 0xF47 JUMPI PUSH2 0xF46 PUSH2 0x1508 JUMP JUMPDEST JUMPDEST DUP2 MSTORE POP POP SWAP1 POP PUSH1 0x2 DUP1 DUP2 GT ISZERO PUSH2 0xF60 JUMPI PUSH2 0xF5F PUSH2 0x1508 JUMP JUMPDEST JUMPDEST DUP2 PUSH1 0xC0 ADD MLOAD PUSH1 0x2 DUP2 GT ISZERO PUSH2 0xF77 JUMPI PUSH2 0xF76 PUSH2 0x1508 JUMP JUMPDEST JUMPDEST EQ PUSH2 0xFB7 JUMPI PUSH1 0x40 MLOAD PUSH32 0x8C379A000000000000000000000000000000000000000000000000000000000 DUP2 MSTORE PUSH1 0x4 ADD PUSH2 0xFAE SWAP1 PUSH2 0x2248 JUMP JUMPDEST PUSH1 0x40 MLOAD DUP1 SWAP2 SUB SWAP1 REVERT JUMPDEST TIMESTAMP DUP2 PUSH0 ADD MLOAD GT DUP1 PUSH2 0xFCC JUMPI POP PUSH1 0x32 DUP2 PUSH1 0x60 ADD MLOAD GT JUMPDEST PUSH2 0x100B JUMPI PUSH1 0x40 MLOAD PUSH32 0x8C379A000000000000000000000000000000000000000000000000000000000 DUP2 MSTORE PUSH1 0x4 ADD PUSH2 0x1002 SWAP1 PUSH2 0x22B0 JUMP JUMPDEST PUSH1 0x40 MLOAD DUP1 SWAP2 SUB SWAP1 REVERT JUMPDEST DUP1 PUSH1 0xA0 ADD MLOAD DUP2 PUSH1 0x80 ADD MLOAD GT ISZERO PUSH2 0x106A JUMPI PUSH0 PUSH1 0x5 DUP6 DUP2 SLOAD DUP2 LT PUSH2 0x1030 JUMPI PUSH2 0x102F PUSH2 0x2052 JUMP JUMPDEST JUMPDEST SWAP1 PUSH0 MSTORE PUSH1 0x20 PUSH0 KECCAK256 SWAP1 PUSH1 0x7 MUL ADD PUSH1 0x6 ADD PUSH0 PUSH2 0x100 EXP DUP2 SLOAD DUP2 PUSH1 0xFF MUL NOT AND SWAP1 DUP4 PUSH1 0x2 DUP2 GT ISZERO PUSH2 0x1060 JUMPI PUSH2 0x105F PUSH2 0x1508 JUMP JUMPDEST JUMPDEST MUL OR SWAP1 SSTORE POP PUSH2 0x10B6 JUMP JUMPDEST PUSH1 0x1 PUSH1 0x5 DUP6 DUP2 SLOAD DUP2 LT PUSH2 0x1080 JUMPI PUSH2 0x107F PUSH2 0x2052 JUMP JUMPDEST JUMPDEST SWAP1 PUSH0 MSTORE PUSH1 0x20 PUSH0 KECCAK256 SWAP1 PUSH1 0x7 MUL ADD PUSH1 0x6 ADD PUSH0 PUSH2 0x100 EXP DUP2 SLOAD DUP2 PUSH1 0xFF MUL NOT AND SWAP1 DUP4 PUSH1 0x2 DUP2 GT ISZERO PUSH2 0x10B0 JUMPI PUSH2 0x10AF PUSH2 0x1508 JUMP JUMPDEST JUMPDEST MUL OR SWAP1 SSTORE POP JUMPDEST PUSH32 0xB1F9E67F140AA3936E3D32FD3CDB2C5621A1F03B46D535623C90AF0A49880781 DUP2 PUSH1 0x40 ADD MLOAD DUP6 DUP4 PUSH1 0xC0 ADD MLOAD PUSH1 0x40 MLOAD PUSH2 0x10F1 SWAP4 SWAP3 SWAP2 SWAP1 PUSH2 0x22CE JUMP JUMPDEST PUSH1 0x40 MLOAD DUP1 SWAP2 SUB SWAP1 LOG1 POP POP POP POP JUMP JUMPDEST PUSH2 0x1107 PUSH2 0x1241 JUMP JUMPDEST PUSH0 PUSH20 0xFFFFFFFFFFFFFFFFFFFFFFFFFFFFFFFFFFFFFFFF AND DUP2 PUSH20 0xFFFFFFFFFFFFFFFFFFFFFFFFFFFFFFFFFFFFFFFF AND SUB PUSH2 0x1177 JUMPI PUSH0 PUSH1 0x40 MLOAD PUSH32 0x1E4FBDF700000000000000000000000000000000000000000000000000000000 DUP2 MSTORE PUSH1 0x4 ADD PUSH2 0x116E SWAP2 SWAP1 PUSH2 0x1A2C JUMP JUMPDEST PUSH1 0x40 MLOAD DUP1 SWAP2 SUB SWAP1 REVERT JUMPDEST PUSH2 0x1180 DUP2 PUSH2 0x12C8 JUMP JUMPDEST POP JUMP JUMPDEST PUSH2 0x118B PUSH2 0x1402 JUMP JUMPDEST PUSH1 0x4 PUSH0 CALLER PUSH20 0xFFFFFFFFFFFFFFFFFFFFFFFFFFFFFFFFFFFFFFFF AND PUSH20 0xFFFFFFFFFFFFFFFFFFFFFFFFFFFFFFFFFFFFFFFF AND DUP2 MSTORE PUSH1 0x20 ADD SWAP1 DUP2 MSTORE PUSH1 0x20 ADD PUSH0 KECCAK256 PUSH1 0x40 MLOAD DUP1 PUSH1 0x40 ADD PUSH1 0x40 MSTORE SWAP1 DUP2 PUSH0 DUP3 ADD SLOAD DUP2 MSTORE PUSH1 0x20 ADD PUSH1 0x1 DUP3 ADD SLOAD DUP2 MSTORE POP POP SWAP1 POP SWAP1 JUMP JUMPDEST PUSH1 0x2 PUSH0 SLOAD SUB PUSH2 0x122F JUMPI PUSH1 0x40 MLOAD PUSH32 0x8C379A000000000000000000000000000000000000000000000000000000000 DUP2 MSTORE PUSH1 0x4 ADD PUSH2 0x1226 SWAP1 PUSH2 0x2354 JUMP JUMPDEST PUSH1 0x40 MLOAD DUP1 SWAP2 SUB SWAP1 REVERT JUMPDEST PUSH1 0x2 PUSH0 DUP2 SWAP1 SSTORE POP JUMP JUMPDEST PUSH1 0x1 PUSH0 DUP2 SWAP1 SSTORE POP JUMP JUMPDEST PUSH2 0x1249 PUSH2 0x13B2 JUMP JUMPDEST PUSH20 0xFFFFFFFFFFFFFFFFFFFFFFFFFFFFFFFFFFFFFFFF AND PUSH2 0x1267 PUSH2 0xC53 JUMP JUMPDEST PUSH20 0xFFFFFFFFFFFFFFFFFFFFFFFFFFFFFFFFFFFFFFFF AND EQ PUSH2 0x12C6 JUMPI PUSH2 0x128A PUSH2 0x13B2 JUMP JUMPDEST PUSH1 0x40 MLOAD PUSH32 0x118CDAA700000000000000000000000000000000000000000000000000000000 DUP2 MSTORE PUSH1 0x4 ADD PUSH2 0x12BD SWAP2 SWAP1 PUSH2 0x1A2C JUMP JUMPDEST PUSH1 0x40 MLOAD DUP1 SWAP2 SUB SWAP1 REVERT JUMPDEST JUMP JUMPDEST PUSH0 PUSH1 0x1 PUSH0 SWAP1 SLOAD SWAP1 PUSH2 0x100 EXP SWAP1 DIV PUSH20 0xFFFFFFFFFFFFFFFFFFFFFFFFFFFFFFFFFFFFFFFF AND SWAP1 POP DUP2 PUSH1 0x1 PUSH0 PUSH2 0x100 EXP DUP2 SLOAD DUP2 PUSH20 0xFFFFFFFFFFFFFFFFFFFFFFFFFFFFFFFFFFFFFFFF MUL NOT AND SWAP1 DUP4 PUSH20 0xFFFFFFFFFFFFFFFFFFFFFFFFFFFFFFFFFFFFFFFF AND MUL OR SWAP1 SSTORE POP DUP2 PUSH20 0xFFFFFFFFFFFFFFFFFFFFFFFFFFFFFFFFFFFFFFFF AND DUP2 PUSH20 0xFFFFFFFFFFFFFFFFFFFFFFFFFFFFFFFFFFFFFFFF AND PUSH32 0x8BE0079C531659141344CD1FD0A4F28419497F9722A3DAAFE3B4186F6B6457E0 PUSH1 0x40 MLOAD PUSH1 0x40 MLOAD DUP1 SWAP2 SUB SWAP1 LOG3 POP POP JUMP JUMPDEST PUSH0 PUSH1 0x2 DUP3 PUSH1 0x20 ADD MLOAD PUSH2 0x139D SWAP2 SWAP1 PUSH2 0x24AD JUMP JUMPDEST DUP3 PUSH0 ADD MLOAD PUSH2 0x13AB SWAP2 SWAP1 PUSH2 0x24F7 JUMP JUMPDEST SWAP1 POP SWAP2 SWAP1 POP JUMP JUMPDEST PUSH0 CALLER SWAP1 POP SWAP1 JUMP JUMPDEST PUSH1 0x40 MLOAD DUP1 PUSH1 0xE0 ADD PUSH1 0x40 MSTORE DUP1 PUSH0 DUP2 MSTORE PUSH1 0x20 ADD PUSH0 DUP2 MSTORE PUSH1 0x20 ADD PUSH1 0x60 DUP2 MSTORE PUSH1 0x20 ADD PUSH0 DUP2 MSTORE PUSH1 0x20 ADD PUSH0 DUP2 MSTORE PUSH1 0x20 ADD PUSH0 DUP2 MSTORE PUSH1 0x20 ADD PUSH0 PUSH1 0x2 DUP2 GT ISZERO PUSH2 0x13FC JUMPI PUSH2 0x13FB PUSH2 0x1508 JUMP JUMPDEST JUMPDEST DUP2 MSTORE POP SWAP1 JUMP JUMPDEST PUSH1 0x40 MLOAD DUP1 PUSH1 0x40 ADD PUSH1 0x40 MSTORE DUP1 PUSH0 DUP2 MSTORE PUSH1 0x20 ADD PUSH0 DUP2 MSTORE POP SWAP1 JUMP JUMPDEST PUSH0 PUSH1 0x40 MLOAD SWAP1 POP SWAP1 JUMP JUMPDEST PUSH0 DUP1 REVERT JUMPDEST PUSH0 DUP1 REVERT JUMPDEST PUSH0 DUP2 SWAP1 POP SWAP2 SWAP1 POP JUMP JUMPDEST PUSH2 0x143D DUP2 PUSH2 0x142B JUMP JUMPDEST DUP2 EQ PUSH2 0x1447 JUMPI PUSH0 DUP1 REVERT JUMPDEST POP JUMP JUMPDEST PUSH0 DUP2 CALLDATALOAD SWAP1 POP PUSH2 0x1458 DUP2 PUSH2 0x1434 JUMP JUMPDEST SWAP3 SWAP2 POP POP JUMP JUMPDEST PUSH0 PUSH1 0x20 DUP3 DUP5 SUB SLT ISZERO PUSH2 0x1473 JUMPI PUSH2 0x1472 PUSH2 0x1423 JUMP JUMPDEST JUMPDEST PUSH0 PUSH2 0x1480 DUP5 DUP3 DUP6 ADD PUSH2 0x144A JUMP JUMPDEST SWAP2 POP POP SWAP3 SWAP2 POP POP JUMP JUMPDEST PUSH2 0x1492 DUP2 PUSH2 0x142B JUMP JUMPDEST DUP3 MSTORE POP POP JUMP JUMPDEST PUSH0 DUP2 MLOAD SWAP1 POP SWAP2 SWAP1 POP JUMP JUMPDEST PUSH0 DUP3 DUP3 MSTORE PUSH1 0x20 DUP3 ADD SWAP1 POP SWAP3 SWAP2 POP POP JUMP JUMPDEST DUP3 DUP2 DUP4 MCOPY PUSH0 DUP4 DUP4 ADD MSTORE POP POP POP JUMP JUMPDEST PUSH0 PUSH1 0x1F NOT PUSH1 0x1F DUP4 ADD AND SWAP1 POP SWAP2 SWAP1 POP JUMP JUMPDEST PUSH0 PUSH2 0x14DA DUP3 PUSH2 0x1498 JUMP JUMPDEST PUSH2 0x14E4 DUP2 DUP6 PUSH2 0x14A2 JUMP JUMPDEST SWAP4 POP PUSH2 0x14F4 DUP2 DUP6 PUSH1 0x20 DUP7 ADD PUSH2 0x14B2 JUMP JUMPDEST PUSH2 0x14FD DUP2 PUSH2 0x14C0 JUMP JUMPDEST DUP5 ADD SWAP2 POP POP SWAP3 SWAP2 POP POP JUMP JUMPDEST PUSH32 0x4E487B7100000000000000000000000000000000000000000000000000000000 PUSH0 MSTORE PUSH1 0x21 PUSH1 0x4 MSTORE PUSH1 0x24 PUSH0 REVERT JUMPDEST PUSH1 0x3 DUP2 LT PUSH2 0x1546 JUMPI PUSH2 0x1545 PUSH2 0x1508 JUMP JUMPDEST JUMPDEST POP JUMP JUMPDEST PUSH0 DUP2 SWAP1 POP PUSH2 0x1556 DUP3 PUSH2 0x1535 JUMP JUMPDEST SWAP2 SWAP1 POP JUMP JUMPDEST PUSH0 PUSH2 0x1565 DUP3 PUSH2 0x1549 JUMP JUMPDEST SWAP1 POP SWAP2 SWAP1 POP JUMP JUMPDEST PUSH2 0x1575 DUP2 PUSH2 0x155B JUMP JUMPDEST DUP3 MSTORE POP POP JUMP JUMPDEST PUSH0 PUSH1 0xE0 DUP3 ADD SWAP1 POP PUSH2 0x158E PUSH0 DUP4 ADD DUP11 PUSH2 0x1489 JUMP JUMPDEST PUSH2 0x159B PUSH1 0x20 DUP4 ADD DUP10 PUSH2 0x1489 JUMP JUMPDEST DUP2 DUP2 SUB PUSH1 0x40 DUP4 ADD MSTORE PUSH2 0x15AD DUP2 DUP9 PUSH2 0x14D0 JUMP JUMPDEST SWAP1 POP PUSH2 0x15BC PUSH1 0x60 DUP4 ADD DUP8 PUSH2 0x1489 JUMP JUMPDEST PUSH2 0x15C9 PUSH1 0x80 DUP4 ADD DUP7 PUSH2 0x1489 JUMP JUMPDEST PUSH2 0x15D6 PUSH1 0xA0 DUP4 ADD DUP6 PUSH2 0x1489 JUMP JUMPDEST PUSH2 0x15E3 PUSH1 0xC0 DUP4 ADD DUP5 PUSH2 0x156C JUMP JUMPDEST SWAP9 SWAP8 POP POP POP POP POP POP POP POP JUMP JUMPDEST PUSH0 DUP1 REVERT JUMPDEST PUSH0 DUP1 REVERT JUMPDEST PUSH32 0x4E487B7100000000000000000000000000000000000000000000000000000000 PUSH0 MSTORE PUSH1 0x41 PUSH1 0x4 MSTORE PUSH1 0x24 PUSH0 REVERT JUMPDEST PUSH2 0x162D DUP3 PUSH2 0x14C0 JUMP JUMPDEST DUP2 ADD DUP2 DUP2 LT PUSH8 0xFFFFFFFFFFFFFFFF DUP3 GT OR ISZERO PUSH2 0x164C JUMPI PUSH2 0x164B PUSH2 0x15F7 JUMP JUMPDEST JUMPDEST DUP1 PUSH1 0x40 MSTORE POP POP POP JUMP JUMPDEST PUSH0 PUSH2 0x165E PUSH2 0x141A JUMP JUMPDEST SWAP1 POP PUSH2 0x166A DUP3 DUP3 PUSH2 0x1624 JUMP JUMPDEST SWAP2 SWAP1 POP JUMP JUMPDEST PUSH0 PUSH8 0xFFFFFFFFFFFFFFFF DUP3 GT ISZERO PUSH2 0x1689 JUMPI PUSH2 0x1688 PUSH2 0x15F7 JUMP JUMPDEST JUMPDEST PUSH2 0x1692 DUP3 PUSH2 0x14C0 JUMP JUMPDEST SWAP1 POP PUSH1 0x20 DUP2 ADD SWAP1 POP SWAP2 SWAP1 POP JUMP JUMPDEST DUP3 DUP2 DUP4 CALLDATACOPY PUSH0 DUP4 DUP4 ADD MSTORE POP POP POP JUMP JUMPDEST PUSH0 PUSH2 0x16BF PUSH2 0x16BA DUP5 PUSH2 0x166F JUMP JUMPDEST PUSH2 0x1655 JUMP JUMPDEST SWAP1 POP DUP3 DUP2 MSTORE PUSH1 0x20 DUP2 ADD DUP5 DUP5 DUP5 ADD GT ISZERO PUSH2 0x16DB JUMPI PUSH2 0x16DA PUSH2 0x15F3 JUMP JUMPDEST JUMPDEST PUSH2 0x16E6 DUP5 DUP3 DUP6 PUSH2 0x169F JUMP JUMPDEST POP SWAP4 SWAP3 POP POP POP JUMP JUMPDEST PUSH0 DUP3 PUSH1 0x1F DUP4 ADD SLT PUSH2 0x1702 JUMPI PUSH2 0x1701 PUSH2 0x15EF JUMP JUMPDEST JUMPDEST DUP2 CALLDATALOAD PUSH2 0x1712 DUP5 DUP3 PUSH1 0x20 DUP7 ADD PUSH2 0x16AD JUMP JUMPDEST SWAP2 POP POP SWAP3 SWAP2 POP POP JUMP JUMPDEST PUSH0 DUP1 PUSH0 PUSH1 0x60 DUP5 DUP7 SUB SLT ISZERO PUSH2 0x1732 JUMPI PUSH2 0x1731 PUSH2 0x1423 JUMP JUMPDEST JUMPDEST PUSH0 DUP5 ADD CALLDATALOAD PUSH8 0xFFFFFFFFFFFFFFFF DUP2 GT ISZERO PUSH2 0x174F JUMPI PUSH2 0x174E PUSH2 0x1427 JUMP JUMPDEST JUMPDEST PUSH2 0x175B DUP7 DUP3 DUP8 ADD PUSH2 0x16EE JUMP JUMPDEST SWAP4 POP POP PUSH1 0x20 PUSH2 0x176C DUP7 DUP3 DUP8 ADD PUSH2 0x144A JUMP JUMPDEST SWAP3 POP POP PUSH1 0x40 PUSH2 0x177D DUP7 DUP3 DUP8 ADD PUSH2 0x144A JUMP JUMPDEST SWAP2 POP POP SWAP3 POP SWAP3 POP SWAP3 JUMP JUMPDEST PUSH0 PUSH1 0x20 DUP3 ADD SWAP1 POP PUSH2 0x179A PUSH0 DUP4 ADD DUP5 PUSH2 0x1489 JUMP JUMPDEST SWAP3 SWAP2 POP POP JUMP JUMPDEST PUSH2 0x17A9 DUP2 PUSH2 0x142B JUMP JUMPDEST DUP3 MSTORE POP POP JUMP JUMPDEST PUSH0 DUP3 DUP3 MSTORE PUSH1 0x20 DUP3 ADD SWAP1 POP SWAP3 SWAP2 POP POP JUMP JUMPDEST PUSH0 PUSH2 0x17C9 DUP3 PUSH2 0x1498 JUMP JUMPDEST PUSH2 0x17D3 DUP2 DUP6 PUSH2 0x17AF JUMP JUMPDEST SWAP4 POP PUSH2 0x17E3 DUP2 DUP6 PUSH1 0x20 DUP7 ADD PUSH2 0x14B2 JUMP JUMPDEST PUSH2 0x17EC DUP2 PUSH2 0x14C0 JUMP JUMPDEST DUP5 ADD SWAP2 POP POP SWAP3 SWAP2 POP POP JUMP JUMPDEST PUSH2 0x1800 DUP2 PUSH2 0x155B JUMP JUMPDEST DUP3 MSTORE POP POP JUMP JUMPDEST PUSH0 PUSH1 0xE0 DUP4 ADD PUSH0 DUP4 ADD MLOAD PUSH2 0x181B PUSH0 DUP7 ADD DUP3 PUSH2 0x17A0 JUMP JUMPDEST POP PUSH1 0x20 DUP4 ADD MLOAD PUSH2 0x182E PUSH1 0x20 DUP7 ADD DUP3 PUSH2 0x17A0 JUMP JUMPDEST POP PUSH1 0x40 DUP4 ADD MLOAD DUP5 DUP3 SUB PUSH1 0x40 DUP7 ADD MSTORE PUSH2 0x1846 DUP3 DUP3 PUSH2 0x17BF JUMP JUMPDEST SWAP2 POP POP PUSH1 0x60 DUP4 ADD MLOAD PUSH2 0x185B PUSH1 0x60 DUP7 ADD DUP3 PUSH2 0x17A0 JUMP JUMPDEST POP PUSH1 0x80 DUP4 ADD MLOAD PUSH2 0x186E PUSH1 0x80 DUP7 ADD DUP3 PUSH2 0x17A0 JUMP JUMPDEST POP PUSH1 0xA0 DUP4 ADD MLOAD PUSH2 0x1881 PUSH1 0xA0 DUP7 ADD DUP3 PUSH2 0x17A0 JUMP JUMPDEST POP PUSH1 0xC0 DUP4 ADD MLOAD PUSH2 0x1894 PUSH1 0xC0 DUP7 ADD DUP3 PUSH2 0x17F7 JUMP JUMPDEST POP DUP1 SWAP2 POP POP SWAP3 SWAP2 POP POP JUMP JUMPDEST PUSH0 PUSH1 0x20 DUP3 ADD SWAP1 POP DUP2 DUP2 SUB PUSH0 DUP4 ADD MSTORE PUSH2 0x18B7 DUP2 DUP5 PUSH2 0x1806 JUMP JUMPDEST SWAP1 POP SWAP3 SWAP2 POP POP JUMP JUMPDEST PUSH0 PUSH20 0xFFFFFFFFFFFFFFFFFFFFFFFFFFFFFFFFFFFFFFFF DUP3 AND SWAP1 POP SWAP2 SWAP1 POP JUMP JUMPDEST PUSH0 DUP2 SWAP1 POP SWAP2 SWAP1 POP JUMP JUMPDEST PUSH0 PUSH2 0x1901 PUSH2 0x18FC PUSH2 0x18F7 DUP5 PUSH2 0x18BF JUMP JUMPDEST PUSH2 0x18DE JUMP JUMPDEST PUSH2 0x18BF JUMP JUMPDEST SWAP1 POP SWAP2 SWAP1 POP JUMP JUMPDEST PUSH0 PUSH2 0x1912 DUP3 PUSH2 0x18E7 JUMP JUMPDEST SWAP1 POP SWAP2 SWAP1 POP JUMP JUMPDEST PUSH0 PUSH2 0x1923 DUP3 PUSH2 0x1908 JUMP JUMPDEST SWAP1 POP SWAP2 SWAP1 POP JUMP JUMPDEST PUSH2 0x1933 DUP2 PUSH2 0x1919 JUMP JUMPDEST DUP3 MSTORE POP POP JUMP JUMPDEST PUSH0 PUSH1 0x20 DUP3 ADD SWAP1 POP PUSH2 0x194C PUSH0 DUP4 ADD DUP5 PUSH2 0x192A JUMP JUMPDEST SWAP3 SWAP2 POP POP JUMP JUMPDEST PUSH0 DUP1 PUSH1 0x40 DUP4 DUP6 SUB SLT ISZERO PUSH2 0x1968 JUMPI PUSH2 0x1967 PUSH2 0x1423 JUMP JUMPDEST JUMPDEST PUSH0 PUSH2 0x1975 DUP6 DUP3 DUP7 ADD PUSH2 0x144A JUMP JUMPDEST SWAP3 POP POP PUSH1 0x20 PUSH2 0x1986 DUP6 DUP3 DUP7 ADD PUSH2 0x144A JUMP JUMPDEST SWAP2 POP POP SWAP3 POP SWAP3 SWAP1 POP JUMP JUMPDEST PUSH0 PUSH2 0x199A DUP3 PUSH2 0x18BF JUMP JUMPDEST SWAP1 POP SWAP2 SWAP1 POP JUMP JUMPDEST PUSH2 0x19AA DUP2 PUSH2 0x1990 JUMP JUMPDEST DUP2 EQ PUSH2 0x19B4 JUMPI PUSH0 DUP1 REVERT JUMPDEST POP JUMP JUMPDEST PUSH0 DUP2 CALLDATALOAD SWAP1 POP PUSH2 0x19C5 DUP2 PUSH2 0x19A1 JUMP JUMPDEST SWAP3 SWAP2 POP POP JUMP JUMPDEST PUSH0 PUSH1 0x20 DUP3 DUP5 SUB SLT ISZERO PUSH2 0x19E0 JUMPI PUSH2 0x19DF PUSH2 0x1423 JUMP JUMPDEST JUMPDEST PUSH0 PUSH2 0x19ED DUP5 DUP3 DUP6 ADD PUSH2 0x19B7 JUMP JUMPDEST SWAP2 POP POP SWAP3 SWAP2 POP POP JUMP JUMPDEST PUSH0 PUSH1 0x40 DUP3 ADD SWAP1 POP PUSH2 0x1A09 PUSH0 DUP4 ADD DUP6 PUSH2 0x1489 JUMP JUMPDEST PUSH2 0x1A16 PUSH1 0x20 DUP4 ADD DUP5 PUSH2 0x1489 JUMP JUMPDEST SWAP4 SWAP3 POP POP POP JUMP JUMPDEST PUSH2 0x1A26 DUP2 PUSH2 0x1990 JUMP JUMPDEST DUP3 MSTORE POP POP JUMP JUMPDEST PUSH0 PUSH1 0x20 DUP3 ADD SWAP1 POP PUSH2 0x1A3F PUSH0 DUP4 ADD DUP5 PUSH2 0x1A1D JUMP JUMPDEST SWAP3 SWAP2 POP POP JUMP JUMPDEST PUSH0 DUP2 ISZERO ISZERO SWAP1 POP SWAP2 SWAP1 POP JUMP JUMPDEST PUSH2 0x1A59 DUP2 PUSH2 0x1A45 JUMP JUMPDEST DUP2 EQ PUSH2 0x1A63 JUMPI PUSH0 DUP1 REVERT JUMPDEST POP JUMP JUMPDEST PUSH0 DUP2 CALLDATALOAD SWAP1 POP PUSH2 0x1A74 DUP2 PUSH2 0x1A50 JUMP JUMPDEST SWAP3 SWAP2 POP POP JUMP JUMPDEST PUSH0 DUP1 PUSH1 0x40 DUP4 DUP6 SUB SLT ISZERO PUSH2 0x1A90 JUMPI PUSH2 0x1A8F PUSH2 0x1423 JUMP JUMPDEST JUMPDEST PUSH0 PUSH2 0x1A9D DUP6 DUP3 DUP7 ADD PUSH2 0x144A JUMP JUMPDEST SWAP3 POP POP PUSH1 0x20 PUSH2 0x1AAE DUP6 DUP3 DUP7 ADD PUSH2 0x1A66 JUMP JUMPDEST SWAP2 POP POP SWAP3 POP SWAP3 SWAP1 POP JUMP JUMPDEST PUSH1 0x40 DUP3 ADD PUSH0 DUP3 ADD MLOAD PUSH2 0x1ACC PUSH0 DUP6 ADD DUP3 PUSH2 0x17A0 JUMP JUMPDEST POP PUSH1 0x20 DUP3 ADD MLOAD PUSH2 0x1ADF PUSH1 0x20 DUP6 ADD DUP3 PUSH2 0x17A0 JUMP JUMPDEST POP POP POP POP JUMP JUMPDEST PUSH0 PUSH1 0x40 DUP3 ADD SWAP1 POP PUSH2 0x1AF8 PUSH0 DUP4 ADD DUP5 PUSH2 0x1AB8 JUMP JUMPDEST SWAP3 SWAP2 POP POP JUMP JUMPDEST PUSH32 0x4E487B7100000000000000000000000000000000000000000000000000000000 PUSH0 MSTORE PUSH1 0x22 PUSH1 0x4 MSTORE PUSH1 0x24 PUSH0 REVERT JUMPDEST PUSH0 PUSH1 0x2 DUP3 DIV SWAP1 POP PUSH1 0x1 DUP3 AND DUP1 PUSH2 0x1B42 JUMPI PUSH1 0x7F DUP3 AND SWAP2 POP JUMPDEST PUSH1 0x20 DUP3 LT DUP2 SUB PUSH2 0x1B55 JUMPI PUSH2 0x1B54 PUSH2 0x1AFE JUMP JUMPDEST JUMPDEST POP SWAP2 SWAP1 POP JUMP JUMPDEST PUSH32 0x43616E6E6F742077697468647261772030000000000000000000000000000000 PUSH0 DUP3 ADD MSTORE POP JUMP JUMPDEST PUSH0 PUSH2 0x1B8F PUSH1 0x11 DUP4 PUSH2 0x14A2 JUMP JUMPDEST SWAP2 POP PUSH2 0x1B9A DUP3 PUSH2 0x1B5B JUMP JUMPDEST PUSH1 0x20 DUP3 ADD SWAP1 POP SWAP2 SWAP1 POP JUMP JUMPDEST PUSH0 PUSH1 0x20 DUP3 ADD SWAP1 POP DUP2 DUP2 SUB PUSH0 DUP4 ADD MSTORE PUSH2 0x1BBC DUP2 PUSH2 0x1B83 JUMP JUMPDEST SWAP1 POP SWAP2 SWAP1 POP JUMP JUMPDEST PUSH32 0x546F6F206561726C792077697468647261772100000000000000000000000000 PUSH0 DUP3 ADD MSTORE POP JUMP JUMPDEST PUSH0 PUSH2 0x1BF7 PUSH1 0x13 DUP4 PUSH2 0x14A2 JUMP JUMPDEST SWAP2 POP PUSH2 0x1C02 DUP3 PUSH2 0x1BC3 JUMP JUMPDEST PUSH1 0x20 DUP3 ADD SWAP1 POP SWAP2 SWAP1 POP JUMP JUMPDEST PUSH0 PUSH1 0x20 DUP3 ADD SWAP1 POP DUP2 DUP2 SUB PUSH0 DUP4 ADD MSTORE PUSH2 0x1C24 DUP2 PUSH2 0x1BEB JUMP JUMPDEST SWAP1 POP SWAP2 SWAP1 POP JUMP JUMPDEST PUSH0 PUSH1 0x40 DUP3 ADD SWAP1 POP PUSH2 0x1C3E PUSH0 DUP4 ADD DUP6 PUSH2 0x1A1D JUMP JUMPDEST PUSH2 0x1C4B PUSH1 0x20 DUP4 ADD DUP5 PUSH2 0x1489 JUMP JUMPDEST SWAP4 SWAP3 POP POP POP JUMP JUMPDEST PUSH0 DUP2 MLOAD SWAP1 POP PUSH2 0x1C60 DUP2 PUSH2 0x1A50 JUMP JUMPDEST SWAP3 SWAP2 POP POP JUMP JUMPDEST PUSH0 PUSH1 0x20 DUP3 DUP5 SUB SLT ISZERO PUSH2 0x1C7B JUMPI PUSH2 0x1C7A PUSH2 0x1423 JUMP JUMPDEST JUMPDEST PUSH0 PUSH2 0x1C88 DUP5 DUP3 DUP6 ADD PUSH2 0x1C52 JUMP JUMPDEST SWAP2 POP POP SWAP3 SWAP2 POP POP JUMP JUMPDEST PUSH32 0x5472616E73666572206661696C65640000000000000000000000000000000000 PUSH0 DUP3 ADD MSTORE POP JUMP JUMPDEST PUSH0 PUSH2 0x1CC5 PUSH1 0xF DUP4 PUSH2 0x14A2 JUMP JUMPDEST SWAP2 POP PUSH2 0x1CD0 DUP3 PUSH2 0x1C91 JUMP JUMPDEST PUSH1 0x20 DUP3 ADD SWAP1 POP SWAP2 SWAP1 POP JUMP JUMPDEST PUSH0 PUSH1 0x20 DUP3 ADD SWAP1 POP DUP2 DUP2 SUB PUSH0 DUP4 ADD MSTORE PUSH2 0x1CF2 DUP2 PUSH2 0x1CB9 JUMP JUMPDEST SWAP1 POP SWAP2 SWAP1 POP JUMP JUMPDEST PUSH32 0x4E487B7100000000000000000000000000000000000000000000000000000000 PUSH0 MSTORE PUSH1 0x11 PUSH1 0x4 MSTORE PUSH1 0x24 PUSH0 REVERT JUMPDEST PUSH0 PUSH2 0x1D30 DUP3 PUSH2 0x142B JUMP JUMPDEST SWAP2 POP PUSH2 0x1D3B DUP4 PUSH2 0x142B JUMP JUMPDEST SWAP3 POP DUP3 DUP3 SUB SWAP1 POP DUP2 DUP2 GT ISZERO PUSH2 0x1D53 JUMPI PUSH2 0x1D52 PUSH2 0x1CF9 JUMP JUMPDEST JUMPDEST SWAP3 SWAP2 POP POP JUMP JUMPDEST PUSH0 DUP2 SWAP1 POP DUP2 PUSH0 MSTORE PUSH1 0x20 PUSH0 KECCAK256 SWAP1 POP SWAP2 SWAP1 POP JUMP JUMPDEST PUSH0 PUSH1 0x20 PUSH1 0x1F DUP4 ADD DIV SWAP1 POP SWAP2 SWAP1 POP JUMP JUMPDEST PUSH0 DUP3 DUP3 SHL SWAP1 POP SWAP3 SWAP2 POP POP JUMP JUMPDEST PUSH0 PUSH1 0x8 DUP4 MUL PUSH2 0x1DB5 PUSH32 0xFFFFFFFFFFFFFFFFFFFFFFFFFFFFFFFFFFFFFFFFFFFFFFFFFFFFFFFFFFFFFFFF DUP3 PUSH2 0x1D7A JUMP JUMPDEST PUSH2 0x1DBF DUP7 DUP4 PUSH2 0x1D7A JUMP JUMPDEST SWAP6 POP DUP1 NOT DUP5 AND SWAP4 POP DUP1 DUP7 AND DUP5 OR SWAP3 POP POP POP SWAP4 SWAP3 POP POP POP JUMP JUMPDEST PUSH0 PUSH2 0x1DF1 PUSH2 0x1DEC PUSH2 0x1DE7 DUP5 PUSH2 0x142B JUMP JUMPDEST PUSH2 0x18DE JUMP JUMPDEST PUSH2 0x142B JUMP JUMPDEST SWAP1 POP SWAP2 SWAP1 POP JUMP JUMPDEST PUSH0 DUP2 SWAP1 POP SWAP2 SWAP1 POP JUMP JUMPDEST PUSH2 0x1E0A DUP4 PUSH2 0x1DD7 JUMP JUMPDEST PUSH2 0x1E1E PUSH2 0x1E16 DUP3 PUSH2 0x1DF8 JUMP JUMPDEST DUP5 DUP5 SLOAD PUSH2 0x1D86 JUMP JUMPDEST DUP3 SSTORE POP POP POP POP JUMP JUMPDEST PUSH0 SWAP1 JUMP JUMPDEST PUSH2 0x1E32 PUSH2 0x1E26 JUMP JUMPDEST PUSH2 0x1E3D DUP2 DUP5 DUP5 PUSH2 0x1E01 JUMP JUMPDEST POP POP POP JUMP JUMPDEST JUMPDEST DUP2 DUP2 LT ISZERO PUSH2 0x1E60 JUMPI PUSH2 0x1E55 PUSH0 DUP3 PUSH2 0x1E2A JUMP JUMPDEST PUSH1 0x1 DUP2 ADD SWAP1 POP PUSH2 0x1E43 JUMP JUMPDEST POP POP JUMP JUMPDEST PUSH1 0x1F DUP3 GT ISZERO PUSH2 0x1EA5 JUMPI PUSH2 0x1E76 DUP2 PUSH2 0x1D59 JUMP JUMPDEST PUSH2 0x1E7F DUP5 PUSH2 0x1D6B JUMP JUMPDEST DUP2 ADD PUSH1 0x20 DUP6 LT ISZERO PUSH2 0x1E8E JUMPI DUP2 SWAP1 POP JUMPDEST PUSH2 0x1EA2 PUSH2 0x1E9A DUP6 PUSH2 0x1D6B JUMP JUMPDEST DUP4 ADD DUP3 PUSH2 0x1E42 JUMP JUMPDEST POP POP JUMPDEST POP POP POP JUMP JUMPDEST PUSH0 DUP3 DUP3 SHR SWAP1 POP SWAP3 SWAP2 POP POP JUMP JUMPDEST PUSH0 PUSH2 0x1EC5 PUSH0 NOT DUP5 PUSH1 0x8 MUL PUSH2 0x1EAA JUMP JUMPDEST NOT DUP1 DUP4 AND SWAP2 POP POP SWAP3 SWAP2 POP POP JUMP JUMPDEST PUSH0 PUSH2 0x1EDD DUP4 DUP4 PUSH2 0x1EB6 JUMP JUMPDEST SWAP2 POP DUP3 PUSH1 0x2 MUL DUP3 OR SWAP1 POP SWAP3 SWAP2 POP POP JUMP JUMPDEST PUSH2 0x1EF6 DUP3 PUSH2 0x1498 JUMP JUMPDEST PUSH8 0xFFFFFFFFFFFFFFFF DUP2 GT ISZERO PUSH2 0x1F0F JUMPI PUSH2 0x1F0E PUSH2 0x15F7 JUMP JUMPDEST JUMPDEST PUSH2 0x1F19 DUP3 SLOAD PUSH2 0x1B2B JUMP JUMPDEST PUSH2 0x1F24 DUP3 DUP3 DUP6 PUSH2 0x1E64 JUMP JUMPDEST PUSH0 PUSH1 0x20 SWAP1 POP PUSH1 0x1F DUP4 GT PUSH1 0x1 DUP2 EQ PUSH2 0x1F55 JUMPI PUSH0 DUP5 ISZERO PUSH2 0x1F43 JUMPI DUP3 DUP8 ADD MLOAD SWAP1 POP JUMPDEST PUSH2 0x1F4D DUP6 DUP3 PUSH2 0x1ED2 JUMP JUMPDEST DUP7 SSTORE POP PUSH2 0x1FB4 JUMP JUMPDEST PUSH1 0x1F NOT DUP5 AND PUSH2 0x1F63 DUP7 PUSH2 0x1D59 JUMP JUMPDEST PUSH0 JUMPDEST DUP3 DUP2 LT ISZERO PUSH2 0x1F8A JUMPI DUP5 DUP10 ADD MLOAD DUP3 SSTORE PUSH1 0x1 DUP3 ADD SWAP2 POP PUSH1 0x20 DUP6 ADD SWAP5 POP PUSH1 0x20 DUP2 ADD SWAP1 POP PUSH2 0x1F65 JUMP JUMPDEST DUP7 DUP4 LT ISZERO PUSH2 0x1FA7 JUMPI DUP5 DUP10 ADD MLOAD PUSH2 0x1FA3 PUSH1 0x1F DUP10 AND DUP3 PUSH2 0x1EB6 JUMP JUMPDEST DUP4 SSTORE POP JUMPDEST PUSH1 0x1 PUSH1 0x2 DUP9 MUL ADD DUP9 SSTORE POP POP POP JUMPDEST POP POP POP POP POP POP JUMP JUMPDEST PUSH0 PUSH1 0x40 DUP3 ADD SWAP1 POP DUP2 DUP2 SUB PUSH0 DUP4 ADD MSTORE PUSH2 0x1FD4 DUP2 DUP6 PUSH2 0x14D0 JUMP JUMPDEST SWAP1 POP PUSH2 0x1FE3 PUSH1 0x20 DUP4 ADD DUP5 PUSH2 0x1489 JUMP JUMPDEST SWAP4 SWAP3 POP POP POP JUMP JUMPDEST PUSH32 0x496E646578206F7574206F6620626F756E647300000000000000000000000000 PUSH0 DUP3 ADD MSTORE POP JUMP JUMPDEST PUSH0 PUSH2 0x201E PUSH1 0x13 DUP4 PUSH2 0x14A2 JUMP JUMPDEST SWAP2 POP PUSH2 0x2029 DUP3 PUSH2 0x1FEA JUMP JUMPDEST PUSH1 0x20 DUP3 ADD SWAP1 POP SWAP2 SWAP1 POP JUMP JUMPDEST PUSH0 PUSH1 0x20 DUP3 ADD SWAP1 POP DUP2 DUP2 SUB PUSH0 DUP4 ADD MSTORE PUSH2 0x204B DUP2 PUSH2 0x2012 JUMP JUMPDEST SWAP1 POP SWAP2 SWAP1 POP JUMP JUMPDEST PUSH32 0x4E487B7100000000000000000000000000000000000000000000000000000000 PUSH0 MSTORE PUSH1 0x32 PUSH1 0x4 MSTORE PUSH1 0x24 PUSH0 REVERT JUMPDEST PUSH32 0x7573657220616C72656164792068617320737461636B696E6700000000000000 PUSH0 DUP3 ADD MSTORE POP JUMP JUMPDEST PUSH0 PUSH2 0x20B3 PUSH1 0x19 DUP4 PUSH2 0x14A2 JUMP JUMPDEST SWAP2 POP PUSH2 0x20BE DUP3 PUSH2 0x207F JUMP JUMPDEST PUSH1 0x20 DUP3 ADD SWAP1 POP SWAP2 SWAP1 POP JUMP JUMPDEST PUSH0 PUSH1 0x20 DUP3 ADD SWAP1 POP DUP2 DUP2 SUB PUSH0 DUP4 ADD MSTORE PUSH2 0x20E0 DUP2 PUSH2 0x20A7 JUMP JUMPDEST SWAP1 POP SWAP2 SWAP1 POP JUMP JUMPDEST PUSH0 PUSH2 0x20F1 DUP3 PUSH2 0x142B JUMP JUMPDEST SWAP2 POP PUSH2 0x20FC DUP4 PUSH2 0x142B JUMP JUMPDEST SWAP3 POP DUP3 DUP3 ADD SWAP1 POP DUP1 DUP3 GT ISZERO PUSH2 0x2114 JUMPI PUSH2 0x2113 PUSH2 0x1CF9 JUMP JUMPDEST JUMPDEST SWAP3 SWAP2 POP POP JUMP JUMPDEST PUSH0 PUSH1 0x60 DUP3 ADD SWAP1 POP PUSH2 0x212D PUSH0 DUP4 ADD DUP7 PUSH2 0x1A1D JUMP JUMPDEST PUSH2 0x213A PUSH1 0x20 DUP4 ADD DUP6 PUSH2 0x1A1D JUMP JUMPDEST PUSH2 0x2147 PUSH1 0x40 DUP4 ADD DUP5 PUSH2 0x1489 JUMP JUMPDEST SWAP5 SWAP4 POP POP POP POP JUMP JUMPDEST PUSH32 0x5A65726F20766F74696E6720706F776572000000000000000000000000000000 PUSH0 DUP3 ADD MSTORE POP JUMP JUMPDEST PUSH0 PUSH2 0x2183 PUSH1 0x11 DUP4 PUSH2 0x14A2 JUMP JUMPDEST SWAP2 POP PUSH2 0x218E DUP3 PUSH2 0x214F JUMP JUMPDEST PUSH1 0x20 DUP3 ADD SWAP1 POP SWAP2 SWAP1 POP JUMP JUMPDEST PUSH0 PUSH1 0x20 DUP3 ADD SWAP1 POP DUP2 DUP2 SUB PUSH0 DUP4 ADD MSTORE PUSH2 0x21B0 DUP2 PUSH2 0x2177 JUMP JUMPDEST SWAP1 POP SWAP2 SWAP1 POP JUMP JUMPDEST PUSH0 PUSH2 0x21C1 DUP3 PUSH2 0x142B JUMP JUMPDEST SWAP2 POP PUSH32 0xFFFFFFFFFFFFFFFFFFFFFFFFFFFFFFFFFFFFFFFFFFFFFFFFFFFFFFFFFFFFFFFF DUP3 SUB PUSH2 0x21F3 JUMPI PUSH2 0x21F2 PUSH2 0x1CF9 JUMP JUMPDEST JUMPDEST PUSH1 0x1 DUP3 ADD SWAP1 POP SWAP2 SWAP1 POP JUMP JUMPDEST PUSH32 0x416C72656164792066696E697368656421000000000000000000000000000000 PUSH0 DUP3 ADD MSTORE POP JUMP JUMPDEST PUSH0 PUSH2 0x2232 PUSH1 0x11 DUP4 PUSH2 0x14A2 JUMP JUMPDEST SWAP2 POP PUSH2 0x223D DUP3 PUSH2 0x21FE JUMP JUMPDEST PUSH1 0x20 DUP3 ADD SWAP1 POP SWAP2 SWAP1 POP JUMP JUMPDEST PUSH0 PUSH1 0x20 DUP3 ADD SWAP1 POP DUP2 DUP2 SUB PUSH0 DUP4 ADD MSTORE PUSH2 0x225F DUP2 PUSH2 0x2226 JUMP JUMPDEST SWAP1 POP SWAP2 SWAP1 POP JUMP JUMPDEST PUSH32 0x4E6F7220746872657368686F6C64206F7220646561646C696E65210000000000 PUSH0 DUP3 ADD MSTORE POP JUMP JUMPDEST PUSH0 PUSH2 0x229A PUSH1 0x1B DUP4 PUSH2 0x14A2 JUMP JUMPDEST SWAP2 POP PUSH2 0x22A5 DUP3 PUSH2 0x2266 JUMP JUMPDEST PUSH1 0x20 DUP3 ADD SWAP1 POP SWAP2 SWAP1 POP JUMP JUMPDEST PUSH0 PUSH1 0x20 DUP3 ADD SWAP1 POP DUP2 DUP2 SUB PUSH0 DUP4 ADD MSTORE PUSH2 0x22C7 DUP2 PUSH2 0x228E JUMP JUMPDEST SWAP1 POP SWAP2 SWAP1 POP JUMP JUMPDEST PUSH0 PUSH1 0x60 DUP3 ADD SWAP1 POP DUP2 DUP2 SUB PUSH0 DUP4 ADD MSTORE PUSH2 0x22E6 DUP2 DUP7 PUSH2 0x14D0 JUMP JUMPDEST SWAP1 POP PUSH2 0x22F5 PUSH1 0x20 DUP4 ADD DUP6 PUSH2 0x1489 JUMP JUMPDEST PUSH2 0x2302 PUSH1 0x40 DUP4 ADD DUP5 PUSH2 0x156C JUMP JUMPDEST SWAP5 SWAP4 POP POP POP POP JUMP JUMPDEST PUSH32 0x5265656E7472616E637947756172643A207265656E7472616E742063616C6C00 PUSH0 DUP3 ADD MSTORE POP JUMP JUMPDEST PUSH0 PUSH2 0x233E PUSH1 0x1F DUP4 PUSH2 0x14A2 JUMP JUMPDEST SWAP2 POP PUSH2 0x2349 DUP3 PUSH2 0x230A JUMP JUMPDEST PUSH1 0x20 DUP3 ADD SWAP1 POP SWAP2 SWAP1 POP JUMP JUMPDEST PUSH0 PUSH1 0x20 DUP3 ADD SWAP1 POP DUP2 DUP2 SUB PUSH0 DUP4 ADD MSTORE PUSH2 0x236B DUP2 PUSH2 0x2332 JUMP JUMPDEST SWAP1 POP SWAP2 SWAP1 POP JUMP JUMPDEST PUSH0 DUP2 PUSH1 0x1 SHR SWAP1 POP SWAP2 SWAP1 POP JUMP JUMPDEST PUSH0 DUP1 DUP3 SWAP2 POP DUP4 SWAP1 POP JUMPDEST PUSH1 0x1 DUP6 GT ISZERO PUSH2 0x23C7 JUMPI DUP1 DUP7 DIV DUP2 GT ISZERO PUSH2 0x23A3 JUMPI PUSH2 0x23A2 PUSH2 0x1CF9 JUMP JUMPDEST JUMPDEST PUSH1 0x1 DUP6 AND ISZERO PUSH2 0x23B2 JUMPI DUP1 DUP3 MUL SWAP2 POP JUMPDEST DUP1 DUP2 MUL SWAP1 POP PUSH2 0x23C0 DUP6 PUSH2 0x2372 JUMP JUMPDEST SWAP5 POP PUSH2 0x2387 JUMP JUMPDEST SWAP5 POP SWAP5 SWAP3 POP POP POP JUMP JUMPDEST PUSH0 DUP3 PUSH2 0x23DF JUMPI PUSH1 0x1 SWAP1 POP PUSH2 0x249A JUMP JUMPDEST DUP2 PUSH2 0x23EC JUMPI PUSH0 SWAP1 POP PUSH2 0x249A JUMP JUMPDEST DUP2 PUSH1 0x1 DUP2 EQ PUSH2 0x2402 JUMPI PUSH1 0x2 DUP2 EQ PUSH2 0x240C JUMPI PUSH2 0x243B JUMP JUMPDEST PUSH1 0x1 SWAP2 POP POP PUSH2 0x249A JUMP JUMPDEST PUSH1 0xFF DUP5 GT ISZERO PUSH2 0x241E JUMPI PUSH2 0x241D PUSH2 0x1CF9 JUMP JUMPDEST JUMPDEST DUP4 PUSH1 0x2 EXP SWAP2 POP DUP5 DUP3 GT ISZERO PUSH2 0x2435 JUMPI PUSH2 0x2434 PUSH2 0x1CF9 JUMP JUMPDEST JUMPDEST POP PUSH2 0x249A JUMP JUMPDEST POP PUSH1 0x20 DUP4 LT PUSH2 0x133 DUP4 LT AND PUSH1 0x4E DUP5 LT PUSH1 0xB DUP5 LT AND OR ISZERO PUSH2 0x2470 JUMPI DUP3 DUP3 EXP SWAP1 POP DUP4 DUP2 GT ISZERO PUSH2 0x246B JUMPI PUSH2 0x246A PUSH2 0x1CF9 JUMP JUMPDEST JUMPDEST PUSH2 0x249A JUMP JUMPDEST PUSH2 0x247D DUP5 DUP5 DUP5 PUSH1 0x1 PUSH2 0x237E JUMP JUMPDEST SWAP3 POP SWAP1 POP DUP2 DUP5 DIV DUP2 GT ISZERO PUSH2 0x2494 JUMPI PUSH2 0x2493 PUSH2 0x1CF9 JUMP JUMPDEST JUMPDEST DUP2 DUP2 MUL SWAP1 POP JUMPDEST SWAP4 SWAP3 POP POP POP JUMP JUMPDEST PUSH0 PUSH1 0xFF DUP3 AND SWAP1 POP SWAP2 SWAP1 POP JUMP JUMPDEST PUSH0 PUSH2 0x24B7 DUP3 PUSH2 0x142B JUMP JUMPDEST SWAP2 POP PUSH2 0x24C2 DUP4 PUSH2 0x24A1 JUMP JUMPDEST SWAP3 POP PUSH2 0x24EF PUSH32 0xFFFFFFFFFFFFFFFFFFFFFFFFFFFFFFFFFFFFFFFFFFFFFFFFFFFFFFFFFFFFFFFF DUP5 DUP5 PUSH2 0x23D0 JUMP JUMPDEST SWAP1 POP SWAP3 SWAP2 POP POP JUMP JUMPDEST PUSH0 PUSH2 0x2501 DUP3 PUSH2 0x142B JUMP JUMPDEST SWAP2 POP PUSH2 0x250C DUP4 PUSH2 0x142B JUMP JUMPDEST SWAP3 POP DUP3 DUP3 MUL PUSH2 0x251A DUP2 PUSH2 0x142B JUMP JUMPDEST SWAP2 POP DUP3 DUP3 DIV DUP5 EQ DUP4 ISZERO OR PUSH2 0x2531 JUMPI PUSH2 0x2530 PUSH2 0x1CF9 JUMP JUMPDEST JUMPDEST POP SWAP3 SWAP2 POP POP JUMP INVALID LOG2 PUSH5 0x6970667358 0x22 SLT KECCAK256 TLOAD 0xBE PUSH0 0xBB 0xCB GASPRICE PUSH21 0x5C7CD7574958A627D49730FBDDA1EFCEB1AF494DB6 SWAP8 0xF SWAP5 0xB7 PUSH5 0x736F6C6343 STOP ADDMOD BYTE STOP CALLER "
				},
				"gasEstimates": {
					"creation": {
						"codeDepositCost": "1916400",
						"executionCost": "infinite",
						"totalCost": "infinite"
					},
					"external": {
						"finishVote(uint256)": "infinite",
						"getStake()": "infinite",
						"getTotalStake()": "2455",
						"getVote(uint256)": "infinite",
						"initiateVote(string,uint256,uint256)": "infinite",
						"owner()": "2604",
						"renounceOwnership()": "infinite",
						"stake(uint256,uint256)": "infinite",
						"stakingToken()": "infinite",
						"totalStaked()": "2470",
						"transferOwnership(address)": "infinite",
						"userStaking(address)": "infinite",
						"vote(uint256,bool)": "infinite",
						"voteHistory(uint256)": "infinite",
						"withdraw()": "infinite"
					},
					"internal": {
						"_calculateVotingPower(struct StakingContract.Stake memory)": "infinite"
					}
				},
				"methodIdentifiers": {
					"finishVote(uint256)": "e13646f0",
					"getStake()": "fc0e3d90",
					"getTotalStake()": "7bc74225",
					"getVote(uint256)": "5a55c1f0",
					"initiateVote(string,uint256,uint256)": "521de117",
					"owner()": "8da5cb5b",
					"renounceOwnership()": "715018a6",
					"stake(uint256,uint256)": "7b0472f0",
					"stakingToken()": "72f702f3",
					"totalStaked()": "817b1cd2",
					"transferOwnership(address)": "f2fde38b",
					"userStaking(address)": "821460f5",
					"vote(uint256,bool)": "c9d27afe",
					"voteHistory(uint256)": "12b1d5ac",
					"withdraw()": "3ccfd60b"
				}
			},
			"storageLayout": {
				"storage": [
					{
						"astId": 158,
						"contract": "vote_contract.sol:VoteContract",
						"label": "_status",
						"offset": 0,
						"slot": "0",
						"type": "t_uint256"
					},
					{
						"astId": 8,
						"contract": "vote_contract.sol:VoteContract",
						"label": "_owner",
						"offset": 0,
						"slot": "1",
						"type": "t_address"
					},
					{
						"astId": 332,
						"contract": "vote_contract.sol:VoteContract",
						"label": "stakingToken",
						"offset": 0,
						"slot": "2",
						"type": "t_contract(IERC20)290"
					},
					{
						"astId": 334,
						"contract": "vote_contract.sol:VoteContract",
						"label": "totalStaked",
						"offset": 0,
						"slot": "3",
						"type": "t_uint256"
					},
					{
						"astId": 339,
						"contract": "vote_contract.sol:VoteContract",
						"label": "userStaking",
						"offset": 0,
						"slot": "4",
						"type": "t_mapping(t_address,t_struct(Stake)344_storage)"
					},
					{
						"astId": 548,
						"contract": "vote_contract.sol:VoteContract",
						"label": "voteHistory",
						"offset": 0,
						"slot": "5",
						"type": "t_array(t_struct(Vote)564_storage)dyn_storage"
					}
				],
				"types": {
					"t_address": {
						"encoding": "inplace",
						"label": "address",
						"numberOfBytes": "20"
					},
					"t_array(t_struct(Vote)564_storage)dyn_storage": {
						"base": "t_struct(Vote)564_storage",
						"encoding": "dynamic_array",
						"label": "struct VoteContract.Vote[]",
						"numberOfBytes": "32"
					},
					"t_contract(IERC20)290": {
						"encoding": "inplace",
						"label": "contract IERC20",
						"numberOfBytes": "20"
					},
					"t_enum(Decision)568": {
						"encoding": "inplace",
						"label": "enum VoteContract.Decision",
						"numberOfBytes": "1"
					},
					"t_mapping(t_address,t_struct(Stake)344_storage)": {
						"encoding": "mapping",
						"key": "t_address",
						"label": "mapping(address => struct StakingContract.Stake)",
						"numberOfBytes": "32",
						"value": "t_struct(Stake)344_storage"
					},
					"t_string_storage": {
						"encoding": "bytes",
						"label": "string",
						"numberOfBytes": "32"
					},
					"t_struct(Stake)344_storage": {
						"encoding": "inplace",
						"label": "struct StakingContract.Stake",
						"members": [
							{
								"astId": 341,
								"contract": "vote_contract.sol:VoteContract",
								"label": "stakedAmount",
								"offset": 0,
								"slot": "0",
								"type": "t_uint256"
							},
							{
								"astId": 343,
								"contract": "vote_contract.sol:VoteContract",
								"label": "withdrawDate",
								"offset": 0,
								"slot": "1",
								"type": "t_uint256"
							}
						],
						"numberOfBytes": "64"
					},
					"t_struct(Vote)564_storage": {
						"encoding": "inplace",
						"label": "struct VoteContract.Vote",
						"members": [
							{
								"astId": 550,
								"contract": "vote_contract.sol:VoteContract",
								"label": "deadline",
								"offset": 0,
								"slot": "0",
								"type": "t_uint256"
							},
							{
								"astId": 552,
								"contract": "vote_contract.sol:VoteContract",
								"label": "threshold",
								"offset": 0,
								"slot": "1",
								"type": "t_uint256"
							},
							{
								"astId": 554,
								"contract": "vote_contract.sol:VoteContract",
								"label": "question",
								"offset": 0,
								"slot": "2",
								"type": "t_string_storage"
							},
							{
								"astId": 556,
								"contract": "vote_contract.sol:VoteContract",
								"label": "peopleVoted",
								"offset": 0,
								"slot": "3",
								"type": "t_uint256"
							},
							{
								"astId": 558,
								"contract": "vote_contract.sol:VoteContract",
								"label": "yesVote",
								"offset": 0,
								"slot": "4",
								"type": "t_uint256"
							},
							{
								"astId": 560,
								"contract": "vote_contract.sol:VoteContract",
								"label": "noVote",
								"offset": 0,
								"slot": "5",
								"type": "t_uint256"
							},
							{
								"astId": 563,
								"contract": "vote_contract.sol:VoteContract",
								"label": "finalDecision",
								"offset": 0,
								"slot": "6",
								"type": "t_enum(Decision)568"
							}
						],
						"numberOfBytes": "224"
					},
					"t_uint256": {
						"encoding": "inplace",
						"label": "uint256",
						"numberOfBytes": "32"
					}
				}
			},
			"userdoc": {
				"kind": "user",
				"methods": {},
				"version": 1
			}
		}
	}
}