{
	"stack_contract.sol": {
		"StakingContract": {
			"abi": [
				{
					"inputs": [
						{
							"internalType": "contract IERC20",
							"name": "_stakingToken",
							"type": "address"
						}
					],
					"stateMutability": "nonpayable",
					"type": "constructor"
				},
				{
					"inputs": [
						{
							"internalType": "address",
							"name": "owner",
							"type": "address"
						}
					],
					"name": "OwnableInvalidOwner",
					"type": "error"
				},
				{
					"inputs": [
						{
							"internalType": "address",
							"name": "account",
							"type": "address"
						}
					],
					"name": "OwnableUnauthorizedAccount",
					"type": "error"
				},
				{
					"anonymous": false,
					"inputs": [
						{
							"indexed": true,
							"internalType": "address",
							"name": "previousOwner",
							"type": "address"
						},
						{
							"indexed": true,
							"internalType": "address",
							"name": "newOwner",
							"type": "address"
						}
					],
					"name": "OwnershipTransferred",
					"type": "event"
				},
				{
					"anonymous": false,
					"inputs": [
						{
							"indexed": true,
							"internalType": "address",
							"name": "user",
							"type": "address"
						},
						{
							"indexed": false,
							"internalType": "uint256",
							"name": "amount",
							"type": "uint256"
						}
					],
					"name": "Staked",
					"type": "event"
				},
				{
					"anonymous": false,
					"inputs": [
						{
							"indexed": true,
							"internalType": "address",
							"name": "user",
							"type": "address"
						},
						{
							"indexed": false,
							"internalType": "uint256",
							"name": "amount",
							"type": "uint256"
						}
					],
					"name": "Withdrawn",
					"type": "event"
				},
				{
					"inputs": [],
					"name": "getStake",
					"outputs": [
						{
							"internalType": "uint256",
							"name": "stakedAmount",
							"type": "uint256"
						},
						{
							"internalType": "uint256",
							"name": "withdrawDate",
							"type": "uint256"
						}
					],
					"stateMutability": "view",
					"type": "function"
				},
				{
					"inputs": [],
					"name": "getTotalStake",
					"outputs": [
						{
							"internalType": "uint256",
							"name": "",
							"type": "uint256"
						}
					],
					"stateMutability": "view",
					"type": "function"
				},
				{
					"inputs": [],
					"name": "owner",
					"outputs": [
						{
							"internalType": "address",
							"name": "",
							"type": "address"
						}
					],
					"stateMutability": "view",
					"type": "function"
				},
				{
					"inputs": [],
					"name": "renounceOwnership",
					"outputs": [],
					"stateMutability": "nonpayable",
					"type": "function"
				},
				{
					"inputs": [
						{
							"internalType": "uint256",
							"name": "amount",
							"type": "uint256"
						},
						{
							"internalType": "uint256",
							"name": "period",
							"type": "uint256"
						}
					],
					"name": "stake",
					"outputs": [],
					"stateMutability": "nonpayable",
					"type": "function"
				},
				{
					"inputs": [],
					"name": "stakingToken",
					"outputs": [
						{
							"internalType": "contract IERC20",
							"name": "",
							"type": "address"
						}
					],
					"stateMutability": "view",
					"type": "function"
				},
				{
					"inputs": [],
					"name": "totalStaked",
					"outputs": [
						{
							"internalType": "uint256",
							"name": "",
							"type": "uint256"
						}
					],
					"stateMutability": "view",
					"type": "function"
				},
				{
					"inputs": [
						{
							"internalType": "address",
							"name": "newOwner",
							"type": "address"
						}
					],
					"name": "transferOwnership",
					"outputs": [],
					"stateMutability": "nonpayable",
					"type": "function"
				},
				{
					"inputs": [
						{
							"internalType": "address",
							"name": "",
							"type": "address"
						}
					],
					"name": "userStaking",
					"outputs": [
						{
							"internalType": "uint256",
							"name": "stakedAmount",
							"type": "uint256"
						},
						{
							"internalType": "uint256",
							"name": "withdrawDate",
							"type": "uint256"
						}
					],
					"stateMutability": "view",
					"type": "function"
				},
				{
					"inputs": [],
					"name": "withdraw",
					"outputs": [],
					"stateMutability": "nonpayable",
					"type": "function"
				}
			],
			"devdoc": {
				"errors": {
					"OwnableInvalidOwner(address)": [
						{
							"details": "The owner is not a valid owner account. (eg. `address(0)`)"
						}
					],
					"OwnableUnauthorizedAccount(address)": [
						{
							"details": "The caller account is not authorized to perform an operation."
						}
					]
				},
				"kind": "dev",
				"methods": {
					"owner()": {
						"details": "Returns the address of the current owner."
					},
					"renounceOwnership()": {
						"details": "Leaves the contract without owner. It will not be possible to call `onlyOwner` functions. Can only be called by the current owner. NOTE: Renouncing ownership will leave the contract without an owner, thereby disabling any functionality that is only available to the owner."
					},
					"transferOwnership(address)": {
						"details": "Transfers ownership of the contract to a new account (`newOwner`). Can only be called by the current owner."
					}
				},
				"version": 1
			},
			"evm": {
				"assembly": "    /* \"stack_contract.sol\":232:2233  contract StakingContract is ReentrancyGuard, Ownable {... */\n  mstore(0x40, 0x80)\n    /* \"stack_contract.sol\":636:735  constructor(IERC20 _stakingToken) Ownable(msg.sender) {... */\n  callvalue\n  dup1\n  iszero\n  tag_1\n  jumpi\n  0x00\n  dup1\n  revert\ntag_1:\n  pop\n  mload(0x40)\n  sub(codesize, bytecodeSize)\n  dup1\n  bytecodeSize\n  dup4\n  codecopy\n  dup2\n  dup2\n  add\n  0x40\n  mstore\n  dup2\n  add\n  swap1\n  tag_2\n  swap2\n  swap1\n  tag_3\n  jump\t// in\ntag_2:\n    /* \"stack_contract.sol\":678:688  msg.sender */\n  caller\n    /* \"@openzeppelin/contracts/security/ReentrancyGuard.sol\":1716:1717  1 */\n  0x01\n    /* \"@openzeppelin/contracts/security/ReentrancyGuard.sol\":1821:1828  _status */\n  0x00\n    /* \"@openzeppelin/contracts/security/ReentrancyGuard.sol\":1821:1843  _status = _NOT_ENTERED */\n  dup2\n  swap1\n  sstore\n  pop\n    /* \"@openzeppelin/contracts/access/Ownable.sol\":1297:1298  0 */\n  0x00\n    /* \"@openzeppelin/contracts/access/Ownable.sol\":1273:1299  initialOwner == address(0) */\n  0xffffffffffffffffffffffffffffffffffffffff\n  and\n    /* \"@openzeppelin/contracts/access/Ownable.sol\":1273:1285  initialOwner */\n  dup2\n    /* \"@openzeppelin/contracts/access/Ownable.sol\":1273:1299  initialOwner == address(0) */\n  0xffffffffffffffffffffffffffffffffffffffff\n  and\n  sub\n    /* \"@openzeppelin/contracts/access/Ownable.sol\":1269:1364  if (initialOwner == address(0)) {... */\n  tag_9\n  jumpi\n    /* \"@openzeppelin/contracts/access/Ownable.sol\":1350:1351  0 */\n  0x00\n    /* \"@openzeppelin/contracts/access/Ownable.sol\":1322:1353  OwnableInvalidOwner(address(0)) */\n  mload(0x40)\n  0x1e4fbdf700000000000000000000000000000000000000000000000000000000\n  dup2\n  mstore\n  0x04\n  add\n  tag_10\n  swap2\n  swap1\n  tag_11\n  jump\t// in\ntag_10:\n  mload(0x40)\n  dup1\n  swap2\n  sub\n  swap1\n  revert\n    /* \"@openzeppelin/contracts/access/Ownable.sol\":1269:1364  if (initialOwner == address(0)) {... */\ntag_9:\n    /* \"@openzeppelin/contracts/access/Ownable.sol\":1373:1405  _transferOwnership(initialOwner) */\n  tag_12\n    /* \"@openzeppelin/contracts/access/Ownable.sol\":1392:1404  initialOwner */\n  dup2\n    /* \"@openzeppelin/contracts/access/Ownable.sol\":1373:1391  _transferOwnership */\n  shl(0x20, tag_13)\n    /* \"@openzeppelin/contracts/access/Ownable.sol\":1373:1405  _transferOwnership(initialOwner) */\n  0x20\n  shr\n  jump\t// in\ntag_12:\n    /* \"@openzeppelin/contracts/access/Ownable.sol\":1225:1412  constructor(address initialOwner) {... */\n  pop\n    /* \"stack_contract.sol\":715:728  _stakingToken */\n  dup1\n    /* \"stack_contract.sol\":700:712  stakingToken */\n  0x02\n  0x00\n    /* \"stack_contract.sol\":700:728  stakingToken = _stakingToken */\n  0x0100\n  exp\n  dup2\n  sload\n  dup2\n  0xffffffffffffffffffffffffffffffffffffffff\n  mul\n  not\n  and\n  swap1\n  dup4\n  0xffffffffffffffffffffffffffffffffffffffff\n  and\n  mul\n  or\n  swap1\n  sstore\n  pop\n    /* \"stack_contract.sol\":636:735  constructor(IERC20 _stakingToken) Ownable(msg.sender) {... */\n  pop\n    /* \"stack_contract.sol\":232:2233  contract StakingContract is ReentrancyGuard, Ownable {... */\n  jump(tag_15)\n    /* \"@openzeppelin/contracts/access/Ownable.sol\":2912:3099  function _transferOwnership(address newOwner) internal virtual {... */\ntag_13:\n    /* \"@openzeppelin/contracts/access/Ownable.sol\":2985:3001  address oldOwner */\n  0x00\n    /* \"@openzeppelin/contracts/access/Ownable.sol\":3004:3010  _owner */\n  0x01\n  0x00\n  swap1\n  sload\n  swap1\n  0x0100\n  exp\n  swap1\n  div\n  0xffffffffffffffffffffffffffffffffffffffff\n  and\n    /* \"@openzeppelin/contracts/access/Ownable.sol\":2985:3010  address oldOwner = _owner */\n  swap1\n  pop\n    /* \"@openzeppelin/contracts/access/Ownable.sol\":3029:3037  newOwner */\n  dup2\n    /* \"@openzeppelin/contracts/access/Ownable.sol\":3020:3026  _owner */\n  0x01\n  0x00\n    /* \"@openzeppelin/contracts/access/Ownable.sol\":3020:3037  _owner = newOwner */\n  0x0100\n  exp\n  dup2\n  sload\n  dup2\n  0xffffffffffffffffffffffffffffffffffffffff\n  mul\n  not\n  and\n  swap1\n  dup4\n  0xffffffffffffffffffffffffffffffffffffffff\n  and\n  mul\n  or\n  swap1\n  sstore\n  pop\n    /* \"@openzeppelin/contracts/access/Ownable.sol\":3083:3091  newOwner */\n  dup2\n    /* \"@openzeppelin/contracts/access/Ownable.sol\":3052:3092  OwnershipTransferred(oldOwner, newOwner) */\n  0xffffffffffffffffffffffffffffffffffffffff\n  and\n    /* \"@openzeppelin/contracts/access/Ownable.sol\":3073:3081  oldOwner */\n  dup2\n    /* \"@openzeppelin/contracts/access/Ownable.sol\":3052:3092  OwnershipTransferred(oldOwner, newOwner) */\n  0xffffffffffffffffffffffffffffffffffffffff\n  and\n  0x8be0079c531659141344cd1fd0a4f28419497f9722a3daafe3b4186f6b6457e0\n  mload(0x40)\n  mload(0x40)\n  dup1\n  swap2\n  sub\n  swap1\n  log3\n    /* \"@openzeppelin/contracts/access/Ownable.sol\":2975:3099  {... */\n  pop\n    /* \"@openzeppelin/contracts/access/Ownable.sol\":2912:3099  function _transferOwnership(address newOwner) internal virtual {... */\n  pop\n  jump\t// out\n    /* \"#utility.yul\":88:205   */\ntag_18:\n    /* \"#utility.yul\":197:198   */\n  0x00\n    /* \"#utility.yul\":194:195   */\n  dup1\n    /* \"#utility.yul\":187:199   */\n  revert\n    /* \"#utility.yul\":334:460   */\ntag_20:\n    /* \"#utility.yul\":371:378   */\n  0x00\n    /* \"#utility.yul\":411:453   */\n  0xffffffffffffffffffffffffffffffffffffffff\n    /* \"#utility.yul\":404:409   */\n  dup3\n    /* \"#utility.yul\":400:454   */\n  and\n    /* \"#utility.yul\":389:454   */\n  swap1\n  pop\n    /* \"#utility.yul\":334:460   */\n  swap2\n  swap1\n  pop\n  jump\t// out\n    /* \"#utility.yul\":466:562   */\ntag_21:\n    /* \"#utility.yul\":503:510   */\n  0x00\n    /* \"#utility.yul\":532:556   */\n  tag_32\n    /* \"#utility.yul\":550:555   */\n  dup3\n    /* \"#utility.yul\":532:556   */\n  tag_20\n  jump\t// in\ntag_32:\n    /* \"#utility.yul\":521:556   */\n  swap1\n  pop\n    /* \"#utility.yul\":466:562   */\n  swap2\n  swap1\n  pop\n  jump\t// out\n    /* \"#utility.yul\":568:678   */\ntag_22:\n    /* \"#utility.yul\":619:626   */\n  0x00\n    /* \"#utility.yul\":648:672   */\n  tag_34\n    /* \"#utility.yul\":666:671   */\n  dup3\n    /* \"#utility.yul\":648:672   */\n  tag_21\n  jump\t// in\ntag_34:\n    /* \"#utility.yul\":637:672   */\n  swap1\n  pop\n    /* \"#utility.yul\":568:678   */\n  swap2\n  swap1\n  pop\n  jump\t// out\n    /* \"#utility.yul\":684:834   */\ntag_23:\n    /* \"#utility.yul\":771:809   */\n  tag_36\n    /* \"#utility.yul\":803:808   */\n  dup2\n    /* \"#utility.yul\":771:809   */\n  tag_22\n  jump\t// in\ntag_36:\n    /* \"#utility.yul\":764:769   */\n  dup2\n    /* \"#utility.yul\":761:810   */\n  eq\n    /* \"#utility.yul\":751:828   */\n  tag_37\n  jumpi\n    /* \"#utility.yul\":824:825   */\n  0x00\n    /* \"#utility.yul\":821:822   */\n  dup1\n    /* \"#utility.yul\":814:826   */\n  revert\n    /* \"#utility.yul\":751:828   */\ntag_37:\n    /* \"#utility.yul\":684:834   */\n  pop\n  jump\t// out\n    /* \"#utility.yul\":840:1011   */\ntag_24:\n    /* \"#utility.yul\":911:916   */\n  0x00\n    /* \"#utility.yul\":942:948   */\n  dup2\n    /* \"#utility.yul\":936:949   */\n  mload\n    /* \"#utility.yul\":927:949   */\n  swap1\n  pop\n    /* \"#utility.yul\":958:1005   */\n  tag_39\n    /* \"#utility.yul\":999:1004   */\n  dup2\n    /* \"#utility.yul\":958:1005   */\n  tag_23\n  jump\t// in\ntag_39:\n    /* \"#utility.yul\":840:1011   */\n  swap3\n  swap2\n  pop\n  pop\n  jump\t// out\n    /* \"#utility.yul\":1017:1396   */\ntag_3:\n    /* \"#utility.yul\":1101:1107   */\n  0x00\n    /* \"#utility.yul\":1150:1152   */\n  0x20\n    /* \"#utility.yul\":1138:1147   */\n  dup3\n    /* \"#utility.yul\":1129:1136   */\n  dup5\n    /* \"#utility.yul\":1125:1148   */\n  sub\n    /* \"#utility.yul\":1121:1153   */\n  slt\n    /* \"#utility.yul\":1118:1237   */\n  iszero\n  tag_41\n  jumpi\n    /* \"#utility.yul\":1156:1235   */\n  tag_42\n  tag_18\n  jump\t// in\ntag_42:\n    /* \"#utility.yul\":1118:1237   */\ntag_41:\n    /* \"#utility.yul\":1276:1277   */\n  0x00\n    /* \"#utility.yul\":1301:1379   */\n  tag_43\n    /* \"#utility.yul\":1371:1378   */\n  dup5\n    /* \"#utility.yul\":1362:1368   */\n  dup3\n    /* \"#utility.yul\":1351:1360   */\n  dup6\n    /* \"#utility.yul\":1347:1369   */\n  add\n    /* \"#utility.yul\":1301:1379   */\n  tag_24\n  jump\t// in\ntag_43:\n    /* \"#utility.yul\":1291:1379   */\n  swap2\n  pop\n    /* \"#utility.yul\":1247:1389   */\n  pop\n    /* \"#utility.yul\":1017:1396   */\n  swap3\n  swap2\n  pop\n  pop\n  jump\t// out\n    /* \"#utility.yul\":1402:1520   */\ntag_25:\n    /* \"#utility.yul\":1489:1513   */\n  tag_45\n    /* \"#utility.yul\":1507:1512   */\n  dup2\n    /* \"#utility.yul\":1489:1513   */\n  tag_21\n  jump\t// in\ntag_45:\n    /* \"#utility.yul\":1484:1487   */\n  dup3\n    /* \"#utility.yul\":1477:1514   */\n  mstore\n    /* \"#utility.yul\":1402:1520   */\n  pop\n  pop\n  jump\t// out\n    /* \"#utility.yul\":1526:1748   */\ntag_11:\n    /* \"#utility.yul\":1619:1623   */\n  0x00\n    /* \"#utility.yul\":1657:1659   */\n  0x20\n    /* \"#utility.yul\":1646:1655   */\n  dup3\n    /* \"#utility.yul\":1642:1660   */\n  add\n    /* \"#utility.yul\":1634:1660   */\n  swap1\n  pop\n    /* \"#utility.yul\":1670:1741   */\n  tag_47\n    /* \"#utility.yul\":1738:1739   */\n  0x00\n    /* \"#utility.yul\":1727:1736   */\n  dup4\n    /* \"#utility.yul\":1723:1740   */\n  add\n    /* \"#utility.yul\":1714:1720   */\n  dup5\n    /* \"#utility.yul\":1670:1741   */\n  tag_25\n  jump\t// in\ntag_47:\n    /* \"#utility.yul\":1526:1748   */\n  swap3\n  swap2\n  pop\n  pop\n  jump\t// out\n    /* \"stack_contract.sol\":232:2233  contract StakingContract is ReentrancyGuard, Ownable {... */\ntag_15:\n  dataSize(sub_0)\n  dup1\n  dataOffset(sub_0)\n  0x00\n  codecopy\n  0x00\n  return\nstop\n\nsub_0: assembly {\n        /* \"stack_contract.sol\":232:2233  contract StakingContract is ReentrancyGuard, Ownable {... */\n      mstore(0x40, 0x80)\n      callvalue\n      dup1\n      iszero\n      tag_1\n      jumpi\n      0x00\n      dup1\n      revert\n    tag_1:\n      pop\n      jumpi(tag_2, lt(calldatasize, 0x04))\n      shr(0xe0, calldataload(0x00))\n      dup1\n      0x817b1cd2\n      gt\n      tag_13\n      jumpi\n      dup1\n      0x817b1cd2\n      eq\n      tag_8\n      jumpi\n      dup1\n      0x821460f5\n      eq\n      tag_9\n      jumpi\n      dup1\n      0x8da5cb5b\n      eq\n      tag_10\n      jumpi\n      dup1\n      0xf2fde38b\n      eq\n      tag_11\n      jumpi\n      dup1\n      0xfc0e3d90\n      eq\n      tag_12\n      jumpi\n      jump(tag_2)\n    tag_13:\n      dup1\n      0x3ccfd60b\n      eq\n      tag_3\n      jumpi\n      dup1\n      0x715018a6\n      eq\n      tag_4\n      jumpi\n      dup1\n      0x72f702f3\n      eq\n      tag_5\n      jumpi\n      dup1\n      0x7b0472f0\n      eq\n      tag_6\n      jumpi\n      dup1\n      0x7bc74225\n      eq\n      tag_7\n      jumpi\n    tag_2:\n      0x00\n      dup1\n      revert\n        /* \"stack_contract.sol\":1673:2230  function withdraw() external nonReentrant {... */\n    tag_3:\n      tag_14\n      tag_15\n      jump\t// in\n    tag_14:\n      stop\n        /* \"@openzeppelin/contracts/access/Ownable.sol\":2293:2394  function renounceOwnership() public virtual onlyOwner {... */\n    tag_4:\n      tag_16\n      tag_17\n      jump\t// in\n    tag_16:\n      stop\n        /* \"stack_contract.sol\":292:318  IERC20 public stakingToken */\n    tag_5:\n      tag_18\n      tag_19\n      jump\t// in\n    tag_18:\n      mload(0x40)\n      tag_20\n      swap2\n      swap1\n      tag_21\n      jump\t// in\n    tag_20:\n      mload(0x40)\n      dup1\n      swap2\n      sub\n      swap1\n      return\n        /* \"stack_contract.sol\":745:1347  function stake(uint256 amount, uint256 period) external nonReentrant {... */\n    tag_6:\n      tag_22\n      0x04\n      dup1\n      calldatasize\n      sub\n      dup2\n      add\n      swap1\n      tag_23\n      swap2\n      swap1\n      tag_24\n      jump\t// in\n    tag_23:\n      tag_25\n      jump\t// in\n    tag_22:\n      stop\n        /* \"stack_contract.sol\":1574:1663  function getTotalStake() public view returns(uint256) {... */\n    tag_7:\n      tag_26\n      tag_27\n      jump\t// in\n    tag_26:\n      mload(0x40)\n      tag_28\n      swap2\n      swap1\n      tag_29\n      jump\t// in\n    tag_28:\n      mload(0x40)\n      dup1\n      swap2\n      sub\n      swap1\n      return\n        /* \"stack_contract.sol\":325:351  uint256 public totalStaked */\n    tag_8:\n      tag_30\n      tag_31\n      jump\t// in\n    tag_30:\n      mload(0x40)\n      tag_32\n      swap2\n      swap1\n      tag_29\n      jump\t// in\n    tag_32:\n      mload(0x40)\n      dup1\n      swap2\n      sub\n      swap1\n      return\n        /* \"stack_contract.sol\":362:406  mapping(address => Stake) public userStaking */\n    tag_9:\n      tag_33\n      0x04\n      dup1\n      calldatasize\n      sub\n      dup2\n      add\n      swap1\n      tag_34\n      swap2\n      swap1\n      tag_35\n      jump\t// in\n    tag_34:\n      tag_36\n      jump\t// in\n    tag_33:\n      mload(0x40)\n      tag_37\n      swap3\n      swap2\n      swap1\n      tag_38\n      jump\t// in\n    tag_37:\n      mload(0x40)\n      dup1\n      swap2\n      sub\n      swap1\n      return\n        /* \"@openzeppelin/contracts/access/Ownable.sol\":1638:1723  function owner() public view virtual returns (address) {... */\n    tag_10:\n      tag_39\n      tag_40\n      jump\t// in\n    tag_39:\n      mload(0x40)\n      tag_41\n      swap2\n      swap1\n      tag_42\n      jump\t// in\n    tag_41:\n      mload(0x40)\n      dup1\n      swap2\n      sub\n      swap1\n      return\n        /* \"@openzeppelin/contracts/access/Ownable.sol\":2543:2758  function transferOwnership(address newOwner) public virtual onlyOwner {... */\n    tag_11:\n      tag_43\n      0x04\n      dup1\n      calldatasize\n      sub\n      dup2\n      add\n      swap1\n      tag_44\n      swap2\n      swap1\n      tag_35\n      jump\t// in\n    tag_44:\n      tag_45\n      jump\t// in\n    tag_43:\n      stop\n        /* \"stack_contract.sol\":1353:1568  function getStake() public view returns(uint256 stakedAmount, uint256 withdrawDate) {... */\n    tag_12:\n      tag_46\n      tag_47\n      jump\t// in\n    tag_46:\n      mload(0x40)\n      tag_48\n      swap3\n      swap2\n      swap1\n      tag_38\n      jump\t// in\n    tag_48:\n      mload(0x40)\n      dup1\n      swap2\n      sub\n      swap1\n      return\n        /* \"stack_contract.sol\":1673:2230  function withdraw() external nonReentrant {... */\n    tag_15:\n        /* \"@openzeppelin/contracts/security/ReentrancyGuard.sol\":2261:2282  _nonReentrantBefore() */\n      tag_50\n        /* \"@openzeppelin/contracts/security/ReentrancyGuard.sol\":2261:2280  _nonReentrantBefore */\n      tag_51\n        /* \"@openzeppelin/contracts/security/ReentrancyGuard.sol\":2261:2282  _nonReentrantBefore() */\n      jump\t// in\n    tag_50:\n        /* \"stack_contract.sol\":1725:1747  Stake memory userStack */\n      0x00\n        /* \"stack_contract.sol\":1750:1761  userStaking */\n      0x04\n        /* \"stack_contract.sol\":1750:1773  userStaking[msg.sender] */\n      0x00\n        /* \"stack_contract.sol\":1762:1772  msg.sender */\n      caller\n        /* \"stack_contract.sol\":1750:1773  userStaking[msg.sender] */\n      0xffffffffffffffffffffffffffffffffffffffff\n      and\n      0xffffffffffffffffffffffffffffffffffffffff\n      and\n      dup2\n      mstore\n      0x20\n      add\n      swap1\n      dup2\n      mstore\n      0x20\n      add\n      0x00\n      keccak256\n        /* \"stack_contract.sol\":1725:1773  Stake memory userStack = userStaking[msg.sender] */\n      mload(0x40)\n      dup1\n      0x40\n      add\n      0x40\n      mstore\n      swap1\n      dup2\n      0x00\n      dup3\n      add\n      sload\n      dup2\n      mstore\n      0x20\n      add\n      0x01\n      dup3\n      add\n      sload\n      dup2\n      mstore\n      pop\n      pop\n      swap1\n      pop\n        /* \"stack_contract.sol\":1816:1817  0 */\n      0x00\n        /* \"stack_contract.sol\":1791:1800  userStack */\n      dup2\n        /* \"stack_contract.sol\":1791:1813  userStack.stakedAmount */\n      0x00\n      add\n      mload\n        /* \"stack_contract.sol\":1791:1817  userStack.stakedAmount > 0 */\n      gt\n        /* \"stack_contract.sol\":1783:1839  require(userStack.stakedAmount > 0, \"Cannot withdraw 0\") */\n      tag_53\n      jumpi\n      mload(0x40)\n      0x08c379a000000000000000000000000000000000000000000000000000000000\n      dup2\n      mstore\n      0x04\n      add\n      tag_54\n      swap1\n      tag_55\n      jump\t// in\n    tag_54:\n      mload(0x40)\n      dup1\n      swap2\n      sub\n      swap1\n      revert\n    tag_53:\n        /* \"stack_contract.sol\":1883:1898  block.timestamp */\n      timestamp\n        /* \"stack_contract.sol\":1857:1866  userStack */\n      dup2\n        /* \"stack_contract.sol\":1857:1879  userStack.withdrawDate */\n      0x20\n      add\n      mload\n        /* \"stack_contract.sol\":1857:1898  userStack.withdrawDate <= block.timestamp */\n      gt\n      iszero\n        /* \"stack_contract.sol\":1849:1922  require(userStack.withdrawDate <= block.timestamp, \"Too early withdraw!\") */\n      tag_56\n      jumpi\n      mload(0x40)\n      0x08c379a000000000000000000000000000000000000000000000000000000000\n      dup2\n      mstore\n      0x04\n      add\n      tag_57\n      swap1\n      tag_58\n      jump\t// in\n    tag_57:\n      mload(0x40)\n      dup1\n      swap2\n      sub\n      swap1\n      revert\n    tag_56:\n        /* \"stack_contract.sol\":1941:1953  bool success */\n      0x00\n        /* \"stack_contract.sol\":1956:1968  stakingToken */\n      0x02\n      0x00\n      swap1\n      sload\n      swap1\n      0x0100\n      exp\n      swap1\n      div\n      0xffffffffffffffffffffffffffffffffffffffff\n      and\n        /* \"stack_contract.sol\":1956:1977  stakingToken.transfer */\n      0xffffffffffffffffffffffffffffffffffffffff\n      and\n      0xa9059cbb\n        /* \"stack_contract.sol\":1978:1988  msg.sender */\n      caller\n        /* \"stack_contract.sol\":1990:1999  userStack */\n      dup5\n        /* \"stack_contract.sol\":1990:2012  userStack.stakedAmount */\n      0x00\n      add\n      mload\n        /* \"stack_contract.sol\":1956:2013  stakingToken.transfer(msg.sender, userStack.stakedAmount) */\n      mload(0x40)\n      dup4\n      0xffffffff\n      and\n      0xe0\n      shl\n      dup2\n      mstore\n      0x04\n      add\n      tag_59\n      swap3\n      swap2\n      swap1\n      tag_60\n      jump\t// in\n    tag_59:\n      0x20\n      mload(0x40)\n      dup1\n      dup4\n      sub\n      dup2\n      0x00\n      dup8\n      gas\n      call\n      iszero\n      dup1\n      iszero\n      tag_62\n      jumpi\n      returndatasize\n      0x00\n      dup1\n      returndatacopy\n      revert(0x00, returndatasize)\n    tag_62:\n      pop\n      pop\n      pop\n      pop\n      mload(0x40)\n      returndatasize\n      not(0x1f)\n      0x1f\n      dup3\n      add\n      and\n      dup3\n      add\n      dup1\n      0x40\n      mstore\n      pop\n      dup2\n      add\n      swap1\n      tag_63\n      swap2\n      swap1\n      tag_64\n      jump\t// in\n    tag_63:\n        /* \"stack_contract.sol\":1941:2013  bool success = stakingToken.transfer(msg.sender, userStack.stakedAmount) */\n      swap1\n      pop\n        /* \"stack_contract.sol\":2031:2038  success */\n      dup1\n        /* \"stack_contract.sol\":2023:2058  require(success, \"Transfer failed\") */\n      tag_65\n      jumpi\n      mload(0x40)\n      0x08c379a000000000000000000000000000000000000000000000000000000000\n      dup2\n      mstore\n      0x04\n      add\n      tag_66\n      swap1\n      tag_67\n      jump\t// in\n    tag_66:\n      mload(0x40)\n      dup1\n      swap2\n      sub\n      swap1\n      revert\n    tag_65:\n        /* \"stack_contract.sol\":2084:2093  userStack */\n      dup2\n        /* \"stack_contract.sol\":2084:2106  userStack.stakedAmount */\n      0x00\n      add\n      mload\n        /* \"stack_contract.sol\":2069:2080  totalStaked */\n      0x03\n      0x00\n        /* \"stack_contract.sol\":2069:2106  totalStaked -= userStack.stakedAmount */\n      dup3\n      dup3\n      sload\n      tag_68\n      swap2\n      swap1\n      tag_69\n      jump\t// in\n    tag_68:\n      swap3\n      pop\n      pop\n      dup2\n      swap1\n      sstore\n      pop\n        /* \"stack_contract.sol\":2143:2154  Stake(0, 0) */\n      mload(0x40)\n      dup1\n      0x40\n      add\n      0x40\n      mstore\n      dup1\n        /* \"stack_contract.sol\":2149:2150  0 */\n      0x00\n        /* \"stack_contract.sol\":2143:2154  Stake(0, 0) */\n      dup2\n      mstore\n      0x20\n      add\n        /* \"stack_contract.sol\":2152:2153  0 */\n      0x00\n        /* \"stack_contract.sol\":2143:2154  Stake(0, 0) */\n      dup2\n      mstore\n      pop\n        /* \"stack_contract.sol\":2117:2128  userStaking */\n      0x04\n        /* \"stack_contract.sol\":2117:2140  userStaking[msg.sender] */\n      0x00\n        /* \"stack_contract.sol\":2129:2139  msg.sender */\n      caller\n        /* \"stack_contract.sol\":2117:2140  userStaking[msg.sender] */\n      0xffffffffffffffffffffffffffffffffffffffff\n      and\n      0xffffffffffffffffffffffffffffffffffffffff\n      and\n      dup2\n      mstore\n      0x20\n      add\n      swap1\n      dup2\n      mstore\n      0x20\n      add\n      0x00\n      keccak256\n        /* \"stack_contract.sol\":2117:2154  userStaking[msg.sender] = Stake(0, 0) */\n      0x00\n      dup3\n      add\n      mload\n      dup2\n      0x00\n      add\n      sstore\n      0x20\n      dup3\n      add\n      mload\n      dup2\n      0x01\n      add\n      sstore\n      swap1\n      pop\n      pop\n        /* \"stack_contract.sol\":2188:2198  msg.sender */\n      caller\n        /* \"stack_contract.sol\":2178:2223  Withdrawn(msg.sender, userStack.stakedAmount) */\n      0xffffffffffffffffffffffffffffffffffffffff\n      and\n      0x7084f5476618d8e60b11ef0d7d3f06914655adb8793e28ff7f018d4c76d505d5\n        /* \"stack_contract.sol\":2200:2209  userStack */\n      dup4\n        /* \"stack_contract.sol\":2200:2222  userStack.stakedAmount */\n      0x00\n      add\n      mload\n        /* \"stack_contract.sol\":2178:2223  Withdrawn(msg.sender, userStack.stakedAmount) */\n      mload(0x40)\n      tag_70\n      swap2\n      swap1\n      tag_29\n      jump\t// in\n    tag_70:\n      mload(0x40)\n      dup1\n      swap2\n      sub\n      swap1\n      log2\n        /* \"stack_contract.sol\":1715:2230  {... */\n      pop\n      pop\n        /* \"@openzeppelin/contracts/security/ReentrancyGuard.sol\":2303:2323  _nonReentrantAfter() */\n      tag_71\n        /* \"@openzeppelin/contracts/security/ReentrancyGuard.sol\":2303:2321  _nonReentrantAfter */\n      tag_72\n        /* \"@openzeppelin/contracts/security/ReentrancyGuard.sol\":2303:2323  _nonReentrantAfter() */\n      jump\t// in\n    tag_71:\n        /* \"stack_contract.sol\":1673:2230  function withdraw() external nonReentrant {... */\n      jump\t// out\n        /* \"@openzeppelin/contracts/access/Ownable.sol\":2293:2394  function renounceOwnership() public virtual onlyOwner {... */\n    tag_17:\n        /* \"@openzeppelin/contracts/access/Ownable.sol\":1531:1544  _checkOwner() */\n      tag_74\n        /* \"@openzeppelin/contracts/access/Ownable.sol\":1531:1542  _checkOwner */\n      tag_75\n        /* \"@openzeppelin/contracts/access/Ownable.sol\":1531:1544  _checkOwner() */\n      jump\t// in\n    tag_74:\n        /* \"@openzeppelin/contracts/access/Ownable.sol\":2357:2387  _transferOwnership(address(0)) */\n      tag_77\n        /* \"@openzeppelin/contracts/access/Ownable.sol\":2384:2385  0 */\n      0x00\n        /* \"@openzeppelin/contracts/access/Ownable.sol\":2357:2375  _transferOwnership */\n      tag_78\n        /* \"@openzeppelin/contracts/access/Ownable.sol\":2357:2387  _transferOwnership(address(0)) */\n      jump\t// in\n    tag_77:\n        /* \"@openzeppelin/contracts/access/Ownable.sol\":2293:2394  function renounceOwnership() public virtual onlyOwner {... */\n      jump\t// out\n        /* \"stack_contract.sol\":292:318  IERC20 public stakingToken */\n    tag_19:\n      0x02\n      0x00\n      swap1\n      sload\n      swap1\n      0x0100\n      exp\n      swap1\n      div\n      0xffffffffffffffffffffffffffffffffffffffff\n      and\n      dup2\n      jump\t// out\n        /* \"stack_contract.sol\":745:1347  function stake(uint256 amount, uint256 period) external nonReentrant {... */\n    tag_25:\n        /* \"@openzeppelin/contracts/security/ReentrancyGuard.sol\":2261:2282  _nonReentrantBefore() */\n      tag_80\n        /* \"@openzeppelin/contracts/security/ReentrancyGuard.sol\":2261:2280  _nonReentrantBefore */\n      tag_51\n        /* \"@openzeppelin/contracts/security/ReentrancyGuard.sol\":2261:2282  _nonReentrantBefore() */\n      jump\t// in\n    tag_80:\n        /* \"stack_contract.sol\":885:886  0 */\n      0x00\n        /* \"stack_contract.sol\":845:856  userStaking */\n      0x04\n        /* \"stack_contract.sol\":845:868  userStaking[msg.sender] */\n      0x00\n        /* \"stack_contract.sol\":857:867  msg.sender */\n      caller\n        /* \"stack_contract.sol\":845:868  userStaking[msg.sender] */\n      0xffffffffffffffffffffffffffffffffffffffff\n      and\n      0xffffffffffffffffffffffffffffffffffffffff\n      and\n      dup2\n      mstore\n      0x20\n      add\n      swap1\n      dup2\n      mstore\n      0x20\n      add\n      0x00\n      keccak256\n        /* \"stack_contract.sol\":845:881  userStaking[msg.sender].stakedAmount */\n      0x00\n      add\n      sload\n        /* \"stack_contract.sol\":845:886  userStaking[msg.sender].stakedAmount == 0 */\n      eq\n        /* \"stack_contract.sol\":845:931  userStaking[msg.sender].stakedAmount == 0 && userStaking[msg.sender].withdrawDate == 0 */\n      dup1\n      iszero\n      tag_82\n      jumpi\n      pop\n        /* \"stack_contract.sol\":930:931  0 */\n      0x00\n        /* \"stack_contract.sol\":890:901  userStaking */\n      0x04\n        /* \"stack_contract.sol\":890:913  userStaking[msg.sender] */\n      0x00\n        /* \"stack_contract.sol\":902:912  msg.sender */\n      caller\n        /* \"stack_contract.sol\":890:913  userStaking[msg.sender] */\n      0xffffffffffffffffffffffffffffffffffffffff\n      and\n      0xffffffffffffffffffffffffffffffffffffffff\n      and\n      dup2\n      mstore\n      0x20\n      add\n      swap1\n      dup2\n      mstore\n      0x20\n      add\n      0x00\n      keccak256\n        /* \"stack_contract.sol\":890:926  userStaking[msg.sender].withdrawDate */\n      0x01\n      add\n      sload\n        /* \"stack_contract.sol\":890:931  userStaking[msg.sender].withdrawDate == 0 */\n      eq\n        /* \"stack_contract.sol\":845:931  userStaking[msg.sender].stakedAmount == 0 && userStaking[msg.sender].withdrawDate == 0 */\n    tag_82:\n        /* \"stack_contract.sol\":824:982  require(... */\n      tag_83\n      jumpi\n      mload(0x40)\n      0x08c379a000000000000000000000000000000000000000000000000000000000\n      dup2\n      mstore\n      0x04\n      add\n      tag_84\n      swap1\n      tag_85\n      jump\t// in\n    tag_84:\n      mload(0x40)\n      dup1\n      swap2\n      sub\n      swap1\n      revert\n    tag_83:\n        /* \"stack_contract.sol\":1040:1046  amount */\n      dup2\n        /* \"stack_contract.sol\":1001:1012  userStaking */\n      0x04\n        /* \"stack_contract.sol\":1001:1024  userStaking[msg.sender] */\n      0x00\n        /* \"stack_contract.sol\":1013:1023  msg.sender */\n      caller\n        /* \"stack_contract.sol\":1001:1024  userStaking[msg.sender] */\n      0xffffffffffffffffffffffffffffffffffffffff\n      and\n      0xffffffffffffffffffffffffffffffffffffffff\n      and\n      dup2\n      mstore\n      0x20\n      add\n      swap1\n      dup2\n      mstore\n      0x20\n      add\n      0x00\n      keccak256\n        /* \"stack_contract.sol\":1001:1037  userStaking[msg.sender].stakedAmount */\n      0x00\n      add\n        /* \"stack_contract.sol\":1001:1046  userStaking[msg.sender].stakedAmount = amount */\n      dup2\n      swap1\n      sstore\n      pop\n        /* \"stack_contract.sol\":1113:1119  period */\n      dup1\n        /* \"stack_contract.sol\":1095:1110  block.timestamp */\n      timestamp\n        /* \"stack_contract.sol\":1095:1119  block.timestamp + period */\n      tag_86\n      swap2\n      swap1\n      tag_87\n      jump\t// in\n    tag_86:\n        /* \"stack_contract.sol\":1056:1067  userStaking */\n      0x04\n        /* \"stack_contract.sol\":1056:1079  userStaking[msg.sender] */\n      0x00\n        /* \"stack_contract.sol\":1068:1078  msg.sender */\n      caller\n        /* \"stack_contract.sol\":1056:1079  userStaking[msg.sender] */\n      0xffffffffffffffffffffffffffffffffffffffff\n      and\n      0xffffffffffffffffffffffffffffffffffffffff\n      and\n      dup2\n      mstore\n      0x20\n      add\n      swap1\n      dup2\n      mstore\n      0x20\n      add\n      0x00\n      keccak256\n        /* \"stack_contract.sol\":1056:1092  userStaking[msg.sender].withdrawDate */\n      0x01\n      add\n        /* \"stack_contract.sol\":1056:1119  userStaking[msg.sender].withdrawDate = block.timestamp + period */\n      dup2\n      swap1\n      sstore\n      pop\n        /* \"stack_contract.sol\":1138:1150  bool success */\n      0x00\n        /* \"stack_contract.sol\":1153:1165  stakingToken */\n      0x02\n      0x00\n      swap1\n      sload\n      swap1\n      0x0100\n      exp\n      swap1\n      div\n      0xffffffffffffffffffffffffffffffffffffffff\n      and\n        /* \"stack_contract.sol\":1153:1178  stakingToken.transferFrom */\n      0xffffffffffffffffffffffffffffffffffffffff\n      and\n      0x23b872dd\n        /* \"stack_contract.sol\":1179:1189  msg.sender */\n      caller\n        /* \"stack_contract.sol\":1199:1203  this */\n      address\n        /* \"stack_contract.sol\":1206:1212  amount */\n      dup7\n        /* \"stack_contract.sol\":1153:1213  stakingToken.transferFrom(msg.sender, address(this), amount) */\n      mload(0x40)\n      dup5\n      0xffffffff\n      and\n      0xe0\n      shl\n      dup2\n      mstore\n      0x04\n      add\n      tag_88\n      swap4\n      swap3\n      swap2\n      swap1\n      tag_89\n      jump\t// in\n    tag_88:\n      0x20\n      mload(0x40)\n      dup1\n      dup4\n      sub\n      dup2\n      0x00\n      dup8\n      gas\n      call\n      iszero\n      dup1\n      iszero\n      tag_91\n      jumpi\n      returndatasize\n      0x00\n      dup1\n      returndatacopy\n      revert(0x00, returndatasize)\n    tag_91:\n      pop\n      pop\n      pop\n      pop\n      mload(0x40)\n      returndatasize\n      not(0x1f)\n      0x1f\n      dup3\n      add\n      and\n      dup3\n      add\n      dup1\n      0x40\n      mstore\n      pop\n      dup2\n      add\n      swap1\n      tag_92\n      swap2\n      swap1\n      tag_64\n      jump\t// in\n    tag_92:\n        /* \"stack_contract.sol\":1138:1213  bool success = stakingToken.transferFrom(msg.sender, address(this), amount) */\n      swap1\n      pop\n        /* \"stack_contract.sol\":1231:1238  success */\n      dup1\n        /* \"stack_contract.sol\":1223:1258  require(success, \"Transfer failed\") */\n      tag_93\n      jumpi\n      mload(0x40)\n      0x08c379a000000000000000000000000000000000000000000000000000000000\n      dup2\n      mstore\n      0x04\n      add\n      tag_94\n      swap1\n      tag_67\n      jump\t// in\n    tag_94:\n      mload(0x40)\n      dup1\n      swap2\n      sub\n      swap1\n      revert\n    tag_93:\n        /* \"stack_contract.sol\":1284:1290  amount */\n      dup3\n        /* \"stack_contract.sol\":1269:1280  totalStaked */\n      0x03\n      0x00\n        /* \"stack_contract.sol\":1269:1290  totalStaked += amount */\n      dup3\n      dup3\n      sload\n      tag_95\n      swap2\n      swap1\n      tag_87\n      jump\t// in\n    tag_95:\n      swap3\n      pop\n      pop\n      dup2\n      swap1\n      sstore\n      pop\n        /* \"stack_contract.sol\":1321:1331  msg.sender */\n      caller\n        /* \"stack_contract.sol\":1314:1340  Staked(msg.sender, amount) */\n      0xffffffffffffffffffffffffffffffffffffffff\n      and\n      0x9e71bc8eea02a63969f509818f2dafb9254532904319f9dbda79b67bd34a5f3d\n        /* \"stack_contract.sol\":1333:1339  amount */\n      dup5\n        /* \"stack_contract.sol\":1314:1340  Staked(msg.sender, amount) */\n      mload(0x40)\n      tag_96\n      swap2\n      swap1\n      tag_29\n      jump\t// in\n    tag_96:\n      mload(0x40)\n      dup1\n      swap2\n      sub\n      swap1\n      log2\n        /* \"stack_contract.sol\":814:1347  {... */\n      pop\n        /* \"@openzeppelin/contracts/security/ReentrancyGuard.sol\":2303:2323  _nonReentrantAfter() */\n      tag_97\n        /* \"@openzeppelin/contracts/security/ReentrancyGuard.sol\":2303:2321  _nonReentrantAfter */\n      tag_72\n        /* \"@openzeppelin/contracts/security/ReentrancyGuard.sol\":2303:2323  _nonReentrantAfter() */\n      jump\t// in\n    tag_97:\n        /* \"stack_contract.sol\":745:1347  function stake(uint256 amount, uint256 period) external nonReentrant {... */\n      pop\n      pop\n      jump\t// out\n        /* \"stack_contract.sol\":1574:1663  function getTotalStake() public view returns(uint256) {... */\n    tag_27:\n        /* \"stack_contract.sol\":1619:1626  uint256 */\n      0x00\n        /* \"stack_contract.sol\":1645:1656  totalStaked */\n      sload(0x03)\n        /* \"stack_contract.sol\":1638:1656  return totalStaked */\n      swap1\n      pop\n        /* \"stack_contract.sol\":1574:1663  function getTotalStake() public view returns(uint256) {... */\n      swap1\n      jump\t// out\n        /* \"stack_contract.sol\":325:351  uint256 public totalStaked */\n    tag_31:\n      sload(0x03)\n      dup2\n      jump\t// out\n        /* \"stack_contract.sol\":362:406  mapping(address => Stake) public userStaking */\n    tag_36:\n      mstore(0x20, 0x04)\n      dup1\n      0x00\n      mstore\n      keccak256(0x00, 0x40)\n      0x00\n      swap2\n      pop\n      swap1\n      pop\n      dup1\n      0x00\n      add\n      sload\n      swap1\n      dup1\n      0x01\n      add\n      sload\n      swap1\n      pop\n      dup3\n      jump\t// out\n        /* \"@openzeppelin/contracts/access/Ownable.sol\":1638:1723  function owner() public view virtual returns (address) {... */\n    tag_40:\n        /* \"@openzeppelin/contracts/access/Ownable.sol\":1684:1691  address */\n      0x00\n        /* \"@openzeppelin/contracts/access/Ownable.sol\":1710:1716  _owner */\n      0x01\n      0x00\n      swap1\n      sload\n      swap1\n      0x0100\n      exp\n      swap1\n      div\n      0xffffffffffffffffffffffffffffffffffffffff\n      and\n        /* \"@openzeppelin/contracts/access/Ownable.sol\":1703:1716  return _owner */\n      swap1\n      pop\n        /* \"@openzeppelin/contracts/access/Ownable.sol\":1638:1723  function owner() public view virtual returns (address) {... */\n      swap1\n      jump\t// out\n        /* \"@openzeppelin/contracts/access/Ownable.sol\":2543:2758  function transferOwnership(address newOwner) public virtual onlyOwner {... */\n    tag_45:\n        /* \"@openzeppelin/contracts/access/Ownable.sol\":1531:1544  _checkOwner() */\n      tag_101\n        /* \"@openzeppelin/contracts/access/Ownable.sol\":1531:1542  _checkOwner */\n      tag_75\n        /* \"@openzeppelin/contracts/access/Ownable.sol\":1531:1544  _checkOwner() */\n      jump\t// in\n    tag_101:\n        /* \"@openzeppelin/contracts/access/Ownable.sol\":2647:2648  0 */\n      0x00\n        /* \"@openzeppelin/contracts/access/Ownable.sol\":2627:2649  newOwner == address(0) */\n      0xffffffffffffffffffffffffffffffffffffffff\n      and\n        /* \"@openzeppelin/contracts/access/Ownable.sol\":2627:2635  newOwner */\n      dup2\n        /* \"@openzeppelin/contracts/access/Ownable.sol\":2627:2649  newOwner == address(0) */\n      0xffffffffffffffffffffffffffffffffffffffff\n      and\n      sub\n        /* \"@openzeppelin/contracts/access/Ownable.sol\":2623:2714  if (newOwner == address(0)) {... */\n      tag_103\n      jumpi\n        /* \"@openzeppelin/contracts/access/Ownable.sol\":2700:2701  0 */\n      0x00\n        /* \"@openzeppelin/contracts/access/Ownable.sol\":2672:2703  OwnableInvalidOwner(address(0)) */\n      mload(0x40)\n      0x1e4fbdf700000000000000000000000000000000000000000000000000000000\n      dup2\n      mstore\n      0x04\n      add\n      tag_104\n      swap2\n      swap1\n      tag_42\n      jump\t// in\n    tag_104:\n      mload(0x40)\n      dup1\n      swap2\n      sub\n      swap1\n      revert\n        /* \"@openzeppelin/contracts/access/Ownable.sol\":2623:2714  if (newOwner == address(0)) {... */\n    tag_103:\n        /* \"@openzeppelin/contracts/access/Ownable.sol\":2723:2751  _transferOwnership(newOwner) */\n      tag_105\n        /* \"@openzeppelin/contracts/access/Ownable.sol\":2742:2750  newOwner */\n      dup2\n        /* \"@openzeppelin/contracts/access/Ownable.sol\":2723:2741  _transferOwnership */\n      tag_78\n        /* \"@openzeppelin/contracts/access/Ownable.sol\":2723:2751  _transferOwnership(newOwner) */\n      jump\t// in\n    tag_105:\n        /* \"@openzeppelin/contracts/access/Ownable.sol\":2543:2758  function transferOwnership(address newOwner) public virtual onlyOwner {... */\n      pop\n      jump\t// out\n        /* \"stack_contract.sol\":1353:1568  function getStake() public view returns(uint256 stakedAmount, uint256 withdrawDate) {... */\n    tag_47:\n        /* \"stack_contract.sol\":1393:1413  uint256 stakedAmount */\n      0x00\n        /* \"stack_contract.sol\":1415:1435  uint256 withdrawDate */\n      dup1\n        /* \"stack_contract.sol\":1447:1470  Stake storage userStake */\n      0x00\n        /* \"stack_contract.sol\":1473:1484  userStaking */\n      0x04\n        /* \"stack_contract.sol\":1473:1496  userStaking[msg.sender] */\n      0x00\n        /* \"stack_contract.sol\":1485:1495  msg.sender */\n      caller\n        /* \"stack_contract.sol\":1473:1496  userStaking[msg.sender] */\n      0xffffffffffffffffffffffffffffffffffffffff\n      and\n      0xffffffffffffffffffffffffffffffffffffffff\n      and\n      dup2\n      mstore\n      0x20\n      add\n      swap1\n      dup2\n      mstore\n      0x20\n      add\n      0x00\n      keccak256\n        /* \"stack_contract.sol\":1447:1496  Stake storage userStake = userStaking[msg.sender] */\n      swap1\n      pop\n        /* \"stack_contract.sol\":1514:1523  userStake */\n      dup1\n        /* \"stack_contract.sol\":1514:1536  userStake.stakedAmount */\n      0x00\n      add\n      sload\n        /* \"stack_contract.sol\":1538:1547  userStake */\n      dup2\n        /* \"stack_contract.sol\":1538:1560  userStake.withdrawDate */\n      0x01\n      add\n      sload\n        /* \"stack_contract.sol\":1506:1561  return (userStake.stakedAmount, userStake.withdrawDate) */\n      swap3\n      pop\n      swap3\n      pop\n      pop\n        /* \"stack_contract.sol\":1353:1568  function getStake() public view returns(uint256 stakedAmount, uint256 withdrawDate) {... */\n      swap1\n      swap2\n      jump\t// out\n        /* \"@openzeppelin/contracts/security/ReentrancyGuard.sol\":2336:2623  function _nonReentrantBefore() private {... */\n    tag_51:\n        /* \"@openzeppelin/contracts/security/ReentrancyGuard.sol\":1759:1760  2 */\n      0x02\n        /* \"@openzeppelin/contracts/security/ReentrancyGuard.sol\":2468:2475  _status */\n      sload(0x00)\n        /* \"@openzeppelin/contracts/security/ReentrancyGuard.sol\":2468:2487  _status != _ENTERED */\n      sub\n        /* \"@openzeppelin/contracts/security/ReentrancyGuard.sol\":2460:2523  require(_status != _ENTERED, \"ReentrancyGuard: reentrant call\") */\n      tag_108\n      jumpi\n      mload(0x40)\n      0x08c379a000000000000000000000000000000000000000000000000000000000\n      dup2\n      mstore\n      0x04\n      add\n      tag_109\n      swap1\n      tag_110\n      jump\t// in\n    tag_109:\n      mload(0x40)\n      dup1\n      swap2\n      sub\n      swap1\n      revert\n    tag_108:\n        /* \"@openzeppelin/contracts/security/ReentrancyGuard.sol\":1759:1760  2 */\n      0x02\n        /* \"@openzeppelin/contracts/security/ReentrancyGuard.sol\":2598:2605  _status */\n      0x00\n        /* \"@openzeppelin/contracts/security/ReentrancyGuard.sol\":2598:2616  _status = _ENTERED */\n      dup2\n      swap1\n      sstore\n      pop\n        /* \"@openzeppelin/contracts/security/ReentrancyGuard.sol\":2336:2623  function _nonReentrantBefore() private {... */\n      jump\t// out\n        /* \"@openzeppelin/contracts/security/ReentrancyGuard.sol\":2629:2838  function _nonReentrantAfter() private {... */\n    tag_72:\n        /* \"@openzeppelin/contracts/security/ReentrancyGuard.sol\":1716:1717  1 */\n      0x01\n        /* \"@openzeppelin/contracts/security/ReentrancyGuard.sol\":2809:2816  _status */\n      0x00\n        /* \"@openzeppelin/contracts/security/ReentrancyGuard.sol\":2809:2831  _status = _NOT_ENTERED */\n      dup2\n      swap1\n      sstore\n      pop\n        /* \"@openzeppelin/contracts/security/ReentrancyGuard.sol\":2629:2838  function _nonReentrantAfter() private {... */\n      jump\t// out\n        /* \"@openzeppelin/contracts/access/Ownable.sol\":1796:1958  function _checkOwner() internal view virtual {... */\n    tag_75:\n        /* \"@openzeppelin/contracts/access/Ownable.sol\":1866:1878  _msgSender() */\n      tag_113\n        /* \"@openzeppelin/contracts/access/Ownable.sol\":1866:1876  _msgSender */\n      tag_114\n        /* \"@openzeppelin/contracts/access/Ownable.sol\":1866:1878  _msgSender() */\n      jump\t// in\n    tag_113:\n        /* \"@openzeppelin/contracts/access/Ownable.sol\":1855:1878  owner() != _msgSender() */\n      0xffffffffffffffffffffffffffffffffffffffff\n      and\n        /* \"@openzeppelin/contracts/access/Ownable.sol\":1855:1862  owner() */\n      tag_115\n        /* \"@openzeppelin/contracts/access/Ownable.sol\":1855:1860  owner */\n      tag_40\n        /* \"@openzeppelin/contracts/access/Ownable.sol\":1855:1862  owner() */\n      jump\t// in\n    tag_115:\n        /* \"@openzeppelin/contracts/access/Ownable.sol\":1855:1878  owner() != _msgSender() */\n      0xffffffffffffffffffffffffffffffffffffffff\n      and\n      eq\n        /* \"@openzeppelin/contracts/access/Ownable.sol\":1851:1952  if (owner() != _msgSender()) {... */\n      tag_116\n      jumpi\n        /* \"@openzeppelin/contracts/access/Ownable.sol\":1928:1940  _msgSender() */\n      tag_117\n        /* \"@openzeppelin/contracts/access/Ownable.sol\":1928:1938  _msgSender */\n      tag_114\n        /* \"@openzeppelin/contracts/access/Ownable.sol\":1928:1940  _msgSender() */\n      jump\t// in\n    tag_117:\n        /* \"@openzeppelin/contracts/access/Ownable.sol\":1901:1941  OwnableUnauthorizedAccount(_msgSender()) */\n      mload(0x40)\n      0x118cdaa700000000000000000000000000000000000000000000000000000000\n      dup2\n      mstore\n      0x04\n      add\n      tag_118\n      swap2\n      swap1\n      tag_42\n      jump\t// in\n    tag_118:\n      mload(0x40)\n      dup1\n      swap2\n      sub\n      swap1\n      revert\n        /* \"@openzeppelin/contracts/access/Ownable.sol\":1851:1952  if (owner() != _msgSender()) {... */\n    tag_116:\n        /* \"@openzeppelin/contracts/access/Ownable.sol\":1796:1958  function _checkOwner() internal view virtual {... */\n      jump\t// out\n        /* \"@openzeppelin/contracts/access/Ownable.sol\":2912:3099  function _transferOwnership(address newOwner) internal virtual {... */\n    tag_78:\n        /* \"@openzeppelin/contracts/access/Ownable.sol\":2985:3001  address oldOwner */\n      0x00\n        /* \"@openzeppelin/contracts/access/Ownable.sol\":3004:3010  _owner */\n      0x01\n      0x00\n      swap1\n      sload\n      swap1\n      0x0100\n      exp\n      swap1\n      div\n      0xffffffffffffffffffffffffffffffffffffffff\n      and\n        /* \"@openzeppelin/contracts/access/Ownable.sol\":2985:3010  address oldOwner = _owner */\n      swap1\n      pop\n        /* \"@openzeppelin/contracts/access/Ownable.sol\":3029:3037  newOwner */\n      dup2\n        /* \"@openzeppelin/contracts/access/Ownable.sol\":3020:3026  _owner */\n      0x01\n      0x00\n        /* \"@openzeppelin/contracts/access/Ownable.sol\":3020:3037  _owner = newOwner */\n      0x0100\n      exp\n      dup2\n      sload\n      dup2\n      0xffffffffffffffffffffffffffffffffffffffff\n      mul\n      not\n      and\n      swap1\n      dup4\n      0xffffffffffffffffffffffffffffffffffffffff\n      and\n      mul\n      or\n      swap1\n      sstore\n      pop\n        /* \"@openzeppelin/contracts/access/Ownable.sol\":3083:3091  newOwner */\n      dup2\n        /* \"@openzeppelin/contracts/access/Ownable.sol\":3052:3092  OwnershipTransferred(oldOwner, newOwner) */\n      0xffffffffffffffffffffffffffffffffffffffff\n      and\n        /* \"@openzeppelin/contracts/access/Ownable.sol\":3073:3081  oldOwner */\n      dup2\n        /* \"@openzeppelin/contracts/access/Ownable.sol\":3052:3092  OwnershipTransferred(oldOwner, newOwner) */\n      0xffffffffffffffffffffffffffffffffffffffff\n      and\n      0x8be0079c531659141344cd1fd0a4f28419497f9722a3daafe3b4186f6b6457e0\n      mload(0x40)\n      mload(0x40)\n      dup1\n      swap2\n      sub\n      swap1\n      log3\n        /* \"@openzeppelin/contracts/access/Ownable.sol\":2975:3099  {... */\n      pop\n        /* \"@openzeppelin/contracts/access/Ownable.sol\":2912:3099  function _transferOwnership(address newOwner) internal virtual {... */\n      pop\n      jump\t// out\n        /* \"@openzeppelin/contracts/utils/Context.sol\":656:752  function _msgSender() internal view virtual returns (address) {... */\n    tag_114:\n        /* \"@openzeppelin/contracts/utils/Context.sol\":709:716  address */\n      0x00\n        /* \"@openzeppelin/contracts/utils/Context.sol\":735:745  msg.sender */\n      caller\n        /* \"@openzeppelin/contracts/utils/Context.sol\":728:745  return msg.sender */\n      swap1\n      pop\n        /* \"@openzeppelin/contracts/utils/Context.sol\":656:752  function _msgSender() internal view virtual returns (address) {... */\n      swap1\n      jump\t// out\n        /* \"#utility.yul\":7:133   */\n    tag_121:\n        /* \"#utility.yul\":44:51   */\n      0x00\n        /* \"#utility.yul\":84:126   */\n      0xffffffffffffffffffffffffffffffffffffffff\n        /* \"#utility.yul\":77:82   */\n      dup3\n        /* \"#utility.yul\":73:127   */\n      and\n        /* \"#utility.yul\":62:127   */\n      swap1\n      pop\n        /* \"#utility.yul\":7:133   */\n      swap2\n      swap1\n      pop\n      jump\t// out\n        /* \"#utility.yul\":139:199   */\n    tag_122:\n        /* \"#utility.yul\":167:170   */\n      0x00\n        /* \"#utility.yul\":188:193   */\n      dup2\n        /* \"#utility.yul\":181:193   */\n      swap1\n      pop\n        /* \"#utility.yul\":139:199   */\n      swap2\n      swap1\n      pop\n      jump\t// out\n        /* \"#utility.yul\":205:347   */\n    tag_123:\n        /* \"#utility.yul\":255:264   */\n      0x00\n        /* \"#utility.yul\":288:341   */\n      tag_157\n        /* \"#utility.yul\":306:340   */\n      tag_158\n        /* \"#utility.yul\":315:339   */\n      tag_159\n        /* \"#utility.yul\":333:338   */\n      dup5\n        /* \"#utility.yul\":315:339   */\n      tag_121\n      jump\t// in\n    tag_159:\n        /* \"#utility.yul\":306:340   */\n      tag_122\n      jump\t// in\n    tag_158:\n        /* \"#utility.yul\":288:341   */\n      tag_121\n      jump\t// in\n    tag_157:\n        /* \"#utility.yul\":275:341   */\n      swap1\n      pop\n        /* \"#utility.yul\":205:347   */\n      swap2\n      swap1\n      pop\n      jump\t// out\n        /* \"#utility.yul\":353:479   */\n    tag_124:\n        /* \"#utility.yul\":403:412   */\n      0x00\n        /* \"#utility.yul\":436:473   */\n      tag_161\n        /* \"#utility.yul\":467:472   */\n      dup3\n        /* \"#utility.yul\":436:473   */\n      tag_123\n      jump\t// in\n    tag_161:\n        /* \"#utility.yul\":423:473   */\n      swap1\n      pop\n        /* \"#utility.yul\":353:479   */\n      swap2\n      swap1\n      pop\n      jump\t// out\n        /* \"#utility.yul\":485:625   */\n    tag_125:\n        /* \"#utility.yul\":549:558   */\n      0x00\n        /* \"#utility.yul\":582:619   */\n      tag_163\n        /* \"#utility.yul\":613:618   */\n      dup3\n        /* \"#utility.yul\":582:619   */\n      tag_124\n      jump\t// in\n    tag_163:\n        /* \"#utility.yul\":569:619   */\n      swap1\n      pop\n        /* \"#utility.yul\":485:625   */\n      swap2\n      swap1\n      pop\n      jump\t// out\n        /* \"#utility.yul\":631:790   */\n    tag_126:\n        /* \"#utility.yul\":732:783   */\n      tag_165\n        /* \"#utility.yul\":777:782   */\n      dup2\n        /* \"#utility.yul\":732:783   */\n      tag_125\n      jump\t// in\n    tag_165:\n        /* \"#utility.yul\":727:730   */\n      dup3\n        /* \"#utility.yul\":720:784   */\n      mstore\n        /* \"#utility.yul\":631:790   */\n      pop\n      pop\n      jump\t// out\n        /* \"#utility.yul\":796:1046   */\n    tag_21:\n        /* \"#utility.yul\":903:907   */\n      0x00\n        /* \"#utility.yul\":941:943   */\n      0x20\n        /* \"#utility.yul\":930:939   */\n      dup3\n        /* \"#utility.yul\":926:944   */\n      add\n        /* \"#utility.yul\":918:944   */\n      swap1\n      pop\n        /* \"#utility.yul\":954:1039   */\n      tag_167\n        /* \"#utility.yul\":1036:1037   */\n      0x00\n        /* \"#utility.yul\":1025:1034   */\n      dup4\n        /* \"#utility.yul\":1021:1038   */\n      add\n        /* \"#utility.yul\":1012:1018   */\n      dup5\n        /* \"#utility.yul\":954:1039   */\n      tag_126\n      jump\t// in\n    tag_167:\n        /* \"#utility.yul\":796:1046   */\n      swap3\n      swap2\n      pop\n      pop\n      jump\t// out\n        /* \"#utility.yul\":1133:1250   */\n    tag_128:\n        /* \"#utility.yul\":1242:1243   */\n      0x00\n        /* \"#utility.yul\":1239:1240   */\n      dup1\n        /* \"#utility.yul\":1232:1244   */\n      revert\n        /* \"#utility.yul\":1379:1456   */\n    tag_130:\n        /* \"#utility.yul\":1416:1423   */\n      0x00\n        /* \"#utility.yul\":1445:1450   */\n      dup2\n        /* \"#utility.yul\":1434:1450   */\n      swap1\n      pop\n        /* \"#utility.yul\":1379:1456   */\n      swap2\n      swap1\n      pop\n      jump\t// out\n        /* \"#utility.yul\":1462:1584   */\n    tag_131:\n        /* \"#utility.yul\":1535:1559   */\n      tag_173\n        /* \"#utility.yul\":1553:1558   */\n      dup2\n        /* \"#utility.yul\":1535:1559   */\n      tag_130\n      jump\t// in\n    tag_173:\n        /* \"#utility.yul\":1528:1533   */\n      dup2\n        /* \"#utility.yul\":1525:1560   */\n      eq\n        /* \"#utility.yul\":1515:1578   */\n      tag_174\n      jumpi\n        /* \"#utility.yul\":1574:1575   */\n      0x00\n        /* \"#utility.yul\":1571:1572   */\n      dup1\n        /* \"#utility.yul\":1564:1576   */\n      revert\n        /* \"#utility.yul\":1515:1578   */\n    tag_174:\n        /* \"#utility.yul\":1462:1584   */\n      pop\n      jump\t// out\n        /* \"#utility.yul\":1590:1729   */\n    tag_132:\n        /* \"#utility.yul\":1636:1641   */\n      0x00\n        /* \"#utility.yul\":1674:1680   */\n      dup2\n        /* \"#utility.yul\":1661:1681   */\n      calldataload\n        /* \"#utility.yul\":1652:1681   */\n      swap1\n      pop\n        /* \"#utility.yul\":1690:1723   */\n      tag_176\n        /* \"#utility.yul\":1717:1722   */\n      dup2\n        /* \"#utility.yul\":1690:1723   */\n      tag_131\n      jump\t// in\n    tag_176:\n        /* \"#utility.yul\":1590:1729   */\n      swap3\n      swap2\n      pop\n      pop\n      jump\t// out\n        /* \"#utility.yul\":1735:2209   */\n    tag_24:\n        /* \"#utility.yul\":1803:1809   */\n      0x00\n        /* \"#utility.yul\":1811:1817   */\n      dup1\n        /* \"#utility.yul\":1860:1862   */\n      0x40\n        /* \"#utility.yul\":1848:1857   */\n      dup4\n        /* \"#utility.yul\":1839:1846   */\n      dup6\n        /* \"#utility.yul\":1835:1858   */\n      sub\n        /* \"#utility.yul\":1831:1863   */\n      slt\n        /* \"#utility.yul\":1828:1947   */\n      iszero\n      tag_178\n      jumpi\n        /* \"#utility.yul\":1866:1945   */\n      tag_179\n      tag_128\n      jump\t// in\n    tag_179:\n        /* \"#utility.yul\":1828:1947   */\n    tag_178:\n        /* \"#utility.yul\":1986:1987   */\n      0x00\n        /* \"#utility.yul\":2011:2064   */\n      tag_180\n        /* \"#utility.yul\":2056:2063   */\n      dup6\n        /* \"#utility.yul\":2047:2053   */\n      dup3\n        /* \"#utility.yul\":2036:2045   */\n      dup7\n        /* \"#utility.yul\":2032:2054   */\n      add\n        /* \"#utility.yul\":2011:2064   */\n      tag_132\n      jump\t// in\n    tag_180:\n        /* \"#utility.yul\":2001:2064   */\n      swap3\n      pop\n        /* \"#utility.yul\":1957:2074   */\n      pop\n        /* \"#utility.yul\":2113:2115   */\n      0x20\n        /* \"#utility.yul\":2139:2192   */\n      tag_181\n        /* \"#utility.yul\":2184:2191   */\n      dup6\n        /* \"#utility.yul\":2175:2181   */\n      dup3\n        /* \"#utility.yul\":2164:2173   */\n      dup7\n        /* \"#utility.yul\":2160:2182   */\n      add\n        /* \"#utility.yul\":2139:2192   */\n      tag_132\n      jump\t// in\n    tag_181:\n        /* \"#utility.yul\":2129:2192   */\n      swap2\n      pop\n        /* \"#utility.yul\":2084:2202   */\n      pop\n        /* \"#utility.yul\":1735:2209   */\n      swap3\n      pop\n      swap3\n      swap1\n      pop\n      jump\t// out\n        /* \"#utility.yul\":2215:2333   */\n    tag_133:\n        /* \"#utility.yul\":2302:2326   */\n      tag_183\n        /* \"#utility.yul\":2320:2325   */\n      dup2\n        /* \"#utility.yul\":2302:2326   */\n      tag_130\n      jump\t// in\n    tag_183:\n        /* \"#utility.yul\":2297:2300   */\n      dup3\n        /* \"#utility.yul\":2290:2327   */\n      mstore\n        /* \"#utility.yul\":2215:2333   */\n      pop\n      pop\n      jump\t// out\n        /* \"#utility.yul\":2339:2561   */\n    tag_29:\n        /* \"#utility.yul\":2432:2436   */\n      0x00\n        /* \"#utility.yul\":2470:2472   */\n      0x20\n        /* \"#utility.yul\":2459:2468   */\n      dup3\n        /* \"#utility.yul\":2455:2473   */\n      add\n        /* \"#utility.yul\":2447:2473   */\n      swap1\n      pop\n        /* \"#utility.yul\":2483:2554   */\n      tag_185\n        /* \"#utility.yul\":2551:2552   */\n      0x00\n        /* \"#utility.yul\":2540:2549   */\n      dup4\n        /* \"#utility.yul\":2536:2553   */\n      add\n        /* \"#utility.yul\":2527:2533   */\n      dup5\n        /* \"#utility.yul\":2483:2554   */\n      tag_133\n      jump\t// in\n    tag_185:\n        /* \"#utility.yul\":2339:2561   */\n      swap3\n      swap2\n      pop\n      pop\n      jump\t// out\n        /* \"#utility.yul\":2567:2663   */\n    tag_134:\n        /* \"#utility.yul\":2604:2611   */\n      0x00\n        /* \"#utility.yul\":2633:2657   */\n      tag_187\n        /* \"#utility.yul\":2651:2656   */\n      dup3\n        /* \"#utility.yul\":2633:2657   */\n      tag_121\n      jump\t// in\n    tag_187:\n        /* \"#utility.yul\":2622:2657   */\n      swap1\n      pop\n        /* \"#utility.yul\":2567:2663   */\n      swap2\n      swap1\n      pop\n      jump\t// out\n        /* \"#utility.yul\":2669:2791   */\n    tag_135:\n        /* \"#utility.yul\":2742:2766   */\n      tag_189\n        /* \"#utility.yul\":2760:2765   */\n      dup2\n        /* \"#utility.yul\":2742:2766   */\n      tag_134\n      jump\t// in\n    tag_189:\n        /* \"#utility.yul\":2735:2740   */\n      dup2\n        /* \"#utility.yul\":2732:2767   */\n      eq\n        /* \"#utility.yul\":2722:2785   */\n      tag_190\n      jumpi\n        /* \"#utility.yul\":2781:2782   */\n      0x00\n        /* \"#utility.yul\":2778:2779   */\n      dup1\n        /* \"#utility.yul\":2771:2783   */\n      revert\n        /* \"#utility.yul\":2722:2785   */\n    tag_190:\n        /* \"#utility.yul\":2669:2791   */\n      pop\n      jump\t// out\n        /* \"#utility.yul\":2797:2936   */\n    tag_136:\n        /* \"#utility.yul\":2843:2848   */\n      0x00\n        /* \"#utility.yul\":2881:2887   */\n      dup2\n        /* \"#utility.yul\":2868:2888   */\n      calldataload\n        /* \"#utility.yul\":2859:2888   */\n      swap1\n      pop\n        /* \"#utility.yul\":2897:2930   */\n      tag_192\n        /* \"#utility.yul\":2924:2929   */\n      dup2\n        /* \"#utility.yul\":2897:2930   */\n      tag_135\n      jump\t// in\n    tag_192:\n        /* \"#utility.yul\":2797:2936   */\n      swap3\n      swap2\n      pop\n      pop\n      jump\t// out\n        /* \"#utility.yul\":2942:3271   */\n    tag_35:\n        /* \"#utility.yul\":3001:3007   */\n      0x00\n        /* \"#utility.yul\":3050:3052   */\n      0x20\n        /* \"#utility.yul\":3038:3047   */\n      dup3\n        /* \"#utility.yul\":3029:3036   */\n      dup5\n        /* \"#utility.yul\":3025:3048   */\n      sub\n        /* \"#utility.yul\":3021:3053   */\n      slt\n        /* \"#utility.yul\":3018:3137   */\n      iszero\n      tag_194\n      jumpi\n        /* \"#utility.yul\":3056:3135   */\n      tag_195\n      tag_128\n      jump\t// in\n    tag_195:\n        /* \"#utility.yul\":3018:3137   */\n    tag_194:\n        /* \"#utility.yul\":3176:3177   */\n      0x00\n        /* \"#utility.yul\":3201:3254   */\n      tag_196\n        /* \"#utility.yul\":3246:3253   */\n      dup5\n        /* \"#utility.yul\":3237:3243   */\n      dup3\n        /* \"#utility.yul\":3226:3235   */\n      dup6\n        /* \"#utility.yul\":3222:3244   */\n      add\n        /* \"#utility.yul\":3201:3254   */\n      tag_136\n      jump\t// in\n    tag_196:\n        /* \"#utility.yul\":3191:3254   */\n      swap2\n      pop\n        /* \"#utility.yul\":3147:3264   */\n      pop\n        /* \"#utility.yul\":2942:3271   */\n      swap3\n      swap2\n      pop\n      pop\n      jump\t// out\n        /* \"#utility.yul\":3277:3609   */\n    tag_38:\n        /* \"#utility.yul\":3398:3402   */\n      0x00\n        /* \"#utility.yul\":3436:3438   */\n      0x40\n        /* \"#utility.yul\":3425:3434   */\n      dup3\n        /* \"#utility.yul\":3421:3439   */\n      add\n        /* \"#utility.yul\":3413:3439   */\n      swap1\n      pop\n        /* \"#utility.yul\":3449:3520   */\n      tag_198\n        /* \"#utility.yul\":3517:3518   */\n      0x00\n        /* \"#utility.yul\":3506:3515   */\n      dup4\n        /* \"#utility.yul\":3502:3519   */\n      add\n        /* \"#utility.yul\":3493:3499   */\n      dup6\n        /* \"#utility.yul\":3449:3520   */\n      tag_133\n      jump\t// in\n    tag_198:\n        /* \"#utility.yul\":3530:3602   */\n      tag_199\n        /* \"#utility.yul\":3598:3600   */\n      0x20\n        /* \"#utility.yul\":3587:3596   */\n      dup4\n        /* \"#utility.yul\":3583:3601   */\n      add\n        /* \"#utility.yul\":3574:3580   */\n      dup5\n        /* \"#utility.yul\":3530:3602   */\n      tag_133\n      jump\t// in\n    tag_199:\n        /* \"#utility.yul\":3277:3609   */\n      swap4\n      swap3\n      pop\n      pop\n      pop\n      jump\t// out\n        /* \"#utility.yul\":3615:3733   */\n    tag_137:\n        /* \"#utility.yul\":3702:3726   */\n      tag_201\n        /* \"#utility.yul\":3720:3725   */\n      dup2\n        /* \"#utility.yul\":3702:3726   */\n      tag_134\n      jump\t// in\n    tag_201:\n        /* \"#utility.yul\":3697:3700   */\n      dup3\n        /* \"#utility.yul\":3690:3727   */\n      mstore\n        /* \"#utility.yul\":3615:3733   */\n      pop\n      pop\n      jump\t// out\n        /* \"#utility.yul\":3739:3961   */\n    tag_42:\n        /* \"#utility.yul\":3832:3836   */\n      0x00\n        /* \"#utility.yul\":3870:3872   */\n      0x20\n        /* \"#utility.yul\":3859:3868   */\n      dup3\n        /* \"#utility.yul\":3855:3873   */\n      add\n        /* \"#utility.yul\":3847:3873   */\n      swap1\n      pop\n        /* \"#utility.yul\":3883:3954   */\n      tag_203\n        /* \"#utility.yul\":3951:3952   */\n      0x00\n        /* \"#utility.yul\":3940:3949   */\n      dup4\n        /* \"#utility.yul\":3936:3953   */\n      add\n        /* \"#utility.yul\":3927:3933   */\n      dup5\n        /* \"#utility.yul\":3883:3954   */\n      tag_137\n      jump\t// in\n    tag_203:\n        /* \"#utility.yul\":3739:3961   */\n      swap3\n      swap2\n      pop\n      pop\n      jump\t// out\n        /* \"#utility.yul\":3967:4136   */\n    tag_138:\n        /* \"#utility.yul\":4051:4062   */\n      0x00\n        /* \"#utility.yul\":4085:4091   */\n      dup3\n        /* \"#utility.yul\":4080:4083   */\n      dup3\n        /* \"#utility.yul\":4073:4092   */\n      mstore\n        /* \"#utility.yul\":4125:4129   */\n      0x20\n        /* \"#utility.yul\":4120:4123   */\n      dup3\n        /* \"#utility.yul\":4116:4130   */\n      add\n        /* \"#utility.yul\":4101:4130   */\n      swap1\n      pop\n        /* \"#utility.yul\":3967:4136   */\n      swap3\n      swap2\n      pop\n      pop\n      jump\t// out\n        /* \"#utility.yul\":4142:4309   */\n    tag_139:\n        /* \"#utility.yul\":4282:4301   */\n      0x43616e6e6f742077697468647261772030000000000000000000000000000000\n        /* \"#utility.yul\":4278:4279   */\n      0x00\n        /* \"#utility.yul\":4270:4276   */\n      dup3\n        /* \"#utility.yul\":4266:4280   */\n      add\n        /* \"#utility.yul\":4259:4302   */\n      mstore\n        /* \"#utility.yul\":4142:4309   */\n      pop\n      jump\t// out\n        /* \"#utility.yul\":4315:4681   */\n    tag_140:\n        /* \"#utility.yul\":4457:4460   */\n      0x00\n        /* \"#utility.yul\":4478:4545   */\n      tag_207\n        /* \"#utility.yul\":4542:4544   */\n      0x11\n        /* \"#utility.yul\":4537:4540   */\n      dup4\n        /* \"#utility.yul\":4478:4545   */\n      tag_138\n      jump\t// in\n    tag_207:\n        /* \"#utility.yul\":4471:4545   */\n      swap2\n      pop\n        /* \"#utility.yul\":4554:4647   */\n      tag_208\n        /* \"#utility.yul\":4643:4646   */\n      dup3\n        /* \"#utility.yul\":4554:4647   */\n      tag_139\n      jump\t// in\n    tag_208:\n        /* \"#utility.yul\":4672:4674   */\n      0x20\n        /* \"#utility.yul\":4667:4670   */\n      dup3\n        /* \"#utility.yul\":4663:4675   */\n      add\n        /* \"#utility.yul\":4656:4675   */\n      swap1\n      pop\n        /* \"#utility.yul\":4315:4681   */\n      swap2\n      swap1\n      pop\n      jump\t// out\n        /* \"#utility.yul\":4687:5106   */\n    tag_55:\n        /* \"#utility.yul\":4853:4857   */\n      0x00\n        /* \"#utility.yul\":4891:4893   */\n      0x20\n        /* \"#utility.yul\":4880:4889   */\n      dup3\n        /* \"#utility.yul\":4876:4894   */\n      add\n        /* \"#utility.yul\":4868:4894   */\n      swap1\n      pop\n        /* \"#utility.yul\":4940:4949   */\n      dup2\n        /* \"#utility.yul\":4934:4938   */\n      dup2\n        /* \"#utility.yul\":4930:4950   */\n      sub\n        /* \"#utility.yul\":4926:4927   */\n      0x00\n        /* \"#utility.yul\":4915:4924   */\n      dup4\n        /* \"#utility.yul\":4911:4928   */\n      add\n        /* \"#utility.yul\":4904:4951   */\n      mstore\n        /* \"#utility.yul\":4968:5099   */\n      tag_210\n        /* \"#utility.yul\":5094:5098   */\n      dup2\n        /* \"#utility.yul\":4968:5099   */\n      tag_140\n      jump\t// in\n    tag_210:\n        /* \"#utility.yul\":4960:5099   */\n      swap1\n      pop\n        /* \"#utility.yul\":4687:5106   */\n      swap2\n      swap1\n      pop\n      jump\t// out\n        /* \"#utility.yul\":5112:5281   */\n    tag_141:\n        /* \"#utility.yul\":5252:5273   */\n      0x546f6f206561726c792077697468647261772100000000000000000000000000\n        /* \"#utility.yul\":5248:5249   */\n      0x00\n        /* \"#utility.yul\":5240:5246   */\n      dup3\n        /* \"#utility.yul\":5236:5250   */\n      add\n        /* \"#utility.yul\":5229:5274   */\n      mstore\n        /* \"#utility.yul\":5112:5281   */\n      pop\n      jump\t// out\n        /* \"#utility.yul\":5287:5653   */\n    tag_142:\n        /* \"#utility.yul\":5429:5432   */\n      0x00\n        /* \"#utility.yul\":5450:5517   */\n      tag_213\n        /* \"#utility.yul\":5514:5516   */\n      0x13\n        /* \"#utility.yul\":5509:5512   */\n      dup4\n        /* \"#utility.yul\":5450:5517   */\n      tag_138\n      jump\t// in\n    tag_213:\n        /* \"#utility.yul\":5443:5517   */\n      swap2\n      pop\n        /* \"#utility.yul\":5526:5619   */\n      tag_214\n        /* \"#utility.yul\":5615:5618   */\n      dup3\n        /* \"#utility.yul\":5526:5619   */\n      tag_141\n      jump\t// in\n    tag_214:\n        /* \"#utility.yul\":5644:5646   */\n      0x20\n        /* \"#utility.yul\":5639:5642   */\n      dup3\n        /* \"#utility.yul\":5635:5647   */\n      add\n        /* \"#utility.yul\":5628:5647   */\n      swap1\n      pop\n        /* \"#utility.yul\":5287:5653   */\n      swap2\n      swap1\n      pop\n      jump\t// out\n        /* \"#utility.yul\":5659:6078   */\n    tag_58:\n        /* \"#utility.yul\":5825:5829   */\n      0x00\n        /* \"#utility.yul\":5863:5865   */\n      0x20\n        /* \"#utility.yul\":5852:5861   */\n      dup3\n        /* \"#utility.yul\":5848:5866   */\n      add\n        /* \"#utility.yul\":5840:5866   */\n      swap1\n      pop\n        /* \"#utility.yul\":5912:5921   */\n      dup2\n        /* \"#utility.yul\":5906:5910   */\n      dup2\n        /* \"#utility.yul\":5902:5922   */\n      sub\n        /* \"#utility.yul\":5898:5899   */\n      0x00\n        /* \"#utility.yul\":5887:5896   */\n      dup4\n        /* \"#utility.yul\":5883:5900   */\n      add\n        /* \"#utility.yul\":5876:5923   */\n      mstore\n        /* \"#utility.yul\":5940:6071   */\n      tag_216\n        /* \"#utility.yul\":6066:6070   */\n      dup2\n        /* \"#utility.yul\":5940:6071   */\n      tag_142\n      jump\t// in\n    tag_216:\n        /* \"#utility.yul\":5932:6071   */\n      swap1\n      pop\n        /* \"#utility.yul\":5659:6078   */\n      swap2\n      swap1\n      pop\n      jump\t// out\n        /* \"#utility.yul\":6084:6416   */\n    tag_60:\n        /* \"#utility.yul\":6205:6209   */\n      0x00\n        /* \"#utility.yul\":6243:6245   */\n      0x40\n        /* \"#utility.yul\":6232:6241   */\n      dup3\n        /* \"#utility.yul\":6228:6246   */\n      add\n        /* \"#utility.yul\":6220:6246   */\n      swap1\n      pop\n        /* \"#utility.yul\":6256:6327   */\n      tag_218\n        /* \"#utility.yul\":6324:6325   */\n      0x00\n        /* \"#utility.yul\":6313:6322   */\n      dup4\n        /* \"#utility.yul\":6309:6326   */\n      add\n        /* \"#utility.yul\":6300:6306   */\n      dup6\n        /* \"#utility.yul\":6256:6327   */\n      tag_137\n      jump\t// in\n    tag_218:\n        /* \"#utility.yul\":6337:6409   */\n      tag_219\n        /* \"#utility.yul\":6405:6407   */\n      0x20\n        /* \"#utility.yul\":6394:6403   */\n      dup4\n        /* \"#utility.yul\":6390:6408   */\n      add\n        /* \"#utility.yul\":6381:6387   */\n      dup5\n        /* \"#utility.yul\":6337:6409   */\n      tag_133\n      jump\t// in\n    tag_219:\n        /* \"#utility.yul\":6084:6416   */\n      swap4\n      swap3\n      pop\n      pop\n      pop\n      jump\t// out\n        /* \"#utility.yul\":6422:6512   */\n    tag_143:\n        /* \"#utility.yul\":6456:6463   */\n      0x00\n        /* \"#utility.yul\":6499:6504   */\n      dup2\n        /* \"#utility.yul\":6492:6505   */\n      iszero\n        /* \"#utility.yul\":6485:6506   */\n      iszero\n        /* \"#utility.yul\":6474:6506   */\n      swap1\n      pop\n        /* \"#utility.yul\":6422:6512   */\n      swap2\n      swap1\n      pop\n      jump\t// out\n        /* \"#utility.yul\":6518:6634   */\n    tag_144:\n        /* \"#utility.yul\":6588:6609   */\n      tag_222\n        /* \"#utility.yul\":6603:6608   */\n      dup2\n        /* \"#utility.yul\":6588:6609   */\n      tag_143\n      jump\t// in\n    tag_222:\n        /* \"#utility.yul\":6581:6586   */\n      dup2\n        /* \"#utility.yul\":6578:6610   */\n      eq\n        /* \"#utility.yul\":6568:6628   */\n      tag_223\n      jumpi\n        /* \"#utility.yul\":6624:6625   */\n      0x00\n        /* \"#utility.yul\":6621:6622   */\n      dup1\n        /* \"#utility.yul\":6614:6626   */\n      revert\n        /* \"#utility.yul\":6568:6628   */\n    tag_223:\n        /* \"#utility.yul\":6518:6634   */\n      pop\n      jump\t// out\n        /* \"#utility.yul\":6640:6777   */\n    tag_145:\n        /* \"#utility.yul\":6694:6699   */\n      0x00\n        /* \"#utility.yul\":6725:6731   */\n      dup2\n        /* \"#utility.yul\":6719:6732   */\n      mload\n        /* \"#utility.yul\":6710:6732   */\n      swap1\n      pop\n        /* \"#utility.yul\":6741:6771   */\n      tag_225\n        /* \"#utility.yul\":6765:6770   */\n      dup2\n        /* \"#utility.yul\":6741:6771   */\n      tag_144\n      jump\t// in\n    tag_225:\n        /* \"#utility.yul\":6640:6777   */\n      swap3\n      swap2\n      pop\n      pop\n      jump\t// out\n        /* \"#utility.yul\":6783:7128   */\n    tag_64:\n        /* \"#utility.yul\":6850:6856   */\n      0x00\n        /* \"#utility.yul\":6899:6901   */\n      0x20\n        /* \"#utility.yul\":6887:6896   */\n      dup3\n        /* \"#utility.yul\":6878:6885   */\n      dup5\n        /* \"#utility.yul\":6874:6897   */\n      sub\n        /* \"#utility.yul\":6870:6902   */\n      slt\n        /* \"#utility.yul\":6867:6986   */\n      iszero\n      tag_227\n      jumpi\n        /* \"#utility.yul\":6905:6984   */\n      tag_228\n      tag_128\n      jump\t// in\n    tag_228:\n        /* \"#utility.yul\":6867:6986   */\n    tag_227:\n        /* \"#utility.yul\":7025:7026   */\n      0x00\n        /* \"#utility.yul\":7050:7111   */\n      tag_229\n        /* \"#utility.yul\":7103:7110   */\n      dup5\n        /* \"#utility.yul\":7094:7100   */\n      dup3\n        /* \"#utility.yul\":7083:7092   */\n      dup6\n        /* \"#utility.yul\":7079:7101   */\n      add\n        /* \"#utility.yul\":7050:7111   */\n      tag_145\n      jump\t// in\n    tag_229:\n        /* \"#utility.yul\":7040:7111   */\n      swap2\n      pop\n        /* \"#utility.yul\":6996:7121   */\n      pop\n        /* \"#utility.yul\":6783:7128   */\n      swap3\n      swap2\n      pop\n      pop\n      jump\t// out\n        /* \"#utility.yul\":7134:7299   */\n    tag_146:\n        /* \"#utility.yul\":7274:7291   */\n      0x5472616e73666572206661696c65640000000000000000000000000000000000\n        /* \"#utility.yul\":7270:7271   */\n      0x00\n        /* \"#utility.yul\":7262:7268   */\n      dup3\n        /* \"#utility.yul\":7258:7272   */\n      add\n        /* \"#utility.yul\":7251:7292   */\n      mstore\n        /* \"#utility.yul\":7134:7299   */\n      pop\n      jump\t// out\n        /* \"#utility.yul\":7305:7671   */\n    tag_147:\n        /* \"#utility.yul\":7447:7450   */\n      0x00\n        /* \"#utility.yul\":7468:7535   */\n      tag_232\n        /* \"#utility.yul\":7532:7534   */\n      0x0f\n        /* \"#utility.yul\":7527:7530   */\n      dup4\n        /* \"#utility.yul\":7468:7535   */\n      tag_138\n      jump\t// in\n    tag_232:\n        /* \"#utility.yul\":7461:7535   */\n      swap2\n      pop\n        /* \"#utility.yul\":7544:7637   */\n      tag_233\n        /* \"#utility.yul\":7633:7636   */\n      dup3\n        /* \"#utility.yul\":7544:7637   */\n      tag_146\n      jump\t// in\n    tag_233:\n        /* \"#utility.yul\":7662:7664   */\n      0x20\n        /* \"#utility.yul\":7657:7660   */\n      dup3\n        /* \"#utility.yul\":7653:7665   */\n      add\n        /* \"#utility.yul\":7646:7665   */\n      swap1\n      pop\n        /* \"#utility.yul\":7305:7671   */\n      swap2\n      swap1\n      pop\n      jump\t// out\n        /* \"#utility.yul\":7677:8096   */\n    tag_67:\n        /* \"#utility.yul\":7843:7847   */\n      0x00\n        /* \"#utility.yul\":7881:7883   */\n      0x20\n        /* \"#utility.yul\":7870:7879   */\n      dup3\n        /* \"#utility.yul\":7866:7884   */\n      add\n        /* \"#utility.yul\":7858:7884   */\n      swap1\n      pop\n        /* \"#utility.yul\":7930:7939   */\n      dup2\n        /* \"#utility.yul\":7924:7928   */\n      dup2\n        /* \"#utility.yul\":7920:7940   */\n      sub\n        /* \"#utility.yul\":7916:7917   */\n      0x00\n        /* \"#utility.yul\":7905:7914   */\n      dup4\n        /* \"#utility.yul\":7901:7918   */\n      add\n        /* \"#utility.yul\":7894:7941   */\n      mstore\n        /* \"#utility.yul\":7958:8089   */\n      tag_235\n        /* \"#utility.yul\":8084:8088   */\n      dup2\n        /* \"#utility.yul\":7958:8089   */\n      tag_147\n      jump\t// in\n    tag_235:\n        /* \"#utility.yul\":7950:8089   */\n      swap1\n      pop\n        /* \"#utility.yul\":7677:8096   */\n      swap2\n      swap1\n      pop\n      jump\t// out\n        /* \"#utility.yul\":8102:8282   */\n    tag_148:\n        /* \"#utility.yul\":8150:8227   */\n      0x4e487b7100000000000000000000000000000000000000000000000000000000\n        /* \"#utility.yul\":8147:8148   */\n      0x00\n        /* \"#utility.yul\":8140:8228   */\n      mstore\n        /* \"#utility.yul\":8247:8251   */\n      0x11\n        /* \"#utility.yul\":8244:8245   */\n      0x04\n        /* \"#utility.yul\":8237:8252   */\n      mstore\n        /* \"#utility.yul\":8271:8275   */\n      0x24\n        /* \"#utility.yul\":8268:8269   */\n      0x00\n        /* \"#utility.yul\":8261:8276   */\n      revert\n        /* \"#utility.yul\":8288:8482   */\n    tag_69:\n        /* \"#utility.yul\":8328:8332   */\n      0x00\n        /* \"#utility.yul\":8348:8368   */\n      tag_238\n        /* \"#utility.yul\":8366:8367   */\n      dup3\n        /* \"#utility.yul\":8348:8368   */\n      tag_130\n      jump\t// in\n    tag_238:\n        /* \"#utility.yul\":8343:8368   */\n      swap2\n      pop\n        /* \"#utility.yul\":8382:8402   */\n      tag_239\n        /* \"#utility.yul\":8400:8401   */\n      dup4\n        /* \"#utility.yul\":8382:8402   */\n      tag_130\n      jump\t// in\n    tag_239:\n        /* \"#utility.yul\":8377:8402   */\n      swap3\n      pop\n        /* \"#utility.yul\":8426:8427   */\n      dup3\n        /* \"#utility.yul\":8423:8424   */\n      dup3\n        /* \"#utility.yul\":8419:8428   */\n      sub\n        /* \"#utility.yul\":8411:8428   */\n      swap1\n      pop\n        /* \"#utility.yul\":8450:8451   */\n      dup2\n        /* \"#utility.yul\":8444:8448   */\n      dup2\n        /* \"#utility.yul\":8441:8452   */\n      gt\n        /* \"#utility.yul\":8438:8475   */\n      iszero\n      tag_240\n      jumpi\n        /* \"#utility.yul\":8455:8473   */\n      tag_241\n      tag_148\n      jump\t// in\n    tag_241:\n        /* \"#utility.yul\":8438:8475   */\n    tag_240:\n        /* \"#utility.yul\":8288:8482   */\n      swap3\n      swap2\n      pop\n      pop\n      jump\t// out\n        /* \"#utility.yul\":8488:8663   */\n    tag_149:\n        /* \"#utility.yul\":8628:8655   */\n      0x7573657220616c72656164792068617320737461636b696e6700000000000000\n        /* \"#utility.yul\":8624:8625   */\n      0x00\n        /* \"#utility.yul\":8616:8622   */\n      dup3\n        /* \"#utility.yul\":8612:8626   */\n      add\n        /* \"#utility.yul\":8605:8656   */\n      mstore\n        /* \"#utility.yul\":8488:8663   */\n      pop\n      jump\t// out\n        /* \"#utility.yul\":8669:9035   */\n    tag_150:\n        /* \"#utility.yul\":8811:8814   */\n      0x00\n        /* \"#utility.yul\":8832:8899   */\n      tag_244\n        /* \"#utility.yul\":8896:8898   */\n      0x19\n        /* \"#utility.yul\":8891:8894   */\n      dup4\n        /* \"#utility.yul\":8832:8899   */\n      tag_138\n      jump\t// in\n    tag_244:\n        /* \"#utility.yul\":8825:8899   */\n      swap2\n      pop\n        /* \"#utility.yul\":8908:9001   */\n      tag_245\n        /* \"#utility.yul\":8997:9000   */\n      dup3\n        /* \"#utility.yul\":8908:9001   */\n      tag_149\n      jump\t// in\n    tag_245:\n        /* \"#utility.yul\":9026:9028   */\n      0x20\n        /* \"#utility.yul\":9021:9024   */\n      dup3\n        /* \"#utility.yul\":9017:9029   */\n      add\n        /* \"#utility.yul\":9010:9029   */\n      swap1\n      pop\n        /* \"#utility.yul\":8669:9035   */\n      swap2\n      swap1\n      pop\n      jump\t// out\n        /* \"#utility.yul\":9041:9460   */\n    tag_85:\n        /* \"#utility.yul\":9207:9211   */\n      0x00\n        /* \"#utility.yul\":9245:9247   */\n      0x20\n        /* \"#utility.yul\":9234:9243   */\n      dup3\n        /* \"#utility.yul\":9230:9248   */\n      add\n        /* \"#utility.yul\":9222:9248   */\n      swap1\n      pop\n        /* \"#utility.yul\":9294:9303   */\n      dup2\n        /* \"#utility.yul\":9288:9292   */\n      dup2\n        /* \"#utility.yul\":9284:9304   */\n      sub\n        /* \"#utility.yul\":9280:9281   */\n      0x00\n        /* \"#utility.yul\":9269:9278   */\n      dup4\n        /* \"#utility.yul\":9265:9282   */\n      add\n        /* \"#utility.yul\":9258:9305   */\n      mstore\n        /* \"#utility.yul\":9322:9453   */\n      tag_247\n        /* \"#utility.yul\":9448:9452   */\n      dup2\n        /* \"#utility.yul\":9322:9453   */\n      tag_150\n      jump\t// in\n    tag_247:\n        /* \"#utility.yul\":9314:9453   */\n      swap1\n      pop\n        /* \"#utility.yul\":9041:9460   */\n      swap2\n      swap1\n      pop\n      jump\t// out\n        /* \"#utility.yul\":9466:9657   */\n    tag_87:\n        /* \"#utility.yul\":9506:9509   */\n      0x00\n        /* \"#utility.yul\":9525:9545   */\n      tag_249\n        /* \"#utility.yul\":9543:9544   */\n      dup3\n        /* \"#utility.yul\":9525:9545   */\n      tag_130\n      jump\t// in\n    tag_249:\n        /* \"#utility.yul\":9520:9545   */\n      swap2\n      pop\n        /* \"#utility.yul\":9559:9579   */\n      tag_250\n        /* \"#utility.yul\":9577:9578   */\n      dup4\n        /* \"#utility.yul\":9559:9579   */\n      tag_130\n      jump\t// in\n    tag_250:\n        /* \"#utility.yul\":9554:9579   */\n      swap3\n      pop\n        /* \"#utility.yul\":9602:9603   */\n      dup3\n        /* \"#utility.yul\":9599:9600   */\n      dup3\n        /* \"#utility.yul\":9595:9604   */\n      add\n        /* \"#utility.yul\":9588:9604   */\n      swap1\n      pop\n        /* \"#utility.yul\":9623:9626   */\n      dup1\n        /* \"#utility.yul\":9620:9621   */\n      dup3\n        /* \"#utility.yul\":9617:9627   */\n      gt\n        /* \"#utility.yul\":9614:9650   */\n      iszero\n      tag_251\n      jumpi\n        /* \"#utility.yul\":9630:9648   */\n      tag_252\n      tag_148\n      jump\t// in\n    tag_252:\n        /* \"#utility.yul\":9614:9650   */\n    tag_251:\n        /* \"#utility.yul\":9466:9657   */\n      swap3\n      swap2\n      pop\n      pop\n      jump\t// out\n        /* \"#utility.yul\":9663:10105   */\n    tag_89:\n        /* \"#utility.yul\":9812:9816   */\n      0x00\n        /* \"#utility.yul\":9850:9852   */\n      0x60\n        /* \"#utility.yul\":9839:9848   */\n      dup3\n        /* \"#utility.yul\":9835:9853   */\n      add\n        /* \"#utility.yul\":9827:9853   */\n      swap1\n      pop\n        /* \"#utility.yul\":9863:9934   */\n      tag_254\n        /* \"#utility.yul\":9931:9932   */\n      0x00\n        /* \"#utility.yul\":9920:9929   */\n      dup4\n        /* \"#utility.yul\":9916:9933   */\n      add\n        /* \"#utility.yul\":9907:9913   */\n      dup7\n        /* \"#utility.yul\":9863:9934   */\n      tag_137\n      jump\t// in\n    tag_254:\n        /* \"#utility.yul\":9944:10016   */\n      tag_255\n        /* \"#utility.yul\":10012:10014   */\n      0x20\n        /* \"#utility.yul\":10001:10010   */\n      dup4\n        /* \"#utility.yul\":9997:10015   */\n      add\n        /* \"#utility.yul\":9988:9994   */\n      dup6\n        /* \"#utility.yul\":9944:10016   */\n      tag_137\n      jump\t// in\n    tag_255:\n        /* \"#utility.yul\":10026:10098   */\n      tag_256\n        /* \"#utility.yul\":10094:10096   */\n      0x40\n        /* \"#utility.yul\":10083:10092   */\n      dup4\n        /* \"#utility.yul\":10079:10097   */\n      add\n        /* \"#utility.yul\":10070:10076   */\n      dup5\n        /* \"#utility.yul\":10026:10098   */\n      tag_133\n      jump\t// in\n    tag_256:\n        /* \"#utility.yul\":9663:10105   */\n      swap5\n      swap4\n      pop\n      pop\n      pop\n      pop\n      jump\t// out\n        /* \"#utility.yul\":10111:10292   */\n    tag_151:\n        /* \"#utility.yul\":10251:10284   */\n      0x5265656e7472616e637947756172643a207265656e7472616e742063616c6c00\n        /* \"#utility.yul\":10247:10248   */\n      0x00\n        /* \"#utility.yul\":10239:10245   */\n      dup3\n        /* \"#utility.yul\":10235:10249   */\n      add\n        /* \"#utility.yul\":10228:10285   */\n      mstore\n        /* \"#utility.yul\":10111:10292   */\n      pop\n      jump\t// out\n        /* \"#utility.yul\":10298:10664   */\n    tag_152:\n        /* \"#utility.yul\":10440:10443   */\n      0x00\n        /* \"#utility.yul\":10461:10528   */\n      tag_259\n        /* \"#utility.yul\":10525:10527   */\n      0x1f\n        /* \"#utility.yul\":10520:10523   */\n      dup4\n        /* \"#utility.yul\":10461:10528   */\n      tag_138\n      jump\t// in\n    tag_259:\n        /* \"#utility.yul\":10454:10528   */\n      swap2\n      pop\n        /* \"#utility.yul\":10537:10630   */\n      tag_260\n        /* \"#utility.yul\":10626:10629   */\n      dup3\n        /* \"#utility.yul\":10537:10630   */\n      tag_151\n      jump\t// in\n    tag_260:\n        /* \"#utility.yul\":10655:10657   */\n      0x20\n        /* \"#utility.yul\":10650:10653   */\n      dup3\n        /* \"#utility.yul\":10646:10658   */\n      add\n        /* \"#utility.yul\":10639:10658   */\n      swap1\n      pop\n        /* \"#utility.yul\":10298:10664   */\n      swap2\n      swap1\n      pop\n      jump\t// out\n        /* \"#utility.yul\":10670:11089   */\n    tag_110:\n        /* \"#utility.yul\":10836:10840   */\n      0x00\n        /* \"#utility.yul\":10874:10876   */\n      0x20\n        /* \"#utility.yul\":10863:10872   */\n      dup3\n        /* \"#utility.yul\":10859:10877   */\n      add\n        /* \"#utility.yul\":10851:10877   */\n      swap1\n      pop\n        /* \"#utility.yul\":10923:10932   */\n      dup2\n        /* \"#utility.yul\":10917:10921   */\n      dup2\n        /* \"#utility.yul\":10913:10933   */\n      sub\n        /* \"#utility.yul\":10909:10910   */\n      0x00\n        /* \"#utility.yul\":10898:10907   */\n      dup4\n        /* \"#utility.yul\":10894:10911   */\n      add\n        /* \"#utility.yul\":10887:10934   */\n      mstore\n        /* \"#utility.yul\":10951:11082   */\n      tag_262\n        /* \"#utility.yul\":11077:11081   */\n      dup2\n        /* \"#utility.yul\":10951:11082   */\n      tag_152\n      jump\t// in\n    tag_262:\n        /* \"#utility.yul\":10943:11082   */\n      swap1\n      pop\n        /* \"#utility.yul\":10670:11089   */\n      swap2\n      swap1\n      pop\n      jump\t// out\n\n    auxdata: 0xa2646970667358221220b2e0a8ab31664acee5026ba6508050a9ee2d7747a04be281fbdfc437788aadc464736f6c634300081a0033\n}\n",
				"bytecode": {
					"linkReferences": {},
					"object": "608060405234801561000f575f80fd5b5060405161124438038061124483398181016040528101906100319190610231565b3360015f819055505f73ffffffffffffffffffffffffffffffffffffffff168173ffffffffffffffffffffffffffffffffffffffff16036100a9575f6040517f1e4fbdf70000000000000000000000000000000000000000000000000000000081526004016100a0919061026b565b60405180910390fd5b6100b8816100ff60201b60201c565b508060025f6101000a81548173ffffffffffffffffffffffffffffffffffffffff021916908373ffffffffffffffffffffffffffffffffffffffff16021790555050610284565b5f60015f9054906101000a900473ffffffffffffffffffffffffffffffffffffffff1690508160015f6101000a81548173ffffffffffffffffffffffffffffffffffffffff021916908373ffffffffffffffffffffffffffffffffffffffff1602179055508173ffffffffffffffffffffffffffffffffffffffff168173ffffffffffffffffffffffffffffffffffffffff167f8be0079c531659141344cd1fd0a4f28419497f9722a3daafe3b4186f6b6457e060405160405180910390a35050565b5f80fd5b5f73ffffffffffffffffffffffffffffffffffffffff82169050919050565b5f6101ef826101c6565b9050919050565b5f610200826101e5565b9050919050565b610210816101f6565b811461021a575f80fd5b50565b5f8151905061022b81610207565b92915050565b5f60208284031215610246576102456101c2565b5b5f6102538482850161021d565b91505092915050565b610265816101e5565b82525050565b5f60208201905061027e5f83018461025c565b92915050565b610fb3806102915f395ff3fe608060405234801561000f575f80fd5b506004361061009c575f3560e01c8063817b1cd211610064578063817b1cd21461010c578063821460f51461012a5780638da5cb5b1461015b578063f2fde38b14610179578063fc0e3d90146101955761009c565b80633ccfd60b146100a0578063715018a6146100aa57806372f702f3146100b45780637b0472f0146100d25780637bc74225146100ee575b5f80fd5b6100a86101b4565b005b6100b2610467565b005b6100bc61047a565b6040516100c99190610aab565b60405180910390f35b6100ec60048036038101906100e79190610afb565b61049f565b005b6100f661075b565b6040516101039190610b48565b60405180910390f35b610114610764565b6040516101219190610b48565b60405180910390f35b610144600480360381019061013f9190610b9c565b61076a565b604051610152929190610bc7565b60405180910390f35b61016361078a565b6040516101709190610bfd565b60405180910390f35b610193600480360381019061018e9190610b9c565b6107b2565b005b61019d610836565b6040516101ab929190610bc7565b60405180910390f35b6101bc61088a565b5f60045f3373ffffffffffffffffffffffffffffffffffffffff1673ffffffffffffffffffffffffffffffffffffffff1681526020019081526020015f206040518060400160405290815f820154815260200160018201548152505090505f815f01511161025f576040517f08c379a000000000000000000000000000000000000000000000000000000000815260040161025690610c70565b60405180910390fd5b42816020015111156102a6576040517f08c379a000000000000000000000000000000000000000000000000000000000815260040161029d90610cd8565b60405180910390fd5b5f60025f9054906101000a900473ffffffffffffffffffffffffffffffffffffffff1673ffffffffffffffffffffffffffffffffffffffff1663a9059cbb33845f01516040518363ffffffff1660e01b8152600401610306929190610cf6565b6020604051808303815f875af1158015610322573d5f803e3d5ffd5b505050506040513d601f19601f820116820180604052508101906103469190610d52565b905080610388576040517f08c379a000000000000000000000000000000000000000000000000000000000815260040161037f90610dc7565b60405180910390fd5b815f015160035f82825461039c9190610e12565b9250508190555060405180604001604052805f81526020015f81525060045f3373ffffffffffffffffffffffffffffffffffffffff1673ffffffffffffffffffffffffffffffffffffffff1681526020019081526020015f205f820151815f0155602082015181600101559050503373ffffffffffffffffffffffffffffffffffffffff167f7084f5476618d8e60b11ef0d7d3f06914655adb8793e28ff7f018d4c76d505d5835f01516040516104539190610b48565b60405180910390a250506104656108d7565b565b61046f6108e0565b6104785f610967565b565b60025f9054906101000a900473ffffffffffffffffffffffffffffffffffffffff1681565b6104a761088a565b5f60045f3373ffffffffffffffffffffffffffffffffffffffff1673ffffffffffffffffffffffffffffffffffffffff1681526020019081526020015f205f015414801561053457505f60045f3373ffffffffffffffffffffffffffffffffffffffff1673ffffffffffffffffffffffffffffffffffffffff1681526020019081526020015f2060010154145b610573576040517f08c379a000000000000000000000000000000000000000000000000000000000815260040161056a90610e8f565b60405180910390fd5b8160045f3373ffffffffffffffffffffffffffffffffffffffff1673ffffffffffffffffffffffffffffffffffffffff1681526020019081526020015f205f018190555080426105c39190610ead565b60045f3373ffffffffffffffffffffffffffffffffffffffff1673ffffffffffffffffffffffffffffffffffffffff1681526020019081526020015f20600101819055505f60025f9054906101000a900473ffffffffffffffffffffffffffffffffffffffff1673ffffffffffffffffffffffffffffffffffffffff166323b872dd3330866040518463ffffffff1660e01b815260040161066693929190610ee0565b6020604051808303815f875af1158015610682573d5f803e3d5ffd5b505050506040513d601f19601f820116820180604052508101906106a69190610d52565b9050806106e8576040517f08c379a00000000000000000000000000000000000000000000000000000000081526004016106df90610dc7565b60405180910390fd5b8260035f8282546106f99190610ead565b925050819055503373ffffffffffffffffffffffffffffffffffffffff167f9e71bc8eea02a63969f509818f2dafb9254532904319f9dbda79b67bd34a5f3d846040516107469190610b48565b60405180910390a2506107576108d7565b5050565b5f600354905090565b60035481565b6004602052805f5260405f205f91509050805f0154908060010154905082565b5f60015f9054906101000a900473ffffffffffffffffffffffffffffffffffffffff16905090565b6107ba6108e0565b5f73ffffffffffffffffffffffffffffffffffffffff168173ffffffffffffffffffffffffffffffffffffffff160361082a575f6040517f1e4fbdf70000000000000000000000000000000000000000000000000000000081526004016108219190610bfd565b60405180910390fd5b61083381610967565b50565b5f805f60045f3373ffffffffffffffffffffffffffffffffffffffff1673ffffffffffffffffffffffffffffffffffffffff1681526020019081526020015f209050805f0154816001015492509250509091565b60025f54036108ce576040517f08c379a00000000000000000000000000000000000000000000000000000000081526004016108c590610f5f565b60405180910390fd5b60025f81905550565b60015f81905550565b6108e8610a2a565b73ffffffffffffffffffffffffffffffffffffffff1661090661078a565b73ffffffffffffffffffffffffffffffffffffffff161461096557610929610a2a565b6040517f118cdaa700000000000000000000000000000000000000000000000000000000815260040161095c9190610bfd565b60405180910390fd5b565b5f60015f9054906101000a900473ffffffffffffffffffffffffffffffffffffffff1690508160015f6101000a81548173ffffffffffffffffffffffffffffffffffffffff021916908373ffffffffffffffffffffffffffffffffffffffff1602179055508173ffffffffffffffffffffffffffffffffffffffff168173ffffffffffffffffffffffffffffffffffffffff167f8be0079c531659141344cd1fd0a4f28419497f9722a3daafe3b4186f6b6457e060405160405180910390a35050565b5f33905090565b5f73ffffffffffffffffffffffffffffffffffffffff82169050919050565b5f819050919050565b5f610a73610a6e610a6984610a31565b610a50565b610a31565b9050919050565b5f610a8482610a59565b9050919050565b5f610a9582610a7a565b9050919050565b610aa581610a8b565b82525050565b5f602082019050610abe5f830184610a9c565b92915050565b5f80fd5b5f819050919050565b610ada81610ac8565b8114610ae4575f80fd5b50565b5f81359050610af581610ad1565b92915050565b5f8060408385031215610b1157610b10610ac4565b5b5f610b1e85828601610ae7565b9250506020610b2f85828601610ae7565b9150509250929050565b610b4281610ac8565b82525050565b5f602082019050610b5b5f830184610b39565b92915050565b5f610b6b82610a31565b9050919050565b610b7b81610b61565b8114610b85575f80fd5b50565b5f81359050610b9681610b72565b92915050565b5f60208284031215610bb157610bb0610ac4565b5b5f610bbe84828501610b88565b91505092915050565b5f604082019050610bda5f830185610b39565b610be76020830184610b39565b9392505050565b610bf781610b61565b82525050565b5f602082019050610c105f830184610bee565b92915050565b5f82825260208201905092915050565b7f43616e6e6f7420776974686472617720300000000000000000000000000000005f82015250565b5f610c5a601183610c16565b9150610c6582610c26565b602082019050919050565b5f6020820190508181035f830152610c8781610c4e565b9050919050565b7f546f6f206561726c7920776974686472617721000000000000000000000000005f82015250565b5f610cc2601383610c16565b9150610ccd82610c8e565b602082019050919050565b5f6020820190508181035f830152610cef81610cb6565b9050919050565b5f604082019050610d095f830185610bee565b610d166020830184610b39565b9392505050565b5f8115159050919050565b610d3181610d1d565b8114610d3b575f80fd5b50565b5f81519050610d4c81610d28565b92915050565b5f60208284031215610d6757610d66610ac4565b5b5f610d7484828501610d3e565b91505092915050565b7f5472616e73666572206661696c656400000000000000000000000000000000005f82015250565b5f610db1600f83610c16565b9150610dbc82610d7d565b602082019050919050565b5f6020820190508181035f830152610dde81610da5565b9050919050565b7f4e487b71000000000000000000000000000000000000000000000000000000005f52601160045260245ffd5b5f610e1c82610ac8565b9150610e2783610ac8565b9250828203905081811115610e3f57610e3e610de5565b5b92915050565b7f7573657220616c72656164792068617320737461636b696e67000000000000005f82015250565b5f610e79601983610c16565b9150610e8482610e45565b602082019050919050565b5f6020820190508181035f830152610ea681610e6d565b9050919050565b5f610eb782610ac8565b9150610ec283610ac8565b9250828201905080821115610eda57610ed9610de5565b5b92915050565b5f606082019050610ef35f830186610bee565b610f006020830185610bee565b610f0d6040830184610b39565b949350505050565b7f5265656e7472616e637947756172643a207265656e7472616e742063616c6c005f82015250565b5f610f49601f83610c16565b9150610f5482610f15565b602082019050919050565b5f6020820190508181035f830152610f7681610f3d565b905091905056fea2646970667358221220b2e0a8ab31664acee5026ba6508050a9ee2d7747a04be281fbdfc437788aadc464736f6c634300081a0033",
					"opcodes": "PUSH1 0x80 PUSH1 0x40 MSTORE CALLVALUE DUP1 ISZERO PUSH2 0xF JUMPI PUSH0 DUP1 REVERT JUMPDEST POP PUSH1 0x40 MLOAD PUSH2 0x1244 CODESIZE SUB DUP1 PUSH2 0x1244 DUP4 CODECOPY DUP2 DUP2 ADD PUSH1 0x40 MSTORE DUP2 ADD SWAP1 PUSH2 0x31 SWAP2 SWAP1 PUSH2 0x231 JUMP JUMPDEST CALLER PUSH1 0x1 PUSH0 DUP2 SWAP1 SSTORE POP PUSH0 PUSH20 0xFFFFFFFFFFFFFFFFFFFFFFFFFFFFFFFFFFFFFFFF AND DUP2 PUSH20 0xFFFFFFFFFFFFFFFFFFFFFFFFFFFFFFFFFFFFFFFF AND SUB PUSH2 0xA9 JUMPI PUSH0 PUSH1 0x40 MLOAD PUSH32 0x1E4FBDF700000000000000000000000000000000000000000000000000000000 DUP2 MSTORE PUSH1 0x4 ADD PUSH2 0xA0 SWAP2 SWAP1 PUSH2 0x26B JUMP JUMPDEST PUSH1 0x40 MLOAD DUP1 SWAP2 SUB SWAP1 REVERT JUMPDEST PUSH2 0xB8 DUP2 PUSH2 0xFF PUSH1 0x20 SHL PUSH1 0x20 SHR JUMP JUMPDEST POP DUP1 PUSH1 0x2 PUSH0 PUSH2 0x100 EXP DUP2 SLOAD DUP2 PUSH20 0xFFFFFFFFFFFFFFFFFFFFFFFFFFFFFFFFFFFFFFFF MUL NOT AND SWAP1 DUP4 PUSH20 0xFFFFFFFFFFFFFFFFFFFFFFFFFFFFFFFFFFFFFFFF AND MUL OR SWAP1 SSTORE POP POP PUSH2 0x284 JUMP JUMPDEST PUSH0 PUSH1 0x1 PUSH0 SWAP1 SLOAD SWAP1 PUSH2 0x100 EXP SWAP1 DIV PUSH20 0xFFFFFFFFFFFFFFFFFFFFFFFFFFFFFFFFFFFFFFFF AND SWAP1 POP DUP2 PUSH1 0x1 PUSH0 PUSH2 0x100 EXP DUP2 SLOAD DUP2 PUSH20 0xFFFFFFFFFFFFFFFFFFFFFFFFFFFFFFFFFFFFFFFF MUL NOT AND SWAP1 DUP4 PUSH20 0xFFFFFFFFFFFFFFFFFFFFFFFFFFFFFFFFFFFFFFFF AND MUL OR SWAP1 SSTORE POP DUP2 PUSH20 0xFFFFFFFFFFFFFFFFFFFFFFFFFFFFFFFFFFFFFFFF AND DUP2 PUSH20 0xFFFFFFFFFFFFFFFFFFFFFFFFFFFFFFFFFFFFFFFF AND PUSH32 0x8BE0079C531659141344CD1FD0A4F28419497F9722A3DAAFE3B4186F6B6457E0 PUSH1 0x40 MLOAD PUSH1 0x40 MLOAD DUP1 SWAP2 SUB SWAP1 LOG3 POP POP JUMP JUMPDEST PUSH0 DUP1 REVERT JUMPDEST PUSH0 PUSH20 0xFFFFFFFFFFFFFFFFFFFFFFFFFFFFFFFFFFFFFFFF DUP3 AND SWAP1 POP SWAP2 SWAP1 POP JUMP JUMPDEST PUSH0 PUSH2 0x1EF DUP3 PUSH2 0x1C6 JUMP JUMPDEST SWAP1 POP SWAP2 SWAP1 POP JUMP JUMPDEST PUSH0 PUSH2 0x200 DUP3 PUSH2 0x1E5 JUMP JUMPDEST SWAP1 POP SWAP2 SWAP1 POP JUMP JUMPDEST PUSH2 0x210 DUP2 PUSH2 0x1F6 JUMP JUMPDEST DUP2 EQ PUSH2 0x21A JUMPI PUSH0 DUP1 REVERT JUMPDEST POP JUMP JUMPDEST PUSH0 DUP2 MLOAD SWAP1 POP PUSH2 0x22B DUP2 PUSH2 0x207 JUMP JUMPDEST SWAP3 SWAP2 POP POP JUMP JUMPDEST PUSH0 PUSH1 0x20 DUP3 DUP5 SUB SLT ISZERO PUSH2 0x246 JUMPI PUSH2 0x245 PUSH2 0x1C2 JUMP JUMPDEST JUMPDEST PUSH0 PUSH2 0x253 DUP5 DUP3 DUP6 ADD PUSH2 0x21D JUMP JUMPDEST SWAP2 POP POP SWAP3 SWAP2 POP POP JUMP JUMPDEST PUSH2 0x265 DUP2 PUSH2 0x1E5 JUMP JUMPDEST DUP3 MSTORE POP POP JUMP JUMPDEST PUSH0 PUSH1 0x20 DUP3 ADD SWAP1 POP PUSH2 0x27E PUSH0 DUP4 ADD DUP5 PUSH2 0x25C JUMP JUMPDEST SWAP3 SWAP2 POP POP JUMP JUMPDEST PUSH2 0xFB3 DUP1 PUSH2 0x291 PUSH0 CODECOPY PUSH0 RETURN INVALID PUSH1 0x80 PUSH1 0x40 MSTORE CALLVALUE DUP1 ISZERO PUSH2 0xF JUMPI PUSH0 DUP1 REVERT JUMPDEST POP PUSH1 0x4 CALLDATASIZE LT PUSH2 0x9C JUMPI PUSH0 CALLDATALOAD PUSH1 0xE0 SHR DUP1 PUSH4 0x817B1CD2 GT PUSH2 0x64 JUMPI DUP1 PUSH4 0x817B1CD2 EQ PUSH2 0x10C JUMPI DUP1 PUSH4 0x821460F5 EQ PUSH2 0x12A JUMPI DUP1 PUSH4 0x8DA5CB5B EQ PUSH2 0x15B JUMPI DUP1 PUSH4 0xF2FDE38B EQ PUSH2 0x179 JUMPI DUP1 PUSH4 0xFC0E3D90 EQ PUSH2 0x195 JUMPI PUSH2 0x9C JUMP JUMPDEST DUP1 PUSH4 0x3CCFD60B EQ PUSH2 0xA0 JUMPI DUP1 PUSH4 0x715018A6 EQ PUSH2 0xAA JUMPI DUP1 PUSH4 0x72F702F3 EQ PUSH2 0xB4 JUMPI DUP1 PUSH4 0x7B0472F0 EQ PUSH2 0xD2 JUMPI DUP1 PUSH4 0x7BC74225 EQ PUSH2 0xEE JUMPI JUMPDEST PUSH0 DUP1 REVERT JUMPDEST PUSH2 0xA8 PUSH2 0x1B4 JUMP JUMPDEST STOP JUMPDEST PUSH2 0xB2 PUSH2 0x467 JUMP JUMPDEST STOP JUMPDEST PUSH2 0xBC PUSH2 0x47A JUMP JUMPDEST PUSH1 0x40 MLOAD PUSH2 0xC9 SWAP2 SWAP1 PUSH2 0xAAB JUMP JUMPDEST PUSH1 0x40 MLOAD DUP1 SWAP2 SUB SWAP1 RETURN JUMPDEST PUSH2 0xEC PUSH1 0x4 DUP1 CALLDATASIZE SUB DUP2 ADD SWAP1 PUSH2 0xE7 SWAP2 SWAP1 PUSH2 0xAFB JUMP JUMPDEST PUSH2 0x49F JUMP JUMPDEST STOP JUMPDEST PUSH2 0xF6 PUSH2 0x75B JUMP JUMPDEST PUSH1 0x40 MLOAD PUSH2 0x103 SWAP2 SWAP1 PUSH2 0xB48 JUMP JUMPDEST PUSH1 0x40 MLOAD DUP1 SWAP2 SUB SWAP1 RETURN JUMPDEST PUSH2 0x114 PUSH2 0x764 JUMP JUMPDEST PUSH1 0x40 MLOAD PUSH2 0x121 SWAP2 SWAP1 PUSH2 0xB48 JUMP JUMPDEST PUSH1 0x40 MLOAD DUP1 SWAP2 SUB SWAP1 RETURN JUMPDEST PUSH2 0x144 PUSH1 0x4 DUP1 CALLDATASIZE SUB DUP2 ADD SWAP1 PUSH2 0x13F SWAP2 SWAP1 PUSH2 0xB9C JUMP JUMPDEST PUSH2 0x76A JUMP JUMPDEST PUSH1 0x40 MLOAD PUSH2 0x152 SWAP3 SWAP2 SWAP1 PUSH2 0xBC7 JUMP JUMPDEST PUSH1 0x40 MLOAD DUP1 SWAP2 SUB SWAP1 RETURN JUMPDEST PUSH2 0x163 PUSH2 0x78A JUMP JUMPDEST PUSH1 0x40 MLOAD PUSH2 0x170 SWAP2 SWAP1 PUSH2 0xBFD JUMP JUMPDEST PUSH1 0x40 MLOAD DUP1 SWAP2 SUB SWAP1 RETURN JUMPDEST PUSH2 0x193 PUSH1 0x4 DUP1 CALLDATASIZE SUB DUP2 ADD SWAP1 PUSH2 0x18E SWAP2 SWAP1 PUSH2 0xB9C JUMP JUMPDEST PUSH2 0x7B2 JUMP JUMPDEST STOP JUMPDEST PUSH2 0x19D PUSH2 0x836 JUMP JUMPDEST PUSH1 0x40 MLOAD PUSH2 0x1AB SWAP3 SWAP2 SWAP1 PUSH2 0xBC7 JUMP JUMPDEST PUSH1 0x40 MLOAD DUP1 SWAP2 SUB SWAP1 RETURN JUMPDEST PUSH2 0x1BC PUSH2 0x88A JUMP JUMPDEST PUSH0 PUSH1 0x4 PUSH0 CALLER PUSH20 0xFFFFFFFFFFFFFFFFFFFFFFFFFFFFFFFFFFFFFFFF AND PUSH20 0xFFFFFFFFFFFFFFFFFFFFFFFFFFFFFFFFFFFFFFFF AND DUP2 MSTORE PUSH1 0x20 ADD SWAP1 DUP2 MSTORE PUSH1 0x20 ADD PUSH0 KECCAK256 PUSH1 0x40 MLOAD DUP1 PUSH1 0x40 ADD PUSH1 0x40 MSTORE SWAP1 DUP2 PUSH0 DUP3 ADD SLOAD DUP2 MSTORE PUSH1 0x20 ADD PUSH1 0x1 DUP3 ADD SLOAD DUP2 MSTORE POP POP SWAP1 POP PUSH0 DUP2 PUSH0 ADD MLOAD GT PUSH2 0x25F JUMPI PUSH1 0x40 MLOAD PUSH32 0x8C379A000000000000000000000000000000000000000000000000000000000 DUP2 MSTORE PUSH1 0x4 ADD PUSH2 0x256 SWAP1 PUSH2 0xC70 JUMP JUMPDEST PUSH1 0x40 MLOAD DUP1 SWAP2 SUB SWAP1 REVERT JUMPDEST TIMESTAMP DUP2 PUSH1 0x20 ADD MLOAD GT ISZERO PUSH2 0x2A6 JUMPI PUSH1 0x40 MLOAD PUSH32 0x8C379A000000000000000000000000000000000000000000000000000000000 DUP2 MSTORE PUSH1 0x4 ADD PUSH2 0x29D SWAP1 PUSH2 0xCD8 JUMP JUMPDEST PUSH1 0x40 MLOAD DUP1 SWAP2 SUB SWAP1 REVERT JUMPDEST PUSH0 PUSH1 0x2 PUSH0 SWAP1 SLOAD SWAP1 PUSH2 0x100 EXP SWAP1 DIV PUSH20 0xFFFFFFFFFFFFFFFFFFFFFFFFFFFFFFFFFFFFFFFF AND PUSH20 0xFFFFFFFFFFFFFFFFFFFFFFFFFFFFFFFFFFFFFFFF AND PUSH4 0xA9059CBB CALLER DUP5 PUSH0 ADD MLOAD PUSH1 0x40 MLOAD DUP4 PUSH4 0xFFFFFFFF AND PUSH1 0xE0 SHL DUP2 MSTORE PUSH1 0x4 ADD PUSH2 0x306 SWAP3 SWAP2 SWAP1 PUSH2 0xCF6 JUMP JUMPDEST PUSH1 0x20 PUSH1 0x40 MLOAD DUP1 DUP4 SUB DUP2 PUSH0 DUP8 GAS CALL ISZERO DUP1 ISZERO PUSH2 0x322 JUMPI RETURNDATASIZE PUSH0 DUP1 RETURNDATACOPY RETURNDATASIZE PUSH0 REVERT JUMPDEST POP POP POP POP PUSH1 0x40 MLOAD RETURNDATASIZE PUSH1 0x1F NOT PUSH1 0x1F DUP3 ADD AND DUP3 ADD DUP1 PUSH1 0x40 MSTORE POP DUP2 ADD SWAP1 PUSH2 0x346 SWAP2 SWAP1 PUSH2 0xD52 JUMP JUMPDEST SWAP1 POP DUP1 PUSH2 0x388 JUMPI PUSH1 0x40 MLOAD PUSH32 0x8C379A000000000000000000000000000000000000000000000000000000000 DUP2 MSTORE PUSH1 0x4 ADD PUSH2 0x37F SWAP1 PUSH2 0xDC7 JUMP JUMPDEST PUSH1 0x40 MLOAD DUP1 SWAP2 SUB SWAP1 REVERT JUMPDEST DUP2 PUSH0 ADD MLOAD PUSH1 0x3 PUSH0 DUP3 DUP3 SLOAD PUSH2 0x39C SWAP2 SWAP1 PUSH2 0xE12 JUMP JUMPDEST SWAP3 POP POP DUP2 SWAP1 SSTORE POP PUSH1 0x40 MLOAD DUP1 PUSH1 0x40 ADD PUSH1 0x40 MSTORE DUP1 PUSH0 DUP2 MSTORE PUSH1 0x20 ADD PUSH0 DUP2 MSTORE POP PUSH1 0x4 PUSH0 CALLER PUSH20 0xFFFFFFFFFFFFFFFFFFFFFFFFFFFFFFFFFFFFFFFF AND PUSH20 0xFFFFFFFFFFFFFFFFFFFFFFFFFFFFFFFFFFFFFFFF AND DUP2 MSTORE PUSH1 0x20 ADD SWAP1 DUP2 MSTORE PUSH1 0x20 ADD PUSH0 KECCAK256 PUSH0 DUP3 ADD MLOAD DUP2 PUSH0 ADD SSTORE PUSH1 0x20 DUP3 ADD MLOAD DUP2 PUSH1 0x1 ADD SSTORE SWAP1 POP POP CALLER PUSH20 0xFFFFFFFFFFFFFFFFFFFFFFFFFFFFFFFFFFFFFFFF AND PUSH32 0x7084F5476618D8E60B11EF0D7D3F06914655ADB8793E28FF7F018D4C76D505D5 DUP4 PUSH0 ADD MLOAD PUSH1 0x40 MLOAD PUSH2 0x453 SWAP2 SWAP1 PUSH2 0xB48 JUMP JUMPDEST PUSH1 0x40 MLOAD DUP1 SWAP2 SUB SWAP1 LOG2 POP POP PUSH2 0x465 PUSH2 0x8D7 JUMP JUMPDEST JUMP JUMPDEST PUSH2 0x46F PUSH2 0x8E0 JUMP JUMPDEST PUSH2 0x478 PUSH0 PUSH2 0x967 JUMP JUMPDEST JUMP JUMPDEST PUSH1 0x2 PUSH0 SWAP1 SLOAD SWAP1 PUSH2 0x100 EXP SWAP1 DIV PUSH20 0xFFFFFFFFFFFFFFFFFFFFFFFFFFFFFFFFFFFFFFFF AND DUP2 JUMP JUMPDEST PUSH2 0x4A7 PUSH2 0x88A JUMP JUMPDEST PUSH0 PUSH1 0x4 PUSH0 CALLER PUSH20 0xFFFFFFFFFFFFFFFFFFFFFFFFFFFFFFFFFFFFFFFF AND PUSH20 0xFFFFFFFFFFFFFFFFFFFFFFFFFFFFFFFFFFFFFFFF AND DUP2 MSTORE PUSH1 0x20 ADD SWAP1 DUP2 MSTORE PUSH1 0x20 ADD PUSH0 KECCAK256 PUSH0 ADD SLOAD EQ DUP1 ISZERO PUSH2 0x534 JUMPI POP PUSH0 PUSH1 0x4 PUSH0 CALLER PUSH20 0xFFFFFFFFFFFFFFFFFFFFFFFFFFFFFFFFFFFFFFFF AND PUSH20 0xFFFFFFFFFFFFFFFFFFFFFFFFFFFFFFFFFFFFFFFF AND DUP2 MSTORE PUSH1 0x20 ADD SWAP1 DUP2 MSTORE PUSH1 0x20 ADD PUSH0 KECCAK256 PUSH1 0x1 ADD SLOAD EQ JUMPDEST PUSH2 0x573 JUMPI PUSH1 0x40 MLOAD PUSH32 0x8C379A000000000000000000000000000000000000000000000000000000000 DUP2 MSTORE PUSH1 0x4 ADD PUSH2 0x56A SWAP1 PUSH2 0xE8F JUMP JUMPDEST PUSH1 0x40 MLOAD DUP1 SWAP2 SUB SWAP1 REVERT JUMPDEST DUP2 PUSH1 0x4 PUSH0 CALLER PUSH20 0xFFFFFFFFFFFFFFFFFFFFFFFFFFFFFFFFFFFFFFFF AND PUSH20 0xFFFFFFFFFFFFFFFFFFFFFFFFFFFFFFFFFFFFFFFF AND DUP2 MSTORE PUSH1 0x20 ADD SWAP1 DUP2 MSTORE PUSH1 0x20 ADD PUSH0 KECCAK256 PUSH0 ADD DUP2 SWAP1 SSTORE POP DUP1 TIMESTAMP PUSH2 0x5C3 SWAP2 SWAP1 PUSH2 0xEAD JUMP JUMPDEST PUSH1 0x4 PUSH0 CALLER PUSH20 0xFFFFFFFFFFFFFFFFFFFFFFFFFFFFFFFFFFFFFFFF AND PUSH20 0xFFFFFFFFFFFFFFFFFFFFFFFFFFFFFFFFFFFFFFFF AND DUP2 MSTORE PUSH1 0x20 ADD SWAP1 DUP2 MSTORE PUSH1 0x20 ADD PUSH0 KECCAK256 PUSH1 0x1 ADD DUP2 SWAP1 SSTORE POP PUSH0 PUSH1 0x2 PUSH0 SWAP1 SLOAD SWAP1 PUSH2 0x100 EXP SWAP1 DIV PUSH20 0xFFFFFFFFFFFFFFFFFFFFFFFFFFFFFFFFFFFFFFFF AND PUSH20 0xFFFFFFFFFFFFFFFFFFFFFFFFFFFFFFFFFFFFFFFF AND PUSH4 0x23B872DD CALLER ADDRESS DUP7 PUSH1 0x40 MLOAD DUP5 PUSH4 0xFFFFFFFF AND PUSH1 0xE0 SHL DUP2 MSTORE PUSH1 0x4 ADD PUSH2 0x666 SWAP4 SWAP3 SWAP2 SWAP1 PUSH2 0xEE0 JUMP JUMPDEST PUSH1 0x20 PUSH1 0x40 MLOAD DUP1 DUP4 SUB DUP2 PUSH0 DUP8 GAS CALL ISZERO DUP1 ISZERO PUSH2 0x682 JUMPI RETURNDATASIZE PUSH0 DUP1 RETURNDATACOPY RETURNDATASIZE PUSH0 REVERT JUMPDEST POP POP POP POP PUSH1 0x40 MLOAD RETURNDATASIZE PUSH1 0x1F NOT PUSH1 0x1F DUP3 ADD AND DUP3 ADD DUP1 PUSH1 0x40 MSTORE POP DUP2 ADD SWAP1 PUSH2 0x6A6 SWAP2 SWAP1 PUSH2 0xD52 JUMP JUMPDEST SWAP1 POP DUP1 PUSH2 0x6E8 JUMPI PUSH1 0x40 MLOAD PUSH32 0x8C379A000000000000000000000000000000000000000000000000000000000 DUP2 MSTORE PUSH1 0x4 ADD PUSH2 0x6DF SWAP1 PUSH2 0xDC7 JUMP JUMPDEST PUSH1 0x40 MLOAD DUP1 SWAP2 SUB SWAP1 REVERT JUMPDEST DUP3 PUSH1 0x3 PUSH0 DUP3 DUP3 SLOAD PUSH2 0x6F9 SWAP2 SWAP1 PUSH2 0xEAD JUMP JUMPDEST SWAP3 POP POP DUP2 SWAP1 SSTORE POP CALLER PUSH20 0xFFFFFFFFFFFFFFFFFFFFFFFFFFFFFFFFFFFFFFFF AND PUSH32 0x9E71BC8EEA02A63969F509818F2DAFB9254532904319F9DBDA79B67BD34A5F3D DUP5 PUSH1 0x40 MLOAD PUSH2 0x746 SWAP2 SWAP1 PUSH2 0xB48 JUMP JUMPDEST PUSH1 0x40 MLOAD DUP1 SWAP2 SUB SWAP1 LOG2 POP PUSH2 0x757 PUSH2 0x8D7 JUMP JUMPDEST POP POP JUMP JUMPDEST PUSH0 PUSH1 0x3 SLOAD SWAP1 POP SWAP1 JUMP JUMPDEST PUSH1 0x3 SLOAD DUP2 JUMP JUMPDEST PUSH1 0x4 PUSH1 0x20 MSTORE DUP1 PUSH0 MSTORE PUSH1 0x40 PUSH0 KECCAK256 PUSH0 SWAP2 POP SWAP1 POP DUP1 PUSH0 ADD SLOAD SWAP1 DUP1 PUSH1 0x1 ADD SLOAD SWAP1 POP DUP3 JUMP JUMPDEST PUSH0 PUSH1 0x1 PUSH0 SWAP1 SLOAD SWAP1 PUSH2 0x100 EXP SWAP1 DIV PUSH20 0xFFFFFFFFFFFFFFFFFFFFFFFFFFFFFFFFFFFFFFFF AND SWAP1 POP SWAP1 JUMP JUMPDEST PUSH2 0x7BA PUSH2 0x8E0 JUMP JUMPDEST PUSH0 PUSH20 0xFFFFFFFFFFFFFFFFFFFFFFFFFFFFFFFFFFFFFFFF AND DUP2 PUSH20 0xFFFFFFFFFFFFFFFFFFFFFFFFFFFFFFFFFFFFFFFF AND SUB PUSH2 0x82A JUMPI PUSH0 PUSH1 0x40 MLOAD PUSH32 0x1E4FBDF700000000000000000000000000000000000000000000000000000000 DUP2 MSTORE PUSH1 0x4 ADD PUSH2 0x821 SWAP2 SWAP1 PUSH2 0xBFD JUMP JUMPDEST PUSH1 0x40 MLOAD DUP1 SWAP2 SUB SWAP1 REVERT JUMPDEST PUSH2 0x833 DUP2 PUSH2 0x967 JUMP JUMPDEST POP JUMP JUMPDEST PUSH0 DUP1 PUSH0 PUSH1 0x4 PUSH0 CALLER PUSH20 0xFFFFFFFFFFFFFFFFFFFFFFFFFFFFFFFFFFFFFFFF AND PUSH20 0xFFFFFFFFFFFFFFFFFFFFFFFFFFFFFFFFFFFFFFFF AND DUP2 MSTORE PUSH1 0x20 ADD SWAP1 DUP2 MSTORE PUSH1 0x20 ADD PUSH0 KECCAK256 SWAP1 POP DUP1 PUSH0 ADD SLOAD DUP2 PUSH1 0x1 ADD SLOAD SWAP3 POP SWAP3 POP POP SWAP1 SWAP2 JUMP JUMPDEST PUSH1 0x2 PUSH0 SLOAD SUB PUSH2 0x8CE JUMPI PUSH1 0x40 MLOAD PUSH32 0x8C379A000000000000000000000000000000000000000000000000000000000 DUP2 MSTORE PUSH1 0x4 ADD PUSH2 0x8C5 SWAP1 PUSH2 0xF5F JUMP JUMPDEST PUSH1 0x40 MLOAD DUP1 SWAP2 SUB SWAP1 REVERT JUMPDEST PUSH1 0x2 PUSH0 DUP2 SWAP1 SSTORE POP JUMP JUMPDEST PUSH1 0x1 PUSH0 DUP2 SWAP1 SSTORE POP JUMP JUMPDEST PUSH2 0x8E8 PUSH2 0xA2A JUMP JUMPDEST PUSH20 0xFFFFFFFFFFFFFFFFFFFFFFFFFFFFFFFFFFFFFFFF AND PUSH2 0x906 PUSH2 0x78A JUMP JUMPDEST PUSH20 0xFFFFFFFFFFFFFFFFFFFFFFFFFFFFFFFFFFFFFFFF AND EQ PUSH2 0x965 JUMPI PUSH2 0x929 PUSH2 0xA2A JUMP JUMPDEST PUSH1 0x40 MLOAD PUSH32 0x118CDAA700000000000000000000000000000000000000000000000000000000 DUP2 MSTORE PUSH1 0x4 ADD PUSH2 0x95C SWAP2 SWAP1 PUSH2 0xBFD JUMP JUMPDEST PUSH1 0x40 MLOAD DUP1 SWAP2 SUB SWAP1 REVERT JUMPDEST JUMP JUMPDEST PUSH0 PUSH1 0x1 PUSH0 SWAP1 SLOAD SWAP1 PUSH2 0x100 EXP SWAP1 DIV PUSH20 0xFFFFFFFFFFFFFFFFFFFFFFFFFFFFFFFFFFFFFFFF AND SWAP1 POP DUP2 PUSH1 0x1 PUSH0 PUSH2 0x100 EXP DUP2 SLOAD DUP2 PUSH20 0xFFFFFFFFFFFFFFFFFFFFFFFFFFFFFFFFFFFFFFFF MUL NOT AND SWAP1 DUP4 PUSH20 0xFFFFFFFFFFFFFFFFFFFFFFFFFFFFFFFFFFFFFFFF AND MUL OR SWAP1 SSTORE POP DUP2 PUSH20 0xFFFFFFFFFFFFFFFFFFFFFFFFFFFFFFFFFFFFFFFF AND DUP2 PUSH20 0xFFFFFFFFFFFFFFFFFFFFFFFFFFFFFFFFFFFFFFFF AND PUSH32 0x8BE0079C531659141344CD1FD0A4F28419497F9722A3DAAFE3B4186F6B6457E0 PUSH1 0x40 MLOAD PUSH1 0x40 MLOAD DUP1 SWAP2 SUB SWAP1 LOG3 POP POP JUMP JUMPDEST PUSH0 CALLER SWAP1 POP SWAP1 JUMP JUMPDEST PUSH0 PUSH20 0xFFFFFFFFFFFFFFFFFFFFFFFFFFFFFFFFFFFFFFFF DUP3 AND SWAP1 POP SWAP2 SWAP1 POP JUMP JUMPDEST PUSH0 DUP2 SWAP1 POP SWAP2 SWAP1 POP JUMP JUMPDEST PUSH0 PUSH2 0xA73 PUSH2 0xA6E PUSH2 0xA69 DUP5 PUSH2 0xA31 JUMP JUMPDEST PUSH2 0xA50 JUMP JUMPDEST PUSH2 0xA31 JUMP JUMPDEST SWAP1 POP SWAP2 SWAP1 POP JUMP JUMPDEST PUSH0 PUSH2 0xA84 DUP3 PUSH2 0xA59 JUMP JUMPDEST SWAP1 POP SWAP2 SWAP1 POP JUMP JUMPDEST PUSH0 PUSH2 0xA95 DUP3 PUSH2 0xA7A JUMP JUMPDEST SWAP1 POP SWAP2 SWAP1 POP JUMP JUMPDEST PUSH2 0xAA5 DUP2 PUSH2 0xA8B JUMP JUMPDEST DUP3 MSTORE POP POP JUMP JUMPDEST PUSH0 PUSH1 0x20 DUP3 ADD SWAP1 POP PUSH2 0xABE PUSH0 DUP4 ADD DUP5 PUSH2 0xA9C JUMP JUMPDEST SWAP3 SWAP2 POP POP JUMP JUMPDEST PUSH0 DUP1 REVERT JUMPDEST PUSH0 DUP2 SWAP1 POP SWAP2 SWAP1 POP JUMP JUMPDEST PUSH2 0xADA DUP2 PUSH2 0xAC8 JUMP JUMPDEST DUP2 EQ PUSH2 0xAE4 JUMPI PUSH0 DUP1 REVERT JUMPDEST POP JUMP JUMPDEST PUSH0 DUP2 CALLDATALOAD SWAP1 POP PUSH2 0xAF5 DUP2 PUSH2 0xAD1 JUMP JUMPDEST SWAP3 SWAP2 POP POP JUMP JUMPDEST PUSH0 DUP1 PUSH1 0x40 DUP4 DUP6 SUB SLT ISZERO PUSH2 0xB11 JUMPI PUSH2 0xB10 PUSH2 0xAC4 JUMP JUMPDEST JUMPDEST PUSH0 PUSH2 0xB1E DUP6 DUP3 DUP7 ADD PUSH2 0xAE7 JUMP JUMPDEST SWAP3 POP POP PUSH1 0x20 PUSH2 0xB2F DUP6 DUP3 DUP7 ADD PUSH2 0xAE7 JUMP JUMPDEST SWAP2 POP POP SWAP3 POP SWAP3 SWAP1 POP JUMP JUMPDEST PUSH2 0xB42 DUP2 PUSH2 0xAC8 JUMP JUMPDEST DUP3 MSTORE POP POP JUMP JUMPDEST PUSH0 PUSH1 0x20 DUP3 ADD SWAP1 POP PUSH2 0xB5B PUSH0 DUP4 ADD DUP5 PUSH2 0xB39 JUMP JUMPDEST SWAP3 SWAP2 POP POP JUMP JUMPDEST PUSH0 PUSH2 0xB6B DUP3 PUSH2 0xA31 JUMP JUMPDEST SWAP1 POP SWAP2 SWAP1 POP JUMP JUMPDEST PUSH2 0xB7B DUP2 PUSH2 0xB61 JUMP JUMPDEST DUP2 EQ PUSH2 0xB85 JUMPI PUSH0 DUP1 REVERT JUMPDEST POP JUMP JUMPDEST PUSH0 DUP2 CALLDATALOAD SWAP1 POP PUSH2 0xB96 DUP2 PUSH2 0xB72 JUMP JUMPDEST SWAP3 SWAP2 POP POP JUMP JUMPDEST PUSH0 PUSH1 0x20 DUP3 DUP5 SUB SLT ISZERO PUSH2 0xBB1 JUMPI PUSH2 0xBB0 PUSH2 0xAC4 JUMP JUMPDEST JUMPDEST PUSH0 PUSH2 0xBBE DUP5 DUP3 DUP6 ADD PUSH2 0xB88 JUMP JUMPDEST SWAP2 POP POP SWAP3 SWAP2 POP POP JUMP JUMPDEST PUSH0 PUSH1 0x40 DUP3 ADD SWAP1 POP PUSH2 0xBDA PUSH0 DUP4 ADD DUP6 PUSH2 0xB39 JUMP JUMPDEST PUSH2 0xBE7 PUSH1 0x20 DUP4 ADD DUP5 PUSH2 0xB39 JUMP JUMPDEST SWAP4 SWAP3 POP POP POP JUMP JUMPDEST PUSH2 0xBF7 DUP2 PUSH2 0xB61 JUMP JUMPDEST DUP3 MSTORE POP POP JUMP JUMPDEST PUSH0 PUSH1 0x20 DUP3 ADD SWAP1 POP PUSH2 0xC10 PUSH0 DUP4 ADD DUP5 PUSH2 0xBEE JUMP JUMPDEST SWAP3 SWAP2 POP POP JUMP JUMPDEST PUSH0 DUP3 DUP3 MSTORE PUSH1 0x20 DUP3 ADD SWAP1 POP SWAP3 SWAP2 POP POP JUMP JUMPDEST PUSH32 0x43616E6E6F742077697468647261772030000000000000000000000000000000 PUSH0 DUP3 ADD MSTORE POP JUMP JUMPDEST PUSH0 PUSH2 0xC5A PUSH1 0x11 DUP4 PUSH2 0xC16 JUMP JUMPDEST SWAP2 POP PUSH2 0xC65 DUP3 PUSH2 0xC26 JUMP JUMPDEST PUSH1 0x20 DUP3 ADD SWAP1 POP SWAP2 SWAP1 POP JUMP JUMPDEST PUSH0 PUSH1 0x20 DUP3 ADD SWAP1 POP DUP2 DUP2 SUB PUSH0 DUP4 ADD MSTORE PUSH2 0xC87 DUP2 PUSH2 0xC4E JUMP JUMPDEST SWAP1 POP SWAP2 SWAP1 POP JUMP JUMPDEST PUSH32 0x546F6F206561726C792077697468647261772100000000000000000000000000 PUSH0 DUP3 ADD MSTORE POP JUMP JUMPDEST PUSH0 PUSH2 0xCC2 PUSH1 0x13 DUP4 PUSH2 0xC16 JUMP JUMPDEST SWAP2 POP PUSH2 0xCCD DUP3 PUSH2 0xC8E JUMP JUMPDEST PUSH1 0x20 DUP3 ADD SWAP1 POP SWAP2 SWAP1 POP JUMP JUMPDEST PUSH0 PUSH1 0x20 DUP3 ADD SWAP1 POP DUP2 DUP2 SUB PUSH0 DUP4 ADD MSTORE PUSH2 0xCEF DUP2 PUSH2 0xCB6 JUMP JUMPDEST SWAP1 POP SWAP2 SWAP1 POP JUMP JUMPDEST PUSH0 PUSH1 0x40 DUP3 ADD SWAP1 POP PUSH2 0xD09 PUSH0 DUP4 ADD DUP6 PUSH2 0xBEE JUMP JUMPDEST PUSH2 0xD16 PUSH1 0x20 DUP4 ADD DUP5 PUSH2 0xB39 JUMP JUMPDEST SWAP4 SWAP3 POP POP POP JUMP JUMPDEST PUSH0 DUP2 ISZERO ISZERO SWAP1 POP SWAP2 SWAP1 POP JUMP JUMPDEST PUSH2 0xD31 DUP2 PUSH2 0xD1D JUMP JUMPDEST DUP2 EQ PUSH2 0xD3B JUMPI PUSH0 DUP1 REVERT JUMPDEST POP JUMP JUMPDEST PUSH0 DUP2 MLOAD SWAP1 POP PUSH2 0xD4C DUP2 PUSH2 0xD28 JUMP JUMPDEST SWAP3 SWAP2 POP POP JUMP JUMPDEST PUSH0 PUSH1 0x20 DUP3 DUP5 SUB SLT ISZERO PUSH2 0xD67 JUMPI PUSH2 0xD66 PUSH2 0xAC4 JUMP JUMPDEST JUMPDEST PUSH0 PUSH2 0xD74 DUP5 DUP3 DUP6 ADD PUSH2 0xD3E JUMP JUMPDEST SWAP2 POP POP SWAP3 SWAP2 POP POP JUMP JUMPDEST PUSH32 0x5472616E73666572206661696C65640000000000000000000000000000000000 PUSH0 DUP3 ADD MSTORE POP JUMP JUMPDEST PUSH0 PUSH2 0xDB1 PUSH1 0xF DUP4 PUSH2 0xC16 JUMP JUMPDEST SWAP2 POP PUSH2 0xDBC DUP3 PUSH2 0xD7D JUMP JUMPDEST PUSH1 0x20 DUP3 ADD SWAP1 POP SWAP2 SWAP1 POP JUMP JUMPDEST PUSH0 PUSH1 0x20 DUP3 ADD SWAP1 POP DUP2 DUP2 SUB PUSH0 DUP4 ADD MSTORE PUSH2 0xDDE DUP2 PUSH2 0xDA5 JUMP JUMPDEST SWAP1 POP SWAP2 SWAP1 POP JUMP JUMPDEST PUSH32 0x4E487B7100000000000000000000000000000000000000000000000000000000 PUSH0 MSTORE PUSH1 0x11 PUSH1 0x4 MSTORE PUSH1 0x24 PUSH0 REVERT JUMPDEST PUSH0 PUSH2 0xE1C DUP3 PUSH2 0xAC8 JUMP JUMPDEST SWAP2 POP PUSH2 0xE27 DUP4 PUSH2 0xAC8 JUMP JUMPDEST SWAP3 POP DUP3 DUP3 SUB SWAP1 POP DUP2 DUP2 GT ISZERO PUSH2 0xE3F JUMPI PUSH2 0xE3E PUSH2 0xDE5 JUMP JUMPDEST JUMPDEST SWAP3 SWAP2 POP POP JUMP JUMPDEST PUSH32 0x7573657220616C72656164792068617320737461636B696E6700000000000000 PUSH0 DUP3 ADD MSTORE POP JUMP JUMPDEST PUSH0 PUSH2 0xE79 PUSH1 0x19 DUP4 PUSH2 0xC16 JUMP JUMPDEST SWAP2 POP PUSH2 0xE84 DUP3 PUSH2 0xE45 JUMP JUMPDEST PUSH1 0x20 DUP3 ADD SWAP1 POP SWAP2 SWAP1 POP JUMP JUMPDEST PUSH0 PUSH1 0x20 DUP3 ADD SWAP1 POP DUP2 DUP2 SUB PUSH0 DUP4 ADD MSTORE PUSH2 0xEA6 DUP2 PUSH2 0xE6D JUMP JUMPDEST SWAP1 POP SWAP2 SWAP1 POP JUMP JUMPDEST PUSH0 PUSH2 0xEB7 DUP3 PUSH2 0xAC8 JUMP JUMPDEST SWAP2 POP PUSH2 0xEC2 DUP4 PUSH2 0xAC8 JUMP JUMPDEST SWAP3 POP DUP3 DUP3 ADD SWAP1 POP DUP1 DUP3 GT ISZERO PUSH2 0xEDA JUMPI PUSH2 0xED9 PUSH2 0xDE5 JUMP JUMPDEST JUMPDEST SWAP3 SWAP2 POP POP JUMP JUMPDEST PUSH0 PUSH1 0x60 DUP3 ADD SWAP1 POP PUSH2 0xEF3 PUSH0 DUP4 ADD DUP7 PUSH2 0xBEE JUMP JUMPDEST PUSH2 0xF00 PUSH1 0x20 DUP4 ADD DUP6 PUSH2 0xBEE JUMP JUMPDEST PUSH2 0xF0D PUSH1 0x40 DUP4 ADD DUP5 PUSH2 0xB39 JUMP JUMPDEST SWAP5 SWAP4 POP POP POP POP JUMP JUMPDEST PUSH32 0x5265656E7472616E637947756172643A207265656E7472616E742063616C6C00 PUSH0 DUP3 ADD MSTORE POP JUMP JUMPDEST PUSH0 PUSH2 0xF49 PUSH1 0x1F DUP4 PUSH2 0xC16 JUMP JUMPDEST SWAP2 POP PUSH2 0xF54 DUP3 PUSH2 0xF15 JUMP JUMPDEST PUSH1 0x20 DUP3 ADD SWAP1 POP SWAP2 SWAP1 POP JUMP JUMPDEST PUSH0 PUSH1 0x20 DUP3 ADD SWAP1 POP DUP2 DUP2 SUB PUSH0 DUP4 ADD MSTORE PUSH2 0xF76 DUP2 PUSH2 0xF3D JUMP JUMPDEST SWAP1 POP SWAP2 SWAP1 POP JUMP INVALID LOG2 PUSH5 0x6970667358 0x22 SLT KECCAK256 0xB2 0xE0 0xA8 0xAB BALANCE PUSH7 0x4ACEE5026BA650 DUP1 POP 0xA9 0xEE 0x2D PUSH24 0x47A04BE281FBDFC437788AADC464736F6C634300081A0033 "
				},
				"gasEstimates": {
					"creation": {
						"codeDepositCost": "803800",
						"executionCost": "infinite",
						"totalCost": "infinite"
					},
					"external": {
						"getStake()": "infinite",
						"getTotalStake()": "2521",
						"owner()": "2559",
						"renounceOwnership()": "infinite",
						"stake(uint256,uint256)": "infinite",
						"stakingToken()": "infinite",
						"totalStaked()": "2425",
						"transferOwnership(address)": "infinite",
						"userStaking(address)": "infinite",
						"withdraw()": "infinite"
					}
				},
				"methodIdentifiers": {
					"getStake()": "fc0e3d90",
					"getTotalStake()": "7bc74225",
					"owner()": "8da5cb5b",
					"renounceOwnership()": "715018a6",
					"stake(uint256,uint256)": "7b0472f0",
					"stakingToken()": "72f702f3",
					"totalStaked()": "817b1cd2",
					"transferOwnership(address)": "f2fde38b",
					"userStaking(address)": "821460f5",
					"withdraw()": "3ccfd60b"
				}
			},
			"storageLayout": {
				"storage": [
					{
						"astId": 158,
						"contract": "stack_contract.sol:StakingContract",
						"label": "_status",
						"offset": 0,
						"slot": "0",
						"type": "t_uint256"
					},
					{
						"astId": 8,
						"contract": "stack_contract.sol:StakingContract",
						"label": "_owner",
						"offset": 0,
						"slot": "1",
						"type": "t_address"
					},
					{
						"astId": 332,
						"contract": "stack_contract.sol:StakingContract",
						"label": "stakingToken",
						"offset": 0,
						"slot": "2",
						"type": "t_contract(IERC20)290"
					},
					{
						"astId": 334,
						"contract": "stack_contract.sol:StakingContract",
						"label": "totalStaked",
						"offset": 0,
						"slot": "3",
						"type": "t_uint256"
					},
					{
						"astId": 339,
						"contract": "stack_contract.sol:StakingContract",
						"label": "userStaking",
						"offset": 0,
						"slot": "4",
						"type": "t_mapping(t_address,t_struct(Stake)344_storage)"
					}
				],
				"types": {
					"t_address": {
						"encoding": "inplace",
						"label": "address",
						"numberOfBytes": "20"
					},
					"t_contract(IERC20)290": {
						"encoding": "inplace",
						"label": "contract IERC20",
						"numberOfBytes": "20"
					},
					"t_mapping(t_address,t_struct(Stake)344_storage)": {
						"encoding": "mapping",
						"key": "t_address",
						"label": "mapping(address => struct StakingContract.Stake)",
						"numberOfBytes": "32",
						"value": "t_struct(Stake)344_storage"
					},
					"t_struct(Stake)344_storage": {
						"encoding": "inplace",
						"label": "struct StakingContract.Stake",
						"members": [
							{
								"astId": 341,
								"contract": "stack_contract.sol:StakingContract",
								"label": "stakedAmount",
								"offset": 0,
								"slot": "0",
								"type": "t_uint256"
							},
							{
								"astId": 343,
								"contract": "stack_contract.sol:StakingContract",
								"label": "withdrawDate",
								"offset": 0,
								"slot": "1",
								"type": "t_uint256"
							}
						],
						"numberOfBytes": "64"
					},
					"t_uint256": {
						"encoding": "inplace",
						"label": "uint256",
						"numberOfBytes": "32"
					}
				}
			},
			"userdoc": {
				"kind": "user",
				"methods": {},
				"version": 1
			}
		}
	}
}