{
	"stack_contract.sol": {
		"StakingContract": {
			"abi": [
				{
					"inputs": [
						{
							"internalType": "contract IERC20",
							"name": "_stakingToken",
							"type": "address"
						}
					],
					"stateMutability": "nonpayable",
					"type": "constructor"
				},
				{
					"inputs": [
						{
							"internalType": "address",
							"name": "owner",
							"type": "address"
						}
					],
					"name": "OwnableInvalidOwner",
					"type": "error"
				},
				{
					"inputs": [
						{
							"internalType": "address",
							"name": "account",
							"type": "address"
						}
					],
					"name": "OwnableUnauthorizedAccount",
					"type": "error"
				},
				{
					"anonymous": false,
					"inputs": [
						{
							"indexed": true,
							"internalType": "address",
							"name": "previousOwner",
							"type": "address"
						},
						{
							"indexed": true,
							"internalType": "address",
							"name": "newOwner",
							"type": "address"
						}
					],
					"name": "OwnershipTransferred",
					"type": "event"
				},
				{
					"anonymous": false,
					"inputs": [
						{
							"indexed": true,
							"internalType": "address",
							"name": "user",
							"type": "address"
						},
						{
							"indexed": false,
							"internalType": "uint256",
							"name": "amount",
							"type": "uint256"
						}
					],
					"name": "Staked",
					"type": "event"
				},
				{
					"anonymous": false,
					"inputs": [
						{
							"indexed": true,
							"internalType": "address",
							"name": "user",
							"type": "address"
						},
						{
							"indexed": false,
							"internalType": "uint256",
							"name": "amount",
							"type": "uint256"
						}
					],
					"name": "Withdrawn",
					"type": "event"
				},
				{
					"inputs": [],
					"name": "getStake",
					"outputs": [
						{
							"components": [
								{
									"internalType": "uint256",
									"name": "stakedAmount",
									"type": "uint256"
								},
								{
									"internalType": "uint256",
									"name": "withdrawDate",
									"type": "uint256"
								}
							],
							"internalType": "struct StakingContract.Stake[]",
							"name": "",
							"type": "tuple[]"
						}
					],
					"stateMutability": "view",
					"type": "function"
				},
				{
					"inputs": [],
					"name": "getTotalStake",
					"outputs": [
						{
							"internalType": "uint256",
							"name": "",
							"type": "uint256"
						}
					],
					"stateMutability": "view",
					"type": "function"
				},
				{
					"inputs": [],
					"name": "owner",
					"outputs": [
						{
							"internalType": "address",
							"name": "",
							"type": "address"
						}
					],
					"stateMutability": "view",
					"type": "function"
				},
				{
					"inputs": [],
					"name": "renounceOwnership",
					"outputs": [],
					"stateMutability": "nonpayable",
					"type": "function"
				},
				{
					"inputs": [
						{
							"internalType": "uint256",
							"name": "amount",
							"type": "uint256"
						},
						{
							"internalType": "uint256",
							"name": "period",
							"type": "uint256"
						}
					],
					"name": "stake",
					"outputs": [],
					"stateMutability": "nonpayable",
					"type": "function"
				},
				{
					"inputs": [],
					"name": "stakingToken",
					"outputs": [
						{
							"internalType": "contract IERC20",
							"name": "",
							"type": "address"
						}
					],
					"stateMutability": "view",
					"type": "function"
				},
				{
					"inputs": [],
					"name": "totalStaked",
					"outputs": [
						{
							"internalType": "uint256",
							"name": "",
							"type": "uint256"
						}
					],
					"stateMutability": "view",
					"type": "function"
				},
				{
					"inputs": [
						{
							"internalType": "address",
							"name": "newOwner",
							"type": "address"
						}
					],
					"name": "transferOwnership",
					"outputs": [],
					"stateMutability": "nonpayable",
					"type": "function"
				},
				{
					"inputs": [
						{
							"internalType": "address",
							"name": "",
							"type": "address"
						},
						{
							"internalType": "uint256",
							"name": "",
							"type": "uint256"
						}
					],
					"name": "userStaking",
					"outputs": [
						{
							"internalType": "uint256",
							"name": "stakedAmount",
							"type": "uint256"
						},
						{
							"internalType": "uint256",
							"name": "withdrawDate",
							"type": "uint256"
						}
					],
					"stateMutability": "view",
					"type": "function"
				},
				{
					"inputs": [],
					"name": "withdraw",
					"outputs": [],
					"stateMutability": "nonpayable",
					"type": "function"
				}
			],
			"devdoc": {
				"errors": {
					"OwnableInvalidOwner(address)": [
						{
							"details": "The owner is not a valid owner account. (eg. `address(0)`)"
						}
					],
					"OwnableUnauthorizedAccount(address)": [
						{
							"details": "The caller account is not authorized to perform an operation."
						}
					]
				},
				"kind": "dev",
				"methods": {
					"owner()": {
						"details": "Returns the address of the current owner."
					},
					"renounceOwnership()": {
						"details": "Leaves the contract without owner. It will not be possible to call `onlyOwner` functions. Can only be called by the current owner. NOTE: Renouncing ownership will leave the contract without an owner, thereby disabling any functionality that is only available to the owner."
					},
					"transferOwnership(address)": {
						"details": "Transfers ownership of the contract to a new account (`newOwner`). Can only be called by the current owner."
					}
				},
				"version": 1
			},
			"evm": {
				"assembly": "    /* \"stack_contract.sol\":232:2012  contract StakingContract is ReentrancyGuard, Ownable {... */\n  mstore(0x40, 0x80)\n    /* \"stack_contract.sol\":638:737  constructor(IERC20 _stakingToken) Ownable(msg.sender) {... */\n  callvalue\n  dup1\n  iszero\n  tag_1\n  jumpi\n  0x00\n  dup1\n  revert\ntag_1:\n  pop\n  mload(0x40)\n  sub(codesize, bytecodeSize)\n  dup1\n  bytecodeSize\n  dup4\n  codecopy\n  dup2\n  dup2\n  add\n  0x40\n  mstore\n  dup2\n  add\n  swap1\n  tag_2\n  swap2\n  swap1\n  tag_3\n  jump\t// in\ntag_2:\n    /* \"stack_contract.sol\":680:690  msg.sender */\n  caller\n    /* \"@openzeppelin/contracts/security/ReentrancyGuard.sol\":1716:1717  1 */\n  0x01\n    /* \"@openzeppelin/contracts/security/ReentrancyGuard.sol\":1821:1828  _status */\n  0x00\n    /* \"@openzeppelin/contracts/security/ReentrancyGuard.sol\":1821:1843  _status = _NOT_ENTERED */\n  dup2\n  swap1\n  sstore\n  pop\n    /* \"@openzeppelin/contracts/access/Ownable.sol\":1297:1298  0 */\n  0x00\n    /* \"@openzeppelin/contracts/access/Ownable.sol\":1273:1299  initialOwner == address(0) */\n  0xffffffffffffffffffffffffffffffffffffffff\n  and\n    /* \"@openzeppelin/contracts/access/Ownable.sol\":1273:1285  initialOwner */\n  dup2\n    /* \"@openzeppelin/contracts/access/Ownable.sol\":1273:1299  initialOwner == address(0) */\n  0xffffffffffffffffffffffffffffffffffffffff\n  and\n  sub\n    /* \"@openzeppelin/contracts/access/Ownable.sol\":1269:1364  if (initialOwner == address(0)) {... */\n  tag_9\n  jumpi\n    /* \"@openzeppelin/contracts/access/Ownable.sol\":1350:1351  0 */\n  0x00\n    /* \"@openzeppelin/contracts/access/Ownable.sol\":1322:1353  OwnableInvalidOwner(address(0)) */\n  mload(0x40)\n  0x1e4fbdf700000000000000000000000000000000000000000000000000000000\n  dup2\n  mstore\n  0x04\n  add\n  tag_10\n  swap2\n  swap1\n  tag_11\n  jump\t// in\ntag_10:\n  mload(0x40)\n  dup1\n  swap2\n  sub\n  swap1\n  revert\n    /* \"@openzeppelin/contracts/access/Ownable.sol\":1269:1364  if (initialOwner == address(0)) {... */\ntag_9:\n    /* \"@openzeppelin/contracts/access/Ownable.sol\":1373:1405  _transferOwnership(initialOwner) */\n  tag_12\n    /* \"@openzeppelin/contracts/access/Ownable.sol\":1392:1404  initialOwner */\n  dup2\n    /* \"@openzeppelin/contracts/access/Ownable.sol\":1373:1391  _transferOwnership */\n  shl(0x20, tag_13)\n    /* \"@openzeppelin/contracts/access/Ownable.sol\":1373:1405  _transferOwnership(initialOwner) */\n  0x20\n  shr\n  jump\t// in\ntag_12:\n    /* \"@openzeppelin/contracts/access/Ownable.sol\":1225:1412  constructor(address initialOwner) {... */\n  pop\n    /* \"stack_contract.sol\":717:730  _stakingToken */\n  dup1\n    /* \"stack_contract.sol\":702:714  stakingToken */\n  0x02\n  0x00\n    /* \"stack_contract.sol\":702:730  stakingToken = _stakingToken */\n  0x0100\n  exp\n  dup2\n  sload\n  dup2\n  0xffffffffffffffffffffffffffffffffffffffff\n  mul\n  not\n  and\n  swap1\n  dup4\n  0xffffffffffffffffffffffffffffffffffffffff\n  and\n  mul\n  or\n  swap1\n  sstore\n  pop\n    /* \"stack_contract.sol\":638:737  constructor(IERC20 _stakingToken) Ownable(msg.sender) {... */\n  pop\n    /* \"stack_contract.sol\":232:2012  contract StakingContract is ReentrancyGuard, Ownable {... */\n  jump(tag_15)\n    /* \"@openzeppelin/contracts/access/Ownable.sol\":2912:3099  function _transferOwnership(address newOwner) internal virtual {... */\ntag_13:\n    /* \"@openzeppelin/contracts/access/Ownable.sol\":2985:3001  address oldOwner */\n  0x00\n    /* \"@openzeppelin/contracts/access/Ownable.sol\":3004:3010  _owner */\n  0x01\n  0x00\n  swap1\n  sload\n  swap1\n  0x0100\n  exp\n  swap1\n  div\n  0xffffffffffffffffffffffffffffffffffffffff\n  and\n    /* \"@openzeppelin/contracts/access/Ownable.sol\":2985:3010  address oldOwner = _owner */\n  swap1\n  pop\n    /* \"@openzeppelin/contracts/access/Ownable.sol\":3029:3037  newOwner */\n  dup2\n    /* \"@openzeppelin/contracts/access/Ownable.sol\":3020:3026  _owner */\n  0x01\n  0x00\n    /* \"@openzeppelin/contracts/access/Ownable.sol\":3020:3037  _owner = newOwner */\n  0x0100\n  exp\n  dup2\n  sload\n  dup2\n  0xffffffffffffffffffffffffffffffffffffffff\n  mul\n  not\n  and\n  swap1\n  dup4\n  0xffffffffffffffffffffffffffffffffffffffff\n  and\n  mul\n  or\n  swap1\n  sstore\n  pop\n    /* \"@openzeppelin/contracts/access/Ownable.sol\":3083:3091  newOwner */\n  dup2\n    /* \"@openzeppelin/contracts/access/Ownable.sol\":3052:3092  OwnershipTransferred(oldOwner, newOwner) */\n  0xffffffffffffffffffffffffffffffffffffffff\n  and\n    /* \"@openzeppelin/contracts/access/Ownable.sol\":3073:3081  oldOwner */\n  dup2\n    /* \"@openzeppelin/contracts/access/Ownable.sol\":3052:3092  OwnershipTransferred(oldOwner, newOwner) */\n  0xffffffffffffffffffffffffffffffffffffffff\n  and\n  0x8be0079c531659141344cd1fd0a4f28419497f9722a3daafe3b4186f6b6457e0\n  mload(0x40)\n  mload(0x40)\n  dup1\n  swap2\n  sub\n  swap1\n  log3\n    /* \"@openzeppelin/contracts/access/Ownable.sol\":2975:3099  {... */\n  pop\n    /* \"@openzeppelin/contracts/access/Ownable.sol\":2912:3099  function _transferOwnership(address newOwner) internal virtual {... */\n  pop\n  jump\t// out\n    /* \"#utility.yul\":88:205   */\ntag_18:\n    /* \"#utility.yul\":197:198   */\n  0x00\n    /* \"#utility.yul\":194:195   */\n  dup1\n    /* \"#utility.yul\":187:199   */\n  revert\n    /* \"#utility.yul\":334:460   */\ntag_20:\n    /* \"#utility.yul\":371:378   */\n  0x00\n    /* \"#utility.yul\":411:453   */\n  0xffffffffffffffffffffffffffffffffffffffff\n    /* \"#utility.yul\":404:409   */\n  dup3\n    /* \"#utility.yul\":400:454   */\n  and\n    /* \"#utility.yul\":389:454   */\n  swap1\n  pop\n    /* \"#utility.yul\":334:460   */\n  swap2\n  swap1\n  pop\n  jump\t// out\n    /* \"#utility.yul\":466:562   */\ntag_21:\n    /* \"#utility.yul\":503:510   */\n  0x00\n    /* \"#utility.yul\":532:556   */\n  tag_32\n    /* \"#utility.yul\":550:555   */\n  dup3\n    /* \"#utility.yul\":532:556   */\n  tag_20\n  jump\t// in\ntag_32:\n    /* \"#utility.yul\":521:556   */\n  swap1\n  pop\n    /* \"#utility.yul\":466:562   */\n  swap2\n  swap1\n  pop\n  jump\t// out\n    /* \"#utility.yul\":568:678   */\ntag_22:\n    /* \"#utility.yul\":619:626   */\n  0x00\n    /* \"#utility.yul\":648:672   */\n  tag_34\n    /* \"#utility.yul\":666:671   */\n  dup3\n    /* \"#utility.yul\":648:672   */\n  tag_21\n  jump\t// in\ntag_34:\n    /* \"#utility.yul\":637:672   */\n  swap1\n  pop\n    /* \"#utility.yul\":568:678   */\n  swap2\n  swap1\n  pop\n  jump\t// out\n    /* \"#utility.yul\":684:834   */\ntag_23:\n    /* \"#utility.yul\":771:809   */\n  tag_36\n    /* \"#utility.yul\":803:808   */\n  dup2\n    /* \"#utility.yul\":771:809   */\n  tag_22\n  jump\t// in\ntag_36:\n    /* \"#utility.yul\":764:769   */\n  dup2\n    /* \"#utility.yul\":761:810   */\n  eq\n    /* \"#utility.yul\":751:828   */\n  tag_37\n  jumpi\n    /* \"#utility.yul\":824:825   */\n  0x00\n    /* \"#utility.yul\":821:822   */\n  dup1\n    /* \"#utility.yul\":814:826   */\n  revert\n    /* \"#utility.yul\":751:828   */\ntag_37:\n    /* \"#utility.yul\":684:834   */\n  pop\n  jump\t// out\n    /* \"#utility.yul\":840:1011   */\ntag_24:\n    /* \"#utility.yul\":911:916   */\n  0x00\n    /* \"#utility.yul\":942:948   */\n  dup2\n    /* \"#utility.yul\":936:949   */\n  mload\n    /* \"#utility.yul\":927:949   */\n  swap1\n  pop\n    /* \"#utility.yul\":958:1005   */\n  tag_39\n    /* \"#utility.yul\":999:1004   */\n  dup2\n    /* \"#utility.yul\":958:1005   */\n  tag_23\n  jump\t// in\ntag_39:\n    /* \"#utility.yul\":840:1011   */\n  swap3\n  swap2\n  pop\n  pop\n  jump\t// out\n    /* \"#utility.yul\":1017:1396   */\ntag_3:\n    /* \"#utility.yul\":1101:1107   */\n  0x00\n    /* \"#utility.yul\":1150:1152   */\n  0x20\n    /* \"#utility.yul\":1138:1147   */\n  dup3\n    /* \"#utility.yul\":1129:1136   */\n  dup5\n    /* \"#utility.yul\":1125:1148   */\n  sub\n    /* \"#utility.yul\":1121:1153   */\n  slt\n    /* \"#utility.yul\":1118:1237   */\n  iszero\n  tag_41\n  jumpi\n    /* \"#utility.yul\":1156:1235   */\n  tag_42\n  tag_18\n  jump\t// in\ntag_42:\n    /* \"#utility.yul\":1118:1237   */\ntag_41:\n    /* \"#utility.yul\":1276:1277   */\n  0x00\n    /* \"#utility.yul\":1301:1379   */\n  tag_43\n    /* \"#utility.yul\":1371:1378   */\n  dup5\n    /* \"#utility.yul\":1362:1368   */\n  dup3\n    /* \"#utility.yul\":1351:1360   */\n  dup6\n    /* \"#utility.yul\":1347:1369   */\n  add\n    /* \"#utility.yul\":1301:1379   */\n  tag_24\n  jump\t// in\ntag_43:\n    /* \"#utility.yul\":1291:1379   */\n  swap2\n  pop\n    /* \"#utility.yul\":1247:1389   */\n  pop\n    /* \"#utility.yul\":1017:1396   */\n  swap3\n  swap2\n  pop\n  pop\n  jump\t// out\n    /* \"#utility.yul\":1402:1520   */\ntag_25:\n    /* \"#utility.yul\":1489:1513   */\n  tag_45\n    /* \"#utility.yul\":1507:1512   */\n  dup2\n    /* \"#utility.yul\":1489:1513   */\n  tag_21\n  jump\t// in\ntag_45:\n    /* \"#utility.yul\":1484:1487   */\n  dup3\n    /* \"#utility.yul\":1477:1514   */\n  mstore\n    /* \"#utility.yul\":1402:1520   */\n  pop\n  pop\n  jump\t// out\n    /* \"#utility.yul\":1526:1748   */\ntag_11:\n    /* \"#utility.yul\":1619:1623   */\n  0x00\n    /* \"#utility.yul\":1657:1659   */\n  0x20\n    /* \"#utility.yul\":1646:1655   */\n  dup3\n    /* \"#utility.yul\":1642:1660   */\n  add\n    /* \"#utility.yul\":1634:1660   */\n  swap1\n  pop\n    /* \"#utility.yul\":1670:1741   */\n  tag_47\n    /* \"#utility.yul\":1738:1739   */\n  0x00\n    /* \"#utility.yul\":1727:1736   */\n  dup4\n    /* \"#utility.yul\":1723:1740   */\n  add\n    /* \"#utility.yul\":1714:1720   */\n  dup5\n    /* \"#utility.yul\":1670:1741   */\n  tag_25\n  jump\t// in\ntag_47:\n    /* \"#utility.yul\":1526:1748   */\n  swap3\n  swap2\n  pop\n  pop\n  jump\t// out\n    /* \"stack_contract.sol\":232:2012  contract StakingContract is ReentrancyGuard, Ownable {... */\ntag_15:\n  dataSize(sub_0)\n  dup1\n  dataOffset(sub_0)\n  0x00\n  codecopy\n  0x00\n  return\nstop\n\nsub_0: assembly {\n        /* \"stack_contract.sol\":232:2012  contract StakingContract is ReentrancyGuard, Ownable {... */\n      mstore(0x40, 0x80)\n      callvalue\n      dup1\n      iszero\n      tag_1\n      jumpi\n      0x00\n      dup1\n      revert\n    tag_1:\n      pop\n      jumpi(tag_2, lt(calldatasize, 0x04))\n      shr(0xe0, calldataload(0x00))\n      dup1\n      0x817b1cd2\n      gt\n      tag_13\n      jumpi\n      dup1\n      0x817b1cd2\n      eq\n      tag_8\n      jumpi\n      dup1\n      0x8da5cb5b\n      eq\n      tag_9\n      jumpi\n      dup1\n      0x90816302\n      eq\n      tag_10\n      jumpi\n      dup1\n      0xf2fde38b\n      eq\n      tag_11\n      jumpi\n      dup1\n      0xfc0e3d90\n      eq\n      tag_12\n      jumpi\n      jump(tag_2)\n    tag_13:\n      dup1\n      0x3ccfd60b\n      eq\n      tag_3\n      jumpi\n      dup1\n      0x715018a6\n      eq\n      tag_4\n      jumpi\n      dup1\n      0x72f702f3\n      eq\n      tag_5\n      jumpi\n      dup1\n      0x7b0472f0\n      eq\n      tag_6\n      jumpi\n      dup1\n      0x7bc74225\n      eq\n      tag_7\n      jumpi\n    tag_2:\n      0x00\n      dup1\n      revert\n        /* \"stack_contract.sol\":1360:2009  function withdraw() external nonReentrant {... */\n    tag_3:\n      tag_14\n      tag_15\n      jump\t// in\n    tag_14:\n      stop\n        /* \"@openzeppelin/contracts/access/Ownable.sol\":2293:2394  function renounceOwnership() public virtual onlyOwner {... */\n    tag_4:\n      tag_16\n      tag_17\n      jump\t// in\n    tag_16:\n      stop\n        /* \"stack_contract.sol\":292:318  IERC20 public stakingToken */\n    tag_5:\n      tag_18\n      tag_19\n      jump\t// in\n    tag_18:\n      mload(0x40)\n      tag_20\n      swap2\n      swap1\n      tag_21\n      jump\t// in\n    tag_20:\n      mload(0x40)\n      dup1\n      swap2\n      sub\n      swap1\n      return\n        /* \"stack_contract.sol\":747:1146  function stake(uint256 amount, uint256 period) external nonReentrant {... */\n    tag_6:\n      tag_22\n      0x04\n      dup1\n      calldatasize\n      sub\n      dup2\n      add\n      swap1\n      tag_23\n      swap2\n      swap1\n      tag_24\n      jump\t// in\n    tag_23:\n      tag_25\n      jump\t// in\n    tag_22:\n      stop\n        /* \"stack_contract.sol\":1261:1350  function getTotalStake() public view returns(uint256) {... */\n    tag_7:\n      tag_26\n      tag_27\n      jump\t// in\n    tag_26:\n      mload(0x40)\n      tag_28\n      swap2\n      swap1\n      tag_29\n      jump\t// in\n    tag_28:\n      mload(0x40)\n      dup1\n      swap2\n      sub\n      swap1\n      return\n        /* \"stack_contract.sol\":325:351  uint256 public totalStaked */\n    tag_8:\n      tag_30\n      tag_31\n      jump\t// in\n    tag_30:\n      mload(0x40)\n      tag_32\n      swap2\n      swap1\n      tag_29\n      jump\t// in\n    tag_32:\n      mload(0x40)\n      dup1\n      swap2\n      sub\n      swap1\n      return\n        /* \"@openzeppelin/contracts/access/Ownable.sol\":1638:1723  function owner() public view virtual returns (address) {... */\n    tag_9:\n      tag_33\n      tag_34\n      jump\t// in\n    tag_33:\n      mload(0x40)\n      tag_35\n      swap2\n      swap1\n      tag_36\n      jump\t// in\n    tag_35:\n      mload(0x40)\n      dup1\n      swap2\n      sub\n      swap1\n      return\n        /* \"stack_contract.sol\":362:408  mapping(address => Stake[]) public userStaking */\n    tag_10:\n      tag_37\n      0x04\n      dup1\n      calldatasize\n      sub\n      dup2\n      add\n      swap1\n      tag_38\n      swap2\n      swap1\n      tag_39\n      jump\t// in\n    tag_38:\n      tag_40\n      jump\t// in\n    tag_37:\n      mload(0x40)\n      tag_41\n      swap3\n      swap2\n      swap1\n      tag_42\n      jump\t// in\n    tag_41:\n      mload(0x40)\n      dup1\n      swap2\n      sub\n      swap1\n      return\n        /* \"@openzeppelin/contracts/access/Ownable.sol\":2543:2758  function transferOwnership(address newOwner) public virtual onlyOwner {... */\n    tag_11:\n      tag_43\n      0x04\n      dup1\n      calldatasize\n      sub\n      dup2\n      add\n      swap1\n      tag_44\n      swap2\n      swap1\n      tag_45\n      jump\t// in\n    tag_44:\n      tag_46\n      jump\t// in\n    tag_43:\n      stop\n        /* \"stack_contract.sol\":1152:1255  function getStake() public view returns(Stake[] memory) {... */\n    tag_12:\n      tag_47\n      tag_48\n      jump\t// in\n    tag_47:\n      mload(0x40)\n      tag_49\n      swap2\n      swap1\n      tag_50\n      jump\t// in\n    tag_49:\n      mload(0x40)\n      dup1\n      swap2\n      sub\n      swap1\n      return\n        /* \"stack_contract.sol\":1360:2009  function withdraw() external nonReentrant {... */\n    tag_15:\n        /* \"@openzeppelin/contracts/security/ReentrancyGuard.sol\":2261:2282  _nonReentrantBefore() */\n      tag_52\n        /* \"@openzeppelin/contracts/security/ReentrancyGuard.sol\":2261:2280  _nonReentrantBefore */\n      tag_53\n        /* \"@openzeppelin/contracts/security/ReentrancyGuard.sol\":2261:2282  _nonReentrantBefore() */\n      jump\t// in\n    tag_52:\n        /* \"stack_contract.sol\":1412:1436  Stake[] memory userStack */\n      0x00\n        /* \"stack_contract.sol\":1439:1450  userStaking */\n      0x04\n        /* \"stack_contract.sol\":1439:1462  userStaking[msg.sender] */\n      0x00\n        /* \"stack_contract.sol\":1451:1461  msg.sender */\n      caller\n        /* \"stack_contract.sol\":1439:1462  userStaking[msg.sender] */\n      0xffffffffffffffffffffffffffffffffffffffff\n      and\n      0xffffffffffffffffffffffffffffffffffffffff\n      and\n      dup2\n      mstore\n      0x20\n      add\n      swap1\n      dup2\n      mstore\n      0x20\n      add\n      0x00\n      keccak256\n        /* \"stack_contract.sol\":1412:1462  Stake[] memory userStack = userStaking[msg.sender] */\n      dup1\n      sload\n      dup1\n      0x20\n      mul\n      0x20\n      add\n      mload(0x40)\n      swap1\n      dup2\n      add\n      0x40\n      mstore\n      dup1\n      swap3\n      swap2\n      swap1\n      dup2\n      dup2\n      mstore\n      0x20\n      add\n      0x00\n      swap1\n    tag_55:\n      dup3\n      dup3\n      lt\n      iszero\n      tag_56\n      jumpi\n      dup4\n      dup3\n      swap1\n      0x00\n      mstore\n      keccak256(0x00, 0x20)\n      swap1\n      0x02\n      mul\n      add\n      mload(0x40)\n      dup1\n      0x40\n      add\n      0x40\n      mstore\n      swap1\n      dup2\n      0x00\n      dup3\n      add\n      sload\n      dup2\n      mstore\n      0x20\n      add\n      0x01\n      dup3\n      add\n      sload\n      dup2\n      mstore\n      pop\n      pop\n      dup2\n      mstore\n      0x20\n      add\n      swap1\n      0x01\n      add\n      swap1\n      jump(tag_55)\n    tag_56:\n      pop\n      pop\n      pop\n      pop\n      swap1\n      pop\n        /* \"stack_contract.sol\":1473:1494  uint256 unstackAmount */\n      0x00\n        /* \"stack_contract.sol\":1514:1520  uint i */\n      dup1\n        /* \"stack_contract.sol\":1509:1777  for (uint i = 0; i < userStack.length; i++) {... */\n    tag_58:\n        /* \"stack_contract.sol\":1530:1539  userStack */\n      dup3\n        /* \"stack_contract.sol\":1530:1546  userStack.length */\n      mload\n        /* \"stack_contract.sol\":1526:1527  i */\n      dup2\n        /* \"stack_contract.sol\":1526:1546  i < userStack.length */\n      lt\n        /* \"stack_contract.sol\":1509:1777  for (uint i = 0; i < userStack.length; i++) {... */\n      iszero\n      tag_59\n      jumpi\n        /* \"stack_contract.sol\":1599:1600  0 */\n      0x00\n        /* \"stack_contract.sol\":1571:1580  userStack */\n      dup4\n        /* \"stack_contract.sol\":1581:1582  i */\n      dup3\n        /* \"stack_contract.sol\":1571:1583  userStack[i] */\n      dup2\n      mload\n      dup2\n      lt\n      tag_61\n      jumpi\n      tag_62\n      tag_63\n      jump\t// in\n    tag_62:\n    tag_61:\n      0x20\n      mul\n      0x20\n      add\n      add\n      mload\n        /* \"stack_contract.sol\":1571:1596  userStack[i].withdrawDate */\n      0x20\n      add\n      mload\n        /* \"stack_contract.sol\":1571:1600  userStack[i].withdrawDate > 0 */\n      gt\n        /* \"stack_contract.sol\":1571:1633  userStack[i].withdrawDate > 0 && userStack[i].stakedAmount > 0 */\n      dup1\n      iszero\n      tag_64\n      jumpi\n      pop\n        /* \"stack_contract.sol\":1632:1633  0 */\n      0x00\n        /* \"stack_contract.sol\":1604:1613  userStack */\n      dup4\n        /* \"stack_contract.sol\":1614:1615  i */\n      dup3\n        /* \"stack_contract.sol\":1604:1616  userStack[i] */\n      dup2\n      mload\n      dup2\n      lt\n      tag_65\n      jumpi\n      tag_66\n      tag_63\n      jump\t// in\n    tag_66:\n    tag_65:\n      0x20\n      mul\n      0x20\n      add\n      add\n      mload\n        /* \"stack_contract.sol\":1604:1629  userStack[i].stakedAmount */\n      0x00\n      add\n      mload\n        /* \"stack_contract.sol\":1604:1633  userStack[i].stakedAmount > 0 */\n      gt\n        /* \"stack_contract.sol\":1571:1633  userStack[i].withdrawDate > 0 && userStack[i].stakedAmount > 0 */\n    tag_64:\n        /* \"stack_contract.sol\":1567:1767  if (userStack[i].withdrawDate > 0 && userStack[i].stakedAmount > 0){... */\n      iszero\n      tag_67\n      jumpi\n        /* \"stack_contract.sol\":1669:1678  userStack */\n      dup3\n        /* \"stack_contract.sol\":1679:1680  i */\n      dup2\n        /* \"stack_contract.sol\":1669:1681  userStack[i] */\n      dup2\n      mload\n      dup2\n      lt\n      tag_68\n      jumpi\n      tag_69\n      tag_63\n      jump\t// in\n    tag_69:\n    tag_68:\n      0x20\n      mul\n      0x20\n      add\n      add\n      mload\n        /* \"stack_contract.sol\":1669:1694  userStack[i].stakedAmount */\n      0x00\n      add\n      mload\n        /* \"stack_contract.sol\":1652:1694  unstackAmount += userStack[i].stakedAmount */\n      dup3\n      tag_70\n      swap2\n      swap1\n      tag_71\n      jump\t// in\n    tag_70:\n      swap2\n      pop\n        /* \"stack_contract.sol\":1741:1752  Stake(0, 0) */\n      mload(0x40)\n      dup1\n      0x40\n      add\n      0x40\n      mstore\n      dup1\n        /* \"stack_contract.sol\":1747:1748  0 */\n      0x00\n        /* \"stack_contract.sol\":1741:1752  Stake(0, 0) */\n      dup2\n      mstore\n      0x20\n      add\n        /* \"stack_contract.sol\":1750:1751  0 */\n      0x00\n        /* \"stack_contract.sol\":1741:1752  Stake(0, 0) */\n      dup2\n      mstore\n      pop\n        /* \"stack_contract.sol\":1712:1723  userStaking */\n      0x04\n        /* \"stack_contract.sol\":1712:1735  userStaking[msg.sender] */\n      0x00\n        /* \"stack_contract.sol\":1724:1734  msg.sender */\n      caller\n        /* \"stack_contract.sol\":1712:1735  userStaking[msg.sender] */\n      0xffffffffffffffffffffffffffffffffffffffff\n      and\n      0xffffffffffffffffffffffffffffffffffffffff\n      and\n      dup2\n      mstore\n      0x20\n      add\n      swap1\n      dup2\n      mstore\n      0x20\n      add\n      0x00\n      keccak256\n        /* \"stack_contract.sol\":1736:1737  i */\n      dup3\n        /* \"stack_contract.sol\":1712:1738  userStaking[msg.sender][i] */\n      dup2\n      sload\n      dup2\n      lt\n      tag_72\n      jumpi\n      tag_73\n      tag_63\n      jump\t// in\n    tag_73:\n    tag_72:\n      swap1\n      0x00\n      mstore\n      keccak256(0x00, 0x20)\n      swap1\n      0x02\n      mul\n      add\n        /* \"stack_contract.sol\":1712:1752  userStaking[msg.sender][i] = Stake(0, 0) */\n      0x00\n      dup3\n      add\n      mload\n      dup2\n      0x00\n      add\n      sstore\n      0x20\n      dup3\n      add\n      mload\n      dup2\n      0x01\n      add\n      sstore\n      swap1\n      pop\n      pop\n        /* \"stack_contract.sol\":1567:1767  if (userStack[i].withdrawDate > 0 && userStack[i].stakedAmount > 0){... */\n    tag_67:\n        /* \"stack_contract.sol\":1548:1551  i++ */\n      dup1\n      dup1\n      0x01\n      add\n      swap2\n      pop\n      pop\n        /* \"stack_contract.sol\":1509:1777  for (uint i = 0; i < userStack.length; i++) {... */\n      jump(tag_58)\n    tag_59:\n      pop\n        /* \"stack_contract.sol\":1795:1807  bool success */\n      0x00\n        /* \"stack_contract.sol\":1810:1822  stakingToken */\n      0x02\n      0x00\n      swap1\n      sload\n      swap1\n      0x0100\n      exp\n      swap1\n      div\n      0xffffffffffffffffffffffffffffffffffffffff\n      and\n        /* \"stack_contract.sol\":1810:1831  stakingToken.transfer */\n      0xffffffffffffffffffffffffffffffffffffffff\n      and\n      0xa9059cbb\n        /* \"stack_contract.sol\":1832:1842  msg.sender */\n      caller\n        /* \"stack_contract.sol\":1844:1857  unstackAmount */\n      dup5\n        /* \"stack_contract.sol\":1810:1858  stakingToken.transfer(msg.sender, unstackAmount) */\n      mload(0x40)\n      dup4\n      0xffffffff\n      and\n      0xe0\n      shl\n      dup2\n      mstore\n      0x04\n      add\n      tag_75\n      swap3\n      swap2\n      swap1\n      tag_76\n      jump\t// in\n    tag_75:\n      0x20\n      mload(0x40)\n      dup1\n      dup4\n      sub\n      dup2\n      0x00\n      dup8\n      gas\n      call\n      iszero\n      dup1\n      iszero\n      tag_78\n      jumpi\n      returndatasize\n      0x00\n      dup1\n      returndatacopy\n      revert(0x00, returndatasize)\n    tag_78:\n      pop\n      pop\n      pop\n      pop\n      mload(0x40)\n      returndatasize\n      not(0x1f)\n      0x1f\n      dup3\n      add\n      and\n      dup3\n      add\n      dup1\n      0x40\n      mstore\n      pop\n      dup2\n      add\n      swap1\n      tag_79\n      swap2\n      swap1\n      tag_80\n      jump\t// in\n    tag_79:\n        /* \"stack_contract.sol\":1795:1858  bool success = stakingToken.transfer(msg.sender, unstackAmount) */\n      swap1\n      pop\n        /* \"stack_contract.sol\":1876:1883  success */\n      dup1\n        /* \"stack_contract.sol\":1868:1903  require(success, \"Transfer failed\") */\n      tag_81\n      jumpi\n      mload(0x40)\n      0x08c379a000000000000000000000000000000000000000000000000000000000\n      dup2\n      mstore\n      0x04\n      add\n      tag_82\n      swap1\n      tag_83\n      jump\t// in\n    tag_82:\n      mload(0x40)\n      dup1\n      swap2\n      sub\n      swap1\n      revert\n    tag_81:\n        /* \"stack_contract.sol\":1929:1942  unstackAmount */\n      dup2\n        /* \"stack_contract.sol\":1914:1925  totalStaked */\n      0x03\n      0x00\n        /* \"stack_contract.sol\":1914:1942  totalStaked -= unstackAmount */\n      dup3\n      dup3\n      sload\n      tag_84\n      swap2\n      swap1\n      tag_85\n      jump\t// in\n    tag_84:\n      swap3\n      pop\n      pop\n      dup2\n      swap1\n      sstore\n      pop\n        /* \"stack_contract.sol\":1976:1986  msg.sender */\n      caller\n        /* \"stack_contract.sol\":1966:2002  Withdrawn(msg.sender, unstackAmount) */\n      0xffffffffffffffffffffffffffffffffffffffff\n      and\n      0x7084f5476618d8e60b11ef0d7d3f06914655adb8793e28ff7f018d4c76d505d5\n        /* \"stack_contract.sol\":1988:2001  unstackAmount */\n      dup4\n        /* \"stack_contract.sol\":1966:2002  Withdrawn(msg.sender, unstackAmount) */\n      mload(0x40)\n      tag_86\n      swap2\n      swap1\n      tag_29\n      jump\t// in\n    tag_86:\n      mload(0x40)\n      dup1\n      swap2\n      sub\n      swap1\n      log2\n        /* \"stack_contract.sol\":1402:2009  {... */\n      pop\n      pop\n      pop\n        /* \"@openzeppelin/contracts/security/ReentrancyGuard.sol\":2303:2323  _nonReentrantAfter() */\n      tag_87\n        /* \"@openzeppelin/contracts/security/ReentrancyGuard.sol\":2303:2321  _nonReentrantAfter */\n      tag_88\n        /* \"@openzeppelin/contracts/security/ReentrancyGuard.sol\":2303:2323  _nonReentrantAfter() */\n      jump\t// in\n    tag_87:\n        /* \"stack_contract.sol\":1360:2009  function withdraw() external nonReentrant {... */\n      jump\t// out\n        /* \"@openzeppelin/contracts/access/Ownable.sol\":2293:2394  function renounceOwnership() public virtual onlyOwner {... */\n    tag_17:\n        /* \"@openzeppelin/contracts/access/Ownable.sol\":1531:1544  _checkOwner() */\n      tag_90\n        /* \"@openzeppelin/contracts/access/Ownable.sol\":1531:1542  _checkOwner */\n      tag_91\n        /* \"@openzeppelin/contracts/access/Ownable.sol\":1531:1544  _checkOwner() */\n      jump\t// in\n    tag_90:\n        /* \"@openzeppelin/contracts/access/Ownable.sol\":2357:2387  _transferOwnership(address(0)) */\n      tag_93\n        /* \"@openzeppelin/contracts/access/Ownable.sol\":2384:2385  0 */\n      0x00\n        /* \"@openzeppelin/contracts/access/Ownable.sol\":2357:2375  _transferOwnership */\n      tag_94\n        /* \"@openzeppelin/contracts/access/Ownable.sol\":2357:2387  _transferOwnership(address(0)) */\n      jump\t// in\n    tag_93:\n        /* \"@openzeppelin/contracts/access/Ownable.sol\":2293:2394  function renounceOwnership() public virtual onlyOwner {... */\n      jump\t// out\n        /* \"stack_contract.sol\":292:318  IERC20 public stakingToken */\n    tag_19:\n      0x02\n      0x00\n      swap1\n      sload\n      swap1\n      0x0100\n      exp\n      swap1\n      div\n      0xffffffffffffffffffffffffffffffffffffffff\n      and\n      dup2\n      jump\t// out\n        /* \"stack_contract.sol\":747:1146  function stake(uint256 amount, uint256 period) external nonReentrant {... */\n    tag_25:\n        /* \"@openzeppelin/contracts/security/ReentrancyGuard.sol\":2261:2282  _nonReentrantBefore() */\n      tag_96\n        /* \"@openzeppelin/contracts/security/ReentrancyGuard.sol\":2261:2280  _nonReentrantBefore */\n      tag_53\n        /* \"@openzeppelin/contracts/security/ReentrancyGuard.sol\":2261:2282  _nonReentrantBefore() */\n      jump\t// in\n    tag_96:\n        /* \"stack_contract.sol\":826:847  Stake memory newStack */\n      0x00\n        /* \"stack_contract.sol\":850:889  Stake(amount, block.timestamp + period) */\n      mload(0x40)\n      dup1\n      0x40\n      add\n      0x40\n      mstore\n      dup1\n        /* \"stack_contract.sol\":856:862  amount */\n      dup5\n        /* \"stack_contract.sol\":850:889  Stake(amount, block.timestamp + period) */\n      dup2\n      mstore\n      0x20\n      add\n        /* \"stack_contract.sol\":882:888  period */\n      dup4\n        /* \"stack_contract.sol\":864:879  block.timestamp */\n      timestamp\n        /* \"stack_contract.sol\":864:888  block.timestamp + period */\n      tag_98\n      swap2\n      swap1\n      tag_71\n      jump\t// in\n    tag_98:\n        /* \"stack_contract.sol\":850:889  Stake(amount, block.timestamp + period) */\n      dup2\n      mstore\n      pop\n        /* \"stack_contract.sol\":826:889  Stake memory newStack = Stake(amount, block.timestamp + period) */\n      swap1\n      pop\n        /* \"stack_contract.sol\":899:910  userStaking */\n      0x04\n        /* \"stack_contract.sol\":899:922  userStaking[msg.sender] */\n      0x00\n        /* \"stack_contract.sol\":911:921  msg.sender */\n      caller\n        /* \"stack_contract.sol\":899:922  userStaking[msg.sender] */\n      0xffffffffffffffffffffffffffffffffffffffff\n      and\n      0xffffffffffffffffffffffffffffffffffffffff\n      and\n      dup2\n      mstore\n      0x20\n      add\n      swap1\n      dup2\n      mstore\n      0x20\n      add\n      0x00\n      keccak256\n        /* \"stack_contract.sol\":928:936  newStack */\n      dup2\n        /* \"stack_contract.sol\":899:937  userStaking[msg.sender].push(newStack) */\n      swap1\n      dup1\n      0x01\n      dup2\n      sload\n      add\n      dup1\n      dup3\n      sstore\n      dup1\n      swap2\n      pop\n      pop\n      0x01\n      swap1\n      sub\n      swap1\n      0x00\n      mstore\n      keccak256(0x00, 0x20)\n      swap1\n      0x02\n      mul\n      add\n      0x00\n      swap1\n      swap2\n      swap1\n      swap2\n      swap1\n      swap2\n      pop\n      0x00\n      dup3\n      add\n      mload\n      dup2\n      0x00\n      add\n      sstore\n      0x20\n      dup3\n      add\n      mload\n      dup2\n      0x01\n      add\n      sstore\n      pop\n      pop\n        /* \"stack_contract.sol\":947:959  bool success */\n      0x00\n        /* \"stack_contract.sol\":962:974  stakingToken */\n      0x02\n      0x00\n      swap1\n      sload\n      swap1\n      0x0100\n      exp\n      swap1\n      div\n      0xffffffffffffffffffffffffffffffffffffffff\n      and\n        /* \"stack_contract.sol\":962:987  stakingToken.transferFrom */\n      0xffffffffffffffffffffffffffffffffffffffff\n      and\n      0x23b872dd\n        /* \"stack_contract.sol\":988:998  msg.sender */\n      caller\n        /* \"stack_contract.sol\":1008:1012  this */\n      address\n        /* \"stack_contract.sol\":1015:1021  amount */\n      dup8\n        /* \"stack_contract.sol\":962:1022  stakingToken.transferFrom(msg.sender, address(this), amount) */\n      mload(0x40)\n      dup5\n      0xffffffff\n      and\n      0xe0\n      shl\n      dup2\n      mstore\n      0x04\n      add\n      tag_100\n      swap4\n      swap3\n      swap2\n      swap1\n      tag_101\n      jump\t// in\n    tag_100:\n      0x20\n      mload(0x40)\n      dup1\n      dup4\n      sub\n      dup2\n      0x00\n      dup8\n      gas\n      call\n      iszero\n      dup1\n      iszero\n      tag_103\n      jumpi\n      returndatasize\n      0x00\n      dup1\n      returndatacopy\n      revert(0x00, returndatasize)\n    tag_103:\n      pop\n      pop\n      pop\n      pop\n      mload(0x40)\n      returndatasize\n      not(0x1f)\n      0x1f\n      dup3\n      add\n      and\n      dup3\n      add\n      dup1\n      0x40\n      mstore\n      pop\n      dup2\n      add\n      swap1\n      tag_104\n      swap2\n      swap1\n      tag_80\n      jump\t// in\n    tag_104:\n        /* \"stack_contract.sol\":947:1022  bool success = stakingToken.transferFrom(msg.sender, address(this), amount) */\n      swap1\n      pop\n        /* \"stack_contract.sol\":1040:1047  success */\n      dup1\n        /* \"stack_contract.sol\":1032:1067  require(success, \"Transfer failed\") */\n      tag_105\n      jumpi\n      mload(0x40)\n      0x08c379a000000000000000000000000000000000000000000000000000000000\n      dup2\n      mstore\n      0x04\n      add\n      tag_106\n      swap1\n      tag_83\n      jump\t// in\n    tag_106:\n      mload(0x40)\n      dup1\n      swap2\n      sub\n      swap1\n      revert\n    tag_105:\n        /* \"stack_contract.sol\":1092:1098  amount */\n      dup4\n        /* \"stack_contract.sol\":1077:1088  totalStaked */\n      0x03\n      0x00\n        /* \"stack_contract.sol\":1077:1098  totalStaked += amount */\n      dup3\n      dup3\n      sload\n      tag_107\n      swap2\n      swap1\n      tag_71\n      jump\t// in\n    tag_107:\n      swap3\n      pop\n      pop\n      dup2\n      swap1\n      sstore\n      pop\n        /* \"stack_contract.sol\":1120:1130  msg.sender */\n      caller\n        /* \"stack_contract.sol\":1113:1139  Staked(msg.sender, amount) */\n      0xffffffffffffffffffffffffffffffffffffffff\n      and\n      0x9e71bc8eea02a63969f509818f2dafb9254532904319f9dbda79b67bd34a5f3d\n        /* \"stack_contract.sol\":1132:1138  amount */\n      dup6\n        /* \"stack_contract.sol\":1113:1139  Staked(msg.sender, amount) */\n      mload(0x40)\n      tag_108\n      swap2\n      swap1\n      tag_29\n      jump\t// in\n    tag_108:\n      mload(0x40)\n      dup1\n      swap2\n      sub\n      swap1\n      log2\n        /* \"stack_contract.sol\":816:1146  {... */\n      pop\n      pop\n        /* \"@openzeppelin/contracts/security/ReentrancyGuard.sol\":2303:2323  _nonReentrantAfter() */\n      tag_109\n        /* \"@openzeppelin/contracts/security/ReentrancyGuard.sol\":2303:2321  _nonReentrantAfter */\n      tag_88\n        /* \"@openzeppelin/contracts/security/ReentrancyGuard.sol\":2303:2323  _nonReentrantAfter() */\n      jump\t// in\n    tag_109:\n        /* \"stack_contract.sol\":747:1146  function stake(uint256 amount, uint256 period) external nonReentrant {... */\n      pop\n      pop\n      jump\t// out\n        /* \"stack_contract.sol\":1261:1350  function getTotalStake() public view returns(uint256) {... */\n    tag_27:\n        /* \"stack_contract.sol\":1306:1313  uint256 */\n      0x00\n        /* \"stack_contract.sol\":1332:1343  totalStaked */\n      sload(0x03)\n        /* \"stack_contract.sol\":1325:1343  return totalStaked */\n      swap1\n      pop\n        /* \"stack_contract.sol\":1261:1350  function getTotalStake() public view returns(uint256) {... */\n      swap1\n      jump\t// out\n        /* \"stack_contract.sol\":325:351  uint256 public totalStaked */\n    tag_31:\n      sload(0x03)\n      dup2\n      jump\t// out\n        /* \"@openzeppelin/contracts/access/Ownable.sol\":1638:1723  function owner() public view virtual returns (address) {... */\n    tag_34:\n        /* \"@openzeppelin/contracts/access/Ownable.sol\":1684:1691  address */\n      0x00\n        /* \"@openzeppelin/contracts/access/Ownable.sol\":1710:1716  _owner */\n      0x01\n      0x00\n      swap1\n      sload\n      swap1\n      0x0100\n      exp\n      swap1\n      div\n      0xffffffffffffffffffffffffffffffffffffffff\n      and\n        /* \"@openzeppelin/contracts/access/Ownable.sol\":1703:1716  return _owner */\n      swap1\n      pop\n        /* \"@openzeppelin/contracts/access/Ownable.sol\":1638:1723  function owner() public view virtual returns (address) {... */\n      swap1\n      jump\t// out\n        /* \"stack_contract.sol\":362:408  mapping(address => Stake[]) public userStaking */\n    tag_40:\n      mstore(0x20, 0x04)\n      dup2\n      0x00\n      mstore\n      keccak256(0x00, 0x40)\n      dup2\n      dup2\n      sload\n      dup2\n      lt\n      tag_112\n      jumpi\n      0x00\n      dup1\n      revert\n    tag_112:\n      swap1\n      0x00\n      mstore\n      keccak256(0x00, 0x20)\n      swap1\n      0x02\n      mul\n      add\n      0x00\n      swap2\n      pop\n      swap2\n      pop\n      pop\n      dup1\n      0x00\n      add\n      sload\n      swap1\n      dup1\n      0x01\n      add\n      sload\n      swap1\n      pop\n      dup3\n      jump\t// out\n        /* \"@openzeppelin/contracts/access/Ownable.sol\":2543:2758  function transferOwnership(address newOwner) public virtual onlyOwner {... */\n    tag_46:\n        /* \"@openzeppelin/contracts/access/Ownable.sol\":1531:1544  _checkOwner() */\n      tag_115\n        /* \"@openzeppelin/contracts/access/Ownable.sol\":1531:1542  _checkOwner */\n      tag_91\n        /* \"@openzeppelin/contracts/access/Ownable.sol\":1531:1544  _checkOwner() */\n      jump\t// in\n    tag_115:\n        /* \"@openzeppelin/contracts/access/Ownable.sol\":2647:2648  0 */\n      0x00\n        /* \"@openzeppelin/contracts/access/Ownable.sol\":2627:2649  newOwner == address(0) */\n      0xffffffffffffffffffffffffffffffffffffffff\n      and\n        /* \"@openzeppelin/contracts/access/Ownable.sol\":2627:2635  newOwner */\n      dup2\n        /* \"@openzeppelin/contracts/access/Ownable.sol\":2627:2649  newOwner == address(0) */\n      0xffffffffffffffffffffffffffffffffffffffff\n      and\n      sub\n        /* \"@openzeppelin/contracts/access/Ownable.sol\":2623:2714  if (newOwner == address(0)) {... */\n      tag_117\n      jumpi\n        /* \"@openzeppelin/contracts/access/Ownable.sol\":2700:2701  0 */\n      0x00\n        /* \"@openzeppelin/contracts/access/Ownable.sol\":2672:2703  OwnableInvalidOwner(address(0)) */\n      mload(0x40)\n      0x1e4fbdf700000000000000000000000000000000000000000000000000000000\n      dup2\n      mstore\n      0x04\n      add\n      tag_118\n      swap2\n      swap1\n      tag_36\n      jump\t// in\n    tag_118:\n      mload(0x40)\n      dup1\n      swap2\n      sub\n      swap1\n      revert\n        /* \"@openzeppelin/contracts/access/Ownable.sol\":2623:2714  if (newOwner == address(0)) {... */\n    tag_117:\n        /* \"@openzeppelin/contracts/access/Ownable.sol\":2723:2751  _transferOwnership(newOwner) */\n      tag_119\n        /* \"@openzeppelin/contracts/access/Ownable.sol\":2742:2750  newOwner */\n      dup2\n        /* \"@openzeppelin/contracts/access/Ownable.sol\":2723:2741  _transferOwnership */\n      tag_94\n        /* \"@openzeppelin/contracts/access/Ownable.sol\":2723:2751  _transferOwnership(newOwner) */\n      jump\t// in\n    tag_119:\n        /* \"@openzeppelin/contracts/access/Ownable.sol\":2543:2758  function transferOwnership(address newOwner) public virtual onlyOwner {... */\n      pop\n      jump\t// out\n        /* \"stack_contract.sol\":1152:1255  function getStake() public view returns(Stake[] memory) {... */\n    tag_48:\n        /* \"stack_contract.sol\":1192:1206  Stake[] memory */\n      0x60\n        /* \"stack_contract.sol\":1225:1236  userStaking */\n      0x04\n        /* \"stack_contract.sol\":1225:1248  userStaking[msg.sender] */\n      0x00\n        /* \"stack_contract.sol\":1237:1247  msg.sender */\n      caller\n        /* \"stack_contract.sol\":1225:1248  userStaking[msg.sender] */\n      0xffffffffffffffffffffffffffffffffffffffff\n      and\n      0xffffffffffffffffffffffffffffffffffffffff\n      and\n      dup2\n      mstore\n      0x20\n      add\n      swap1\n      dup2\n      mstore\n      0x20\n      add\n      0x00\n      keccak256\n        /* \"stack_contract.sol\":1218:1248  return userStaking[msg.sender] */\n      dup1\n      sload\n      dup1\n      0x20\n      mul\n      0x20\n      add\n      mload(0x40)\n      swap1\n      dup2\n      add\n      0x40\n      mstore\n      dup1\n      swap3\n      swap2\n      swap1\n      dup2\n      dup2\n      mstore\n      0x20\n      add\n      0x00\n      swap1\n    tag_121:\n      dup3\n      dup3\n      lt\n      iszero\n      tag_122\n      jumpi\n      dup4\n      dup3\n      swap1\n      0x00\n      mstore\n      keccak256(0x00, 0x20)\n      swap1\n      0x02\n      mul\n      add\n      mload(0x40)\n      dup1\n      0x40\n      add\n      0x40\n      mstore\n      swap1\n      dup2\n      0x00\n      dup3\n      add\n      sload\n      dup2\n      mstore\n      0x20\n      add\n      0x01\n      dup3\n      add\n      sload\n      dup2\n      mstore\n      pop\n      pop\n      dup2\n      mstore\n      0x20\n      add\n      swap1\n      0x01\n      add\n      swap1\n      jump(tag_121)\n    tag_122:\n      pop\n      pop\n      pop\n      pop\n      swap1\n      pop\n        /* \"stack_contract.sol\":1152:1255  function getStake() public view returns(Stake[] memory) {... */\n      swap1\n      jump\t// out\n        /* \"@openzeppelin/contracts/security/ReentrancyGuard.sol\":2336:2623  function _nonReentrantBefore() private {... */\n    tag_53:\n        /* \"@openzeppelin/contracts/security/ReentrancyGuard.sol\":1759:1760  2 */\n      0x02\n        /* \"@openzeppelin/contracts/security/ReentrancyGuard.sol\":2468:2475  _status */\n      sload(0x00)\n        /* \"@openzeppelin/contracts/security/ReentrancyGuard.sol\":2468:2487  _status != _ENTERED */\n      sub\n        /* \"@openzeppelin/contracts/security/ReentrancyGuard.sol\":2460:2523  require(_status != _ENTERED, \"ReentrancyGuard: reentrant call\") */\n      tag_125\n      jumpi\n      mload(0x40)\n      0x08c379a000000000000000000000000000000000000000000000000000000000\n      dup2\n      mstore\n      0x04\n      add\n      tag_126\n      swap1\n      tag_127\n      jump\t// in\n    tag_126:\n      mload(0x40)\n      dup1\n      swap2\n      sub\n      swap1\n      revert\n    tag_125:\n        /* \"@openzeppelin/contracts/security/ReentrancyGuard.sol\":1759:1760  2 */\n      0x02\n        /* \"@openzeppelin/contracts/security/ReentrancyGuard.sol\":2598:2605  _status */\n      0x00\n        /* \"@openzeppelin/contracts/security/ReentrancyGuard.sol\":2598:2616  _status = _ENTERED */\n      dup2\n      swap1\n      sstore\n      pop\n        /* \"@openzeppelin/contracts/security/ReentrancyGuard.sol\":2336:2623  function _nonReentrantBefore() private {... */\n      jump\t// out\n        /* \"@openzeppelin/contracts/security/ReentrancyGuard.sol\":2629:2838  function _nonReentrantAfter() private {... */\n    tag_88:\n        /* \"@openzeppelin/contracts/security/ReentrancyGuard.sol\":1716:1717  1 */\n      0x01\n        /* \"@openzeppelin/contracts/security/ReentrancyGuard.sol\":2809:2816  _status */\n      0x00\n        /* \"@openzeppelin/contracts/security/ReentrancyGuard.sol\":2809:2831  _status = _NOT_ENTERED */\n      dup2\n      swap1\n      sstore\n      pop\n        /* \"@openzeppelin/contracts/security/ReentrancyGuard.sol\":2629:2838  function _nonReentrantAfter() private {... */\n      jump\t// out\n        /* \"@openzeppelin/contracts/access/Ownable.sol\":1796:1958  function _checkOwner() internal view virtual {... */\n    tag_91:\n        /* \"@openzeppelin/contracts/access/Ownable.sol\":1866:1878  _msgSender() */\n      tag_130\n        /* \"@openzeppelin/contracts/access/Ownable.sol\":1866:1876  _msgSender */\n      tag_131\n        /* \"@openzeppelin/contracts/access/Ownable.sol\":1866:1878  _msgSender() */\n      jump\t// in\n    tag_130:\n        /* \"@openzeppelin/contracts/access/Ownable.sol\":1855:1878  owner() != _msgSender() */\n      0xffffffffffffffffffffffffffffffffffffffff\n      and\n        /* \"@openzeppelin/contracts/access/Ownable.sol\":1855:1862  owner() */\n      tag_132\n        /* \"@openzeppelin/contracts/access/Ownable.sol\":1855:1860  owner */\n      tag_34\n        /* \"@openzeppelin/contracts/access/Ownable.sol\":1855:1862  owner() */\n      jump\t// in\n    tag_132:\n        /* \"@openzeppelin/contracts/access/Ownable.sol\":1855:1878  owner() != _msgSender() */\n      0xffffffffffffffffffffffffffffffffffffffff\n      and\n      eq\n        /* \"@openzeppelin/contracts/access/Ownable.sol\":1851:1952  if (owner() != _msgSender()) {... */\n      tag_133\n      jumpi\n        /* \"@openzeppelin/contracts/access/Ownable.sol\":1928:1940  _msgSender() */\n      tag_134\n        /* \"@openzeppelin/contracts/access/Ownable.sol\":1928:1938  _msgSender */\n      tag_131\n        /* \"@openzeppelin/contracts/access/Ownable.sol\":1928:1940  _msgSender() */\n      jump\t// in\n    tag_134:\n        /* \"@openzeppelin/contracts/access/Ownable.sol\":1901:1941  OwnableUnauthorizedAccount(_msgSender()) */\n      mload(0x40)\n      0x118cdaa700000000000000000000000000000000000000000000000000000000\n      dup2\n      mstore\n      0x04\n      add\n      tag_135\n      swap2\n      swap1\n      tag_36\n      jump\t// in\n    tag_135:\n      mload(0x40)\n      dup1\n      swap2\n      sub\n      swap1\n      revert\n        /* \"@openzeppelin/contracts/access/Ownable.sol\":1851:1952  if (owner() != _msgSender()) {... */\n    tag_133:\n        /* \"@openzeppelin/contracts/access/Ownable.sol\":1796:1958  function _checkOwner() internal view virtual {... */\n      jump\t// out\n        /* \"@openzeppelin/contracts/access/Ownable.sol\":2912:3099  function _transferOwnership(address newOwner) internal virtual {... */\n    tag_94:\n        /* \"@openzeppelin/contracts/access/Ownable.sol\":2985:3001  address oldOwner */\n      0x00\n        /* \"@openzeppelin/contracts/access/Ownable.sol\":3004:3010  _owner */\n      0x01\n      0x00\n      swap1\n      sload\n      swap1\n      0x0100\n      exp\n      swap1\n      div\n      0xffffffffffffffffffffffffffffffffffffffff\n      and\n        /* \"@openzeppelin/contracts/access/Ownable.sol\":2985:3010  address oldOwner = _owner */\n      swap1\n      pop\n        /* \"@openzeppelin/contracts/access/Ownable.sol\":3029:3037  newOwner */\n      dup2\n        /* \"@openzeppelin/contracts/access/Ownable.sol\":3020:3026  _owner */\n      0x01\n      0x00\n        /* \"@openzeppelin/contracts/access/Ownable.sol\":3020:3037  _owner = newOwner */\n      0x0100\n      exp\n      dup2\n      sload\n      dup2\n      0xffffffffffffffffffffffffffffffffffffffff\n      mul\n      not\n      and\n      swap1\n      dup4\n      0xffffffffffffffffffffffffffffffffffffffff\n      and\n      mul\n      or\n      swap1\n      sstore\n      pop\n        /* \"@openzeppelin/contracts/access/Ownable.sol\":3083:3091  newOwner */\n      dup2\n        /* \"@openzeppelin/contracts/access/Ownable.sol\":3052:3092  OwnershipTransferred(oldOwner, newOwner) */\n      0xffffffffffffffffffffffffffffffffffffffff\n      and\n        /* \"@openzeppelin/contracts/access/Ownable.sol\":3073:3081  oldOwner */\n      dup2\n        /* \"@openzeppelin/contracts/access/Ownable.sol\":3052:3092  OwnershipTransferred(oldOwner, newOwner) */\n      0xffffffffffffffffffffffffffffffffffffffff\n      and\n      0x8be0079c531659141344cd1fd0a4f28419497f9722a3daafe3b4186f6b6457e0\n      mload(0x40)\n      mload(0x40)\n      dup1\n      swap2\n      sub\n      swap1\n      log3\n        /* \"@openzeppelin/contracts/access/Ownable.sol\":2975:3099  {... */\n      pop\n        /* \"@openzeppelin/contracts/access/Ownable.sol\":2912:3099  function _transferOwnership(address newOwner) internal virtual {... */\n      pop\n      jump\t// out\n        /* \"@openzeppelin/contracts/utils/Context.sol\":656:752  function _msgSender() internal view virtual returns (address) {... */\n    tag_131:\n        /* \"@openzeppelin/contracts/utils/Context.sol\":709:716  address */\n      0x00\n        /* \"@openzeppelin/contracts/utils/Context.sol\":735:745  msg.sender */\n      caller\n        /* \"@openzeppelin/contracts/utils/Context.sol\":728:745  return msg.sender */\n      swap1\n      pop\n        /* \"@openzeppelin/contracts/utils/Context.sol\":656:752  function _msgSender() internal view virtual returns (address) {... */\n      swap1\n      jump\t// out\n        /* \"#utility.yul\":7:133   */\n    tag_138:\n        /* \"#utility.yul\":44:51   */\n      0x00\n        /* \"#utility.yul\":84:126   */\n      0xffffffffffffffffffffffffffffffffffffffff\n        /* \"#utility.yul\":77:82   */\n      dup3\n        /* \"#utility.yul\":73:127   */\n      and\n        /* \"#utility.yul\":62:127   */\n      swap1\n      pop\n        /* \"#utility.yul\":7:133   */\n      swap2\n      swap1\n      pop\n      jump\t// out\n        /* \"#utility.yul\":139:199   */\n    tag_139:\n        /* \"#utility.yul\":167:170   */\n      0x00\n        /* \"#utility.yul\":188:193   */\n      dup2\n        /* \"#utility.yul\":181:193   */\n      swap1\n      pop\n        /* \"#utility.yul\":139:199   */\n      swap2\n      swap1\n      pop\n      jump\t// out\n        /* \"#utility.yul\":205:347   */\n    tag_140:\n        /* \"#utility.yul\":255:264   */\n      0x00\n        /* \"#utility.yul\":288:341   */\n      tag_176\n        /* \"#utility.yul\":306:340   */\n      tag_177\n        /* \"#utility.yul\":315:339   */\n      tag_178\n        /* \"#utility.yul\":333:338   */\n      dup5\n        /* \"#utility.yul\":315:339   */\n      tag_138\n      jump\t// in\n    tag_178:\n        /* \"#utility.yul\":306:340   */\n      tag_139\n      jump\t// in\n    tag_177:\n        /* \"#utility.yul\":288:341   */\n      tag_138\n      jump\t// in\n    tag_176:\n        /* \"#utility.yul\":275:341   */\n      swap1\n      pop\n        /* \"#utility.yul\":205:347   */\n      swap2\n      swap1\n      pop\n      jump\t// out\n        /* \"#utility.yul\":353:479   */\n    tag_141:\n        /* \"#utility.yul\":403:412   */\n      0x00\n        /* \"#utility.yul\":436:473   */\n      tag_180\n        /* \"#utility.yul\":467:472   */\n      dup3\n        /* \"#utility.yul\":436:473   */\n      tag_140\n      jump\t// in\n    tag_180:\n        /* \"#utility.yul\":423:473   */\n      swap1\n      pop\n        /* \"#utility.yul\":353:479   */\n      swap2\n      swap1\n      pop\n      jump\t// out\n        /* \"#utility.yul\":485:625   */\n    tag_142:\n        /* \"#utility.yul\":549:558   */\n      0x00\n        /* \"#utility.yul\":582:619   */\n      tag_182\n        /* \"#utility.yul\":613:618   */\n      dup3\n        /* \"#utility.yul\":582:619   */\n      tag_141\n      jump\t// in\n    tag_182:\n        /* \"#utility.yul\":569:619   */\n      swap1\n      pop\n        /* \"#utility.yul\":485:625   */\n      swap2\n      swap1\n      pop\n      jump\t// out\n        /* \"#utility.yul\":631:790   */\n    tag_143:\n        /* \"#utility.yul\":732:783   */\n      tag_184\n        /* \"#utility.yul\":777:782   */\n      dup2\n        /* \"#utility.yul\":732:783   */\n      tag_142\n      jump\t// in\n    tag_184:\n        /* \"#utility.yul\":727:730   */\n      dup3\n        /* \"#utility.yul\":720:784   */\n      mstore\n        /* \"#utility.yul\":631:790   */\n      pop\n      pop\n      jump\t// out\n        /* \"#utility.yul\":796:1046   */\n    tag_21:\n        /* \"#utility.yul\":903:907   */\n      0x00\n        /* \"#utility.yul\":941:943   */\n      0x20\n        /* \"#utility.yul\":930:939   */\n      dup3\n        /* \"#utility.yul\":926:944   */\n      add\n        /* \"#utility.yul\":918:944   */\n      swap1\n      pop\n        /* \"#utility.yul\":954:1039   */\n      tag_186\n        /* \"#utility.yul\":1036:1037   */\n      0x00\n        /* \"#utility.yul\":1025:1034   */\n      dup4\n        /* \"#utility.yul\":1021:1038   */\n      add\n        /* \"#utility.yul\":1012:1018   */\n      dup5\n        /* \"#utility.yul\":954:1039   */\n      tag_143\n      jump\t// in\n    tag_186:\n        /* \"#utility.yul\":796:1046   */\n      swap3\n      swap2\n      pop\n      pop\n      jump\t// out\n        /* \"#utility.yul\":1133:1250   */\n    tag_145:\n        /* \"#utility.yul\":1242:1243   */\n      0x00\n        /* \"#utility.yul\":1239:1240   */\n      dup1\n        /* \"#utility.yul\":1232:1244   */\n      revert\n        /* \"#utility.yul\":1379:1456   */\n    tag_147:\n        /* \"#utility.yul\":1416:1423   */\n      0x00\n        /* \"#utility.yul\":1445:1450   */\n      dup2\n        /* \"#utility.yul\":1434:1450   */\n      swap1\n      pop\n        /* \"#utility.yul\":1379:1456   */\n      swap2\n      swap1\n      pop\n      jump\t// out\n        /* \"#utility.yul\":1462:1584   */\n    tag_148:\n        /* \"#utility.yul\":1535:1559   */\n      tag_192\n        /* \"#utility.yul\":1553:1558   */\n      dup2\n        /* \"#utility.yul\":1535:1559   */\n      tag_147\n      jump\t// in\n    tag_192:\n        /* \"#utility.yul\":1528:1533   */\n      dup2\n        /* \"#utility.yul\":1525:1560   */\n      eq\n        /* \"#utility.yul\":1515:1578   */\n      tag_193\n      jumpi\n        /* \"#utility.yul\":1574:1575   */\n      0x00\n        /* \"#utility.yul\":1571:1572   */\n      dup1\n        /* \"#utility.yul\":1564:1576   */\n      revert\n        /* \"#utility.yul\":1515:1578   */\n    tag_193:\n        /* \"#utility.yul\":1462:1584   */\n      pop\n      jump\t// out\n        /* \"#utility.yul\":1590:1729   */\n    tag_149:\n        /* \"#utility.yul\":1636:1641   */\n      0x00\n        /* \"#utility.yul\":1674:1680   */\n      dup2\n        /* \"#utility.yul\":1661:1681   */\n      calldataload\n        /* \"#utility.yul\":1652:1681   */\n      swap1\n      pop\n        /* \"#utility.yul\":1690:1723   */\n      tag_195\n        /* \"#utility.yul\":1717:1722   */\n      dup2\n        /* \"#utility.yul\":1690:1723   */\n      tag_148\n      jump\t// in\n    tag_195:\n        /* \"#utility.yul\":1590:1729   */\n      swap3\n      swap2\n      pop\n      pop\n      jump\t// out\n        /* \"#utility.yul\":1735:2209   */\n    tag_24:\n        /* \"#utility.yul\":1803:1809   */\n      0x00\n        /* \"#utility.yul\":1811:1817   */\n      dup1\n        /* \"#utility.yul\":1860:1862   */\n      0x40\n        /* \"#utility.yul\":1848:1857   */\n      dup4\n        /* \"#utility.yul\":1839:1846   */\n      dup6\n        /* \"#utility.yul\":1835:1858   */\n      sub\n        /* \"#utility.yul\":1831:1863   */\n      slt\n        /* \"#utility.yul\":1828:1947   */\n      iszero\n      tag_197\n      jumpi\n        /* \"#utility.yul\":1866:1945   */\n      tag_198\n      tag_145\n      jump\t// in\n    tag_198:\n        /* \"#utility.yul\":1828:1947   */\n    tag_197:\n        /* \"#utility.yul\":1986:1987   */\n      0x00\n        /* \"#utility.yul\":2011:2064   */\n      tag_199\n        /* \"#utility.yul\":2056:2063   */\n      dup6\n        /* \"#utility.yul\":2047:2053   */\n      dup3\n        /* \"#utility.yul\":2036:2045   */\n      dup7\n        /* \"#utility.yul\":2032:2054   */\n      add\n        /* \"#utility.yul\":2011:2064   */\n      tag_149\n      jump\t// in\n    tag_199:\n        /* \"#utility.yul\":2001:2064   */\n      swap3\n      pop\n        /* \"#utility.yul\":1957:2074   */\n      pop\n        /* \"#utility.yul\":2113:2115   */\n      0x20\n        /* \"#utility.yul\":2139:2192   */\n      tag_200\n        /* \"#utility.yul\":2184:2191   */\n      dup6\n        /* \"#utility.yul\":2175:2181   */\n      dup3\n        /* \"#utility.yul\":2164:2173   */\n      dup7\n        /* \"#utility.yul\":2160:2182   */\n      add\n        /* \"#utility.yul\":2139:2192   */\n      tag_149\n      jump\t// in\n    tag_200:\n        /* \"#utility.yul\":2129:2192   */\n      swap2\n      pop\n        /* \"#utility.yul\":2084:2202   */\n      pop\n        /* \"#utility.yul\":1735:2209   */\n      swap3\n      pop\n      swap3\n      swap1\n      pop\n      jump\t// out\n        /* \"#utility.yul\":2215:2333   */\n    tag_150:\n        /* \"#utility.yul\":2302:2326   */\n      tag_202\n        /* \"#utility.yul\":2320:2325   */\n      dup2\n        /* \"#utility.yul\":2302:2326   */\n      tag_147\n      jump\t// in\n    tag_202:\n        /* \"#utility.yul\":2297:2300   */\n      dup3\n        /* \"#utility.yul\":2290:2327   */\n      mstore\n        /* \"#utility.yul\":2215:2333   */\n      pop\n      pop\n      jump\t// out\n        /* \"#utility.yul\":2339:2561   */\n    tag_29:\n        /* \"#utility.yul\":2432:2436   */\n      0x00\n        /* \"#utility.yul\":2470:2472   */\n      0x20\n        /* \"#utility.yul\":2459:2468   */\n      dup3\n        /* \"#utility.yul\":2455:2473   */\n      add\n        /* \"#utility.yul\":2447:2473   */\n      swap1\n      pop\n        /* \"#utility.yul\":2483:2554   */\n      tag_204\n        /* \"#utility.yul\":2551:2552   */\n      0x00\n        /* \"#utility.yul\":2540:2549   */\n      dup4\n        /* \"#utility.yul\":2536:2553   */\n      add\n        /* \"#utility.yul\":2527:2533   */\n      dup5\n        /* \"#utility.yul\":2483:2554   */\n      tag_150\n      jump\t// in\n    tag_204:\n        /* \"#utility.yul\":2339:2561   */\n      swap3\n      swap2\n      pop\n      pop\n      jump\t// out\n        /* \"#utility.yul\":2567:2663   */\n    tag_151:\n        /* \"#utility.yul\":2604:2611   */\n      0x00\n        /* \"#utility.yul\":2633:2657   */\n      tag_206\n        /* \"#utility.yul\":2651:2656   */\n      dup3\n        /* \"#utility.yul\":2633:2657   */\n      tag_138\n      jump\t// in\n    tag_206:\n        /* \"#utility.yul\":2622:2657   */\n      swap1\n      pop\n        /* \"#utility.yul\":2567:2663   */\n      swap2\n      swap1\n      pop\n      jump\t// out\n        /* \"#utility.yul\":2669:2787   */\n    tag_152:\n        /* \"#utility.yul\":2756:2780   */\n      tag_208\n        /* \"#utility.yul\":2774:2779   */\n      dup2\n        /* \"#utility.yul\":2756:2780   */\n      tag_151\n      jump\t// in\n    tag_208:\n        /* \"#utility.yul\":2751:2754   */\n      dup3\n        /* \"#utility.yul\":2744:2781   */\n      mstore\n        /* \"#utility.yul\":2669:2787   */\n      pop\n      pop\n      jump\t// out\n        /* \"#utility.yul\":2793:3015   */\n    tag_36:\n        /* \"#utility.yul\":2886:2890   */\n      0x00\n        /* \"#utility.yul\":2924:2926   */\n      0x20\n        /* \"#utility.yul\":2913:2922   */\n      dup3\n        /* \"#utility.yul\":2909:2927   */\n      add\n        /* \"#utility.yul\":2901:2927   */\n      swap1\n      pop\n        /* \"#utility.yul\":2937:3008   */\n      tag_210\n        /* \"#utility.yul\":3005:3006   */\n      0x00\n        /* \"#utility.yul\":2994:3003   */\n      dup4\n        /* \"#utility.yul\":2990:3007   */\n      add\n        /* \"#utility.yul\":2981:2987   */\n      dup5\n        /* \"#utility.yul\":2937:3008   */\n      tag_152\n      jump\t// in\n    tag_210:\n        /* \"#utility.yul\":2793:3015   */\n      swap3\n      swap2\n      pop\n      pop\n      jump\t// out\n        /* \"#utility.yul\":3021:3143   */\n    tag_153:\n        /* \"#utility.yul\":3094:3118   */\n      tag_212\n        /* \"#utility.yul\":3112:3117   */\n      dup2\n        /* \"#utility.yul\":3094:3118   */\n      tag_151\n      jump\t// in\n    tag_212:\n        /* \"#utility.yul\":3087:3092   */\n      dup2\n        /* \"#utility.yul\":3084:3119   */\n      eq\n        /* \"#utility.yul\":3074:3137   */\n      tag_213\n      jumpi\n        /* \"#utility.yul\":3133:3134   */\n      0x00\n        /* \"#utility.yul\":3130:3131   */\n      dup1\n        /* \"#utility.yul\":3123:3135   */\n      revert\n        /* \"#utility.yul\":3074:3137   */\n    tag_213:\n        /* \"#utility.yul\":3021:3143   */\n      pop\n      jump\t// out\n        /* \"#utility.yul\":3149:3288   */\n    tag_154:\n        /* \"#utility.yul\":3195:3200   */\n      0x00\n        /* \"#utility.yul\":3233:3239   */\n      dup2\n        /* \"#utility.yul\":3220:3240   */\n      calldataload\n        /* \"#utility.yul\":3211:3240   */\n      swap1\n      pop\n        /* \"#utility.yul\":3249:3282   */\n      tag_215\n        /* \"#utility.yul\":3276:3281   */\n      dup2\n        /* \"#utility.yul\":3249:3282   */\n      tag_153\n      jump\t// in\n    tag_215:\n        /* \"#utility.yul\":3149:3288   */\n      swap3\n      swap2\n      pop\n      pop\n      jump\t// out\n        /* \"#utility.yul\":3294:3768   */\n    tag_39:\n        /* \"#utility.yul\":3362:3368   */\n      0x00\n        /* \"#utility.yul\":3370:3376   */\n      dup1\n        /* \"#utility.yul\":3419:3421   */\n      0x40\n        /* \"#utility.yul\":3407:3416   */\n      dup4\n        /* \"#utility.yul\":3398:3405   */\n      dup6\n        /* \"#utility.yul\":3394:3417   */\n      sub\n        /* \"#utility.yul\":3390:3422   */\n      slt\n        /* \"#utility.yul\":3387:3506   */\n      iszero\n      tag_217\n      jumpi\n        /* \"#utility.yul\":3425:3504   */\n      tag_218\n      tag_145\n      jump\t// in\n    tag_218:\n        /* \"#utility.yul\":3387:3506   */\n    tag_217:\n        /* \"#utility.yul\":3545:3546   */\n      0x00\n        /* \"#utility.yul\":3570:3623   */\n      tag_219\n        /* \"#utility.yul\":3615:3622   */\n      dup6\n        /* \"#utility.yul\":3606:3612   */\n      dup3\n        /* \"#utility.yul\":3595:3604   */\n      dup7\n        /* \"#utility.yul\":3591:3613   */\n      add\n        /* \"#utility.yul\":3570:3623   */\n      tag_154\n      jump\t// in\n    tag_219:\n        /* \"#utility.yul\":3560:3623   */\n      swap3\n      pop\n        /* \"#utility.yul\":3516:3633   */\n      pop\n        /* \"#utility.yul\":3672:3674   */\n      0x20\n        /* \"#utility.yul\":3698:3751   */\n      tag_220\n        /* \"#utility.yul\":3743:3750   */\n      dup6\n        /* \"#utility.yul\":3734:3740   */\n      dup3\n        /* \"#utility.yul\":3723:3732   */\n      dup7\n        /* \"#utility.yul\":3719:3741   */\n      add\n        /* \"#utility.yul\":3698:3751   */\n      tag_149\n      jump\t// in\n    tag_220:\n        /* \"#utility.yul\":3688:3751   */\n      swap2\n      pop\n        /* \"#utility.yul\":3643:3761   */\n      pop\n        /* \"#utility.yul\":3294:3768   */\n      swap3\n      pop\n      swap3\n      swap1\n      pop\n      jump\t// out\n        /* \"#utility.yul\":3774:4106   */\n    tag_42:\n        /* \"#utility.yul\":3895:3899   */\n      0x00\n        /* \"#utility.yul\":3933:3935   */\n      0x40\n        /* \"#utility.yul\":3922:3931   */\n      dup3\n        /* \"#utility.yul\":3918:3936   */\n      add\n        /* \"#utility.yul\":3910:3936   */\n      swap1\n      pop\n        /* \"#utility.yul\":3946:4017   */\n      tag_222\n        /* \"#utility.yul\":4014:4015   */\n      0x00\n        /* \"#utility.yul\":4003:4012   */\n      dup4\n        /* \"#utility.yul\":3999:4016   */\n      add\n        /* \"#utility.yul\":3990:3996   */\n      dup6\n        /* \"#utility.yul\":3946:4017   */\n      tag_150\n      jump\t// in\n    tag_222:\n        /* \"#utility.yul\":4027:4099   */\n      tag_223\n        /* \"#utility.yul\":4095:4097   */\n      0x20\n        /* \"#utility.yul\":4084:4093   */\n      dup4\n        /* \"#utility.yul\":4080:4098   */\n      add\n        /* \"#utility.yul\":4071:4077   */\n      dup5\n        /* \"#utility.yul\":4027:4099   */\n      tag_150\n      jump\t// in\n    tag_223:\n        /* \"#utility.yul\":3774:4106   */\n      swap4\n      swap3\n      pop\n      pop\n      pop\n      jump\t// out\n        /* \"#utility.yul\":4112:4441   */\n    tag_45:\n        /* \"#utility.yul\":4171:4177   */\n      0x00\n        /* \"#utility.yul\":4220:4222   */\n      0x20\n        /* \"#utility.yul\":4208:4217   */\n      dup3\n        /* \"#utility.yul\":4199:4206   */\n      dup5\n        /* \"#utility.yul\":4195:4218   */\n      sub\n        /* \"#utility.yul\":4191:4223   */\n      slt\n        /* \"#utility.yul\":4188:4307   */\n      iszero\n      tag_225\n      jumpi\n        /* \"#utility.yul\":4226:4305   */\n      tag_226\n      tag_145\n      jump\t// in\n    tag_226:\n        /* \"#utility.yul\":4188:4307   */\n    tag_225:\n        /* \"#utility.yul\":4346:4347   */\n      0x00\n        /* \"#utility.yul\":4371:4424   */\n      tag_227\n        /* \"#utility.yul\":4416:4423   */\n      dup5\n        /* \"#utility.yul\":4407:4413   */\n      dup3\n        /* \"#utility.yul\":4396:4405   */\n      dup6\n        /* \"#utility.yul\":4392:4414   */\n      add\n        /* \"#utility.yul\":4371:4424   */\n      tag_154\n      jump\t// in\n    tag_227:\n        /* \"#utility.yul\":4361:4424   */\n      swap2\n      pop\n        /* \"#utility.yul\":4317:4434   */\n      pop\n        /* \"#utility.yul\":4112:4441   */\n      swap3\n      swap2\n      pop\n      pop\n      jump\t// out\n        /* \"#utility.yul\":4447:4583   */\n    tag_155:\n        /* \"#utility.yul\":4536:4542   */\n      0x00\n        /* \"#utility.yul\":4570:4575   */\n      dup2\n        /* \"#utility.yul\":4564:4576   */\n      mload\n        /* \"#utility.yul\":4554:4576   */\n      swap1\n      pop\n        /* \"#utility.yul\":4447:4583   */\n      swap2\n      swap1\n      pop\n      jump\t// out\n        /* \"#utility.yul\":4589:4795   */\n    tag_156:\n        /* \"#utility.yul\":4710:4721   */\n      0x00\n        /* \"#utility.yul\":4744:4750   */\n      dup3\n        /* \"#utility.yul\":4739:4742   */\n      dup3\n        /* \"#utility.yul\":4732:4751   */\n      mstore\n        /* \"#utility.yul\":4784:4788   */\n      0x20\n        /* \"#utility.yul\":4779:4782   */\n      dup3\n        /* \"#utility.yul\":4775:4789   */\n      add\n        /* \"#utility.yul\":4760:4789   */\n      swap1\n      pop\n        /* \"#utility.yul\":4589:4795   */\n      swap3\n      swap2\n      pop\n      pop\n      jump\t// out\n        /* \"#utility.yul\":4801:4955   */\n    tag_157:\n        /* \"#utility.yul\":4890:4894   */\n      0x00\n        /* \"#utility.yul\":4913:4916   */\n      dup2\n        /* \"#utility.yul\":4905:4916   */\n      swap1\n      pop\n        /* \"#utility.yul\":4943:4947   */\n      0x20\n        /* \"#utility.yul\":4938:4941   */\n      dup3\n        /* \"#utility.yul\":4934:4948   */\n      add\n        /* \"#utility.yul\":4926:4948   */\n      swap1\n      pop\n        /* \"#utility.yul\":4801:4955   */\n      swap2\n      swap1\n      pop\n      jump\t// out\n        /* \"#utility.yul\":4961:5069   */\n    tag_158:\n        /* \"#utility.yul\":5038:5062   */\n      tag_232\n        /* \"#utility.yul\":5056:5061   */\n      dup2\n        /* \"#utility.yul\":5038:5062   */\n      tag_147\n      jump\t// in\n    tag_232:\n        /* \"#utility.yul\":5033:5036   */\n      dup3\n        /* \"#utility.yul\":5026:5063   */\n      mstore\n        /* \"#utility.yul\":4961:5069   */\n      pop\n      pop\n      jump\t// out\n        /* \"#utility.yul\":5143:5650   */\n    tag_159:\n        /* \"#utility.yul\":5274:5278   */\n      0x40\n        /* \"#utility.yul\":5269:5272   */\n      dup3\n        /* \"#utility.yul\":5265:5279   */\n      add\n        /* \"#utility.yul\":5369:5373   */\n      0x00\n        /* \"#utility.yul\":5362:5367   */\n      dup3\n        /* \"#utility.yul\":5358:5374   */\n      add\n        /* \"#utility.yul\":5352:5375   */\n      mload\n        /* \"#utility.yul\":5388:5451   */\n      tag_234\n        /* \"#utility.yul\":5445:5449   */\n      0x00\n        /* \"#utility.yul\":5440:5443   */\n      dup6\n        /* \"#utility.yul\":5436:5450   */\n      add\n        /* \"#utility.yul\":5422:5434   */\n      dup3\n        /* \"#utility.yul\":5388:5451   */\n      tag_158\n      jump\t// in\n    tag_234:\n        /* \"#utility.yul\":5289:5461   */\n      pop\n        /* \"#utility.yul\":5551:5555   */\n      0x20\n        /* \"#utility.yul\":5544:5549   */\n      dup3\n        /* \"#utility.yul\":5540:5556   */\n      add\n        /* \"#utility.yul\":5534:5557   */\n      mload\n        /* \"#utility.yul\":5570:5633   */\n      tag_235\n        /* \"#utility.yul\":5627:5631   */\n      0x20\n        /* \"#utility.yul\":5622:5625   */\n      dup6\n        /* \"#utility.yul\":5618:5632   */\n      add\n        /* \"#utility.yul\":5604:5616   */\n      dup3\n        /* \"#utility.yul\":5570:5633   */\n      tag_158\n      jump\t// in\n    tag_235:\n        /* \"#utility.yul\":5471:5643   */\n      pop\n        /* \"#utility.yul\":5243:5650   */\n      pop\n        /* \"#utility.yul\":5143:5650   */\n      pop\n      pop\n      jump\t// out\n        /* \"#utility.yul\":5656:5923   */\n    tag_160:\n        /* \"#utility.yul\":5769:5779   */\n      0x00\n        /* \"#utility.yul\":5790:5880   */\n      tag_237\n        /* \"#utility.yul\":5876:5879   */\n      dup4\n        /* \"#utility.yul\":5868:5874   */\n      dup4\n        /* \"#utility.yul\":5790:5880   */\n      tag_159\n      jump\t// in\n    tag_237:\n        /* \"#utility.yul\":5912:5916   */\n      0x40\n        /* \"#utility.yul\":5907:5910   */\n      dup4\n        /* \"#utility.yul\":5903:5917   */\n      add\n        /* \"#utility.yul\":5889:5917   */\n      swap1\n      pop\n        /* \"#utility.yul\":5656:5923   */\n      swap3\n      swap2\n      pop\n      pop\n      jump\t// out\n        /* \"#utility.yul\":5929:6064   */\n    tag_161:\n        /* \"#utility.yul\":6021:6025   */\n      0x00\n        /* \"#utility.yul\":6053:6057   */\n      0x20\n        /* \"#utility.yul\":6048:6051   */\n      dup3\n        /* \"#utility.yul\":6044:6058   */\n      add\n        /* \"#utility.yul\":6036:6058   */\n      swap1\n      pop\n        /* \"#utility.yul\":5929:6064   */\n      swap2\n      swap1\n      pop\n      jump\t// out\n        /* \"#utility.yul\":6142:7050   */\n    tag_162:\n        /* \"#utility.yul\":6305:6308   */\n      0x00\n        /* \"#utility.yul\":6334:6410   */\n      tag_240\n        /* \"#utility.yul\":6404:6409   */\n      dup3\n        /* \"#utility.yul\":6334:6410   */\n      tag_155\n      jump\t// in\n    tag_240:\n        /* \"#utility.yul\":6426:6534   */\n      tag_241\n        /* \"#utility.yul\":6527:6533   */\n      dup2\n        /* \"#utility.yul\":6522:6525   */\n      dup6\n        /* \"#utility.yul\":6426:6534   */\n      tag_156\n      jump\t// in\n    tag_241:\n        /* \"#utility.yul\":6419:6534   */\n      swap4\n      pop\n        /* \"#utility.yul\":6558:6636   */\n      tag_242\n        /* \"#utility.yul\":6630:6635   */\n      dup4\n        /* \"#utility.yul\":6558:6636   */\n      tag_157\n      jump\t// in\n    tag_242:\n        /* \"#utility.yul\":6659:6666   */\n      dup1\n        /* \"#utility.yul\":6690:6691   */\n      0x00\n        /* \"#utility.yul\":6675:7025   */\n    tag_243:\n        /* \"#utility.yul\":6700:6706   */\n      dup4\n        /* \"#utility.yul\":6697:6698   */\n      dup2\n        /* \"#utility.yul\":6694:6707   */\n      lt\n        /* \"#utility.yul\":6675:7025   */\n      iszero\n      tag_245\n      jumpi\n        /* \"#utility.yul\":6776:6782   */\n      dup2\n        /* \"#utility.yul\":6770:6783   */\n      mload\n        /* \"#utility.yul\":6803:6910   */\n      tag_246\n        /* \"#utility.yul\":6906:6909   */\n      dup9\n        /* \"#utility.yul\":6891:6904   */\n      dup3\n        /* \"#utility.yul\":6803:6910   */\n      tag_160\n      jump\t// in\n    tag_246:\n        /* \"#utility.yul\":6796:6910   */\n      swap8\n      pop\n        /* \"#utility.yul\":6933:7015   */\n      tag_247\n        /* \"#utility.yul\":7008:7014   */\n      dup4\n        /* \"#utility.yul\":6933:7015   */\n      tag_161\n      jump\t// in\n    tag_247:\n        /* \"#utility.yul\":6923:7015   */\n      swap3\n      pop\n        /* \"#utility.yul\":6735:7025   */\n      pop\n        /* \"#utility.yul\":6722:6723   */\n      0x01\n        /* \"#utility.yul\":6719:6720   */\n      dup2\n        /* \"#utility.yul\":6715:6724   */\n      add\n        /* \"#utility.yul\":6710:6724   */\n      swap1\n      pop\n        /* \"#utility.yul\":6675:7025   */\n      jump(tag_243)\n    tag_245:\n        /* \"#utility.yul\":6679:6693   */\n      pop\n        /* \"#utility.yul\":7041:7044   */\n      dup6\n        /* \"#utility.yul\":7034:7044   */\n      swap4\n      pop\n        /* \"#utility.yul\":6310:7050   */\n      pop\n      pop\n      pop\n        /* \"#utility.yul\":6142:7050   */\n      swap3\n      swap2\n      pop\n      pop\n      jump\t// out\n        /* \"#utility.yul\":7056:7517   */\n    tag_50:\n        /* \"#utility.yul\":7243:7247   */\n      0x00\n        /* \"#utility.yul\":7281:7283   */\n      0x20\n        /* \"#utility.yul\":7270:7279   */\n      dup3\n        /* \"#utility.yul\":7266:7284   */\n      add\n        /* \"#utility.yul\":7258:7284   */\n      swap1\n      pop\n        /* \"#utility.yul\":7330:7339   */\n      dup2\n        /* \"#utility.yul\":7324:7328   */\n      dup2\n        /* \"#utility.yul\":7320:7340   */\n      sub\n        /* \"#utility.yul\":7316:7317   */\n      0x00\n        /* \"#utility.yul\":7305:7314   */\n      dup4\n        /* \"#utility.yul\":7301:7318   */\n      add\n        /* \"#utility.yul\":7294:7341   */\n      mstore\n        /* \"#utility.yul\":7358:7510   */\n      tag_249\n        /* \"#utility.yul\":7505:7509   */\n      dup2\n        /* \"#utility.yul\":7496:7502   */\n      dup5\n        /* \"#utility.yul\":7358:7510   */\n      tag_162\n      jump\t// in\n    tag_249:\n        /* \"#utility.yul\":7350:7510   */\n      swap1\n      pop\n        /* \"#utility.yul\":7056:7517   */\n      swap3\n      swap2\n      pop\n      pop\n      jump\t// out\n        /* \"#utility.yul\":7523:7703   */\n    tag_63:\n        /* \"#utility.yul\":7571:7648   */\n      0x4e487b7100000000000000000000000000000000000000000000000000000000\n        /* \"#utility.yul\":7568:7569   */\n      0x00\n        /* \"#utility.yul\":7561:7649   */\n      mstore\n        /* \"#utility.yul\":7668:7672   */\n      0x32\n        /* \"#utility.yul\":7665:7666   */\n      0x04\n        /* \"#utility.yul\":7658:7673   */\n      mstore\n        /* \"#utility.yul\":7692:7696   */\n      0x24\n        /* \"#utility.yul\":7689:7690   */\n      0x00\n        /* \"#utility.yul\":7682:7697   */\n      revert\n        /* \"#utility.yul\":7709:7889   */\n    tag_163:\n        /* \"#utility.yul\":7757:7834   */\n      0x4e487b7100000000000000000000000000000000000000000000000000000000\n        /* \"#utility.yul\":7754:7755   */\n      0x00\n        /* \"#utility.yul\":7747:7835   */\n      mstore\n        /* \"#utility.yul\":7854:7858   */\n      0x11\n        /* \"#utility.yul\":7851:7852   */\n      0x04\n        /* \"#utility.yul\":7844:7859   */\n      mstore\n        /* \"#utility.yul\":7878:7882   */\n      0x24\n        /* \"#utility.yul\":7875:7876   */\n      0x00\n        /* \"#utility.yul\":7868:7883   */\n      revert\n        /* \"#utility.yul\":7895:8086   */\n    tag_71:\n        /* \"#utility.yul\":7935:7938   */\n      0x00\n        /* \"#utility.yul\":7954:7974   */\n      tag_253\n        /* \"#utility.yul\":7972:7973   */\n      dup3\n        /* \"#utility.yul\":7954:7974   */\n      tag_147\n      jump\t// in\n    tag_253:\n        /* \"#utility.yul\":7949:7974   */\n      swap2\n      pop\n        /* \"#utility.yul\":7988:8008   */\n      tag_254\n        /* \"#utility.yul\":8006:8007   */\n      dup4\n        /* \"#utility.yul\":7988:8008   */\n      tag_147\n      jump\t// in\n    tag_254:\n        /* \"#utility.yul\":7983:8008   */\n      swap3\n      pop\n        /* \"#utility.yul\":8031:8032   */\n      dup3\n        /* \"#utility.yul\":8028:8029   */\n      dup3\n        /* \"#utility.yul\":8024:8033   */\n      add\n        /* \"#utility.yul\":8017:8033   */\n      swap1\n      pop\n        /* \"#utility.yul\":8052:8055   */\n      dup1\n        /* \"#utility.yul\":8049:8050   */\n      dup3\n        /* \"#utility.yul\":8046:8056   */\n      gt\n        /* \"#utility.yul\":8043:8079   */\n      iszero\n      tag_255\n      jumpi\n        /* \"#utility.yul\":8059:8077   */\n      tag_256\n      tag_163\n      jump\t// in\n    tag_256:\n        /* \"#utility.yul\":8043:8079   */\n    tag_255:\n        /* \"#utility.yul\":7895:8086   */\n      swap3\n      swap2\n      pop\n      pop\n      jump\t// out\n        /* \"#utility.yul\":8092:8424   */\n    tag_76:\n        /* \"#utility.yul\":8213:8217   */\n      0x00\n        /* \"#utility.yul\":8251:8253   */\n      0x40\n        /* \"#utility.yul\":8240:8249   */\n      dup3\n        /* \"#utility.yul\":8236:8254   */\n      add\n        /* \"#utility.yul\":8228:8254   */\n      swap1\n      pop\n        /* \"#utility.yul\":8264:8335   */\n      tag_258\n        /* \"#utility.yul\":8332:8333   */\n      0x00\n        /* \"#utility.yul\":8321:8330   */\n      dup4\n        /* \"#utility.yul\":8317:8334   */\n      add\n        /* \"#utility.yul\":8308:8314   */\n      dup6\n        /* \"#utility.yul\":8264:8335   */\n      tag_152\n      jump\t// in\n    tag_258:\n        /* \"#utility.yul\":8345:8417   */\n      tag_259\n        /* \"#utility.yul\":8413:8415   */\n      0x20\n        /* \"#utility.yul\":8402:8411   */\n      dup4\n        /* \"#utility.yul\":8398:8416   */\n      add\n        /* \"#utility.yul\":8389:8395   */\n      dup5\n        /* \"#utility.yul\":8345:8417   */\n      tag_150\n      jump\t// in\n    tag_259:\n        /* \"#utility.yul\":8092:8424   */\n      swap4\n      swap3\n      pop\n      pop\n      pop\n      jump\t// out\n        /* \"#utility.yul\":8430:8520   */\n    tag_164:\n        /* \"#utility.yul\":8464:8471   */\n      0x00\n        /* \"#utility.yul\":8507:8512   */\n      dup2\n        /* \"#utility.yul\":8500:8513   */\n      iszero\n        /* \"#utility.yul\":8493:8514   */\n      iszero\n        /* \"#utility.yul\":8482:8514   */\n      swap1\n      pop\n        /* \"#utility.yul\":8430:8520   */\n      swap2\n      swap1\n      pop\n      jump\t// out\n        /* \"#utility.yul\":8526:8642   */\n    tag_165:\n        /* \"#utility.yul\":8596:8617   */\n      tag_262\n        /* \"#utility.yul\":8611:8616   */\n      dup2\n        /* \"#utility.yul\":8596:8617   */\n      tag_164\n      jump\t// in\n    tag_262:\n        /* \"#utility.yul\":8589:8594   */\n      dup2\n        /* \"#utility.yul\":8586:8618   */\n      eq\n        /* \"#utility.yul\":8576:8636   */\n      tag_263\n      jumpi\n        /* \"#utility.yul\":8632:8633   */\n      0x00\n        /* \"#utility.yul\":8629:8630   */\n      dup1\n        /* \"#utility.yul\":8622:8634   */\n      revert\n        /* \"#utility.yul\":8576:8636   */\n    tag_263:\n        /* \"#utility.yul\":8526:8642   */\n      pop\n      jump\t// out\n        /* \"#utility.yul\":8648:8785   */\n    tag_166:\n        /* \"#utility.yul\":8702:8707   */\n      0x00\n        /* \"#utility.yul\":8733:8739   */\n      dup2\n        /* \"#utility.yul\":8727:8740   */\n      mload\n        /* \"#utility.yul\":8718:8740   */\n      swap1\n      pop\n        /* \"#utility.yul\":8749:8779   */\n      tag_265\n        /* \"#utility.yul\":8773:8778   */\n      dup2\n        /* \"#utility.yul\":8749:8779   */\n      tag_165\n      jump\t// in\n    tag_265:\n        /* \"#utility.yul\":8648:8785   */\n      swap3\n      swap2\n      pop\n      pop\n      jump\t// out\n        /* \"#utility.yul\":8791:9136   */\n    tag_80:\n        /* \"#utility.yul\":8858:8864   */\n      0x00\n        /* \"#utility.yul\":8907:8909   */\n      0x20\n        /* \"#utility.yul\":8895:8904   */\n      dup3\n        /* \"#utility.yul\":8886:8893   */\n      dup5\n        /* \"#utility.yul\":8882:8905   */\n      sub\n        /* \"#utility.yul\":8878:8910   */\n      slt\n        /* \"#utility.yul\":8875:8994   */\n      iszero\n      tag_267\n      jumpi\n        /* \"#utility.yul\":8913:8992   */\n      tag_268\n      tag_145\n      jump\t// in\n    tag_268:\n        /* \"#utility.yul\":8875:8994   */\n    tag_267:\n        /* \"#utility.yul\":9033:9034   */\n      0x00\n        /* \"#utility.yul\":9058:9119   */\n      tag_269\n        /* \"#utility.yul\":9111:9118   */\n      dup5\n        /* \"#utility.yul\":9102:9108   */\n      dup3\n        /* \"#utility.yul\":9091:9100   */\n      dup6\n        /* \"#utility.yul\":9087:9109   */\n      add\n        /* \"#utility.yul\":9058:9119   */\n      tag_166\n      jump\t// in\n    tag_269:\n        /* \"#utility.yul\":9048:9119   */\n      swap2\n      pop\n        /* \"#utility.yul\":9004:9129   */\n      pop\n        /* \"#utility.yul\":8791:9136   */\n      swap3\n      swap2\n      pop\n      pop\n      jump\t// out\n        /* \"#utility.yul\":9142:9311   */\n    tag_167:\n        /* \"#utility.yul\":9226:9237   */\n      0x00\n        /* \"#utility.yul\":9260:9266   */\n      dup3\n        /* \"#utility.yul\":9255:9258   */\n      dup3\n        /* \"#utility.yul\":9248:9267   */\n      mstore\n        /* \"#utility.yul\":9300:9304   */\n      0x20\n        /* \"#utility.yul\":9295:9298   */\n      dup3\n        /* \"#utility.yul\":9291:9305   */\n      add\n        /* \"#utility.yul\":9276:9305   */\n      swap1\n      pop\n        /* \"#utility.yul\":9142:9311   */\n      swap3\n      swap2\n      pop\n      pop\n      jump\t// out\n        /* \"#utility.yul\":9317:9482   */\n    tag_168:\n        /* \"#utility.yul\":9457:9474   */\n      0x5472616e73666572206661696c65640000000000000000000000000000000000\n        /* \"#utility.yul\":9453:9454   */\n      0x00\n        /* \"#utility.yul\":9445:9451   */\n      dup3\n        /* \"#utility.yul\":9441:9455   */\n      add\n        /* \"#utility.yul\":9434:9475   */\n      mstore\n        /* \"#utility.yul\":9317:9482   */\n      pop\n      jump\t// out\n        /* \"#utility.yul\":9488:9854   */\n    tag_169:\n        /* \"#utility.yul\":9630:9633   */\n      0x00\n        /* \"#utility.yul\":9651:9718   */\n      tag_273\n        /* \"#utility.yul\":9715:9717   */\n      0x0f\n        /* \"#utility.yul\":9710:9713   */\n      dup4\n        /* \"#utility.yul\":9651:9718   */\n      tag_167\n      jump\t// in\n    tag_273:\n        /* \"#utility.yul\":9644:9718   */\n      swap2\n      pop\n        /* \"#utility.yul\":9727:9820   */\n      tag_274\n        /* \"#utility.yul\":9816:9819   */\n      dup3\n        /* \"#utility.yul\":9727:9820   */\n      tag_168\n      jump\t// in\n    tag_274:\n        /* \"#utility.yul\":9845:9847   */\n      0x20\n        /* \"#utility.yul\":9840:9843   */\n      dup3\n        /* \"#utility.yul\":9836:9848   */\n      add\n        /* \"#utility.yul\":9829:9848   */\n      swap1\n      pop\n        /* \"#utility.yul\":9488:9854   */\n      swap2\n      swap1\n      pop\n      jump\t// out\n        /* \"#utility.yul\":9860:10279   */\n    tag_83:\n        /* \"#utility.yul\":10026:10030   */\n      0x00\n        /* \"#utility.yul\":10064:10066   */\n      0x20\n        /* \"#utility.yul\":10053:10062   */\n      dup3\n        /* \"#utility.yul\":10049:10067   */\n      add\n        /* \"#utility.yul\":10041:10067   */\n      swap1\n      pop\n        /* \"#utility.yul\":10113:10122   */\n      dup2\n        /* \"#utility.yul\":10107:10111   */\n      dup2\n        /* \"#utility.yul\":10103:10123   */\n      sub\n        /* \"#utility.yul\":10099:10100   */\n      0x00\n        /* \"#utility.yul\":10088:10097   */\n      dup4\n        /* \"#utility.yul\":10084:10101   */\n      add\n        /* \"#utility.yul\":10077:10124   */\n      mstore\n        /* \"#utility.yul\":10141:10272   */\n      tag_276\n        /* \"#utility.yul\":10267:10271   */\n      dup2\n        /* \"#utility.yul\":10141:10272   */\n      tag_169\n      jump\t// in\n    tag_276:\n        /* \"#utility.yul\":10133:10272   */\n      swap1\n      pop\n        /* \"#utility.yul\":9860:10279   */\n      swap2\n      swap1\n      pop\n      jump\t// out\n        /* \"#utility.yul\":10285:10479   */\n    tag_85:\n        /* \"#utility.yul\":10325:10329   */\n      0x00\n        /* \"#utility.yul\":10345:10365   */\n      tag_278\n        /* \"#utility.yul\":10363:10364   */\n      dup3\n        /* \"#utility.yul\":10345:10365   */\n      tag_147\n      jump\t// in\n    tag_278:\n        /* \"#utility.yul\":10340:10365   */\n      swap2\n      pop\n        /* \"#utility.yul\":10379:10399   */\n      tag_279\n        /* \"#utility.yul\":10397:10398   */\n      dup4\n        /* \"#utility.yul\":10379:10399   */\n      tag_147\n      jump\t// in\n    tag_279:\n        /* \"#utility.yul\":10374:10399   */\n      swap3\n      pop\n        /* \"#utility.yul\":10423:10424   */\n      dup3\n        /* \"#utility.yul\":10420:10421   */\n      dup3\n        /* \"#utility.yul\":10416:10425   */\n      sub\n        /* \"#utility.yul\":10408:10425   */\n      swap1\n      pop\n        /* \"#utility.yul\":10447:10448   */\n      dup2\n        /* \"#utility.yul\":10441:10445   */\n      dup2\n        /* \"#utility.yul\":10438:10449   */\n      gt\n        /* \"#utility.yul\":10435:10472   */\n      iszero\n      tag_280\n      jumpi\n        /* \"#utility.yul\":10452:10470   */\n      tag_281\n      tag_163\n      jump\t// in\n    tag_281:\n        /* \"#utility.yul\":10435:10472   */\n    tag_280:\n        /* \"#utility.yul\":10285:10479   */\n      swap3\n      swap2\n      pop\n      pop\n      jump\t// out\n        /* \"#utility.yul\":10485:10927   */\n    tag_101:\n        /* \"#utility.yul\":10634:10638   */\n      0x00\n        /* \"#utility.yul\":10672:10674   */\n      0x60\n        /* \"#utility.yul\":10661:10670   */\n      dup3\n        /* \"#utility.yul\":10657:10675   */\n      add\n        /* \"#utility.yul\":10649:10675   */\n      swap1\n      pop\n        /* \"#utility.yul\":10685:10756   */\n      tag_283\n        /* \"#utility.yul\":10753:10754   */\n      0x00\n        /* \"#utility.yul\":10742:10751   */\n      dup4\n        /* \"#utility.yul\":10738:10755   */\n      add\n        /* \"#utility.yul\":10729:10735   */\n      dup7\n        /* \"#utility.yul\":10685:10756   */\n      tag_152\n      jump\t// in\n    tag_283:\n        /* \"#utility.yul\":10766:10838   */\n      tag_284\n        /* \"#utility.yul\":10834:10836   */\n      0x20\n        /* \"#utility.yul\":10823:10832   */\n      dup4\n        /* \"#utility.yul\":10819:10837   */\n      add\n        /* \"#utility.yul\":10810:10816   */\n      dup6\n        /* \"#utility.yul\":10766:10838   */\n      tag_152\n      jump\t// in\n    tag_284:\n        /* \"#utility.yul\":10848:10920   */\n      tag_285\n        /* \"#utility.yul\":10916:10918   */\n      0x40\n        /* \"#utility.yul\":10905:10914   */\n      dup4\n        /* \"#utility.yul\":10901:10919   */\n      add\n        /* \"#utility.yul\":10892:10898   */\n      dup5\n        /* \"#utility.yul\":10848:10920   */\n      tag_150\n      jump\t// in\n    tag_285:\n        /* \"#utility.yul\":10485:10927   */\n      swap5\n      swap4\n      pop\n      pop\n      pop\n      pop\n      jump\t// out\n        /* \"#utility.yul\":10933:11114   */\n    tag_170:\n        /* \"#utility.yul\":11073:11106   */\n      0x5265656e7472616e637947756172643a207265656e7472616e742063616c6c00\n        /* \"#utility.yul\":11069:11070   */\n      0x00\n        /* \"#utility.yul\":11061:11067   */\n      dup3\n        /* \"#utility.yul\":11057:11071   */\n      add\n        /* \"#utility.yul\":11050:11107   */\n      mstore\n        /* \"#utility.yul\":10933:11114   */\n      pop\n      jump\t// out\n        /* \"#utility.yul\":11120:11486   */\n    tag_171:\n        /* \"#utility.yul\":11262:11265   */\n      0x00\n        /* \"#utility.yul\":11283:11350   */\n      tag_288\n        /* \"#utility.yul\":11347:11349   */\n      0x1f\n        /* \"#utility.yul\":11342:11345   */\n      dup4\n        /* \"#utility.yul\":11283:11350   */\n      tag_167\n      jump\t// in\n    tag_288:\n        /* \"#utility.yul\":11276:11350   */\n      swap2\n      pop\n        /* \"#utility.yul\":11359:11452   */\n      tag_289\n        /* \"#utility.yul\":11448:11451   */\n      dup3\n        /* \"#utility.yul\":11359:11452   */\n      tag_170\n      jump\t// in\n    tag_289:\n        /* \"#utility.yul\":11477:11479   */\n      0x20\n        /* \"#utility.yul\":11472:11475   */\n      dup3\n        /* \"#utility.yul\":11468:11480   */\n      add\n        /* \"#utility.yul\":11461:11480   */\n      swap1\n      pop\n        /* \"#utility.yul\":11120:11486   */\n      swap2\n      swap1\n      pop\n      jump\t// out\n        /* \"#utility.yul\":11492:11911   */\n    tag_127:\n        /* \"#utility.yul\":11658:11662   */\n      0x00\n        /* \"#utility.yul\":11696:11698   */\n      0x20\n        /* \"#utility.yul\":11685:11694   */\n      dup3\n        /* \"#utility.yul\":11681:11699   */\n      add\n        /* \"#utility.yul\":11673:11699   */\n      swap1\n      pop\n        /* \"#utility.yul\":11745:11754   */\n      dup2\n        /* \"#utility.yul\":11739:11743   */\n      dup2\n        /* \"#utility.yul\":11735:11755   */\n      sub\n        /* \"#utility.yul\":11731:11732   */\n      0x00\n        /* \"#utility.yul\":11720:11729   */\n      dup4\n        /* \"#utility.yul\":11716:11733   */\n      add\n        /* \"#utility.yul\":11709:11756   */\n      mstore\n        /* \"#utility.yul\":11773:11904   */\n      tag_291\n        /* \"#utility.yul\":11899:11903   */\n      dup2\n        /* \"#utility.yul\":11773:11904   */\n      tag_171\n      jump\t// in\n    tag_291:\n        /* \"#utility.yul\":11765:11904   */\n      swap1\n      pop\n        /* \"#utility.yul\":11492:11911   */\n      swap2\n      swap1\n      pop\n      jump\t// out\n\n    auxdata: 0xa26469706673582212209b381529830880c13bbbe9c76c231d43d05cdf44f0bb85cfc00044377a00321064736f6c634300081a0033\n}\n",
				"bytecode": {
					"linkReferences": {},
					"object": "608060405234801561000f575f80fd5b5060405161128c38038061128c83398181016040528101906100319190610231565b3360015f819055505f73ffffffffffffffffffffffffffffffffffffffff168173ffffffffffffffffffffffffffffffffffffffff16036100a9575f6040517f1e4fbdf70000000000000000000000000000000000000000000000000000000081526004016100a0919061026b565b60405180910390fd5b6100b8816100ff60201b60201c565b508060025f6101000a81548173ffffffffffffffffffffffffffffffffffffffff021916908373ffffffffffffffffffffffffffffffffffffffff16021790555050610284565b5f60015f9054906101000a900473ffffffffffffffffffffffffffffffffffffffff1690508160015f6101000a81548173ffffffffffffffffffffffffffffffffffffffff021916908373ffffffffffffffffffffffffffffffffffffffff1602179055508173ffffffffffffffffffffffffffffffffffffffff168173ffffffffffffffffffffffffffffffffffffffff167f8be0079c531659141344cd1fd0a4f28419497f9722a3daafe3b4186f6b6457e060405160405180910390a35050565b5f80fd5b5f73ffffffffffffffffffffffffffffffffffffffff82169050919050565b5f6101ef826101c6565b9050919050565b5f610200826101e5565b9050919050565b610210816101f6565b811461021a575f80fd5b50565b5f8151905061022b81610207565b92915050565b5f60208284031215610246576102456101c2565b5b5f6102538482850161021d565b91505092915050565b610265816101e5565b82525050565b5f60208201905061027e5f83018461025c565b92915050565b610ffb806102915f395ff3fe608060405234801561000f575f80fd5b506004361061009c575f3560e01c8063817b1cd211610064578063817b1cd21461010c5780638da5cb5b1461012a5780639081630214610148578063f2fde38b14610179578063fc0e3d90146101955761009c565b80633ccfd60b146100a0578063715018a6146100aa57806372f702f3146100b45780637b0472f0146100d25780637bc74225146100ee575b5f80fd5b6100a86101b3565b005b6100b26104cc565b005b6100bc6104df565b6040516100c99190610abc565b60405180910390f35b6100ec60048036038101906100e79190610b0c565b610504565b005b6100f66106fc565b6040516101039190610b59565b60405180910390f35b610114610705565b6040516101219190610b59565b60405180910390f35b61013261070b565b60405161013f9190610b92565b60405180910390f35b610162600480360381019061015d9190610bd5565b610733565b604051610170929190610c13565b60405180910390f35b610193600480360381019061018e9190610c3a565b61076d565b005b61019d6107f1565b6040516101aa9190610d49565b60405180910390f35b6101bb61089b565b5f60045f3373ffffffffffffffffffffffffffffffffffffffff1673ffffffffffffffffffffffffffffffffffffffff1681526020019081526020015f20805480602002602001604051908101604052809291908181526020015f905b8282101561025b578382905f5260205f2090600202016040518060400160405290815f820154815260200160018201548152505081526020019060010190610218565b5050505090505f805b8251811015610379575f83828151811061028157610280610d69565b5b6020026020010151602001511180156102b657505f8382815181106102a9576102a8610d69565b5b60200260200101515f0151115b1561036c578281815181106102ce576102cd610d69565b5b60200260200101515f0151826102e49190610dc3565b915060405180604001604052805f81526020015f81525060045f3373ffffffffffffffffffffffffffffffffffffffff1673ffffffffffffffffffffffffffffffffffffffff1681526020019081526020015f20828154811061034a57610349610d69565b5b905f5260205f2090600202015f820151815f0155602082015181600101559050505b8080600101915050610264565b505f60025f9054906101000a900473ffffffffffffffffffffffffffffffffffffffff1673ffffffffffffffffffffffffffffffffffffffff1663a9059cbb33846040518363ffffffff1660e01b81526004016103d7929190610df6565b6020604051808303815f875af11580156103f3573d5f803e3d5ffd5b505050506040513d601f19601f820116820180604052508101906104179190610e52565b905080610459576040517f08c379a000000000000000000000000000000000000000000000000000000000815260040161045090610ed7565b60405180910390fd5b8160035f82825461046a9190610ef5565b925050819055503373ffffffffffffffffffffffffffffffffffffffff167f7084f5476618d8e60b11ef0d7d3f06914655adb8793e28ff7f018d4c76d505d5836040516104b79190610b59565b60405180910390a25050506104ca6108e8565b565b6104d46108f1565b6104dd5f610978565b565b60025f9054906101000a900473ffffffffffffffffffffffffffffffffffffffff1681565b61050c61089b565b5f6040518060400160405280848152602001834261052a9190610dc3565b815250905060045f3373ffffffffffffffffffffffffffffffffffffffff1673ffffffffffffffffffffffffffffffffffffffff1681526020019081526020015f2081908060018154018082558091505060019003905f5260205f2090600202015f909190919091505f820151815f01556020820151816001015550505f60025f9054906101000a900473ffffffffffffffffffffffffffffffffffffffff1673ffffffffffffffffffffffffffffffffffffffff166323b872dd3330876040518463ffffffff1660e01b815260040161060693929190610f28565b6020604051808303815f875af1158015610622573d5f803e3d5ffd5b505050506040513d601f19601f820116820180604052508101906106469190610e52565b905080610688576040517f08c379a000000000000000000000000000000000000000000000000000000000815260040161067f90610ed7565b60405180910390fd5b8360035f8282546106999190610dc3565b925050819055503373ffffffffffffffffffffffffffffffffffffffff167f9e71bc8eea02a63969f509818f2dafb9254532904319f9dbda79b67bd34a5f3d856040516106e69190610b59565b60405180910390a250506106f86108e8565b5050565b5f600354905090565b60035481565b5f60015f9054906101000a900473ffffffffffffffffffffffffffffffffffffffff16905090565b6004602052815f5260405f20818154811061074c575f80fd5b905f5260205f2090600202015f9150915050805f0154908060010154905082565b6107756108f1565b5f73ffffffffffffffffffffffffffffffffffffffff168173ffffffffffffffffffffffffffffffffffffffff16036107e5575f6040517f1e4fbdf70000000000000000000000000000000000000000000000000000000081526004016107dc9190610b92565b60405180910390fd5b6107ee81610978565b50565b606060045f3373ffffffffffffffffffffffffffffffffffffffff1673ffffffffffffffffffffffffffffffffffffffff1681526020019081526020015f20805480602002602001604051908101604052809291908181526020015f905b82821015610892578382905f5260205f2090600202016040518060400160405290815f82015481526020016001820154815250508152602001906001019061084f565b50505050905090565b60025f54036108df576040517f08c379a00000000000000000000000000000000000000000000000000000000081526004016108d690610fa7565b60405180910390fd5b60025f81905550565b60015f81905550565b6108f9610a3b565b73ffffffffffffffffffffffffffffffffffffffff1661091761070b565b73ffffffffffffffffffffffffffffffffffffffff16146109765761093a610a3b565b6040517f118cdaa700000000000000000000000000000000000000000000000000000000815260040161096d9190610b92565b60405180910390fd5b565b5f60015f9054906101000a900473ffffffffffffffffffffffffffffffffffffffff1690508160015f6101000a81548173ffffffffffffffffffffffffffffffffffffffff021916908373ffffffffffffffffffffffffffffffffffffffff1602179055508173ffffffffffffffffffffffffffffffffffffffff168173ffffffffffffffffffffffffffffffffffffffff167f8be0079c531659141344cd1fd0a4f28419497f9722a3daafe3b4186f6b6457e060405160405180910390a35050565b5f33905090565b5f73ffffffffffffffffffffffffffffffffffffffff82169050919050565b5f819050919050565b5f610a84610a7f610a7a84610a42565b610a61565b610a42565b9050919050565b5f610a9582610a6a565b9050919050565b5f610aa682610a8b565b9050919050565b610ab681610a9c565b82525050565b5f602082019050610acf5f830184610aad565b92915050565b5f80fd5b5f819050919050565b610aeb81610ad9565b8114610af5575f80fd5b50565b5f81359050610b0681610ae2565b92915050565b5f8060408385031215610b2257610b21610ad5565b5b5f610b2f85828601610af8565b9250506020610b4085828601610af8565b9150509250929050565b610b5381610ad9565b82525050565b5f602082019050610b6c5f830184610b4a565b92915050565b5f610b7c82610a42565b9050919050565b610b8c81610b72565b82525050565b5f602082019050610ba55f830184610b83565b92915050565b610bb481610b72565b8114610bbe575f80fd5b50565b5f81359050610bcf81610bab565b92915050565b5f8060408385031215610beb57610bea610ad5565b5b5f610bf885828601610bc1565b9250506020610c0985828601610af8565b9150509250929050565b5f604082019050610c265f830185610b4a565b610c336020830184610b4a565b9392505050565b5f60208284031215610c4f57610c4e610ad5565b5b5f610c5c84828501610bc1565b91505092915050565b5f81519050919050565b5f82825260208201905092915050565b5f819050602082019050919050565b610c9781610ad9565b82525050565b604082015f820151610cb15f850182610c8e565b506020820151610cc46020850182610c8e565b50505050565b5f610cd58383610c9d565b60408301905092915050565b5f602082019050919050565b5f610cf782610c65565b610d018185610c6f565b9350610d0c83610c7f565b805f5b83811015610d3c578151610d238882610cca565b9750610d2e83610ce1565b925050600181019050610d0f565b5085935050505092915050565b5f6020820190508181035f830152610d618184610ced565b905092915050565b7f4e487b71000000000000000000000000000000000000000000000000000000005f52603260045260245ffd5b7f4e487b71000000000000000000000000000000000000000000000000000000005f52601160045260245ffd5b5f610dcd82610ad9565b9150610dd883610ad9565b9250828201905080821115610df057610def610d96565b5b92915050565b5f604082019050610e095f830185610b83565b610e166020830184610b4a565b9392505050565b5f8115159050919050565b610e3181610e1d565b8114610e3b575f80fd5b50565b5f81519050610e4c81610e28565b92915050565b5f60208284031215610e6757610e66610ad5565b5b5f610e7484828501610e3e565b91505092915050565b5f82825260208201905092915050565b7f5472616e73666572206661696c656400000000000000000000000000000000005f82015250565b5f610ec1600f83610e7d565b9150610ecc82610e8d565b602082019050919050565b5f6020820190508181035f830152610eee81610eb5565b9050919050565b5f610eff82610ad9565b9150610f0a83610ad9565b9250828203905081811115610f2257610f21610d96565b5b92915050565b5f606082019050610f3b5f830186610b83565b610f486020830185610b83565b610f556040830184610b4a565b949350505050565b7f5265656e7472616e637947756172643a207265656e7472616e742063616c6c005f82015250565b5f610f91601f83610e7d565b9150610f9c82610f5d565b602082019050919050565b5f6020820190508181035f830152610fbe81610f85565b905091905056fea26469706673582212209b381529830880c13bbbe9c76c231d43d05cdf44f0bb85cfc00044377a00321064736f6c634300081a0033",
					"opcodes": "PUSH1 0x80 PUSH1 0x40 MSTORE CALLVALUE DUP1 ISZERO PUSH2 0xF JUMPI PUSH0 DUP1 REVERT JUMPDEST POP PUSH1 0x40 MLOAD PUSH2 0x128C CODESIZE SUB DUP1 PUSH2 0x128C DUP4 CODECOPY DUP2 DUP2 ADD PUSH1 0x40 MSTORE DUP2 ADD SWAP1 PUSH2 0x31 SWAP2 SWAP1 PUSH2 0x231 JUMP JUMPDEST CALLER PUSH1 0x1 PUSH0 DUP2 SWAP1 SSTORE POP PUSH0 PUSH20 0xFFFFFFFFFFFFFFFFFFFFFFFFFFFFFFFFFFFFFFFF AND DUP2 PUSH20 0xFFFFFFFFFFFFFFFFFFFFFFFFFFFFFFFFFFFFFFFF AND SUB PUSH2 0xA9 JUMPI PUSH0 PUSH1 0x40 MLOAD PUSH32 0x1E4FBDF700000000000000000000000000000000000000000000000000000000 DUP2 MSTORE PUSH1 0x4 ADD PUSH2 0xA0 SWAP2 SWAP1 PUSH2 0x26B JUMP JUMPDEST PUSH1 0x40 MLOAD DUP1 SWAP2 SUB SWAP1 REVERT JUMPDEST PUSH2 0xB8 DUP2 PUSH2 0xFF PUSH1 0x20 SHL PUSH1 0x20 SHR JUMP JUMPDEST POP DUP1 PUSH1 0x2 PUSH0 PUSH2 0x100 EXP DUP2 SLOAD DUP2 PUSH20 0xFFFFFFFFFFFFFFFFFFFFFFFFFFFFFFFFFFFFFFFF MUL NOT AND SWAP1 DUP4 PUSH20 0xFFFFFFFFFFFFFFFFFFFFFFFFFFFFFFFFFFFFFFFF AND MUL OR SWAP1 SSTORE POP POP PUSH2 0x284 JUMP JUMPDEST PUSH0 PUSH1 0x1 PUSH0 SWAP1 SLOAD SWAP1 PUSH2 0x100 EXP SWAP1 DIV PUSH20 0xFFFFFFFFFFFFFFFFFFFFFFFFFFFFFFFFFFFFFFFF AND SWAP1 POP DUP2 PUSH1 0x1 PUSH0 PUSH2 0x100 EXP DUP2 SLOAD DUP2 PUSH20 0xFFFFFFFFFFFFFFFFFFFFFFFFFFFFFFFFFFFFFFFF MUL NOT AND SWAP1 DUP4 PUSH20 0xFFFFFFFFFFFFFFFFFFFFFFFFFFFFFFFFFFFFFFFF AND MUL OR SWAP1 SSTORE POP DUP2 PUSH20 0xFFFFFFFFFFFFFFFFFFFFFFFFFFFFFFFFFFFFFFFF AND DUP2 PUSH20 0xFFFFFFFFFFFFFFFFFFFFFFFFFFFFFFFFFFFFFFFF AND PUSH32 0x8BE0079C531659141344CD1FD0A4F28419497F9722A3DAAFE3B4186F6B6457E0 PUSH1 0x40 MLOAD PUSH1 0x40 MLOAD DUP1 SWAP2 SUB SWAP1 LOG3 POP POP JUMP JUMPDEST PUSH0 DUP1 REVERT JUMPDEST PUSH0 PUSH20 0xFFFFFFFFFFFFFFFFFFFFFFFFFFFFFFFFFFFFFFFF DUP3 AND SWAP1 POP SWAP2 SWAP1 POP JUMP JUMPDEST PUSH0 PUSH2 0x1EF DUP3 PUSH2 0x1C6 JUMP JUMPDEST SWAP1 POP SWAP2 SWAP1 POP JUMP JUMPDEST PUSH0 PUSH2 0x200 DUP3 PUSH2 0x1E5 JUMP JUMPDEST SWAP1 POP SWAP2 SWAP1 POP JUMP JUMPDEST PUSH2 0x210 DUP2 PUSH2 0x1F6 JUMP JUMPDEST DUP2 EQ PUSH2 0x21A JUMPI PUSH0 DUP1 REVERT JUMPDEST POP JUMP JUMPDEST PUSH0 DUP2 MLOAD SWAP1 POP PUSH2 0x22B DUP2 PUSH2 0x207 JUMP JUMPDEST SWAP3 SWAP2 POP POP JUMP JUMPDEST PUSH0 PUSH1 0x20 DUP3 DUP5 SUB SLT ISZERO PUSH2 0x246 JUMPI PUSH2 0x245 PUSH2 0x1C2 JUMP JUMPDEST JUMPDEST PUSH0 PUSH2 0x253 DUP5 DUP3 DUP6 ADD PUSH2 0x21D JUMP JUMPDEST SWAP2 POP POP SWAP3 SWAP2 POP POP JUMP JUMPDEST PUSH2 0x265 DUP2 PUSH2 0x1E5 JUMP JUMPDEST DUP3 MSTORE POP POP JUMP JUMPDEST PUSH0 PUSH1 0x20 DUP3 ADD SWAP1 POP PUSH2 0x27E PUSH0 DUP4 ADD DUP5 PUSH2 0x25C JUMP JUMPDEST SWAP3 SWAP2 POP POP JUMP JUMPDEST PUSH2 0xFFB DUP1 PUSH2 0x291 PUSH0 CODECOPY PUSH0 RETURN INVALID PUSH1 0x80 PUSH1 0x40 MSTORE CALLVALUE DUP1 ISZERO PUSH2 0xF JUMPI PUSH0 DUP1 REVERT JUMPDEST POP PUSH1 0x4 CALLDATASIZE LT PUSH2 0x9C JUMPI PUSH0 CALLDATALOAD PUSH1 0xE0 SHR DUP1 PUSH4 0x817B1CD2 GT PUSH2 0x64 JUMPI DUP1 PUSH4 0x817B1CD2 EQ PUSH2 0x10C JUMPI DUP1 PUSH4 0x8DA5CB5B EQ PUSH2 0x12A JUMPI DUP1 PUSH4 0x90816302 EQ PUSH2 0x148 JUMPI DUP1 PUSH4 0xF2FDE38B EQ PUSH2 0x179 JUMPI DUP1 PUSH4 0xFC0E3D90 EQ PUSH2 0x195 JUMPI PUSH2 0x9C JUMP JUMPDEST DUP1 PUSH4 0x3CCFD60B EQ PUSH2 0xA0 JUMPI DUP1 PUSH4 0x715018A6 EQ PUSH2 0xAA JUMPI DUP1 PUSH4 0x72F702F3 EQ PUSH2 0xB4 JUMPI DUP1 PUSH4 0x7B0472F0 EQ PUSH2 0xD2 JUMPI DUP1 PUSH4 0x7BC74225 EQ PUSH2 0xEE JUMPI JUMPDEST PUSH0 DUP1 REVERT JUMPDEST PUSH2 0xA8 PUSH2 0x1B3 JUMP JUMPDEST STOP JUMPDEST PUSH2 0xB2 PUSH2 0x4CC JUMP JUMPDEST STOP JUMPDEST PUSH2 0xBC PUSH2 0x4DF JUMP JUMPDEST PUSH1 0x40 MLOAD PUSH2 0xC9 SWAP2 SWAP1 PUSH2 0xABC JUMP JUMPDEST PUSH1 0x40 MLOAD DUP1 SWAP2 SUB SWAP1 RETURN JUMPDEST PUSH2 0xEC PUSH1 0x4 DUP1 CALLDATASIZE SUB DUP2 ADD SWAP1 PUSH2 0xE7 SWAP2 SWAP1 PUSH2 0xB0C JUMP JUMPDEST PUSH2 0x504 JUMP JUMPDEST STOP JUMPDEST PUSH2 0xF6 PUSH2 0x6FC JUMP JUMPDEST PUSH1 0x40 MLOAD PUSH2 0x103 SWAP2 SWAP1 PUSH2 0xB59 JUMP JUMPDEST PUSH1 0x40 MLOAD DUP1 SWAP2 SUB SWAP1 RETURN JUMPDEST PUSH2 0x114 PUSH2 0x705 JUMP JUMPDEST PUSH1 0x40 MLOAD PUSH2 0x121 SWAP2 SWAP1 PUSH2 0xB59 JUMP JUMPDEST PUSH1 0x40 MLOAD DUP1 SWAP2 SUB SWAP1 RETURN JUMPDEST PUSH2 0x132 PUSH2 0x70B JUMP JUMPDEST PUSH1 0x40 MLOAD PUSH2 0x13F SWAP2 SWAP1 PUSH2 0xB92 JUMP JUMPDEST PUSH1 0x40 MLOAD DUP1 SWAP2 SUB SWAP1 RETURN JUMPDEST PUSH2 0x162 PUSH1 0x4 DUP1 CALLDATASIZE SUB DUP2 ADD SWAP1 PUSH2 0x15D SWAP2 SWAP1 PUSH2 0xBD5 JUMP JUMPDEST PUSH2 0x733 JUMP JUMPDEST PUSH1 0x40 MLOAD PUSH2 0x170 SWAP3 SWAP2 SWAP1 PUSH2 0xC13 JUMP JUMPDEST PUSH1 0x40 MLOAD DUP1 SWAP2 SUB SWAP1 RETURN JUMPDEST PUSH2 0x193 PUSH1 0x4 DUP1 CALLDATASIZE SUB DUP2 ADD SWAP1 PUSH2 0x18E SWAP2 SWAP1 PUSH2 0xC3A JUMP JUMPDEST PUSH2 0x76D JUMP JUMPDEST STOP JUMPDEST PUSH2 0x19D PUSH2 0x7F1 JUMP JUMPDEST PUSH1 0x40 MLOAD PUSH2 0x1AA SWAP2 SWAP1 PUSH2 0xD49 JUMP JUMPDEST PUSH1 0x40 MLOAD DUP1 SWAP2 SUB SWAP1 RETURN JUMPDEST PUSH2 0x1BB PUSH2 0x89B JUMP JUMPDEST PUSH0 PUSH1 0x4 PUSH0 CALLER PUSH20 0xFFFFFFFFFFFFFFFFFFFFFFFFFFFFFFFFFFFFFFFF AND PUSH20 0xFFFFFFFFFFFFFFFFFFFFFFFFFFFFFFFFFFFFFFFF AND DUP2 MSTORE PUSH1 0x20 ADD SWAP1 DUP2 MSTORE PUSH1 0x20 ADD PUSH0 KECCAK256 DUP1 SLOAD DUP1 PUSH1 0x20 MUL PUSH1 0x20 ADD PUSH1 0x40 MLOAD SWAP1 DUP2 ADD PUSH1 0x40 MSTORE DUP1 SWAP3 SWAP2 SWAP1 DUP2 DUP2 MSTORE PUSH1 0x20 ADD PUSH0 SWAP1 JUMPDEST DUP3 DUP3 LT ISZERO PUSH2 0x25B JUMPI DUP4 DUP3 SWAP1 PUSH0 MSTORE PUSH1 0x20 PUSH0 KECCAK256 SWAP1 PUSH1 0x2 MUL ADD PUSH1 0x40 MLOAD DUP1 PUSH1 0x40 ADD PUSH1 0x40 MSTORE SWAP1 DUP2 PUSH0 DUP3 ADD SLOAD DUP2 MSTORE PUSH1 0x20 ADD PUSH1 0x1 DUP3 ADD SLOAD DUP2 MSTORE POP POP DUP2 MSTORE PUSH1 0x20 ADD SWAP1 PUSH1 0x1 ADD SWAP1 PUSH2 0x218 JUMP JUMPDEST POP POP POP POP SWAP1 POP PUSH0 DUP1 JUMPDEST DUP3 MLOAD DUP2 LT ISZERO PUSH2 0x379 JUMPI PUSH0 DUP4 DUP3 DUP2 MLOAD DUP2 LT PUSH2 0x281 JUMPI PUSH2 0x280 PUSH2 0xD69 JUMP JUMPDEST JUMPDEST PUSH1 0x20 MUL PUSH1 0x20 ADD ADD MLOAD PUSH1 0x20 ADD MLOAD GT DUP1 ISZERO PUSH2 0x2B6 JUMPI POP PUSH0 DUP4 DUP3 DUP2 MLOAD DUP2 LT PUSH2 0x2A9 JUMPI PUSH2 0x2A8 PUSH2 0xD69 JUMP JUMPDEST JUMPDEST PUSH1 0x20 MUL PUSH1 0x20 ADD ADD MLOAD PUSH0 ADD MLOAD GT JUMPDEST ISZERO PUSH2 0x36C JUMPI DUP3 DUP2 DUP2 MLOAD DUP2 LT PUSH2 0x2CE JUMPI PUSH2 0x2CD PUSH2 0xD69 JUMP JUMPDEST JUMPDEST PUSH1 0x20 MUL PUSH1 0x20 ADD ADD MLOAD PUSH0 ADD MLOAD DUP3 PUSH2 0x2E4 SWAP2 SWAP1 PUSH2 0xDC3 JUMP JUMPDEST SWAP2 POP PUSH1 0x40 MLOAD DUP1 PUSH1 0x40 ADD PUSH1 0x40 MSTORE DUP1 PUSH0 DUP2 MSTORE PUSH1 0x20 ADD PUSH0 DUP2 MSTORE POP PUSH1 0x4 PUSH0 CALLER PUSH20 0xFFFFFFFFFFFFFFFFFFFFFFFFFFFFFFFFFFFFFFFF AND PUSH20 0xFFFFFFFFFFFFFFFFFFFFFFFFFFFFFFFFFFFFFFFF AND DUP2 MSTORE PUSH1 0x20 ADD SWAP1 DUP2 MSTORE PUSH1 0x20 ADD PUSH0 KECCAK256 DUP3 DUP2 SLOAD DUP2 LT PUSH2 0x34A JUMPI PUSH2 0x349 PUSH2 0xD69 JUMP JUMPDEST JUMPDEST SWAP1 PUSH0 MSTORE PUSH1 0x20 PUSH0 KECCAK256 SWAP1 PUSH1 0x2 MUL ADD PUSH0 DUP3 ADD MLOAD DUP2 PUSH0 ADD SSTORE PUSH1 0x20 DUP3 ADD MLOAD DUP2 PUSH1 0x1 ADD SSTORE SWAP1 POP POP JUMPDEST DUP1 DUP1 PUSH1 0x1 ADD SWAP2 POP POP PUSH2 0x264 JUMP JUMPDEST POP PUSH0 PUSH1 0x2 PUSH0 SWAP1 SLOAD SWAP1 PUSH2 0x100 EXP SWAP1 DIV PUSH20 0xFFFFFFFFFFFFFFFFFFFFFFFFFFFFFFFFFFFFFFFF AND PUSH20 0xFFFFFFFFFFFFFFFFFFFFFFFFFFFFFFFFFFFFFFFF AND PUSH4 0xA9059CBB CALLER DUP5 PUSH1 0x40 MLOAD DUP4 PUSH4 0xFFFFFFFF AND PUSH1 0xE0 SHL DUP2 MSTORE PUSH1 0x4 ADD PUSH2 0x3D7 SWAP3 SWAP2 SWAP1 PUSH2 0xDF6 JUMP JUMPDEST PUSH1 0x20 PUSH1 0x40 MLOAD DUP1 DUP4 SUB DUP2 PUSH0 DUP8 GAS CALL ISZERO DUP1 ISZERO PUSH2 0x3F3 JUMPI RETURNDATASIZE PUSH0 DUP1 RETURNDATACOPY RETURNDATASIZE PUSH0 REVERT JUMPDEST POP POP POP POP PUSH1 0x40 MLOAD RETURNDATASIZE PUSH1 0x1F NOT PUSH1 0x1F DUP3 ADD AND DUP3 ADD DUP1 PUSH1 0x40 MSTORE POP DUP2 ADD SWAP1 PUSH2 0x417 SWAP2 SWAP1 PUSH2 0xE52 JUMP JUMPDEST SWAP1 POP DUP1 PUSH2 0x459 JUMPI PUSH1 0x40 MLOAD PUSH32 0x8C379A000000000000000000000000000000000000000000000000000000000 DUP2 MSTORE PUSH1 0x4 ADD PUSH2 0x450 SWAP1 PUSH2 0xED7 JUMP JUMPDEST PUSH1 0x40 MLOAD DUP1 SWAP2 SUB SWAP1 REVERT JUMPDEST DUP2 PUSH1 0x3 PUSH0 DUP3 DUP3 SLOAD PUSH2 0x46A SWAP2 SWAP1 PUSH2 0xEF5 JUMP JUMPDEST SWAP3 POP POP DUP2 SWAP1 SSTORE POP CALLER PUSH20 0xFFFFFFFFFFFFFFFFFFFFFFFFFFFFFFFFFFFFFFFF AND PUSH32 0x7084F5476618D8E60B11EF0D7D3F06914655ADB8793E28FF7F018D4C76D505D5 DUP4 PUSH1 0x40 MLOAD PUSH2 0x4B7 SWAP2 SWAP1 PUSH2 0xB59 JUMP JUMPDEST PUSH1 0x40 MLOAD DUP1 SWAP2 SUB SWAP1 LOG2 POP POP POP PUSH2 0x4CA PUSH2 0x8E8 JUMP JUMPDEST JUMP JUMPDEST PUSH2 0x4D4 PUSH2 0x8F1 JUMP JUMPDEST PUSH2 0x4DD PUSH0 PUSH2 0x978 JUMP JUMPDEST JUMP JUMPDEST PUSH1 0x2 PUSH0 SWAP1 SLOAD SWAP1 PUSH2 0x100 EXP SWAP1 DIV PUSH20 0xFFFFFFFFFFFFFFFFFFFFFFFFFFFFFFFFFFFFFFFF AND DUP2 JUMP JUMPDEST PUSH2 0x50C PUSH2 0x89B JUMP JUMPDEST PUSH0 PUSH1 0x40 MLOAD DUP1 PUSH1 0x40 ADD PUSH1 0x40 MSTORE DUP1 DUP5 DUP2 MSTORE PUSH1 0x20 ADD DUP4 TIMESTAMP PUSH2 0x52A SWAP2 SWAP1 PUSH2 0xDC3 JUMP JUMPDEST DUP2 MSTORE POP SWAP1 POP PUSH1 0x4 PUSH0 CALLER PUSH20 0xFFFFFFFFFFFFFFFFFFFFFFFFFFFFFFFFFFFFFFFF AND PUSH20 0xFFFFFFFFFFFFFFFFFFFFFFFFFFFFFFFFFFFFFFFF AND DUP2 MSTORE PUSH1 0x20 ADD SWAP1 DUP2 MSTORE PUSH1 0x20 ADD PUSH0 KECCAK256 DUP2 SWAP1 DUP1 PUSH1 0x1 DUP2 SLOAD ADD DUP1 DUP3 SSTORE DUP1 SWAP2 POP POP PUSH1 0x1 SWAP1 SUB SWAP1 PUSH0 MSTORE PUSH1 0x20 PUSH0 KECCAK256 SWAP1 PUSH1 0x2 MUL ADD PUSH0 SWAP1 SWAP2 SWAP1 SWAP2 SWAP1 SWAP2 POP PUSH0 DUP3 ADD MLOAD DUP2 PUSH0 ADD SSTORE PUSH1 0x20 DUP3 ADD MLOAD DUP2 PUSH1 0x1 ADD SSTORE POP POP PUSH0 PUSH1 0x2 PUSH0 SWAP1 SLOAD SWAP1 PUSH2 0x100 EXP SWAP1 DIV PUSH20 0xFFFFFFFFFFFFFFFFFFFFFFFFFFFFFFFFFFFFFFFF AND PUSH20 0xFFFFFFFFFFFFFFFFFFFFFFFFFFFFFFFFFFFFFFFF AND PUSH4 0x23B872DD CALLER ADDRESS DUP8 PUSH1 0x40 MLOAD DUP5 PUSH4 0xFFFFFFFF AND PUSH1 0xE0 SHL DUP2 MSTORE PUSH1 0x4 ADD PUSH2 0x606 SWAP4 SWAP3 SWAP2 SWAP1 PUSH2 0xF28 JUMP JUMPDEST PUSH1 0x20 PUSH1 0x40 MLOAD DUP1 DUP4 SUB DUP2 PUSH0 DUP8 GAS CALL ISZERO DUP1 ISZERO PUSH2 0x622 JUMPI RETURNDATASIZE PUSH0 DUP1 RETURNDATACOPY RETURNDATASIZE PUSH0 REVERT JUMPDEST POP POP POP POP PUSH1 0x40 MLOAD RETURNDATASIZE PUSH1 0x1F NOT PUSH1 0x1F DUP3 ADD AND DUP3 ADD DUP1 PUSH1 0x40 MSTORE POP DUP2 ADD SWAP1 PUSH2 0x646 SWAP2 SWAP1 PUSH2 0xE52 JUMP JUMPDEST SWAP1 POP DUP1 PUSH2 0x688 JUMPI PUSH1 0x40 MLOAD PUSH32 0x8C379A000000000000000000000000000000000000000000000000000000000 DUP2 MSTORE PUSH1 0x4 ADD PUSH2 0x67F SWAP1 PUSH2 0xED7 JUMP JUMPDEST PUSH1 0x40 MLOAD DUP1 SWAP2 SUB SWAP1 REVERT JUMPDEST DUP4 PUSH1 0x3 PUSH0 DUP3 DUP3 SLOAD PUSH2 0x699 SWAP2 SWAP1 PUSH2 0xDC3 JUMP JUMPDEST SWAP3 POP POP DUP2 SWAP1 SSTORE POP CALLER PUSH20 0xFFFFFFFFFFFFFFFFFFFFFFFFFFFFFFFFFFFFFFFF AND PUSH32 0x9E71BC8EEA02A63969F509818F2DAFB9254532904319F9DBDA79B67BD34A5F3D DUP6 PUSH1 0x40 MLOAD PUSH2 0x6E6 SWAP2 SWAP1 PUSH2 0xB59 JUMP JUMPDEST PUSH1 0x40 MLOAD DUP1 SWAP2 SUB SWAP1 LOG2 POP POP PUSH2 0x6F8 PUSH2 0x8E8 JUMP JUMPDEST POP POP JUMP JUMPDEST PUSH0 PUSH1 0x3 SLOAD SWAP1 POP SWAP1 JUMP JUMPDEST PUSH1 0x3 SLOAD DUP2 JUMP JUMPDEST PUSH0 PUSH1 0x1 PUSH0 SWAP1 SLOAD SWAP1 PUSH2 0x100 EXP SWAP1 DIV PUSH20 0xFFFFFFFFFFFFFFFFFFFFFFFFFFFFFFFFFFFFFFFF AND SWAP1 POP SWAP1 JUMP JUMPDEST PUSH1 0x4 PUSH1 0x20 MSTORE DUP2 PUSH0 MSTORE PUSH1 0x40 PUSH0 KECCAK256 DUP2 DUP2 SLOAD DUP2 LT PUSH2 0x74C JUMPI PUSH0 DUP1 REVERT JUMPDEST SWAP1 PUSH0 MSTORE PUSH1 0x20 PUSH0 KECCAK256 SWAP1 PUSH1 0x2 MUL ADD PUSH0 SWAP2 POP SWAP2 POP POP DUP1 PUSH0 ADD SLOAD SWAP1 DUP1 PUSH1 0x1 ADD SLOAD SWAP1 POP DUP3 JUMP JUMPDEST PUSH2 0x775 PUSH2 0x8F1 JUMP JUMPDEST PUSH0 PUSH20 0xFFFFFFFFFFFFFFFFFFFFFFFFFFFFFFFFFFFFFFFF AND DUP2 PUSH20 0xFFFFFFFFFFFFFFFFFFFFFFFFFFFFFFFFFFFFFFFF AND SUB PUSH2 0x7E5 JUMPI PUSH0 PUSH1 0x40 MLOAD PUSH32 0x1E4FBDF700000000000000000000000000000000000000000000000000000000 DUP2 MSTORE PUSH1 0x4 ADD PUSH2 0x7DC SWAP2 SWAP1 PUSH2 0xB92 JUMP JUMPDEST PUSH1 0x40 MLOAD DUP1 SWAP2 SUB SWAP1 REVERT JUMPDEST PUSH2 0x7EE DUP2 PUSH2 0x978 JUMP JUMPDEST POP JUMP JUMPDEST PUSH1 0x60 PUSH1 0x4 PUSH0 CALLER PUSH20 0xFFFFFFFFFFFFFFFFFFFFFFFFFFFFFFFFFFFFFFFF AND PUSH20 0xFFFFFFFFFFFFFFFFFFFFFFFFFFFFFFFFFFFFFFFF AND DUP2 MSTORE PUSH1 0x20 ADD SWAP1 DUP2 MSTORE PUSH1 0x20 ADD PUSH0 KECCAK256 DUP1 SLOAD DUP1 PUSH1 0x20 MUL PUSH1 0x20 ADD PUSH1 0x40 MLOAD SWAP1 DUP2 ADD PUSH1 0x40 MSTORE DUP1 SWAP3 SWAP2 SWAP1 DUP2 DUP2 MSTORE PUSH1 0x20 ADD PUSH0 SWAP1 JUMPDEST DUP3 DUP3 LT ISZERO PUSH2 0x892 JUMPI DUP4 DUP3 SWAP1 PUSH0 MSTORE PUSH1 0x20 PUSH0 KECCAK256 SWAP1 PUSH1 0x2 MUL ADD PUSH1 0x40 MLOAD DUP1 PUSH1 0x40 ADD PUSH1 0x40 MSTORE SWAP1 DUP2 PUSH0 DUP3 ADD SLOAD DUP2 MSTORE PUSH1 0x20 ADD PUSH1 0x1 DUP3 ADD SLOAD DUP2 MSTORE POP POP DUP2 MSTORE PUSH1 0x20 ADD SWAP1 PUSH1 0x1 ADD SWAP1 PUSH2 0x84F JUMP JUMPDEST POP POP POP POP SWAP1 POP SWAP1 JUMP JUMPDEST PUSH1 0x2 PUSH0 SLOAD SUB PUSH2 0x8DF JUMPI PUSH1 0x40 MLOAD PUSH32 0x8C379A000000000000000000000000000000000000000000000000000000000 DUP2 MSTORE PUSH1 0x4 ADD PUSH2 0x8D6 SWAP1 PUSH2 0xFA7 JUMP JUMPDEST PUSH1 0x40 MLOAD DUP1 SWAP2 SUB SWAP1 REVERT JUMPDEST PUSH1 0x2 PUSH0 DUP2 SWAP1 SSTORE POP JUMP JUMPDEST PUSH1 0x1 PUSH0 DUP2 SWAP1 SSTORE POP JUMP JUMPDEST PUSH2 0x8F9 PUSH2 0xA3B JUMP JUMPDEST PUSH20 0xFFFFFFFFFFFFFFFFFFFFFFFFFFFFFFFFFFFFFFFF AND PUSH2 0x917 PUSH2 0x70B JUMP JUMPDEST PUSH20 0xFFFFFFFFFFFFFFFFFFFFFFFFFFFFFFFFFFFFFFFF AND EQ PUSH2 0x976 JUMPI PUSH2 0x93A PUSH2 0xA3B JUMP JUMPDEST PUSH1 0x40 MLOAD PUSH32 0x118CDAA700000000000000000000000000000000000000000000000000000000 DUP2 MSTORE PUSH1 0x4 ADD PUSH2 0x96D SWAP2 SWAP1 PUSH2 0xB92 JUMP JUMPDEST PUSH1 0x40 MLOAD DUP1 SWAP2 SUB SWAP1 REVERT JUMPDEST JUMP JUMPDEST PUSH0 PUSH1 0x1 PUSH0 SWAP1 SLOAD SWAP1 PUSH2 0x100 EXP SWAP1 DIV PUSH20 0xFFFFFFFFFFFFFFFFFFFFFFFFFFFFFFFFFFFFFFFF AND SWAP1 POP DUP2 PUSH1 0x1 PUSH0 PUSH2 0x100 EXP DUP2 SLOAD DUP2 PUSH20 0xFFFFFFFFFFFFFFFFFFFFFFFFFFFFFFFFFFFFFFFF MUL NOT AND SWAP1 DUP4 PUSH20 0xFFFFFFFFFFFFFFFFFFFFFFFFFFFFFFFFFFFFFFFF AND MUL OR SWAP1 SSTORE POP DUP2 PUSH20 0xFFFFFFFFFFFFFFFFFFFFFFFFFFFFFFFFFFFFFFFF AND DUP2 PUSH20 0xFFFFFFFFFFFFFFFFFFFFFFFFFFFFFFFFFFFFFFFF AND PUSH32 0x8BE0079C531659141344CD1FD0A4F28419497F9722A3DAAFE3B4186F6B6457E0 PUSH1 0x40 MLOAD PUSH1 0x40 MLOAD DUP1 SWAP2 SUB SWAP1 LOG3 POP POP JUMP JUMPDEST PUSH0 CALLER SWAP1 POP SWAP1 JUMP JUMPDEST PUSH0 PUSH20 0xFFFFFFFFFFFFFFFFFFFFFFFFFFFFFFFFFFFFFFFF DUP3 AND SWAP1 POP SWAP2 SWAP1 POP JUMP JUMPDEST PUSH0 DUP2 SWAP1 POP SWAP2 SWAP1 POP JUMP JUMPDEST PUSH0 PUSH2 0xA84 PUSH2 0xA7F PUSH2 0xA7A DUP5 PUSH2 0xA42 JUMP JUMPDEST PUSH2 0xA61 JUMP JUMPDEST PUSH2 0xA42 JUMP JUMPDEST SWAP1 POP SWAP2 SWAP1 POP JUMP JUMPDEST PUSH0 PUSH2 0xA95 DUP3 PUSH2 0xA6A JUMP JUMPDEST SWAP1 POP SWAP2 SWAP1 POP JUMP JUMPDEST PUSH0 PUSH2 0xAA6 DUP3 PUSH2 0xA8B JUMP JUMPDEST SWAP1 POP SWAP2 SWAP1 POP JUMP JUMPDEST PUSH2 0xAB6 DUP2 PUSH2 0xA9C JUMP JUMPDEST DUP3 MSTORE POP POP JUMP JUMPDEST PUSH0 PUSH1 0x20 DUP3 ADD SWAP1 POP PUSH2 0xACF PUSH0 DUP4 ADD DUP5 PUSH2 0xAAD JUMP JUMPDEST SWAP3 SWAP2 POP POP JUMP JUMPDEST PUSH0 DUP1 REVERT JUMPDEST PUSH0 DUP2 SWAP1 POP SWAP2 SWAP1 POP JUMP JUMPDEST PUSH2 0xAEB DUP2 PUSH2 0xAD9 JUMP JUMPDEST DUP2 EQ PUSH2 0xAF5 JUMPI PUSH0 DUP1 REVERT JUMPDEST POP JUMP JUMPDEST PUSH0 DUP2 CALLDATALOAD SWAP1 POP PUSH2 0xB06 DUP2 PUSH2 0xAE2 JUMP JUMPDEST SWAP3 SWAP2 POP POP JUMP JUMPDEST PUSH0 DUP1 PUSH1 0x40 DUP4 DUP6 SUB SLT ISZERO PUSH2 0xB22 JUMPI PUSH2 0xB21 PUSH2 0xAD5 JUMP JUMPDEST JUMPDEST PUSH0 PUSH2 0xB2F DUP6 DUP3 DUP7 ADD PUSH2 0xAF8 JUMP JUMPDEST SWAP3 POP POP PUSH1 0x20 PUSH2 0xB40 DUP6 DUP3 DUP7 ADD PUSH2 0xAF8 JUMP JUMPDEST SWAP2 POP POP SWAP3 POP SWAP3 SWAP1 POP JUMP JUMPDEST PUSH2 0xB53 DUP2 PUSH2 0xAD9 JUMP JUMPDEST DUP3 MSTORE POP POP JUMP JUMPDEST PUSH0 PUSH1 0x20 DUP3 ADD SWAP1 POP PUSH2 0xB6C PUSH0 DUP4 ADD DUP5 PUSH2 0xB4A JUMP JUMPDEST SWAP3 SWAP2 POP POP JUMP JUMPDEST PUSH0 PUSH2 0xB7C DUP3 PUSH2 0xA42 JUMP JUMPDEST SWAP1 POP SWAP2 SWAP1 POP JUMP JUMPDEST PUSH2 0xB8C DUP2 PUSH2 0xB72 JUMP JUMPDEST DUP3 MSTORE POP POP JUMP JUMPDEST PUSH0 PUSH1 0x20 DUP3 ADD SWAP1 POP PUSH2 0xBA5 PUSH0 DUP4 ADD DUP5 PUSH2 0xB83 JUMP JUMPDEST SWAP3 SWAP2 POP POP JUMP JUMPDEST PUSH2 0xBB4 DUP2 PUSH2 0xB72 JUMP JUMPDEST DUP2 EQ PUSH2 0xBBE JUMPI PUSH0 DUP1 REVERT JUMPDEST POP JUMP JUMPDEST PUSH0 DUP2 CALLDATALOAD SWAP1 POP PUSH2 0xBCF DUP2 PUSH2 0xBAB JUMP JUMPDEST SWAP3 SWAP2 POP POP JUMP JUMPDEST PUSH0 DUP1 PUSH1 0x40 DUP4 DUP6 SUB SLT ISZERO PUSH2 0xBEB JUMPI PUSH2 0xBEA PUSH2 0xAD5 JUMP JUMPDEST JUMPDEST PUSH0 PUSH2 0xBF8 DUP6 DUP3 DUP7 ADD PUSH2 0xBC1 JUMP JUMPDEST SWAP3 POP POP PUSH1 0x20 PUSH2 0xC09 DUP6 DUP3 DUP7 ADD PUSH2 0xAF8 JUMP JUMPDEST SWAP2 POP POP SWAP3 POP SWAP3 SWAP1 POP JUMP JUMPDEST PUSH0 PUSH1 0x40 DUP3 ADD SWAP1 POP PUSH2 0xC26 PUSH0 DUP4 ADD DUP6 PUSH2 0xB4A JUMP JUMPDEST PUSH2 0xC33 PUSH1 0x20 DUP4 ADD DUP5 PUSH2 0xB4A JUMP JUMPDEST SWAP4 SWAP3 POP POP POP JUMP JUMPDEST PUSH0 PUSH1 0x20 DUP3 DUP5 SUB SLT ISZERO PUSH2 0xC4F JUMPI PUSH2 0xC4E PUSH2 0xAD5 JUMP JUMPDEST JUMPDEST PUSH0 PUSH2 0xC5C DUP5 DUP3 DUP6 ADD PUSH2 0xBC1 JUMP JUMPDEST SWAP2 POP POP SWAP3 SWAP2 POP POP JUMP JUMPDEST PUSH0 DUP2 MLOAD SWAP1 POP SWAP2 SWAP1 POP JUMP JUMPDEST PUSH0 DUP3 DUP3 MSTORE PUSH1 0x20 DUP3 ADD SWAP1 POP SWAP3 SWAP2 POP POP JUMP JUMPDEST PUSH0 DUP2 SWAP1 POP PUSH1 0x20 DUP3 ADD SWAP1 POP SWAP2 SWAP1 POP JUMP JUMPDEST PUSH2 0xC97 DUP2 PUSH2 0xAD9 JUMP JUMPDEST DUP3 MSTORE POP POP JUMP JUMPDEST PUSH1 0x40 DUP3 ADD PUSH0 DUP3 ADD MLOAD PUSH2 0xCB1 PUSH0 DUP6 ADD DUP3 PUSH2 0xC8E JUMP JUMPDEST POP PUSH1 0x20 DUP3 ADD MLOAD PUSH2 0xCC4 PUSH1 0x20 DUP6 ADD DUP3 PUSH2 0xC8E JUMP JUMPDEST POP POP POP POP JUMP JUMPDEST PUSH0 PUSH2 0xCD5 DUP4 DUP4 PUSH2 0xC9D JUMP JUMPDEST PUSH1 0x40 DUP4 ADD SWAP1 POP SWAP3 SWAP2 POP POP JUMP JUMPDEST PUSH0 PUSH1 0x20 DUP3 ADD SWAP1 POP SWAP2 SWAP1 POP JUMP JUMPDEST PUSH0 PUSH2 0xCF7 DUP3 PUSH2 0xC65 JUMP JUMPDEST PUSH2 0xD01 DUP2 DUP6 PUSH2 0xC6F JUMP JUMPDEST SWAP4 POP PUSH2 0xD0C DUP4 PUSH2 0xC7F JUMP JUMPDEST DUP1 PUSH0 JUMPDEST DUP4 DUP2 LT ISZERO PUSH2 0xD3C JUMPI DUP2 MLOAD PUSH2 0xD23 DUP9 DUP3 PUSH2 0xCCA JUMP JUMPDEST SWAP8 POP PUSH2 0xD2E DUP4 PUSH2 0xCE1 JUMP JUMPDEST SWAP3 POP POP PUSH1 0x1 DUP2 ADD SWAP1 POP PUSH2 0xD0F JUMP JUMPDEST POP DUP6 SWAP4 POP POP POP POP SWAP3 SWAP2 POP POP JUMP JUMPDEST PUSH0 PUSH1 0x20 DUP3 ADD SWAP1 POP DUP2 DUP2 SUB PUSH0 DUP4 ADD MSTORE PUSH2 0xD61 DUP2 DUP5 PUSH2 0xCED JUMP JUMPDEST SWAP1 POP SWAP3 SWAP2 POP POP JUMP JUMPDEST PUSH32 0x4E487B7100000000000000000000000000000000000000000000000000000000 PUSH0 MSTORE PUSH1 0x32 PUSH1 0x4 MSTORE PUSH1 0x24 PUSH0 REVERT JUMPDEST PUSH32 0x4E487B7100000000000000000000000000000000000000000000000000000000 PUSH0 MSTORE PUSH1 0x11 PUSH1 0x4 MSTORE PUSH1 0x24 PUSH0 REVERT JUMPDEST PUSH0 PUSH2 0xDCD DUP3 PUSH2 0xAD9 JUMP JUMPDEST SWAP2 POP PUSH2 0xDD8 DUP4 PUSH2 0xAD9 JUMP JUMPDEST SWAP3 POP DUP3 DUP3 ADD SWAP1 POP DUP1 DUP3 GT ISZERO PUSH2 0xDF0 JUMPI PUSH2 0xDEF PUSH2 0xD96 JUMP JUMPDEST JUMPDEST SWAP3 SWAP2 POP POP JUMP JUMPDEST PUSH0 PUSH1 0x40 DUP3 ADD SWAP1 POP PUSH2 0xE09 PUSH0 DUP4 ADD DUP6 PUSH2 0xB83 JUMP JUMPDEST PUSH2 0xE16 PUSH1 0x20 DUP4 ADD DUP5 PUSH2 0xB4A JUMP JUMPDEST SWAP4 SWAP3 POP POP POP JUMP JUMPDEST PUSH0 DUP2 ISZERO ISZERO SWAP1 POP SWAP2 SWAP1 POP JUMP JUMPDEST PUSH2 0xE31 DUP2 PUSH2 0xE1D JUMP JUMPDEST DUP2 EQ PUSH2 0xE3B JUMPI PUSH0 DUP1 REVERT JUMPDEST POP JUMP JUMPDEST PUSH0 DUP2 MLOAD SWAP1 POP PUSH2 0xE4C DUP2 PUSH2 0xE28 JUMP JUMPDEST SWAP3 SWAP2 POP POP JUMP JUMPDEST PUSH0 PUSH1 0x20 DUP3 DUP5 SUB SLT ISZERO PUSH2 0xE67 JUMPI PUSH2 0xE66 PUSH2 0xAD5 JUMP JUMPDEST JUMPDEST PUSH0 PUSH2 0xE74 DUP5 DUP3 DUP6 ADD PUSH2 0xE3E JUMP JUMPDEST SWAP2 POP POP SWAP3 SWAP2 POP POP JUMP JUMPDEST PUSH0 DUP3 DUP3 MSTORE PUSH1 0x20 DUP3 ADD SWAP1 POP SWAP3 SWAP2 POP POP JUMP JUMPDEST PUSH32 0x5472616E73666572206661696C65640000000000000000000000000000000000 PUSH0 DUP3 ADD MSTORE POP JUMP JUMPDEST PUSH0 PUSH2 0xEC1 PUSH1 0xF DUP4 PUSH2 0xE7D JUMP JUMPDEST SWAP2 POP PUSH2 0xECC DUP3 PUSH2 0xE8D JUMP JUMPDEST PUSH1 0x20 DUP3 ADD SWAP1 POP SWAP2 SWAP1 POP JUMP JUMPDEST PUSH0 PUSH1 0x20 DUP3 ADD SWAP1 POP DUP2 DUP2 SUB PUSH0 DUP4 ADD MSTORE PUSH2 0xEEE DUP2 PUSH2 0xEB5 JUMP JUMPDEST SWAP1 POP SWAP2 SWAP1 POP JUMP JUMPDEST PUSH0 PUSH2 0xEFF DUP3 PUSH2 0xAD9 JUMP JUMPDEST SWAP2 POP PUSH2 0xF0A DUP4 PUSH2 0xAD9 JUMP JUMPDEST SWAP3 POP DUP3 DUP3 SUB SWAP1 POP DUP2 DUP2 GT ISZERO PUSH2 0xF22 JUMPI PUSH2 0xF21 PUSH2 0xD96 JUMP JUMPDEST JUMPDEST SWAP3 SWAP2 POP POP JUMP JUMPDEST PUSH0 PUSH1 0x60 DUP3 ADD SWAP1 POP PUSH2 0xF3B PUSH0 DUP4 ADD DUP7 PUSH2 0xB83 JUMP JUMPDEST PUSH2 0xF48 PUSH1 0x20 DUP4 ADD DUP6 PUSH2 0xB83 JUMP JUMPDEST PUSH2 0xF55 PUSH1 0x40 DUP4 ADD DUP5 PUSH2 0xB4A JUMP JUMPDEST SWAP5 SWAP4 POP POP POP POP JUMP JUMPDEST PUSH32 0x5265656E7472616E637947756172643A207265656E7472616E742063616C6C00 PUSH0 DUP3 ADD MSTORE POP JUMP JUMPDEST PUSH0 PUSH2 0xF91 PUSH1 0x1F DUP4 PUSH2 0xE7D JUMP JUMPDEST SWAP2 POP PUSH2 0xF9C DUP3 PUSH2 0xF5D JUMP JUMPDEST PUSH1 0x20 DUP3 ADD SWAP1 POP SWAP2 SWAP1 POP JUMP JUMPDEST PUSH0 PUSH1 0x20 DUP3 ADD SWAP1 POP DUP2 DUP2 SUB PUSH0 DUP4 ADD MSTORE PUSH2 0xFBE DUP2 PUSH2 0xF85 JUMP JUMPDEST SWAP1 POP SWAP2 SWAP1 POP JUMP INVALID LOG2 PUSH5 0x6970667358 0x22 SLT KECCAK256 SWAP12 CODESIZE ISZERO 0x29 DUP4 ADDMOD DUP1 0xC1 EXTCODESIZE 0xBB 0xE9 0xC7 PUSH13 0x231D43D05CDF44F0BB85CFC000 PREVRANDAO CALLDATACOPY PUSH27 0x321064736F6C634300081A003300000000000000000000000000 "
				},
				"gasEstimates": {
					"creation": {
						"codeDepositCost": "818200",
						"executionCost": "infinite",
						"totalCost": "infinite"
					},
					"external": {
						"getStake()": "infinite",
						"getTotalStake()": "2521",
						"owner()": "2537",
						"renounceOwnership()": "infinite",
						"stake(uint256,uint256)": "infinite",
						"stakingToken()": "infinite",
						"totalStaked()": "2425",
						"transferOwnership(address)": "infinite",
						"userStaking(address,uint256)": "infinite",
						"withdraw()": "infinite"
					}
				},
				"methodIdentifiers": {
					"getStake()": "fc0e3d90",
					"getTotalStake()": "7bc74225",
					"owner()": "8da5cb5b",
					"renounceOwnership()": "715018a6",
					"stake(uint256,uint256)": "7b0472f0",
					"stakingToken()": "72f702f3",
					"totalStaked()": "817b1cd2",
					"transferOwnership(address)": "f2fde38b",
					"userStaking(address,uint256)": "90816302",
					"withdraw()": "3ccfd60b"
				}
			},
			"storageLayout": {
				"storage": [
					{
						"astId": 158,
						"contract": "stack_contract.sol:StakingContract",
						"label": "_status",
						"offset": 0,
						"slot": "0",
						"type": "t_uint256"
					},
					{
						"astId": 8,
						"contract": "stack_contract.sol:StakingContract",
						"label": "_owner",
						"offset": 0,
						"slot": "1",
						"type": "t_address"
					},
					{
						"astId": 332,
						"contract": "stack_contract.sol:StakingContract",
						"label": "stakingToken",
						"offset": 0,
						"slot": "2",
						"type": "t_contract(IERC20)290"
					},
					{
						"astId": 334,
						"contract": "stack_contract.sol:StakingContract",
						"label": "totalStaked",
						"offset": 0,
						"slot": "3",
						"type": "t_uint256"
					},
					{
						"astId": 340,
						"contract": "stack_contract.sol:StakingContract",
						"label": "userStaking",
						"offset": 0,
						"slot": "4",
						"type": "t_mapping(t_address,t_array(t_struct(Stake)345_storage)dyn_storage)"
					}
				],
				"types": {
					"t_address": {
						"encoding": "inplace",
						"label": "address",
						"numberOfBytes": "20"
					},
					"t_array(t_struct(Stake)345_storage)dyn_storage": {
						"base": "t_struct(Stake)345_storage",
						"encoding": "dynamic_array",
						"label": "struct StakingContract.Stake[]",
						"numberOfBytes": "32"
					},
					"t_contract(IERC20)290": {
						"encoding": "inplace",
						"label": "contract IERC20",
						"numberOfBytes": "20"
					},
					"t_mapping(t_address,t_array(t_struct(Stake)345_storage)dyn_storage)": {
						"encoding": "mapping",
						"key": "t_address",
						"label": "mapping(address => struct StakingContract.Stake[])",
						"numberOfBytes": "32",
						"value": "t_array(t_struct(Stake)345_storage)dyn_storage"
					},
					"t_struct(Stake)345_storage": {
						"encoding": "inplace",
						"label": "struct StakingContract.Stake",
						"members": [
							{
								"astId": 342,
								"contract": "stack_contract.sol:StakingContract",
								"label": "stakedAmount",
								"offset": 0,
								"slot": "0",
								"type": "t_uint256"
							},
							{
								"astId": 344,
								"contract": "stack_contract.sol:StakingContract",
								"label": "withdrawDate",
								"offset": 0,
								"slot": "1",
								"type": "t_uint256"
							}
						],
						"numberOfBytes": "64"
					},
					"t_uint256": {
						"encoding": "inplace",
						"label": "uint256",
						"numberOfBytes": "32"
					}
				}
			},
			"userdoc": {
				"kind": "user",
				"methods": {},
				"version": 1
			}
		}
	}
}