{
	"data": {
		"bytecode": {
			"linkReferences": {},
			"object": "608060405234801561000f575f80fd5b50604051615575380380615575833981810160405281019061003191906102c3565b6040518060400160405280600c81526020017f566f74696e675265636f726400000000000000000000000000000000000000008152506040518060400160405280600481526020017f564f54450000000000000000000000000000000000000000000000000000000081525082803360015f819055505f73ffffffffffffffffffffffffffffffffffffffff168173ffffffffffffffffffffffffffffffffffffffff1603610117575f6040517f1e4fbdf700000000000000000000000000000000000000000000000000000000815260040161010e91906102fd565b60405180910390fd5b6101268161019160201b60201c565b508060025f6101000a81548173ffffffffffffffffffffffffffffffffffffffff021916908373ffffffffffffffffffffffffffffffffffffffff160217905550505081600790816101789190610550565b5080600890816101889190610550565b5050505061061f565b5f60015f9054906101000a900473ffffffffffffffffffffffffffffffffffffffff1690508160015f6101000a81548173ffffffffffffffffffffffffffffffffffffffff021916908373ffffffffffffffffffffffffffffffffffffffff1602179055508173ffffffffffffffffffffffffffffffffffffffff168173ffffffffffffffffffffffffffffffffffffffff167f8be0079c531659141344cd1fd0a4f28419497f9722a3daafe3b4186f6b6457e060405160405180910390a35050565b5f80fd5b5f73ffffffffffffffffffffffffffffffffffffffff82169050919050565b5f61028182610258565b9050919050565b5f61029282610277565b9050919050565b6102a281610288565b81146102ac575f80fd5b50565b5f815190506102bd81610299565b92915050565b5f602082840312156102d8576102d7610254565b5b5f6102e5848285016102af565b91505092915050565b6102f781610277565b82525050565b5f6020820190506103105f8301846102ee565b92915050565b5f81519050919050565b7f4e487b71000000000000000000000000000000000000000000000000000000005f52604160045260245ffd5b7f4e487b71000000000000000000000000000000000000000000000000000000005f52602260045260245ffd5b5f600282049050600182168061039157607f821691505b6020821081036103a4576103a361034d565b5b50919050565b5f819050815f5260205f209050919050565b5f6020601f8301049050919050565b5f82821b905092915050565b5f600883026104067fffffffffffffffffffffffffffffffffffffffffffffffffffffffffffffffff826103cb565b61041086836103cb565b95508019841693508086168417925050509392505050565b5f819050919050565b5f819050919050565b5f61045461044f61044a84610428565b610431565b610428565b9050919050565b5f819050919050565b61046d8361043a565b6104816104798261045b565b8484546103d7565b825550505050565b5f90565b610495610489565b6104a0818484610464565b505050565b5b818110156104c3576104b85f8261048d565b6001810190506104a6565b5050565b601f821115610508576104d9816103aa565b6104e2846103bc565b810160208510156104f1578190505b6105056104fd856103bc565b8301826104a5565b50505b505050565b5f82821c905092915050565b5f6105285f198460080261050d565b1980831691505092915050565b5f6105408383610519565b9150826002028217905092915050565b61055982610316565b67ffffffffffffffff81111561057257610571610320565b5b61057c825461037a565b6105878282856104c7565b5f60209050601f8311600181146105b8575f84156105a6578287015190505b6105b08582610535565b865550610617565b601f1984166105c6866103aa565b5f5b828110156105ed578489015182556001820191506020850194506020810190506105c8565b8683101561060a5784890151610606601f891682610519565b8355505b6001600288020188555050505b505050505050565b614f498061062c5f395ff3fe608060405234801561000f575f80fd5b50600436106101a7575f3560e01c806372f702f3116100f7578063a22cb46511610095578063c9d27afe1161006f578063c9d27afe146104d2578063e985e9c5146104ee578063f2fde38b1461051e578063fc0e3d901461053a576101a7565b8063a22cb4651461046a578063b88d4fde14610486578063c87b56dd146104a2576101a7565b8063817b1cd2116100d1578063817b1cd2146103df5780638da5cb5b146103fd578063908163021461041b57806395d89b411461044c576101a7565b806372f702f3146103875780637b0472f0146103a55780637bc74225146103c1576101a7565b80633ccfd60b116101645780635a55c1f01161013e5780635a55c1f0146102ed5780636352211e1461031d57806370a082311461034d578063715018a61461037d576101a7565b80633ccfd60b1461029757806342842e0e146102a1578063521de117146102bd576101a7565b806301ffc9a7146101ab57806306fdde03146101db578063081812fc146101f9578063095ea7b31461022957806312b1d5ac1461024557806323b872dd1461027b575b5f80fd5b6101c560048036038101906101c09190613207565b610558565b6040516101d2919061324c565b60405180910390f35b6101e3610639565b6040516101f091906132d5565b60405180910390f35b610213600480360381019061020e9190613328565b6106c9565b6040516102209190613392565b60405180910390f35b610243600480360381019061023e91906133d5565b6106e4565b005b61025f600480360381019061025a9190613328565b6106fa565b6040516102729796959493929190613495565b60405180910390f35b61029560048036038101906102909190613509565b6107d9565b005b61029f6108d8565b005b6102bb60048036038101906102b69190613509565b610bf1565b005b6102d760048036038101906102d29190613685565b610c10565b6040516102e491906136f1565b60405180910390f35b61030760048036038101906103029190613328565b610da4565b6040516103149190613809565b60405180910390f35b61033760048036038101906103329190613328565b610f24565b6040516103449190613392565b60405180910390f35b61036760048036038101906103629190613829565b610f35565b60405161037491906136f1565b60405180910390f35b610385610feb565b005b61038f610ffe565b60405161039c91906138af565b60405180910390f35b6103bf60048036038101906103ba91906138c8565b611023565b005b6103c961121b565b6040516103d691906136f1565b60405180910390f35b6103e7611224565b6040516103f491906136f1565b60405180910390f35b61040561122a565b6040516104129190613392565b60405180910390f35b610435600480360381019061043091906133d5565b611252565b604051610443929190613906565b60405180910390f35b61045461128c565b60405161046191906132d5565b60405180910390f35b610484600480360381019061047f9190613957565b61131c565b005b6104a0600480360381019061049b9190613a33565b611332565b005b6104bc60048036038101906104b79190613328565b611357565b6040516104c991906132d5565b60405180910390f35b6104ec60048036038101906104e79190613ab3565b6116c2565b005b61050860048036038101906105039190613af1565b611ac1565b604051610515919061324c565b60405180910390f35b61053860048036038101906105339190613829565b611b4f565b005b610542611bd3565b60405161054f9190613c04565b60405180910390f35b5f7f80ac58cd000000000000000000000000000000000000000000000000000000007bffffffffffffffffffffffffffffffffffffffffffffffffffffffff1916827bffffffffffffffffffffffffffffffffffffffffffffffffffffffff1916148061062257507f5b5e139f000000000000000000000000000000000000000000000000000000007bffffffffffffffffffffffffffffffffffffffffffffffffffffffff1916827bffffffffffffffffffffffffffffffffffffffffffffffffffffffff1916145b80610632575061063182611c7d565b5b9050919050565b60606007805461064890613c51565b80601f016020809104026020016040519081016040528092919081815260200182805461067490613c51565b80156106bf5780601f10610696576101008083540402835291602001916106bf565b820191905f5260205f20905b8154815290600101906020018083116106a257829003601f168201915b5050505050905090565b5f6106d382611ce6565b506106dd82611d6c565b9050919050565b6106f682826106f1611da5565b611dac565b5050565b60058181548110610709575f80fd5b905f5260205f2090600702015f91509050805f01549080600101549080600201805461073490613c51565b80601f016020809104026020016040519081016040528092919081815260200182805461076090613c51565b80156107ab5780601f10610782576101008083540402835291602001916107ab565b820191905f5260205f20905b81548152906001019060200180831161078e57829003601f168201915b505050505090806003015490806004015490806005015490806006015f9054906101000a900460ff16905087565b5f73ffffffffffffffffffffffffffffffffffffffff168273ffffffffffffffffffffffffffffffffffffffff1603610849575f6040517f64a0ae920000000000000000000000000000000000000000000000000000000081526004016108409190613392565b60405180910390fd5b5f61085c8383610857611da5565b611dbe565b90508373ffffffffffffffffffffffffffffffffffffffff168173ffffffffffffffffffffffffffffffffffffffff16146108d2578382826040517f64283d7b0000000000000000000000000000000000000000000000000000000081526004016108c993929190613c81565b60405180910390fd5b50505050565b6108e0611fc9565b5f60045f3373ffffffffffffffffffffffffffffffffffffffff1673ffffffffffffffffffffffffffffffffffffffff1681526020019081526020015f20805480602002602001604051908101604052809291908181526020015f905b82821015610980578382905f5260205f2090600202016040518060400160405290815f82015481526020016001820154815250508152602001906001019061093d565b5050505090505f805b8251811015610a9e575f8382815181106109a6576109a5613cb6565b5b6020026020010151602001511180156109db57505f8382815181106109ce576109cd613cb6565b5b60200260200101515f0151115b15610a91578281815181106109f3576109f2613cb6565b5b60200260200101515f015182610a099190613d10565b915060405180604001604052805f81526020015f81525060045f3373ffffffffffffffffffffffffffffffffffffffff1673ffffffffffffffffffffffffffffffffffffffff1681526020019081526020015f208281548110610a6f57610a6e613cb6565b5b905f5260205f2090600202015f820151815f0155602082015181600101559050505b8080600101915050610989565b505f60025f9054906101000a900473ffffffffffffffffffffffffffffffffffffffff1673ffffffffffffffffffffffffffffffffffffffff1663a9059cbb33846040518363ffffffff1660e01b8152600401610afc929190613d43565b6020604051808303815f875af1158015610b18573d5f803e3d5ffd5b505050506040513d601f19601f82011682018060405250810190610b3c9190613d7e565b905080610b7e576040517f08c379a0000000000000000000000000000000000000000000000000000000008152600401610b7590613df3565b60405180910390fd5b8160035f828254610b8f9190613e11565b925050819055503373ffffffffffffffffffffffffffffffffffffffff167f7084f5476618d8e60b11ef0d7d3f06914655adb8793e28ff7f018d4c76d505d583604051610bdc91906136f1565b60405180910390a2505050610bef612016565b565b610c0b83838360405180602001604052805f815250611332565b505050565b5f610c1961201f565b5f83118015610c285750606483105b610c67576040517f08c379a0000000000000000000000000000000000000000000000000000000008152600401610c5e90613eb4565b60405180910390fd5b60056040518060e001604052808481526020018581526020018681526020015f81526020015f81526020015f81526020015f6003811115610cab57610caa613422565b5b815250908060018154018082558091505060019003905f5260205f2090600702015f909190919091505f820151815f0155602082015181600101556040820151816002019081610cfb9190614066565b50606082015181600301556080820151816004015560a0820151816005015560c0820151816006015f6101000a81548160ff02191690836003811115610d4457610d43613422565b5b021790555050505f6001600580549050610d5e9190613e11565b90507f943cfc0d7b4164938034ad7c61b07bdf41a31b881a7ac54cb1e71b56ee9ebcb38582604051610d91929190614135565b60405180910390a1809150509392505050565b610dac613158565b81600580549050808210610df5576040517f08c379a0000000000000000000000000000000000000000000000000000000008152600401610dec906141ad565b60405180910390fd5b60058481548110610e0957610e08613cb6565b5b905f5260205f2090600702016040518060e00160405290815f820154815260200160018201548152602001600282018054610e4390613c51565b80601f0160208091040260200160405190810160405280929190818152602001828054610e6f90613c51565b8015610eba5780601f10610e9157610100808354040283529160200191610eba565b820191905f5260205f20905b815481529060010190602001808311610e9d57829003601f168201915b50505050508152602001600382015481526020016004820154815260200160058201548152602001600682015f9054906101000a900460ff166003811115610f0557610f04613422565b5b6003811115610f1757610f16613422565b5b8152505092505050919050565b5f610f2e82611ce6565b9050919050565b5f8073ffffffffffffffffffffffffffffffffffffffff168273ffffffffffffffffffffffffffffffffffffffff1603610fa6575f6040517f89c62b64000000000000000000000000000000000000000000000000000000008152600401610f9d9190613392565b60405180910390fd5b600a5f8373ffffffffffffffffffffffffffffffffffffffff1673ffffffffffffffffffffffffffffffffffffffff1681526020019081526020015f20549050919050565b610ff361201f565b610ffc5f6120a6565b565b60025f9054906101000a900473ffffffffffffffffffffffffffffffffffffffff1681565b61102b611fc9565b5f604051806040016040528084815260200183426110499190613d10565b815250905060045f3373ffffffffffffffffffffffffffffffffffffffff1673ffffffffffffffffffffffffffffffffffffffff1681526020019081526020015f2081908060018154018082558091505060019003905f5260205f2090600202015f909190919091505f820151815f01556020820151816001015550505f60025f9054906101000a900473ffffffffffffffffffffffffffffffffffffffff1673ffffffffffffffffffffffffffffffffffffffff166323b872dd3330876040518463ffffffff1660e01b8152600401611125939291906141cb565b6020604051808303815f875af1158015611141573d5f803e3d5ffd5b505050506040513d601f19601f820116820180604052508101906111659190613d7e565b9050806111a7576040517f08c379a000000000000000000000000000000000000000000000000000000000815260040161119e90613df3565b60405180910390fd5b8360035f8282546111b89190613d10565b925050819055503373ffffffffffffffffffffffffffffffffffffffff167f9e71bc8eea02a63969f509818f2dafb9254532904319f9dbda79b67bd34a5f3d8560405161120591906136f1565b60405180910390a25050611217612016565b5050565b5f600354905090565b60035481565b5f60015f9054906101000a900473ffffffffffffffffffffffffffffffffffffffff16905090565b6004602052815f5260405f20818154811061126b575f80fd5b905f5260205f2090600202015f9150915050805f0154908060010154905082565b60606008805461129b90613c51565b80601f01602080910402602001604051908101604052809291908181526020018280546112c790613c51565b80156113125780601f106112e957610100808354040283529160200191611312565b820191905f5260205f20905b8154815290600101906020018083116112f557829003601f168201915b5050505050905090565b61132e611327611da5565b8383612169565b5050565b61133d8484846107d9565b611351611348611da5565b858585856122d2565b50505050565b60605f6005838154811061136e5761136d613cb6565b5b905f5260205f209060070201905060606001600381111561139257611391613422565b5b826006015f9054906101000a900460ff1660038111156113b5576113b4613422565b5b036113f7576040518060400160405280600381526020017f596573000000000000000000000000000000000000000000000000000000000081525090506114aa565b6002600381111561140b5761140a613422565b5b826006015f9054906101000a900460ff16600381111561142e5761142d613422565b5b03611470576040518060400160405280600281526020017f4e6f00000000000000000000000000000000000000000000000000000000000081525090506114a9565b6040518060400160405280600981526020017f496e50726f63657373000000000000000000000000000000000000000000000081525090505b5b5f6114b48561247e565b836002016114c5856004015461247e565b6114d2866005015461247e565b6114df876003015461247e565b866040516020016114f596959493929190614558565b60405160208183030381529060405290505f61152060065f8881526020019081526020015f20612548565b90505f811115611668578160405160200161153b919061466c565b60405160208183030381529060405291505f5b81811015611644575f8061157b8360065f8c81526020019081526020015f2061255b90919063ffffffff16565b915091505f8311156115aa578460405160200161159891906146d7565b60405160208183030381529060405294505b846115b483612582565b6115bd8361247e565b6040516020016115cf93929190614742565b6040516020818303038152906040529450600983101580156115f15750600a84115b15611635578461160c600a866116079190613e11565b61247e565b60405160200161161d9291906147a0565b60405160208183030381529060405294505050611644565b5050808060010191505061154e565b508160405160200161165691906147d9565b60405160208183030381529060405291505b816040516020016116799190614844565b60405160208183030381529060405291505f61169483612809565b9050806040516020016116a791906148af565b60405160208183030381529060405295505050505050919050565b8160058054905080821061170b576040517f08c379a0000000000000000000000000000000000000000000000000000000008152600401611702906141ad565b60405180910390fd5b61172e3360065f8781526020019081526020015f2061283690919063ffffffff16565b1561176e576040517f08c379a00000000000000000000000000000000000000000000000000000000081526004016117659061491a565b60405180910390fd5b5f6005858154811061178357611782613cb6565b5b905f5260205f2090600702016040518060e00160405290815f8201548152602001600182015481526020016002820180546117bd90613c51565b80601f01602080910402602001604051908101604052809291908181526020018280546117e990613c51565b80156118345780601f1061180b57610100808354040283529160200191611834565b820191905f5260205f20905b81548152906001019060200180831161181757829003601f168201915b50505050508152602001600382015481526020016004820154815260200160058201548152602001600682015f9054906101000a900460ff16600381111561187f5761187e613422565b5b600381111561189157611890613422565b5b8152505090505f60038111156118aa576118a9613422565b5b8160c0015160038111156118c1576118c0613422565b5b14611901576040517f08c379a00000000000000000000000000000000000000000000000000000000081526004016118f890614982565b60405180910390fd5b5f61190a611bd3565b90505f61191682612863565b90505f810361195a576040517f08c379a0000000000000000000000000000000000000000000000000000000008152600401611951906149ea565b60405180910390fd5b85156119b75780836080018181516119729190613d10565b915081815250506119b1336001600281111561199157611990613422565b5b60065f8b81526020019081526020015f206128d59092919063ffffffff16565b50611a09565b808360a0018181516119c99190613d10565b91508181525050611a07336002808111156119e7576119e6613422565b5b60065f8b81526020019081526020015f206128d59092919063ffffffff16565b505b826060018051809190611a1b90614a08565b815250508260058881548110611a3457611a33613cb6565b5b905f5260205f2090600702015f820151815f0155602082015181600101556040820151816002019081611a679190614066565b50606082015181600301556080820151816004015560a0820151816005015560c0820151816006015f6101000a81548160ff02191690836003811115611ab057611aaf613422565b5b021790555090505050505050505050565b5f600c5f8473ffffffffffffffffffffffffffffffffffffffff1673ffffffffffffffffffffffffffffffffffffffff1681526020019081526020015f205f8373ffffffffffffffffffffffffffffffffffffffff1673ffffffffffffffffffffffffffffffffffffffff1681526020019081526020015f205f9054906101000a900460ff16905092915050565b611b5761201f565b5f73ffffffffffffffffffffffffffffffffffffffff168173ffffffffffffffffffffffffffffffffffffffff1603611bc7575f6040517f1e4fbdf7000000000000000000000000000000000000000000000000000000008152600401611bbe9190613392565b60405180910390fd5b611bd0816120a6565b50565b606060045f3373ffffffffffffffffffffffffffffffffffffffff1673ffffffffffffffffffffffffffffffffffffffff1681526020019081526020015f20805480602002602001604051908101604052809291908181526020015f905b82821015611c74578382905f5260205f2090600202016040518060400160405290815f820154815260200160018201548152505081526020019060010190611c31565b50505050905090565b5f7f01ffc9a7000000000000000000000000000000000000000000000000000000007bffffffffffffffffffffffffffffffffffffffffffffffffffffffff1916827bffffffffffffffffffffffffffffffffffffffffffffffffffffffff1916149050919050565b5f80611cf183612906565b90505f73ffffffffffffffffffffffffffffffffffffffff168173ffffffffffffffffffffffffffffffffffffffff1603611d6357826040517f7e273289000000000000000000000000000000000000000000000000000000008152600401611d5a91906136f1565b60405180910390fd5b80915050919050565b5f600b5f8381526020019081526020015f205f9054906101000a900473ffffffffffffffffffffffffffffffffffffffff169050919050565b5f33905090565b611db9838383600161293f565b505050565b5f80611dc984612906565b90505f73ffffffffffffffffffffffffffffffffffffffff168373ffffffffffffffffffffffffffffffffffffffff1614611e0a57611e09818486612afe565b5b5f73ffffffffffffffffffffffffffffffffffffffff168173ffffffffffffffffffffffffffffffffffffffff1614611e9557611e495f855f8061293f565b6001600a5f8373ffffffffffffffffffffffffffffffffffffffff1673ffffffffffffffffffffffffffffffffffffffff1681526020019081526020015f205f82825403925050819055505b5f73ffffffffffffffffffffffffffffffffffffffff168573ffffffffffffffffffffffffffffffffffffffff1614611f14576001600a5f8773ffffffffffffffffffffffffffffffffffffffff1673ffffffffffffffffffffffffffffffffffffffff1681526020019081526020015f205f82825401925050819055505b8460095f8681526020019081526020015f205f6101000a81548173ffffffffffffffffffffffffffffffffffffffff021916908373ffffffffffffffffffffffffffffffffffffffff160217905550838573ffffffffffffffffffffffffffffffffffffffff168273ffffffffffffffffffffffffffffffffffffffff167fddf252ad1be2c89b69c2b068fc378daa952ba7f163c4a11628f55a4df523b3ef60405160405180910390a4809150509392505050565b60025f540361200d576040517f08c379a000000000000000000000000000000000000000000000000000000000815260040161200490614a99565b60405180910390fd5b60025f81905550565b60015f81905550565b612027611da5565b73ffffffffffffffffffffffffffffffffffffffff1661204561122a565b73ffffffffffffffffffffffffffffffffffffffff16146120a457612068611da5565b6040517f118cdaa700000000000000000000000000000000000000000000000000000000815260040161209b9190613392565b60405180910390fd5b565b5f60015f9054906101000a900473ffffffffffffffffffffffffffffffffffffffff1690508160015f6101000a81548173ffffffffffffffffffffffffffffffffffffffff021916908373ffffffffffffffffffffffffffffffffffffffff1602179055508173ffffffffffffffffffffffffffffffffffffffff168173ffffffffffffffffffffffffffffffffffffffff167f8be0079c531659141344cd1fd0a4f28419497f9722a3daafe3b4186f6b6457e060405160405180910390a35050565b5f73ffffffffffffffffffffffffffffffffffffffff168273ffffffffffffffffffffffffffffffffffffffff16036121d957816040517f5b08ba180000000000000000000000000000000000000000000000000000000081526004016121d09190613392565b60405180910390fd5b80600c5f8573ffffffffffffffffffffffffffffffffffffffff1673ffffffffffffffffffffffffffffffffffffffff1681526020019081526020015f205f8473ffffffffffffffffffffffffffffffffffffffff1673ffffffffffffffffffffffffffffffffffffffff1681526020019081526020015f205f6101000a81548160ff0219169083151502179055508173ffffffffffffffffffffffffffffffffffffffff168373ffffffffffffffffffffffffffffffffffffffff167f17307eab39ab6107e8899845ad3d59bd9653f200f220920489ca2b5937696c31836040516122c5919061324c565b60405180910390a3505050565b5f8373ffffffffffffffffffffffffffffffffffffffff163b1115612477578273ffffffffffffffffffffffffffffffffffffffff1663150b7a02868685856040518563ffffffff1660e01b81526004016123309493929190614b09565b6020604051808303815f875af192505050801561236b57506040513d601f19601f820116820180604052508101906123689190614b67565b60015b6123ec573d805f8114612399576040519150601f19603f3d011682016040523d82523d5f602084013e61239e565b606091505b505f8151036123e457836040517f64a0ae920000000000000000000000000000000000000000000000000000000081526004016123db9190613392565b60405180910390fd5b805181602001fd5b63150b7a0260e01b7bffffffffffffffffffffffffffffffffffffffffffffffffffffffff1916817bffffffffffffffffffffffffffffffffffffffffffffffffffffffff19161461247557836040517f64a0ae9200000000000000000000000000000000000000000000000000000000815260040161246c9190613392565b60405180910390fd5b505b5050505050565b60605f600161248c84612bc1565b0190505f8167ffffffffffffffff8111156124aa576124a9613561565b5b6040519080825280601f01601f1916602001820160405280156124dc5781602001600182028036833780820191505090505b5090505f82602001820190505b60011561253d578080600190039150507f3031323334353637383961626364656600000000000000000000000000000000600a86061a8153600a858161253257612531614b92565b5b0494505f85036124e9575b819350505050919050565b5f612554825f01612d12565b9050919050565b5f805f8061256b865f0186612d25565b91509150815f1c815f1c9350935050509250929050565b60605f602a67ffffffffffffffff8111156125a05761259f613561565b5b6040519080825280601f01601f1916602001820160405280156125d25781602001600182028036833780820191505090505b5090507f3000000000000000000000000000000000000000000000000000000000000000815f8151811061260957612608613cb6565b5b60200101907effffffffffffffffffffffffffffffffffffffffffffffffffffffffffffff191690815f1a9053507f78000000000000000000000000000000000000000000000000000000000000008160018151811061266c5761266b613cb6565b5b60200101907effffffffffffffffffffffffffffffffffffffffffffffffffffffffffffff191690815f1a9053505f5b60148110156127ff575f8160136126b39190613e11565b60086126bf9190614bbf565b60026126cb9190614d2f565b8573ffffffffffffffffffffffffffffffffffffffff166126ec9190614d79565b60f81b90505f60108260f81c6127029190614db5565b60f81b90505f8160f81c60106127189190614de5565b8360f81c6127269190614e21565b60f81b905061273482612d60565b8560028660026127449190614bbf565b61274e9190613d10565b8151811061275f5761275e613cb6565b5b60200101907effffffffffffffffffffffffffffffffffffffffffffffffffffffffffffff191690815f1a90535061279681612d60565b8560038660026127a69190614bbf565b6127b09190613d10565b815181106127c1576127c0613cb6565b5b60200101907effffffffffffffffffffffffffffffffffffffffffffffffffffffffffffff191690815f1a905350505050808060010191505061269c565b5080915050919050565b606061282f82604051806060016040528060408152602001614ed4604091396001612da5565b9050919050565b5f61285b835f018373ffffffffffffffffffffffffffffffffffffffff165f1b612f34565b905092915050565b5f805f90505f5b83518110156128cb575f84828151811061288757612886613cb6565b5b60200260200101519050600281602001516128a29190614e55565b815f01516128b09190614bbf565b836128bb9190613d10565b925050808060010191505061286a565b5080915050919050565b5f6128fd845f018473ffffffffffffffffffffffffffffffffffffffff165f1b845f1b612f52565b90509392505050565b5f60095f8381526020019081526020015f205f9054906101000a900473ffffffffffffffffffffffffffffffffffffffff169050919050565b808061297757505f73ffffffffffffffffffffffffffffffffffffffff168273ffffffffffffffffffffffffffffffffffffffff1614155b15612aa9575f61298684611ce6565b90505f73ffffffffffffffffffffffffffffffffffffffff168373ffffffffffffffffffffffffffffffffffffffff16141580156129f057508273ffffffffffffffffffffffffffffffffffffffff168173ffffffffffffffffffffffffffffffffffffffff1614155b8015612a035750612a018184611ac1565b155b15612a4557826040517fa9fbf51f000000000000000000000000000000000000000000000000000000008152600401612a3c9190613392565b60405180910390fd5b8115612aa757838573ffffffffffffffffffffffffffffffffffffffff168273ffffffffffffffffffffffffffffffffffffffff167f8c5be1e5ebec7d5bd14f71427d1e84f3dd0314c0f7b2291e5b200ac8c7c3b92560405160405180910390a45b505b83600b5f8581526020019081526020015f205f6101000a81548173ffffffffffffffffffffffffffffffffffffffff021916908373ffffffffffffffffffffffffffffffffffffffff16021790555050505050565b612b09838383612f89565b612bbc575f73ffffffffffffffffffffffffffffffffffffffff168373ffffffffffffffffffffffffffffffffffffffff1603612b7d57806040517f7e273289000000000000000000000000000000000000000000000000000000008152600401612b7491906136f1565b60405180910390fd5b81816040517f177e802f000000000000000000000000000000000000000000000000000000008152600401612bb3929190613d43565b60405180910390fd5b505050565b5f805f90507a184f03e93ff9f4daa797ed6e38ed64bf6a1f0100000000000000008310612c1d577a184f03e93ff9f4daa797ed6e38ed64bf6a1f0100000000000000008381612c1357612c12614b92565b5b0492506040810190505b6d04ee2d6d415b85acef81000000008310612c5a576d04ee2d6d415b85acef81000000008381612c5057612c4f614b92565b5b0492506020810190505b662386f26fc100008310612c8957662386f26fc100008381612c7f57612c7e614b92565b5b0492506010810190505b6305f5e1008310612cb2576305f5e1008381612ca857612ca7614b92565b5b0492506008810190505b6127108310612cd7576127108381612ccd57612ccc614b92565b5b0492506004810190505b60648310612cfa5760648381612cf057612cef614b92565b5b0492506002810190505b600a8310612d09576001810190505b80915050919050565b5f612d1e825f01613049565b9050919050565b5f805f612d3d84865f0161305c90919063ffffffff16565b905080856002015f8381526020019081526020015f205492509250509250929050565b5f600a8260f81c60ff161015612d8a5760308260f81c612d809190614e9f565b60f81b9050612da0565b60578260f81c612d9a9190614e9f565b60f81b90505b919050565b60605f845103612dc55760405180602001604052805f8152509050612f2d565b5f82612df6576003600286516004612ddd9190614bbf565b612de79190613d10565b612df19190614d79565b612e1d565b600360028651612e069190613d10565b612e109190614d79565b6004612e1c9190614bbf565b5b90505f8167ffffffffffffffff811115612e3a57612e39613561565b5b6040519080825280601f01601f191660200182016040528015612e6c5781602001600182028036833780820191505090505b509050600185016020820187885189016020810180515f82525b82841015612ee1576003840193508351603f8160121c168701518653600186019550603f81600c1c168701518653600186019550603f8160061c168701518653600186019550603f8116870151865360018601955050612e86565b8082528915612f215760038c510660018114612f045760028114612f1757612f1f565b603d6001870353603d6002870353612f1f565b603d60018703535b505b50505050505080925050505b9392505050565b5f612f4a82845f0161307190919063ffffffff16565b905092915050565b5f81846002015f8581526020019081526020015f2081905550612f8083855f0161308690919063ffffffff16565b90509392505050565b5f8073ffffffffffffffffffffffffffffffffffffffff168373ffffffffffffffffffffffffffffffffffffffff161415801561304057508273ffffffffffffffffffffffffffffffffffffffff168473ffffffffffffffffffffffffffffffffffffffff16148061300157506130008484611ac1565b5b8061303f57508273ffffffffffffffffffffffffffffffffffffffff1661302783611d6c565b73ffffffffffffffffffffffffffffffffffffffff16145b5b90509392505050565b5f613055825f0161309b565b9050919050565b5f613069835f01836130aa565b905092915050565b5f61307e835f01836130d1565b905092915050565b5f613093835f01836130f1565b905092915050565b5f815f01805490509050919050565b5f825f0182815481106130c0576130bf613cb6565b5b905f5260205f200154905092915050565b5f80836001015f8481526020019081526020015f20541415905092915050565b5f6130fc83836130d1565b61314e57825f0182908060018154018082558091505060019003905f5260205f20015f9091909190915055825f0180549050836001015f8481526020019081526020015f208190555060019050613152565b5f90505b92915050565b6040518060e001604052805f81526020015f8152602001606081526020015f81526020015f81526020015f81526020015f600381111561319b5761319a613422565b5b81525090565b5f604051905090565b5f80fd5b5f80fd5b5f7fffffffff0000000000000000000000000000000000000000000000000000000082169050919050565b6131e6816131b2565b81146131f0575f80fd5b50565b5f81359050613201816131dd565b92915050565b5f6020828403121561321c5761321b6131aa565b5b5f613229848285016131f3565b91505092915050565b5f8115159050919050565b61324681613232565b82525050565b5f60208201905061325f5f83018461323d565b92915050565b5f81519050919050565b5f82825260208201905092915050565b8281835e5f83830152505050565b5f601f19601f8301169050919050565b5f6132a782613265565b6132b1818561326f565b93506132c181856020860161327f565b6132ca8161328d565b840191505092915050565b5f6020820190508181035f8301526132ed818461329d565b905092915050565b5f819050919050565b613307816132f5565b8114613311575f80fd5b50565b5f81359050613322816132fe565b92915050565b5f6020828403121561333d5761333c6131aa565b5b5f61334a84828501613314565b91505092915050565b5f73ffffffffffffffffffffffffffffffffffffffff82169050919050565b5f61337c82613353565b9050919050565b61338c81613372565b82525050565b5f6020820190506133a55f830184613383565b92915050565b6133b481613372565b81146133be575f80fd5b50565b5f813590506133cf816133ab565b92915050565b5f80604083850312156133eb576133ea6131aa565b5b5f6133f8858286016133c1565b925050602061340985828601613314565b9150509250929050565b61341c816132f5565b82525050565b7f4e487b71000000000000000000000000000000000000000000000000000000005f52602160045260245ffd5b600481106134605761345f613422565b5b50565b5f8190506134708261344f565b919050565b5f61347f82613463565b9050919050565b61348f81613475565b82525050565b5f60e0820190506134a85f83018a613413565b6134b56020830189613413565b81810360408301526134c7818861329d565b90506134d66060830187613413565b6134e36080830186613413565b6134f060a0830185613413565b6134fd60c0830184613486565b98975050505050505050565b5f805f606084860312156135205761351f6131aa565b5b5f61352d868287016133c1565b935050602061353e868287016133c1565b925050604061354f86828701613314565b9150509250925092565b5f80fd5b5f80fd5b7f4e487b71000000000000000000000000000000000000000000000000000000005f52604160045260245ffd5b6135978261328d565b810181811067ffffffffffffffff821117156135b6576135b5613561565b5b80604052505050565b5f6135c86131a1565b90506135d4828261358e565b919050565b5f67ffffffffffffffff8211156135f3576135f2613561565b5b6135fc8261328d565b9050602081019050919050565b828183375f83830152505050565b5f613629613624846135d9565b6135bf565b9050828152602081018484840111156136455761364461355d565b5b613650848285613609565b509392505050565b5f82601f83011261366c5761366b613559565b5b813561367c848260208601613617565b91505092915050565b5f805f6060848603121561369c5761369b6131aa565b5b5f84013567ffffffffffffffff8111156136b9576136b86131ae565b5b6136c586828701613658565b93505060206136d686828701613314565b92505060406136e786828701613314565b9150509250925092565b5f6020820190506137045f830184613413565b92915050565b613713816132f5565b82525050565b5f82825260208201905092915050565b5f61373382613265565b61373d8185613719565b935061374d81856020860161327f565b6137568161328d565b840191505092915050565b61376a81613475565b82525050565b5f60e083015f8301516137855f86018261370a565b506020830151613798602086018261370a565b50604083015184820360408601526137b08282613729565b91505060608301516137c5606086018261370a565b5060808301516137d8608086018261370a565b5060a08301516137eb60a086018261370a565b5060c08301516137fe60c0860182613761565b508091505092915050565b5f6020820190508181035f8301526138218184613770565b905092915050565b5f6020828403121561383e5761383d6131aa565b5b5f61384b848285016133c1565b91505092915050565b5f819050919050565b5f61387761387261386d84613353565b613854565b613353565b9050919050565b5f6138888261385d565b9050919050565b5f6138998261387e565b9050919050565b6138a98161388f565b82525050565b5f6020820190506138c25f8301846138a0565b92915050565b5f80604083850312156138de576138dd6131aa565b5b5f6138eb85828601613314565b92505060206138fc85828601613314565b9150509250929050565b5f6040820190506139195f830185613413565b6139266020830184613413565b9392505050565b61393681613232565b8114613940575f80fd5b50565b5f813590506139518161392d565b92915050565b5f806040838503121561396d5761396c6131aa565b5b5f61397a858286016133c1565b925050602061398b85828601613943565b9150509250929050565b5f67ffffffffffffffff8211156139af576139ae613561565b5b6139b88261328d565b9050602081019050919050565b5f6139d76139d284613995565b6135bf565b9050828152602081018484840111156139f3576139f261355d565b5b6139fe848285613609565b509392505050565b5f82601f830112613a1a57613a19613559565b5b8135613a2a8482602086016139c5565b91505092915050565b5f805f8060808587031215613a4b57613a4a6131aa565b5b5f613a58878288016133c1565b9450506020613a69878288016133c1565b9350506040613a7a87828801613314565b925050606085013567ffffffffffffffff811115613a9b57613a9a6131ae565b5b613aa787828801613a06565b91505092959194509250565b5f8060408385031215613ac957613ac86131aa565b5b5f613ad685828601613314565b9250506020613ae785828601613943565b9150509250929050565b5f8060408385031215613b0757613b066131aa565b5b5f613b14858286016133c1565b9250506020613b25858286016133c1565b9150509250929050565b5f81519050919050565b5f82825260208201905092915050565b5f819050602082019050919050565b604082015f820151613b6c5f85018261370a565b506020820151613b7f602085018261370a565b50505050565b5f613b908383613b58565b60408301905092915050565b5f602082019050919050565b5f613bb282613b2f565b613bbc8185613b39565b9350613bc783613b49565b805f5b83811015613bf7578151613bde8882613b85565b9750613be983613b9c565b925050600181019050613bca565b5085935050505092915050565b5f6020820190508181035f830152613c1c8184613ba8565b905092915050565b7f4e487b71000000000000000000000000000000000000000000000000000000005f52602260045260245ffd5b5f6002820490506001821680613c6857607f821691505b602082108103613c7b57613c7a613c24565b5b50919050565b5f606082019050613c945f830186613383565b613ca16020830185613413565b613cae6040830184613383565b949350505050565b7f4e487b71000000000000000000000000000000000000000000000000000000005f52603260045260245ffd5b7f4e487b71000000000000000000000000000000000000000000000000000000005f52601160045260245ffd5b5f613d1a826132f5565b9150613d25836132f5565b9250828201905080821115613d3d57613d3c613ce3565b5b92915050565b5f604082019050613d565f830185613383565b613d636020830184613413565b9392505050565b5f81519050613d788161392d565b92915050565b5f60208284031215613d9357613d926131aa565b5b5f613da084828501613d6a565b91505092915050565b7f5472616e73666572206661696c656400000000000000000000000000000000005f82015250565b5f613ddd600f8361326f565b9150613de882613da9565b602082019050919050565b5f6020820190508181035f830152613e0a81613dd1565b9050919050565b5f613e1b826132f5565b9150613e26836132f5565b9250828203905081811115613e3e57613e3d613ce3565b5b92915050565b7f7468726573686f6c64206d75737420626520696e2030202d203130302072616e5f8201527f6765000000000000000000000000000000000000000000000000000000000000602082015250565b5f613e9e60228361326f565b9150613ea982613e44565b604082019050919050565b5f6020820190508181035f830152613ecb81613e92565b9050919050565b5f819050815f5260205f209050919050565b5f6020601f8301049050919050565b5f82821b905092915050565b5f60088302613f2e7fffffffffffffffffffffffffffffffffffffffffffffffffffffffffffffffff82613ef3565b613f388683613ef3565b95508019841693508086168417925050509392505050565b5f613f6a613f65613f60846132f5565b613854565b6132f5565b9050919050565b5f819050919050565b613f8383613f50565b613f97613f8f82613f71565b848454613eff565b825550505050565b5f90565b613fab613f9f565b613fb6818484613f7a565b505050565b5b81811015613fd957613fce5f82613fa3565b600181019050613fbc565b5050565b601f82111561401e57613fef81613ed2565b613ff884613ee4565b81016020851015614007578190505b61401b61401385613ee4565b830182613fbb565b50505b505050565b5f82821c905092915050565b5f61403e5f1984600802614023565b1980831691505092915050565b5f614056838361402f565b9150826002028217905092915050565b61406f82613265565b67ffffffffffffffff81111561408857614087613561565b5b6140928254613c51565b61409d828285613fdd565b5f60209050601f8311600181146140ce575f84156140bc578287015190505b6140c6858261404b565b86555061412d565b601f1984166140dc86613ed2565b5f5b82811015614103578489015182556001820191506020850194506020810190506140de565b86831015614120578489015161411c601f89168261402f565b8355505b6001600288020188555050505b505050505050565b5f6040820190508181035f83015261414d818561329d565b905061415c6020830184613413565b9392505050565b7f496e646578206f7574206f6620626f756e6473000000000000000000000000005f82015250565b5f61419760138361326f565b91506141a282614163565b602082019050919050565b5f6020820190508181035f8301526141c48161418b565b9050919050565b5f6060820190506141de5f830186613383565b6141eb6020830185613383565b6141f86040830184613413565b949350505050565b5f81905092915050565b7f7b226e616d65223a2022566f74652023000000000000000000000000000000005f82015250565b5f61423e601083614200565b91506142498261420a565b601082019050919050565b5f61425e82613265565b6142688185614200565b935061427881856020860161327f565b80840191505092915050565b7f222c20226465736372697074696f6e223a2022000000000000000000000000005f82015250565b5f6142b8601383614200565b91506142c382614284565b601382019050919050565b5f81546142da81613c51565b6142e48186614200565b9450600182165f81146142fe576001811461431357614345565b60ff1983168652811515820286019350614345565b61431c85613ed2565b5f5b8381101561433d5781548189015260018201915060208101905061431e565b838801955050505b50505092915050565b7f222c202261747472696275746573223a205b7b2274726169745f74797065223a5f8201527f202259657320566f746573222c202276616c7565223a20220000000000000000602082015250565b5f6143a8603883614200565b91506143b38261434e565b603882019050919050565b7f227d2c207b2274726169745f74797065223a20224e6f20566f746573222c20225f8201527f76616c7565223a20220000000000000000000000000000000000000000000000602082015250565b5f614418602983614200565b9150614423826143be565b602982019050919050565b7f227d2c207b2274726169745f74797065223a202250656f706c6520566f7465645f8201527f222c202276616c7565223a202200000000000000000000000000000000000000602082015250565b5f614488602d83614200565b91506144938261442e565b602d82019050919050565b7f227d2c207b2274726169745f74797065223a20224465636973696f6e222c20225f8201527f76616c7565223a20220000000000000000000000000000000000000000000000602082015250565b5f6144f8602983614200565b91506145038261449e565b602982019050919050565b7f227d0000000000000000000000000000000000000000000000000000000000005f82015250565b5f614542600283614200565b915061454d8261450e565b600282019050919050565b5f61456282614232565b915061456e8289614254565b9150614579826142ac565b915061458582886142ce565b91506145908261439c565b915061459c8287614254565b91506145a78261440c565b91506145b38286614254565b91506145be8261447c565b91506145ca8285614254565b91506145d5826144ec565b91506145e18284614254565b91506145ec82614536565b9150819050979650505050505050565b7f2c207b2274726169745f74797065223a2022566f746572732044657461696c225f8201527f2c202276616c7565223a20220000000000000000000000000000000000000000602082015250565b5f614656602c83614200565b9150614661826145fc565b602c82019050919050565b5f6146778284614254565b91506146828261464a565b915081905092915050565b7f2c200000000000000000000000000000000000000000000000000000000000005f82015250565b5f6146c1600283614200565b91506146cc8261468d565b600282019050919050565b5f6146e28284614254565b91506146ed826146b5565b915081905092915050565b7f3a200000000000000000000000000000000000000000000000000000000000005f82015250565b5f61472c600283614200565b9150614737826146f8565b600282019050919050565b5f61474d8286614254565b91506147598285614254565b915061476482614720565b91506147708284614254565b9150819050949350505050565b50565b5f61478b5f83614200565b91506147968261477d565b5f82019050919050565b5f6147ab8285614254565b91506147b682614780565b91506147c28284614254565b91506147cd82614780565b91508190509392505050565b5f6147e48284614254565b91506147ef82614536565b915081905092915050565b7f5d7d0000000000000000000000000000000000000000000000000000000000005f82015250565b5f61482e600283614200565b9150614839826147fa565b600282019050919050565b5f61484f8284614254565b915061485a82614822565b915081905092915050565b7f646174613a6170706c69636174696f6e2f6a736f6e3b6261736536342c0000005f82015250565b5f614899601d83614200565b91506148a482614865565b601d82019050919050565b5f6148b98261488d565b91506148c58284614254565b915081905092915050565b7f596f75206861766520616c726561647920766f7465642e0000000000000000005f82015250565b5f61490460178361326f565b915061490f826148d0565b602082019050919050565b5f6020820190508181035f830152614931816148f8565b9050919050565b7f566f74696e67206e6f7420696e2070726f6365737300000000000000000000005f82015250565b5f61496c60158361326f565b915061497782614938565b602082019050919050565b5f6020820190508181035f83015261499981614960565b9050919050565b7f5a65726f20766f74696e6720706f7765720000000000000000000000000000005f82015250565b5f6149d460118361326f565b91506149df826149a0565b602082019050919050565b5f6020820190508181035f830152614a01816149c8565b9050919050565b5f614a12826132f5565b91507fffffffffffffffffffffffffffffffffffffffffffffffffffffffffffffffff8203614a4457614a43613ce3565b5b600182019050919050565b7f5265656e7472616e637947756172643a207265656e7472616e742063616c6c005f82015250565b5f614a83601f8361326f565b9150614a8e82614a4f565b602082019050919050565b5f6020820190508181035f830152614ab081614a77565b9050919050565b5f81519050919050565b5f82825260208201905092915050565b5f614adb82614ab7565b614ae58185614ac1565b9350614af581856020860161327f565b614afe8161328d565b840191505092915050565b5f608082019050614b1c5f830187613383565b614b296020830186613383565b614b366040830185613413565b8181036060830152614b488184614ad1565b905095945050505050565b5f81519050614b61816131dd565b92915050565b5f60208284031215614b7c57614b7b6131aa565b5b5f614b8984828501614b53565b91505092915050565b7f4e487b71000000000000000000000000000000000000000000000000000000005f52601260045260245ffd5b5f614bc9826132f5565b9150614bd4836132f5565b9250828202614be2816132f5565b91508282048414831517614bf957614bf8613ce3565b5b5092915050565b5f8160011c9050919050565b5f808291508390505b6001851115614c5557808604811115614c3157614c30613ce3565b5b6001851615614c405780820291505b8081029050614c4e85614c00565b9450614c15565b94509492505050565b5f82614c6d5760019050614d28565b81614c7a575f9050614d28565b8160018114614c905760028114614c9a57614cc9565b6001915050614d28565b60ff841115614cac57614cab613ce3565b5b8360020a915084821115614cc357614cc2613ce3565b5b50614d28565b5060208310610133831016604e8410600b8410161715614cfe5782820a905083811115614cf957614cf8613ce3565b5b614d28565b614d0b8484846001614c0c565b92509050818404811115614d2257614d21613ce3565b5b81810290505b9392505050565b5f614d39826132f5565b9150614d44836132f5565b9250614d717fffffffffffffffffffffffffffffffffffffffffffffffffffffffffffffffff8484614c5e565b905092915050565b5f614d83826132f5565b9150614d8e836132f5565b925082614d9e57614d9d614b92565b5b828204905092915050565b5f60ff82169050919050565b5f614dbf82614da9565b9150614dca83614da9565b925082614dda57614dd9614b92565b5b828204905092915050565b5f614def82614da9565b9150614dfa83614da9565b9250828202614e0881614da9565b9150808214614e1a57614e19613ce3565b5b5092915050565b5f614e2b82614da9565b9150614e3683614da9565b9250828203905060ff811115614e4f57614e4e613ce3565b5b92915050565b5f614e5f826132f5565b9150614e6a83614da9565b9250614e977fffffffffffffffffffffffffffffffffffffffffffffffffffffffffffffffff8484614c5e565b905092915050565b5f614ea982614da9565b9150614eb483614da9565b9250828201905060ff811115614ecd57614ecc613ce3565b5b9291505056fe4142434445464748494a4b4c4d4e4f505152535455565758595a6162636465666768696a6b6c6d6e6f707172737475767778797a303132333435363738392b2fa2646970667358221220e2925905eacf8814e4d007e2e66a2577cb167ae7990b82c925a719ba0fb1eb1264736f6c634300081a0033",
			"opcodes": "PUSH1 0x80 PUSH1 0x40 MSTORE CALLVALUE DUP1 ISZERO PUSH2 0xF JUMPI PUSH0 DUP1 REVERT JUMPDEST POP PUSH1 0x40 MLOAD PUSH2 0x5575 CODESIZE SUB DUP1 PUSH2 0x5575 DUP4 CODECOPY DUP2 DUP2 ADD PUSH1 0x40 MSTORE DUP2 ADD SWAP1 PUSH2 0x31 SWAP2 SWAP1 PUSH2 0x2C3 JUMP JUMPDEST PUSH1 0x40 MLOAD DUP1 PUSH1 0x40 ADD PUSH1 0x40 MSTORE DUP1 PUSH1 0xC DUP2 MSTORE PUSH1 0x20 ADD PUSH32 0x566F74696E675265636F72640000000000000000000000000000000000000000 DUP2 MSTORE POP PUSH1 0x40 MLOAD DUP1 PUSH1 0x40 ADD PUSH1 0x40 MSTORE DUP1 PUSH1 0x4 DUP2 MSTORE PUSH1 0x20 ADD PUSH32 0x564F544500000000000000000000000000000000000000000000000000000000 DUP2 MSTORE POP DUP3 DUP1 CALLER PUSH1 0x1 PUSH0 DUP2 SWAP1 SSTORE POP PUSH0 PUSH20 0xFFFFFFFFFFFFFFFFFFFFFFFFFFFFFFFFFFFFFFFF AND DUP2 PUSH20 0xFFFFFFFFFFFFFFFFFFFFFFFFFFFFFFFFFFFFFFFF AND SUB PUSH2 0x117 JUMPI PUSH0 PUSH1 0x40 MLOAD PUSH32 0x1E4FBDF700000000000000000000000000000000000000000000000000000000 DUP2 MSTORE PUSH1 0x4 ADD PUSH2 0x10E SWAP2 SWAP1 PUSH2 0x2FD JUMP JUMPDEST PUSH1 0x40 MLOAD DUP1 SWAP2 SUB SWAP1 REVERT JUMPDEST PUSH2 0x126 DUP2 PUSH2 0x191 PUSH1 0x20 SHL PUSH1 0x20 SHR JUMP JUMPDEST POP DUP1 PUSH1 0x2 PUSH0 PUSH2 0x100 EXP DUP2 SLOAD DUP2 PUSH20 0xFFFFFFFFFFFFFFFFFFFFFFFFFFFFFFFFFFFFFFFF MUL NOT AND SWAP1 DUP4 PUSH20 0xFFFFFFFFFFFFFFFFFFFFFFFFFFFFFFFFFFFFFFFF AND MUL OR SWAP1 SSTORE POP POP POP DUP2 PUSH1 0x7 SWAP1 DUP2 PUSH2 0x178 SWAP2 SWAP1 PUSH2 0x550 JUMP JUMPDEST POP DUP1 PUSH1 0x8 SWAP1 DUP2 PUSH2 0x188 SWAP2 SWAP1 PUSH2 0x550 JUMP JUMPDEST POP POP POP POP PUSH2 0x61F JUMP JUMPDEST PUSH0 PUSH1 0x1 PUSH0 SWAP1 SLOAD SWAP1 PUSH2 0x100 EXP SWAP1 DIV PUSH20 0xFFFFFFFFFFFFFFFFFFFFFFFFFFFFFFFFFFFFFFFF AND SWAP1 POP DUP2 PUSH1 0x1 PUSH0 PUSH2 0x100 EXP DUP2 SLOAD DUP2 PUSH20 0xFFFFFFFFFFFFFFFFFFFFFFFFFFFFFFFFFFFFFFFF MUL NOT AND SWAP1 DUP4 PUSH20 0xFFFFFFFFFFFFFFFFFFFFFFFFFFFFFFFFFFFFFFFF AND MUL OR SWAP1 SSTORE POP DUP2 PUSH20 0xFFFFFFFFFFFFFFFFFFFFFFFFFFFFFFFFFFFFFFFF AND DUP2 PUSH20 0xFFFFFFFFFFFFFFFFFFFFFFFFFFFFFFFFFFFFFFFF AND PUSH32 0x8BE0079C531659141344CD1FD0A4F28419497F9722A3DAAFE3B4186F6B6457E0 PUSH1 0x40 MLOAD PUSH1 0x40 MLOAD DUP1 SWAP2 SUB SWAP1 LOG3 POP POP JUMP JUMPDEST PUSH0 DUP1 REVERT JUMPDEST PUSH0 PUSH20 0xFFFFFFFFFFFFFFFFFFFFFFFFFFFFFFFFFFFFFFFF DUP3 AND SWAP1 POP SWAP2 SWAP1 POP JUMP JUMPDEST PUSH0 PUSH2 0x281 DUP3 PUSH2 0x258 JUMP JUMPDEST SWAP1 POP SWAP2 SWAP1 POP JUMP JUMPDEST PUSH0 PUSH2 0x292 DUP3 PUSH2 0x277 JUMP JUMPDEST SWAP1 POP SWAP2 SWAP1 POP JUMP JUMPDEST PUSH2 0x2A2 DUP2 PUSH2 0x288 JUMP JUMPDEST DUP2 EQ PUSH2 0x2AC JUMPI PUSH0 DUP1 REVERT JUMPDEST POP JUMP JUMPDEST PUSH0 DUP2 MLOAD SWAP1 POP PUSH2 0x2BD DUP2 PUSH2 0x299 JUMP JUMPDEST SWAP3 SWAP2 POP POP JUMP JUMPDEST PUSH0 PUSH1 0x20 DUP3 DUP5 SUB SLT ISZERO PUSH2 0x2D8 JUMPI PUSH2 0x2D7 PUSH2 0x254 JUMP JUMPDEST JUMPDEST PUSH0 PUSH2 0x2E5 DUP5 DUP3 DUP6 ADD PUSH2 0x2AF JUMP JUMPDEST SWAP2 POP POP SWAP3 SWAP2 POP POP JUMP JUMPDEST PUSH2 0x2F7 DUP2 PUSH2 0x277 JUMP JUMPDEST DUP3 MSTORE POP POP JUMP JUMPDEST PUSH0 PUSH1 0x20 DUP3 ADD SWAP1 POP PUSH2 0x310 PUSH0 DUP4 ADD DUP5 PUSH2 0x2EE JUMP JUMPDEST SWAP3 SWAP2 POP POP JUMP JUMPDEST PUSH0 DUP2 MLOAD SWAP1 POP SWAP2 SWAP1 POP JUMP JUMPDEST PUSH32 0x4E487B7100000000000000000000000000000000000000000000000000000000 PUSH0 MSTORE PUSH1 0x41 PUSH1 0x4 MSTORE PUSH1 0x24 PUSH0 REVERT JUMPDEST PUSH32 0x4E487B7100000000000000000000000000000000000000000000000000000000 PUSH0 MSTORE PUSH1 0x22 PUSH1 0x4 MSTORE PUSH1 0x24 PUSH0 REVERT JUMPDEST PUSH0 PUSH1 0x2 DUP3 DIV SWAP1 POP PUSH1 0x1 DUP3 AND DUP1 PUSH2 0x391 JUMPI PUSH1 0x7F DUP3 AND SWAP2 POP JUMPDEST PUSH1 0x20 DUP3 LT DUP2 SUB PUSH2 0x3A4 JUMPI PUSH2 0x3A3 PUSH2 0x34D JUMP JUMPDEST JUMPDEST POP SWAP2 SWAP1 POP JUMP JUMPDEST PUSH0 DUP2 SWAP1 POP DUP2 PUSH0 MSTORE PUSH1 0x20 PUSH0 KECCAK256 SWAP1 POP SWAP2 SWAP1 POP JUMP JUMPDEST PUSH0 PUSH1 0x20 PUSH1 0x1F DUP4 ADD DIV SWAP1 POP SWAP2 SWAP1 POP JUMP JUMPDEST PUSH0 DUP3 DUP3 SHL SWAP1 POP SWAP3 SWAP2 POP POP JUMP JUMPDEST PUSH0 PUSH1 0x8 DUP4 MUL PUSH2 0x406 PUSH32 0xFFFFFFFFFFFFFFFFFFFFFFFFFFFFFFFFFFFFFFFFFFFFFFFFFFFFFFFFFFFFFFFF DUP3 PUSH2 0x3CB JUMP JUMPDEST PUSH2 0x410 DUP7 DUP4 PUSH2 0x3CB JUMP JUMPDEST SWAP6 POP DUP1 NOT DUP5 AND SWAP4 POP DUP1 DUP7 AND DUP5 OR SWAP3 POP POP POP SWAP4 SWAP3 POP POP POP JUMP JUMPDEST PUSH0 DUP2 SWAP1 POP SWAP2 SWAP1 POP JUMP JUMPDEST PUSH0 DUP2 SWAP1 POP SWAP2 SWAP1 POP JUMP JUMPDEST PUSH0 PUSH2 0x454 PUSH2 0x44F PUSH2 0x44A DUP5 PUSH2 0x428 JUMP JUMPDEST PUSH2 0x431 JUMP JUMPDEST PUSH2 0x428 JUMP JUMPDEST SWAP1 POP SWAP2 SWAP1 POP JUMP JUMPDEST PUSH0 DUP2 SWAP1 POP SWAP2 SWAP1 POP JUMP JUMPDEST PUSH2 0x46D DUP4 PUSH2 0x43A JUMP JUMPDEST PUSH2 0x481 PUSH2 0x479 DUP3 PUSH2 0x45B JUMP JUMPDEST DUP5 DUP5 SLOAD PUSH2 0x3D7 JUMP JUMPDEST DUP3 SSTORE POP POP POP POP JUMP JUMPDEST PUSH0 SWAP1 JUMP JUMPDEST PUSH2 0x495 PUSH2 0x489 JUMP JUMPDEST PUSH2 0x4A0 DUP2 DUP5 DUP5 PUSH2 0x464 JUMP JUMPDEST POP POP POP JUMP JUMPDEST JUMPDEST DUP2 DUP2 LT ISZERO PUSH2 0x4C3 JUMPI PUSH2 0x4B8 PUSH0 DUP3 PUSH2 0x48D JUMP JUMPDEST PUSH1 0x1 DUP2 ADD SWAP1 POP PUSH2 0x4A6 JUMP JUMPDEST POP POP JUMP JUMPDEST PUSH1 0x1F DUP3 GT ISZERO PUSH2 0x508 JUMPI PUSH2 0x4D9 DUP2 PUSH2 0x3AA JUMP JUMPDEST PUSH2 0x4E2 DUP5 PUSH2 0x3BC JUMP JUMPDEST DUP2 ADD PUSH1 0x20 DUP6 LT ISZERO PUSH2 0x4F1 JUMPI DUP2 SWAP1 POP JUMPDEST PUSH2 0x505 PUSH2 0x4FD DUP6 PUSH2 0x3BC JUMP JUMPDEST DUP4 ADD DUP3 PUSH2 0x4A5 JUMP JUMPDEST POP POP JUMPDEST POP POP POP JUMP JUMPDEST PUSH0 DUP3 DUP3 SHR SWAP1 POP SWAP3 SWAP2 POP POP JUMP JUMPDEST PUSH0 PUSH2 0x528 PUSH0 NOT DUP5 PUSH1 0x8 MUL PUSH2 0x50D JUMP JUMPDEST NOT DUP1 DUP4 AND SWAP2 POP POP SWAP3 SWAP2 POP POP JUMP JUMPDEST PUSH0 PUSH2 0x540 DUP4 DUP4 PUSH2 0x519 JUMP JUMPDEST SWAP2 POP DUP3 PUSH1 0x2 MUL DUP3 OR SWAP1 POP SWAP3 SWAP2 POP POP JUMP JUMPDEST PUSH2 0x559 DUP3 PUSH2 0x316 JUMP JUMPDEST PUSH8 0xFFFFFFFFFFFFFFFF DUP2 GT ISZERO PUSH2 0x572 JUMPI PUSH2 0x571 PUSH2 0x320 JUMP JUMPDEST JUMPDEST PUSH2 0x57C DUP3 SLOAD PUSH2 0x37A JUMP JUMPDEST PUSH2 0x587 DUP3 DUP3 DUP6 PUSH2 0x4C7 JUMP JUMPDEST PUSH0 PUSH1 0x20 SWAP1 POP PUSH1 0x1F DUP4 GT PUSH1 0x1 DUP2 EQ PUSH2 0x5B8 JUMPI PUSH0 DUP5 ISZERO PUSH2 0x5A6 JUMPI DUP3 DUP8 ADD MLOAD SWAP1 POP JUMPDEST PUSH2 0x5B0 DUP6 DUP3 PUSH2 0x535 JUMP JUMPDEST DUP7 SSTORE POP PUSH2 0x617 JUMP JUMPDEST PUSH1 0x1F NOT DUP5 AND PUSH2 0x5C6 DUP7 PUSH2 0x3AA JUMP JUMPDEST PUSH0 JUMPDEST DUP3 DUP2 LT ISZERO PUSH2 0x5ED JUMPI DUP5 DUP10 ADD MLOAD DUP3 SSTORE PUSH1 0x1 DUP3 ADD SWAP2 POP PUSH1 0x20 DUP6 ADD SWAP5 POP PUSH1 0x20 DUP2 ADD SWAP1 POP PUSH2 0x5C8 JUMP JUMPDEST DUP7 DUP4 LT ISZERO PUSH2 0x60A JUMPI DUP5 DUP10 ADD MLOAD PUSH2 0x606 PUSH1 0x1F DUP10 AND DUP3 PUSH2 0x519 JUMP JUMPDEST DUP4 SSTORE POP JUMPDEST PUSH1 0x1 PUSH1 0x2 DUP9 MUL ADD DUP9 SSTORE POP POP POP JUMPDEST POP POP POP POP POP POP JUMP JUMPDEST PUSH2 0x4F49 DUP1 PUSH2 0x62C PUSH0 CODECOPY PUSH0 RETURN INVALID PUSH1 0x80 PUSH1 0x40 MSTORE CALLVALUE DUP1 ISZERO PUSH2 0xF JUMPI PUSH0 DUP1 REVERT JUMPDEST POP PUSH1 0x4 CALLDATASIZE LT PUSH2 0x1A7 JUMPI PUSH0 CALLDATALOAD PUSH1 0xE0 SHR DUP1 PUSH4 0x72F702F3 GT PUSH2 0xF7 JUMPI DUP1 PUSH4 0xA22CB465 GT PUSH2 0x95 JUMPI DUP1 PUSH4 0xC9D27AFE GT PUSH2 0x6F JUMPI DUP1 PUSH4 0xC9D27AFE EQ PUSH2 0x4D2 JUMPI DUP1 PUSH4 0xE985E9C5 EQ PUSH2 0x4EE JUMPI DUP1 PUSH4 0xF2FDE38B EQ PUSH2 0x51E JUMPI DUP1 PUSH4 0xFC0E3D90 EQ PUSH2 0x53A JUMPI PUSH2 0x1A7 JUMP JUMPDEST DUP1 PUSH4 0xA22CB465 EQ PUSH2 0x46A JUMPI DUP1 PUSH4 0xB88D4FDE EQ PUSH2 0x486 JUMPI DUP1 PUSH4 0xC87B56DD EQ PUSH2 0x4A2 JUMPI PUSH2 0x1A7 JUMP JUMPDEST DUP1 PUSH4 0x817B1CD2 GT PUSH2 0xD1 JUMPI DUP1 PUSH4 0x817B1CD2 EQ PUSH2 0x3DF JUMPI DUP1 PUSH4 0x8DA5CB5B EQ PUSH2 0x3FD JUMPI DUP1 PUSH4 0x90816302 EQ PUSH2 0x41B JUMPI DUP1 PUSH4 0x95D89B41 EQ PUSH2 0x44C JUMPI PUSH2 0x1A7 JUMP JUMPDEST DUP1 PUSH4 0x72F702F3 EQ PUSH2 0x387 JUMPI DUP1 PUSH4 0x7B0472F0 EQ PUSH2 0x3A5 JUMPI DUP1 PUSH4 0x7BC74225 EQ PUSH2 0x3C1 JUMPI PUSH2 0x1A7 JUMP JUMPDEST DUP1 PUSH4 0x3CCFD60B GT PUSH2 0x164 JUMPI DUP1 PUSH4 0x5A55C1F0 GT PUSH2 0x13E JUMPI DUP1 PUSH4 0x5A55C1F0 EQ PUSH2 0x2ED JUMPI DUP1 PUSH4 0x6352211E EQ PUSH2 0x31D JUMPI DUP1 PUSH4 0x70A08231 EQ PUSH2 0x34D JUMPI DUP1 PUSH4 0x715018A6 EQ PUSH2 0x37D JUMPI PUSH2 0x1A7 JUMP JUMPDEST DUP1 PUSH4 0x3CCFD60B EQ PUSH2 0x297 JUMPI DUP1 PUSH4 0x42842E0E EQ PUSH2 0x2A1 JUMPI DUP1 PUSH4 0x521DE117 EQ PUSH2 0x2BD JUMPI PUSH2 0x1A7 JUMP JUMPDEST DUP1 PUSH4 0x1FFC9A7 EQ PUSH2 0x1AB JUMPI DUP1 PUSH4 0x6FDDE03 EQ PUSH2 0x1DB JUMPI DUP1 PUSH4 0x81812FC EQ PUSH2 0x1F9 JUMPI DUP1 PUSH4 0x95EA7B3 EQ PUSH2 0x229 JUMPI DUP1 PUSH4 0x12B1D5AC EQ PUSH2 0x245 JUMPI DUP1 PUSH4 0x23B872DD EQ PUSH2 0x27B JUMPI JUMPDEST PUSH0 DUP1 REVERT JUMPDEST PUSH2 0x1C5 PUSH1 0x4 DUP1 CALLDATASIZE SUB DUP2 ADD SWAP1 PUSH2 0x1C0 SWAP2 SWAP1 PUSH2 0x3207 JUMP JUMPDEST PUSH2 0x558 JUMP JUMPDEST PUSH1 0x40 MLOAD PUSH2 0x1D2 SWAP2 SWAP1 PUSH2 0x324C JUMP JUMPDEST PUSH1 0x40 MLOAD DUP1 SWAP2 SUB SWAP1 RETURN JUMPDEST PUSH2 0x1E3 PUSH2 0x639 JUMP JUMPDEST PUSH1 0x40 MLOAD PUSH2 0x1F0 SWAP2 SWAP1 PUSH2 0x32D5 JUMP JUMPDEST PUSH1 0x40 MLOAD DUP1 SWAP2 SUB SWAP1 RETURN JUMPDEST PUSH2 0x213 PUSH1 0x4 DUP1 CALLDATASIZE SUB DUP2 ADD SWAP1 PUSH2 0x20E SWAP2 SWAP1 PUSH2 0x3328 JUMP JUMPDEST PUSH2 0x6C9 JUMP JUMPDEST PUSH1 0x40 MLOAD PUSH2 0x220 SWAP2 SWAP1 PUSH2 0x3392 JUMP JUMPDEST PUSH1 0x40 MLOAD DUP1 SWAP2 SUB SWAP1 RETURN JUMPDEST PUSH2 0x243 PUSH1 0x4 DUP1 CALLDATASIZE SUB DUP2 ADD SWAP1 PUSH2 0x23E SWAP2 SWAP1 PUSH2 0x33D5 JUMP JUMPDEST PUSH2 0x6E4 JUMP JUMPDEST STOP JUMPDEST PUSH2 0x25F PUSH1 0x4 DUP1 CALLDATASIZE SUB DUP2 ADD SWAP1 PUSH2 0x25A SWAP2 SWAP1 PUSH2 0x3328 JUMP JUMPDEST PUSH2 0x6FA JUMP JUMPDEST PUSH1 0x40 MLOAD PUSH2 0x272 SWAP8 SWAP7 SWAP6 SWAP5 SWAP4 SWAP3 SWAP2 SWAP1 PUSH2 0x3495 JUMP JUMPDEST PUSH1 0x40 MLOAD DUP1 SWAP2 SUB SWAP1 RETURN JUMPDEST PUSH2 0x295 PUSH1 0x4 DUP1 CALLDATASIZE SUB DUP2 ADD SWAP1 PUSH2 0x290 SWAP2 SWAP1 PUSH2 0x3509 JUMP JUMPDEST PUSH2 0x7D9 JUMP JUMPDEST STOP JUMPDEST PUSH2 0x29F PUSH2 0x8D8 JUMP JUMPDEST STOP JUMPDEST PUSH2 0x2BB PUSH1 0x4 DUP1 CALLDATASIZE SUB DUP2 ADD SWAP1 PUSH2 0x2B6 SWAP2 SWAP1 PUSH2 0x3509 JUMP JUMPDEST PUSH2 0xBF1 JUMP JUMPDEST STOP JUMPDEST PUSH2 0x2D7 PUSH1 0x4 DUP1 CALLDATASIZE SUB DUP2 ADD SWAP1 PUSH2 0x2D2 SWAP2 SWAP1 PUSH2 0x3685 JUMP JUMPDEST PUSH2 0xC10 JUMP JUMPDEST PUSH1 0x40 MLOAD PUSH2 0x2E4 SWAP2 SWAP1 PUSH2 0x36F1 JUMP JUMPDEST PUSH1 0x40 MLOAD DUP1 SWAP2 SUB SWAP1 RETURN JUMPDEST PUSH2 0x307 PUSH1 0x4 DUP1 CALLDATASIZE SUB DUP2 ADD SWAP1 PUSH2 0x302 SWAP2 SWAP1 PUSH2 0x3328 JUMP JUMPDEST PUSH2 0xDA4 JUMP JUMPDEST PUSH1 0x40 MLOAD PUSH2 0x314 SWAP2 SWAP1 PUSH2 0x3809 JUMP JUMPDEST PUSH1 0x40 MLOAD DUP1 SWAP2 SUB SWAP1 RETURN JUMPDEST PUSH2 0x337 PUSH1 0x4 DUP1 CALLDATASIZE SUB DUP2 ADD SWAP1 PUSH2 0x332 SWAP2 SWAP1 PUSH2 0x3328 JUMP JUMPDEST PUSH2 0xF24 JUMP JUMPDEST PUSH1 0x40 MLOAD PUSH2 0x344 SWAP2 SWAP1 PUSH2 0x3392 JUMP JUMPDEST PUSH1 0x40 MLOAD DUP1 SWAP2 SUB SWAP1 RETURN JUMPDEST PUSH2 0x367 PUSH1 0x4 DUP1 CALLDATASIZE SUB DUP2 ADD SWAP1 PUSH2 0x362 SWAP2 SWAP1 PUSH2 0x3829 JUMP JUMPDEST PUSH2 0xF35 JUMP JUMPDEST PUSH1 0x40 MLOAD PUSH2 0x374 SWAP2 SWAP1 PUSH2 0x36F1 JUMP JUMPDEST PUSH1 0x40 MLOAD DUP1 SWAP2 SUB SWAP1 RETURN JUMPDEST PUSH2 0x385 PUSH2 0xFEB JUMP JUMPDEST STOP JUMPDEST PUSH2 0x38F PUSH2 0xFFE JUMP JUMPDEST PUSH1 0x40 MLOAD PUSH2 0x39C SWAP2 SWAP1 PUSH2 0x38AF JUMP JUMPDEST PUSH1 0x40 MLOAD DUP1 SWAP2 SUB SWAP1 RETURN JUMPDEST PUSH2 0x3BF PUSH1 0x4 DUP1 CALLDATASIZE SUB DUP2 ADD SWAP1 PUSH2 0x3BA SWAP2 SWAP1 PUSH2 0x38C8 JUMP JUMPDEST PUSH2 0x1023 JUMP JUMPDEST STOP JUMPDEST PUSH2 0x3C9 PUSH2 0x121B JUMP JUMPDEST PUSH1 0x40 MLOAD PUSH2 0x3D6 SWAP2 SWAP1 PUSH2 0x36F1 JUMP JUMPDEST PUSH1 0x40 MLOAD DUP1 SWAP2 SUB SWAP1 RETURN JUMPDEST PUSH2 0x3E7 PUSH2 0x1224 JUMP JUMPDEST PUSH1 0x40 MLOAD PUSH2 0x3F4 SWAP2 SWAP1 PUSH2 0x36F1 JUMP JUMPDEST PUSH1 0x40 MLOAD DUP1 SWAP2 SUB SWAP1 RETURN JUMPDEST PUSH2 0x405 PUSH2 0x122A JUMP JUMPDEST PUSH1 0x40 MLOAD PUSH2 0x412 SWAP2 SWAP1 PUSH2 0x3392 JUMP JUMPDEST PUSH1 0x40 MLOAD DUP1 SWAP2 SUB SWAP1 RETURN JUMPDEST PUSH2 0x435 PUSH1 0x4 DUP1 CALLDATASIZE SUB DUP2 ADD SWAP1 PUSH2 0x430 SWAP2 SWAP1 PUSH2 0x33D5 JUMP JUMPDEST PUSH2 0x1252 JUMP JUMPDEST PUSH1 0x40 MLOAD PUSH2 0x443 SWAP3 SWAP2 SWAP1 PUSH2 0x3906 JUMP JUMPDEST PUSH1 0x40 MLOAD DUP1 SWAP2 SUB SWAP1 RETURN JUMPDEST PUSH2 0x454 PUSH2 0x128C JUMP JUMPDEST PUSH1 0x40 MLOAD PUSH2 0x461 SWAP2 SWAP1 PUSH2 0x32D5 JUMP JUMPDEST PUSH1 0x40 MLOAD DUP1 SWAP2 SUB SWAP1 RETURN JUMPDEST PUSH2 0x484 PUSH1 0x4 DUP1 CALLDATASIZE SUB DUP2 ADD SWAP1 PUSH2 0x47F SWAP2 SWAP1 PUSH2 0x3957 JUMP JUMPDEST PUSH2 0x131C JUMP JUMPDEST STOP JUMPDEST PUSH2 0x4A0 PUSH1 0x4 DUP1 CALLDATASIZE SUB DUP2 ADD SWAP1 PUSH2 0x49B SWAP2 SWAP1 PUSH2 0x3A33 JUMP JUMPDEST PUSH2 0x1332 JUMP JUMPDEST STOP JUMPDEST PUSH2 0x4BC PUSH1 0x4 DUP1 CALLDATASIZE SUB DUP2 ADD SWAP1 PUSH2 0x4B7 SWAP2 SWAP1 PUSH2 0x3328 JUMP JUMPDEST PUSH2 0x1357 JUMP JUMPDEST PUSH1 0x40 MLOAD PUSH2 0x4C9 SWAP2 SWAP1 PUSH2 0x32D5 JUMP JUMPDEST PUSH1 0x40 MLOAD DUP1 SWAP2 SUB SWAP1 RETURN JUMPDEST PUSH2 0x4EC PUSH1 0x4 DUP1 CALLDATASIZE SUB DUP2 ADD SWAP1 PUSH2 0x4E7 SWAP2 SWAP1 PUSH2 0x3AB3 JUMP JUMPDEST PUSH2 0x16C2 JUMP JUMPDEST STOP JUMPDEST PUSH2 0x508 PUSH1 0x4 DUP1 CALLDATASIZE SUB DUP2 ADD SWAP1 PUSH2 0x503 SWAP2 SWAP1 PUSH2 0x3AF1 JUMP JUMPDEST PUSH2 0x1AC1 JUMP JUMPDEST PUSH1 0x40 MLOAD PUSH2 0x515 SWAP2 SWAP1 PUSH2 0x324C JUMP JUMPDEST PUSH1 0x40 MLOAD DUP1 SWAP2 SUB SWAP1 RETURN JUMPDEST PUSH2 0x538 PUSH1 0x4 DUP1 CALLDATASIZE SUB DUP2 ADD SWAP1 PUSH2 0x533 SWAP2 SWAP1 PUSH2 0x3829 JUMP JUMPDEST PUSH2 0x1B4F JUMP JUMPDEST STOP JUMPDEST PUSH2 0x542 PUSH2 0x1BD3 JUMP JUMPDEST PUSH1 0x40 MLOAD PUSH2 0x54F SWAP2 SWAP1 PUSH2 0x3C04 JUMP JUMPDEST PUSH1 0x40 MLOAD DUP1 SWAP2 SUB SWAP1 RETURN JUMPDEST PUSH0 PUSH32 0x80AC58CD00000000000000000000000000000000000000000000000000000000 PUSH28 0xFFFFFFFFFFFFFFFFFFFFFFFFFFFFFFFFFFFFFFFFFFFFFFFFFFFFFFFF NOT AND DUP3 PUSH28 0xFFFFFFFFFFFFFFFFFFFFFFFFFFFFFFFFFFFFFFFFFFFFFFFFFFFFFFFF NOT AND EQ DUP1 PUSH2 0x622 JUMPI POP PUSH32 0x5B5E139F00000000000000000000000000000000000000000000000000000000 PUSH28 0xFFFFFFFFFFFFFFFFFFFFFFFFFFFFFFFFFFFFFFFFFFFFFFFFFFFFFFFF NOT AND DUP3 PUSH28 0xFFFFFFFFFFFFFFFFFFFFFFFFFFFFFFFFFFFFFFFFFFFFFFFFFFFFFFFF NOT AND EQ JUMPDEST DUP1 PUSH2 0x632 JUMPI POP PUSH2 0x631 DUP3 PUSH2 0x1C7D JUMP JUMPDEST JUMPDEST SWAP1 POP SWAP2 SWAP1 POP JUMP JUMPDEST PUSH1 0x60 PUSH1 0x7 DUP1 SLOAD PUSH2 0x648 SWAP1 PUSH2 0x3C51 JUMP JUMPDEST DUP1 PUSH1 0x1F ADD PUSH1 0x20 DUP1 SWAP2 DIV MUL PUSH1 0x20 ADD PUSH1 0x40 MLOAD SWAP1 DUP2 ADD PUSH1 0x40 MSTORE DUP1 SWAP3 SWAP2 SWAP1 DUP2 DUP2 MSTORE PUSH1 0x20 ADD DUP3 DUP1 SLOAD PUSH2 0x674 SWAP1 PUSH2 0x3C51 JUMP JUMPDEST DUP1 ISZERO PUSH2 0x6BF JUMPI DUP1 PUSH1 0x1F LT PUSH2 0x696 JUMPI PUSH2 0x100 DUP1 DUP4 SLOAD DIV MUL DUP4 MSTORE SWAP2 PUSH1 0x20 ADD SWAP2 PUSH2 0x6BF JUMP JUMPDEST DUP3 ADD SWAP2 SWAP1 PUSH0 MSTORE PUSH1 0x20 PUSH0 KECCAK256 SWAP1 JUMPDEST DUP2 SLOAD DUP2 MSTORE SWAP1 PUSH1 0x1 ADD SWAP1 PUSH1 0x20 ADD DUP1 DUP4 GT PUSH2 0x6A2 JUMPI DUP3 SWAP1 SUB PUSH1 0x1F AND DUP3 ADD SWAP2 JUMPDEST POP POP POP POP POP SWAP1 POP SWAP1 JUMP JUMPDEST PUSH0 PUSH2 0x6D3 DUP3 PUSH2 0x1CE6 JUMP JUMPDEST POP PUSH2 0x6DD DUP3 PUSH2 0x1D6C JUMP JUMPDEST SWAP1 POP SWAP2 SWAP1 POP JUMP JUMPDEST PUSH2 0x6F6 DUP3 DUP3 PUSH2 0x6F1 PUSH2 0x1DA5 JUMP JUMPDEST PUSH2 0x1DAC JUMP JUMPDEST POP POP JUMP JUMPDEST PUSH1 0x5 DUP2 DUP2 SLOAD DUP2 LT PUSH2 0x709 JUMPI PUSH0 DUP1 REVERT JUMPDEST SWAP1 PUSH0 MSTORE PUSH1 0x20 PUSH0 KECCAK256 SWAP1 PUSH1 0x7 MUL ADD PUSH0 SWAP2 POP SWAP1 POP DUP1 PUSH0 ADD SLOAD SWAP1 DUP1 PUSH1 0x1 ADD SLOAD SWAP1 DUP1 PUSH1 0x2 ADD DUP1 SLOAD PUSH2 0x734 SWAP1 PUSH2 0x3C51 JUMP JUMPDEST DUP1 PUSH1 0x1F ADD PUSH1 0x20 DUP1 SWAP2 DIV MUL PUSH1 0x20 ADD PUSH1 0x40 MLOAD SWAP1 DUP2 ADD PUSH1 0x40 MSTORE DUP1 SWAP3 SWAP2 SWAP1 DUP2 DUP2 MSTORE PUSH1 0x20 ADD DUP3 DUP1 SLOAD PUSH2 0x760 SWAP1 PUSH2 0x3C51 JUMP JUMPDEST DUP1 ISZERO PUSH2 0x7AB JUMPI DUP1 PUSH1 0x1F LT PUSH2 0x782 JUMPI PUSH2 0x100 DUP1 DUP4 SLOAD DIV MUL DUP4 MSTORE SWAP2 PUSH1 0x20 ADD SWAP2 PUSH2 0x7AB JUMP JUMPDEST DUP3 ADD SWAP2 SWAP1 PUSH0 MSTORE PUSH1 0x20 PUSH0 KECCAK256 SWAP1 JUMPDEST DUP2 SLOAD DUP2 MSTORE SWAP1 PUSH1 0x1 ADD SWAP1 PUSH1 0x20 ADD DUP1 DUP4 GT PUSH2 0x78E JUMPI DUP3 SWAP1 SUB PUSH1 0x1F AND DUP3 ADD SWAP2 JUMPDEST POP POP POP POP POP SWAP1 DUP1 PUSH1 0x3 ADD SLOAD SWAP1 DUP1 PUSH1 0x4 ADD SLOAD SWAP1 DUP1 PUSH1 0x5 ADD SLOAD SWAP1 DUP1 PUSH1 0x6 ADD PUSH0 SWAP1 SLOAD SWAP1 PUSH2 0x100 EXP SWAP1 DIV PUSH1 0xFF AND SWAP1 POP DUP8 JUMP JUMPDEST PUSH0 PUSH20 0xFFFFFFFFFFFFFFFFFFFFFFFFFFFFFFFFFFFFFFFF AND DUP3 PUSH20 0xFFFFFFFFFFFFFFFFFFFFFFFFFFFFFFFFFFFFFFFF AND SUB PUSH2 0x849 JUMPI PUSH0 PUSH1 0x40 MLOAD PUSH32 0x64A0AE9200000000000000000000000000000000000000000000000000000000 DUP2 MSTORE PUSH1 0x4 ADD PUSH2 0x840 SWAP2 SWAP1 PUSH2 0x3392 JUMP JUMPDEST PUSH1 0x40 MLOAD DUP1 SWAP2 SUB SWAP1 REVERT JUMPDEST PUSH0 PUSH2 0x85C DUP4 DUP4 PUSH2 0x857 PUSH2 0x1DA5 JUMP JUMPDEST PUSH2 0x1DBE JUMP JUMPDEST SWAP1 POP DUP4 PUSH20 0xFFFFFFFFFFFFFFFFFFFFFFFFFFFFFFFFFFFFFFFF AND DUP2 PUSH20 0xFFFFFFFFFFFFFFFFFFFFFFFFFFFFFFFFFFFFFFFF AND EQ PUSH2 0x8D2 JUMPI DUP4 DUP3 DUP3 PUSH1 0x40 MLOAD PUSH32 0x64283D7B00000000000000000000000000000000000000000000000000000000 DUP2 MSTORE PUSH1 0x4 ADD PUSH2 0x8C9 SWAP4 SWAP3 SWAP2 SWAP1 PUSH2 0x3C81 JUMP JUMPDEST PUSH1 0x40 MLOAD DUP1 SWAP2 SUB SWAP1 REVERT JUMPDEST POP POP POP POP JUMP JUMPDEST PUSH2 0x8E0 PUSH2 0x1FC9 JUMP JUMPDEST PUSH0 PUSH1 0x4 PUSH0 CALLER PUSH20 0xFFFFFFFFFFFFFFFFFFFFFFFFFFFFFFFFFFFFFFFF AND PUSH20 0xFFFFFFFFFFFFFFFFFFFFFFFFFFFFFFFFFFFFFFFF AND DUP2 MSTORE PUSH1 0x20 ADD SWAP1 DUP2 MSTORE PUSH1 0x20 ADD PUSH0 KECCAK256 DUP1 SLOAD DUP1 PUSH1 0x20 MUL PUSH1 0x20 ADD PUSH1 0x40 MLOAD SWAP1 DUP2 ADD PUSH1 0x40 MSTORE DUP1 SWAP3 SWAP2 SWAP1 DUP2 DUP2 MSTORE PUSH1 0x20 ADD PUSH0 SWAP1 JUMPDEST DUP3 DUP3 LT ISZERO PUSH2 0x980 JUMPI DUP4 DUP3 SWAP1 PUSH0 MSTORE PUSH1 0x20 PUSH0 KECCAK256 SWAP1 PUSH1 0x2 MUL ADD PUSH1 0x40 MLOAD DUP1 PUSH1 0x40 ADD PUSH1 0x40 MSTORE SWAP1 DUP2 PUSH0 DUP3 ADD SLOAD DUP2 MSTORE PUSH1 0x20 ADD PUSH1 0x1 DUP3 ADD SLOAD DUP2 MSTORE POP POP DUP2 MSTORE PUSH1 0x20 ADD SWAP1 PUSH1 0x1 ADD SWAP1 PUSH2 0x93D JUMP JUMPDEST POP POP POP POP SWAP1 POP PUSH0 DUP1 JUMPDEST DUP3 MLOAD DUP2 LT ISZERO PUSH2 0xA9E JUMPI PUSH0 DUP4 DUP3 DUP2 MLOAD DUP2 LT PUSH2 0x9A6 JUMPI PUSH2 0x9A5 PUSH2 0x3CB6 JUMP JUMPDEST JUMPDEST PUSH1 0x20 MUL PUSH1 0x20 ADD ADD MLOAD PUSH1 0x20 ADD MLOAD GT DUP1 ISZERO PUSH2 0x9DB JUMPI POP PUSH0 DUP4 DUP3 DUP2 MLOAD DUP2 LT PUSH2 0x9CE JUMPI PUSH2 0x9CD PUSH2 0x3CB6 JUMP JUMPDEST JUMPDEST PUSH1 0x20 MUL PUSH1 0x20 ADD ADD MLOAD PUSH0 ADD MLOAD GT JUMPDEST ISZERO PUSH2 0xA91 JUMPI DUP3 DUP2 DUP2 MLOAD DUP2 LT PUSH2 0x9F3 JUMPI PUSH2 0x9F2 PUSH2 0x3CB6 JUMP JUMPDEST JUMPDEST PUSH1 0x20 MUL PUSH1 0x20 ADD ADD MLOAD PUSH0 ADD MLOAD DUP3 PUSH2 0xA09 SWAP2 SWAP1 PUSH2 0x3D10 JUMP JUMPDEST SWAP2 POP PUSH1 0x40 MLOAD DUP1 PUSH1 0x40 ADD PUSH1 0x40 MSTORE DUP1 PUSH0 DUP2 MSTORE PUSH1 0x20 ADD PUSH0 DUP2 MSTORE POP PUSH1 0x4 PUSH0 CALLER PUSH20 0xFFFFFFFFFFFFFFFFFFFFFFFFFFFFFFFFFFFFFFFF AND PUSH20 0xFFFFFFFFFFFFFFFFFFFFFFFFFFFFFFFFFFFFFFFF AND DUP2 MSTORE PUSH1 0x20 ADD SWAP1 DUP2 MSTORE PUSH1 0x20 ADD PUSH0 KECCAK256 DUP3 DUP2 SLOAD DUP2 LT PUSH2 0xA6F JUMPI PUSH2 0xA6E PUSH2 0x3CB6 JUMP JUMPDEST JUMPDEST SWAP1 PUSH0 MSTORE PUSH1 0x20 PUSH0 KECCAK256 SWAP1 PUSH1 0x2 MUL ADD PUSH0 DUP3 ADD MLOAD DUP2 PUSH0 ADD SSTORE PUSH1 0x20 DUP3 ADD MLOAD DUP2 PUSH1 0x1 ADD SSTORE SWAP1 POP POP JUMPDEST DUP1 DUP1 PUSH1 0x1 ADD SWAP2 POP POP PUSH2 0x989 JUMP JUMPDEST POP PUSH0 PUSH1 0x2 PUSH0 SWAP1 SLOAD SWAP1 PUSH2 0x100 EXP SWAP1 DIV PUSH20 0xFFFFFFFFFFFFFFFFFFFFFFFFFFFFFFFFFFFFFFFF AND PUSH20 0xFFFFFFFFFFFFFFFFFFFFFFFFFFFFFFFFFFFFFFFF AND PUSH4 0xA9059CBB CALLER DUP5 PUSH1 0x40 MLOAD DUP4 PUSH4 0xFFFFFFFF AND PUSH1 0xE0 SHL DUP2 MSTORE PUSH1 0x4 ADD PUSH2 0xAFC SWAP3 SWAP2 SWAP1 PUSH2 0x3D43 JUMP JUMPDEST PUSH1 0x20 PUSH1 0x40 MLOAD DUP1 DUP4 SUB DUP2 PUSH0 DUP8 GAS CALL ISZERO DUP1 ISZERO PUSH2 0xB18 JUMPI RETURNDATASIZE PUSH0 DUP1 RETURNDATACOPY RETURNDATASIZE PUSH0 REVERT JUMPDEST POP POP POP POP PUSH1 0x40 MLOAD RETURNDATASIZE PUSH1 0x1F NOT PUSH1 0x1F DUP3 ADD AND DUP3 ADD DUP1 PUSH1 0x40 MSTORE POP DUP2 ADD SWAP1 PUSH2 0xB3C SWAP2 SWAP1 PUSH2 0x3D7E JUMP JUMPDEST SWAP1 POP DUP1 PUSH2 0xB7E JUMPI PUSH1 0x40 MLOAD PUSH32 0x8C379A000000000000000000000000000000000000000000000000000000000 DUP2 MSTORE PUSH1 0x4 ADD PUSH2 0xB75 SWAP1 PUSH2 0x3DF3 JUMP JUMPDEST PUSH1 0x40 MLOAD DUP1 SWAP2 SUB SWAP1 REVERT JUMPDEST DUP2 PUSH1 0x3 PUSH0 DUP3 DUP3 SLOAD PUSH2 0xB8F SWAP2 SWAP1 PUSH2 0x3E11 JUMP JUMPDEST SWAP3 POP POP DUP2 SWAP1 SSTORE POP CALLER PUSH20 0xFFFFFFFFFFFFFFFFFFFFFFFFFFFFFFFFFFFFFFFF AND PUSH32 0x7084F5476618D8E60B11EF0D7D3F06914655ADB8793E28FF7F018D4C76D505D5 DUP4 PUSH1 0x40 MLOAD PUSH2 0xBDC SWAP2 SWAP1 PUSH2 0x36F1 JUMP JUMPDEST PUSH1 0x40 MLOAD DUP1 SWAP2 SUB SWAP1 LOG2 POP POP POP PUSH2 0xBEF PUSH2 0x2016 JUMP JUMPDEST JUMP JUMPDEST PUSH2 0xC0B DUP4 DUP4 DUP4 PUSH1 0x40 MLOAD DUP1 PUSH1 0x20 ADD PUSH1 0x40 MSTORE DUP1 PUSH0 DUP2 MSTORE POP PUSH2 0x1332 JUMP JUMPDEST POP POP POP JUMP JUMPDEST PUSH0 PUSH2 0xC19 PUSH2 0x201F JUMP JUMPDEST PUSH0 DUP4 GT DUP1 ISZERO PUSH2 0xC28 JUMPI POP PUSH1 0x64 DUP4 LT JUMPDEST PUSH2 0xC67 JUMPI PUSH1 0x40 MLOAD PUSH32 0x8C379A000000000000000000000000000000000000000000000000000000000 DUP2 MSTORE PUSH1 0x4 ADD PUSH2 0xC5E SWAP1 PUSH2 0x3EB4 JUMP JUMPDEST PUSH1 0x40 MLOAD DUP1 SWAP2 SUB SWAP1 REVERT JUMPDEST PUSH1 0x5 PUSH1 0x40 MLOAD DUP1 PUSH1 0xE0 ADD PUSH1 0x40 MSTORE DUP1 DUP5 DUP2 MSTORE PUSH1 0x20 ADD DUP6 DUP2 MSTORE PUSH1 0x20 ADD DUP7 DUP2 MSTORE PUSH1 0x20 ADD PUSH0 DUP2 MSTORE PUSH1 0x20 ADD PUSH0 DUP2 MSTORE PUSH1 0x20 ADD PUSH0 DUP2 MSTORE PUSH1 0x20 ADD PUSH0 PUSH1 0x3 DUP2 GT ISZERO PUSH2 0xCAB JUMPI PUSH2 0xCAA PUSH2 0x3422 JUMP JUMPDEST JUMPDEST DUP2 MSTORE POP SWAP1 DUP1 PUSH1 0x1 DUP2 SLOAD ADD DUP1 DUP3 SSTORE DUP1 SWAP2 POP POP PUSH1 0x1 SWAP1 SUB SWAP1 PUSH0 MSTORE PUSH1 0x20 PUSH0 KECCAK256 SWAP1 PUSH1 0x7 MUL ADD PUSH0 SWAP1 SWAP2 SWAP1 SWAP2 SWAP1 SWAP2 POP PUSH0 DUP3 ADD MLOAD DUP2 PUSH0 ADD SSTORE PUSH1 0x20 DUP3 ADD MLOAD DUP2 PUSH1 0x1 ADD SSTORE PUSH1 0x40 DUP3 ADD MLOAD DUP2 PUSH1 0x2 ADD SWAP1 DUP2 PUSH2 0xCFB SWAP2 SWAP1 PUSH2 0x4066 JUMP JUMPDEST POP PUSH1 0x60 DUP3 ADD MLOAD DUP2 PUSH1 0x3 ADD SSTORE PUSH1 0x80 DUP3 ADD MLOAD DUP2 PUSH1 0x4 ADD SSTORE PUSH1 0xA0 DUP3 ADD MLOAD DUP2 PUSH1 0x5 ADD SSTORE PUSH1 0xC0 DUP3 ADD MLOAD DUP2 PUSH1 0x6 ADD PUSH0 PUSH2 0x100 EXP DUP2 SLOAD DUP2 PUSH1 0xFF MUL NOT AND SWAP1 DUP4 PUSH1 0x3 DUP2 GT ISZERO PUSH2 0xD44 JUMPI PUSH2 0xD43 PUSH2 0x3422 JUMP JUMPDEST JUMPDEST MUL OR SWAP1 SSTORE POP POP POP PUSH0 PUSH1 0x1 PUSH1 0x5 DUP1 SLOAD SWAP1 POP PUSH2 0xD5E SWAP2 SWAP1 PUSH2 0x3E11 JUMP JUMPDEST SWAP1 POP PUSH32 0x943CFC0D7B4164938034AD7C61B07BDF41A31B881A7AC54CB1E71B56EE9EBCB3 DUP6 DUP3 PUSH1 0x40 MLOAD PUSH2 0xD91 SWAP3 SWAP2 SWAP1 PUSH2 0x4135 JUMP JUMPDEST PUSH1 0x40 MLOAD DUP1 SWAP2 SUB SWAP1 LOG1 DUP1 SWAP2 POP POP SWAP4 SWAP3 POP POP POP JUMP JUMPDEST PUSH2 0xDAC PUSH2 0x3158 JUMP JUMPDEST DUP2 PUSH1 0x5 DUP1 SLOAD SWAP1 POP DUP1 DUP3 LT PUSH2 0xDF5 JUMPI PUSH1 0x40 MLOAD PUSH32 0x8C379A000000000000000000000000000000000000000000000000000000000 DUP2 MSTORE PUSH1 0x4 ADD PUSH2 0xDEC SWAP1 PUSH2 0x41AD JUMP JUMPDEST PUSH1 0x40 MLOAD DUP1 SWAP2 SUB SWAP1 REVERT JUMPDEST PUSH1 0x5 DUP5 DUP2 SLOAD DUP2 LT PUSH2 0xE09 JUMPI PUSH2 0xE08 PUSH2 0x3CB6 JUMP JUMPDEST JUMPDEST SWAP1 PUSH0 MSTORE PUSH1 0x20 PUSH0 KECCAK256 SWAP1 PUSH1 0x7 MUL ADD PUSH1 0x40 MLOAD DUP1 PUSH1 0xE0 ADD PUSH1 0x40 MSTORE SWAP1 DUP2 PUSH0 DUP3 ADD SLOAD DUP2 MSTORE PUSH1 0x20 ADD PUSH1 0x1 DUP3 ADD SLOAD DUP2 MSTORE PUSH1 0x20 ADD PUSH1 0x2 DUP3 ADD DUP1 SLOAD PUSH2 0xE43 SWAP1 PUSH2 0x3C51 JUMP JUMPDEST DUP1 PUSH1 0x1F ADD PUSH1 0x20 DUP1 SWAP2 DIV MUL PUSH1 0x20 ADD PUSH1 0x40 MLOAD SWAP1 DUP2 ADD PUSH1 0x40 MSTORE DUP1 SWAP3 SWAP2 SWAP1 DUP2 DUP2 MSTORE PUSH1 0x20 ADD DUP3 DUP1 SLOAD PUSH2 0xE6F SWAP1 PUSH2 0x3C51 JUMP JUMPDEST DUP1 ISZERO PUSH2 0xEBA JUMPI DUP1 PUSH1 0x1F LT PUSH2 0xE91 JUMPI PUSH2 0x100 DUP1 DUP4 SLOAD DIV MUL DUP4 MSTORE SWAP2 PUSH1 0x20 ADD SWAP2 PUSH2 0xEBA JUMP JUMPDEST DUP3 ADD SWAP2 SWAP1 PUSH0 MSTORE PUSH1 0x20 PUSH0 KECCAK256 SWAP1 JUMPDEST DUP2 SLOAD DUP2 MSTORE SWAP1 PUSH1 0x1 ADD SWAP1 PUSH1 0x20 ADD DUP1 DUP4 GT PUSH2 0xE9D JUMPI DUP3 SWAP1 SUB PUSH1 0x1F AND DUP3 ADD SWAP2 JUMPDEST POP POP POP POP POP DUP2 MSTORE PUSH1 0x20 ADD PUSH1 0x3 DUP3 ADD SLOAD DUP2 MSTORE PUSH1 0x20 ADD PUSH1 0x4 DUP3 ADD SLOAD DUP2 MSTORE PUSH1 0x20 ADD PUSH1 0x5 DUP3 ADD SLOAD DUP2 MSTORE PUSH1 0x20 ADD PUSH1 0x6 DUP3 ADD PUSH0 SWAP1 SLOAD SWAP1 PUSH2 0x100 EXP SWAP1 DIV PUSH1 0xFF AND PUSH1 0x3 DUP2 GT ISZERO PUSH2 0xF05 JUMPI PUSH2 0xF04 PUSH2 0x3422 JUMP JUMPDEST JUMPDEST PUSH1 0x3 DUP2 GT ISZERO PUSH2 0xF17 JUMPI PUSH2 0xF16 PUSH2 0x3422 JUMP JUMPDEST JUMPDEST DUP2 MSTORE POP POP SWAP3 POP POP POP SWAP2 SWAP1 POP JUMP JUMPDEST PUSH0 PUSH2 0xF2E DUP3 PUSH2 0x1CE6 JUMP JUMPDEST SWAP1 POP SWAP2 SWAP1 POP JUMP JUMPDEST PUSH0 DUP1 PUSH20 0xFFFFFFFFFFFFFFFFFFFFFFFFFFFFFFFFFFFFFFFF AND DUP3 PUSH20 0xFFFFFFFFFFFFFFFFFFFFFFFFFFFFFFFFFFFFFFFF AND SUB PUSH2 0xFA6 JUMPI PUSH0 PUSH1 0x40 MLOAD PUSH32 0x89C62B6400000000000000000000000000000000000000000000000000000000 DUP2 MSTORE PUSH1 0x4 ADD PUSH2 0xF9D SWAP2 SWAP1 PUSH2 0x3392 JUMP JUMPDEST PUSH1 0x40 MLOAD DUP1 SWAP2 SUB SWAP1 REVERT JUMPDEST PUSH1 0xA PUSH0 DUP4 PUSH20 0xFFFFFFFFFFFFFFFFFFFFFFFFFFFFFFFFFFFFFFFF AND PUSH20 0xFFFFFFFFFFFFFFFFFFFFFFFFFFFFFFFFFFFFFFFF AND DUP2 MSTORE PUSH1 0x20 ADD SWAP1 DUP2 MSTORE PUSH1 0x20 ADD PUSH0 KECCAK256 SLOAD SWAP1 POP SWAP2 SWAP1 POP JUMP JUMPDEST PUSH2 0xFF3 PUSH2 0x201F JUMP JUMPDEST PUSH2 0xFFC PUSH0 PUSH2 0x20A6 JUMP JUMPDEST JUMP JUMPDEST PUSH1 0x2 PUSH0 SWAP1 SLOAD SWAP1 PUSH2 0x100 EXP SWAP1 DIV PUSH20 0xFFFFFFFFFFFFFFFFFFFFFFFFFFFFFFFFFFFFFFFF AND DUP2 JUMP JUMPDEST PUSH2 0x102B PUSH2 0x1FC9 JUMP JUMPDEST PUSH0 PUSH1 0x40 MLOAD DUP1 PUSH1 0x40 ADD PUSH1 0x40 MSTORE DUP1 DUP5 DUP2 MSTORE PUSH1 0x20 ADD DUP4 TIMESTAMP PUSH2 0x1049 SWAP2 SWAP1 PUSH2 0x3D10 JUMP JUMPDEST DUP2 MSTORE POP SWAP1 POP PUSH1 0x4 PUSH0 CALLER PUSH20 0xFFFFFFFFFFFFFFFFFFFFFFFFFFFFFFFFFFFFFFFF AND PUSH20 0xFFFFFFFFFFFFFFFFFFFFFFFFFFFFFFFFFFFFFFFF AND DUP2 MSTORE PUSH1 0x20 ADD SWAP1 DUP2 MSTORE PUSH1 0x20 ADD PUSH0 KECCAK256 DUP2 SWAP1 DUP1 PUSH1 0x1 DUP2 SLOAD ADD DUP1 DUP3 SSTORE DUP1 SWAP2 POP POP PUSH1 0x1 SWAP1 SUB SWAP1 PUSH0 MSTORE PUSH1 0x20 PUSH0 KECCAK256 SWAP1 PUSH1 0x2 MUL ADD PUSH0 SWAP1 SWAP2 SWAP1 SWAP2 SWAP1 SWAP2 POP PUSH0 DUP3 ADD MLOAD DUP2 PUSH0 ADD SSTORE PUSH1 0x20 DUP3 ADD MLOAD DUP2 PUSH1 0x1 ADD SSTORE POP POP PUSH0 PUSH1 0x2 PUSH0 SWAP1 SLOAD SWAP1 PUSH2 0x100 EXP SWAP1 DIV PUSH20 0xFFFFFFFFFFFFFFFFFFFFFFFFFFFFFFFFFFFFFFFF AND PUSH20 0xFFFFFFFFFFFFFFFFFFFFFFFFFFFFFFFFFFFFFFFF AND PUSH4 0x23B872DD CALLER ADDRESS DUP8 PUSH1 0x40 MLOAD DUP5 PUSH4 0xFFFFFFFF AND PUSH1 0xE0 SHL DUP2 MSTORE PUSH1 0x4 ADD PUSH2 0x1125 SWAP4 SWAP3 SWAP2 SWAP1 PUSH2 0x41CB JUMP JUMPDEST PUSH1 0x20 PUSH1 0x40 MLOAD DUP1 DUP4 SUB DUP2 PUSH0 DUP8 GAS CALL ISZERO DUP1 ISZERO PUSH2 0x1141 JUMPI RETURNDATASIZE PUSH0 DUP1 RETURNDATACOPY RETURNDATASIZE PUSH0 REVERT JUMPDEST POP POP POP POP PUSH1 0x40 MLOAD RETURNDATASIZE PUSH1 0x1F NOT PUSH1 0x1F DUP3 ADD AND DUP3 ADD DUP1 PUSH1 0x40 MSTORE POP DUP2 ADD SWAP1 PUSH2 0x1165 SWAP2 SWAP1 PUSH2 0x3D7E JUMP JUMPDEST SWAP1 POP DUP1 PUSH2 0x11A7 JUMPI PUSH1 0x40 MLOAD PUSH32 0x8C379A000000000000000000000000000000000000000000000000000000000 DUP2 MSTORE PUSH1 0x4 ADD PUSH2 0x119E SWAP1 PUSH2 0x3DF3 JUMP JUMPDEST PUSH1 0x40 MLOAD DUP1 SWAP2 SUB SWAP1 REVERT JUMPDEST DUP4 PUSH1 0x3 PUSH0 DUP3 DUP3 SLOAD PUSH2 0x11B8 SWAP2 SWAP1 PUSH2 0x3D10 JUMP JUMPDEST SWAP3 POP POP DUP2 SWAP1 SSTORE POP CALLER PUSH20 0xFFFFFFFFFFFFFFFFFFFFFFFFFFFFFFFFFFFFFFFF AND PUSH32 0x9E71BC8EEA02A63969F509818F2DAFB9254532904319F9DBDA79B67BD34A5F3D DUP6 PUSH1 0x40 MLOAD PUSH2 0x1205 SWAP2 SWAP1 PUSH2 0x36F1 JUMP JUMPDEST PUSH1 0x40 MLOAD DUP1 SWAP2 SUB SWAP1 LOG2 POP POP PUSH2 0x1217 PUSH2 0x2016 JUMP JUMPDEST POP POP JUMP JUMPDEST PUSH0 PUSH1 0x3 SLOAD SWAP1 POP SWAP1 JUMP JUMPDEST PUSH1 0x3 SLOAD DUP2 JUMP JUMPDEST PUSH0 PUSH1 0x1 PUSH0 SWAP1 SLOAD SWAP1 PUSH2 0x100 EXP SWAP1 DIV PUSH20 0xFFFFFFFFFFFFFFFFFFFFFFFFFFFFFFFFFFFFFFFF AND SWAP1 POP SWAP1 JUMP JUMPDEST PUSH1 0x4 PUSH1 0x20 MSTORE DUP2 PUSH0 MSTORE PUSH1 0x40 PUSH0 KECCAK256 DUP2 DUP2 SLOAD DUP2 LT PUSH2 0x126B JUMPI PUSH0 DUP1 REVERT JUMPDEST SWAP1 PUSH0 MSTORE PUSH1 0x20 PUSH0 KECCAK256 SWAP1 PUSH1 0x2 MUL ADD PUSH0 SWAP2 POP SWAP2 POP POP DUP1 PUSH0 ADD SLOAD SWAP1 DUP1 PUSH1 0x1 ADD SLOAD SWAP1 POP DUP3 JUMP JUMPDEST PUSH1 0x60 PUSH1 0x8 DUP1 SLOAD PUSH2 0x129B SWAP1 PUSH2 0x3C51 JUMP JUMPDEST DUP1 PUSH1 0x1F ADD PUSH1 0x20 DUP1 SWAP2 DIV MUL PUSH1 0x20 ADD PUSH1 0x40 MLOAD SWAP1 DUP2 ADD PUSH1 0x40 MSTORE DUP1 SWAP3 SWAP2 SWAP1 DUP2 DUP2 MSTORE PUSH1 0x20 ADD DUP3 DUP1 SLOAD PUSH2 0x12C7 SWAP1 PUSH2 0x3C51 JUMP JUMPDEST DUP1 ISZERO PUSH2 0x1312 JUMPI DUP1 PUSH1 0x1F LT PUSH2 0x12E9 JUMPI PUSH2 0x100 DUP1 DUP4 SLOAD DIV MUL DUP4 MSTORE SWAP2 PUSH1 0x20 ADD SWAP2 PUSH2 0x1312 JUMP JUMPDEST DUP3 ADD SWAP2 SWAP1 PUSH0 MSTORE PUSH1 0x20 PUSH0 KECCAK256 SWAP1 JUMPDEST DUP2 SLOAD DUP2 MSTORE SWAP1 PUSH1 0x1 ADD SWAP1 PUSH1 0x20 ADD DUP1 DUP4 GT PUSH2 0x12F5 JUMPI DUP3 SWAP1 SUB PUSH1 0x1F AND DUP3 ADD SWAP2 JUMPDEST POP POP POP POP POP SWAP1 POP SWAP1 JUMP JUMPDEST PUSH2 0x132E PUSH2 0x1327 PUSH2 0x1DA5 JUMP JUMPDEST DUP4 DUP4 PUSH2 0x2169 JUMP JUMPDEST POP POP JUMP JUMPDEST PUSH2 0x133D DUP5 DUP5 DUP5 PUSH2 0x7D9 JUMP JUMPDEST PUSH2 0x1351 PUSH2 0x1348 PUSH2 0x1DA5 JUMP JUMPDEST DUP6 DUP6 DUP6 DUP6 PUSH2 0x22D2 JUMP JUMPDEST POP POP POP POP JUMP JUMPDEST PUSH1 0x60 PUSH0 PUSH1 0x5 DUP4 DUP2 SLOAD DUP2 LT PUSH2 0x136E JUMPI PUSH2 0x136D PUSH2 0x3CB6 JUMP JUMPDEST JUMPDEST SWAP1 PUSH0 MSTORE PUSH1 0x20 PUSH0 KECCAK256 SWAP1 PUSH1 0x7 MUL ADD SWAP1 POP PUSH1 0x60 PUSH1 0x1 PUSH1 0x3 DUP2 GT ISZERO PUSH2 0x1392 JUMPI PUSH2 0x1391 PUSH2 0x3422 JUMP JUMPDEST JUMPDEST DUP3 PUSH1 0x6 ADD PUSH0 SWAP1 SLOAD SWAP1 PUSH2 0x100 EXP SWAP1 DIV PUSH1 0xFF AND PUSH1 0x3 DUP2 GT ISZERO PUSH2 0x13B5 JUMPI PUSH2 0x13B4 PUSH2 0x3422 JUMP JUMPDEST JUMPDEST SUB PUSH2 0x13F7 JUMPI PUSH1 0x40 MLOAD DUP1 PUSH1 0x40 ADD PUSH1 0x40 MSTORE DUP1 PUSH1 0x3 DUP2 MSTORE PUSH1 0x20 ADD PUSH32 0x5965730000000000000000000000000000000000000000000000000000000000 DUP2 MSTORE POP SWAP1 POP PUSH2 0x14AA JUMP JUMPDEST PUSH1 0x2 PUSH1 0x3 DUP2 GT ISZERO PUSH2 0x140B JUMPI PUSH2 0x140A PUSH2 0x3422 JUMP JUMPDEST JUMPDEST DUP3 PUSH1 0x6 ADD PUSH0 SWAP1 SLOAD SWAP1 PUSH2 0x100 EXP SWAP1 DIV PUSH1 0xFF AND PUSH1 0x3 DUP2 GT ISZERO PUSH2 0x142E JUMPI PUSH2 0x142D PUSH2 0x3422 JUMP JUMPDEST JUMPDEST SUB PUSH2 0x1470 JUMPI PUSH1 0x40 MLOAD DUP1 PUSH1 0x40 ADD PUSH1 0x40 MSTORE DUP1 PUSH1 0x2 DUP2 MSTORE PUSH1 0x20 ADD PUSH32 0x4E6F000000000000000000000000000000000000000000000000000000000000 DUP2 MSTORE POP SWAP1 POP PUSH2 0x14A9 JUMP JUMPDEST PUSH1 0x40 MLOAD DUP1 PUSH1 0x40 ADD PUSH1 0x40 MSTORE DUP1 PUSH1 0x9 DUP2 MSTORE PUSH1 0x20 ADD PUSH32 0x496E50726F636573730000000000000000000000000000000000000000000000 DUP2 MSTORE POP SWAP1 POP JUMPDEST JUMPDEST PUSH0 PUSH2 0x14B4 DUP6 PUSH2 0x247E JUMP JUMPDEST DUP4 PUSH1 0x2 ADD PUSH2 0x14C5 DUP6 PUSH1 0x4 ADD SLOAD PUSH2 0x247E JUMP JUMPDEST PUSH2 0x14D2 DUP7 PUSH1 0x5 ADD SLOAD PUSH2 0x247E JUMP JUMPDEST PUSH2 0x14DF DUP8 PUSH1 0x3 ADD SLOAD PUSH2 0x247E JUMP JUMPDEST DUP7 PUSH1 0x40 MLOAD PUSH1 0x20 ADD PUSH2 0x14F5 SWAP7 SWAP6 SWAP5 SWAP4 SWAP3 SWAP2 SWAP1 PUSH2 0x4558 JUMP JUMPDEST PUSH1 0x40 MLOAD PUSH1 0x20 DUP2 DUP4 SUB SUB DUP2 MSTORE SWAP1 PUSH1 0x40 MSTORE SWAP1 POP PUSH0 PUSH2 0x1520 PUSH1 0x6 PUSH0 DUP9 DUP2 MSTORE PUSH1 0x20 ADD SWAP1 DUP2 MSTORE PUSH1 0x20 ADD PUSH0 KECCAK256 PUSH2 0x2548 JUMP JUMPDEST SWAP1 POP PUSH0 DUP2 GT ISZERO PUSH2 0x1668 JUMPI DUP2 PUSH1 0x40 MLOAD PUSH1 0x20 ADD PUSH2 0x153B SWAP2 SWAP1 PUSH2 0x466C JUMP JUMPDEST PUSH1 0x40 MLOAD PUSH1 0x20 DUP2 DUP4 SUB SUB DUP2 MSTORE SWAP1 PUSH1 0x40 MSTORE SWAP2 POP PUSH0 JUMPDEST DUP2 DUP2 LT ISZERO PUSH2 0x1644 JUMPI PUSH0 DUP1 PUSH2 0x157B DUP4 PUSH1 0x6 PUSH0 DUP13 DUP2 MSTORE PUSH1 0x20 ADD SWAP1 DUP2 MSTORE PUSH1 0x20 ADD PUSH0 KECCAK256 PUSH2 0x255B SWAP1 SWAP2 SWAP1 PUSH4 0xFFFFFFFF AND JUMP JUMPDEST SWAP2 POP SWAP2 POP PUSH0 DUP4 GT ISZERO PUSH2 0x15AA JUMPI DUP5 PUSH1 0x40 MLOAD PUSH1 0x20 ADD PUSH2 0x1598 SWAP2 SWAP1 PUSH2 0x46D7 JUMP JUMPDEST PUSH1 0x40 MLOAD PUSH1 0x20 DUP2 DUP4 SUB SUB DUP2 MSTORE SWAP1 PUSH1 0x40 MSTORE SWAP5 POP JUMPDEST DUP5 PUSH2 0x15B4 DUP4 PUSH2 0x2582 JUMP JUMPDEST PUSH2 0x15BD DUP4 PUSH2 0x247E JUMP JUMPDEST PUSH1 0x40 MLOAD PUSH1 0x20 ADD PUSH2 0x15CF SWAP4 SWAP3 SWAP2 SWAP1 PUSH2 0x4742 JUMP JUMPDEST PUSH1 0x40 MLOAD PUSH1 0x20 DUP2 DUP4 SUB SUB DUP2 MSTORE SWAP1 PUSH1 0x40 MSTORE SWAP5 POP PUSH1 0x9 DUP4 LT ISZERO DUP1 ISZERO PUSH2 0x15F1 JUMPI POP PUSH1 0xA DUP5 GT JUMPDEST ISZERO PUSH2 0x1635 JUMPI DUP5 PUSH2 0x160C PUSH1 0xA DUP7 PUSH2 0x1607 SWAP2 SWAP1 PUSH2 0x3E11 JUMP JUMPDEST PUSH2 0x247E JUMP JUMPDEST PUSH1 0x40 MLOAD PUSH1 0x20 ADD PUSH2 0x161D SWAP3 SWAP2 SWAP1 PUSH2 0x47A0 JUMP JUMPDEST PUSH1 0x40 MLOAD PUSH1 0x20 DUP2 DUP4 SUB SUB DUP2 MSTORE SWAP1 PUSH1 0x40 MSTORE SWAP5 POP POP POP PUSH2 0x1644 JUMP JUMPDEST POP POP DUP1 DUP1 PUSH1 0x1 ADD SWAP2 POP POP PUSH2 0x154E JUMP JUMPDEST POP DUP2 PUSH1 0x40 MLOAD PUSH1 0x20 ADD PUSH2 0x1656 SWAP2 SWAP1 PUSH2 0x47D9 JUMP JUMPDEST PUSH1 0x40 MLOAD PUSH1 0x20 DUP2 DUP4 SUB SUB DUP2 MSTORE SWAP1 PUSH1 0x40 MSTORE SWAP2 POP JUMPDEST DUP2 PUSH1 0x40 MLOAD PUSH1 0x20 ADD PUSH2 0x1679 SWAP2 SWAP1 PUSH2 0x4844 JUMP JUMPDEST PUSH1 0x40 MLOAD PUSH1 0x20 DUP2 DUP4 SUB SUB DUP2 MSTORE SWAP1 PUSH1 0x40 MSTORE SWAP2 POP PUSH0 PUSH2 0x1694 DUP4 PUSH2 0x2809 JUMP JUMPDEST SWAP1 POP DUP1 PUSH1 0x40 MLOAD PUSH1 0x20 ADD PUSH2 0x16A7 SWAP2 SWAP1 PUSH2 0x48AF JUMP JUMPDEST PUSH1 0x40 MLOAD PUSH1 0x20 DUP2 DUP4 SUB SUB DUP2 MSTORE SWAP1 PUSH1 0x40 MSTORE SWAP6 POP POP POP POP POP POP SWAP2 SWAP1 POP JUMP JUMPDEST DUP2 PUSH1 0x5 DUP1 SLOAD SWAP1 POP DUP1 DUP3 LT PUSH2 0x170B JUMPI PUSH1 0x40 MLOAD PUSH32 0x8C379A000000000000000000000000000000000000000000000000000000000 DUP2 MSTORE PUSH1 0x4 ADD PUSH2 0x1702 SWAP1 PUSH2 0x41AD JUMP JUMPDEST PUSH1 0x40 MLOAD DUP1 SWAP2 SUB SWAP1 REVERT JUMPDEST PUSH2 0x172E CALLER PUSH1 0x6 PUSH0 DUP8 DUP2 MSTORE PUSH1 0x20 ADD SWAP1 DUP2 MSTORE PUSH1 0x20 ADD PUSH0 KECCAK256 PUSH2 0x2836 SWAP1 SWAP2 SWAP1 PUSH4 0xFFFFFFFF AND JUMP JUMPDEST ISZERO PUSH2 0x176E JUMPI PUSH1 0x40 MLOAD PUSH32 0x8C379A000000000000000000000000000000000000000000000000000000000 DUP2 MSTORE PUSH1 0x4 ADD PUSH2 0x1765 SWAP1 PUSH2 0x491A JUMP JUMPDEST PUSH1 0x40 MLOAD DUP1 SWAP2 SUB SWAP1 REVERT JUMPDEST PUSH0 PUSH1 0x5 DUP6 DUP2 SLOAD DUP2 LT PUSH2 0x1783 JUMPI PUSH2 0x1782 PUSH2 0x3CB6 JUMP JUMPDEST JUMPDEST SWAP1 PUSH0 MSTORE PUSH1 0x20 PUSH0 KECCAK256 SWAP1 PUSH1 0x7 MUL ADD PUSH1 0x40 MLOAD DUP1 PUSH1 0xE0 ADD PUSH1 0x40 MSTORE SWAP1 DUP2 PUSH0 DUP3 ADD SLOAD DUP2 MSTORE PUSH1 0x20 ADD PUSH1 0x1 DUP3 ADD SLOAD DUP2 MSTORE PUSH1 0x20 ADD PUSH1 0x2 DUP3 ADD DUP1 SLOAD PUSH2 0x17BD SWAP1 PUSH2 0x3C51 JUMP JUMPDEST DUP1 PUSH1 0x1F ADD PUSH1 0x20 DUP1 SWAP2 DIV MUL PUSH1 0x20 ADD PUSH1 0x40 MLOAD SWAP1 DUP2 ADD PUSH1 0x40 MSTORE DUP1 SWAP3 SWAP2 SWAP1 DUP2 DUP2 MSTORE PUSH1 0x20 ADD DUP3 DUP1 SLOAD PUSH2 0x17E9 SWAP1 PUSH2 0x3C51 JUMP JUMPDEST DUP1 ISZERO PUSH2 0x1834 JUMPI DUP1 PUSH1 0x1F LT PUSH2 0x180B JUMPI PUSH2 0x100 DUP1 DUP4 SLOAD DIV MUL DUP4 MSTORE SWAP2 PUSH1 0x20 ADD SWAP2 PUSH2 0x1834 JUMP JUMPDEST DUP3 ADD SWAP2 SWAP1 PUSH0 MSTORE PUSH1 0x20 PUSH0 KECCAK256 SWAP1 JUMPDEST DUP2 SLOAD DUP2 MSTORE SWAP1 PUSH1 0x1 ADD SWAP1 PUSH1 0x20 ADD DUP1 DUP4 GT PUSH2 0x1817 JUMPI DUP3 SWAP1 SUB PUSH1 0x1F AND DUP3 ADD SWAP2 JUMPDEST POP POP POP POP POP DUP2 MSTORE PUSH1 0x20 ADD PUSH1 0x3 DUP3 ADD SLOAD DUP2 MSTORE PUSH1 0x20 ADD PUSH1 0x4 DUP3 ADD SLOAD DUP2 MSTORE PUSH1 0x20 ADD PUSH1 0x5 DUP3 ADD SLOAD DUP2 MSTORE PUSH1 0x20 ADD PUSH1 0x6 DUP3 ADD PUSH0 SWAP1 SLOAD SWAP1 PUSH2 0x100 EXP SWAP1 DIV PUSH1 0xFF AND PUSH1 0x3 DUP2 GT ISZERO PUSH2 0x187F JUMPI PUSH2 0x187E PUSH2 0x3422 JUMP JUMPDEST JUMPDEST PUSH1 0x3 DUP2 GT ISZERO PUSH2 0x1891 JUMPI PUSH2 0x1890 PUSH2 0x3422 JUMP JUMPDEST JUMPDEST DUP2 MSTORE POP POP SWAP1 POP PUSH0 PUSH1 0x3 DUP2 GT ISZERO PUSH2 0x18AA JUMPI PUSH2 0x18A9 PUSH2 0x3422 JUMP JUMPDEST JUMPDEST DUP2 PUSH1 0xC0 ADD MLOAD PUSH1 0x3 DUP2 GT ISZERO PUSH2 0x18C1 JUMPI PUSH2 0x18C0 PUSH2 0x3422 JUMP JUMPDEST JUMPDEST EQ PUSH2 0x1901 JUMPI PUSH1 0x40 MLOAD PUSH32 0x8C379A000000000000000000000000000000000000000000000000000000000 DUP2 MSTORE PUSH1 0x4 ADD PUSH2 0x18F8 SWAP1 PUSH2 0x4982 JUMP JUMPDEST PUSH1 0x40 MLOAD DUP1 SWAP2 SUB SWAP1 REVERT JUMPDEST PUSH0 PUSH2 0x190A PUSH2 0x1BD3 JUMP JUMPDEST SWAP1 POP PUSH0 PUSH2 0x1916 DUP3 PUSH2 0x2863 JUMP JUMPDEST SWAP1 POP PUSH0 DUP2 SUB PUSH2 0x195A JUMPI PUSH1 0x40 MLOAD PUSH32 0x8C379A000000000000000000000000000000000000000000000000000000000 DUP2 MSTORE PUSH1 0x4 ADD PUSH2 0x1951 SWAP1 PUSH2 0x49EA JUMP JUMPDEST PUSH1 0x40 MLOAD DUP1 SWAP2 SUB SWAP1 REVERT JUMPDEST DUP6 ISZERO PUSH2 0x19B7 JUMPI DUP1 DUP4 PUSH1 0x80 ADD DUP2 DUP2 MLOAD PUSH2 0x1972 SWAP2 SWAP1 PUSH2 0x3D10 JUMP JUMPDEST SWAP2 POP DUP2 DUP2 MSTORE POP POP PUSH2 0x19B1 CALLER PUSH1 0x1 PUSH1 0x2 DUP2 GT ISZERO PUSH2 0x1991 JUMPI PUSH2 0x1990 PUSH2 0x3422 JUMP JUMPDEST JUMPDEST PUSH1 0x6 PUSH0 DUP12 DUP2 MSTORE PUSH1 0x20 ADD SWAP1 DUP2 MSTORE PUSH1 0x20 ADD PUSH0 KECCAK256 PUSH2 0x28D5 SWAP1 SWAP3 SWAP2 SWAP1 PUSH4 0xFFFFFFFF AND JUMP JUMPDEST POP PUSH2 0x1A09 JUMP JUMPDEST DUP1 DUP4 PUSH1 0xA0 ADD DUP2 DUP2 MLOAD PUSH2 0x19C9 SWAP2 SWAP1 PUSH2 0x3D10 JUMP JUMPDEST SWAP2 POP DUP2 DUP2 MSTORE POP POP PUSH2 0x1A07 CALLER PUSH1 0x2 DUP1 DUP2 GT ISZERO PUSH2 0x19E7 JUMPI PUSH2 0x19E6 PUSH2 0x3422 JUMP JUMPDEST JUMPDEST PUSH1 0x6 PUSH0 DUP12 DUP2 MSTORE PUSH1 0x20 ADD SWAP1 DUP2 MSTORE PUSH1 0x20 ADD PUSH0 KECCAK256 PUSH2 0x28D5 SWAP1 SWAP3 SWAP2 SWAP1 PUSH4 0xFFFFFFFF AND JUMP JUMPDEST POP JUMPDEST DUP3 PUSH1 0x60 ADD DUP1 MLOAD DUP1 SWAP2 SWAP1 PUSH2 0x1A1B SWAP1 PUSH2 0x4A08 JUMP JUMPDEST DUP2 MSTORE POP POP DUP3 PUSH1 0x5 DUP9 DUP2 SLOAD DUP2 LT PUSH2 0x1A34 JUMPI PUSH2 0x1A33 PUSH2 0x3CB6 JUMP JUMPDEST JUMPDEST SWAP1 PUSH0 MSTORE PUSH1 0x20 PUSH0 KECCAK256 SWAP1 PUSH1 0x7 MUL ADD PUSH0 DUP3 ADD MLOAD DUP2 PUSH0 ADD SSTORE PUSH1 0x20 DUP3 ADD MLOAD DUP2 PUSH1 0x1 ADD SSTORE PUSH1 0x40 DUP3 ADD MLOAD DUP2 PUSH1 0x2 ADD SWAP1 DUP2 PUSH2 0x1A67 SWAP2 SWAP1 PUSH2 0x4066 JUMP JUMPDEST POP PUSH1 0x60 DUP3 ADD MLOAD DUP2 PUSH1 0x3 ADD SSTORE PUSH1 0x80 DUP3 ADD MLOAD DUP2 PUSH1 0x4 ADD SSTORE PUSH1 0xA0 DUP3 ADD MLOAD DUP2 PUSH1 0x5 ADD SSTORE PUSH1 0xC0 DUP3 ADD MLOAD DUP2 PUSH1 0x6 ADD PUSH0 PUSH2 0x100 EXP DUP2 SLOAD DUP2 PUSH1 0xFF MUL NOT AND SWAP1 DUP4 PUSH1 0x3 DUP2 GT ISZERO PUSH2 0x1AB0 JUMPI PUSH2 0x1AAF PUSH2 0x3422 JUMP JUMPDEST JUMPDEST MUL OR SWAP1 SSTORE POP SWAP1 POP POP POP POP POP POP POP POP POP JUMP JUMPDEST PUSH0 PUSH1 0xC PUSH0 DUP5 PUSH20 0xFFFFFFFFFFFFFFFFFFFFFFFFFFFFFFFFFFFFFFFF AND PUSH20 0xFFFFFFFFFFFFFFFFFFFFFFFFFFFFFFFFFFFFFFFF AND DUP2 MSTORE PUSH1 0x20 ADD SWAP1 DUP2 MSTORE PUSH1 0x20 ADD PUSH0 KECCAK256 PUSH0 DUP4 PUSH20 0xFFFFFFFFFFFFFFFFFFFFFFFFFFFFFFFFFFFFFFFF AND PUSH20 0xFFFFFFFFFFFFFFFFFFFFFFFFFFFFFFFFFFFFFFFF AND DUP2 MSTORE PUSH1 0x20 ADD SWAP1 DUP2 MSTORE PUSH1 0x20 ADD PUSH0 KECCAK256 PUSH0 SWAP1 SLOAD SWAP1 PUSH2 0x100 EXP SWAP1 DIV PUSH1 0xFF AND SWAP1 POP SWAP3 SWAP2 POP POP JUMP JUMPDEST PUSH2 0x1B57 PUSH2 0x201F JUMP JUMPDEST PUSH0 PUSH20 0xFFFFFFFFFFFFFFFFFFFFFFFFFFFFFFFFFFFFFFFF AND DUP2 PUSH20 0xFFFFFFFFFFFFFFFFFFFFFFFFFFFFFFFFFFFFFFFF AND SUB PUSH2 0x1BC7 JUMPI PUSH0 PUSH1 0x40 MLOAD PUSH32 0x1E4FBDF700000000000000000000000000000000000000000000000000000000 DUP2 MSTORE PUSH1 0x4 ADD PUSH2 0x1BBE SWAP2 SWAP1 PUSH2 0x3392 JUMP JUMPDEST PUSH1 0x40 MLOAD DUP1 SWAP2 SUB SWAP1 REVERT JUMPDEST PUSH2 0x1BD0 DUP2 PUSH2 0x20A6 JUMP JUMPDEST POP JUMP JUMPDEST PUSH1 0x60 PUSH1 0x4 PUSH0 CALLER PUSH20 0xFFFFFFFFFFFFFFFFFFFFFFFFFFFFFFFFFFFFFFFF AND PUSH20 0xFFFFFFFFFFFFFFFFFFFFFFFFFFFFFFFFFFFFFFFF AND DUP2 MSTORE PUSH1 0x20 ADD SWAP1 DUP2 MSTORE PUSH1 0x20 ADD PUSH0 KECCAK256 DUP1 SLOAD DUP1 PUSH1 0x20 MUL PUSH1 0x20 ADD PUSH1 0x40 MLOAD SWAP1 DUP2 ADD PUSH1 0x40 MSTORE DUP1 SWAP3 SWAP2 SWAP1 DUP2 DUP2 MSTORE PUSH1 0x20 ADD PUSH0 SWAP1 JUMPDEST DUP3 DUP3 LT ISZERO PUSH2 0x1C74 JUMPI DUP4 DUP3 SWAP1 PUSH0 MSTORE PUSH1 0x20 PUSH0 KECCAK256 SWAP1 PUSH1 0x2 MUL ADD PUSH1 0x40 MLOAD DUP1 PUSH1 0x40 ADD PUSH1 0x40 MSTORE SWAP1 DUP2 PUSH0 DUP3 ADD SLOAD DUP2 MSTORE PUSH1 0x20 ADD PUSH1 0x1 DUP3 ADD SLOAD DUP2 MSTORE POP POP DUP2 MSTORE PUSH1 0x20 ADD SWAP1 PUSH1 0x1 ADD SWAP1 PUSH2 0x1C31 JUMP JUMPDEST POP POP POP POP SWAP1 POP SWAP1 JUMP JUMPDEST PUSH0 PUSH32 0x1FFC9A700000000000000000000000000000000000000000000000000000000 PUSH28 0xFFFFFFFFFFFFFFFFFFFFFFFFFFFFFFFFFFFFFFFFFFFFFFFFFFFFFFFF NOT AND DUP3 PUSH28 0xFFFFFFFFFFFFFFFFFFFFFFFFFFFFFFFFFFFFFFFFFFFFFFFFFFFFFFFF NOT AND EQ SWAP1 POP SWAP2 SWAP1 POP JUMP JUMPDEST PUSH0 DUP1 PUSH2 0x1CF1 DUP4 PUSH2 0x2906 JUMP JUMPDEST SWAP1 POP PUSH0 PUSH20 0xFFFFFFFFFFFFFFFFFFFFFFFFFFFFFFFFFFFFFFFF AND DUP2 PUSH20 0xFFFFFFFFFFFFFFFFFFFFFFFFFFFFFFFFFFFFFFFF AND SUB PUSH2 0x1D63 JUMPI DUP3 PUSH1 0x40 MLOAD PUSH32 0x7E27328900000000000000000000000000000000000000000000000000000000 DUP2 MSTORE PUSH1 0x4 ADD PUSH2 0x1D5A SWAP2 SWAP1 PUSH2 0x36F1 JUMP JUMPDEST PUSH1 0x40 MLOAD DUP1 SWAP2 SUB SWAP1 REVERT JUMPDEST DUP1 SWAP2 POP POP SWAP2 SWAP1 POP JUMP JUMPDEST PUSH0 PUSH1 0xB PUSH0 DUP4 DUP2 MSTORE PUSH1 0x20 ADD SWAP1 DUP2 MSTORE PUSH1 0x20 ADD PUSH0 KECCAK256 PUSH0 SWAP1 SLOAD SWAP1 PUSH2 0x100 EXP SWAP1 DIV PUSH20 0xFFFFFFFFFFFFFFFFFFFFFFFFFFFFFFFFFFFFFFFF AND SWAP1 POP SWAP2 SWAP1 POP JUMP JUMPDEST PUSH0 CALLER SWAP1 POP SWAP1 JUMP JUMPDEST PUSH2 0x1DB9 DUP4 DUP4 DUP4 PUSH1 0x1 PUSH2 0x293F JUMP JUMPDEST POP POP POP JUMP JUMPDEST PUSH0 DUP1 PUSH2 0x1DC9 DUP5 PUSH2 0x2906 JUMP JUMPDEST SWAP1 POP PUSH0 PUSH20 0xFFFFFFFFFFFFFFFFFFFFFFFFFFFFFFFFFFFFFFFF AND DUP4 PUSH20 0xFFFFFFFFFFFFFFFFFFFFFFFFFFFFFFFFFFFFFFFF AND EQ PUSH2 0x1E0A JUMPI PUSH2 0x1E09 DUP2 DUP5 DUP7 PUSH2 0x2AFE JUMP JUMPDEST JUMPDEST PUSH0 PUSH20 0xFFFFFFFFFFFFFFFFFFFFFFFFFFFFFFFFFFFFFFFF AND DUP2 PUSH20 0xFFFFFFFFFFFFFFFFFFFFFFFFFFFFFFFFFFFFFFFF AND EQ PUSH2 0x1E95 JUMPI PUSH2 0x1E49 PUSH0 DUP6 PUSH0 DUP1 PUSH2 0x293F JUMP JUMPDEST PUSH1 0x1 PUSH1 0xA PUSH0 DUP4 PUSH20 0xFFFFFFFFFFFFFFFFFFFFFFFFFFFFFFFFFFFFFFFF AND PUSH20 0xFFFFFFFFFFFFFFFFFFFFFFFFFFFFFFFFFFFFFFFF AND DUP2 MSTORE PUSH1 0x20 ADD SWAP1 DUP2 MSTORE PUSH1 0x20 ADD PUSH0 KECCAK256 PUSH0 DUP3 DUP3 SLOAD SUB SWAP3 POP POP DUP2 SWAP1 SSTORE POP JUMPDEST PUSH0 PUSH20 0xFFFFFFFFFFFFFFFFFFFFFFFFFFFFFFFFFFFFFFFF AND DUP6 PUSH20 0xFFFFFFFFFFFFFFFFFFFFFFFFFFFFFFFFFFFFFFFF AND EQ PUSH2 0x1F14 JUMPI PUSH1 0x1 PUSH1 0xA PUSH0 DUP8 PUSH20 0xFFFFFFFFFFFFFFFFFFFFFFFFFFFFFFFFFFFFFFFF AND PUSH20 0xFFFFFFFFFFFFFFFFFFFFFFFFFFFFFFFFFFFFFFFF AND DUP2 MSTORE PUSH1 0x20 ADD SWAP1 DUP2 MSTORE PUSH1 0x20 ADD PUSH0 KECCAK256 PUSH0 DUP3 DUP3 SLOAD ADD SWAP3 POP POP DUP2 SWAP1 SSTORE POP JUMPDEST DUP5 PUSH1 0x9 PUSH0 DUP7 DUP2 MSTORE PUSH1 0x20 ADD SWAP1 DUP2 MSTORE PUSH1 0x20 ADD PUSH0 KECCAK256 PUSH0 PUSH2 0x100 EXP DUP2 SLOAD DUP2 PUSH20 0xFFFFFFFFFFFFFFFFFFFFFFFFFFFFFFFFFFFFFFFF MUL NOT AND SWAP1 DUP4 PUSH20 0xFFFFFFFFFFFFFFFFFFFFFFFFFFFFFFFFFFFFFFFF AND MUL OR SWAP1 SSTORE POP DUP4 DUP6 PUSH20 0xFFFFFFFFFFFFFFFFFFFFFFFFFFFFFFFFFFFFFFFF AND DUP3 PUSH20 0xFFFFFFFFFFFFFFFFFFFFFFFFFFFFFFFFFFFFFFFF AND PUSH32 0xDDF252AD1BE2C89B69C2B068FC378DAA952BA7F163C4A11628F55A4DF523B3EF PUSH1 0x40 MLOAD PUSH1 0x40 MLOAD DUP1 SWAP2 SUB SWAP1 LOG4 DUP1 SWAP2 POP POP SWAP4 SWAP3 POP POP POP JUMP JUMPDEST PUSH1 0x2 PUSH0 SLOAD SUB PUSH2 0x200D JUMPI PUSH1 0x40 MLOAD PUSH32 0x8C379A000000000000000000000000000000000000000000000000000000000 DUP2 MSTORE PUSH1 0x4 ADD PUSH2 0x2004 SWAP1 PUSH2 0x4A99 JUMP JUMPDEST PUSH1 0x40 MLOAD DUP1 SWAP2 SUB SWAP1 REVERT JUMPDEST PUSH1 0x2 PUSH0 DUP2 SWAP1 SSTORE POP JUMP JUMPDEST PUSH1 0x1 PUSH0 DUP2 SWAP1 SSTORE POP JUMP JUMPDEST PUSH2 0x2027 PUSH2 0x1DA5 JUMP JUMPDEST PUSH20 0xFFFFFFFFFFFFFFFFFFFFFFFFFFFFFFFFFFFFFFFF AND PUSH2 0x2045 PUSH2 0x122A JUMP JUMPDEST PUSH20 0xFFFFFFFFFFFFFFFFFFFFFFFFFFFFFFFFFFFFFFFF AND EQ PUSH2 0x20A4 JUMPI PUSH2 0x2068 PUSH2 0x1DA5 JUMP JUMPDEST PUSH1 0x40 MLOAD PUSH32 0x118CDAA700000000000000000000000000000000000000000000000000000000 DUP2 MSTORE PUSH1 0x4 ADD PUSH2 0x209B SWAP2 SWAP1 PUSH2 0x3392 JUMP JUMPDEST PUSH1 0x40 MLOAD DUP1 SWAP2 SUB SWAP1 REVERT JUMPDEST JUMP JUMPDEST PUSH0 PUSH1 0x1 PUSH0 SWAP1 SLOAD SWAP1 PUSH2 0x100 EXP SWAP1 DIV PUSH20 0xFFFFFFFFFFFFFFFFFFFFFFFFFFFFFFFFFFFFFFFF AND SWAP1 POP DUP2 PUSH1 0x1 PUSH0 PUSH2 0x100 EXP DUP2 SLOAD DUP2 PUSH20 0xFFFFFFFFFFFFFFFFFFFFFFFFFFFFFFFFFFFFFFFF MUL NOT AND SWAP1 DUP4 PUSH20 0xFFFFFFFFFFFFFFFFFFFFFFFFFFFFFFFFFFFFFFFF AND MUL OR SWAP1 SSTORE POP DUP2 PUSH20 0xFFFFFFFFFFFFFFFFFFFFFFFFFFFFFFFFFFFFFFFF AND DUP2 PUSH20 0xFFFFFFFFFFFFFFFFFFFFFFFFFFFFFFFFFFFFFFFF AND PUSH32 0x8BE0079C531659141344CD1FD0A4F28419497F9722A3DAAFE3B4186F6B6457E0 PUSH1 0x40 MLOAD PUSH1 0x40 MLOAD DUP1 SWAP2 SUB SWAP1 LOG3 POP POP JUMP JUMPDEST PUSH0 PUSH20 0xFFFFFFFFFFFFFFFFFFFFFFFFFFFFFFFFFFFFFFFF AND DUP3 PUSH20 0xFFFFFFFFFFFFFFFFFFFFFFFFFFFFFFFFFFFFFFFF AND SUB PUSH2 0x21D9 JUMPI DUP2 PUSH1 0x40 MLOAD PUSH32 0x5B08BA1800000000000000000000000000000000000000000000000000000000 DUP2 MSTORE PUSH1 0x4 ADD PUSH2 0x21D0 SWAP2 SWAP1 PUSH2 0x3392 JUMP JUMPDEST PUSH1 0x40 MLOAD DUP1 SWAP2 SUB SWAP1 REVERT JUMPDEST DUP1 PUSH1 0xC PUSH0 DUP6 PUSH20 0xFFFFFFFFFFFFFFFFFFFFFFFFFFFFFFFFFFFFFFFF AND PUSH20 0xFFFFFFFFFFFFFFFFFFFFFFFFFFFFFFFFFFFFFFFF AND DUP2 MSTORE PUSH1 0x20 ADD SWAP1 DUP2 MSTORE PUSH1 0x20 ADD PUSH0 KECCAK256 PUSH0 DUP5 PUSH20 0xFFFFFFFFFFFFFFFFFFFFFFFFFFFFFFFFFFFFFFFF AND PUSH20 0xFFFFFFFFFFFFFFFFFFFFFFFFFFFFFFFFFFFFFFFF AND DUP2 MSTORE PUSH1 0x20 ADD SWAP1 DUP2 MSTORE PUSH1 0x20 ADD PUSH0 KECCAK256 PUSH0 PUSH2 0x100 EXP DUP2 SLOAD DUP2 PUSH1 0xFF MUL NOT AND SWAP1 DUP4 ISZERO ISZERO MUL OR SWAP1 SSTORE POP DUP2 PUSH20 0xFFFFFFFFFFFFFFFFFFFFFFFFFFFFFFFFFFFFFFFF AND DUP4 PUSH20 0xFFFFFFFFFFFFFFFFFFFFFFFFFFFFFFFFFFFFFFFF AND PUSH32 0x17307EAB39AB6107E8899845AD3D59BD9653F200F220920489CA2B5937696C31 DUP4 PUSH1 0x40 MLOAD PUSH2 0x22C5 SWAP2 SWAP1 PUSH2 0x324C JUMP JUMPDEST PUSH1 0x40 MLOAD DUP1 SWAP2 SUB SWAP1 LOG3 POP POP POP JUMP JUMPDEST PUSH0 DUP4 PUSH20 0xFFFFFFFFFFFFFFFFFFFFFFFFFFFFFFFFFFFFFFFF AND EXTCODESIZE GT ISZERO PUSH2 0x2477 JUMPI DUP3 PUSH20 0xFFFFFFFFFFFFFFFFFFFFFFFFFFFFFFFFFFFFFFFF AND PUSH4 0x150B7A02 DUP7 DUP7 DUP6 DUP6 PUSH1 0x40 MLOAD DUP6 PUSH4 0xFFFFFFFF AND PUSH1 0xE0 SHL DUP2 MSTORE PUSH1 0x4 ADD PUSH2 0x2330 SWAP5 SWAP4 SWAP3 SWAP2 SWAP1 PUSH2 0x4B09 JUMP JUMPDEST PUSH1 0x20 PUSH1 0x40 MLOAD DUP1 DUP4 SUB DUP2 PUSH0 DUP8 GAS CALL SWAP3 POP POP POP DUP1 ISZERO PUSH2 0x236B JUMPI POP PUSH1 0x40 MLOAD RETURNDATASIZE PUSH1 0x1F NOT PUSH1 0x1F DUP3 ADD AND DUP3 ADD DUP1 PUSH1 0x40 MSTORE POP DUP2 ADD SWAP1 PUSH2 0x2368 SWAP2 SWAP1 PUSH2 0x4B67 JUMP JUMPDEST PUSH1 0x1 JUMPDEST PUSH2 0x23EC JUMPI RETURNDATASIZE DUP1 PUSH0 DUP2 EQ PUSH2 0x2399 JUMPI PUSH1 0x40 MLOAD SWAP2 POP PUSH1 0x1F NOT PUSH1 0x3F RETURNDATASIZE ADD AND DUP3 ADD PUSH1 0x40 MSTORE RETURNDATASIZE DUP3 MSTORE RETURNDATASIZE PUSH0 PUSH1 0x20 DUP5 ADD RETURNDATACOPY PUSH2 0x239E JUMP JUMPDEST PUSH1 0x60 SWAP2 POP JUMPDEST POP PUSH0 DUP2 MLOAD SUB PUSH2 0x23E4 JUMPI DUP4 PUSH1 0x40 MLOAD PUSH32 0x64A0AE9200000000000000000000000000000000000000000000000000000000 DUP2 MSTORE PUSH1 0x4 ADD PUSH2 0x23DB SWAP2 SWAP1 PUSH2 0x3392 JUMP JUMPDEST PUSH1 0x40 MLOAD DUP1 SWAP2 SUB SWAP1 REVERT JUMPDEST DUP1 MLOAD DUP2 PUSH1 0x20 ADD REVERT JUMPDEST PUSH4 0x150B7A02 PUSH1 0xE0 SHL PUSH28 0xFFFFFFFFFFFFFFFFFFFFFFFFFFFFFFFFFFFFFFFFFFFFFFFFFFFFFFFF NOT AND DUP2 PUSH28 0xFFFFFFFFFFFFFFFFFFFFFFFFFFFFFFFFFFFFFFFFFFFFFFFFFFFFFFFF NOT AND EQ PUSH2 0x2475 JUMPI DUP4 PUSH1 0x40 MLOAD PUSH32 0x64A0AE9200000000000000000000000000000000000000000000000000000000 DUP2 MSTORE PUSH1 0x4 ADD PUSH2 0x246C SWAP2 SWAP1 PUSH2 0x3392 JUMP JUMPDEST PUSH1 0x40 MLOAD DUP1 SWAP2 SUB SWAP1 REVERT JUMPDEST POP JUMPDEST POP POP POP POP POP JUMP JUMPDEST PUSH1 0x60 PUSH0 PUSH1 0x1 PUSH2 0x248C DUP5 PUSH2 0x2BC1 JUMP JUMPDEST ADD SWAP1 POP PUSH0 DUP2 PUSH8 0xFFFFFFFFFFFFFFFF DUP2 GT ISZERO PUSH2 0x24AA JUMPI PUSH2 0x24A9 PUSH2 0x3561 JUMP JUMPDEST JUMPDEST PUSH1 0x40 MLOAD SWAP1 DUP1 DUP3 MSTORE DUP1 PUSH1 0x1F ADD PUSH1 0x1F NOT AND PUSH1 0x20 ADD DUP3 ADD PUSH1 0x40 MSTORE DUP1 ISZERO PUSH2 0x24DC JUMPI DUP2 PUSH1 0x20 ADD PUSH1 0x1 DUP3 MUL DUP1 CALLDATASIZE DUP4 CALLDATACOPY DUP1 DUP3 ADD SWAP2 POP POP SWAP1 POP JUMPDEST POP SWAP1 POP PUSH0 DUP3 PUSH1 0x20 ADD DUP3 ADD SWAP1 POP JUMPDEST PUSH1 0x1 ISZERO PUSH2 0x253D JUMPI DUP1 DUP1 PUSH1 0x1 SWAP1 SUB SWAP2 POP POP PUSH32 0x3031323334353637383961626364656600000000000000000000000000000000 PUSH1 0xA DUP7 MOD BYTE DUP2 MSTORE8 PUSH1 0xA DUP6 DUP2 PUSH2 0x2532 JUMPI PUSH2 0x2531 PUSH2 0x4B92 JUMP JUMPDEST JUMPDEST DIV SWAP5 POP PUSH0 DUP6 SUB PUSH2 0x24E9 JUMPI JUMPDEST DUP2 SWAP4 POP POP POP POP SWAP2 SWAP1 POP JUMP JUMPDEST PUSH0 PUSH2 0x2554 DUP3 PUSH0 ADD PUSH2 0x2D12 JUMP JUMPDEST SWAP1 POP SWAP2 SWAP1 POP JUMP JUMPDEST PUSH0 DUP1 PUSH0 DUP1 PUSH2 0x256B DUP7 PUSH0 ADD DUP7 PUSH2 0x2D25 JUMP JUMPDEST SWAP2 POP SWAP2 POP DUP2 PUSH0 SHR DUP2 PUSH0 SHR SWAP4 POP SWAP4 POP POP POP SWAP3 POP SWAP3 SWAP1 POP JUMP JUMPDEST PUSH1 0x60 PUSH0 PUSH1 0x2A PUSH8 0xFFFFFFFFFFFFFFFF DUP2 GT ISZERO PUSH2 0x25A0 JUMPI PUSH2 0x259F PUSH2 0x3561 JUMP JUMPDEST JUMPDEST PUSH1 0x40 MLOAD SWAP1 DUP1 DUP3 MSTORE DUP1 PUSH1 0x1F ADD PUSH1 0x1F NOT AND PUSH1 0x20 ADD DUP3 ADD PUSH1 0x40 MSTORE DUP1 ISZERO PUSH2 0x25D2 JUMPI DUP2 PUSH1 0x20 ADD PUSH1 0x1 DUP3 MUL DUP1 CALLDATASIZE DUP4 CALLDATACOPY DUP1 DUP3 ADD SWAP2 POP POP SWAP1 POP JUMPDEST POP SWAP1 POP PUSH32 0x3000000000000000000000000000000000000000000000000000000000000000 DUP2 PUSH0 DUP2 MLOAD DUP2 LT PUSH2 0x2609 JUMPI PUSH2 0x2608 PUSH2 0x3CB6 JUMP JUMPDEST JUMPDEST PUSH1 0x20 ADD ADD SWAP1 PUSH31 0xFFFFFFFFFFFFFFFFFFFFFFFFFFFFFFFFFFFFFFFFFFFFFFFFFFFFFFFFFFFFFF NOT AND SWAP1 DUP2 PUSH0 BYTE SWAP1 MSTORE8 POP PUSH32 0x7800000000000000000000000000000000000000000000000000000000000000 DUP2 PUSH1 0x1 DUP2 MLOAD DUP2 LT PUSH2 0x266C JUMPI PUSH2 0x266B PUSH2 0x3CB6 JUMP JUMPDEST JUMPDEST PUSH1 0x20 ADD ADD SWAP1 PUSH31 0xFFFFFFFFFFFFFFFFFFFFFFFFFFFFFFFFFFFFFFFFFFFFFFFFFFFFFFFFFFFFFF NOT AND SWAP1 DUP2 PUSH0 BYTE SWAP1 MSTORE8 POP PUSH0 JUMPDEST PUSH1 0x14 DUP2 LT ISZERO PUSH2 0x27FF JUMPI PUSH0 DUP2 PUSH1 0x13 PUSH2 0x26B3 SWAP2 SWAP1 PUSH2 0x3E11 JUMP JUMPDEST PUSH1 0x8 PUSH2 0x26BF SWAP2 SWAP1 PUSH2 0x4BBF JUMP JUMPDEST PUSH1 0x2 PUSH2 0x26CB SWAP2 SWAP1 PUSH2 0x4D2F JUMP JUMPDEST DUP6 PUSH20 0xFFFFFFFFFFFFFFFFFFFFFFFFFFFFFFFFFFFFFFFF AND PUSH2 0x26EC SWAP2 SWAP1 PUSH2 0x4D79 JUMP JUMPDEST PUSH1 0xF8 SHL SWAP1 POP PUSH0 PUSH1 0x10 DUP3 PUSH1 0xF8 SHR PUSH2 0x2702 SWAP2 SWAP1 PUSH2 0x4DB5 JUMP JUMPDEST PUSH1 0xF8 SHL SWAP1 POP PUSH0 DUP2 PUSH1 0xF8 SHR PUSH1 0x10 PUSH2 0x2718 SWAP2 SWAP1 PUSH2 0x4DE5 JUMP JUMPDEST DUP4 PUSH1 0xF8 SHR PUSH2 0x2726 SWAP2 SWAP1 PUSH2 0x4E21 JUMP JUMPDEST PUSH1 0xF8 SHL SWAP1 POP PUSH2 0x2734 DUP3 PUSH2 0x2D60 JUMP JUMPDEST DUP6 PUSH1 0x2 DUP7 PUSH1 0x2 PUSH2 0x2744 SWAP2 SWAP1 PUSH2 0x4BBF JUMP JUMPDEST PUSH2 0x274E SWAP2 SWAP1 PUSH2 0x3D10 JUMP JUMPDEST DUP2 MLOAD DUP2 LT PUSH2 0x275F JUMPI PUSH2 0x275E PUSH2 0x3CB6 JUMP JUMPDEST JUMPDEST PUSH1 0x20 ADD ADD SWAP1 PUSH31 0xFFFFFFFFFFFFFFFFFFFFFFFFFFFFFFFFFFFFFFFFFFFFFFFFFFFFFFFFFFFFFF NOT AND SWAP1 DUP2 PUSH0 BYTE SWAP1 MSTORE8 POP PUSH2 0x2796 DUP2 PUSH2 0x2D60 JUMP JUMPDEST DUP6 PUSH1 0x3 DUP7 PUSH1 0x2 PUSH2 0x27A6 SWAP2 SWAP1 PUSH2 0x4BBF JUMP JUMPDEST PUSH2 0x27B0 SWAP2 SWAP1 PUSH2 0x3D10 JUMP JUMPDEST DUP2 MLOAD DUP2 LT PUSH2 0x27C1 JUMPI PUSH2 0x27C0 PUSH2 0x3CB6 JUMP JUMPDEST JUMPDEST PUSH1 0x20 ADD ADD SWAP1 PUSH31 0xFFFFFFFFFFFFFFFFFFFFFFFFFFFFFFFFFFFFFFFFFFFFFFFFFFFFFFFFFFFFFF NOT AND SWAP1 DUP2 PUSH0 BYTE SWAP1 MSTORE8 POP POP POP POP DUP1 DUP1 PUSH1 0x1 ADD SWAP2 POP POP PUSH2 0x269C JUMP JUMPDEST POP DUP1 SWAP2 POP POP SWAP2 SWAP1 POP JUMP JUMPDEST PUSH1 0x60 PUSH2 0x282F DUP3 PUSH1 0x40 MLOAD DUP1 PUSH1 0x60 ADD PUSH1 0x40 MSTORE DUP1 PUSH1 0x40 DUP2 MSTORE PUSH1 0x20 ADD PUSH2 0x4ED4 PUSH1 0x40 SWAP2 CODECOPY PUSH1 0x1 PUSH2 0x2DA5 JUMP JUMPDEST SWAP1 POP SWAP2 SWAP1 POP JUMP JUMPDEST PUSH0 PUSH2 0x285B DUP4 PUSH0 ADD DUP4 PUSH20 0xFFFFFFFFFFFFFFFFFFFFFFFFFFFFFFFFFFFFFFFF AND PUSH0 SHL PUSH2 0x2F34 JUMP JUMPDEST SWAP1 POP SWAP3 SWAP2 POP POP JUMP JUMPDEST PUSH0 DUP1 PUSH0 SWAP1 POP PUSH0 JUMPDEST DUP4 MLOAD DUP2 LT ISZERO PUSH2 0x28CB JUMPI PUSH0 DUP5 DUP3 DUP2 MLOAD DUP2 LT PUSH2 0x2887 JUMPI PUSH2 0x2886 PUSH2 0x3CB6 JUMP JUMPDEST JUMPDEST PUSH1 0x20 MUL PUSH1 0x20 ADD ADD MLOAD SWAP1 POP PUSH1 0x2 DUP2 PUSH1 0x20 ADD MLOAD PUSH2 0x28A2 SWAP2 SWAP1 PUSH2 0x4E55 JUMP JUMPDEST DUP2 PUSH0 ADD MLOAD PUSH2 0x28B0 SWAP2 SWAP1 PUSH2 0x4BBF JUMP JUMPDEST DUP4 PUSH2 0x28BB SWAP2 SWAP1 PUSH2 0x3D10 JUMP JUMPDEST SWAP3 POP POP DUP1 DUP1 PUSH1 0x1 ADD SWAP2 POP POP PUSH2 0x286A JUMP JUMPDEST POP DUP1 SWAP2 POP POP SWAP2 SWAP1 POP JUMP JUMPDEST PUSH0 PUSH2 0x28FD DUP5 PUSH0 ADD DUP5 PUSH20 0xFFFFFFFFFFFFFFFFFFFFFFFFFFFFFFFFFFFFFFFF AND PUSH0 SHL DUP5 PUSH0 SHL PUSH2 0x2F52 JUMP JUMPDEST SWAP1 POP SWAP4 SWAP3 POP POP POP JUMP JUMPDEST PUSH0 PUSH1 0x9 PUSH0 DUP4 DUP2 MSTORE PUSH1 0x20 ADD SWAP1 DUP2 MSTORE PUSH1 0x20 ADD PUSH0 KECCAK256 PUSH0 SWAP1 SLOAD SWAP1 PUSH2 0x100 EXP SWAP1 DIV PUSH20 0xFFFFFFFFFFFFFFFFFFFFFFFFFFFFFFFFFFFFFFFF AND SWAP1 POP SWAP2 SWAP1 POP JUMP JUMPDEST DUP1 DUP1 PUSH2 0x2977 JUMPI POP PUSH0 PUSH20 0xFFFFFFFFFFFFFFFFFFFFFFFFFFFFFFFFFFFFFFFF AND DUP3 PUSH20 0xFFFFFFFFFFFFFFFFFFFFFFFFFFFFFFFFFFFFFFFF AND EQ ISZERO JUMPDEST ISZERO PUSH2 0x2AA9 JUMPI PUSH0 PUSH2 0x2986 DUP5 PUSH2 0x1CE6 JUMP JUMPDEST SWAP1 POP PUSH0 PUSH20 0xFFFFFFFFFFFFFFFFFFFFFFFFFFFFFFFFFFFFFFFF AND DUP4 PUSH20 0xFFFFFFFFFFFFFFFFFFFFFFFFFFFFFFFFFFFFFFFF AND EQ ISZERO DUP1 ISZERO PUSH2 0x29F0 JUMPI POP DUP3 PUSH20 0xFFFFFFFFFFFFFFFFFFFFFFFFFFFFFFFFFFFFFFFF AND DUP2 PUSH20 0xFFFFFFFFFFFFFFFFFFFFFFFFFFFFFFFFFFFFFFFF AND EQ ISZERO JUMPDEST DUP1 ISZERO PUSH2 0x2A03 JUMPI POP PUSH2 0x2A01 DUP2 DUP5 PUSH2 0x1AC1 JUMP JUMPDEST ISZERO JUMPDEST ISZERO PUSH2 0x2A45 JUMPI DUP3 PUSH1 0x40 MLOAD PUSH32 0xA9FBF51F00000000000000000000000000000000000000000000000000000000 DUP2 MSTORE PUSH1 0x4 ADD PUSH2 0x2A3C SWAP2 SWAP1 PUSH2 0x3392 JUMP JUMPDEST PUSH1 0x40 MLOAD DUP1 SWAP2 SUB SWAP1 REVERT JUMPDEST DUP2 ISZERO PUSH2 0x2AA7 JUMPI DUP4 DUP6 PUSH20 0xFFFFFFFFFFFFFFFFFFFFFFFFFFFFFFFFFFFFFFFF AND DUP3 PUSH20 0xFFFFFFFFFFFFFFFFFFFFFFFFFFFFFFFFFFFFFFFF AND PUSH32 0x8C5BE1E5EBEC7D5BD14F71427D1E84F3DD0314C0F7B2291E5B200AC8C7C3B925 PUSH1 0x40 MLOAD PUSH1 0x40 MLOAD DUP1 SWAP2 SUB SWAP1 LOG4 JUMPDEST POP JUMPDEST DUP4 PUSH1 0xB PUSH0 DUP6 DUP2 MSTORE PUSH1 0x20 ADD SWAP1 DUP2 MSTORE PUSH1 0x20 ADD PUSH0 KECCAK256 PUSH0 PUSH2 0x100 EXP DUP2 SLOAD DUP2 PUSH20 0xFFFFFFFFFFFFFFFFFFFFFFFFFFFFFFFFFFFFFFFF MUL NOT AND SWAP1 DUP4 PUSH20 0xFFFFFFFFFFFFFFFFFFFFFFFFFFFFFFFFFFFFFFFF AND MUL OR SWAP1 SSTORE POP POP POP POP POP JUMP JUMPDEST PUSH2 0x2B09 DUP4 DUP4 DUP4 PUSH2 0x2F89 JUMP JUMPDEST PUSH2 0x2BBC JUMPI PUSH0 PUSH20 0xFFFFFFFFFFFFFFFFFFFFFFFFFFFFFFFFFFFFFFFF AND DUP4 PUSH20 0xFFFFFFFFFFFFFFFFFFFFFFFFFFFFFFFFFFFFFFFF AND SUB PUSH2 0x2B7D JUMPI DUP1 PUSH1 0x40 MLOAD PUSH32 0x7E27328900000000000000000000000000000000000000000000000000000000 DUP2 MSTORE PUSH1 0x4 ADD PUSH2 0x2B74 SWAP2 SWAP1 PUSH2 0x36F1 JUMP JUMPDEST PUSH1 0x40 MLOAD DUP1 SWAP2 SUB SWAP1 REVERT JUMPDEST DUP2 DUP2 PUSH1 0x40 MLOAD PUSH32 0x177E802F00000000000000000000000000000000000000000000000000000000 DUP2 MSTORE PUSH1 0x4 ADD PUSH2 0x2BB3 SWAP3 SWAP2 SWAP1 PUSH2 0x3D43 JUMP JUMPDEST PUSH1 0x40 MLOAD DUP1 SWAP2 SUB SWAP1 REVERT JUMPDEST POP POP POP JUMP JUMPDEST PUSH0 DUP1 PUSH0 SWAP1 POP PUSH27 0x184F03E93FF9F4DAA797ED6E38ED64BF6A1F010000000000000000 DUP4 LT PUSH2 0x2C1D JUMPI PUSH27 0x184F03E93FF9F4DAA797ED6E38ED64BF6A1F010000000000000000 DUP4 DUP2 PUSH2 0x2C13 JUMPI PUSH2 0x2C12 PUSH2 0x4B92 JUMP JUMPDEST JUMPDEST DIV SWAP3 POP PUSH1 0x40 DUP2 ADD SWAP1 POP JUMPDEST PUSH14 0x4EE2D6D415B85ACEF8100000000 DUP4 LT PUSH2 0x2C5A JUMPI PUSH14 0x4EE2D6D415B85ACEF8100000000 DUP4 DUP2 PUSH2 0x2C50 JUMPI PUSH2 0x2C4F PUSH2 0x4B92 JUMP JUMPDEST JUMPDEST DIV SWAP3 POP PUSH1 0x20 DUP2 ADD SWAP1 POP JUMPDEST PUSH7 0x2386F26FC10000 DUP4 LT PUSH2 0x2C89 JUMPI PUSH7 0x2386F26FC10000 DUP4 DUP2 PUSH2 0x2C7F JUMPI PUSH2 0x2C7E PUSH2 0x4B92 JUMP JUMPDEST JUMPDEST DIV SWAP3 POP PUSH1 0x10 DUP2 ADD SWAP1 POP JUMPDEST PUSH4 0x5F5E100 DUP4 LT PUSH2 0x2CB2 JUMPI PUSH4 0x5F5E100 DUP4 DUP2 PUSH2 0x2CA8 JUMPI PUSH2 0x2CA7 PUSH2 0x4B92 JUMP JUMPDEST JUMPDEST DIV SWAP3 POP PUSH1 0x8 DUP2 ADD SWAP1 POP JUMPDEST PUSH2 0x2710 DUP4 LT PUSH2 0x2CD7 JUMPI PUSH2 0x2710 DUP4 DUP2 PUSH2 0x2CCD JUMPI PUSH2 0x2CCC PUSH2 0x4B92 JUMP JUMPDEST JUMPDEST DIV SWAP3 POP PUSH1 0x4 DUP2 ADD SWAP1 POP JUMPDEST PUSH1 0x64 DUP4 LT PUSH2 0x2CFA JUMPI PUSH1 0x64 DUP4 DUP2 PUSH2 0x2CF0 JUMPI PUSH2 0x2CEF PUSH2 0x4B92 JUMP JUMPDEST JUMPDEST DIV SWAP3 POP PUSH1 0x2 DUP2 ADD SWAP1 POP JUMPDEST PUSH1 0xA DUP4 LT PUSH2 0x2D09 JUMPI PUSH1 0x1 DUP2 ADD SWAP1 POP JUMPDEST DUP1 SWAP2 POP POP SWAP2 SWAP1 POP JUMP JUMPDEST PUSH0 PUSH2 0x2D1E DUP3 PUSH0 ADD PUSH2 0x3049 JUMP JUMPDEST SWAP1 POP SWAP2 SWAP1 POP JUMP JUMPDEST PUSH0 DUP1 PUSH0 PUSH2 0x2D3D DUP5 DUP7 PUSH0 ADD PUSH2 0x305C SWAP1 SWAP2 SWAP1 PUSH4 0xFFFFFFFF AND JUMP JUMPDEST SWAP1 POP DUP1 DUP6 PUSH1 0x2 ADD PUSH0 DUP4 DUP2 MSTORE PUSH1 0x20 ADD SWAP1 DUP2 MSTORE PUSH1 0x20 ADD PUSH0 KECCAK256 SLOAD SWAP3 POP SWAP3 POP POP SWAP3 POP SWAP3 SWAP1 POP JUMP JUMPDEST PUSH0 PUSH1 0xA DUP3 PUSH1 0xF8 SHR PUSH1 0xFF AND LT ISZERO PUSH2 0x2D8A JUMPI PUSH1 0x30 DUP3 PUSH1 0xF8 SHR PUSH2 0x2D80 SWAP2 SWAP1 PUSH2 0x4E9F JUMP JUMPDEST PUSH1 0xF8 SHL SWAP1 POP PUSH2 0x2DA0 JUMP JUMPDEST PUSH1 0x57 DUP3 PUSH1 0xF8 SHR PUSH2 0x2D9A SWAP2 SWAP1 PUSH2 0x4E9F JUMP JUMPDEST PUSH1 0xF8 SHL SWAP1 POP JUMPDEST SWAP2 SWAP1 POP JUMP JUMPDEST PUSH1 0x60 PUSH0 DUP5 MLOAD SUB PUSH2 0x2DC5 JUMPI PUSH1 0x40 MLOAD DUP1 PUSH1 0x20 ADD PUSH1 0x40 MSTORE DUP1 PUSH0 DUP2 MSTORE POP SWAP1 POP PUSH2 0x2F2D JUMP JUMPDEST PUSH0 DUP3 PUSH2 0x2DF6 JUMPI PUSH1 0x3 PUSH1 0x2 DUP7 MLOAD PUSH1 0x4 PUSH2 0x2DDD SWAP2 SWAP1 PUSH2 0x4BBF JUMP JUMPDEST PUSH2 0x2DE7 SWAP2 SWAP1 PUSH2 0x3D10 JUMP JUMPDEST PUSH2 0x2DF1 SWAP2 SWAP1 PUSH2 0x4D79 JUMP JUMPDEST PUSH2 0x2E1D JUMP JUMPDEST PUSH1 0x3 PUSH1 0x2 DUP7 MLOAD PUSH2 0x2E06 SWAP2 SWAP1 PUSH2 0x3D10 JUMP JUMPDEST PUSH2 0x2E10 SWAP2 SWAP1 PUSH2 0x4D79 JUMP JUMPDEST PUSH1 0x4 PUSH2 0x2E1C SWAP2 SWAP1 PUSH2 0x4BBF JUMP JUMPDEST JUMPDEST SWAP1 POP PUSH0 DUP2 PUSH8 0xFFFFFFFFFFFFFFFF DUP2 GT ISZERO PUSH2 0x2E3A JUMPI PUSH2 0x2E39 PUSH2 0x3561 JUMP JUMPDEST JUMPDEST PUSH1 0x40 MLOAD SWAP1 DUP1 DUP3 MSTORE DUP1 PUSH1 0x1F ADD PUSH1 0x1F NOT AND PUSH1 0x20 ADD DUP3 ADD PUSH1 0x40 MSTORE DUP1 ISZERO PUSH2 0x2E6C JUMPI DUP2 PUSH1 0x20 ADD PUSH1 0x1 DUP3 MUL DUP1 CALLDATASIZE DUP4 CALLDATACOPY DUP1 DUP3 ADD SWAP2 POP POP SWAP1 POP JUMPDEST POP SWAP1 POP PUSH1 0x1 DUP6 ADD PUSH1 0x20 DUP3 ADD DUP8 DUP9 MLOAD DUP10 ADD PUSH1 0x20 DUP2 ADD DUP1 MLOAD PUSH0 DUP3 MSTORE JUMPDEST DUP3 DUP5 LT ISZERO PUSH2 0x2EE1 JUMPI PUSH1 0x3 DUP5 ADD SWAP4 POP DUP4 MLOAD PUSH1 0x3F DUP2 PUSH1 0x12 SHR AND DUP8 ADD MLOAD DUP7 MSTORE8 PUSH1 0x1 DUP7 ADD SWAP6 POP PUSH1 0x3F DUP2 PUSH1 0xC SHR AND DUP8 ADD MLOAD DUP7 MSTORE8 PUSH1 0x1 DUP7 ADD SWAP6 POP PUSH1 0x3F DUP2 PUSH1 0x6 SHR AND DUP8 ADD MLOAD DUP7 MSTORE8 PUSH1 0x1 DUP7 ADD SWAP6 POP PUSH1 0x3F DUP2 AND DUP8 ADD MLOAD DUP7 MSTORE8 PUSH1 0x1 DUP7 ADD SWAP6 POP POP PUSH2 0x2E86 JUMP JUMPDEST DUP1 DUP3 MSTORE DUP10 ISZERO PUSH2 0x2F21 JUMPI PUSH1 0x3 DUP13 MLOAD MOD PUSH1 0x1 DUP2 EQ PUSH2 0x2F04 JUMPI PUSH1 0x2 DUP2 EQ PUSH2 0x2F17 JUMPI PUSH2 0x2F1F JUMP JUMPDEST PUSH1 0x3D PUSH1 0x1 DUP8 SUB MSTORE8 PUSH1 0x3D PUSH1 0x2 DUP8 SUB MSTORE8 PUSH2 0x2F1F JUMP JUMPDEST PUSH1 0x3D PUSH1 0x1 DUP8 SUB MSTORE8 JUMPDEST POP JUMPDEST POP POP POP POP POP POP DUP1 SWAP3 POP POP POP JUMPDEST SWAP4 SWAP3 POP POP POP JUMP JUMPDEST PUSH0 PUSH2 0x2F4A DUP3 DUP5 PUSH0 ADD PUSH2 0x3071 SWAP1 SWAP2 SWAP1 PUSH4 0xFFFFFFFF AND JUMP JUMPDEST SWAP1 POP SWAP3 SWAP2 POP POP JUMP JUMPDEST PUSH0 DUP2 DUP5 PUSH1 0x2 ADD PUSH0 DUP6 DUP2 MSTORE PUSH1 0x20 ADD SWAP1 DUP2 MSTORE PUSH1 0x20 ADD PUSH0 KECCAK256 DUP2 SWAP1 SSTORE POP PUSH2 0x2F80 DUP4 DUP6 PUSH0 ADD PUSH2 0x3086 SWAP1 SWAP2 SWAP1 PUSH4 0xFFFFFFFF AND JUMP JUMPDEST SWAP1 POP SWAP4 SWAP3 POP POP POP JUMP JUMPDEST PUSH0 DUP1 PUSH20 0xFFFFFFFFFFFFFFFFFFFFFFFFFFFFFFFFFFFFFFFF AND DUP4 PUSH20 0xFFFFFFFFFFFFFFFFFFFFFFFFFFFFFFFFFFFFFFFF AND EQ ISZERO DUP1 ISZERO PUSH2 0x3040 JUMPI POP DUP3 PUSH20 0xFFFFFFFFFFFFFFFFFFFFFFFFFFFFFFFFFFFFFFFF AND DUP5 PUSH20 0xFFFFFFFFFFFFFFFFFFFFFFFFFFFFFFFFFFFFFFFF AND EQ DUP1 PUSH2 0x3001 JUMPI POP PUSH2 0x3000 DUP5 DUP5 PUSH2 0x1AC1 JUMP JUMPDEST JUMPDEST DUP1 PUSH2 0x303F JUMPI POP DUP3 PUSH20 0xFFFFFFFFFFFFFFFFFFFFFFFFFFFFFFFFFFFFFFFF AND PUSH2 0x3027 DUP4 PUSH2 0x1D6C JUMP JUMPDEST PUSH20 0xFFFFFFFFFFFFFFFFFFFFFFFFFFFFFFFFFFFFFFFF AND EQ JUMPDEST JUMPDEST SWAP1 POP SWAP4 SWAP3 POP POP POP JUMP JUMPDEST PUSH0 PUSH2 0x3055 DUP3 PUSH0 ADD PUSH2 0x309B JUMP JUMPDEST SWAP1 POP SWAP2 SWAP1 POP JUMP JUMPDEST PUSH0 PUSH2 0x3069 DUP4 PUSH0 ADD DUP4 PUSH2 0x30AA JUMP JUMPDEST SWAP1 POP SWAP3 SWAP2 POP POP JUMP JUMPDEST PUSH0 PUSH2 0x307E DUP4 PUSH0 ADD DUP4 PUSH2 0x30D1 JUMP JUMPDEST SWAP1 POP SWAP3 SWAP2 POP POP JUMP JUMPDEST PUSH0 PUSH2 0x3093 DUP4 PUSH0 ADD DUP4 PUSH2 0x30F1 JUMP JUMPDEST SWAP1 POP SWAP3 SWAP2 POP POP JUMP JUMPDEST PUSH0 DUP2 PUSH0 ADD DUP1 SLOAD SWAP1 POP SWAP1 POP SWAP2 SWAP1 POP JUMP JUMPDEST PUSH0 DUP3 PUSH0 ADD DUP3 DUP2 SLOAD DUP2 LT PUSH2 0x30C0 JUMPI PUSH2 0x30BF PUSH2 0x3CB6 JUMP JUMPDEST JUMPDEST SWAP1 PUSH0 MSTORE PUSH1 0x20 PUSH0 KECCAK256 ADD SLOAD SWAP1 POP SWAP3 SWAP2 POP POP JUMP JUMPDEST PUSH0 DUP1 DUP4 PUSH1 0x1 ADD PUSH0 DUP5 DUP2 MSTORE PUSH1 0x20 ADD SWAP1 DUP2 MSTORE PUSH1 0x20 ADD PUSH0 KECCAK256 SLOAD EQ ISZERO SWAP1 POP SWAP3 SWAP2 POP POP JUMP JUMPDEST PUSH0 PUSH2 0x30FC DUP4 DUP4 PUSH2 0x30D1 JUMP JUMPDEST PUSH2 0x314E JUMPI DUP3 PUSH0 ADD DUP3 SWAP1 DUP1 PUSH1 0x1 DUP2 SLOAD ADD DUP1 DUP3 SSTORE DUP1 SWAP2 POP POP PUSH1 0x1 SWAP1 SUB SWAP1 PUSH0 MSTORE PUSH1 0x20 PUSH0 KECCAK256 ADD PUSH0 SWAP1 SWAP2 SWAP1 SWAP2 SWAP1 SWAP2 POP SSTORE DUP3 PUSH0 ADD DUP1 SLOAD SWAP1 POP DUP4 PUSH1 0x1 ADD PUSH0 DUP5 DUP2 MSTORE PUSH1 0x20 ADD SWAP1 DUP2 MSTORE PUSH1 0x20 ADD PUSH0 KECCAK256 DUP2 SWAP1 SSTORE POP PUSH1 0x1 SWAP1 POP PUSH2 0x3152 JUMP JUMPDEST PUSH0 SWAP1 POP JUMPDEST SWAP3 SWAP2 POP POP JUMP JUMPDEST PUSH1 0x40 MLOAD DUP1 PUSH1 0xE0 ADD PUSH1 0x40 MSTORE DUP1 PUSH0 DUP2 MSTORE PUSH1 0x20 ADD PUSH0 DUP2 MSTORE PUSH1 0x20 ADD PUSH1 0x60 DUP2 MSTORE PUSH1 0x20 ADD PUSH0 DUP2 MSTORE PUSH1 0x20 ADD PUSH0 DUP2 MSTORE PUSH1 0x20 ADD PUSH0 DUP2 MSTORE PUSH1 0x20 ADD PUSH0 PUSH1 0x3 DUP2 GT ISZERO PUSH2 0x319B JUMPI PUSH2 0x319A PUSH2 0x3422 JUMP JUMPDEST JUMPDEST DUP2 MSTORE POP SWAP1 JUMP JUMPDEST PUSH0 PUSH1 0x40 MLOAD SWAP1 POP SWAP1 JUMP JUMPDEST PUSH0 DUP1 REVERT JUMPDEST PUSH0 DUP1 REVERT JUMPDEST PUSH0 PUSH32 0xFFFFFFFF00000000000000000000000000000000000000000000000000000000 DUP3 AND SWAP1 POP SWAP2 SWAP1 POP JUMP JUMPDEST PUSH2 0x31E6 DUP2 PUSH2 0x31B2 JUMP JUMPDEST DUP2 EQ PUSH2 0x31F0 JUMPI PUSH0 DUP1 REVERT JUMPDEST POP JUMP JUMPDEST PUSH0 DUP2 CALLDATALOAD SWAP1 POP PUSH2 0x3201 DUP2 PUSH2 0x31DD JUMP JUMPDEST SWAP3 SWAP2 POP POP JUMP JUMPDEST PUSH0 PUSH1 0x20 DUP3 DUP5 SUB SLT ISZERO PUSH2 0x321C JUMPI PUSH2 0x321B PUSH2 0x31AA JUMP JUMPDEST JUMPDEST PUSH0 PUSH2 0x3229 DUP5 DUP3 DUP6 ADD PUSH2 0x31F3 JUMP JUMPDEST SWAP2 POP POP SWAP3 SWAP2 POP POP JUMP JUMPDEST PUSH0 DUP2 ISZERO ISZERO SWAP1 POP SWAP2 SWAP1 POP JUMP JUMPDEST PUSH2 0x3246 DUP2 PUSH2 0x3232 JUMP JUMPDEST DUP3 MSTORE POP POP JUMP JUMPDEST PUSH0 PUSH1 0x20 DUP3 ADD SWAP1 POP PUSH2 0x325F PUSH0 DUP4 ADD DUP5 PUSH2 0x323D JUMP JUMPDEST SWAP3 SWAP2 POP POP JUMP JUMPDEST PUSH0 DUP2 MLOAD SWAP1 POP SWAP2 SWAP1 POP JUMP JUMPDEST PUSH0 DUP3 DUP3 MSTORE PUSH1 0x20 DUP3 ADD SWAP1 POP SWAP3 SWAP2 POP POP JUMP JUMPDEST DUP3 DUP2 DUP4 MCOPY PUSH0 DUP4 DUP4 ADD MSTORE POP POP POP JUMP JUMPDEST PUSH0 PUSH1 0x1F NOT PUSH1 0x1F DUP4 ADD AND SWAP1 POP SWAP2 SWAP1 POP JUMP JUMPDEST PUSH0 PUSH2 0x32A7 DUP3 PUSH2 0x3265 JUMP JUMPDEST PUSH2 0x32B1 DUP2 DUP6 PUSH2 0x326F JUMP JUMPDEST SWAP4 POP PUSH2 0x32C1 DUP2 DUP6 PUSH1 0x20 DUP7 ADD PUSH2 0x327F JUMP JUMPDEST PUSH2 0x32CA DUP2 PUSH2 0x328D JUMP JUMPDEST DUP5 ADD SWAP2 POP POP SWAP3 SWAP2 POP POP JUMP JUMPDEST PUSH0 PUSH1 0x20 DUP3 ADD SWAP1 POP DUP2 DUP2 SUB PUSH0 DUP4 ADD MSTORE PUSH2 0x32ED DUP2 DUP5 PUSH2 0x329D JUMP JUMPDEST SWAP1 POP SWAP3 SWAP2 POP POP JUMP JUMPDEST PUSH0 DUP2 SWAP1 POP SWAP2 SWAP1 POP JUMP JUMPDEST PUSH2 0x3307 DUP2 PUSH2 0x32F5 JUMP JUMPDEST DUP2 EQ PUSH2 0x3311 JUMPI PUSH0 DUP1 REVERT JUMPDEST POP JUMP JUMPDEST PUSH0 DUP2 CALLDATALOAD SWAP1 POP PUSH2 0x3322 DUP2 PUSH2 0x32FE JUMP JUMPDEST SWAP3 SWAP2 POP POP JUMP JUMPDEST PUSH0 PUSH1 0x20 DUP3 DUP5 SUB SLT ISZERO PUSH2 0x333D JUMPI PUSH2 0x333C PUSH2 0x31AA JUMP JUMPDEST JUMPDEST PUSH0 PUSH2 0x334A DUP5 DUP3 DUP6 ADD PUSH2 0x3314 JUMP JUMPDEST SWAP2 POP POP SWAP3 SWAP2 POP POP JUMP JUMPDEST PUSH0 PUSH20 0xFFFFFFFFFFFFFFFFFFFFFFFFFFFFFFFFFFFFFFFF DUP3 AND SWAP1 POP SWAP2 SWAP1 POP JUMP JUMPDEST PUSH0 PUSH2 0x337C DUP3 PUSH2 0x3353 JUMP JUMPDEST SWAP1 POP SWAP2 SWAP1 POP JUMP JUMPDEST PUSH2 0x338C DUP2 PUSH2 0x3372 JUMP JUMPDEST DUP3 MSTORE POP POP JUMP JUMPDEST PUSH0 PUSH1 0x20 DUP3 ADD SWAP1 POP PUSH2 0x33A5 PUSH0 DUP4 ADD DUP5 PUSH2 0x3383 JUMP JUMPDEST SWAP3 SWAP2 POP POP JUMP JUMPDEST PUSH2 0x33B4 DUP2 PUSH2 0x3372 JUMP JUMPDEST DUP2 EQ PUSH2 0x33BE JUMPI PUSH0 DUP1 REVERT JUMPDEST POP JUMP JUMPDEST PUSH0 DUP2 CALLDATALOAD SWAP1 POP PUSH2 0x33CF DUP2 PUSH2 0x33AB JUMP JUMPDEST SWAP3 SWAP2 POP POP JUMP JUMPDEST PUSH0 DUP1 PUSH1 0x40 DUP4 DUP6 SUB SLT ISZERO PUSH2 0x33EB JUMPI PUSH2 0x33EA PUSH2 0x31AA JUMP JUMPDEST JUMPDEST PUSH0 PUSH2 0x33F8 DUP6 DUP3 DUP7 ADD PUSH2 0x33C1 JUMP JUMPDEST SWAP3 POP POP PUSH1 0x20 PUSH2 0x3409 DUP6 DUP3 DUP7 ADD PUSH2 0x3314 JUMP JUMPDEST SWAP2 POP POP SWAP3 POP SWAP3 SWAP1 POP JUMP JUMPDEST PUSH2 0x341C DUP2 PUSH2 0x32F5 JUMP JUMPDEST DUP3 MSTORE POP POP JUMP JUMPDEST PUSH32 0x4E487B7100000000000000000000000000000000000000000000000000000000 PUSH0 MSTORE PUSH1 0x21 PUSH1 0x4 MSTORE PUSH1 0x24 PUSH0 REVERT JUMPDEST PUSH1 0x4 DUP2 LT PUSH2 0x3460 JUMPI PUSH2 0x345F PUSH2 0x3422 JUMP JUMPDEST JUMPDEST POP JUMP JUMPDEST PUSH0 DUP2 SWAP1 POP PUSH2 0x3470 DUP3 PUSH2 0x344F JUMP JUMPDEST SWAP2 SWAP1 POP JUMP JUMPDEST PUSH0 PUSH2 0x347F DUP3 PUSH2 0x3463 JUMP JUMPDEST SWAP1 POP SWAP2 SWAP1 POP JUMP JUMPDEST PUSH2 0x348F DUP2 PUSH2 0x3475 JUMP JUMPDEST DUP3 MSTORE POP POP JUMP JUMPDEST PUSH0 PUSH1 0xE0 DUP3 ADD SWAP1 POP PUSH2 0x34A8 PUSH0 DUP4 ADD DUP11 PUSH2 0x3413 JUMP JUMPDEST PUSH2 0x34B5 PUSH1 0x20 DUP4 ADD DUP10 PUSH2 0x3413 JUMP JUMPDEST DUP2 DUP2 SUB PUSH1 0x40 DUP4 ADD MSTORE PUSH2 0x34C7 DUP2 DUP9 PUSH2 0x329D JUMP JUMPDEST SWAP1 POP PUSH2 0x34D6 PUSH1 0x60 DUP4 ADD DUP8 PUSH2 0x3413 JUMP JUMPDEST PUSH2 0x34E3 PUSH1 0x80 DUP4 ADD DUP7 PUSH2 0x3413 JUMP JUMPDEST PUSH2 0x34F0 PUSH1 0xA0 DUP4 ADD DUP6 PUSH2 0x3413 JUMP JUMPDEST PUSH2 0x34FD PUSH1 0xC0 DUP4 ADD DUP5 PUSH2 0x3486 JUMP JUMPDEST SWAP9 SWAP8 POP POP POP POP POP POP POP POP JUMP JUMPDEST PUSH0 DUP1 PUSH0 PUSH1 0x60 DUP5 DUP7 SUB SLT ISZERO PUSH2 0x3520 JUMPI PUSH2 0x351F PUSH2 0x31AA JUMP JUMPDEST JUMPDEST PUSH0 PUSH2 0x352D DUP7 DUP3 DUP8 ADD PUSH2 0x33C1 JUMP JUMPDEST SWAP4 POP POP PUSH1 0x20 PUSH2 0x353E DUP7 DUP3 DUP8 ADD PUSH2 0x33C1 JUMP JUMPDEST SWAP3 POP POP PUSH1 0x40 PUSH2 0x354F DUP7 DUP3 DUP8 ADD PUSH2 0x3314 JUMP JUMPDEST SWAP2 POP POP SWAP3 POP SWAP3 POP SWAP3 JUMP JUMPDEST PUSH0 DUP1 REVERT JUMPDEST PUSH0 DUP1 REVERT JUMPDEST PUSH32 0x4E487B7100000000000000000000000000000000000000000000000000000000 PUSH0 MSTORE PUSH1 0x41 PUSH1 0x4 MSTORE PUSH1 0x24 PUSH0 REVERT JUMPDEST PUSH2 0x3597 DUP3 PUSH2 0x328D JUMP JUMPDEST DUP2 ADD DUP2 DUP2 LT PUSH8 0xFFFFFFFFFFFFFFFF DUP3 GT OR ISZERO PUSH2 0x35B6 JUMPI PUSH2 0x35B5 PUSH2 0x3561 JUMP JUMPDEST JUMPDEST DUP1 PUSH1 0x40 MSTORE POP POP POP JUMP JUMPDEST PUSH0 PUSH2 0x35C8 PUSH2 0x31A1 JUMP JUMPDEST SWAP1 POP PUSH2 0x35D4 DUP3 DUP3 PUSH2 0x358E JUMP JUMPDEST SWAP2 SWAP1 POP JUMP JUMPDEST PUSH0 PUSH8 0xFFFFFFFFFFFFFFFF DUP3 GT ISZERO PUSH2 0x35F3 JUMPI PUSH2 0x35F2 PUSH2 0x3561 JUMP JUMPDEST JUMPDEST PUSH2 0x35FC DUP3 PUSH2 0x328D JUMP JUMPDEST SWAP1 POP PUSH1 0x20 DUP2 ADD SWAP1 POP SWAP2 SWAP1 POP JUMP JUMPDEST DUP3 DUP2 DUP4 CALLDATACOPY PUSH0 DUP4 DUP4 ADD MSTORE POP POP POP JUMP JUMPDEST PUSH0 PUSH2 0x3629 PUSH2 0x3624 DUP5 PUSH2 0x35D9 JUMP JUMPDEST PUSH2 0x35BF JUMP JUMPDEST SWAP1 POP DUP3 DUP2 MSTORE PUSH1 0x20 DUP2 ADD DUP5 DUP5 DUP5 ADD GT ISZERO PUSH2 0x3645 JUMPI PUSH2 0x3644 PUSH2 0x355D JUMP JUMPDEST JUMPDEST PUSH2 0x3650 DUP5 DUP3 DUP6 PUSH2 0x3609 JUMP JUMPDEST POP SWAP4 SWAP3 POP POP POP JUMP JUMPDEST PUSH0 DUP3 PUSH1 0x1F DUP4 ADD SLT PUSH2 0x366C JUMPI PUSH2 0x366B PUSH2 0x3559 JUMP JUMPDEST JUMPDEST DUP2 CALLDATALOAD PUSH2 0x367C DUP5 DUP3 PUSH1 0x20 DUP7 ADD PUSH2 0x3617 JUMP JUMPDEST SWAP2 POP POP SWAP3 SWAP2 POP POP JUMP JUMPDEST PUSH0 DUP1 PUSH0 PUSH1 0x60 DUP5 DUP7 SUB SLT ISZERO PUSH2 0x369C JUMPI PUSH2 0x369B PUSH2 0x31AA JUMP JUMPDEST JUMPDEST PUSH0 DUP5 ADD CALLDATALOAD PUSH8 0xFFFFFFFFFFFFFFFF DUP2 GT ISZERO PUSH2 0x36B9 JUMPI PUSH2 0x36B8 PUSH2 0x31AE JUMP JUMPDEST JUMPDEST PUSH2 0x36C5 DUP7 DUP3 DUP8 ADD PUSH2 0x3658 JUMP JUMPDEST SWAP4 POP POP PUSH1 0x20 PUSH2 0x36D6 DUP7 DUP3 DUP8 ADD PUSH2 0x3314 JUMP JUMPDEST SWAP3 POP POP PUSH1 0x40 PUSH2 0x36E7 DUP7 DUP3 DUP8 ADD PUSH2 0x3314 JUMP JUMPDEST SWAP2 POP POP SWAP3 POP SWAP3 POP SWAP3 JUMP JUMPDEST PUSH0 PUSH1 0x20 DUP3 ADD SWAP1 POP PUSH2 0x3704 PUSH0 DUP4 ADD DUP5 PUSH2 0x3413 JUMP JUMPDEST SWAP3 SWAP2 POP POP JUMP JUMPDEST PUSH2 0x3713 DUP2 PUSH2 0x32F5 JUMP JUMPDEST DUP3 MSTORE POP POP JUMP JUMPDEST PUSH0 DUP3 DUP3 MSTORE PUSH1 0x20 DUP3 ADD SWAP1 POP SWAP3 SWAP2 POP POP JUMP JUMPDEST PUSH0 PUSH2 0x3733 DUP3 PUSH2 0x3265 JUMP JUMPDEST PUSH2 0x373D DUP2 DUP6 PUSH2 0x3719 JUMP JUMPDEST SWAP4 POP PUSH2 0x374D DUP2 DUP6 PUSH1 0x20 DUP7 ADD PUSH2 0x327F JUMP JUMPDEST PUSH2 0x3756 DUP2 PUSH2 0x328D JUMP JUMPDEST DUP5 ADD SWAP2 POP POP SWAP3 SWAP2 POP POP JUMP JUMPDEST PUSH2 0x376A DUP2 PUSH2 0x3475 JUMP JUMPDEST DUP3 MSTORE POP POP JUMP JUMPDEST PUSH0 PUSH1 0xE0 DUP4 ADD PUSH0 DUP4 ADD MLOAD PUSH2 0x3785 PUSH0 DUP7 ADD DUP3 PUSH2 0x370A JUMP JUMPDEST POP PUSH1 0x20 DUP4 ADD MLOAD PUSH2 0x3798 PUSH1 0x20 DUP7 ADD DUP3 PUSH2 0x370A JUMP JUMPDEST POP PUSH1 0x40 DUP4 ADD MLOAD DUP5 DUP3 SUB PUSH1 0x40 DUP7 ADD MSTORE PUSH2 0x37B0 DUP3 DUP3 PUSH2 0x3729 JUMP JUMPDEST SWAP2 POP POP PUSH1 0x60 DUP4 ADD MLOAD PUSH2 0x37C5 PUSH1 0x60 DUP7 ADD DUP3 PUSH2 0x370A JUMP JUMPDEST POP PUSH1 0x80 DUP4 ADD MLOAD PUSH2 0x37D8 PUSH1 0x80 DUP7 ADD DUP3 PUSH2 0x370A JUMP JUMPDEST POP PUSH1 0xA0 DUP4 ADD MLOAD PUSH2 0x37EB PUSH1 0xA0 DUP7 ADD DUP3 PUSH2 0x370A JUMP JUMPDEST POP PUSH1 0xC0 DUP4 ADD MLOAD PUSH2 0x37FE PUSH1 0xC0 DUP7 ADD DUP3 PUSH2 0x3761 JUMP JUMPDEST POP DUP1 SWAP2 POP POP SWAP3 SWAP2 POP POP JUMP JUMPDEST PUSH0 PUSH1 0x20 DUP3 ADD SWAP1 POP DUP2 DUP2 SUB PUSH0 DUP4 ADD MSTORE PUSH2 0x3821 DUP2 DUP5 PUSH2 0x3770 JUMP JUMPDEST SWAP1 POP SWAP3 SWAP2 POP POP JUMP JUMPDEST PUSH0 PUSH1 0x20 DUP3 DUP5 SUB SLT ISZERO PUSH2 0x383E JUMPI PUSH2 0x383D PUSH2 0x31AA JUMP JUMPDEST JUMPDEST PUSH0 PUSH2 0x384B DUP5 DUP3 DUP6 ADD PUSH2 0x33C1 JUMP JUMPDEST SWAP2 POP POP SWAP3 SWAP2 POP POP JUMP JUMPDEST PUSH0 DUP2 SWAP1 POP SWAP2 SWAP1 POP JUMP JUMPDEST PUSH0 PUSH2 0x3877 PUSH2 0x3872 PUSH2 0x386D DUP5 PUSH2 0x3353 JUMP JUMPDEST PUSH2 0x3854 JUMP JUMPDEST PUSH2 0x3353 JUMP JUMPDEST SWAP1 POP SWAP2 SWAP1 POP JUMP JUMPDEST PUSH0 PUSH2 0x3888 DUP3 PUSH2 0x385D JUMP JUMPDEST SWAP1 POP SWAP2 SWAP1 POP JUMP JUMPDEST PUSH0 PUSH2 0x3899 DUP3 PUSH2 0x387E JUMP JUMPDEST SWAP1 POP SWAP2 SWAP1 POP JUMP JUMPDEST PUSH2 0x38A9 DUP2 PUSH2 0x388F JUMP JUMPDEST DUP3 MSTORE POP POP JUMP JUMPDEST PUSH0 PUSH1 0x20 DUP3 ADD SWAP1 POP PUSH2 0x38C2 PUSH0 DUP4 ADD DUP5 PUSH2 0x38A0 JUMP JUMPDEST SWAP3 SWAP2 POP POP JUMP JUMPDEST PUSH0 DUP1 PUSH1 0x40 DUP4 DUP6 SUB SLT ISZERO PUSH2 0x38DE JUMPI PUSH2 0x38DD PUSH2 0x31AA JUMP JUMPDEST JUMPDEST PUSH0 PUSH2 0x38EB DUP6 DUP3 DUP7 ADD PUSH2 0x3314 JUMP JUMPDEST SWAP3 POP POP PUSH1 0x20 PUSH2 0x38FC DUP6 DUP3 DUP7 ADD PUSH2 0x3314 JUMP JUMPDEST SWAP2 POP POP SWAP3 POP SWAP3 SWAP1 POP JUMP JUMPDEST PUSH0 PUSH1 0x40 DUP3 ADD SWAP1 POP PUSH2 0x3919 PUSH0 DUP4 ADD DUP6 PUSH2 0x3413 JUMP JUMPDEST PUSH2 0x3926 PUSH1 0x20 DUP4 ADD DUP5 PUSH2 0x3413 JUMP JUMPDEST SWAP4 SWAP3 POP POP POP JUMP JUMPDEST PUSH2 0x3936 DUP2 PUSH2 0x3232 JUMP JUMPDEST DUP2 EQ PUSH2 0x3940 JUMPI PUSH0 DUP1 REVERT JUMPDEST POP JUMP JUMPDEST PUSH0 DUP2 CALLDATALOAD SWAP1 POP PUSH2 0x3951 DUP2 PUSH2 0x392D JUMP JUMPDEST SWAP3 SWAP2 POP POP JUMP JUMPDEST PUSH0 DUP1 PUSH1 0x40 DUP4 DUP6 SUB SLT ISZERO PUSH2 0x396D JUMPI PUSH2 0x396C PUSH2 0x31AA JUMP JUMPDEST JUMPDEST PUSH0 PUSH2 0x397A DUP6 DUP3 DUP7 ADD PUSH2 0x33C1 JUMP JUMPDEST SWAP3 POP POP PUSH1 0x20 PUSH2 0x398B DUP6 DUP3 DUP7 ADD PUSH2 0x3943 JUMP JUMPDEST SWAP2 POP POP SWAP3 POP SWAP3 SWAP1 POP JUMP JUMPDEST PUSH0 PUSH8 0xFFFFFFFFFFFFFFFF DUP3 GT ISZERO PUSH2 0x39AF JUMPI PUSH2 0x39AE PUSH2 0x3561 JUMP JUMPDEST JUMPDEST PUSH2 0x39B8 DUP3 PUSH2 0x328D JUMP JUMPDEST SWAP1 POP PUSH1 0x20 DUP2 ADD SWAP1 POP SWAP2 SWAP1 POP JUMP JUMPDEST PUSH0 PUSH2 0x39D7 PUSH2 0x39D2 DUP5 PUSH2 0x3995 JUMP JUMPDEST PUSH2 0x35BF JUMP JUMPDEST SWAP1 POP DUP3 DUP2 MSTORE PUSH1 0x20 DUP2 ADD DUP5 DUP5 DUP5 ADD GT ISZERO PUSH2 0x39F3 JUMPI PUSH2 0x39F2 PUSH2 0x355D JUMP JUMPDEST JUMPDEST PUSH2 0x39FE DUP5 DUP3 DUP6 PUSH2 0x3609 JUMP JUMPDEST POP SWAP4 SWAP3 POP POP POP JUMP JUMPDEST PUSH0 DUP3 PUSH1 0x1F DUP4 ADD SLT PUSH2 0x3A1A JUMPI PUSH2 0x3A19 PUSH2 0x3559 JUMP JUMPDEST JUMPDEST DUP2 CALLDATALOAD PUSH2 0x3A2A DUP5 DUP3 PUSH1 0x20 DUP7 ADD PUSH2 0x39C5 JUMP JUMPDEST SWAP2 POP POP SWAP3 SWAP2 POP POP JUMP JUMPDEST PUSH0 DUP1 PUSH0 DUP1 PUSH1 0x80 DUP6 DUP8 SUB SLT ISZERO PUSH2 0x3A4B JUMPI PUSH2 0x3A4A PUSH2 0x31AA JUMP JUMPDEST JUMPDEST PUSH0 PUSH2 0x3A58 DUP8 DUP3 DUP9 ADD PUSH2 0x33C1 JUMP JUMPDEST SWAP5 POP POP PUSH1 0x20 PUSH2 0x3A69 DUP8 DUP3 DUP9 ADD PUSH2 0x33C1 JUMP JUMPDEST SWAP4 POP POP PUSH1 0x40 PUSH2 0x3A7A DUP8 DUP3 DUP9 ADD PUSH2 0x3314 JUMP JUMPDEST SWAP3 POP POP PUSH1 0x60 DUP6 ADD CALLDATALOAD PUSH8 0xFFFFFFFFFFFFFFFF DUP2 GT ISZERO PUSH2 0x3A9B JUMPI PUSH2 0x3A9A PUSH2 0x31AE JUMP JUMPDEST JUMPDEST PUSH2 0x3AA7 DUP8 DUP3 DUP9 ADD PUSH2 0x3A06 JUMP JUMPDEST SWAP2 POP POP SWAP3 SWAP6 SWAP2 SWAP5 POP SWAP3 POP JUMP JUMPDEST PUSH0 DUP1 PUSH1 0x40 DUP4 DUP6 SUB SLT ISZERO PUSH2 0x3AC9 JUMPI PUSH2 0x3AC8 PUSH2 0x31AA JUMP JUMPDEST JUMPDEST PUSH0 PUSH2 0x3AD6 DUP6 DUP3 DUP7 ADD PUSH2 0x3314 JUMP JUMPDEST SWAP3 POP POP PUSH1 0x20 PUSH2 0x3AE7 DUP6 DUP3 DUP7 ADD PUSH2 0x3943 JUMP JUMPDEST SWAP2 POP POP SWAP3 POP SWAP3 SWAP1 POP JUMP JUMPDEST PUSH0 DUP1 PUSH1 0x40 DUP4 DUP6 SUB SLT ISZERO PUSH2 0x3B07 JUMPI PUSH2 0x3B06 PUSH2 0x31AA JUMP JUMPDEST JUMPDEST PUSH0 PUSH2 0x3B14 DUP6 DUP3 DUP7 ADD PUSH2 0x33C1 JUMP JUMPDEST SWAP3 POP POP PUSH1 0x20 PUSH2 0x3B25 DUP6 DUP3 DUP7 ADD PUSH2 0x33C1 JUMP JUMPDEST SWAP2 POP POP SWAP3 POP SWAP3 SWAP1 POP JUMP JUMPDEST PUSH0 DUP2 MLOAD SWAP1 POP SWAP2 SWAP1 POP JUMP JUMPDEST PUSH0 DUP3 DUP3 MSTORE PUSH1 0x20 DUP3 ADD SWAP1 POP SWAP3 SWAP2 POP POP JUMP JUMPDEST PUSH0 DUP2 SWAP1 POP PUSH1 0x20 DUP3 ADD SWAP1 POP SWAP2 SWAP1 POP JUMP JUMPDEST PUSH1 0x40 DUP3 ADD PUSH0 DUP3 ADD MLOAD PUSH2 0x3B6C PUSH0 DUP6 ADD DUP3 PUSH2 0x370A JUMP JUMPDEST POP PUSH1 0x20 DUP3 ADD MLOAD PUSH2 0x3B7F PUSH1 0x20 DUP6 ADD DUP3 PUSH2 0x370A JUMP JUMPDEST POP POP POP POP JUMP JUMPDEST PUSH0 PUSH2 0x3B90 DUP4 DUP4 PUSH2 0x3B58 JUMP JUMPDEST PUSH1 0x40 DUP4 ADD SWAP1 POP SWAP3 SWAP2 POP POP JUMP JUMPDEST PUSH0 PUSH1 0x20 DUP3 ADD SWAP1 POP SWAP2 SWAP1 POP JUMP JUMPDEST PUSH0 PUSH2 0x3BB2 DUP3 PUSH2 0x3B2F JUMP JUMPDEST PUSH2 0x3BBC DUP2 DUP6 PUSH2 0x3B39 JUMP JUMPDEST SWAP4 POP PUSH2 0x3BC7 DUP4 PUSH2 0x3B49 JUMP JUMPDEST DUP1 PUSH0 JUMPDEST DUP4 DUP2 LT ISZERO PUSH2 0x3BF7 JUMPI DUP2 MLOAD PUSH2 0x3BDE DUP9 DUP3 PUSH2 0x3B85 JUMP JUMPDEST SWAP8 POP PUSH2 0x3BE9 DUP4 PUSH2 0x3B9C JUMP JUMPDEST SWAP3 POP POP PUSH1 0x1 DUP2 ADD SWAP1 POP PUSH2 0x3BCA JUMP JUMPDEST POP DUP6 SWAP4 POP POP POP POP SWAP3 SWAP2 POP POP JUMP JUMPDEST PUSH0 PUSH1 0x20 DUP3 ADD SWAP1 POP DUP2 DUP2 SUB PUSH0 DUP4 ADD MSTORE PUSH2 0x3C1C DUP2 DUP5 PUSH2 0x3BA8 JUMP JUMPDEST SWAP1 POP SWAP3 SWAP2 POP POP JUMP JUMPDEST PUSH32 0x4E487B7100000000000000000000000000000000000000000000000000000000 PUSH0 MSTORE PUSH1 0x22 PUSH1 0x4 MSTORE PUSH1 0x24 PUSH0 REVERT JUMPDEST PUSH0 PUSH1 0x2 DUP3 DIV SWAP1 POP PUSH1 0x1 DUP3 AND DUP1 PUSH2 0x3C68 JUMPI PUSH1 0x7F DUP3 AND SWAP2 POP JUMPDEST PUSH1 0x20 DUP3 LT DUP2 SUB PUSH2 0x3C7B JUMPI PUSH2 0x3C7A PUSH2 0x3C24 JUMP JUMPDEST JUMPDEST POP SWAP2 SWAP1 POP JUMP JUMPDEST PUSH0 PUSH1 0x60 DUP3 ADD SWAP1 POP PUSH2 0x3C94 PUSH0 DUP4 ADD DUP7 PUSH2 0x3383 JUMP JUMPDEST PUSH2 0x3CA1 PUSH1 0x20 DUP4 ADD DUP6 PUSH2 0x3413 JUMP JUMPDEST PUSH2 0x3CAE PUSH1 0x40 DUP4 ADD DUP5 PUSH2 0x3383 JUMP JUMPDEST SWAP5 SWAP4 POP POP POP POP JUMP JUMPDEST PUSH32 0x4E487B7100000000000000000000000000000000000000000000000000000000 PUSH0 MSTORE PUSH1 0x32 PUSH1 0x4 MSTORE PUSH1 0x24 PUSH0 REVERT JUMPDEST PUSH32 0x4E487B7100000000000000000000000000000000000000000000000000000000 PUSH0 MSTORE PUSH1 0x11 PUSH1 0x4 MSTORE PUSH1 0x24 PUSH0 REVERT JUMPDEST PUSH0 PUSH2 0x3D1A DUP3 PUSH2 0x32F5 JUMP JUMPDEST SWAP2 POP PUSH2 0x3D25 DUP4 PUSH2 0x32F5 JUMP JUMPDEST SWAP3 POP DUP3 DUP3 ADD SWAP1 POP DUP1 DUP3 GT ISZERO PUSH2 0x3D3D JUMPI PUSH2 0x3D3C PUSH2 0x3CE3 JUMP JUMPDEST JUMPDEST SWAP3 SWAP2 POP POP JUMP JUMPDEST PUSH0 PUSH1 0x40 DUP3 ADD SWAP1 POP PUSH2 0x3D56 PUSH0 DUP4 ADD DUP6 PUSH2 0x3383 JUMP JUMPDEST PUSH2 0x3D63 PUSH1 0x20 DUP4 ADD DUP5 PUSH2 0x3413 JUMP JUMPDEST SWAP4 SWAP3 POP POP POP JUMP JUMPDEST PUSH0 DUP2 MLOAD SWAP1 POP PUSH2 0x3D78 DUP2 PUSH2 0x392D JUMP JUMPDEST SWAP3 SWAP2 POP POP JUMP JUMPDEST PUSH0 PUSH1 0x20 DUP3 DUP5 SUB SLT ISZERO PUSH2 0x3D93 JUMPI PUSH2 0x3D92 PUSH2 0x31AA JUMP JUMPDEST JUMPDEST PUSH0 PUSH2 0x3DA0 DUP5 DUP3 DUP6 ADD PUSH2 0x3D6A JUMP JUMPDEST SWAP2 POP POP SWAP3 SWAP2 POP POP JUMP JUMPDEST PUSH32 0x5472616E73666572206661696C65640000000000000000000000000000000000 PUSH0 DUP3 ADD MSTORE POP JUMP JUMPDEST PUSH0 PUSH2 0x3DDD PUSH1 0xF DUP4 PUSH2 0x326F JUMP JUMPDEST SWAP2 POP PUSH2 0x3DE8 DUP3 PUSH2 0x3DA9 JUMP JUMPDEST PUSH1 0x20 DUP3 ADD SWAP1 POP SWAP2 SWAP1 POP JUMP JUMPDEST PUSH0 PUSH1 0x20 DUP3 ADD SWAP1 POP DUP2 DUP2 SUB PUSH0 DUP4 ADD MSTORE PUSH2 0x3E0A DUP2 PUSH2 0x3DD1 JUMP JUMPDEST SWAP1 POP SWAP2 SWAP1 POP JUMP JUMPDEST PUSH0 PUSH2 0x3E1B DUP3 PUSH2 0x32F5 JUMP JUMPDEST SWAP2 POP PUSH2 0x3E26 DUP4 PUSH2 0x32F5 JUMP JUMPDEST SWAP3 POP DUP3 DUP3 SUB SWAP1 POP DUP2 DUP2 GT ISZERO PUSH2 0x3E3E JUMPI PUSH2 0x3E3D PUSH2 0x3CE3 JUMP JUMPDEST JUMPDEST SWAP3 SWAP2 POP POP JUMP JUMPDEST PUSH32 0x7468726573686F6C64206D75737420626520696E2030202D203130302072616E PUSH0 DUP3 ADD MSTORE PUSH32 0x6765000000000000000000000000000000000000000000000000000000000000 PUSH1 0x20 DUP3 ADD MSTORE POP JUMP JUMPDEST PUSH0 PUSH2 0x3E9E PUSH1 0x22 DUP4 PUSH2 0x326F JUMP JUMPDEST SWAP2 POP PUSH2 0x3EA9 DUP3 PUSH2 0x3E44 JUMP JUMPDEST PUSH1 0x40 DUP3 ADD SWAP1 POP SWAP2 SWAP1 POP JUMP JUMPDEST PUSH0 PUSH1 0x20 DUP3 ADD SWAP1 POP DUP2 DUP2 SUB PUSH0 DUP4 ADD MSTORE PUSH2 0x3ECB DUP2 PUSH2 0x3E92 JUMP JUMPDEST SWAP1 POP SWAP2 SWAP1 POP JUMP JUMPDEST PUSH0 DUP2 SWAP1 POP DUP2 PUSH0 MSTORE PUSH1 0x20 PUSH0 KECCAK256 SWAP1 POP SWAP2 SWAP1 POP JUMP JUMPDEST PUSH0 PUSH1 0x20 PUSH1 0x1F DUP4 ADD DIV SWAP1 POP SWAP2 SWAP1 POP JUMP JUMPDEST PUSH0 DUP3 DUP3 SHL SWAP1 POP SWAP3 SWAP2 POP POP JUMP JUMPDEST PUSH0 PUSH1 0x8 DUP4 MUL PUSH2 0x3F2E PUSH32 0xFFFFFFFFFFFFFFFFFFFFFFFFFFFFFFFFFFFFFFFFFFFFFFFFFFFFFFFFFFFFFFFF DUP3 PUSH2 0x3EF3 JUMP JUMPDEST PUSH2 0x3F38 DUP7 DUP4 PUSH2 0x3EF3 JUMP JUMPDEST SWAP6 POP DUP1 NOT DUP5 AND SWAP4 POP DUP1 DUP7 AND DUP5 OR SWAP3 POP POP POP SWAP4 SWAP3 POP POP POP JUMP JUMPDEST PUSH0 PUSH2 0x3F6A PUSH2 0x3F65 PUSH2 0x3F60 DUP5 PUSH2 0x32F5 JUMP JUMPDEST PUSH2 0x3854 JUMP JUMPDEST PUSH2 0x32F5 JUMP JUMPDEST SWAP1 POP SWAP2 SWAP1 POP JUMP JUMPDEST PUSH0 DUP2 SWAP1 POP SWAP2 SWAP1 POP JUMP JUMPDEST PUSH2 0x3F83 DUP4 PUSH2 0x3F50 JUMP JUMPDEST PUSH2 0x3F97 PUSH2 0x3F8F DUP3 PUSH2 0x3F71 JUMP JUMPDEST DUP5 DUP5 SLOAD PUSH2 0x3EFF JUMP JUMPDEST DUP3 SSTORE POP POP POP POP JUMP JUMPDEST PUSH0 SWAP1 JUMP JUMPDEST PUSH2 0x3FAB PUSH2 0x3F9F JUMP JUMPDEST PUSH2 0x3FB6 DUP2 DUP5 DUP5 PUSH2 0x3F7A JUMP JUMPDEST POP POP POP JUMP JUMPDEST JUMPDEST DUP2 DUP2 LT ISZERO PUSH2 0x3FD9 JUMPI PUSH2 0x3FCE PUSH0 DUP3 PUSH2 0x3FA3 JUMP JUMPDEST PUSH1 0x1 DUP2 ADD SWAP1 POP PUSH2 0x3FBC JUMP JUMPDEST POP POP JUMP JUMPDEST PUSH1 0x1F DUP3 GT ISZERO PUSH2 0x401E JUMPI PUSH2 0x3FEF DUP2 PUSH2 0x3ED2 JUMP JUMPDEST PUSH2 0x3FF8 DUP5 PUSH2 0x3EE4 JUMP JUMPDEST DUP2 ADD PUSH1 0x20 DUP6 LT ISZERO PUSH2 0x4007 JUMPI DUP2 SWAP1 POP JUMPDEST PUSH2 0x401B PUSH2 0x4013 DUP6 PUSH2 0x3EE4 JUMP JUMPDEST DUP4 ADD DUP3 PUSH2 0x3FBB JUMP JUMPDEST POP POP JUMPDEST POP POP POP JUMP JUMPDEST PUSH0 DUP3 DUP3 SHR SWAP1 POP SWAP3 SWAP2 POP POP JUMP JUMPDEST PUSH0 PUSH2 0x403E PUSH0 NOT DUP5 PUSH1 0x8 MUL PUSH2 0x4023 JUMP JUMPDEST NOT DUP1 DUP4 AND SWAP2 POP POP SWAP3 SWAP2 POP POP JUMP JUMPDEST PUSH0 PUSH2 0x4056 DUP4 DUP4 PUSH2 0x402F JUMP JUMPDEST SWAP2 POP DUP3 PUSH1 0x2 MUL DUP3 OR SWAP1 POP SWAP3 SWAP2 POP POP JUMP JUMPDEST PUSH2 0x406F DUP3 PUSH2 0x3265 JUMP JUMPDEST PUSH8 0xFFFFFFFFFFFFFFFF DUP2 GT ISZERO PUSH2 0x4088 JUMPI PUSH2 0x4087 PUSH2 0x3561 JUMP JUMPDEST JUMPDEST PUSH2 0x4092 DUP3 SLOAD PUSH2 0x3C51 JUMP JUMPDEST PUSH2 0x409D DUP3 DUP3 DUP6 PUSH2 0x3FDD JUMP JUMPDEST PUSH0 PUSH1 0x20 SWAP1 POP PUSH1 0x1F DUP4 GT PUSH1 0x1 DUP2 EQ PUSH2 0x40CE JUMPI PUSH0 DUP5 ISZERO PUSH2 0x40BC JUMPI DUP3 DUP8 ADD MLOAD SWAP1 POP JUMPDEST PUSH2 0x40C6 DUP6 DUP3 PUSH2 0x404B JUMP JUMPDEST DUP7 SSTORE POP PUSH2 0x412D JUMP JUMPDEST PUSH1 0x1F NOT DUP5 AND PUSH2 0x40DC DUP7 PUSH2 0x3ED2 JUMP JUMPDEST PUSH0 JUMPDEST DUP3 DUP2 LT ISZERO PUSH2 0x4103 JUMPI DUP5 DUP10 ADD MLOAD DUP3 SSTORE PUSH1 0x1 DUP3 ADD SWAP2 POP PUSH1 0x20 DUP6 ADD SWAP5 POP PUSH1 0x20 DUP2 ADD SWAP1 POP PUSH2 0x40DE JUMP JUMPDEST DUP7 DUP4 LT ISZERO PUSH2 0x4120 JUMPI DUP5 DUP10 ADD MLOAD PUSH2 0x411C PUSH1 0x1F DUP10 AND DUP3 PUSH2 0x402F JUMP JUMPDEST DUP4 SSTORE POP JUMPDEST PUSH1 0x1 PUSH1 0x2 DUP9 MUL ADD DUP9 SSTORE POP POP POP JUMPDEST POP POP POP POP POP POP JUMP JUMPDEST PUSH0 PUSH1 0x40 DUP3 ADD SWAP1 POP DUP2 DUP2 SUB PUSH0 DUP4 ADD MSTORE PUSH2 0x414D DUP2 DUP6 PUSH2 0x329D JUMP JUMPDEST SWAP1 POP PUSH2 0x415C PUSH1 0x20 DUP4 ADD DUP5 PUSH2 0x3413 JUMP JUMPDEST SWAP4 SWAP3 POP POP POP JUMP JUMPDEST PUSH32 0x496E646578206F7574206F6620626F756E647300000000000000000000000000 PUSH0 DUP3 ADD MSTORE POP JUMP JUMPDEST PUSH0 PUSH2 0x4197 PUSH1 0x13 DUP4 PUSH2 0x326F JUMP JUMPDEST SWAP2 POP PUSH2 0x41A2 DUP3 PUSH2 0x4163 JUMP JUMPDEST PUSH1 0x20 DUP3 ADD SWAP1 POP SWAP2 SWAP1 POP JUMP JUMPDEST PUSH0 PUSH1 0x20 DUP3 ADD SWAP1 POP DUP2 DUP2 SUB PUSH0 DUP4 ADD MSTORE PUSH2 0x41C4 DUP2 PUSH2 0x418B JUMP JUMPDEST SWAP1 POP SWAP2 SWAP1 POP JUMP JUMPDEST PUSH0 PUSH1 0x60 DUP3 ADD SWAP1 POP PUSH2 0x41DE PUSH0 DUP4 ADD DUP7 PUSH2 0x3383 JUMP JUMPDEST PUSH2 0x41EB PUSH1 0x20 DUP4 ADD DUP6 PUSH2 0x3383 JUMP JUMPDEST PUSH2 0x41F8 PUSH1 0x40 DUP4 ADD DUP5 PUSH2 0x3413 JUMP JUMPDEST SWAP5 SWAP4 POP POP POP POP JUMP JUMPDEST PUSH0 DUP2 SWAP1 POP SWAP3 SWAP2 POP POP JUMP JUMPDEST PUSH32 0x7B226E616D65223A2022566F7465202300000000000000000000000000000000 PUSH0 DUP3 ADD MSTORE POP JUMP JUMPDEST PUSH0 PUSH2 0x423E PUSH1 0x10 DUP4 PUSH2 0x4200 JUMP JUMPDEST SWAP2 POP PUSH2 0x4249 DUP3 PUSH2 0x420A JUMP JUMPDEST PUSH1 0x10 DUP3 ADD SWAP1 POP SWAP2 SWAP1 POP JUMP JUMPDEST PUSH0 PUSH2 0x425E DUP3 PUSH2 0x3265 JUMP JUMPDEST PUSH2 0x4268 DUP2 DUP6 PUSH2 0x4200 JUMP JUMPDEST SWAP4 POP PUSH2 0x4278 DUP2 DUP6 PUSH1 0x20 DUP7 ADD PUSH2 0x327F JUMP JUMPDEST DUP1 DUP5 ADD SWAP2 POP POP SWAP3 SWAP2 POP POP JUMP JUMPDEST PUSH32 0x222C20226465736372697074696F6E223A202200000000000000000000000000 PUSH0 DUP3 ADD MSTORE POP JUMP JUMPDEST PUSH0 PUSH2 0x42B8 PUSH1 0x13 DUP4 PUSH2 0x4200 JUMP JUMPDEST SWAP2 POP PUSH2 0x42C3 DUP3 PUSH2 0x4284 JUMP JUMPDEST PUSH1 0x13 DUP3 ADD SWAP1 POP SWAP2 SWAP1 POP JUMP JUMPDEST PUSH0 DUP2 SLOAD PUSH2 0x42DA DUP2 PUSH2 0x3C51 JUMP JUMPDEST PUSH2 0x42E4 DUP2 DUP7 PUSH2 0x4200 JUMP JUMPDEST SWAP5 POP PUSH1 0x1 DUP3 AND PUSH0 DUP2 EQ PUSH2 0x42FE JUMPI PUSH1 0x1 DUP2 EQ PUSH2 0x4313 JUMPI PUSH2 0x4345 JUMP JUMPDEST PUSH1 0xFF NOT DUP4 AND DUP7 MSTORE DUP2 ISZERO ISZERO DUP3 MUL DUP7 ADD SWAP4 POP PUSH2 0x4345 JUMP JUMPDEST PUSH2 0x431C DUP6 PUSH2 0x3ED2 JUMP JUMPDEST PUSH0 JUMPDEST DUP4 DUP2 LT ISZERO PUSH2 0x433D JUMPI DUP2 SLOAD DUP2 DUP10 ADD MSTORE PUSH1 0x1 DUP3 ADD SWAP2 POP PUSH1 0x20 DUP2 ADD SWAP1 POP PUSH2 0x431E JUMP JUMPDEST DUP4 DUP9 ADD SWAP6 POP POP POP JUMPDEST POP POP POP SWAP3 SWAP2 POP POP JUMP JUMPDEST PUSH32 0x222C202261747472696275746573223A205B7B2274726169745F74797065223A PUSH0 DUP3 ADD MSTORE PUSH32 0x202259657320566F746573222C202276616C7565223A20220000000000000000 PUSH1 0x20 DUP3 ADD MSTORE POP JUMP JUMPDEST PUSH0 PUSH2 0x43A8 PUSH1 0x38 DUP4 PUSH2 0x4200 JUMP JUMPDEST SWAP2 POP PUSH2 0x43B3 DUP3 PUSH2 0x434E JUMP JUMPDEST PUSH1 0x38 DUP3 ADD SWAP1 POP SWAP2 SWAP1 POP JUMP JUMPDEST PUSH32 0x227D2C207B2274726169745F74797065223A20224E6F20566F746573222C2022 PUSH0 DUP3 ADD MSTORE PUSH32 0x76616C7565223A20220000000000000000000000000000000000000000000000 PUSH1 0x20 DUP3 ADD MSTORE POP JUMP JUMPDEST PUSH0 PUSH2 0x4418 PUSH1 0x29 DUP4 PUSH2 0x4200 JUMP JUMPDEST SWAP2 POP PUSH2 0x4423 DUP3 PUSH2 0x43BE JUMP JUMPDEST PUSH1 0x29 DUP3 ADD SWAP1 POP SWAP2 SWAP1 POP JUMP JUMPDEST PUSH32 0x227D2C207B2274726169745F74797065223A202250656F706C6520566F746564 PUSH0 DUP3 ADD MSTORE PUSH32 0x222C202276616C7565223A202200000000000000000000000000000000000000 PUSH1 0x20 DUP3 ADD MSTORE POP JUMP JUMPDEST PUSH0 PUSH2 0x4488 PUSH1 0x2D DUP4 PUSH2 0x4200 JUMP JUMPDEST SWAP2 POP PUSH2 0x4493 DUP3 PUSH2 0x442E JUMP JUMPDEST PUSH1 0x2D DUP3 ADD SWAP1 POP SWAP2 SWAP1 POP JUMP JUMPDEST PUSH32 0x227D2C207B2274726169745F74797065223A20224465636973696F6E222C2022 PUSH0 DUP3 ADD MSTORE PUSH32 0x76616C7565223A20220000000000000000000000000000000000000000000000 PUSH1 0x20 DUP3 ADD MSTORE POP JUMP JUMPDEST PUSH0 PUSH2 0x44F8 PUSH1 0x29 DUP4 PUSH2 0x4200 JUMP JUMPDEST SWAP2 POP PUSH2 0x4503 DUP3 PUSH2 0x449E JUMP JUMPDEST PUSH1 0x29 DUP3 ADD SWAP1 POP SWAP2 SWAP1 POP JUMP JUMPDEST PUSH32 0x227D000000000000000000000000000000000000000000000000000000000000 PUSH0 DUP3 ADD MSTORE POP JUMP JUMPDEST PUSH0 PUSH2 0x4542 PUSH1 0x2 DUP4 PUSH2 0x4200 JUMP JUMPDEST SWAP2 POP PUSH2 0x454D DUP3 PUSH2 0x450E JUMP JUMPDEST PUSH1 0x2 DUP3 ADD SWAP1 POP SWAP2 SWAP1 POP JUMP JUMPDEST PUSH0 PUSH2 0x4562 DUP3 PUSH2 0x4232 JUMP JUMPDEST SWAP2 POP PUSH2 0x456E DUP3 DUP10 PUSH2 0x4254 JUMP JUMPDEST SWAP2 POP PUSH2 0x4579 DUP3 PUSH2 0x42AC JUMP JUMPDEST SWAP2 POP PUSH2 0x4585 DUP3 DUP9 PUSH2 0x42CE JUMP JUMPDEST SWAP2 POP PUSH2 0x4590 DUP3 PUSH2 0x439C JUMP JUMPDEST SWAP2 POP PUSH2 0x459C DUP3 DUP8 PUSH2 0x4254 JUMP JUMPDEST SWAP2 POP PUSH2 0x45A7 DUP3 PUSH2 0x440C JUMP JUMPDEST SWAP2 POP PUSH2 0x45B3 DUP3 DUP7 PUSH2 0x4254 JUMP JUMPDEST SWAP2 POP PUSH2 0x45BE DUP3 PUSH2 0x447C JUMP JUMPDEST SWAP2 POP PUSH2 0x45CA DUP3 DUP6 PUSH2 0x4254 JUMP JUMPDEST SWAP2 POP PUSH2 0x45D5 DUP3 PUSH2 0x44EC JUMP JUMPDEST SWAP2 POP PUSH2 0x45E1 DUP3 DUP5 PUSH2 0x4254 JUMP JUMPDEST SWAP2 POP PUSH2 0x45EC DUP3 PUSH2 0x4536 JUMP JUMPDEST SWAP2 POP DUP2 SWAP1 POP SWAP8 SWAP7 POP POP POP POP POP POP POP JUMP JUMPDEST PUSH32 0x2C207B2274726169745F74797065223A2022566F746572732044657461696C22 PUSH0 DUP3 ADD MSTORE PUSH32 0x2C202276616C7565223A20220000000000000000000000000000000000000000 PUSH1 0x20 DUP3 ADD MSTORE POP JUMP JUMPDEST PUSH0 PUSH2 0x4656 PUSH1 0x2C DUP4 PUSH2 0x4200 JUMP JUMPDEST SWAP2 POP PUSH2 0x4661 DUP3 PUSH2 0x45FC JUMP JUMPDEST PUSH1 0x2C DUP3 ADD SWAP1 POP SWAP2 SWAP1 POP JUMP JUMPDEST PUSH0 PUSH2 0x4677 DUP3 DUP5 PUSH2 0x4254 JUMP JUMPDEST SWAP2 POP PUSH2 0x4682 DUP3 PUSH2 0x464A JUMP JUMPDEST SWAP2 POP DUP2 SWAP1 POP SWAP3 SWAP2 POP POP JUMP JUMPDEST PUSH32 0x2C20000000000000000000000000000000000000000000000000000000000000 PUSH0 DUP3 ADD MSTORE POP JUMP JUMPDEST PUSH0 PUSH2 0x46C1 PUSH1 0x2 DUP4 PUSH2 0x4200 JUMP JUMPDEST SWAP2 POP PUSH2 0x46CC DUP3 PUSH2 0x468D JUMP JUMPDEST PUSH1 0x2 DUP3 ADD SWAP1 POP SWAP2 SWAP1 POP JUMP JUMPDEST PUSH0 PUSH2 0x46E2 DUP3 DUP5 PUSH2 0x4254 JUMP JUMPDEST SWAP2 POP PUSH2 0x46ED DUP3 PUSH2 0x46B5 JUMP JUMPDEST SWAP2 POP DUP2 SWAP1 POP SWAP3 SWAP2 POP POP JUMP JUMPDEST PUSH32 0x3A20000000000000000000000000000000000000000000000000000000000000 PUSH0 DUP3 ADD MSTORE POP JUMP JUMPDEST PUSH0 PUSH2 0x472C PUSH1 0x2 DUP4 PUSH2 0x4200 JUMP JUMPDEST SWAP2 POP PUSH2 0x4737 DUP3 PUSH2 0x46F8 JUMP JUMPDEST PUSH1 0x2 DUP3 ADD SWAP1 POP SWAP2 SWAP1 POP JUMP JUMPDEST PUSH0 PUSH2 0x474D DUP3 DUP7 PUSH2 0x4254 JUMP JUMPDEST SWAP2 POP PUSH2 0x4759 DUP3 DUP6 PUSH2 0x4254 JUMP JUMPDEST SWAP2 POP PUSH2 0x4764 DUP3 PUSH2 0x4720 JUMP JUMPDEST SWAP2 POP PUSH2 0x4770 DUP3 DUP5 PUSH2 0x4254 JUMP JUMPDEST SWAP2 POP DUP2 SWAP1 POP SWAP5 SWAP4 POP POP POP POP JUMP JUMPDEST POP JUMP JUMPDEST PUSH0 PUSH2 0x478B PUSH0 DUP4 PUSH2 0x4200 JUMP JUMPDEST SWAP2 POP PUSH2 0x4796 DUP3 PUSH2 0x477D JUMP JUMPDEST PUSH0 DUP3 ADD SWAP1 POP SWAP2 SWAP1 POP JUMP JUMPDEST PUSH0 PUSH2 0x47AB DUP3 DUP6 PUSH2 0x4254 JUMP JUMPDEST SWAP2 POP PUSH2 0x47B6 DUP3 PUSH2 0x4780 JUMP JUMPDEST SWAP2 POP PUSH2 0x47C2 DUP3 DUP5 PUSH2 0x4254 JUMP JUMPDEST SWAP2 POP PUSH2 0x47CD DUP3 PUSH2 0x4780 JUMP JUMPDEST SWAP2 POP DUP2 SWAP1 POP SWAP4 SWAP3 POP POP POP JUMP JUMPDEST PUSH0 PUSH2 0x47E4 DUP3 DUP5 PUSH2 0x4254 JUMP JUMPDEST SWAP2 POP PUSH2 0x47EF DUP3 PUSH2 0x4536 JUMP JUMPDEST SWAP2 POP DUP2 SWAP1 POP SWAP3 SWAP2 POP POP JUMP JUMPDEST PUSH32 0x5D7D000000000000000000000000000000000000000000000000000000000000 PUSH0 DUP3 ADD MSTORE POP JUMP JUMPDEST PUSH0 PUSH2 0x482E PUSH1 0x2 DUP4 PUSH2 0x4200 JUMP JUMPDEST SWAP2 POP PUSH2 0x4839 DUP3 PUSH2 0x47FA JUMP JUMPDEST PUSH1 0x2 DUP3 ADD SWAP1 POP SWAP2 SWAP1 POP JUMP JUMPDEST PUSH0 PUSH2 0x484F DUP3 DUP5 PUSH2 0x4254 JUMP JUMPDEST SWAP2 POP PUSH2 0x485A DUP3 PUSH2 0x4822 JUMP JUMPDEST SWAP2 POP DUP2 SWAP1 POP SWAP3 SWAP2 POP POP JUMP JUMPDEST PUSH32 0x646174613A6170706C69636174696F6E2F6A736F6E3B6261736536342C000000 PUSH0 DUP3 ADD MSTORE POP JUMP JUMPDEST PUSH0 PUSH2 0x4899 PUSH1 0x1D DUP4 PUSH2 0x4200 JUMP JUMPDEST SWAP2 POP PUSH2 0x48A4 DUP3 PUSH2 0x4865 JUMP JUMPDEST PUSH1 0x1D DUP3 ADD SWAP1 POP SWAP2 SWAP1 POP JUMP JUMPDEST PUSH0 PUSH2 0x48B9 DUP3 PUSH2 0x488D JUMP JUMPDEST SWAP2 POP PUSH2 0x48C5 DUP3 DUP5 PUSH2 0x4254 JUMP JUMPDEST SWAP2 POP DUP2 SWAP1 POP SWAP3 SWAP2 POP POP JUMP JUMPDEST PUSH32 0x596F75206861766520616C726561647920766F7465642E000000000000000000 PUSH0 DUP3 ADD MSTORE POP JUMP JUMPDEST PUSH0 PUSH2 0x4904 PUSH1 0x17 DUP4 PUSH2 0x326F JUMP JUMPDEST SWAP2 POP PUSH2 0x490F DUP3 PUSH2 0x48D0 JUMP JUMPDEST PUSH1 0x20 DUP3 ADD SWAP1 POP SWAP2 SWAP1 POP JUMP JUMPDEST PUSH0 PUSH1 0x20 DUP3 ADD SWAP1 POP DUP2 DUP2 SUB PUSH0 DUP4 ADD MSTORE PUSH2 0x4931 DUP2 PUSH2 0x48F8 JUMP JUMPDEST SWAP1 POP SWAP2 SWAP1 POP JUMP JUMPDEST PUSH32 0x566F74696E67206E6F7420696E2070726F636573730000000000000000000000 PUSH0 DUP3 ADD MSTORE POP JUMP JUMPDEST PUSH0 PUSH2 0x496C PUSH1 0x15 DUP4 PUSH2 0x326F JUMP JUMPDEST SWAP2 POP PUSH2 0x4977 DUP3 PUSH2 0x4938 JUMP JUMPDEST PUSH1 0x20 DUP3 ADD SWAP1 POP SWAP2 SWAP1 POP JUMP JUMPDEST PUSH0 PUSH1 0x20 DUP3 ADD SWAP1 POP DUP2 DUP2 SUB PUSH0 DUP4 ADD MSTORE PUSH2 0x4999 DUP2 PUSH2 0x4960 JUMP JUMPDEST SWAP1 POP SWAP2 SWAP1 POP JUMP JUMPDEST PUSH32 0x5A65726F20766F74696E6720706F776572000000000000000000000000000000 PUSH0 DUP3 ADD MSTORE POP JUMP JUMPDEST PUSH0 PUSH2 0x49D4 PUSH1 0x11 DUP4 PUSH2 0x326F JUMP JUMPDEST SWAP2 POP PUSH2 0x49DF DUP3 PUSH2 0x49A0 JUMP JUMPDEST PUSH1 0x20 DUP3 ADD SWAP1 POP SWAP2 SWAP1 POP JUMP JUMPDEST PUSH0 PUSH1 0x20 DUP3 ADD SWAP1 POP DUP2 DUP2 SUB PUSH0 DUP4 ADD MSTORE PUSH2 0x4A01 DUP2 PUSH2 0x49C8 JUMP JUMPDEST SWAP1 POP SWAP2 SWAP1 POP JUMP JUMPDEST PUSH0 PUSH2 0x4A12 DUP3 PUSH2 0x32F5 JUMP JUMPDEST SWAP2 POP PUSH32 0xFFFFFFFFFFFFFFFFFFFFFFFFFFFFFFFFFFFFFFFFFFFFFFFFFFFFFFFFFFFFFFFF DUP3 SUB PUSH2 0x4A44 JUMPI PUSH2 0x4A43 PUSH2 0x3CE3 JUMP JUMPDEST JUMPDEST PUSH1 0x1 DUP3 ADD SWAP1 POP SWAP2 SWAP1 POP JUMP JUMPDEST PUSH32 0x5265656E7472616E637947756172643A207265656E7472616E742063616C6C00 PUSH0 DUP3 ADD MSTORE POP JUMP JUMPDEST PUSH0 PUSH2 0x4A83 PUSH1 0x1F DUP4 PUSH2 0x326F JUMP JUMPDEST SWAP2 POP PUSH2 0x4A8E DUP3 PUSH2 0x4A4F JUMP JUMPDEST PUSH1 0x20 DUP3 ADD SWAP1 POP SWAP2 SWAP1 POP JUMP JUMPDEST PUSH0 PUSH1 0x20 DUP3 ADD SWAP1 POP DUP2 DUP2 SUB PUSH0 DUP4 ADD MSTORE PUSH2 0x4AB0 DUP2 PUSH2 0x4A77 JUMP JUMPDEST SWAP1 POP SWAP2 SWAP1 POP JUMP JUMPDEST PUSH0 DUP2 MLOAD SWAP1 POP SWAP2 SWAP1 POP JUMP JUMPDEST PUSH0 DUP3 DUP3 MSTORE PUSH1 0x20 DUP3 ADD SWAP1 POP SWAP3 SWAP2 POP POP JUMP JUMPDEST PUSH0 PUSH2 0x4ADB DUP3 PUSH2 0x4AB7 JUMP JUMPDEST PUSH2 0x4AE5 DUP2 DUP6 PUSH2 0x4AC1 JUMP JUMPDEST SWAP4 POP PUSH2 0x4AF5 DUP2 DUP6 PUSH1 0x20 DUP7 ADD PUSH2 0x327F JUMP JUMPDEST PUSH2 0x4AFE DUP2 PUSH2 0x328D JUMP JUMPDEST DUP5 ADD SWAP2 POP POP SWAP3 SWAP2 POP POP JUMP JUMPDEST PUSH0 PUSH1 0x80 DUP3 ADD SWAP1 POP PUSH2 0x4B1C PUSH0 DUP4 ADD DUP8 PUSH2 0x3383 JUMP JUMPDEST PUSH2 0x4B29 PUSH1 0x20 DUP4 ADD DUP7 PUSH2 0x3383 JUMP JUMPDEST PUSH2 0x4B36 PUSH1 0x40 DUP4 ADD DUP6 PUSH2 0x3413 JUMP JUMPDEST DUP2 DUP2 SUB PUSH1 0x60 DUP4 ADD MSTORE PUSH2 0x4B48 DUP2 DUP5 PUSH2 0x4AD1 JUMP JUMPDEST SWAP1 POP SWAP6 SWAP5 POP POP POP POP POP JUMP JUMPDEST PUSH0 DUP2 MLOAD SWAP1 POP PUSH2 0x4B61 DUP2 PUSH2 0x31DD JUMP JUMPDEST SWAP3 SWAP2 POP POP JUMP JUMPDEST PUSH0 PUSH1 0x20 DUP3 DUP5 SUB SLT ISZERO PUSH2 0x4B7C JUMPI PUSH2 0x4B7B PUSH2 0x31AA JUMP JUMPDEST JUMPDEST PUSH0 PUSH2 0x4B89 DUP5 DUP3 DUP6 ADD PUSH2 0x4B53 JUMP JUMPDEST SWAP2 POP POP SWAP3 SWAP2 POP POP JUMP JUMPDEST PUSH32 0x4E487B7100000000000000000000000000000000000000000000000000000000 PUSH0 MSTORE PUSH1 0x12 PUSH1 0x4 MSTORE PUSH1 0x24 PUSH0 REVERT JUMPDEST PUSH0 PUSH2 0x4BC9 DUP3 PUSH2 0x32F5 JUMP JUMPDEST SWAP2 POP PUSH2 0x4BD4 DUP4 PUSH2 0x32F5 JUMP JUMPDEST SWAP3 POP DUP3 DUP3 MUL PUSH2 0x4BE2 DUP2 PUSH2 0x32F5 JUMP JUMPDEST SWAP2 POP DUP3 DUP3 DIV DUP5 EQ DUP4 ISZERO OR PUSH2 0x4BF9 JUMPI PUSH2 0x4BF8 PUSH2 0x3CE3 JUMP JUMPDEST JUMPDEST POP SWAP3 SWAP2 POP POP JUMP JUMPDEST PUSH0 DUP2 PUSH1 0x1 SHR SWAP1 POP SWAP2 SWAP1 POP JUMP JUMPDEST PUSH0 DUP1 DUP3 SWAP2 POP DUP4 SWAP1 POP JUMPDEST PUSH1 0x1 DUP6 GT ISZERO PUSH2 0x4C55 JUMPI DUP1 DUP7 DIV DUP2 GT ISZERO PUSH2 0x4C31 JUMPI PUSH2 0x4C30 PUSH2 0x3CE3 JUMP JUMPDEST JUMPDEST PUSH1 0x1 DUP6 AND ISZERO PUSH2 0x4C40 JUMPI DUP1 DUP3 MUL SWAP2 POP JUMPDEST DUP1 DUP2 MUL SWAP1 POP PUSH2 0x4C4E DUP6 PUSH2 0x4C00 JUMP JUMPDEST SWAP5 POP PUSH2 0x4C15 JUMP JUMPDEST SWAP5 POP SWAP5 SWAP3 POP POP POP JUMP JUMPDEST PUSH0 DUP3 PUSH2 0x4C6D JUMPI PUSH1 0x1 SWAP1 POP PUSH2 0x4D28 JUMP JUMPDEST DUP2 PUSH2 0x4C7A JUMPI PUSH0 SWAP1 POP PUSH2 0x4D28 JUMP JUMPDEST DUP2 PUSH1 0x1 DUP2 EQ PUSH2 0x4C90 JUMPI PUSH1 0x2 DUP2 EQ PUSH2 0x4C9A JUMPI PUSH2 0x4CC9 JUMP JUMPDEST PUSH1 0x1 SWAP2 POP POP PUSH2 0x4D28 JUMP JUMPDEST PUSH1 0xFF DUP5 GT ISZERO PUSH2 0x4CAC JUMPI PUSH2 0x4CAB PUSH2 0x3CE3 JUMP JUMPDEST JUMPDEST DUP4 PUSH1 0x2 EXP SWAP2 POP DUP5 DUP3 GT ISZERO PUSH2 0x4CC3 JUMPI PUSH2 0x4CC2 PUSH2 0x3CE3 JUMP JUMPDEST JUMPDEST POP PUSH2 0x4D28 JUMP JUMPDEST POP PUSH1 0x20 DUP4 LT PUSH2 0x133 DUP4 LT AND PUSH1 0x4E DUP5 LT PUSH1 0xB DUP5 LT AND OR ISZERO PUSH2 0x4CFE JUMPI DUP3 DUP3 EXP SWAP1 POP DUP4 DUP2 GT ISZERO PUSH2 0x4CF9 JUMPI PUSH2 0x4CF8 PUSH2 0x3CE3 JUMP JUMPDEST JUMPDEST PUSH2 0x4D28 JUMP JUMPDEST PUSH2 0x4D0B DUP5 DUP5 DUP5 PUSH1 0x1 PUSH2 0x4C0C JUMP JUMPDEST SWAP3 POP SWAP1 POP DUP2 DUP5 DIV DUP2 GT ISZERO PUSH2 0x4D22 JUMPI PUSH2 0x4D21 PUSH2 0x3CE3 JUMP JUMPDEST JUMPDEST DUP2 DUP2 MUL SWAP1 POP JUMPDEST SWAP4 SWAP3 POP POP POP JUMP JUMPDEST PUSH0 PUSH2 0x4D39 DUP3 PUSH2 0x32F5 JUMP JUMPDEST SWAP2 POP PUSH2 0x4D44 DUP4 PUSH2 0x32F5 JUMP JUMPDEST SWAP3 POP PUSH2 0x4D71 PUSH32 0xFFFFFFFFFFFFFFFFFFFFFFFFFFFFFFFFFFFFFFFFFFFFFFFFFFFFFFFFFFFFFFFF DUP5 DUP5 PUSH2 0x4C5E JUMP JUMPDEST SWAP1 POP SWAP3 SWAP2 POP POP JUMP JUMPDEST PUSH0 PUSH2 0x4D83 DUP3 PUSH2 0x32F5 JUMP JUMPDEST SWAP2 POP PUSH2 0x4D8E DUP4 PUSH2 0x32F5 JUMP JUMPDEST SWAP3 POP DUP3 PUSH2 0x4D9E JUMPI PUSH2 0x4D9D PUSH2 0x4B92 JUMP JUMPDEST JUMPDEST DUP3 DUP3 DIV SWAP1 POP SWAP3 SWAP2 POP POP JUMP JUMPDEST PUSH0 PUSH1 0xFF DUP3 AND SWAP1 POP SWAP2 SWAP1 POP JUMP JUMPDEST PUSH0 PUSH2 0x4DBF DUP3 PUSH2 0x4DA9 JUMP JUMPDEST SWAP2 POP PUSH2 0x4DCA DUP4 PUSH2 0x4DA9 JUMP JUMPDEST SWAP3 POP DUP3 PUSH2 0x4DDA JUMPI PUSH2 0x4DD9 PUSH2 0x4B92 JUMP JUMPDEST JUMPDEST DUP3 DUP3 DIV SWAP1 POP SWAP3 SWAP2 POP POP JUMP JUMPDEST PUSH0 PUSH2 0x4DEF DUP3 PUSH2 0x4DA9 JUMP JUMPDEST SWAP2 POP PUSH2 0x4DFA DUP4 PUSH2 0x4DA9 JUMP JUMPDEST SWAP3 POP DUP3 DUP3 MUL PUSH2 0x4E08 DUP2 PUSH2 0x4DA9 JUMP JUMPDEST SWAP2 POP DUP1 DUP3 EQ PUSH2 0x4E1A JUMPI PUSH2 0x4E19 PUSH2 0x3CE3 JUMP JUMPDEST JUMPDEST POP SWAP3 SWAP2 POP POP JUMP JUMPDEST PUSH0 PUSH2 0x4E2B DUP3 PUSH2 0x4DA9 JUMP JUMPDEST SWAP2 POP PUSH2 0x4E36 DUP4 PUSH2 0x4DA9 JUMP JUMPDEST SWAP3 POP DUP3 DUP3 SUB SWAP1 POP PUSH1 0xFF DUP2 GT ISZERO PUSH2 0x4E4F JUMPI PUSH2 0x4E4E PUSH2 0x3CE3 JUMP JUMPDEST JUMPDEST SWAP3 SWAP2 POP POP JUMP JUMPDEST PUSH0 PUSH2 0x4E5F DUP3 PUSH2 0x32F5 JUMP JUMPDEST SWAP2 POP PUSH2 0x4E6A DUP4 PUSH2 0x4DA9 JUMP JUMPDEST SWAP3 POP PUSH2 0x4E97 PUSH32 0xFFFFFFFFFFFFFFFFFFFFFFFFFFFFFFFFFFFFFFFFFFFFFFFFFFFFFFFFFFFFFFFF DUP5 DUP5 PUSH2 0x4C5E JUMP JUMPDEST SWAP1 POP SWAP3 SWAP2 POP POP JUMP JUMPDEST PUSH0 PUSH2 0x4EA9 DUP3 PUSH2 0x4DA9 JUMP JUMPDEST SWAP2 POP PUSH2 0x4EB4 DUP4 PUSH2 0x4DA9 JUMP JUMPDEST SWAP3 POP DUP3 DUP3 ADD SWAP1 POP PUSH1 0xFF DUP2 GT ISZERO PUSH2 0x4ECD JUMPI PUSH2 0x4ECC PUSH2 0x3CE3 JUMP JUMPDEST JUMPDEST SWAP3 SWAP2 POP POP JUMP INVALID COINBASE TIMESTAMP NUMBER PREVRANDAO GASLIMIT CHAINID SELFBALANCE BASEFEE BLOBHASH BLOBBASEFEE 0x4B 0x4C 0x4D 0x4E 0x4F POP MLOAD MSTORE MSTORE8 SLOAD SSTORE JUMP JUMPI PC MSIZE GAS PUSH2 0x6263 PUSH5 0x6566676869 PUSH11 0x6B6C6D6E6F707172737475 PUSH23 0x7778797A303132333435363738392B2FA2646970667358 0x22 SLT KECCAK256 0xE2 SWAP3 MSIZE SDIV 0xEA 0xCF DUP9 EQ 0xE4 0xD0 SMOD 0xE2 0xE6 PUSH11 0x2577CB167AE7990B82C925 0xA7 NOT 0xBA 0xF 0xB1 0xEB SLT PUSH5 0x736F6C6343 STOP ADDMOD BYTE STOP CALLER "
		},
		"gasEstimates": {
			"creation": {
				"codeDepositCost": "4059400",
				"executionCost": "infinite",
				"totalCost": "infinite"
			},
			"external": {
				"approve(address,uint256)": "infinite",
				"balanceOf(address)": "infinite",
				"getApproved(uint256)": "infinite",
				"getStake()": "infinite",
				"getTotalStake()": "2522",
				"getVote(uint256)": "infinite",
				"initiateVote(string,uint256,uint256)": "infinite",
				"isApprovedForAll(address,address)": "infinite",
				"name()": "infinite",
				"owner()": "2582",
				"ownerOf(uint256)": "infinite",
				"renounceOwnership()": "infinite",
				"safeTransferFrom(address,address,uint256)": "infinite",
				"safeTransferFrom(address,address,uint256,bytes)": "infinite",
				"setApprovalForAll(address,bool)": "infinite",
				"stake(uint256,uint256)": "infinite",
				"stakingToken()": "infinite",
				"supportsInterface(bytes4)": "787",
				"symbol()": "infinite",
				"tokenURI(uint256)": "infinite",
				"totalStaked()": "2470",
				"transferFrom(address,address,uint256)": "infinite",
				"transferOwnership(address)": "infinite",
				"userStaking(address,uint256)": "infinite",
				"vote(uint256,bool)": "infinite",
				"voteHistory(uint256)": "infinite",
				"withdraw()": "infinite"
			},
			"internal": {
				"char(bytes1)": "infinite",
				"finishVote(uint256)": "infinite",
				"toAsciiString(address)": "infinite"
			}
		},
		"methodIdentifiers": {
			"approve(address,uint256)": "095ea7b3",
			"balanceOf(address)": "70a08231",
			"getApproved(uint256)": "081812fc",
			"getStake()": "fc0e3d90",
			"getTotalStake()": "7bc74225",
			"getVote(uint256)": "5a55c1f0",
			"initiateVote(string,uint256,uint256)": "521de117",
			"isApprovedForAll(address,address)": "e985e9c5",
			"name()": "06fdde03",
			"owner()": "8da5cb5b",
			"ownerOf(uint256)": "6352211e",
			"renounceOwnership()": "715018a6",
			"safeTransferFrom(address,address,uint256)": "42842e0e",
			"safeTransferFrom(address,address,uint256,bytes)": "b88d4fde",
			"setApprovalForAll(address,bool)": "a22cb465",
			"stake(uint256,uint256)": "7b0472f0",
			"stakingToken()": "72f702f3",
			"supportsInterface(bytes4)": "01ffc9a7",
			"symbol()": "95d89b41",
			"tokenURI(uint256)": "c87b56dd",
			"totalStaked()": "817b1cd2",
			"transferFrom(address,address,uint256)": "23b872dd",
			"transferOwnership(address)": "f2fde38b",
			"userStaking(address,uint256)": "90816302",
			"vote(uint256,bool)": "c9d27afe",
			"voteHistory(uint256)": "12b1d5ac",
			"withdraw()": "3ccfd60b"
		}
	},
	"abi": [
		{
			"inputs": [
				{
					"internalType": "contract IERC20",
					"name": "_stakingToken",
					"type": "address"
				}
			],
			"stateMutability": "nonpayable",
			"type": "constructor"
		},
		{
			"inputs": [
				{
					"internalType": "address",
					"name": "sender",
					"type": "address"
				},
				{
					"internalType": "uint256",
					"name": "tokenId",
					"type": "uint256"
				},
				{
					"internalType": "address",
					"name": "owner",
					"type": "address"
				}
			],
			"name": "ERC721IncorrectOwner",
			"type": "error"
		},
		{
			"inputs": [
				{
					"internalType": "address",
					"name": "operator",
					"type": "address"
				},
				{
					"internalType": "uint256",
					"name": "tokenId",
					"type": "uint256"
				}
			],
			"name": "ERC721InsufficientApproval",
			"type": "error"
		},
		{
			"inputs": [
				{
					"internalType": "address",
					"name": "approver",
					"type": "address"
				}
			],
			"name": "ERC721InvalidApprover",
			"type": "error"
		},
		{
			"inputs": [
				{
					"internalType": "address",
					"name": "operator",
					"type": "address"
				}
			],
			"name": "ERC721InvalidOperator",
			"type": "error"
		},
		{
			"inputs": [
				{
					"internalType": "address",
					"name": "owner",
					"type": "address"
				}
			],
			"name": "ERC721InvalidOwner",
			"type": "error"
		},
		{
			"inputs": [
				{
					"internalType": "address",
					"name": "receiver",
					"type": "address"
				}
			],
			"name": "ERC721InvalidReceiver",
			"type": "error"
		},
		{
			"inputs": [
				{
					"internalType": "address",
					"name": "sender",
					"type": "address"
				}
			],
			"name": "ERC721InvalidSender",
			"type": "error"
		},
		{
			"inputs": [
				{
					"internalType": "uint256",
					"name": "tokenId",
					"type": "uint256"
				}
			],
			"name": "ERC721NonexistentToken",
			"type": "error"
		},
		{
			"inputs": [
				{
					"internalType": "address",
					"name": "owner",
					"type": "address"
				}
			],
			"name": "OwnableInvalidOwner",
			"type": "error"
		},
		{
			"inputs": [
				{
					"internalType": "address",
					"name": "account",
					"type": "address"
				}
			],
			"name": "OwnableUnauthorizedAccount",
			"type": "error"
		},
		{
			"anonymous": false,
			"inputs": [
				{
					"indexed": true,
					"internalType": "address",
					"name": "owner",
					"type": "address"
				},
				{
					"indexed": true,
					"internalType": "address",
					"name": "approved",
					"type": "address"
				},
				{
					"indexed": true,
					"internalType": "uint256",
					"name": "tokenId",
					"type": "uint256"
				}
			],
			"name": "Approval",
			"type": "event"
		},
		{
			"anonymous": false,
			"inputs": [
				{
					"indexed": true,
					"internalType": "address",
					"name": "owner",
					"type": "address"
				},
				{
					"indexed": true,
					"internalType": "address",
					"name": "operator",
					"type": "address"
				},
				{
					"indexed": false,
					"internalType": "bool",
					"name": "approved",
					"type": "bool"
				}
			],
			"name": "ApprovalForAll",
			"type": "event"
		},
		{
			"anonymous": false,
			"inputs": [
				{
					"indexed": true,
					"internalType": "address",
					"name": "previousOwner",
					"type": "address"
				},
				{
					"indexed": true,
					"internalType": "address",
					"name": "newOwner",
					"type": "address"
				}
			],
			"name": "OwnershipTransferred",
			"type": "event"
		},
		{
			"anonymous": false,
			"inputs": [
				{
					"indexed": true,
					"internalType": "address",
					"name": "user",
					"type": "address"
				},
				{
					"indexed": false,
					"internalType": "uint256",
					"name": "amount",
					"type": "uint256"
				}
			],
			"name": "Staked",
			"type": "event"
		},
		{
			"anonymous": false,
			"inputs": [
				{
					"indexed": true,
					"internalType": "address",
					"name": "from",
					"type": "address"
				},
				{
					"indexed": true,
					"internalType": "address",
					"name": "to",
					"type": "address"
				},
				{
					"indexed": true,
					"internalType": "uint256",
					"name": "tokenId",
					"type": "uint256"
				}
			],
			"name": "Transfer",
			"type": "event"
		},
		{
			"anonymous": false,
			"inputs": [
				{
					"indexed": false,
					"internalType": "string",
					"name": "question",
					"type": "string"
				},
				{
					"indexed": false,
					"internalType": "uint256",
					"name": "voteID",
					"type": "uint256"
				}
			],
			"name": "VoteCreated",
			"type": "event"
		},
		{
			"anonymous": false,
			"inputs": [
				{
					"indexed": false,
					"internalType": "string",
					"name": "question",
					"type": "string"
				},
				{
					"indexed": false,
					"internalType": "uint256",
					"name": "voteID",
					"type": "uint256"
				},
				{
					"indexed": false,
					"internalType": "enum VoteContract.Decision",
					"name": "desition",
					"type": "uint8"
				}
			],
			"name": "VoteFinished",
			"type": "event"
		},
		{
			"anonymous": false,
			"inputs": [
				{
					"indexed": true,
					"internalType": "address",
					"name": "user",
					"type": "address"
				},
				{
					"indexed": false,
					"internalType": "uint256",
					"name": "amount",
					"type": "uint256"
				}
			],
			"name": "Withdrawn",
			"type": "event"
		},
		{
			"inputs": [
				{
					"internalType": "address",
					"name": "to",
					"type": "address"
				},
				{
					"internalType": "uint256",
					"name": "tokenId",
					"type": "uint256"
				}
			],
			"name": "approve",
			"outputs": [],
			"stateMutability": "nonpayable",
			"type": "function"
		},
		{
			"inputs": [
				{
					"internalType": "address",
					"name": "owner",
					"type": "address"
				}
			],
			"name": "balanceOf",
			"outputs": [
				{
					"internalType": "uint256",
					"name": "",
					"type": "uint256"
				}
			],
			"stateMutability": "view",
			"type": "function"
		},
		{
			"inputs": [
				{
					"internalType": "uint256",
					"name": "tokenId",
					"type": "uint256"
				}
			],
			"name": "getApproved",
			"outputs": [
				{
					"internalType": "address",
					"name": "",
					"type": "address"
				}
			],
			"stateMutability": "view",
			"type": "function"
		},
		{
			"inputs": [],
			"name": "getStake",
			"outputs": [
				{
					"components": [
						{
							"internalType": "uint256",
							"name": "stakedAmount",
							"type": "uint256"
						},
						{
							"internalType": "uint256",
							"name": "withdrawDate",
							"type": "uint256"
						}
					],
					"internalType": "struct StakingContract.Stake[]",
					"name": "",
					"type": "tuple[]"
				}
			],
			"stateMutability": "view",
			"type": "function"
		},
		{
			"inputs": [],
			"name": "getTotalStake",
			"outputs": [
				{
					"internalType": "uint256",
					"name": "",
					"type": "uint256"
				}
			],
			"stateMutability": "view",
			"type": "function"
		},
		{
			"inputs": [
				{
					"internalType": "uint256",
					"name": "voteID",
					"type": "uint256"
				}
			],
			"name": "getVote",
			"outputs": [
				{
					"components": [
						{
							"internalType": "uint256",
							"name": "deadline",
							"type": "uint256"
						},
						{
							"internalType": "uint256",
							"name": "threshold",
							"type": "uint256"
						},
						{
							"internalType": "string",
							"name": "question",
							"type": "string"
						},
						{
							"internalType": "uint256",
							"name": "peopleVoted",
							"type": "uint256"
						},
						{
							"internalType": "uint256",
							"name": "yesVote",
							"type": "uint256"
						},
						{
							"internalType": "uint256",
							"name": "noVote",
							"type": "uint256"
						},
						{
							"internalType": "enum VoteContract.Decision",
							"name": "finalDecision",
							"type": "uint8"
						}
					],
					"internalType": "struct VoteContract.Vote",
					"name": "",
					"type": "tuple"
				}
			],
			"stateMutability": "view",
			"type": "function"
		},
		{
			"inputs": [
				{
					"internalType": "string",
					"name": "question",
					"type": "string"
				},
				{
					"internalType": "uint256",
					"name": "threshold",
					"type": "uint256"
				},
				{
					"internalType": "uint256",
					"name": "deadline",
					"type": "uint256"
				}
			],
			"name": "initiateVote",
			"outputs": [
				{
					"internalType": "uint256",
					"name": "",
					"type": "uint256"
				}
			],
			"stateMutability": "nonpayable",
			"type": "function"
		},
		{
			"inputs": [
				{
					"internalType": "address",
					"name": "owner",
					"type": "address"
				},
				{
					"internalType": "address",
					"name": "operator",
					"type": "address"
				}
			],
			"name": "isApprovedForAll",
			"outputs": [
				{
					"internalType": "bool",
					"name": "",
					"type": "bool"
				}
			],
			"stateMutability": "view",
			"type": "function"
		},
		{
			"inputs": [],
			"name": "name",
			"outputs": [
				{
					"internalType": "string",
					"name": "",
					"type": "string"
				}
			],
			"stateMutability": "view",
			"type": "function"
		},
		{
			"inputs": [],
			"name": "owner",
			"outputs": [
				{
					"internalType": "address",
					"name": "",
					"type": "address"
				}
			],
			"stateMutability": "view",
			"type": "function"
		},
		{
			"inputs": [
				{
					"internalType": "uint256",
					"name": "tokenId",
					"type": "uint256"
				}
			],
			"name": "ownerOf",
			"outputs": [
				{
					"internalType": "address",
					"name": "",
					"type": "address"
				}
			],
			"stateMutability": "view",
			"type": "function"
		},
		{
			"inputs": [],
			"name": "renounceOwnership",
			"outputs": [],
			"stateMutability": "nonpayable",
			"type": "function"
		},
		{
			"inputs": [
				{
					"internalType": "address",
					"name": "from",
					"type": "address"
				},
				{
					"internalType": "address",
					"name": "to",
					"type": "address"
				},
				{
					"internalType": "uint256",
					"name": "tokenId",
					"type": "uint256"
				}
			],
			"name": "safeTransferFrom",
			"outputs": [],
			"stateMutability": "nonpayable",
			"type": "function"
		},
		{
			"inputs": [
				{
					"internalType": "address",
					"name": "from",
					"type": "address"
				},
				{
					"internalType": "address",
					"name": "to",
					"type": "address"
				},
				{
					"internalType": "uint256",
					"name": "tokenId",
					"type": "uint256"
				},
				{
					"internalType": "bytes",
					"name": "data",
					"type": "bytes"
				}
			],
			"name": "safeTransferFrom",
			"outputs": [],
			"stateMutability": "nonpayable",
			"type": "function"
		},
		{
			"inputs": [
				{
					"internalType": "address",
					"name": "operator",
					"type": "address"
				},
				{
					"internalType": "bool",
					"name": "approved",
					"type": "bool"
				}
			],
			"name": "setApprovalForAll",
			"outputs": [],
			"stateMutability": "nonpayable",
			"type": "function"
		},
		{
			"inputs": [
				{
					"internalType": "uint256",
					"name": "amount",
					"type": "uint256"
				},
				{
					"internalType": "uint256",
					"name": "period",
					"type": "uint256"
				}
			],
			"name": "stake",
			"outputs": [],
			"stateMutability": "nonpayable",
			"type": "function"
		},
		{
			"inputs": [],
			"name": "stakingToken",
			"outputs": [
				{
					"internalType": "contract IERC20",
					"name": "",
					"type": "address"
				}
			],
			"stateMutability": "view",
			"type": "function"
		},
		{
			"inputs": [
				{
					"internalType": "bytes4",
					"name": "interfaceId",
					"type": "bytes4"
				}
			],
			"name": "supportsInterface",
			"outputs": [
				{
					"internalType": "bool",
					"name": "",
					"type": "bool"
				}
			],
			"stateMutability": "view",
			"type": "function"
		},
		{
			"inputs": [],
			"name": "symbol",
			"outputs": [
				{
					"internalType": "string",
					"name": "",
					"type": "string"
				}
			],
			"stateMutability": "view",
			"type": "function"
		},
		{
			"inputs": [
				{
					"internalType": "uint256",
					"name": "tokenId",
					"type": "uint256"
				}
			],
			"name": "tokenURI",
			"outputs": [
				{
					"internalType": "string",
					"name": "",
					"type": "string"
				}
			],
			"stateMutability": "view",
			"type": "function"
		},
		{
			"inputs": [],
			"name": "totalStaked",
			"outputs": [
				{
					"internalType": "uint256",
					"name": "",
					"type": "uint256"
				}
			],
			"stateMutability": "view",
			"type": "function"
		},
		{
			"inputs": [
				{
					"internalType": "address",
					"name": "from",
					"type": "address"
				},
				{
					"internalType": "address",
					"name": "to",
					"type": "address"
				},
				{
					"internalType": "uint256",
					"name": "tokenId",
					"type": "uint256"
				}
			],
			"name": "transferFrom",
			"outputs": [],
			"stateMutability": "nonpayable",
			"type": "function"
		},
		{
			"inputs": [
				{
					"internalType": "address",
					"name": "newOwner",
					"type": "address"
				}
			],
			"name": "transferOwnership",
			"outputs": [],
			"stateMutability": "nonpayable",
			"type": "function"
		},
		{
			"inputs": [
				{
					"internalType": "address",
					"name": "",
					"type": "address"
				},
				{
					"internalType": "uint256",
					"name": "",
					"type": "uint256"
				}
			],
			"name": "userStaking",
			"outputs": [
				{
					"internalType": "uint256",
					"name": "stakedAmount",
					"type": "uint256"
				},
				{
					"internalType": "uint256",
					"name": "withdrawDate",
					"type": "uint256"
				}
			],
			"stateMutability": "view",
			"type": "function"
		},
		{
			"inputs": [
				{
					"internalType": "uint256",
					"name": "voteID",
					"type": "uint256"
				},
				{
					"internalType": "bool",
					"name": "yes",
					"type": "bool"
				}
			],
			"name": "vote",
			"outputs": [],
			"stateMutability": "nonpayable",
			"type": "function"
		},
		{
			"inputs": [
				{
					"internalType": "uint256",
					"name": "",
					"type": "uint256"
				}
			],
			"name": "voteHistory",
			"outputs": [
				{
					"internalType": "uint256",
					"name": "deadline",
					"type": "uint256"
				},
				{
					"internalType": "uint256",
					"name": "threshold",
					"type": "uint256"
				},
				{
					"internalType": "string",
					"name": "question",
					"type": "string"
				},
				{
					"internalType": "uint256",
					"name": "peopleVoted",
					"type": "uint256"
				},
				{
					"internalType": "uint256",
					"name": "yesVote",
					"type": "uint256"
				},
				{
					"internalType": "uint256",
					"name": "noVote",
					"type": "uint256"
				},
				{
					"internalType": "enum VoteContract.Decision",
					"name": "finalDecision",
					"type": "uint8"
				}
			],
			"stateMutability": "view",
			"type": "function"
		},
		{
			"inputs": [],
			"name": "withdraw",
			"outputs": [],
			"stateMutability": "nonpayable",
			"type": "function"
		}
	]
}